:042D79004100BC0059
:03005B0002318BE4
:10318B00C0E0C0D075D000C000C001C005C006C0F3
:10319B0007C2EFAFC37816E6FD25E02417F87600DB
:1031AB0008A607ED25E02417F8C000F9E7FE09E7AC
:1031BB007802C333CE33CED8F9D000A60608F6ED8D
:1031CB0025E02417F8AFC2E6F6EF0846F6D007D095
:0C31DB0006D005D001D000D0D0D0E032EA
:102E70007F021223861238951237251239861239AD
:102E800019900088E06005E4F01237DA90008AE0DB
:102E90006008E4F01238B0122C7190008CE0601DD4
:102EA000E4900001F090008CF0122A8012341E9001
:0D2EB00000BCE004F0E0C394054002E4F033
:102EBD0090008FE06005E4F01235DB12385D900074
:0C2ECD0000EFF060AFE0FF12139080A84F
:042D7D004100BD0054
:05139000900002EFF0E7
:10139500E4A3F0A3F0900003F0FE7F10FDFB7A00BC
:1013A500799D121E32900002E024FEB4190040031C
:1013B5000219309013C675F003A4C58325F0C583C3
:1013C500730214110214720214CE0219300215248C
:1013D50002157A0219300215D002162602193002BA
:1013E500167C0216D202193002172802177E02193E
:1013F500300219300217DE02193002183402193092
:1014050002188A0219300219300218DD9000BDE079
:101415007053900003E0FF04F0749D2FF876F2E01E
:10142500FF04F0749D2FF87601E0FF04F0749D2F02
:10143500F87654E4A3F0789EE62401FFE433FE90A9
:101445000004E0FDC39FEE6480F874809850167424
:101455009E2DF8E6FF900003E0249DF8EF26F6A305
:10146500E004F080D1E49000BDF00219309000BD99
:101475007401F0900003E0FF04F0749D2FF876F2FC
:10148500E0FF04F0749D2FF87601E0FF04F0749DF1
:101495002FF87601E4A3F0789EE62401FFE433FEFD
:1014A500900004E0FDC39FEE6480F87480984003CB
:1014B500021930749E2DF8E6FF900003E0249DF894
:1014C500EF26F6A3E004F080CE900003E0FF04F0E1
:1014D500749D2FF876F2E0FF04F0749D2FF87601E5
:1014E500E0FF04F0749D2FF87606E4A3F0789EE6FD
:1014F5002401FFE433FE900004E0FDC39FEE648009
:10150500F87480984003021930749E2DF8E6FF9018
:101515000003E0249DF8EF26F6A3E004F080CE90CA
:101525000003E0FF04F0749D2FF876F2E0FF04F06D
:10153500749D2FF87601E0FF04F0749D2FF876076F
:10154500E4A3F0789EE62401FFE433FE900004E076
:10155500FDC39FEE6480F8748098400302193074CF
:101565009E2DF8E6FF900003E0249DF8EF26F6A3F4
:10157500E004F080CE900003E0FF04F0749D2FF8A6
:1015850076F2E0FF04F0749D2FF87601E0FF04F099
:10159500749D2FF87603E4A3F0789EE62401FFE41A
:1015A50033FE900004E0FDC39FEE6480F8748098DC
:1015B5004003021930749E2DF8E6FF900003E024E5
:1015C5009DF8EF26F6A3E004F080CE900003E0FF3F
:1015D50004F0749D2FF876F2E0FF04F0749D2FF867
:1015E5007601E0FF04F0749D2FF87603E4A3F0780C
:1015F5009EE62401FFE433FE900004E0FDC39FEE68
:101605006480F87480984003021930749E2DF8E6C2
:10161500FF900003E0249DF8EF26F6A3E004F08098
:10162500CE900003E0FF04F0749D2FF876F2E0FF02
:1016350004F0749D2FF87601E0FF04F0749D2FF8F7
:101645007602E4A3F0789EE62401FFE433FE9000E1
:1016550004E0FDC39FEE6480F8748098400302198E
:1016650030749E2DF8E6FF900003E0249DF8EF26E8
:10167500F6A3E004F080CE900003E0FF04F0749D33
:101685002FF876F2E0FF04F0749D2FF87601E0FF65
:1016950004F0749D2FF87602E4A3F0789EE6240109
:1016A500FFE433FE900004E0FDC39FEE6480F87410
:1016B50080984003021930749E2DF8E6FF900003D0
:1016C500E0249DF8EF26F6A3E004F080CE90000319
:1016D500E0FF04F0749D2FF876F2E0FF04F0749DAE
:1016E5002FF87601E0FF04F0749D2FF87604E4A34B
:1016F500F0789EE62401FFE433FE900004E0FDC38C
:101705009FEE6480F87480984003021930749E2D12
:10171500F8E6FF900003E0249DF8EF26F6A3E00429
:10172500F080CE900003E0FF04F0749D2FF876F270
:10173500E0FF04F0749D2FF87601E0FF04F0749D3E
:101745002FF87604E4A3F0789EE62401FFE433FE47
:10175500900004E0FDC39FEE6480F8748098400318
:10176500021930749E2DF8E6FF900003E0249DF8E1
:10177500EF26F6A3E004F080CE900003E0FF04F02E
:10178500749D2FF876F2E0FF04F0749D2FF8760231
:10179500E0FF04F0749D2FF87609E0FF04F0749DD6
:1017A5002FF87603E4A3F0789EE62401FFE433FEE8
:1017B500900004E0FDC39FEE6480F87480984003B8
:1017C500021930749E2DF8E6FF900003E0249DF881
:1017D500EF26F6A3E004F080CE900003E0FF04F0CE
:1017E500749D2FF876F2E0FF04F0749D2FF87601D2
:1017F500E0FF04F0749D2FF87605E4A3F0789EE6EB
:101805002401FFE433FE900004E0FDC39FEE6480F5
:10181500F87480984003021930749E2DF8E6FF9005
:101825000003E0249DF8EF26F6A3E004F080CE90B7
:101835000003E0FF04F0749D2FF876F2E0FF04F05A
:10184500749D2FF87601E0FF04F0749D2FF876055E
:10185500E4A3F0789EE62401FFE433FE900004E063
:10186500FDC39FEE6480F8748098400302193074BC
:101875009E2DF8E6FF900003E0249DF8EF26F6A3E1
:10188500E004F080CE900003E0FF04F0749D2FF893
:1018950076F2E0FF04F0749D2FF87601E0FF04F086
:1018A500749D2FF87608E4A3F0789EE62401FFE402
:1018B50033FE900004E0FDC39FEE6480F8748098C9
:1018C5005069749E2DF8E6FF900003E0249DF8EF23
:1018D50026F6A3E004F080D1900003E0FF04F07445
:1018E5009D2FF876F2E0FF04F0749D2FF87601E065
:1018F500FF04F0749D2FF876B9E4A3F0789EE624F2
:1019050001FFE433FE900004E0FDC39FEE6480F820
:101915007480985016749E2DF8E6FF900003E0241D
:101925009DF8EF26F6A3E004F080D1900003E06077
:0E1935000D04F07B007A00799DE0FD1233472F
:011943002281
:093B3C0020505752204F4646006C
:082D81004100BB004100BA0053
:10391900E49000BBF09000BAF0FE7F07FDFB7A004F
:08392900790F121E32023BFD72
:1035DB009000BBE004F0E0D3940540239000BAE0E8
:1035EB00701D04F0123972123AE9123BFD7BFF7A1F
:1035FB003B793C122B357BFF7A3B793C1232F42220
:013C6400223D
:08000300E49000BAF0A3F02222
:013C6500223C
:0C3B0300900060EBF0A3EAF0A3E9F022D0
:0C3B0F00900063EBF0A3EAF0A3E9F022C1
:1039F900900060A3E0FAA3E0F94A6003121D1222C5
:103A0900900063A3E0FAA3E0F94A6003121D1222B1
:10357700EF4E602D900056EEF0A3EFF0AF05A3ECF1
:10358700F0A3EFF0AF03A3EAF0A3EFF0E4A3F0A3F7
:10359700F0A3F0A3F0900055F090005404F0123916
:0235A700F92207
:10397200E4900054F0123A097B007A007900123B7D
:0439820003023B0FF2
:0A005100900054E06002D322C322A5
:102A8000900054E07003022B34900058E0FEA3E065
:102A9000FF4E7003022B34900055E07035D3EF9455
:102AA00000EE94005003022B3490005CE475F001BA
:102AB000121AD5FED3900057E095F0900056E09E94
:102AC0005072123A09E490005CF0A3F090005504B3
:102AD000F022900055E06401705A90005C75F0019E
:102AE000121AD5FED3900059E095F0900058E09E60
:102AF000504290005AE0FEA3E0FF9400EE940040A4
:102B00002590005EE475F001121AD5FCD3EF95F024
:102B1000EE9C5005E4900054F0900054E070079053
:102B20000058F0A3F022E490005CF0A3F090005570
:052B3000F01239F9224A
:10270B002042415A4F4F4B410020505752204F46C9
:10271B004600414343204F4E00414343204F464622
:10272B000020564F4C2025750020202020202020F3
:10273B0020002020205041555345002020204D558E
:10274B00544520002020204E4558542000202020A6
:10275B0050524556200020202020535425750054FC
:10276B0052202575002050414952494E47002020E8
:10277B0050414952454400545753205343414E0056
:10278B002020545753204F4B00202020202025750C
:10279B0025303275005343414E4E494E47002020A1
:1027AB002020504C41590020202020257525303207
:1027BB007500464D202575257500464D2020257545
:1027CB00257500464D202020257525750050524952
:1027DB005245440050414952494E4700504C4159D3
:1027EB00004D5554450000000000000000000000A3
:0627FB00000000000000D8
:102D890001AD0010AE0000000000000000000000CE
:102D99000000000000109D0000000000000000007D
:102DA9000000000000000050007700000000000053
:0C2DB90000000000000000000000C10944
:10372500E478ADF6FE7F10FDFB7A0079AE121E320D
:103735007E007F107D007B007A00799D121E32127B
:0537450024CB0236FF59
:10334700900005EBF0A3EAF0A3E9F0A3EDF0D39426
:1033570010503D123ABE78AD7601900005E0FBA310
:10336700E0FAA3E0F990009DEB7008E9658270032D
:10337700EA6583601B900008E0FF7E00789D7C0073
:103387007D00900005E0FBA3E0FAA3E0F9121A1410
:013397002213
:103931007810E67BFF30E1067A27790B80047A273D
:063941007914122B35225F
:103947007810E67BFF30E0067A27791D80047A2716
:063957007924122B352239
:10000E0078097C007D017BFF7A2779F17E007F10D5
:10001E00121A14123C04123C1290001C74FFF0A32E
:10002E007427F0A3742CF07811E6FFA3E4F0A3EF8D
:10003E00F07B017A007909121F327B017A0079096F
:03004E00022B354D
:0F3A19007BFF7A277934122B35123C04023C12C2
:093B45007BFF7A27793D022B3544
:093B4E007BFF7A277946022B3532
:0F3A28007BFF7A27793D122B35123C04023C12AA
:0F3A37007BFF7A27794F122B35123C04023C1289
:0F3A46007BFF7A277958122B35123C04023C1271
:1035110090001C74FFF0A37427F0A37461F078137A
:10352100E6FFA3E4F0A3EFF07B017A007977121FA5
:10353100327B017A007977122B35123BE8123C0479
:03354100023C1930
:1035A90090001C74FFF0A37427F0A3746AF07814D8
:1035B900E6FF08E6A3CFF0A3EFF07B017A00797765
:1035C900121F327B017A007977122B35123C0402E3
:0235D9003C12A2
:0F3A55007B017A007977122B35123C04023C1268
:0F3A64007BFF7A277934122B35123C04023C1277
:0B005E00900003EBF0A3EAF0A3E9F030
:10006900E4A3F0A3F0A3F0121A3A64F86003020AB9
:1000790095900003E0FBA3E0FAA3E0F990000112D8
:100089001A53D394104003020A95E4900006F090A5
:100099000003E0FBA3E0FAA3E0F9900001121A5370
:1000A9002401FFE433FE900006E0FDC39FEE648067
:1000B900F8748098501DED2401FFE433FE8F828E81
:1000C90083121A53FF900008E02FF0900006E00415
:1000D900F080BC900003E0FBA3E0FAA3E0F99000F4
:1000E90001121A53F582758300A3A3121A53FF90C4
:1000F9000008E06F6003020A957E007F107D007B97
:10010900007A00799D121E32E4900007F012000374
:10011900900003E0FBA3E0FAA3E0F9900002121AB1
:1001290053121CEC076F0108E90209400307EE09A5
:1001390001613101EE3303093404D03505E0360697
:100149007837073A38099B410833B9015BF1000058
:100159000A8D120003020A8D123972123C12123CE6
:1001690004123BE8123BB0123BDA123BCC123BBE05
:10017900900003E0FBA3E0FAA3E0F9900003121A50
:1001890053640170257810E64402F67BFF7A3979C9
:1001990031123B037B007A007900123B0F7B017A15
:1001A900007D017C007F3202093C900003E0FBA343
:1001B900E0FAA3E0F9900003121A53640260030203
:1001C9000A8D7810E654FDF67BFF7A397931123BB6
:1001D900037B007A007900123B0FE4FBFA7D01FCF6
:1001E9007F140208C5900003E0FBA3E0FAA3E0F93D
:1001F900900003121A5324FE70030202C004600324
:10020900020A8D7812E66401600712397278127653
:1002190001123BE8123BB0123BDA123BCC123BC550
:10022900900003E0FBA3E0FAA3E0F9900004121A9E
:1002390053B4010F90001C74FFF0A37427F0A3744A
:10024900708067900003E0FBA3E0FAA3E0F9900057
:1002590004121A53B4020F90001C74FFF0A3742700
:10026900F0A374798044900003E0FBA3E0FAA3E0D3
:10027900F9900004121A53B4030F90001C74FFF094
:10028900A37427F0A374828021900003E0FBA3E00C
:10029900FAA3E0F9900004121A53B4041790001C51
:1002A90074FFF0A37427F0A3748BF07B017A0079B3
:1002B90077121F32020A14123972123AE990001C9D
:1002C90074FFF0A37427F0A37494F0900003E0FB8B
:1002D900A3E0FAA3E0F9900003121A53FF90001F5C
:1002E900E4F0A3EFF0900004121A53FF900021E408
:1002F900F0A3EFF07B017A007977121F32020A8DA1
:10030900900003E0FBA3E0FAA3E0F9900003121ABE
:100319005324FE605A147003020438147003020354
:10032900B214700302048724046003020A8D90004A
:1003390004121A53B4010302044C900003E0FBA316
:10034900E0FAA3E0F9900004121A53640260030270
:100359000A8D7BFF7A3B7945123B037BFF7A3A7919
:1003690019123B0FE4FBFA7D06FC7F060208C590D3
:100379000003E0FBA3E0FAA3E0F9900004121A538A
:100389006402700F90001C74FFF0A37427F0A3742B
:10039900A08058900003E0FBA3E0FAA3E0F99000E5
:0903A90004121A536401020A8DCA
:1003B200123C12123C04123BE8123BB0123BDA121E
:1003C2003BCC123BBE123BD3900003E0FBA3E0FA0E
:1003D200A3E0F9900004121A536401702230090557
:1003E200123972C20990001C74FFF0A37427F0A3A3
:1003F20074A9F07B017A007977121F32020A1490F5
:100402000003E0FBA3E0FAA3E0F9900004121A5300
:1004120064026003020A8DD2097BFF7A3B794E1295
:100422003B037BFF7A3A7919123B0FE4FBFA7D0713
:03043200FC7F0745
:100435000208C5900003E0FBA3E0FAA3E0F99000F1
:1004450004121A53B40106123972020A8D90000380
:10045500E0FBA3E0FAA3E0F9900004121A5364024A
:100465006003020A8D7BFF7A3A7928123B037BFFF2
:100475007A3A7919123B0FE4FBFA7D0AFC7F0A02EE
:1004850008C5900003E0FBA3E0FAA3E0F99000049F
:10049500121A5364017031E92405F9E43AFA7877C0
:1004A5007C007D017E007F08121A147BFF7A3A7961
:1004B50055123B037BFF7A3A7964123B0FE4FBFA52
:1004C5007D06FC7F060208C50208C9900003E0FB13
:1004D500A3E0FAA3E0F9900003121A5324FE607317
:1004E50014700302058E24FE70030205D1240460F6
:1004F50003020A8D900004121A53B4011F7BFF7A80
:100505003A7946123B037B007A007900123B0F7B58
:10051500017A007D017C007F1E02093C900003E00A
:10052500FBA3E0FAA3E0F9900004121A53640260F9
:1005350003020A8D7BFF7A3A7937123B037B007AF7
:10054500007900123B0F7B017A007D017C007F1E44
:1005550002093C123972900003E0FBA3E0FAA3E024
:10056500F9900005121A537813F67BFF7A35791145
:10057500123B037B007A007900123B0F7B017A0066
:100585007D017C007F1E02093C900003E0FBA3E097
:10059500FAA3E0F9900006121A537814760008F6CB
:1005A500900005121A53781446F608E6F67BFF7A92
:1005B5003579A9123B037B007A007900123B0F7B4A
:1005C500017A007D017C007F1E02093C900003E05A
:1005D500FBA3E0FAA3E024040208D57812E664033D
:1005E500600712397278127603123BE8123BB0129B
:1005F5003BBE123BCC123BE1900003E0FBA3E0FACB
:10060500A3E0F9900003121A53FFD3940990001C3C
:1006150074FF400BF0A37427F0A374B2F0801BF0B5
:10062500A37427F0A37494F0900003E0FBA3E0FA11
:10063500A3E0F9900003121A53FF90001FE4F0A302
:10064500EFF0900004121A53FF900021E4F0A3EF9D
:10065500F07B017A007977121F327B017A00797776
:1006650012395DAD077B017A00797790000D74032F
:10067500020A297812E66402600712397278127646
:1006850002123BDA123BE8123BBE123BCC123BB7DF
:10069500123BEF900003E0FBA3E0FAA3E0F9900022
:1006A50003121A53FFD39463401090001C74FFF09B
:1006B500A37427F0A374BDF08042900003E0FBA370
:1006C500E0FAA3E0F9900003121A53FFD3940990BE
:1006D500001C74FF400BF0A37427F0A374C5F080D1
:1006E5001BF0A37427F0A374CEF0900003E0FBA3E6
:1006F500E0FAA3E0F9900003121A53FF90001FE4FB
:10070500F0A3EFF0900004121A53FF900021E4F0DB
:10071500A3EFF07B017A007977121F327B017A0013
:10072500797712395DAD077B017A00797790000DF5
:100735007401020A29900003E0FBA3E0FAA3E0F9A3
:10074500900003121A53547F7811F67BFF7A0079D3
:100755000E123B037B007A007900123B0F7B017A76
:10076500007D017C007F1E02093C900003E0FBA395
:10077500E0FAA3E0F9900003121A5364017031E91D
:100785002404F9E43AFA78777C007D017E007F083D
:10079500121A147BFF7A3A7955123B037BFF7A3A9A
:1007A5007964123B0FE4FBFA7D06FC7F060208C55F
:1007B500900003E0FBA3E0FAA3E02404F9E43AFA8D
:1007C500E490000DF07D081232F47BFF7A3A7955FA
:1007D500123B037B007A007900123B0F7B017A0004
:1007E5007D017C007F0102093C123C12123C049001
:1007F5000003E0FBA3E0FAA3E0F9900003121A530B
:100805007810B40106E64401F68004E654FEF67B52
:10081500FF7A397947123B037B007A007900123B56
:100825000F7B017A007D017C007F1402093C90005A
:1008350003E0FBA3E0FAA3E0F9900003121A536466
:100845000160030208E3123BA9900003E0FBA3E06B
:10085500FAA3E0F9900004121A5364017066E924C2
:1008650005F9E43AFA78777C007D017E007F08126D
:100875001A14E4900006F0900006E0FFC3941050AF
:100885002574772FF582E43400F583E0701090002D
:1008950006E02477F582E43400F5837420F09000B7
:1008A50006E004F080D17BFF7A3A7955123B037B51
:1008B500FF7A3A7964123B0FE4FBFA7D05FC7F056C
:1008C500FE020995900003E0FBA3E0FAA3E02405EE
:1008D500F9E43AFAE490000DF07D08020A8A123B29
:1008E500A2020A8D900003E0FBA3E0FAA3E0240333
:1008F500F9E43AFA78777C007D017E007F08121AC8
:1009050014900003E0FBA3E0FAA3E02403F9E43A22
:10091500FAE490000DF07D081232F47BFF7A3A7903
:1009250055123B037B007A007900123B0F7B017A5D
:10093500007D017C007F017E008055900003E0FB77
:10094500A3E0FAA3E02403F9E43AFA78777C007D82
:10095500017E007F08121A14900003E0FBA3E0FA61
:10096500A3E02403F9E43AFAE490000DF07D0812BF
:1009750032F47BFF7A3A7955123B037B007A007992
:1009850000123B0F7B017A007D017C007F017E0018
:10099500123577020A8D123BE8123C04123C121202
:1009A5003BBE123BB0123BCC123BDA900003E0FB9E
:1009B500A3E0FAA3E0F9900003121A5324FC606740
:1009C50024036003020A8D123BC5900003E0FBA3DC
:1009D500E0FAA3E0F9900004121A53B4010E7877F7
:1009E5007C007D017BFF7A2779D88020900003E089
:1009F500FBA3E0FAA3E0F9900004121A53B4020F26
:100A050078777C007D017BFF7A2779DF121E157BC5
:100A1500017A00797712395DAD077B017A00797724
:100A2500E490000DF0805E123BD3900003E0FBA341
:100A3500E0FAA3E0F9900004121A53B4010E787796
:100A45007C007D017BFF7A2779E78020900003E019
:100A5500FBA3E0FAA3E0F9900004121A53B4020FC5
:100A650078777C007D017BFF7A2779EC121E157B58
:100A7500017A00797712395DAD077B017A007977C4
:100A8500E490000DF01232F4900007E0600204F0EB
:010A9500223E
:102C7100E4900002F078ADE66063123B32EF24F09D
:102C8100603924D0603324207037123B1B123C2062
:102C9100E478ADF6900002F00000900002E004F04C
:102CA100E0B464F41236FFE4900002F000009000FA
:102CB10002E004F0E0B464F4228000123B1B023C09
:102CC10020E4900002F00000900002E004F0E0B483
:102CD10082F47B007A00799D7D100233DB7B007AE0
:102CE1000079AE7D1012365FEF60097B007A0079C2
:042CF100AE12005EC1
:012CF50022BC
:093B570020505752204F46460051
:102DC5005000670000000000000000000000000047
:072DD5000000004100660050
:10398600E4900066F078677C007D017BFF7A3B79E6
:0439960057021E15A1
:1032F400900009EBF0A3EAF0A3E9F0A3EDF090004D
:1033040009E0F9A3E0FAA3E0900011C9F0A3EAF000
:10331400A3E9F0EDFFA3E4F0A3EFF07B017A0079D9
:1033240067122ED990000CE0FFC39410500C746700
:103334002FF582E43400F583E4F090000DE0900072
:0333440066F0220E
:10341E00120051403B7B017A007967122B359000E8
:10342E0066E07006123C12023C04900066E0B401A5
:10343E0005123C048017900066E0B40206123C0BA5
:10344E00023C12900066E0B40306123C0B123C19CB
:01345E00224B
:1038950012381E1234DB123544123C33123B6912C6
:0B38A50037B71239AE123B72D2AF22CF
:0A2DDC00420097000042009500003D
:093B60003082037F00227F012264
:092F41007817E6FC08E6FD7F129A
:102F4A00EF2407FBE43EFAD3EB94FFEA940340062E
:102F5A007A037BFF8007EF2407FBE43EFA90009791
:102F6A00EAF0A3EBF0C3EF9407EE940050067E005C
:102F7A007F008008EF24F9FFEE34FFFE900095EE03
:102F8A00F0A3EFF0C3ED9FEC9E4010900098E09DF7
:0E2F9A00900097E09C40047F0180027F00229F
:0F3A73007817E6FC08E6FD7F077E03122F4A2234
:063C27007E02122F412273
:063C2D007E01122F41226E
:0E3ACD007817E6FC08E6FDE4FFFE122F4A2201
:0F3A82007819E6FC08E6FD7F387E03122F4A22F2
:0F3A91007819E6FC08E6FD7F747E02122F4A22A8
:0F3AA0007819E6FC08E6FD7FB07E01122F4A225E
:0F3AAF007819E6FC08E6FD7FE07E00122F4A2220
:1039E700123B60EF6009123A82EF60037F01227F8A
:0239F7000022AC
:063C33001229C8023B9BB0
:10399A00789BE62490F8A607789B06E6C3940A402B
:0439AA0002E4F6221B
:10385D00789AE6FE08667002FF2274902EF8E6FF55
:0B386D00789A06E6C3940A4002E4F6D5
:01387800222D
:10387900789CE6FE18667002FF2274902EF8E6FF27
:0B388900789C06E6C3940A4002E4F6B7
:013894002211
:0B3B2700EF75F00BA4242AF8E6FF2243
:10376F00EF75F00BA42428F8A60408A605AE03EF06
:10377F0075F00BA4242BF8A606EF75F00BA4242CE0
:04378F00F8E4F62242
:063C3900789BE618F6225C
:073B9B0043B10453B2FB2209
:1029C800E4789AF608F608F6FFEF75F00BA42428C9
:1029D800F876000876C8EF75F00BA42425F876027F
:1029E800EF75F00BA4242AF8E4F6EF75F00BA42495
:1029F8002BF8E4F6EF75F00BA4242CF8E4F60FEFAF
:102A0800B40AC678417628784C762878577628789C
:102A18006D7628782276FF08763B087660782D76E2
:102A2800FF08763A087673783876FF08763C087699
:102A380027784376FF08763C08762D784E76FF088F
:102A4800763A0876CD785976FF08763A087682780D
:102A58006476FF08763A087691786F76FF08763ABA
:102A68000876A0787A76FF08763A0876AF78857681
:072A7800FF0876390876E73C
:012A7F002234
:10223200900003EFF0E075F00BA42422F9E4FAFB1E
:10224200900092F0A3F0A3E9F0121CCC121D12EF41
:10225200700302231E900092E0FBA3E0FAA3E0F9D0
:10226200900003121A53FFC39405500890000374A0
:1022720005022382EFC3940A5008900003740102FE
:102282001A80900008121A53701490000804121A4F
:10229200B3900003E075F003A404FF12399A900092
:1022A20092E0FBA3E0FAA3E0F9900006121AEBFF1A
:1022B200AEF0D39400EE9400500302238590000404
:1022C200121AEBC39FE5F09E5023900004E475F0D0
:1022D20001121B23FCE5F06F7002EC6E6003022317
:1022E20085900003E075F003A42403802B9000097D
:1022F200121A53FFD39400500302238590000A74EC
:1023020001121A80C39F407B90000AE4121AB39014
:102312000003E075F003A404FF02399A900092E0F2
:10232200FBA3E0FAA3E0F9900003121A53FFD3943F
:1023320005400A9000037405121AB3802BEF600A5D
:1023420090000374FF121A80801E900008121A5324
:10235200B40115900008E4121AB3900003E075F07E
:1023620003A42402FF12399A900092E0FBA3E0FA40
:10237200A3E0F9900004E4F5F0121B7090000AE467
:04238200121AB32256
:1038B000E4900002F0900002E0FFC3940A500B1263
:0A38C0002232900002E004F080EBD9
:0138CA0022DB
:1034DB00E4F5B275B180F5B475B3FFF5B675B5FF0C
:1034EB00F5AD75AC0FF5DB75DAFFF5DD75DCFFF5CA
:1034FB00F975FA0475E5FF75E6FF75E7FF75EEFFE5
:06350B0043F980023AE9D9
:0C3AE900E4FF8FFBE4F5FC0FEFB420F6C7
:013AF50022AE
:073BA20075FB1253FCF72232
:073BA90075FB1243FC08222A
:073BB00075FB0E53FCF72228
:073BB70075FB0E43FC082220
:073BBE0075FB0B53FCF7221D
:073BC50075FB0B43FC082215
:073BCC0075FB0A53FCF72210
:073BD30075FB0A43FC082208
:073BDA0075FB0353FCF72209
:073BE10075FB0343FC082201
:073BE80075FB0253FCF722FC
:073BEF0075FB0243FC0822F4
:073BF60075FB0F53FCF722E1
:073BFD0075FB0F43FC0822D9
:073C040075FB0753FCF722DA
:073C0B0075FB0743FC0822D2
:073C120075FB0653FCF722CD
:073C190075FB0643FC0822C5
:063C3F00123C04023C12DD
:063C4500123C0B023C19C9
:10280100EFB4080040030228E4902811F828287347
:102811000228290228410228590228700228870229
:10282100289E0228B50228CC75FB1F53FCF875FBC6
:102831001E53FCF875FB1D53FCF075FB1C0228E1CF
:1028410075FB1B53FCF875FB1A53FCF875FB195308
:10285100FCF075FB180228E175FB1753FCF875FBBA
:102861001653FCF875FB1553FCF075FB148071755C
:10287100FB1353FCF875FB1253FCF875FB1153FC69
:10288100F075FB10805A75FB0F53FCF875FB0E5366
:10289100FCF875FB0D53FCF075FB0C804375FB0BCD
:1028A10053FCF875FB0A53FCF875FB0953FCF075F2
:1028B100FB08802C75FB0753FCF875FB0653FCF8ED
:1028C10075FB0553FCF075FB04801575FB0353FC88
:1028D100F875FB0253FCF875FB0153FCF0E4F5FBC2
:0428E10053FCF02292
:0C3AF600E4FEAF061228010EEEB408F644
:013B020022A0
:100A9600EFD39407400302138FED64536004EDB463
:100AA60073047D35801EEDB467047D398016EDB480
:100AB6006C047D4C800EEDB470047D508006EDB460
:100AC60078027D58ED121CEC0C7F200B7D300BA7B5
:100AD600310BCB320BE0330BF5340C0A350C1F36D9
:100AE6000C31370C58380C6A390C82410C94420C84
:100AF600BB430CDC440D03450D21460D48470D69EB
:100B0600480D8D490DB44A0DDB4B0DFF4C0E264D9D
:100B16000E504E0E7A4F0EA4500ECB510EF5520FBC
:100B260023540F4A550F71560F9F570FC6580FE49F
:100B360059100B5A103561105F6210836310AA6456
:100B460010D16510FF66112668114A69116E6A1187
:100B5600996B11C46D11EA6E12106F123E71126F0D
:100B66007212927412BD7512E376130E77133C79E6
:100B760013627A0000138FEF25E025E0FEC3741F91
:100B86009EF5FB43FC0553FCFDC3741E9EF5FB431B
:100B9600FC0553FCFDC3741D9EF5FB75FC09021193
:100BA6008FEF25E025E0FEC3741F9EF5FB53FCF88E
:100BB600C3741E9EF5FB53FCF8C3741D9EF5FB75AE
:100BC600FC0102118FEF25E025E0FEC3741F9EF5A0
:100BD600FB43FC0653FCFE0210E0EF25E025E0FE99
:100BE600C3741F9EF5FB43FC0253FCFA021047EF49
:100BF60025E025E0FEC3741F9EF5FB43FC0353FC72
:100C0600FB020D78EF25E025E0FEC3741F9EF5FB81
:100C160043FC0353FCFB020D5AEF25E025E0FEC31F
:100C2600741F9EF5FB43FC07020D5AEF25E025E0F5
:100C3600FEC3741F9EF5FB53FCF8C3741E9EF5FBA2
:100C460043FC0153FCF9C3741D9EF5FBE4F5FC025D
:100C5600118FEF25E025E0FEC3741F9EF5FB43FCD4
:100C660007021047EF25E025E0FEC3741F9EF5FB43
:100C760043FC0353FCFB021047022801EF25E02545
:100C8600E0FEC3741F9EF5FB43FC07021250EF25DE
:100C9600E025E0FEC3741F9EF5FB53FCF8C3741EEB
:100CA6009EF5FB43FC0153FCF9C3741D9EF5FB75D1
:100CB600FC0E021265EF25E025E0FEC3741F9EF5CB
:100CC600FB43FC0553FCFDC3741E9EF5FB43FC0170
:100CD60053FCF9020E1AEF25E025E0FEC3741F9EB1
:100CE600F5FB53FCF8C3741E9EF5FB43FC0153FC55
:100CF600F9C3741D9EF5FB75FC0E02118FEF25E0FE
:100D060025E0FEC3741F9EF5FB43FC07C3741E9EBD
:100D1600F5FB43FC0153FCF902109EEF25E025E0AC
:100D2600FEC3741F9EF5FB43FC07C3741E9EF5FBB2
:100D360043FC0153FCF9C3741D9EF5FBE4F5FC026C
:100D460012B3EF25E025E0FEC3741F9EF5FB43FCBE
:100D56000553FCFDC3741E9EF5FB43FC0153FCF9D1
:100D6600021077EF25E025E0FEC3741F9EF5FB43D6
:100D7600FC07C3741E9EF5FB53FCF8C3741D9EF559
:100D8600FBE4F5FC021265EF25E025E0FEC3741FC7
:100D96009EF5FB53FCF8C3741E9EF5FB43FC015302
:100DA600FCF9C3741D9EF5FB75FC0E021386EF2538
:100DB600E025E0FEC3741F9EF5FB43FC0453FCFCD8
:100DC600C3741E9EF5FB53FCF8C3741D9EF5FB759C
:100DD600FC0802118FEF25E025E0FEC3741F9EF587
:100DE600FB43FC07C3741E9EF5FB53FCF8C3741D3E
:100DF6009EF5FB75FC01021234EF25E025E0FEC3EB
:100E0600741F9EF5FB43FC0553FCFDC3741E9EF543
:100E1600FB53FCF8C3741D9EF5FB75FC0802138694
:100E2600EF25E025E0FEC3741F9EF5FB43FC05534A
:100E3600FCFDC3741E9EF5FB43FC0253FCFAC3740F
:100E46001D9EF5FB75FC0502118FEF25E025E0FEE2
:100E5600C3741F9EF5FB43FC0553FCFDC3741E9E25
:100E6600F5FB43FC0153FCF9C3741D9EF5FBE4F549
:100E7600FC02118FEF25E025E0FEC3741F9EF5FBF3
:100E860043FC0553FCFDC3741E9EF5FB43FC015356
:100E9600FCF9C3741D9EF5FB75FC0802118FEF2546
:100EA600E025E0FEC3741F9EF5FB43FC07C3741EDA
:100EB6009EF5FB43FC0153FCF9C3741D9EF5FBE450
:100EC600F5FC0210F5EF25E025E0FEC3741F9EF544
:100ED600FB43FC0553FCFDC3741E9EF5FB43FC015E
:100EE60053FCF9C3741D9EF5FB75FC08020F95EFC4
:100EF60025E025E0FEC3741F9EF5FB43FC07C37483
:100F06001E9EF5FB43FC0153FCF9C3741D9EF5FBC5
:100F1600E4F5FCC3741C9EF5FB75FC0722EF25E087
:100F260025E0FEC3741F9EF5FB53FCF8C3741E9E9A
:100F3600F5FB43FC0153FCF9C3741D9EF5FB75FCE0
:100F460006021386EF25E025E0FEC3741F9EF5FB1F
:100F560043FC0553FCFDC3741E9EF5FB53FCF8C30E
:100F6600741D9EF5FB75FC0802118FEF25E025E048
:100F7600FEC3741F9EF5FB53FCF8C3741E9EF5FB5F
:100F860043FC0253FCFAC3741D9EF5FBE4F5FCC357
:100F9600741C9EF5FB75FC0D22EF25E025E0FEC3D3
:100FA600741F9EF5FB43FC0553FCFDC3741E9EF5A2
:100FB600FB53FCF8C3741D9EF5FB75FC0E02118FE6
:100FC600EF25E025E0FEC3741F9EF5FB53FCF8C336
:100FD600741E9EF5FB43FC0653FCFE0211B1EF2581
:100FE600E025E0FEC3741F9EF5FB43FC0353FCFBA8
:100FF600C3741E9EF5FB53FCF8C3741D9EF5FB756A
:10100600FC08021265EF25E025E0FEC3741F9EF57D
:10101600FB43FC0253FCFAC3741E9EF5FB43FC051E
:1010260053FCFDC3741D9EF5FB75FC090212B3EF5C
:1010360025E025E0FEC3741F9EF5FB43FC0653FC2A
:10104600FEC3741E9EF5FB43FC0153FCF9C3741DDD
:101056009EF5FB75FC08021265EF25E025E0FEC350
:10106600741F9EF5FB43FC07C3741E9EF5FB53FCE1
:10107600F8C3741D9EF5FB75FC08021234EF25E0DB
:1010860025E0FEC3741F9EF5FB43FC0653FCFEC31E
:10109600741E9EF5FB53FCF8C3741D9EF5FB75FC90
:1010A600080212B3EF25E025E0FEC3741F9EF5FB90
:1010B60043FC0653FCFEC3741E9EF5FB53FCF8C3AB
:1010C600741D9EF5FB75FC08021265EF25E025E010
:1010D600FEC3741F9EF5FB43FC07C3741E9EF5FBFF
:1010E60043FC0153FCF9C3741D9EF5FB75FC08C354
:1010F600741C9EF5FB75FC0322EF25E025E0FEC37C
:10110600741F9EF5FB43FC07C3741E9EF5FB43FC50
:101116000153FCF9C3741D9EF5FBE4F5FC0213862E
:10112600EF25E025E0FEC3741F9EF5FB43FC07C3D5
:10113600741E9EF5FB53FCF8C3741D9EF5FBE4F587
:10114600FC021234EF25E025E0FEC3741F9EF5FB7A
:1011560053FCF8C3741E9EF5FB53FCF8C3741D9E26
:10116600F5FB75FC06021386EF25E025E0FEC37449
:101176001F9EF5FB53FCF8C3741E9EF5FB53FCF84B
:10118600C3741D9EF5FB75FC08C3741C9EF5FB75A8
:10119600FC0922EF25E025E0FEC3741F9EF5FB4304
:1011A600FC07C3741E9EF5FB53FCF8C3741D9EF525
:1011B600FB75FC01C3741C9EF5FB75FC0422EF2530
:1011C600E025E0FEC3741F9EF5FB43FC0653FCFEC0
:1011D600C3741E9EF5FB53FCF8C3741D9EF5FB7588
:1011E600FC04804AEF25E025E0FEC3741F9EF5FB54
:1011F60043FC0653FCFEC3741E9EF5FB53FCF8C36A
:10120600741D9EF5FBE4F5FC8024EF25E025E0FE49
:10121600C3741F9EF5FB43FC0653FCFEC3741E9E5F
:10122600F5FB53FCF8C3741D9EF5FB75FC08C374EF
:101236001C9EF5FB75FC0A22EF25E025E0FEC37433
:101246001F9EF5FB43FC0353FCFBC3741E9EF5FB7C
:1012560043FC0153FCF9C3741D9EF5FBE4F5FCC386
:10126600741C9EF5FB75FC0B22EF25E025E0FEC302
:10127600741F9EF5FB53FCF8C3741E9EF5FB53FCCE
:10128600F8C3741D9EF5FB75FC048021EF25E0254F
:10129600E0FEC3741F9EF5FB43FC07C3741E9EF558
:1012A600FB53FCF8C3741D9EF5FB75FC08C3741C48
:1012B6009EF5FB75FC0222EF25E025E0FEC3741FB8
:1012C6009EF5FB43FC0453FCFCC3741E9EF5FB53C6
:1012D600FCF8C3741D9EF5FB75FC08804FEF25E0F6
:1012E60025E0FEC3741F9EF5FB53FCF8C3741E9ED7
:1012F600F5FB53FCF8C3741D9EF5FBE4F5FCC374C3
:101306001C9EF5FB75FC0C22EF25E025E0FEC37460
:101316001F9EF5FB43FC0453FCFCC3741E9EF5FBA9
:1013260053FCF8C3741D9EF5FB75FC0CC3741C9E20
:10133600F5FB75FC0822EF25E025E0FEC3741F9E31
:10134600F5FB53FCF8C3741E9EF5FB43FC0253FCED
:10135600FAC3741D9EF5FB75FC058024EF25E02578
:10136600E0FEC3741F9EF5FB53FCF8C3741E9EF586
:10137600FB43FC0553FCFDC3741D9EF5FB75FC0980
:0A138600C3741C9EF5FBE4F5FC2285
:0B2B3500900019EBF0A3EAF0A3E9F018
:102B4000E4A3F0FFC200E94A7003022BD6900019FB
:102B5000E0FBA3E0FAA3E0F912395DEFC39408406B
:102B60002EE490001CF090001CE0FF900019E0FBA8
:102B7000A3E0FAA3E0F98F82758300121A53FD12C5
:102B80000A9690001CE004F0E0C3940840D822E4C8
:102B900090001CF090001CE0FFC394085038200007
:102BA00023900019E0FBA3E0FAA3E0F98F8275837C
:102BB00000121A53FD60028012D20090001CE0FF48
:102BC0007D20800790001CE0FF7D20120A96900077
:062BD0001CE004F080BED1
:012BD60022DC
:082DE600410090004100910042
:1037B7001236D95389F75389FB5389FD4389019001
:1037C700009074FCF0A37466F0758CFCF58AD2A99E
:0337D700D28C226F
:1036D9009000877401F0E4900089F090008BF090DD
:1036E900008DF0A3F0900088F090008AF090008C93
:0636F900F090008FF022AA
:03000B00022DF7CC
:102DF700C0E0C0F0C083C082C0D075D000C000C0A2
:102E070006900090E0F58CA3E0F58A900087E00437
:102E1700F0C394054005E4F0A304F0900089E004B2
:102E2700F0C3940A4005E4F0A304F090008BE0049B
:102E3700F0C394644005E4F0A304F090008DE475BA
:102E4700F001121AD5FEC3E5F094E8EE9403400AA8
:102E570090008DE4F0A3F0A304F0D006D000D0D00A
:092E6700D082D083D0F0D0E0321B
:10354400E47816F60876030876FF0876030876FF13
:1035540043E101F5E843B10153B2FE43F60143B13F
:103564000253B2FD43F60253E1BF43E12053E1EFBE
:03357400D2AE22B2
:1037DA007816E6600CE4F6C2EBC2EAC2E9C2E880F7
:1037EA000C78167601C2EBC2EAC2E9D2E800000000
:0337FA00D2EE22EA
:093B690053B1DF43B220023C55C8
:033C5500C2852203
:033C5800D28522F0
:033C5B00B285220D
:093B720053B1BF43B240023C61B3
:033C5E00C28622F9
:033C6100D28622E6
:103793000A6D679C46F6375D4521EFAC5A50010B25
:1037A300DF020A6D679C46F6375D4521EFAC5A5040
:0437B300E10BDF0245
:082DEE00450099CCCCCCCCCC03
:1039AE0053B1EF43B21053ACEF43AD1053ACDF4302
:0339BE00AD202217
:013C6600223B
:10383E00E4FEC284EF30E704D2838002C283EF2518
:0E384E00E0FF00D28400000EEEB408E6C28453
:01385C002249
:0439C100E4FD7FFCA6
:0F39C500C2B40012383EAF0512383E00D2B42211
:0A3398007B019000187405F07F3FE0
:0B33A200900015EBF0A3EAF0A3E9F0A7
:1033AD00C2B4E4FD12383E900018E0FFEDC39F500B
:1033BD001A900015E0FBA3E0FAA3E0F98D82758366
:0D33CD0000121A53FF12383E0D80DCD2B4FE
:0133DA0022D0
:10374A00E4FEC284EF30E704D2838002C283EF250D
:10375A00E0FF00D28400000EEEB408E643B108533D
:04376A00B2F7C2846C
:01376E002238
:1038CB00E4FFFEC284EF25E0FF00D2843083034483
:0938DB0001FF0EEEB408ECC284FA
:0138E40022C1
:1039D400C2B40012374A1238CB53B1F743B20800CD
:0239E400D2B45B
:0139E60022BE
:0B345F00900004EBF0A3EAF0A3E9F0FA
:10346A00C2B412374AE4FD900007E0FFEDC39F5053
:10347A001A1238CB900004E0FBA3E0FAA3E0F98D1E
:10348A0082758300EF121AB30D80DC53B1F743B291
:03349A0008D2B4A1
:01349D00220C
:0F3ABE001239C17D8E7F201239C5000000002211
:1036FF00E4FEFD7FFC1239C57D8F7F201239C5E4B2
:10370F00FD7FFD1239C5E4FEFF000FBF00010EBEA5
:05371F0007F7BFD0F424
:013724002282
:0A3B32007F071239D4EF5470FF2210
:063C4B007F091239D422AA
:073C20007D707F270239C50A
:0C3B1B00E4FD7FE11239C57FE20239C5EC
:0E3ADB00AC071239C1AF04AD077F250239C513
:0633DB00123B32EF703CD2
:1033E100900003F0A3F0900018EDF07FA01233A23B
:1033F100E4FD7FFD1239C5E4900003F0A3F00090D5
:103401000004E004F07006900003E004F090000373
:0C341100E07004A3E064C870E51239C14B
:01341D00228C
:10365F00AC05123B32EF30E61D1239C1900007EC7A
:10366F00F07F6112345F123B1B123C20E4FD7FFDA3
:09367F001239C57F01227F0022EF
:1024CB0078027C007D017BFF7A3779937E007F0554
:1024DB00121A1478077C007D017BFF7A3779987E7E
:1024EB00007F03121A14780A7C007D017BFF7A3778
:1024FB00799B7E007F06121A1478107C007D017B7D
:10250B00FF7A3779A17E007F01121A1478117C00B3
:10251B007D017BFF7A3779A27E007F03121A14129A
:10252B003C667D5A7F531239C57DA57F531239C541
:10253B007D207F3D1239C51239C17FE11239C57F2C
:10254B00E21239C57D707F271239C57D017F2212BA
:10255B0039C57D037F231239C57D4E7F251239C5C1
:10256B007D107F311239C57B017A00799990001863
:10257B007405F07F301233A27B017A0079999000B9
:10258B00187405F07F2A1233A27A0079021233985D
:10259B007B017A00790A9000187406F07F3A1233A7
:1025AB00A27B017A0079109000187401F07F391228
:1025BB0033A27B017A0079079000187403F07F3EF9
:1025CB001233A27B017A0079119000187403F07F0B
:1025DB003B1233A2E4FD7F3C1239C57D3F7F2612AF
:0E25EB0039C5E4FD7F241239C57F210239C5B0
:0528E500900041EFF03E
:1028EA00E478427C007D017BFF7A3779A5FE7F057B
:1028FA00121A1478477C007D017BFF7A3779AA7E09
:10290A00007F03121A14784A7C007D017BFF7A3714
:10291A0079AD7E007F06121A1478507C007D017B07
:10292A00FF7A3779B37E007F01121A1478517C003E
:10293A007D017BFF7A3779B47E007F03121A147DFA
:10294A005A7F531239C57DA57F531239C57D207F21
:10295A003D1239C51239C1E4FF000000000FEFB47F
:10296A00DCF7900041E0FD7F251239C57D3F7F26C7
:10297A001239C57A0079421233987B017A00794A72
:10298A009000187406F07F3A1233A27B017A00791C
:10299A00509000187401F07F391233A27B017A003B
:1029AA0079479000187403F07F3E1233A27B017AB4
:0E29BA000079519000187403F07F3B0233A2A5
:10238600EF14604414606F14700302242514700364
:10239600022461240460030224C5A2AF920AC2AFDC
:1023A60075C7AA75C755439780A20A92AFA2AF9286
:1023B6000AC2AF75C7AA75C7555397BFA20A92AF8F
:1023C600E59630E7FB02248CA2AF920AC2AF75C72E
:1023D600AA75C75553977FA20A92AFA2AF920AC2B7
:1023E600AF75C7AA75C755439740A20A92AFE5963F
:1023F60030E6FB02248CA2AF920AC2AF75C7AA755B
:10240600C755439720A20A92AFE59630E5FBA2AFE7
:10241600920AC2AF75C7AA75C7555396FB8027A205
:10242600AF920AC2AF75C7AA75C755439710A20ADD
:1024360092AFE59630E4FBA2AF920AC2AF75C7AA87
:1024460075C755439604A20A92AFA2AF920AC2AFCD
:1024560075C7AA75C7555396FD804DA2AF920AC29D
:10246600AF75C7AA75C75553977FA20A92AFA2AF99
:10247600920AC2AF75C7AA75C7555397BFA20A92EB
:10248600AFE59630E3FBA2AF920AC2AF75C7AA7555
:10249600C7555396FBA20A92AFA2AF920AC2AF7576
:1024A600C7AA75C755439602A20A92AFA2AF920A6F
:1024B600C2AF75C7AA75C7555396FEA20A92AFE575
:0524C6009720E0FB225D
:1036880075985243892053877F538EEF53C4DFAB1D
:1036980007AA06A905A804E47F807E70FDFC121B1A
:0936A800D9EFF404F58DD28E2255
:1036B100759852438920438780538EEF53C4DFAB03
:1036C10007AA06A905A804E4FF7EE1FDFC121BD9A7
:0836D100EFF404F58DD28E2206
:10360B0075985243892053877F438E1053C4DFAB89
:10361B0007AA06A905A8047F007E467D057C00123B
:0A362B001BD9EFF404F58DD28E22B6
:10363500759852438920438780438E1053C4DFAB6E
:1036450007AA06A905A8047F007E8C7D0A7C0012C6
:0A3655001BD9EFF404F58DD28E228C
:102FA80090009E121C8F75985253877F53C4F84324
:102FB800C42090009EE0F8A3E0F9A3E0FAA3E0FBA8
:102FC8007F007E467D057C00121BD9C3E49FFFE489
:102FD8009EFE74019DFDE49CFC7808121C7C8FC643
:102FE80090009EE0F8A3E0F9A3E0FAA3E0FB7F00DD
:102FF8007E467D057C00121BD9C3E49FFF8FC54325
:03300800C40822D7
:10300B009000A2121C8F75985243878053C4F843CB
:10301B00C4209000A2E0F8A3E0F9A3E0FAA3E0FB40
:10302B007F007E8C7D0A7C00121BD9C3E49FFFE4DA
:10303B009EFE74019DFDE49CFC7808121C7C8FC6DF
:10304B009000A2E0F8A3E0F9A3E0FAA3E0FB7F0075
:10305B007E8C7D0A7C00121BD9C3E49FFF8FC54376
:03306B00C4082274
:10312E009000A6121C8F75F85253C4F89000A6E0BA
:10313E00F8A3E0F9A3E0FAA3E0FB7F007E8C7D0A02
:10314E007C00121BD9C3E49FFFE49EFE74019DFD1B
:10315E00E49CFC7808121C7C8FC69000A6E0F8A3B5
:10316E00E0F9A3E0FAA3E0FB7F007E8C7D0A7C00F1
:0D317E00121BD9C3E49FFF8FC543C4082274
:073B7B003098FDAF99C298DC
:013B82002220
:083B8300C2998F993099FD22CF
:073B8B0030F8FDAF9AC2F80B
:013B92002210
:083B9300C2F98F9A30F9FD22FE
:1038E500E4F5B1F5B2F5B3F5B4F5B5F5B6F5ACF566
:0A38F500ADF5DAF5DBF5DCF5DD22B8
:10381E0075B1FFE4F5B275B3FFF5B475B5FFF5B646
:10382E0075ACFFF5AD75DAFFF5DB75DCFFF5DD2266
:1038FF0075C7AA75C755A2AF920AC2AF75C7AA7589
:0A390F00C755439F80A20A92AF2221
:043C510043AD8022DD
:10349E00EF640A701C30F811E59AB4130CC2F830C0
:1034AE00F8FDE59AB411F6C2F830F9FDC2F9759A35
:1034BE000D30F811E59AB4130CC2F830F8FDE59A08
:0D34CE00B411F6C2F830F9FDC2F98F9A2250
:062CF60090FFF8121D180A
:102CFC00850D83850E82121C9B00000000E47FFF73
:102D0C007EFFFDFC850D83850E82E0F8A3E0F9A320
:102D1C00E0FAA3E0FBC3121C6B504C900004121D94
:102D2C003CE0FCA3E0FDA3E0FEA3E02401FFE43EB5
:102D3C00FEE43DFDE43CFC900004121D3C121C8F93
:102D4C00850D83850E82E0FCA3E0FDA3E0FEA3E0ED
:102D5C002401FFE43EFEE43DFDE43CFC850D83854F
:072D6C000E82121C8F8096FD
:062D7300900008021D188B
:1037FD00538EF7438901D28CEF4E6012758AF7759F
:10380D008CFF308DFDC28DEF1F70ED1E80EAC28CD6
:01381D002288
:103242009000AA121C8F538EF7438901D28CE4FF9F
:10325200FEFDFC9000AAE0F8A3E0F9A3E0FAA3E0E7
:10326200FBC3121C6B602F758A65758CFC308DFD5B
:10327200C28D9000AAE0FCA3E0FDA3E0FEA3E0243F
:10328200FFFFEE34FFFEED34FFFDEC34FFFC900057
:09329200AA121C8F80B8C28C2224
:10329B009000AE121C8F538EEF438910D28EE4FF39
:1032AB00FEFDFC9000AEE0F8A3E0F9A3E0FAA3E08A
:1032BB00FBC3121C6B602F758B65758DFC308FFDFE
:1032CB00C28F9000AEE0FCA3E0FDA3E0FEA3E024E0
:1032DB00FFFFEE34FFFEED34FFFDEC34FFFC9000FE
:0932EB00AE121C8F80B8C28E22C5
:1031E7009000B2121C8F75C40243C408E4FFFEFDB1
:1031F700FC9000B2E0F8A3E0F9A3E0FAA3E0FBC378
:10320700121C6B603275C53375C6F5E5C430E4FB37
:1032170053C4EF9000B2E0FCA3E0FDA3E0FEA3E0FF
:1032270024FFFFEE34FFFEED34FFFDEC34FFFC908E
:0B32370000B2121C8F80B553C4F722B8
:10306E009000B6121C8F538FFB538FFD538FFEE4CF
:10307E00F586538FDF438F08E4FFFEFDFC9000B60C
:10308E00E0F8A3E0F9A3E0FAA3E0FBC3121C6B6027
:10309E002CE58F30E4FB538FEF9000B6E0FCA3E0FD
:1030AE00FDA3E0FEA3E024FFFFEE34FFFEED34FFB0
:1030BE00FDEC34FFFC9000B6121C8F80BB538FF7D3
:0130CE0022DF
:1025F9000A3D3D3D3D3D3D3D3D3D3D3D3D3D3D3D35
:102609003D3D3D3D3D3D3D3D3D3D3D3D3D3D3D3DF1
:102619003D3D3D3D3D3D3D3D3D3D3D3D3D3D3D3DE1
:102629003D3D3D3D3D3D3D3D3D3D3D3D3D3D3D3DD1
:102639003D3D3D3D3D000A2A2020436F7079726976
:102649006768742863292032303135204E75766FDA
:10265900746F6E20546563686E6F6C6F6779204381
:102669006F72702E20416C6C2072696768747320D8
:1026790072657365727665642E2020000A2A20200F
:10268900436F6E7461637420452D4D61696C3A2006
:102699004D6963726F432D38626974406E75766F48
:1026A900746F6E2E636F6D20202020202020202043
:1026B9002020202020202020202020202020202011
:1026C90020000A2A202044656D6F205665727369BF
:1026D9006F6E20203A202532642E2532642E253251
:1026E90064000A2A202046696E697368656420447B
:1026F900617465203A202532642E2532642E2532F4
:0227090064006A
:1030CF007BFF7A2579F9121F387BFF7A26793F1219
:1030DF001F387BFF7A267985121F387BFF7A267976
:1030EF00CB90001CE4F0A304F0E4A3F0A3F0A3F052
:1030FF00A3F0121F387BFF7A2679EB90001C740720
:10310F00F0A374DFF0A3E4F0A37405F0A3E4F0A33D
:0F311F00741FF0121F387BFF7A2579F9021F38D1
:03000000022BD7F9
:102BD700787FE4F6D8FD9000007FFF7E01E4F0A344
:0A2BE700DFFCDEFA7581BD022C2C24
:102BF100022E70E493A3F8E493A34003F68001F25C
:102C010008DFF48029E493A3F85407240CC8C333E4
:102C1100C4540F4420C8834004F456800146F6DFB3
:102C2100E4800B0102040810204080902D79E47E9D
:102C3100019360BCA3FF543F30E509541FFEE493A8
:102C4100A360010ECF54C025E060A840B8E493A36F
:102C5100FAE493A3F8E493A3C8C582C8CAC583CA9A
:102C6100F0A3C8C582C8CAC583CADFE9DEE780BE52
:012DF60000DC
:10194400E709F608DFFA8046E709F208DFFA803E85
:1019540088828C83E709F0A3DFFA8032E309F60872
:10196400DFFA8078E309F208DFFA807088828C83DA
:10197400E309F0A3DFFA806489828A83E0A3F6088E
:10198400DFFA805889828A83E0A3F208DFFA804C68
:1019940080D280FA80C680D4806980F2803380103F
:1019A40080A680EA809A80A880DA80E280CA8033A8
:1019B40089828A83ECFAE493A3C8C582C8CCC58320
:1019C400CCF0A3C8C582C8CCC583CCDFE9DEE780F0
:1019D4000D89828A83E493A3F608DFF9ECFAA9F06F
:1019E400EDFB2289828A83ECFAE0A3C8C582C8CCC5
:1019F400C583CCF0A3C8C582C8CCC583CCDFEADEDE
:101A0400E880DB89828A83E493A3F208DFF980CC3F
:101A140088F0EF60010E4E60C388F0ED2402B40438
:101A24000050B9F582EB2402B4040050AF232345DF
:061A340082239019947357
:101A3A00BB010689828A83E0225002E722BBFE02AA
:091A4A00E32289828A83E49322DD
:101A5300BB010CE58229F582E5833AF583E0225048
:101A630006E92582F8E622BBFE06E92582F8E22292
:0D1A7300E58229F582E5833AF583E49322AC
:101A8000BB010FF8E58229F582E5833AF583E0286A
:101A9000F0225009C58229F8E58226F622BBFE090C
:101AA000C58229F8E22582F222F8EA2583F583E946
:031AB00093282256
:101AB300F8BB010DE58229F582E5833AF583E8F069
:101AC300225006E92582C8F622BBFE05E92582C815
:021AD300F222FD
:101AD500C5F0F8A3E028F0C5F0F8E582158270029C
:061AE5001583E038F02239
:101AEB00BB0110E58229F582E5833AF583E0F5F039
:101AFB00A3E0225009E92582F886F008E622BBFE16
:101B0B000AE92582F8E2F5F008E222E5832AF5835B
:081B1B00E993F5F0A3E9932220
:101B2300BB010DC58229C582C5833AC583021AD577
:101B33005011C58229F808E5F026F618F5F0E5827C
:101B430036F622BBFE11C58229F808E225F0F5F02E
:101B5300F218E23582F222F8E58229F582E5832A3A
:0D1B6300F58374019325F0F5F0E49338222A
:101B7000F8BB0111E58229F582E5833AF583E8F0A7
:101B8000E5F0A3F0225009E92582C8F608A6F02264
:0D1B9000BBFE09E92582C8F2E5F008F2224B
:101B9D0075F008758200EF2FFFEE33FECD33CDCCFF
:101BAD0033CCC58233C5829BED9AEC99E582984082
:101BBD000CF582EE9BFEED9AFDEC99FC0FD5F0D65F
:101BCD00E4CEFBE4CDFAE4CCF9A88222B800C1B989
:101BDD000059BA002DEC8BF084CFCECDFCE5F0CBC7
:101BED00F97818EF2FFFEE33FEED33FDEC33FCEB00
:101BFD0033FB10D703994004EB99FB0FD8E5E4F9BB
:101C0D00FA227818EF2FFFEE33FEED33FDEC33FCA7
:101C1D00C933C910D7059BE99A4007EC9BFCE99A9B
:101C2D00F90FD8E0E4C9FAE4CCFB2275F010EF2FE0
:101C3D00FFEE33FEED33FDCC33CCC833C810D707E0
:101C4D009BEC9AE899400AED9BFDEC9AFCE899F81B
:0E1C5D000FD5F0DAE4CDFBE4CCFAE4C8F922AE
:101C6B00EB9FF5F0EA9E42F0E99D42F0E89C45F0CF
:011C7B002246
:101C7C00E8600FECC313FCED13FDEE13FEEF13FF46
:031C8C00D8F1226A
:0C1C8F00ECF0A3EDF0A3EEF0A3EFF022C8
:101C9B00A8828583F0D083D082121CB2121CB212A0
:101CAB001CB2121CB2E473E493A3C583C5F0C583C5
:101CBB00C8C582C8F0A3C583C5F0C583C8C582C893
:011CCB0022F6
:101CCC00BB010789828A83021E8F5005E9F8021E28
:101CDC0086BBFE05E9F8021EB889828A83021EC102
:101CEC00D083D082F8E4937012740193700DA3A387
:101CFC0093F8740193F5828883E47374029368609B
:061D0C00EFA3A3A380DF9A
:061D12008A838982E4735C
:101D1800E50E2582F582E50D3583F583B50D04853D
:101D2800820E2210AF0685820EF50D2285820EF5F1
:041D38000DD2AF22F7
:0D1D3C00E50E2582F582E50D3583F5832245
:101ECD00E508241CF582E43400F583E00508229032
:101EDD00001930070390001CE475F001121E9802E2
:101EED001A3A2000E97F2ED2008018EF540F24906B
:101EFD00D43440D4FF30040BEF24BFB41A00500388
:101F0D002461FFE50960021509050CE50C70020559
:101F1D000B30070E900019E475F001121E98EF02B8
:101F2D001E5E02349E7403D2078003E4C207F508D7
:101F3D00900019121EAFE4F509F50BF50CE50960DB
:101F4D00077F20121F1080F5750AFFC201C200C263
:101F5D0002C203C205C206C208121EDCFF700D309C
:101F6D0007057F00121F21AF0CAE0B22B4255FC2F7
:101F7D00D5C204121EDCFF24D0B40A00501A75F02D
:101F8D000A780930D50508B6FF0106C6A426F62045
:101F9D00D5047002D20380D924CFB41A00EF5004B7
:101FAD00C2E5D204022122D20180C6D20080C0D265
:101FBD000280BCD2D580BAD20580B47F20121F100A
:101FCD002002077401B5090040F1121ECDFF121F4A
:101FDD0010021F4AD208D2068095121ECDFB121E8A
:101FED00CDFA121ECDF94A4B700679F37A217BFF9B
:101FFD0020022EE509602A7E008E82758300121A5A
:10200D005360060EEE650A70F0C2D5EBC0E0EAC073
:10201D00E0E9C0E0EE122169D0E0F9D0E0FAD0E0BD
:10202D00FB121A3AFF60AAEBC0E0EAC0E0E9C0E09B
:10203D00121F10D0E02401F9D0E03400FAD0E0FBFB
:10204D00E50A0460DCD50AD980877BFF7A217965A2
:10205D00D202809C791080027908C206C2088008DD
:10206D00D2D5790A8004790AC2D5E50A047002F541
:10207D000AE4FAFDFEFF121ECDFC7B0820011312AF
:10208D001ECDFD7B1030000A121ECDFE121ECDFF9F
:10209D007B20EC3382D592D55013C3E43000069FDC
:1020AD00FFE49EFEE42001039DFDE49CFCE4CBF8DF
:1020BD00C201EC700CCFCECDCCE824F8F870F380D3
:1020CD0017C3EF33FFEE33FEED33FDEC33FCEB3393
:1020DD00FB994002FB0FD8E9EB300105F8D0E0C4C5
:1020ED0048B201C0E00AEC4D4E4F78207B0070C223
:1020FD00EAB50A0040BCC0E012216BD0F0D0E02060
:10210D000104C4C0E0C4B201C0F0121EF9D0F0D574
:10211D00F0EB021F4A121CEC1FE7532061581FB849
:10212D004C1FB44220654F206D44206D491FCD4397
:08213D0020735520574620577E
:10214500452057472213501FBC2D1FC02E1FE32BC0
:102155001FC4231FE12021FC2A1F7C4800001FDB30
:102165003F3F3F00790AA2D5200314300509B91075
:10217500020404B9080104A2D52006025001042076
:1021850002689202B509005034C0E07F203003197F
:102195007F30A20272067205500F1221C2C202C21E
:1021A50006C205C2087F30800F300503E9C0E01282
:1021B5001F10300503D0E0F9D0E0B509CC30051784
:1021C5007F30B9100C121F107F583004077F7880BC
:1021D50003B90803121F103002057F2D021F107F5F
:1021E500202008F87F2B2006F322920280CF286E4C
:1021F500756C6C2900D201121ECD3001F8C2017830
:102205000930D50108F6021F7C2D50434958121E8E
:10221500CD2403B405004001E490220E93121F0162
:0D222500743A121F01D203750904022061F2
:101D4900E709F60870FA8046E709F20870FA803E5A
:101D590088828C83E709F0A370FA807EE309F6088C
:101D690070FA8076E309F20870FA806E88828C83B3
:101D7900E309F0A370FA806289828A83E0A3F608F6
:101D890070FA805689828A83E0A3F20870FA804A41
:101D990080D280FA80C680D4806580F2803180103C
:101DA90080A680EA809A80A880DA80E280CA8031A1
:101DB90089828A83ECFAE493A3C8C582C8CCC58317
:101DC900CCF0A3C8C582C8CCC583CC70E9800D8985
:101DD900828A83E493A3F60870F9ECFAA9F0EDFB83
:101DE9002289828A83ECFAE0A3C8C582C8CCC5835C
:101DF900CCF0A3C8C582C8CCC583CC70EA80DD8984
:101E0900828A83E493A3F20870F980CE88F0ED24E6
:101E190002B4040050C4F582EB2402B4040050BAA1
:091E29002323458223901D9973C7
:102ED90090000EEBF0A3EAF0A3E9F0E4900016F0FD
:102EE900A3F090001474FFF5F0121E7045F0603CD9
:102EF900900011E0FBA3E0FAA3E0F9121A3AFF905F
:102F0900000EE0FBA3E0FAA3E0F9900016E475F0E7
:102F190001121E7085F082F583EF121AB3EF60C2B9
:102F2900900012E475F001121AD580B690000EE0F7
:082F3900FBA3E0FAA3E0F9227A
:10395D00E4FFFE121A3A600C0FEF70010E09E970C8
:05396D00F20A80EF22C8
:101E3200EF4E6012EF60010EEDBB010B89828A83C7
:101E4200F0A3DFFCDEFA2289F05007F709DFFCA9D4
:0C1E5200F022BBFEFCF309DFFCA9F0222B
:101E5E00BB010689828A83F0225002F722BBFE0163
:021E6E00F3225D
:101E7000A3F8E0C5F025F0F0E58215827002158325
:061E8000E0C838F0E82282
:091E8600E6FB08E6FA08E6F92281
:091E8F00E0FBA3E0FAA3E0F92254
:101E9800F8E0FBA3A3E0F925F0F0E58215827002D3
:071EA8001583E0FA38F02277
:091EAF00EBF0A3EAF0A3E9F02234
:091EB800E2FB08E2FA08E2F9225B
:0C1EC100E493FB740193FA740293F9227D
:00000001FF
