:1029C1005000550000000000000000000000000061
:0B29D1000000004100530041005400D2
:03005B00022E6210
:102E6200C0E0C0D075D000C000C001C005C006C01F
:102E720007C2EFAFC37815E6FD25E02416F8760009
:102E820008A607ED25E02416F8C000F9E7FE09E7D9
:102E92007802C333CE33CED8F9D000A60608F6EDB9
:102EA20025E02416F8AFC2E6F6EF0846F6D007D0C2
:0C2EB20006D005D001D000D0D0D0E03216
:102B44007F021220DE12357F12340F1236581239EA
:102B540044900099E06005E4F01234C490009BE0D6
:0D2B64006005E4F012359A90009DE06020BD
:102B7100E4900001F090009DF0122720123138906E
:102B81000053E004F0E0C394054002E4F012000EAB
:062B91009000A0E06008C6
:082B9700E4F0900054E004F0AA
:102B9F00123547900000EFF060ACE0FF1218308064
:012BAF00A580
:05183000900002EFF042
:10183500E4A3F0A3F0900003F0FE7F10FDFB7A0017
:10184500799D121795900002E024FEB4190040031B
:10185500021C1190186675F003A4C58325F0C58395
:10186500730218B1021C11021C1102190702195D3D
:10187500021C110219B3021C11021C11021A0902E1
:101885001C11021C11021A5F021C11021C11021A02
:10189500B5021C11021C11021B15021C11021C11A0
:1018A500021B6B021C11021C11021BBE900003E0FF
:1018B500FF04F0749D2FF876F2E0FF04F0749D2F7D
:1018C500F87601E0FF04F0749D2FF87601E4A3F0AB
:1018D500789EE62401FFE433FE900004E0FDC39FFB
:1018E500EE6480F87480984003021C11749E2DF8F4
:1018F500E6FF900003E0249DF8EF26F6A3E004F050
:1019050080CE900003E0FF04F0749D2FF876F2E09E
:10191500FF04F0749D2FF87601E0FF04F0749D2F0D
:10192500F87606E4A3F0789EE62401FFE433FE9002
:101935000004E0FDC39FEE6480F8748098400302C4
:101945001C11749E2DF8E6FF900003E0249DF8EF2E
:1019550026F6A3E004F080CE900003E0FF04F074C7
:101965009D2FF876F2E0FF04F0749D2FF87601E0E4
:10197500FF04F0749D2FF87607E4A3F0789EE62423
:1019850001FFE433FE900004E0FDC39FEE6480F8A0
:101995007480984003021C11749E2DF8E6FF900098
:1019A50003E0249DF8EF26F6A3E004F080CE900036
:1019B50003E0FF04F0749D2FF876F2E0FF04F07465
:1019C5009D2FF87601E0FF04F0749D2FF87603E46F
:1019D500A3F0789EE62401FFE433FE900004E0FDC9
:1019E500C39FEE6480F87480984003021C11749EB6
:1019F5002DF8E6FF900003E0249DF8EF26F6A3E01E
:101A050004F080CE900003E0FF04F0749D2FF8767B
:101A1500F2E0FF04F0749D2FF87601E0FF04F07406
:101A25009D2FF87602E4A3F0789EE62401FFE433C7
:101A3500FE900004E0FDC39FEE6480F8748098403A
:101A450003021C11749E2DF8E6FF900003E0249D0F
:101A5500F8EF26F6A3E004F080CE900003E0FF0443
:101A6500F0749D2FF876F2E0FF04F0749D2FF87660
:101A750001E0FF04F0749D2FF87604E4A3F0789E4E
:101A8500E62401FFE433FE900004E0FDC39FEE640D
:101A950080F87480984003021C11749E2DF8E6FFAF
:101AA500900003E0249DF8EF26F6A3E004F080CE35
:101AB500900003E0FF04F0749D2FF876F2E0FF0438
:101AC500F0749D2FF87602E0FF04F0749D2FF876F0
:101AD50009E0FF04F0749D2FF87603E4A3F0789EE7
:101AE500E62401FFE433FE900004E0FDC39FEE64AD
:101AF50080F87480984003021C11749E2DF8E6FF4F
:101B0500900003E0249DF8EF26F6A3E004F080CED4
:101B1500900003E0FF04F0749D2FF876F2E0FF04D7
:101B2500F0749D2FF87601E0FF04F0749D2FF87690
:101B350005E4A3F0789EE62401FFE433FE9000045B
:101B4500E0FDC39FEE6480F87480984003021C1189
:101B5500749E2DF8E6FF900003E0249DF8EF26F62D
:101B6500A3E004F080CE900003E0FF04F0749D2F05
:101B7500F876F2E0FF04F0749D2FF87601E0FF049B
:101B8500F0749D2FF87608E4A3F0789EE62401FF13
:101B9500E433FE900004E0FDC39FEE6480F874809A
:101BA500985069749E2DF8E6FF900003E0249DF897
:101BB500EF26F6A3E004F080D1900003E0FF04F0E7
:101BC500749D2FF876F2E0FF04F0749D2FF87601EE
:101BD500E0FF04F0749D2FF876B9E4A3F0789EE653
:101BE5002401FFE433FE900004E0FDC39FEE648012
:101BF500F87480985016749E2DF8E6FF900003E067
:101C0500249DF8EF26F6A3E004F080D1900003E0D0
:0F1C1500600D04F07B007A00799DE0FD12301E17
:011C2400229D
:033944000238EC5A
:01395600224E
:01395700224D
:01395800224C
:0C37E700900071EBF0A3EAF0A3E9F022DF
:0C37F300900074EBF0A3EAF0A3E9F022D0
:1036DD00900071A3E0FAA3E0F94A60031216752277
:1036ED00900074A3E0FAA3E0F94A60031216752264
:10329100EF4E602D900067EEF0A3EFF0AF05A3ECC9
:1032A100F0A3EFF0AF03A3EAF0A3EFF0E4A3F0A3E0
:1032B100F0A3F0A3F0900066F090006504F01236E0
:0232C100DD220C
:10364400E4900065F01236ED7B007A0079001237C1
:04365400E70237F35F
:0A381600900065E06002D322C32297
:10272000900065E070030227D4900069E0FEA3E00A
:10273000FF4E70030227D4900066E07035D3EF940B
:1027400000EE940050030227D490006DE475F00170
:10275000121438FED3900068E095F0900067E09E78
:1027600050721236EDE490006DF0A3F09000660414
:10277000F022900066E06401705A90006D75F001DF
:10278000121438FED390006AE095F0900069E09E44
:10279000504290006BE0FEA3E0FF9400EE940040F6
:1027A0002590006FE475F001121438FCD3EF95F01A
:1027B000EE9C5005E4900065F0900065E070079095
:1027C0000069F0A3F022E490006DF0A3F0900066A1
:0527D000F01236DD22CD
:102463002042415A4F4F4B410020505752204F4674
:102473004600414343204F4E00414343204F4646CD
:102483000020564F4C20257500202020202020209E
:10249300200020202050415553450020202020506B
:1024A3004C4159005343414E4E494E470020202092
:1024B3004D55544520002020204E455854200020DF
:1024C30020205052455620002020202053542575AB
:1024D300005452202575002050414952494E47006F
:1024E30020205041495245440054575320534341FF
:1024F3004E002020545753204F4B002020202020F3
:102503002575253032750020202020257525303291
:102513007500464D202575257500464D20202575EF
:10252300257500464D2020202575257500505249FC
:102533005245440050414952494E4700504C41597D
:10254300004D55544500000000000000000000004D
:0625530000000000000082
:1029DC0001AD0010AE00000000000000000000007F
:1029EC000000000000109D0000000000000000002E
:1029FC0000000000000000500088000000000000F3
:0A2A0C0000000000000000000000C0
:10340F00E478ADF6FE7F10FDFB7A0079AE121795CA
:10341F007E007F107D007B007A00799D1217951238
:05342F0022230233E935
:10301E00900005EBF0A3EAF0A3E9F0A3EDF0D39452
:10302E0010503D1237A278AD7601900005E0FBA35B
:10303E00E0FAA3E0F990009DEB7008E96582700359
:10304E00EA6583601B900008E0FF7E00789D7C009F
:10305E007D00900005E0FBA3E0FAA3E0F9121377E0
:01306E00223F
:103603007810E67BFF30E1067A24796380047A241C
:06361300796C12288522EB
:103619007810E67BFF30E0067A24797580047A24F5
:06362900797C12288522C5
:10306F0078087C007D017BFF7A2579497E007F10EF
:10307F001213771238F312390190001B74FFF0A36B
:10308F007424F0A37484F07811E6FFA3E4F0A3EFA7
:10309F00F07B017A007908121C8A7B017A0079088B
:0330AF000228856F
:0F36FD007BFF7A24798C1228851238F302390169
:09382A007BFF7A247995022885C0
:093833007BFF7A24799E022885AE
:1036B9007BFF7A2479A71228851238F3123901027F
:0236C90038D7F0
:09383C007BFF7A2479B002288593
:093845007BFF7A24799E0228859C
:0F370C007BFF7A2479951228851238F302390150
:0F371B007BFF7A2479B91228851238F30239011D
:0F372A007BFF7A2479C21228851238F302390105
:10322B0090001B74FFF0A37424F0A374CBF07812FE
:10323B00E6FFA3E4F0A3EFF07B017A007988121C80
:10324B008A7B017A0079881228851238D71238F3D5
:03325B000239082D
:1032C30090001B74FFF0A37424F0A374D4F078135C
:1032D300E6FF08E6A3CFF0A3EFF07B017A0079883D
:1032E300121C8A7B017A0079881228851238F3022E
:0232F30039019F
:0F3739007B017A0079881228851238F302390152
:0F3748007BFF7A24798C1228851238F30239011D
:0B005E00900002EBF0A3EAF0A3E9F031
:10006900E4A3F0A3F0A3F012139D64F8600302095E
:10007900AC900002E0FBA3E0FAA3E0F990000112C2
:1000890013B6D3941040030209ACE4900005F09034
:100099000002E0FBA3E0FAA3E0F99000011213B615
:1000A9002401FFE433FE900005E0FDC39FEE648068
:1000B900F8748098501DED2401FFE433FE8F828E81
:1000C900831213B6FF900007E02FF0900005E004BB
:1000D900F080BC900002E0FBA3E0FAA3E0F99000F5
:1000E900011213B6F582758300A3A31213B6FF900C
:1000F9000007E06F60030209AC7E007F107D007B82
:10010900007A00799D121795E4900006F09000029C
:10011900E0FBA3E0FAA3E0F99000021213B612166D
:100129004F06C3010800020857030718090158318F
:1001390001CF3201E33302F03404AD35056D3605E4
:10014900F83706A43808B241075DB9000009A412BE
:1001590036441239011238F31238D712389F12383F
:10016900C91238BB1238AD900002E0FBA3E0FAA334
:10017900E0F99000031213B66401700F7810E64499
:1001890002F67BFF7A367903020744900002E0FB0E
:10019900A3E0FAA3E0F99000031213B66402600326
:1001A9000209A47810E654FDF67BFF7A367903122A
:1001B90037E77B007A0079001237F3E4FBFA7D0117
:1001C900FC7F140207BB900002E0FBA3E0FAA3E066
:1001D900F99000031213B60209A4900002E0FBA3F0
:1001E900E0FAA3E0F99000031213B624FE700302AB
:1001F90002A70460030209A41238D712389F1238E3
:10020900C91238BB1238B4900002E0FBA3E0FAA38C
:10021900E0F99000041213B6B4010F90001B74FFAB
:10022900F0A37424F0A374DA8067900002E0FBA3C2
:10023900E0FAA3E0F99000041213B6B4020F90009B
:100249001B74FFF0A37424F0A374E38044900002AC
:10025900E0FBA3E0FAA3E0F99000041213B6B4039B
:100269000F90001B74FFF0A37424F0A374EC802199
:10027900900002E0FBA3E0FAA3E0F9900004121356
:10028900B6B4041790001B74FFF0A37424F0A37490
:10029900F5F07B017A007988121C8A02092B123643
:1002A900441237CD90001B74FFF0A37424F0A3749B
:1002B900FEF0900002E0FBA3E0FAA3E0F99000034E
:1002C9001213B6FF90001EE4F0A3EFF090000412A1
:1002D90013B6FF900020E4F0A3EFF07B017A0079D8
:1002E90088121C8A0209A4900002E0FBA3E0FAA389
:1002F900E0F99000031213B624FE605A1470030249
:10030900041514700302039914700302046424048D
:1003190060030209A49000041213B6B40103020495
:1003290029900002E0FBA3E0FAA3E0F9900004128F
:1003390013B6640260030209A47BFF7A38792A1292
:1003490037E77BFF7A3679FD1237F3E4FBFA7D064E
:10035900FC7F060207BB900002E0FBA3E0FAA3E0E2
:10036900F99000041213B66402700F90001B74FF19
:10037900F0A37424F0A374A78050900002E0FBA3BB
:10038900E0FAA3E0F99000041213B664010209A48B
:100399001239011238F31238D712389F1238C9129C
:1003A90038BB1238AD1238C2900002E0FBA3E0FA64
:1003B900A3E0F99000041213B66401701A90001BAF
:1003C90074FFF0A37424F0A3749EF07B017A007982
:1003D90088121C8A02092B900002E0FBA3E0FAA311
:1003E900E0F99000041213B6640260030209A47BC9
:1003F900FF7A38793C1237E77BFF7A3679FD123775
:10040900F3E4FBFA7D07FC7F070207BB900002E0DB
:10041900FBA3E0FAA3E0F99000041213B6B40106B5
:100429001236440209A4900002E0FBA3E0FAA3E01B
:10043900F99000041213B6640260030209A47BFF59
:100449007A37790C1237E77BFF7A3679FD1237F361
:10045900E4FBFA7D0AFC7F0A0207BB900002E0FB7D
:10046900A3E0FAA3E0F99000041213B66401703115
:10047900E92405F9E43AFA78887C007D017E007F59
:10048900081213777BFF7A3779391237E77BFF7ABE
:100499003779481237F3E4FBFA7D06FC7F06020739
:1004A900BB0207BF900002E0FBA3E0FAA3E0F990CA
:1004B90000031213B624FE604414606124FE700325
:1004C900020553240460030209A49000041213B620
:1004D900B401097BFF7A37792A020744900002E0C8
:1004E900FBA3E0FAA3E0F99000041213B6640260DA
:1004F900030209A47BFF7A37791B020744123644A9
:10050900900002E0FBA3E0FAA3E0F99000051213C2
:10051900B67812F67BFF7A32792B020744900002F3
:10052900E0FBA3E0FAA3E0F99000061213B67813F2
:10053900760008F69000051213B6781346F608E619
:10054900F67BFF7A3279C3020744900002E0FBA3ED
:10055900E0FAA3E02404F9E43AFAE490000CF07D0F
:10056900080209A11238D712389F1238AD1238BBC8
:100579001238D0900002E0FBA3E0FAA3E0F9900062
:10058900031213B6FFD3940990001B74FF400BF0BC
:10059900A37425F0A3740AF0801BF0A37424F0A3BC
:1005A90074FEF0900002E0FBA3E0FAA3E0F99000EA
:1005B900031213B6FF90001EE4F0A3EFF0900004BD
:1005C9001213B6FF900020E4F0A3EFF07B017A004C
:1005D9007988121C8A7B017A00798812362FAD0737
:1005E9007B017A00798890000C7403F00209A1124A
:1005F90038C91238A61238DE900002E0FBA3E0FAEF
:10060900A3E0F99000031213B6FFD394634010904E
:10061900001B74FFF0A37425F0A37415F0804290B9
:100629000002E0FBA3E0FAA3E0F99000031213B67D
:10063900FFD3940990001B74FF400BF0A37425F0BD
:10064900A3741DF0801BF0A37425F0A37426F09009
:100659000002E0FBA3E0FAA3E0F99000031213B64D
:10066900FF90001EE4F0A3EFF09000041213B6FF10
:10067900900020E4F0A3EFF07B017A007988121C46
:100689008A7B017A00798812362FAD077B017A00BF
:10069900798890000C7401F00209A1900002E0FB36
:1006A900A3E0FAA3E0F99000031213B6547F78117E
:1006B900F67BFF7A30796F020744900002E0FBA3D2
:1006C900E0FAA3E0F99000031213B664017031E96E
:1006D9002404F9E43AFA78887C007D017E007F08D9
:1006E9001213777BFF7A3779391237E77BFF7A372D
:1006F90079481237F3E4FBFA7D06FC7F060207BB53
:10070900900002E0FBA3E0FAA3E024040207CB1265
:1007190039011238F3900002E0FBA3E0FAA3E0F9F3
:100729009000031213B67810B40106E64401F6806E
:1007390004E654FEF67BFF7A3679191237E77B0017
:100749007A0079001237F37B017A007D017C007F02
:10075900140207F5900002E0FBA3E0FAA3E0F99088
:1007690000031213B6640160030207FA1238989065
:100779000002E0FBA3E0FAA3E0F99000041213B62B
:1007890064017032E92405F9E43AFA78887C007D3D
:10079900017E007F081213777BFF7A377939123788
:1007A900E77BFF7A3779481237F3E4FBFA7D05FCDA
:1007B9007F05FE0208AC900002E0FBA3E0FAA3E08B
:1007C9002405F9E43AFAE490000CF07D08122FCBE5
:1007D9007BFF7A3779391237E77B007A0079001283
:1007E90037F37B017A007D017C007F017E000208DE
:1007F900AC1238910209A4900002E0FBA3E0FAA32D
:10080900E02403F9E43AFA78887C007D017E007FD0
:1008190008121377900002E0FBA3E0FAA3E0240397
:10082900F9E43AFAE490000CF07D08122FCB7BFF33
:100839007A3779391237E77B007A0079001237F372
:100849007B017A007D017C007F017E00805590004C
:1008590002E0FBA3E0FAA3E02403F9E43AFA78887A
:100869007C007D017E007F08121377900002E0FB77
:10087900A3E0FAA3E02403F9E43AFAE490000CF0C7
:100889007D08122FCB7BFF7A3779391237E77B0046
:100899007A0079001237F37B017A007D017C007FB1
:1008A900017E001232910209A41238D71238F312CC
:1008B90039011238AD12389F1238BB1238C990006D
:1008C90002E0FBA3E0FAA3E0F99000031213B624B7
:1008D900FC6067240360030209A41238B490000283
:1008E900E0FBA3E0FAA3E0F99000041213B6B40107
:1008F9000E78887C007D017BFF7A257930802090F5
:100909000002E0FBA3E0FAA3E0F99000041213B699
:10091900B4020F78887C007D017BFF7A2579371234
:1009290017787B017A00798812362FAD077B017A17
:10093900007988E490000CF0805E1238C2900002C1
:10094900E0FBA3E0FAA3E0F99000041213B6B401A6
:100959000E78887C007D017BFF7A25793F80209085
:100969000002E0FBA3E0FAA3E0F99000041213B639
:10097900B4020F78887C007D017BFF7A25794412C7
:1009890017787B017A00798812362FAD077B017AB7
:10099900007988E490000CF0122FCB900006E060FB
:0309A9000204F055
:0109AC002228
:10000E0078ADE66030123820EF24F0601724D0600F
:10001E0011242070151237FF12390FE478ADF60255
:10002E0033E980001237FF02390F7B007A00799D89
:10003E007D100230F57B007A0079AE7D10123349C7
:0D004E00EF60097B007A0079AE12005E229F
:09384E0020505752204F4646005D
:102A160050007800000000000000000000000000E8
:072A260000000041007700F1
:10365800E4900077F078787C007D017BFF7A3879F8
:043668004E0217787F
:102FCB00900008EBF0A3EAF0A3E9F0A3EDF090007A
:102FDB0008E0F9A3E0FAA3E0900010C9F0A3EAF02F
:102FEB00A3E9F0EDFFA3E4F0A3EFF07B017A007906
:102FFB0078122BB090000BE0FFC39410500C747838
:10300B002FF582E43400F583E4F090000CE090009F
:03301B0077F02229
:10313800123816403B7B017A007978122885900076
:1031480077E070061239010238F3900077E0B40195
:10315800051238F38017900077E0B402061238FAA7
:10316800023901900077E0B403061238FA123908E0
:013178002234
:10357F001235081231F512325E12392212386012EA
:0B358F0034A1123680123869D2AF223E
:0A2A2D004200A800004200A60000CD
:093857003082037F00227F012270
:092C18007816E6FC08E6FD7F12C7
:102C2100EF2407FBE43EFAD3EB94FFEA940340065A
:102C31007A037BFF8007EF2407FBE43EFA9000A8AC
:102C4100EAF0A3EBF0C3EF9407EE940050067E0088
:102C51007F008008EF24F9FFEE34FFFE9000A6EE1E
:102C6100F0A3EFF0C3ED9FEC9E40109000A9E09D12
:0E2C71009000A8E09C40047F0180027F0022BA
:0F3757007816E6FC08E6FD7F077E03122C212280
:063916007E02122C1822B3
:06391C007E01122C1822AE
:0E37B1007816E6FC08E6FDE4FFFE122C21224D
:0F3766007818E6FC08E6FD7F387E03122C21223E
:0F3775007818E6FC08E6FD7F747E02122C2122F4
:0F3784007818E6FC08E6FD7FB07E01122C2122AA
:0F3793007818E6FC08E6FD7FE07E00122C21226C
:1036CB00123857EF6009123766EF60037F01227FD4
:0236DB000022CB
:063922001227D502388ACD
:10366C00789BE62490F8A607789B06E6C3940A405C
:04367C0002E4F6224C
:10354700789AE6FE08667002FF2274902EF8E6FF6E
:0B355700789A06E6C3940A4002E4F6EE
:013562002246
:10356300789CE6FE18667002FF2274902EF8E6FF40
:0B357300789C06E6C3940A4002E4F6D0
:01357E00222A
:0B380B00EF75F00BA4242AF8E6FF2262
:10345900EF75F00BA42428F8A60408A605AE03EF1F
:1034690075F00BA4242BF8A606EF75F00BA4242CF9
:04347900F8E4F6225B
:06392800789BE618F62270
:07388A0043B10453B2FB221D
:1027D500E4789AF608F608F6FFEF75F00BA42428BE
:1027E500F876000876C8EF75F00BA42425F8760274
:1027F500EF75F00BA4242AF8E4F6EF75F00BA4248A
:102805002BF8E4F6EF75F00BA4242CF8E4F60FEFA3
:10281500B40AC6784C763278577632782276FF0835
:102825007638087657782D76FF0876370876577804
:102835003876FF087639087616784376FF087639B4
:1028450008761C784E76FF0876370876B178597683
:10285500FF087637087666786476FF087637087657
:1028650075786F76FF087637087684787A76FF086C
:0F2875007637087693788576FF0876360876CB27
:012884002231
:101F8A00900003EFF0E075F00BA42422F9E4FAFBC9
:101F9A009000A3F0A3F0A3E9F012162F121675EF22
:101FAA0070030220769000A3E0FBA3E0FAA3E0F915
:101FBA009000031213B6FFC39405500890000374EF
:101FCA00050220DAEFC3940A500890000374010254
:101FDA0013E39000081213B6701490000804121448
:101FEA0016900003E075F003A404FF12366C90000B
:101FFA00A3E0FBA3E0FAA3E0F990000612144EFF57
:10200A00AEF0D39400EE940050030220DD90000459
:10201A0012144EC39FE5F09E5023900004E475F01D
:10202A0001121486FCE5F06F7002EC6E6003022068
:10203A00DD900003E075F003A42403802B900009CF
:10204A001213B6FFD3940050030220DD90000A74E5
:10205A00011213E3C39F407B90000AE41214169006
:10206A000003E075F003A404FF02366C9000A3E0BD
:10207A00FBA3E0FAA3E0F99000031213B6FFD3948E
:10208A0005400A9000037405121416802BEF600AAB
:10209A0090000374FF1213E3801E9000081213B617
:1020AA00B40115900008E4121416900003E075F0CC
:1020BA0003A42402FF12366C9000A3E0FBA3E0FA0B
:1020CA00A3E0F9900004E4F5F01214D390000AE4B6
:0420DA0012141622A4
:10359A00E4900002F0900002E0FFC3940A500B127C
:0A35AA001F8A900002E004F080EB9D
:0135B40022F4
:1031F500E4F5B275B180F5B475B3FFF5B675B5FFF5
:10320500F5AD75AC0FF5DB75DAFFF5DD75DCFFF5B2
:10321500F975FA0475E5FF75E6FF75E7FF75EEFFCD
:0632250043F9800237CDE1
:0C37CD00E4FF8FFBE4F5FC0FEFB420F6E6
:0137D90022CD
:0738910075FB1253FCF72246
:0738980075FB1243FC08223E
:07389F0075FB0E53FCF7223C
:0738A60075FB0E43FC082234
:0738AD0075FB0B53FCF72231
:0738B40075FB0B43FC082229
:0738BB0075FB0A53FCF72224
:0738C20075FB0A43FC08221C
:0738C90075FB0353FCF7221D
:0738D00075FB0343FC082215
:0738D70075FB0253FCF72210
:0738DE0075FB0243FC082208
:0738E50075FB0F53FCF722F5
:0738EC0075FB0F43FC0822ED
:0738F30075FB0753FCF722EF
:0738FA0075FB0743FC0822E7
:0739010075FB0653FCF722E1
:0739080075FB0643FC0822D9
:06392E001238F30239011A
:063934001238FA02390806
:10255900EFB40800400302263C902569F828287347
:102569000225810225990225B10225C80225DF022B
:1025790025F602260D02262475FB1F53FCF875FB70
:102589001E53FCF875FB1D53FCF075FB1C02263924
:1025990075FB1B53FCF875FB1A53FCF875FB1953B3
:1025A900FCF075FB1802263975FB1753FCF875FB0F
:1025B9001653FCF875FB1553FCF075FB1480717507
:1025C900FB1353FCF875FB1253FCF875FB1153FC14
:1025D900F075FB10805A75FB0F53FCF875FB0E5311
:1025E900FCF875FB0D53FCF075FB0C804375FB0B78
:1025F90053FCF875FB0A53FCF875FB0953FCF0759D
:10260900FB08802C75FB0753FCF875FB0653FCF897
:1026190075FB0553FCF075FB04801575FB0353FC32
:10262900F875FB0253FCF875FB0153FCF0E4F5FB6C
:0426390053FCF0223C
:0C37DA00E4FEAF061225590EEEB408F60E
:0137E60022C0
:1009AD00EFD3940740030212A6ED64536004EDB437
:1009BD0073047D35801EEDB467047D398016EDB46A
:1009CD006C047D4C800EEDB470047D508006EDB44A
:1009DD0078027D58ED12164F0B96200A94300ABE00
:1009ED00310AE2320AF7330B0C340B21350B363654
:1009FD000B48370B6F380B81390B99410BAB420B01
:100A0D00D2430BF3440C1A450C38460C5F470C804F
:100A1D00480CA4490CCB4A0CF24B0D164C0D3D4D18
:100A2D000D674E0D914F0DBB500DE2510E0C520E38
:100A3D003A540E61550E88560EB6570EDD580EFB04
:100A4D00590F225A0F4C610F76620F9A630FC164D2
:100A5D000FE865101666103D6810616910856A1003
:100A6D00B06B10DB6D11016E11276F115571118671
:100A7D007211A97411D47511FA7612257712537962
:100A8D0012797A000012A6EF25E025E0FEC3741F4F
:100A9D009EF5FB43FC0553FCFDC3741E9EF5FB4305
:100AAD00FC0553FCFDC3741D9EF5FB75FC0902107E
:100ABD00A6EF25E025E0FEC3741F9EF5FB53FCF861
:100ACD00C3741E9EF5FB53FCF8C3741D9EF5FB7598
:100ADD00FC010210A6EF25E025E0FEC3741F9EF574
:100AED00FB43FC0653FCFE020FF7EF25E025E0FE6D
:100AFD00C3741F9EF5FB43FC0253FCFA020F5EEF1D
:100B0D0025E025E0FEC3741F9EF5FB43FC0353FC5B
:100B1D00FB020C8FEF25E025E0FEC3741F9EF5FB55
:100B2D0043FC0353FCFB020C71EF25E025E0FEC3F3
:100B3D00741F9EF5FB43FC07020C71EF25E025E0C9
:100B4D00FEC3741F9EF5FB53FCF8C3741E9EF5FB8C
:100B5D0043FC0153FCF9C3741D9EF5FBE4F5FC0247
:100B6D0010A6EF25E025E0FEC3741F9EF5FB43FCA8
:100B7D0007020F5EEF25E025E0FEC3741F9EF5FB17
:100B8D0043FC0353FCFB020F5E022559EF25E025C4
:100B9D00E0FEC3741F9EF5FB43FC07021167EF25B2
:100BAD00E025E0FEC3741F9EF5FB53FCF8C3741ED5
:100BBD009EF5FB43FC0153FCF9C3741D9EF5FB75BB
:100BCD00FC0E02117CEF25E025E0FEC3741F9EF59F
:100BDD00FB43FC0553FCFDC3741E9EF5FB43FC015A
:100BED0053FCF9020D31EF25E025E0FEC3741F9E85
:100BFD00F5FB53FCF8C3741E9EF5FB43FC0153FC3F
:100C0D00F9C3741D9EF5FB75FC0E0210A6EF25E0D1
:100C1D0025E0FEC3741F9EF5FB43FC07C3741E9EA7
:100C2D00F5FB43FC0153FCF9020FB5EF25E025E080
:100C3D00FEC3741F9EF5FB43FC07C3741E9EF5FB9C
:100C4D0043FC0153FCF9C3741D9EF5FBE4F5FC0256
:100C5D0011CAEF25E025E0FEC3741F9EF5FB43FC92
:100C6D000553FCFDC3741E9EF5FB43FC0153FCF9BB
:100C7D00020F8EEF25E025E0FEC3741F9EF5FB43AA
:100C8D00FC07C3741E9EF5FB53FCF8C3741D9EF543
:100C9D00FBE4F5FC02117CEF25E025E0FEC3741F9B
:100CAD009EF5FB53FCF8C3741E9EF5FB43FC0153EC
:100CBD00FCF9C3741D9EF5FB75FC0E02129DEF250C
:100CCD00E025E0FEC3741F9EF5FB43FC0453FCFCC2
:100CDD00C3741E9EF5FB53FCF8C3741D9EF5FB7586
:100CED00FC080210A6EF25E025E0FEC3741F9EF55B
:100CFD00FB43FC07C3741E9EF5FB53FCF8C3741D28
:100D0D009EF5FB75FC0102114BEF25E025E0FEC3BE
:100D1D00741F9EF5FB43FC0553FCFDC3741E9EF52D
:100D2D00FB53FCF8C3741D9EF5FB75FC0802129D68
:100D3D00EF25E025E0FEC3741F9EF5FB43FC055334
:100D4D00FCFDC3741E9EF5FB43FC0253FCFAC374F9
:100D5D001D9EF5FB75FC050210A6EF25E025E0FEB6
:100D6D00C3741F9EF5FB43FC0553FCFDC3741E9E0F
:100D7D00F5FB43FC0153FCF9C3741D9EF5FBE4F533
:100D8D00FC0210A6EF25E025E0FEC3741F9EF5FBC7
:100D9D0043FC0553FCFDC3741E9EF5FB43FC015340
:100DAD00FCF9C3741D9EF5FB75FC080210A6EF251A
:100DBD00E025E0FEC3741F9EF5FB43FC07C3741EC4
:100DCD009EF5FB43FC0153FCF9C3741D9EF5FBE43A
:100DDD00F5FC02100CEF25E025E0FEC3741F9EF517
:100DED00FB43FC0553FCFDC3741E9EF5FB43FC0148
:100DFD0053FCF9C3741D9EF5FB75FC08020EACEF98
:100E0D0025E025E0FEC3741F9EF5FB43FC07C3746C
:100E1D001E9EF5FB43FC0153FCF9C3741D9EF5FBAF
:100E2D00E4F5FCC3741C9EF5FB75FC0722EF25E071
:100E3D0025E0FEC3741F9EF5FB53FCF8C3741E9E84
:100E4D00F5FB43FC0153FCF9C3741D9EF5FB75FCCA
:100E5D000602129DEF25E025E0FEC3741F9EF5FBF3
:100E6D0043FC0553FCFDC3741E9EF5FB53FCF8C3F8
:100E7D00741D9EF5FB75FC080210A6EF25E025E01C
:100E8D00FEC3741F9EF5FB53FCF8C3741E9EF5FB49
:100E9D0043FC0253FCFAC3741D9EF5FBE4F5FCC341
:100EAD00741C9EF5FB75FC0D22EF25E025E0FEC3BD
:100EBD00741F9EF5FB43FC0553FCFDC3741E9EF58C
:100ECD00FB53FCF8C3741D9EF5FB75FC0E0210A6BA
:100EDD00EF25E025E0FEC3741F9EF5FB53FCF8C320
:100EED00741E9EF5FB43FC0653FCFE0210C8EF2555
:100EFD00E025E0FEC3741F9EF5FB43FC0353FCFB92
:100F0D00C3741E9EF5FB53FCF8C3741D9EF5FB7553
:100F1D00FC0802117CEF25E025E0FEC3741F9EF551
:100F2D00FB43FC0253FCFAC3741E9EF5FB43FC0508
:100F3D0053FCFDC3741D9EF5FB75FC090211CAEF30
:100F4D0025E025E0FEC3741F9EF5FB43FC0653FC14
:100F5D00FEC3741E9EF5FB43FC0153FCF9C3741DC7
:100F6D009EF5FB75FC0802117CEF25E025E0FEC324
:100F7D00741F9EF5FB43FC07C3741E9EF5FB53FCCB
:100F8D00F8C3741D9EF5FB75FC0802114BEF25E0AF
:100F9D0025E0FEC3741F9EF5FB43FC0653FCFEC308
:100FAD00741E9EF5FB53FCF8C3741D9EF5FB75FC7A
:100FBD00080211CAEF25E025E0FEC3741F9EF5FB64
:100FCD0043FC0653FCFEC3741E9EF5FB53FCF8C395
:100FDD00741D9EF5FB75FC0802117CEF25E025E0E4
:100FED00FEC3741F9EF5FB43FC07C3741E9EF5FBE9
:100FFD0043FC0153FCF9C3741D9EF5FB75FC08C33E
:10100D00741C9EF5FB75FC0322EF25E025E0FEC365
:10101D00741F9EF5FB43FC07C3741E9EF5FB43FC3A
:10102D000153FCF9C3741D9EF5FBE4F5FC02129D02
:10103D00EF25E025E0FEC3741F9EF5FB43FC07C3BF
:10104D00741E9EF5FB53FCF8C3741D9EF5FBE4F571
:10105D00FC02114BEF25E025E0FEC3741F9EF5FB4E
:10106D0053FCF8C3741E9EF5FB53FCF8C3741D9E10
:10107D00F5FB75FC0602129DEF25E025E0FEC3741D
:10108D001F9EF5FB53FCF8C3741E9EF5FB53FCF835
:10109D00C3741D9EF5FB75FC08C3741C9EF5FB7592
:1010AD00FC0922EF25E025E0FEC3741F9EF5FB43EE
:1010BD00FC07C3741E9EF5FB53FCF8C3741D9EF50F
:1010CD00FB75FC01C3741C9EF5FB75FC0422EF251A
:1010DD00E025E0FEC3741F9EF5FB43FC0653FCFEAA
:1010ED00C3741E9EF5FB53FCF8C3741D9EF5FB7572
:1010FD00FC04804AEF25E025E0FEC3741F9EF5FB3E
:10110D0043FC0653FCFEC3741E9EF5FB53FCF8C353
:10111D00741D9EF5FBE4F5FC8024EF25E025E0FE33
:10112D00C3741F9EF5FB43FC0653FCFEC3741E9E49
:10113D00F5FB53FCF8C3741D9EF5FB75FC08C374D9
:10114D001C9EF5FB75FC0A22EF25E025E0FEC3741D
:10115D001F9EF5FB43FC0353FCFBC3741E9EF5FB66
:10116D0043FC0153FCF9C3741D9EF5FBE4F5FCC370
:10117D00741C9EF5FB75FC0B22EF25E025E0FEC3EC
:10118D00741F9EF5FB53FCF8C3741E9EF5FB53FCB8
:10119D00F8C3741D9EF5FB75FC048021EF25E02539
:1011AD00E0FEC3741F9EF5FB43FC07C3741E9EF542
:1011BD00FB53FCF8C3741D9EF5FB75FC08C3741C32
:1011CD009EF5FB75FC0222EF25E025E0FEC3741FA2
:1011DD009EF5FB43FC0453FCFCC3741E9EF5FB53B0
:1011ED00FCF8C3741D9EF5FB75FC08804FEF25E0E0
:1011FD0025E0FEC3741F9EF5FB53FCF8C3741E9EC1
:10120D00F5FB53FCF8C3741D9EF5FBE4F5FCC374AC
:10121D001C9EF5FB75FC0C22EF25E025E0FEC3744A
:10122D001F9EF5FB43FC0453FCFCC3741E9EF5FB93
:10123D0053FCF8C3741D9EF5FB75FC0CC3741C9E0A
:10124D00F5FB75FC0822EF25E025E0FEC3741F9E1B
:10125D00F5FB53FCF8C3741E9EF5FB43FC0253FCD7
:10126D00FAC3741D9EF5FB75FC058024EF25E02562
:10127D00E0FEC3741F9EF5FB53FCF8C3741E9EF570
:10128D00FB43FC0553FCFDC3741D9EF5FB75FC096A
:0A129D00C3741C9EF5FBE4F5FC226F
:0B288500900018EBF0A3EAF0A3E9F0CC
:10289000E4A3F0FFC200E94A700302292690001861
:1028A000E0FBA3E0FAA3E0F912362FEFC39408404F
:1028B0002EE490001BF090001BE0FF900018E0FB5E
:1028C000A3E0FAA3E0F98F827583001213B6FD121C
:1028D00009AD90001BE004F0E0C3940840D822E466
:1028E00090001BF090001BE0FFC3940850382000BC
:1028F00023900018E0FBA3E0FAA3E0F98F82758330
:10290000001213B6FD60028012D20090001BE0FF9F
:102910007D20800790001BE0FF7D201209AD900014
:062920001BE004F080BE84
:01292600228E
:082A37004100A1004100A200D2
:1034A1001233C35389F75389FB5389FD4389019033
:1034B10000A174FCF0A37466F0758CFCF58AD2A9A6
:0334C100D28C2288
:1033C3009000987401F0E490009AF090009CF090C3
:1033D300009EF0A3F0900099F090009BF090009D68
:0633E300F09000A0F022B2
:03000B00022ACBFB
:102ACB00C0E0C0F0C083C082C0D075D000C000C0D1
:102ADB00069000A1E0F58CA3E0F58A900098E00445
:102AEB00F0C394054005E4F0A304F090009AE004D1
:102AFB00F0C3940A4005E4F0A304F090009CE004BA
:102B0B00F0C394644005E4F0A304F090009EE475D8
:102B1B00F001121438FEC3E5F094E8EE9403400A7A
:102B2B0090009EE4F0A3F0A304F0D006D000D0D028
:092B3B00D082D083D0F0D0E0324A
:10325E00E47815F60876030876FF0876030876FFFD
:10326E0043E101F5E843B10153B2FE43F60143B128
:10327E000253B2FD43F60253E1BF43E12053E1EFA7
:03328E00D2AE229B
:1034C4007815E6600CE4F6C2EBC2EAC2E9C2E88011
:1034D4000C78157601C2EBC2EAC2E9D2E80000001A
:0334E400D2EE2203
:0938600053B1DF43B220023947E5
:03394700C2852214
:03394A00D2852201
:03394D00B285221E
:0938690053B1BF43B240023953D0
:03395000C286220A
:03395300D28622F7
:10347D000A6D679C46F6375D4521EFAC5A50010B3E
:10348D00DF020A6D679C46F6375D4521EFAC5A5059
:04349D00E10BDF025E
:082A3F004500AACCCCCCCCCCA4
:1036800053B1EF43B21053ACEF43AD1053ACDF4333
:03369000AD202248
:01395900224B
:10352800E4FEC284EF30E704D2838002C283EF2531
:0E353800E0FF00D28400000EEEB408E6C2846C
:013546002262
:04369300E4FD7FFCD7
:0F369700C2B400123528AF0512352800D2B42274
:0A30B2007B019000187405F07F3FC9
:0B30BC00900015EBF0A3EAF0A3E9F090
:1030C700C2B4E4FD123528900018E0FFEDC39F500D
:1030D7001A900015E0FBA3E0FAA3E0F98D8275834F
:0D30E700001213B6FF1235280D80DCD2B4A4
:0130F40022B9
:10343400E4FEC284EF30E704D2838002C283EF2526
:10344400E0FF00D28400000EEEB408E643B1085356
:04345400B2F7C28485
:013458002251
:1035B500E4FFFEC284EF25E0FF00D284308303449C
:0935C50001FF0EEEB408ECC28413
:0135CE0022DA
:1036A600C2B4001234341235B553B1F743B2080030
:0236B600D2B48C
:0136B80022EF
:0B317900900003EBF0A3EAF0A3E9F0E4
:10318400C2B4123434E4FD900006E0FFEDC39F5056
:103194001A1235B5900003E0FBA3E0FAA3E0F98D21
:1031A40082758300EF1214160D80DC53B1F743B21D
:0331B40008D2B48A
:0131B70022F5
:0F37A2001236937D8E7F20123697000000002292
:1033E900E4FEFD7FFC1236977D8F7F20123697E42D
:1033F900FD7FFD123697E4FEFF000FBF00010EBEF0
:0534090007F7BFD0F43D
:01340E00229B
:0A3820007F071236A6EF5470FF2256
:06393A007F091236A622EF
:07390F007D707F270236974F
:0C37FF00E4FD7FE11236977FE20236976E
:0E37BF00AC07123693AF04AD077F2502369794
:0630F500123820EF703CD0
:1030FB00900002F0A3F0900018EDF07FA01230BC0E
:10310B00E4FD7FFD123697E4900002F0A3F00090EF
:10311B000003E004F07006900002E004F09000025F
:0C312B00E07004A3E064C870E512369365
:013137002275
:10334900AC05123820EF30E61D123693900006ECDA
:10335900F07F611231791237FF12390FE4FD7FFDD9
:093369001236977F01227F002239
:1022230078027C007D017BFF7A34797D7E007F0517
:1022330012137778077C007D017BFF7A3479827EE5
:10224300007F03121377780A7C007D017BFF7A34C9
:1022530079857E007F0612137778107C007D017BE1
:10226300FF7A34798B7E007F0112137778117C001B
:102273007D017BFF7A34798C7E007F031213771202
:1022830039597D5A7F531236977DA57F531236975E
:102293007D207F3D1236971236937FE11236977F6A
:1022A300E21236977D707F271236977D017F2212C7
:1022B30036977D037F231236977D4E7F25123697FF
:1022C3007D107F311236977B017A0079AA9000182E
:1022D3007405F07F301230BC7B017A0079AA90003C
:1022E300187405F07F2A1230BC7A0079021230B2DA
:1022F3007B017A00790A9000187406F07F3A123055
:10230300BC7B017A0079109000187401F07F3912B8
:1023130030BC7B017A0079079000187403F07F3E8C
:102323001230BC7B017A0079119000187403F07F9E
:102333003B1230BCE4FD7F3C1236977D3F7F261273
:0E2343003697E4FD7F241236977F21023697ED
:05263D00900040EFF0E9
:10264200E478417C007D017BFF7A34798FFE7F053F
:1026520012137778467C007D017BFF7A3479947E71
:10266200007F0312137778497C007D017BFF7A3467
:1026720079977E007F06121377784F7C007D017B6D
:10268200FF7A34799D7E007F0112137778507C00A7
:102692007D017BFF7A34799E7E007F031213777D62
:1026A2005A7F531236977DA57F531236977D207F2E
:1026B2003D123697123693E4FF000000000FEFB48C
:1026C200DCF7900040E0FD7F251236977D3F7F26A4
:1026D2001236977A0079411230B27B017A00794939
:1026E2009000187406F07F3A1230BC7B017A0079B0
:1026F2004F9000187401F07F391230BC7B017A00D0
:1027020079469000187403F07F3E1230BC7B017A48
:0E2712000079509000187403F07F3B0230BC39
:1020DE00EF14604414606F14700302217D147003BA
:1020EE000221B92404600302221DA2AF9209C2AFDD
:1020FE0075C7AA75C755439780A20992AFA2AF9232
:10210E0009C2AF75C7AA75C7555397BFA20992AF3B
:10211E00E59630E7FB0221E4A2AF9209C2AF75C784
:10212E00AA75C75553977FA20992AFA2AF9209C263
:10213E00AF75C7AA75C755439740A20992AFE596EA
:10214E0030E6FB0221E4A2AF9209C2AF75C7AA75B1
:10215E00C755439720A20992AFE59630E5FBA2AF93
:10216E009209C2AF75C7AA75C7555396FB8027A2B1
:10217E00AF9209C2AF75C7AA75C755439710A2098A
:10218E0092AFE59630E4FBA2AF9209C2AF75C7AA33
:10219E0075C755439604A20992AFA2AF9209C2AF7A
:1021AE0075C7AA75C7555396FD804DA2AF9209C249
:1021BE00AF75C7AA75C75553977FA20992AFA2AF45
:1021CE009209C2AF75C7AA75C7555397BFA2099298
:1021DE00AFE59630E3FBA2AF9209C2AF75C7AA7501
:1021EE00C7555396FBA20992AFA2AF9209C2AF7523
:1021FE00C7AA75C755439602A20992AFA2AF92091C
:10220E00C2AF75C7AA75C7555396FEA20992AFE520
:05221E009720E0FB2207
:1033720075985243892053877F538EEF53C4DFAB36
:1033820007AA06A905A804E47F807E70FDFC121539
:093392003CEFF404F58DD28E220B
:10339B00759852438920438780538EEF53C4DFAB1C
:1033AB0007AA06A905A804E4FF7EE1FDFC12153C63
:0833BB00EFF404F58DD28E221F
:1032F50075985243892053877F438E1053C4DFABA3
:1033050007AA06A905A8047F007E467D057C001254
:0A331500153CEFF404F58DD28E2272
:10331F00759852438920438780438E1053C4DFAB87
:10332F0007AA06A905A8047F007E8C7D0A7C0012DF
:0A333F00153CEFF404F58DD28E2248
:102C7F009000AF1215F275985253877F53C4F843E3
:102C8F00C4209000AFE0F8A3E0F9A3E0FAA3E0FBC3
:102C9F007F007E467D057C0012153CC3E49FFFE458
:102CAF009EFE74019DFDE49CFC78081215DF8FC613
:102CBF009000AFE0F8A3E0F9A3E0FAA3E0FB7F00F8
:102CCF007E467D057C0012153CC3E49FFF8FC543F4
:032CDF00C4082204
:102CE2009000B31215F275985243878053C4F8438B
:102CF200C4209000B3E0F8A3E0F9A3E0FAA3E0FB5C
:102D02007F007E8C7D0A7C0012153CC3E49FFFE4A9
:102D12009EFE74019DFDE49CFC78081215DF8FC6AF
:102D22009000B3E0F8A3E0F9A3E0FAA3E0FB7F0090
:102D32007E8C7D0A7C0012153CC3E49FFF8FC54345
:032D4200C40822A0
:102E05009000B71215F275F85253C4F89000B7E068
:102E1500F8A3E0F9A3E0FAA3E0FB7F007E8C7D0A2E
:102E25007C0012153CC3E49FFFE49EFE74019DFDEA
:102E3500E49CFC78081215DF8FC69000B7E0F8A374
:102E4500E0F9A3E0FAA3E0FB7F007E8C7D0A7C001D
:0D2E550012153CC3E49FFF8FC543C4082243
:070003003098FDAF99C2988F
:01000A0022D3
:08387200C2998F993099FD22E3
:07387A0030F8FDAF9AC2F81F
:013881002224
:08388200C2F98F9A30F9FD2212
:1035CF00E4F5B1F5B2F5B3F5B4F5B5F5B6F5ACF57F
:0A35DF00ADF5DAF5DBF5DCF5DD22D1
:1035080075B1FFE4F5B275B3FFF5B475B5FFF5B65F
:1035180075ACFFF5AD75DAFFF5DB75DCFFF5DD227F
:1035E90075C7AA75C755A2AF9209C2AF75C7AA75A3
:0A35F900C755439F80A20992AF223C
:0439400043AD8022F1
:1031B800EF640A701C30F811E59AB4130CC2F830A9
:1031C800F8FDE59AB411F6C2F830F9FDC2F9759A1E
:1031D8000D30F811E59AB4130CC2F830F8FDE59AF1
:0D31E800B411F6C2F830F9FDC2F98F9A2239
:062A480090FFF812167B5E
:102A4E00850D83850E821215FE00000000E47FFFC7
:102A5E007EFFFDFC850D83850E82E0F8A3E0F9A3D1
:102A6E00E0FAA3E0FBC31215CE504C9000041216F0
:102A7E009FE0FCA3E0FDA3E0FEA3E02401FFE43E03
:102A8E00FEE43DFDE43CFC90000412169F1215F28C
:102A9E00850D83850E82E0FCA3E0FDA3E0FEA3E09E
:102AAE002401FFE43EFEE43DFDE43CFC850D838500
:072ABE000E821215F2809652
:062AC50090000802167BE0
:1034E700538EF7438901D28CEF4E6012758AF775B8
:1034F7008CFF308DFDC28DEF1F70ED1E80EAC28CF0
:0135070022A1
:102F19009000BB1215F2538EF7438901D28CE4FF5E
:102F2900FEFDFC9000BBE0F8A3E0F9A3E0FAA3E002
:102F3900FBC31215CE602F758A65758CFC308DFD2B
:102F4900C28D9000BBE0FCA3E0FDA3E0FEA3E0245A
:102F5900FFFFEE34FFFEED34FFFDEC34FFFC900083
:092F6900BB1215F280B8C28C22E3
:102F72009000BF1215F2538EEF438910D28EE4FFF8
:102F8200FEFDFC9000BFE0F8A3E0F9A3E0FAA3E0A5
:102F9200FBC31215CE602F758B65758DFC308FFDCE
:102FA200C28F9000BFE0FCA3E0FDA3E0FEA3E024FB
:102FB200FFFFEE34FFFEED34FFFDEC34FFFC90002A
:092FC200BF1215F280B8C28E2284
:102EBE009000C31215F275C40243C408E4FFFEFD70
:102ECE00FC9000C3E0F8A3E0F9A3E0FAA3E0FBC393
:102EDE001215CE603275C53375C6F5E5C430E4FB08
:102EEE0053C4EF9000C3E0FCA3E0FDA3E0FEA3E01B
:102EFE0024FFFFEE34FFFEED34FFFDEC34FFFC90BB
:0B2F0E0000C31215F280B553C4F72277
:102D45009000C71215F2538FFB538FFD538FFEE48E
:102D5500F586538FDF438F08E4FFFEFDFC9000C727
:102D6500E0F8A3E0F9A3E0FAA3E0FBC31215CE60F7
:102D75002CE58F30E4FB538FEF9000C7E0FCA3E018
:102D8500FDA3E0FEA3E024FFFFEE34FFFEED34FFDC
:102D9500FDEC34FFFC9000C71215F280BB538FF792
:012DA500220B
:102351000A3D3D3D3D3D3D3D3D3D3D3D3D3D3D3DDF
:102361003D3D3D3D3D3D3D3D3D3D3D3D3D3D3D3D9C
:102371003D3D3D3D3D3D3D3D3D3D3D3D3D3D3D3D8C
:102381003D3D3D3D3D3D3D3D3D3D3D3D3D3D3D3D7C
:102391003D3D3D3D3D000A2A2020436F7079726921
:1023A1006768742863292032303135204E75766F85
:1023B100746F6E20546563686E6F6C6F677920432C
:1023C1006F72702E20416C6C207269676874732083
:1023D10072657365727665642E2020000A2A2020BA
:1023E100436F6E7461637420452D4D61696C3A20B1
:1023F1004D6963726F432D38626974406E75766FF3
:10240100746F6E2E636F6D202020202020202020ED
:1024110020202020202020202020202020202020BB
:1024210020000A2A202044656D6F20566572736969
:102431006F6E20203A202532642E2532642E2532FB
:1024410064000A2A202046696E6973686564204425
:10245100617465203A202532642E2532642E25329E
:02246100640015
:102DA6007BFF7A237951121C907BFF7A2379971245
:102DB6001C907BFF7A2379DD121C907BFF7A2479A5
:102DC6002390001BE4F0A304F0E4A3F0A3F0A3F027
:102DD600A3F0121C907BFF7A24794390001B7407A2
:102DE600F0A374DFF0A3E4F0A37405F0A3E4F0A36A
:0F2DF600741FF0121C907BFF7A237951021C90FE
:03000000022927AB
:10292700787FE4F6D8FD9000007FFF7E01E4F0A3F6
:0A293700DFFCDEFA7581BD02297C89
:10294100022B44E493A3F8E493A34003F68001F23D
:1029510008DFF48029E493A3F85407240CC8C33397
:10296100C4540F4420C8834004F456800146F6DF66
:10297100E4800B01020408102040809029C1E47E0C
:10298100019360BCA3FF543F30E509541FFEE4935B
:10299100A360010ECF54C025E060A840B8E493A322
:1029A100FAE493A3F8E493A3C8C582C8CAC583CA4D
:1029B100F0A3C8C582C8CAC583CADFE9DEE780BE05
:012A4700008E
:1012A700E709F608DFFA8046E709F208DFFA803E29
:1012B70088828C83E709F0A3DFFA8032E309F60816
:1012C700DFFA8078E309F208DFFA807088828C837E
:1012D700E309F0A3DFFA806489828A83E0A3F60832
:1012E700DFFA805889828A83E0A3F208DFFA804C0C
:1012F70080D280FA80C680D4806980F280338010E3
:1013070080A680EA809A80A880DA80E280CA80334B
:1013170089828A83ECFAE493A3C8C582C8CCC583C3
:10132700CCF0A3C8C582C8CCC583CCDFE9DEE78093
:101337000D89828A83E493A3F608DFF9ECFAA9F012
:10134700EDFB2289828A83ECFAE0A3C8C582C8CC68
:10135700C583CCF0A3C8C582C8CCC583CCDFEADE81
:10136700E880DB89828A83E493A3F208DFF980CCE3
:1013770088F0EF60010E4E60C388F0ED2402B404DC
:101387000050B9F582EB2402B4040050AF23234583
:0613970082239012F7739F
:10139D00BB010689828A83E0225002E722BBFE024E
:0913AD00E32289828A83E4932281
:1013B600BB010CE58229F582E5833AF583E02250EC
:1013C60006E92582F8E622BBFE06E92582F8E22236
:0D13D600E58229F582E5833AF583E4932250
:1013E300BB010FF8E58229F582E5833AF583E0280E
:1013F300F0225009C58229F8E58226F622BBFE09B0
:10140300C58229F8E22582F222F8EA2583F583E9E9
:03141300932822F9
:10141600F8BB010DE58229F582E5833AF583E8F00C
:10142600225006E92582C8F622BBFE05E92582C8B8
:02143600F222A0
:10143800C5F0F8A3E028F0C5F0F8E582158270023F
:061448001583E038F022DC
:10144E00BB0110E58229F582E5833AF583E0F5F0DC
:10145E00A3E0225009E92582F886F008E622BBFEB9
:10146E000AE92582F8E2F5F008E222E5832AF583FF
:08147E00E993F5F0A3E99322C4
:10148600BB010DC58229C582C5833AC583021438BE
:101496005011C58229F808E5F026F618F5F0E58220
:1014A60036F622BBFE11C58229F808E225F0F5F0D2
:1014B600F218E23582F222F8E58229F582E5832ADE
:0D14C600F58374019325F0F5F0E4933822CE
:1014D300F8BB0111E58229F582E5833AF583E8F04B
:1014E300E5F0A3F0225009E92582C8F608A6F02208
:0D14F300BBFE09E92582C8F2E5F008F222EF
:1015000075F008758200EF2FFFEE33FECD33CDCCA2
:1015100033CCC58233C5829BED9AEC99E582984025
:101520000CF582EE9BFEED9AFDEC99FC0FD5F0D602
:10153000E4CEFBE4CDFAE4CCF9A88222B800C1B92C
:101540000059BA002DEC8BF084CFCECDFCE5F0CB6A
:10155000F97818EF2FFFEE33FEED33FDEC33FCEBA3
:1015600033FB10D703994004EB99FB0FD8E5E4F95E
:10157000FA227818EF2FFFEE33FEED33FDEC33FC4B
:10158000C933C910D7059BE99A4007EC9BFCE99A3F
:10159000F90FD8E0E4C9FAE4CCFB2275F010EF2F84
:1015A000FFEE33FEED33FDCC33CCC833C810D70784
:1015B0009BEC9AE899400AED9BFDEC9AFCE899F8BF
:0E15C0000FD5F0DAE4CDFBE4CCFAE4C8F92252
:1015CE00EB9FF5F0EA9E42F0E99D42F0E89C45F073
:0115DE0022EA
:1015DF00E8600FECC313FCED13FDEE13FEEF13FFEA
:0315EF00D8F1220E
:0C15F200ECF0A3EDF0A3EEF0A3EFF0226C
:1015FE00A8828583F0D083D082121615121615128A
:10160E001615121615E473E493A3C583C5F0C583AE
:10161E00C8C582C8F0A3C583C5F0C583C8C582C836
:01162E002299
:10162F00BB010789828A830217F25005E9F8021776
:10163F00E9BBFE05E9F802181B89828A8302182488
:10164F00D083D082F8E4937012740193700DA3A32A
:10165F0093F8740193F5828883E47374029368603E
:06166F00EFA3A3A380DF3E
:061675008A838982E47300
:10167B00E50E2582F582E50D3583F583B50D0485E1
:10168B00820E2210AF0685820EF50D2285820EF595
:04169B000DD2AF229B
:0D169F00E50E2582F582E50D3583F58322E9
:101C2500E508241BF582E43400F583E005082290DD
:101C3500001830070390001BE475F0011217FB0232
:101C4500139D2000E97F2ED2008018EF540F2490B9
:101C5500D43440D4FF30040BEF24BFB41A00500332
:101C65002461FFE50960021509050CE50C70020504
:101C75000B30070E900018E475F0011217FBEF0208
:101C850017C10231B87403D2078003E4C207F5080F
:101C9500900018121812E4F509F50BF50CE509602A
:101CA500077F20121C6880F5750AFFC201C200C2B9
:101CB50002C203C205C206C208121C34FF700D30F1
:101CC50007057F00121C79AF0CAE0B22B4255FC24D
:101CD500D5C204121C34FF24D0B40A00501A75F082
:101CE5000A780930D50508B6FF0106C6A426F620F0
:101CF500D5047002D20380D924CFB41A00EF500462
:101D0500C2E5D204021E7AD20180C6D20080C0D2BA
:101D15000280BCD2D580BAD20580B47F20121C685F
:101D25002002077401B5090040F1121C25FF121CA1
:101D350068021CA2D208D2068095121C25FB121C33
:101D450025FA121C25F94A4B7006794B7A1F7BFF41
:101D550020022EE509602A7E008E8275830012130B
:101D6500B660060EEE650A70F0C2D5EBC0E0EAC0BB
:101D7500E0E9C0E0EE121EC1D0E0F9D0E0FAD0E013
:101D8500FB12139DFF60AAEBC0E0EAC0E0E9C0E0EA
:101D9500121C68D0E02401F9D0E03400FAD0E0FB51
:101DA500E50A0460DCD50AD980877BFF7A1E79BDF8
:101DB500D202809C791080027908C206C208800888
:101DC500D2D5790A8004790AC2D5E50A047002F5EC
:101DD5000AE4FAFDFEFF121C25FC7B082001131204
:101DE5001C25FD7B1030000A121C25FE121C25FF48
:101DF5007B20EC3382D592D55013C3E43000069F87
:101E0500FFE49EFEE42001039DFDE49CFCE4CBF889
:101E1500C201EC700CCFCECDCCE824F8F870F3807D
:101E250017C3EF33FFEE33FEED33FDEC33FCEB333D
:101E3500FB994002FB0FD8E9EB300105F8D0E0C46F
:101E450048B201C0E00AEC4D4E4F78207B0070C2CD
:101E5500EAB50A0040BCC0E0121EC3D0F0D0E020B5
:101E65000104C4C0E0C4B201C0F0121C51D0F0D5C9
:101E7500F0EB021CA212164F1D3F531DB9581D1041
:101E85004C1D0C421DBD4F1DC5441DC5491D254397
:081E95001DCB551DAF461DAF2A
:101E9D00451DAF471F6B501D142D1D182E1D3B2BBF
:101EAD001D1C231D39201F542A1CD44800001D332E
:101EBD003F3F3F00790AA2D5200314300509B91020
:101ECD00020404B9080104A2D52006025001042021
:101EDD0002689202B509005034C0E07F203003192A
:101EED007F30A20272067205500F121F1AC202C273
:101EFD0006C205C2087F30800F300503E9C0E0122D
:101F0D001C68300503D0E0F9D0E0B509CC300517D9
:101F1D007F30B9100C121C687F583004077F788011
:101F2D0003B90803121C683002057F2D021C687F5F
:101F3D00202008F87F2B2006F322920280CF286EF6
:101F4D00756C6C2900D201121C253001F8C2017884
:101F5D000930D50108F6021CD42D50434958121CE6
:101F6D00252403B405004001E4901F6693121C590B
:0D1F7D00743A121C59D203750904021DB9F3
:1016AC00E709F60870FA8046E709F20870FA803EFE
:1016BC0088828C83E709F0A370FA807EE309F60830
:1016CC0070FA8076E309F20870FA806E88828C8357
:1016DC00E309F0A370FA806289828A83E0A3F6089A
:1016EC0070FA805689828A83E0A3F20870FA804AE5
:1016FC0080D280FA80C680D4806580F280318010E0
:10170C0080A680EA809A80A880DA80E280CA803144
:10171C0089828A83ECFAE493A3C8C582C8CCC583BA
:10172C00CCF0A3C8C582C8CCC583CC70E9800D8928
:10173C00828A83E493A3F60870F9ECFAA9F0EDFB26
:10174C002289828A83ECFAE0A3C8C582C8CCC583FF
:10175C00CCF0A3C8C582C8CCC583CC70EA80DD8927
:10176C00828A83E493A3F20870F980CE88F0ED248A
:10177C0002B4040050C4F582EB2402B4040050BA45
:09178C0023234582239016FC730F
:102BB00090000DEBF0A3EAF0A3E9F0E4900015F02B
:102BC000A3F090001374FFF5F01217D345F0603CAA
:102BD000900010E0FBA3E0FAA3E0F912139DFF9030
:102BE000000DE0FBA3E0FAA3E0F9900015E475F016
:102BF000011217D385F082F583EF121416EF60C22D
:102C0000900011E475F00112143880B690000DE0C8
:082C1000FBA3E0FAA3E0F922A6
:10362F00E4FFFE12139D600C0FEF70010E09E9709D
:05363F00F20A80EF22F9
:10179500EF4E6012EF60010EEDBB010B89828A836B
:1017A500F0A3DFFCDEFA2289F05007F709DFFCA978
:0C17B500F022BBFEFCF309DFFCA9F022CF
:1017C100BB010689828A83F0225002F722BBFE0107
:0217D100F32201
:1017D300A3F8E0C5F025F0F0E582158270021583C9
:0617E300E0C838F0E82226
:0917E900E6FB08E6FA08E6F92225
:0917F200E0FBA3E0FAA3E0F922F8
:1017FB00F8E0FBA3A3E0F925F0F0E5821582700277
:07180B001583E0FA38F0221A
:09181200EBF0A3EAF0A3E9F022D7
:09181B00E2FB08E2FA08E2F922FE
:0C182400E493FB740193FA740293F92220
:00000001FF
