:102B9D005000560000000000000000000000000082
:0B2BAD000000004100540041005500F2
:03005B000230C3AD
:1030C300C0E0C0D075D000C000C001C005C006C0BC
:1030D30007C2EFAFC37816E6FD25E02417F87600A4
:1030E30008A607ED25E02417F8C000F9E7FE09E775
:1030F3007802C333CE33CED8F9D000A60608F6ED56
:1031030025E02417F8AFC2E6F6EF0846F6D007D05D
:0C31130006D005D001D000D0D0D0E032B2
:102DA5007F021222B212379D12362D123876123B4F
:102DB5005890009AE06005E4F01236E290009CE03D
:0D2DC5006005E4F01237B890009EE0602039
:102DD200E4900001F090009EF01229AC123356905C
:102DE2000054E004F0E0C394054002E4F0122C2405
:062DF2009000A1E0600862
:082DF800E4F0900055E004F046
:102E0000123765900000EFF060ACE0FF1218AC8064
:012E1000A51C
:0518AC00900002EFF0C6
:1018B100E4A3F0A3F0900003F0FE7F10FDFB7A009B
:1018C100799D121811900002E024FDB41800400324
:1018D100021DE59018E275F003A4C58325F0C583C8
:1018E1007302192D021983021DE50219D9021A2F5B
:1018F100021DE5021A85021ADB021DE5021B3102F7
:101901001B87021DE5021BDD021C33021DE5021DC2
:10191100E5021C93021DE5021CE9021DE5021D3FC3
:10192100021DE5021DE5021D92021DE5900003E086
:10193100FF04F0749D2FF876F2E0FF04F0749D2F00
:10194100F87601E0FF04F0749D2FF87601E4A3F02E
:10195100789EE62401FFE433FE900004E0FDC39F7E
:10196100EE6480F87480984003021DE5749E2DF8A2
:10197100E6FF900003E0249DF8EF26F6A3E004F0D3
:1019810080CE900003E0FF04F0749D2FF876F2E022
:10199100FF04F0749D2FF87601E0FF04F0749D2F91
:1019A100F87606E4A3F0789EE62401FFE433FE9086
:1019B1000004E0FDC39FEE6480F874809840030248
:1019C1001DE5749E2DF8E6FF900003E0249DF8EFDD
:1019D10026F6A3E004F080CE900003E0FF04F0744B
:1019E1009D2FF876F2E0FF04F0749D2FF87601E068
:1019F100FF04F0749D2FF87607E4A3F0789EE624A7
:101A010001FFE433FE900004E0FDC39FEE6480F823
:101A11007480984003021DE5749E2DF8E6FF900046
:101A210003E0249DF8EF26F6A3E004F080CE9000B9
:101A310003E0FF04F0749D2FF876F2E0FF04F074E8
:101A41009D2FF87601E0FF04F0749D2FF87603E4F2
:101A5100A3F0789EE62401FFE433FE900004E0FD4C
:101A6100C39FEE6480F87480984003021DE5749E64
:101A71002DF8E6FF900003E0249DF8EF26F6A3E0A1
:101A810004F080CE900003E0FF04F0749D2FF876FF
:101A9100F2E0FF04F0749D2FF87601E0FF04F0748A
:101AA1009D2FF87603E4A3F0789EE62401FFE4334A
:101AB100FE900004E0FDC39FEE6480F874809840BE
:101AC10003021DE5749E2DF8E6FF900003E0249DBE
:101AD100F8EF26F6A3E004F080CE900003E0FF04C7
:101AE100F0749D2FF876F2E0FF04F0749D2FF876E4
:101AF10001E0FF04F0749D2FF87602E4A3F0789ED4
:101B0100E62401FFE433FE900004E0FDC39FEE6490
:101B110080F87480984003021DE5749E2DF8E6FF5D
:101B2100900003E0249DF8EF26F6A3E004F080CEB8
:101B3100900003E0FF04F0749D2FF876F2E0FF04BB
:101B4100F0749D2FF87601E0FF04F0749D2FF87674
:101B510002E4A3F0789EE62401FFE433FE90000442
:101B6100E0FDC39FEE6480F87480984003021DE598
:101B7100749E2DF8E6FF900003E0249DF8EF26F611
:101B8100A3E004F080CE900003E0FF04F0749D2FE9
:101B9100F876F2E0FF04F0749D2FF87601E0FF047F
:101BA100F0749D2FF87604E4A3F0789EE62401FFFB
:101BB100E433FE900004E0FDC39FEE6480F874807E
:101BC100984003021DE5749E2DF8E6FF900003E0A6
:101BD100249DF8EF26F6A3E004F080CE900003E008
:101BE100FF04F0749D2FF876F2E0FF04F0749D2F4E
:101BF100F87601E0FF04F0749D2FF87604E4A3F079
:101C0100789EE62401FFE433FE900004E0FDC39FCB
:101C1100EE6480F87480984003021DE5749E2DF8EF
:101C2100E6FF900003E0249DF8EF26F6A3E004F020
:101C310080CE900003E0FF04F0749D2FF876F2E06F
:101C4100FF04F0749D2FF87602E0FF04F0749D2FDD
:101C5100F87609E0FF04F0749D2FF87603E4A3F011
:101C6100789EE62401FFE433FE900004E0FDC39F6B
:101C7100EE6480F87480984003021DE5749E2DF88F
:101C8100E6FF900003E0249DF8EF26F6A3E004F0C0
:101C910080CE900003E0FF04F0749D2FF876F2E00F
:101CA100FF04F0749D2FF87601E0FF04F0749D2F7E
:101CB100F87605E4A3F0789EE62401FFE433FE9074
:101CC1000004E0FDC39FEE6480F874809840030235
:101CD1001DE5749E2DF8E6FF900003E0249DF8EFCA
:101CE10026F6A3E004F080CE900003E0FF04F07438
:101CF1009D2FF876F2E0FF04F0749D2FF87601E055
:101D0100FF04F0749D2FF87605E4A3F0789EE62495
:101D110001FFE433FE900004E0FDC39FEE6480F810
:101D21007480984003021DE5749E2DF8E6FF900033
:101D310003E0249DF8EF26F6A3E004F080CE9000A6
:101D410003E0FF04F0749D2FF876F2E0FF04F074D5
:101D51009D2FF87601E0FF04F0749D2FF87608E4DA
:101D6100A3F0789EE62401FFE433FE900004E0FD39
:101D7100C39FEE6480F87480985069749E2DF8E6D4
:101D8100FF900003E0249DF8EF26F6A3E004F08025
:101D9100D1900003E0FF04F0749D2FF876F2E0FF8C
:101DA10004F0749D2FF87601E0FF04F0749D2FF884
:101DB10076B9E4A3F0789EE62401FFE433FE9000B7
:101DC10004E0FDC39FEE6480F87480985016749E01
:101DD1002DF8E6FF900003E0249DF8EF26F6A3E03E
:101DE10004F080D1900003E0600D04F07B007A00E4
:071DF100799DE0FD12327F35
:011DF80022C8
:033B5800023B002D
:013B6A002238
:013B6B002237
:013B6C002236
:0C3A0500900072EBF0A3EAF0A3E9F022BD
:0C3A1100900075EBF0A3EAF0A3E9F022AE
:1038FB00900072A3E0FAA3E0F94A60031216F122DA
:10390B00900075A3E0FAA3E0F94A60031216F122C6
:1034AF00EF4E602D900068EEF0A3EFF0AF05A3ECA8
:1034BF00F0A3EFF0AF03A3EAF0A3EFF0E4A3F0A3C0
:1034CF00F0A3F0A3F0900067F090006604F01238BC
:0234DF00FB22CE
:10386200E4900066F012390B7B007A007900123A7C
:0438720005023A1100
:0A005100900066E06002D322C32293
:1029AC00900066E07003022A6090006AE0FEA3E0EB
:1029BC00FF4E7003022A60900067E07035D3EF94ED
:1029CC0000EE94005003022A6090006EE475F00152
:1029DC001214B4FED3900069E095F0900068E09E6C
:1029EC00507212390BE490006EF0A3F09000670463
:1029FC00F022900067E06401705A90006E75F0014F
:102A0C001214B4FED390006BE095F090006AE09E37
:102A1C00504290006CE0FEA3E0FF9400EE94004066
:102A2C0025900070E475F0011214B4FCD3EF95F00E
:102A3C00EE9C5005E4900066F0900066E070079004
:102A4C00006AF0A3F022E490006EF0A3F09000670F
:052A5C00F01238FB221E
:102637002042415A4F4F4B410020505752204F469E
:102647004600414343204F4E00414343204F4646F7
:102657000020564F4C2025750020202020202020C8
:102667002000202020504155534500202020205095
:102677004C4159005343414E4E494E4700202020BC
:102687004D55544520002020204E45585420002009
:1026970020205052455620002020202053542575D5
:1026A700005452202575002050414952494E470099
:1026B7002020504149524544005457532053434129
:1026C7004E002020545753204F4B0020202020201D
:1026D70025752530327500202020202575253032BC
:1026E7007500464D202575257500464D202025751A
:1026F700257500464D202020257525750050524927
:102707005245440050414952494E4700504C4159A7
:10271700004D555445000000000000000000000077
:06272700000000000000AC
:102BB80001AD0010AE0000000000000000000000A1
:102BC8000000000000109D00000000000000000050
:102BD8000000000000000050008900000000000014
:0A2BE80000000000000000000000E3
:10362D00E478ADF6FE7F10FDFB7A0079AE1218112D
:10363D007E007F107D007B007A00799D121811129B
:05364D0023F70236071F
:10327F00900005EBF0A3EAF0A3E9F0A3EDF0D394EF
:10328F0010503D1239C078AD7601900005E0FBA3D8
:10329F00E0FAA3E0F990009DEB7008E965827003F6
:1032AF00EA6583601B900008E0FF7E00789D7C003C
:1032BF007D00900005E0FBA3E0FAA3E0F91213F301
:0132CF0022DC
:103821007810E67BFF30E1067A26793780047A2624
:063831007940122A612219
:103837007810E67BFF30E0067A26794980047A26FD
:063847007950122A6122F3
:10000E0078097C007D017BFF7A27791D7E007F10A9
:10001E001213F3123B07123B1590001C74FFF0A352
:10002E007426F0A37458F07811E6FFA3E4F0A3EF62
:10003E00F07B017A007909121E5E7B017A00790944
:03004E00022A6122
:0F391B007BFF7A267960122A61123B07023B1567
:093A3E007BFF7A267969022A61F6
:093A47007BFF7A267972022A61E4
:1038D7007BFF7A26797B122A61123B07123B15027E
:0238E7003AEBBA
:093A50007BFF7A267984022A61C9
:093A59007BFF7A267972022A61D2
:0F392A007BFF7A267969122A61123B07023B154F
:0F3939007BFF7A26798D122A61123B07023B151C
:0F3948007BFF7A267996122A61123B07023B1504
:1034490090001C74FFF0A37426F0A3749FF0781306
:10345900E6FFA3E4F0A3EFF07B017A007989121E5D
:103469005E7B017A007989122A61123AEB123B07D5
:03347900023B1CF7
:1034E10090001C74FFF0A37426F0A374A8F0781464
:1034F100E6FF08E6A3CFF0A3EFF07B017A0079891C
:10350100121E5E7B017A007989122A61123B070241
:023511003B1568
:0F3957007B017A007989122A61123B07023B1526
:0F3966007BFF7A267960122A61123B07023B151C
:0B005E00900003EBF0A3EAF0A3E9F030
:10006900E4A3F0A3F0A3F012141964F86003020AE0
:1000790028900003E0FBA3E0FAA3E0F99000011245
:100089001432D394104003020A28E4900006F09039
:100099000003E0FBA3E0FAA3E0F990000112143297
:1000A9002401FFE433FE900006E0FDC39FEE648067
:1000B900F8748098501DED2401FFE433FE8F828E81
:1000C90083121432FF900008E02FF0900006E0043C
:1000D900F080BC900003E0FBA3E0FAA3E0F99000F4
:1000E90001121432F582758300A3A3121432FF9012
:1000F9000008E06F6003020A287E007F107D007B04
:10010900007A00799D121811E4900007F09000031D
:10011900E0FBA3E0FAA3E0F99000021214321216F0
:10012900CB070201087C0208D30307810901583172
:1001390001CF3201E33302FE3404C735057C3606AC
:10014900143706CD38092E4107C6B900000A201216
:100159003862123B15123B07123AEB123AB3123AC4
:10016900DD123ACF123AC1900003E0FBA3E0FAA3F3
:10017900E0F99000031214326401700F7810E6441C
:1001890002F67BFF7A3879210207AD900003E0FB84
:10019900A3E0FAA3E0F990000312143264026003A9
:1001A900020A207810E654FDF67BFF7A387921128D
:1001B9003A057B007A007900123A11E4FBFA7D01D5
:1001C900FC7F14020858900003E0FBA3E0FAA3E0C7
:1001D900F9900003121432020A20900003E0FBA3F5
:1001E900E0FAA3E0F990000312143224FE7003022E
:1001F90002B5046003020A207812E664016007125E
:10020900386278127601123AEB123AB3123ADD12D9
:100219003ACF123AC8900003E0FBA3E0FAA3E0F951
:10022900900004121432B4010F90001C74FFF0A363
:100239007426F0A374AE8067900003E0FBA3E0FA94
:10024900A3E0F9900004121432B4020F90001C7458
:10025900FFF0A37426F0A374B78044900003E0FB79
:10026900A3E0FAA3E0F9900004121432B4030F904A
:10027900001C74FFF0A37426F0A374C080219000C1
:1002890003E0FBA3E0FAA3E0F9900004121432B4EE
:10029900041790001C74FFF0A37426F0A374C9F02E
:1002A9007B017A007989121E5E0209A7123862124F
:1002B90039EB90001C74FFF0A37426F0A374D2F0FC
:1002C900900003E0FBA3E0FAA3E0F9900003121405
:1002D90032FF90001FE4F0A3EFF0900004121432F3
:1002E900FF900021E4F0A3EFF07B017A00798912F5
:1002F9001E5E020A20900003E0FBA3E0FAA3E0F9E6
:1003090090000312143224FE605A1470030204236D
:100319001470030203A71470030204722404600317
:10032900020A20900004121432B401030204379027
:100339000003E0FBA3E0FAA3E0F9900004121432F1
:1003490064026003020A207BFF7A3A793E123A0579
:100359007BFF7A39791B123A11E4FBFA7D06FC7F9F
:1003690006020858900003E0FBA3E0FAA3E0F99025
:1003790000041214326402700F90001C74FFF0A381
:100389007426F0A3747B8050900003E0FBA3E0FA8D
:10039900A3E0F99000041214326401020A20123B0E
:1003A90015123B07123AEB123AB3123ADD123ACF61
:1003B900123AC1123AD6900003E0FBA3E0FAA3E097
:1003C900F99000041214326401701A90001C74FF31
:1003D900F0A37426F0A37472F07B017A0079891274
:1003E9001E5E0209A7900003E0FBA3E0FAA3E0F96F
:1003F90090000412143264026003020A207BFF7A1F
:100409003A7950123A057BFF7A39791B123A11E48D
:10041900FBFA7D07FC7F07020858900003E0FBA365
:10042900E0FAA3E0F9900004121432B4010612387C
:1004390062020A20900003E0FBA3E0FAA3E0F9902E
:10044900000412143264026003020A207BFF7A3925
:10045900792A123A057BFF7A39791B123A11E4FBA2
:10046900FA7D0AFC7F0A020858900003E0FBA3E02A
:10047900FAA3E0F990000412143264017031E924FE
:1004890005F9E43AFA78897C007D017E007F08123B
:1004990013F37BFF7A397957123A057BFF7A397959
:1004A90066123A11E4FBFA7D06FC7F0602085890B1
:1004B9000003E0FBA3E0FAA3E0240502075490003F
:1004C90003E0FBA3E0FAA3E0F9900003121432243D
:1004D900FE604414606124FE700302056D2404600B
:1004E90003020A20900004121432B401097BFF7A36
:1004F9003979480206E9900003E0FBA3E0FAA3E09A
:10050900F990000412143264026003020A207BFF8E
:100519007A3979390206E9123862900003E0FBA3BF
:10052900E0FAA3E0F99000051214327813F67BFF84
:100539007A3479490206E9900003E0FBA3E0FAA3C3
:10054900E0F99000061214327814760008F690004B
:1005590005121432781446F608E6F67BFF7A3479E8
:10056900E10206E9900003E0FBA3E0FAA3E024041A
:100579000208687812E66403600712386278127616
:1005890003123AEB123AB3123AC1123ACF123AE4D1
:10059900900003E0FBA3E0FAA3E0F9900003121432
:1005A90032FFD3940990001C74FF400BF0A374260A
:1005B900F0A374DEF0801BF0A37426F0A374D2F0CC
:1005C900900003E0FBA3E0FAA3E0F9900003121402
:1005D90032FF90001FE4F0A3EFF0900004121432F0
:1005E900FF900021E4F0A3EFF07B017A00798912F2
:1005F9001E5E7B017A00798912384DAD077B017A3D
:1006090000798990000D74030209BC7812E664022E
:10061900600712386278127602123ADD123ABA127B
:100629003AF2900003E0FBA3E0FAA3E0F99000039B
:10063900121432FFD39463401090001C74FFF0A38E
:100649007426F0A374E9F08042900003E0FBA3E074
:10065900FAA3E0F9900003121432FFD39409900031
:100669001C74FF400BF0A37426F0A374F1F0801BF7
:10067900F0A37426F0A374FAF0900003E0FBA3E062
:10068900FAA3E0F9900003121432FF90001FE4F07E
:10069900A3EFF0900004121432FF900021E4F0A3BC
:1006A900EFF07B017A007989121E5E7B017A00796D
:1006B9008912384DAD077B017A00798990000D7454
:1006C900010209BC900003E0FBA3E0FAA3E0F99062
:1006D9000003121432547F7811F67BFF7A00790EE9
:1006E900123A057B007A007900123A117B017A00EF
:1006F9007D017C007F1E0208CF900003E0FBA3E090
:10070900FAA3E0F990000312143264017031E9246C
:1007190004F9E43AFA78897C007D017E007F0812A9
:1007290013F37BFF7A397957123A057BFF7A3979C6
:1007390066123A11E4FBFA7D06FC7F06020858901E
:100749000003E0FBA3E0FAA3E02404F9E43AFAE4A5
:1007590090000DF07D0812322C7BFF7A39795712FF
:100769003A057B007A007900123A117B017A007D03
:10077900017C007F010208CF123B15123B07900054
:1007890003E0FBA3E0FAA3E0F99000031214327826
:1007990010B40106E64401F68004E654FEF67BFF38
:1007A9007A387937123A057B007A007900123A11C2
:1007B9007B017A007D017C007F140208CF90000341
:1007C900E0FBA3E0FAA3E0F99000031214326401FC
:1007D9006003020876123AAC900003E0FBA3E0FA4A
:1007E900A3E0F990000412143264017066E924054B
:1007F900F9E43AFA78897C007D017E007F081213BA
:10080900F3E4900006F0900006E0FFC39410502531
:1008190074892FF582E43400F583E07010900006A6
:10082900E02489F582E43400F5837420F090000611
:10083900E004F080D17BFF7A397957123A057BFFC2
:100849007A397966123A11E4FBFA7D05FC7F05FED7
:10085900020928900003E0FBA3E0FAA3E02405F9CC
:10086900E43AFAE490000DF07D08020A1D123AA557
:10087900020A20900003E0FBA3E0FAA3E02403F9B5
:10088900E43AFA78897C007D017E007F081213F32F
:10089900900003E0FBA3E0FAA3E02403F9E43AFAA9
:1008A900E490000DF07D0812322C7BFF7A397957DC
:1008B900123A057B007A007900123A117B017A001D
:1008C9007D017C007F017E008055900003E0FBA341
:1008D900E0FAA3E02403F9E43AFA78897C007D017F
:1008E9007E007F081213F3900003E0FBA3E0FAA354
:1008F900E02403F9E43AFAE490000DF07D0812329D
:100909002C7BFF7A397957123A057B007A007900F6
:10091900123A117B017A007D017C007F017E001271
:1009290034AF020A20123AEB123B07123B15123A76
:10093900C1123AB3123ACF123ADD900003E0FBA399
:10094900E0FAA3E0F990000312143224FC60672452
:10095900036003020A20123AC8900003E0FBA3E0F7
:10096900FAA3E0F9900004121432B4010E78897CDC
:10097900007D017BFF7A2779048020900003E0FB4A
:10098900A3E0FAA3E0F9900004121432B4020F783C
:10099900897C007D017BFF7A27790B1217F47B0193
:1009A9007A00798912384DAD077B017A007989E49B
:1009B90090000DF0805E123AD6900003E0FBA3E0B0
:1009C900FAA3E0F9900004121432B4010E78897C7C
:1009D900007D017BFF7A2779138020900003E0FBDB
:1009E900A3E0FAA3E0F9900004121432B4020F78DC
:1009F900897C007D017BFF7A2779181217F47B0126
:100A09007A00798912384DAD077B017A007989E43A
:0F0A190090000DF012322C900007E0600204F004
:010A280022AB
:102C2400E4900002F078ADE66063123A34EF24F0E9
:102C3400603924D0603324207037123A1D123B23AC
:102C4400E478ADF6900002F00000900002E004F099
:102C5400E0B464F4123607E4900002F0000090003F
:102C640002E004F0E0B464F4228000123A1D023B56
:102C740023E4900002F00000900002E004F0E0B4CD
:102C840082F47B007A00799D7D100233137B007AF5
:102C94000079AE7D10123567EF60097B007A007908
:042CA400AE12005E0E
:012CA8002209
:093A620020505752204F46460047
:102BF200500079000000000000000000000000000A
:072C02000000004100780012
:10387600E4900078F078797C007D017BFF7A3A79D4
:04388600620217F4CF
:10322C00900009EBF0A3EAF0A3E9F0A3EDF0900015
:10323C0009E0F9A3E0FAA3E0900011C9F0A3EAF0C9
:10324C00A3E9F0EDFFA3E4F0A3EFF07B017A0079A2
:10325C0079122E1190000CE0FFC39410500C74796D
:10326C002FF582E43400F583E4F090000DE090003B
:03327C0078F022C5
:10335600120051403B7B017A007979122A61900074
:1033660078E07006123B15023B07900078E0B40146
:1033760005123B078017900078E0B40206123B0E58
:10338600023B15900078E0B40306123B0E123B1C7C
:013396002214
:10379D0012372612341312347C123B36123A74123D
:0B37AD0036BF12389E123A7DD2AF22C8
:0A2C09004200A900004200A70000ED
:093A6B003082037F00227F01225A
:092E79007817E6FC08E6FD7F1263
:102E8200EF2407FBE43EFAD3EB94FFEA94034006F7
:102E92007A037BFF8007EF2407FBE43EFA9000A948
:102EA200EAF0A3EBF0C3EF9407EE940050067E0025
:102EB2007F008008EF24F9FFEE34FFFE9000A7EEBA
:102EC200F0A3EFF0C3ED9FEC9E40109000AAE09DAE
:0E2ED2009000A9E09C40047F0180027F002256
:0F3975007817E6FC08E6FD7F077E03122E8222FC
:063B2A007E02122E79223A
:063B30007E01122E792235
:0E39CF007817E6FC08E6FDE4FFFE122E8222C9
:0F3984007819E6FC08E6FD7F387E03122E8222BA
:0F3993007819E6FC08E6FD7F747E02122E822270
:0F39A2007819E6FC08E6FD7FB07E01122E822226
:0F39B1007819E6FC08E6FD7FE07E00122E8222E8
:1038E900123A6BEF6009123984EF60037F01227F7E
:0238F9000022AB
:063B36001228F4023A9E81
:10388A00789BE62490F8A607789B06E6C3940A403C
:04389A0002E4F6222C
:10376500789AE6FE08667002FF2274902EF8E6FF4E
:0B377500789A06E6C3940A4002E4F6CE
:013780002226
:10378100789CE6FE18667002FF2274902EF8E6FF20
:0B379100789C06E6C3940A4002E4F6B0
:01379C00220A
:0B3A2900EF75F00BA4242AF8E6FF2242
:10367700EF75F00BA42428F8A60408A605AE03EFFF
:1036870075F00BA4242BF8A606EF75F00BA4242CD9
:04369700F8E4F6223B
:063B3C00789BE618F6225A
:073A9E0043B10453B2FB2207
:1028F400E4789AF608F608F6FFEF75F00BA424289E
:10290400F876000876C8EF75F00BA42425F8760253
:10291400EF75F00BA4242AF8E4F6EF75F00BA42469
:102924002BF8E4F6EF75F00BA4242CF8E4F60FEF83
:10293400B40AC678417628784C7628785776287871
:102944006D7628782276FF08763A08766B782D76AD
:10295400FF087639087675783876FF08763B08766E
:102964002A784376FF08763B087630784E76FF085F
:1029740076390876CF785976FF08763908768478E0
:102984006476FF087639087693786F76FF0876398F
:102994000876A2787A76FF0876390876B178857653
:0729A400FF0876380876E910
:0129AB002209
:10215E00900003EFF0E075F00BA42422F9E4FAFBF3
:10216E009000A4F0A3F0A3E9F01216AB1216F1EF53
:10217E00700302224A9000A4E0FBA3E0FAA3E0F968
:10218E00900003121432FFC394055008900003749C
:10219E00050222AEEFC3940A5008900003740102A8
:1021AE00145F900008121432701490000804121478
:1021BE0092900003E075F003A404FF12388A900099
:1021CE00A4E0FBA3E0FAA3E0F99000061214CAFF04
:1021DE00AEF0D39400EE940050030222B1900004AE
:1021EE001214CAC39FE5F09E5023900004E475F0CC
:1021FE0001121502FCE5F06F7002EC6E6003022214
:10220E00B1900003E075F003A42403802B90000925
:10221E00121432FFD3940050030222B190000A74BC
:10222E000112145FC39F407B90000AE41214929037
:10223E000003E075F003A404FF02388A9000A4E0C6
:10224E00FBA3E0FAA3E0F9900003121432FFD3943B
:10225E0005400A9000037405121492802BEF600A59
:10226E0090000374FF12145F801E90000812143247
:10227E00B40115900008E4121492900003E075F07A
:10228E0003A42402FF12388A9000A4E0FBA3E0FA14
:10229E00A3E0F9900004E4F5F012154F90000AE463
:0422AE001214922252
:1037B800E4900002F0900002E0FFC3940A500B125C
:0A37C800215E900002E004F080EBA7
:0137D20022D4
:10341300E4F5B275B180F5B475B3FFF5B675B5FFD4
:10342300F5AD75AC0FF5DB75DAFFF5DD75DCFFF592
:10343300F975FA0475E5FF75E6FF75E7FF75EEFFAD
:0634430043F9800239EBA1
:0C39EB00E4FF8FFBE4F5FC0FEFB420F6C6
:0139F70022AD
:073AA50075FB1253FCF72230
:073AAC0075FB1243FC082228
:073AB30075FB0E53FCF72226
:073ABA0075FB0E43FC08221E
:073AC10075FB0B53FCF7221B
:073AC80075FB0B43FC082213
:073ACF0075FB0A53FCF7220E
:073AD60075FB0A43FC082206
:073ADD0075FB0353FCF72207
:073AE40075FB0343FC0822FF
:073AEB0075FB0253FCF722FA
:073AF20075FB0243FC0822F2
:073AF90075FB0F53FCF722DF
:073B000075FB0F43FC0822D6
:073B070075FB0753FCF722D8
:073B0E0075FB0743FC0822D0
:073B150075FB0653FCF722CB
:073B1C0075FB0643FC0822C3
:063B4200123B07023B15D7
:063B4800123B0E023B1CC3
:10272D00EFB40800400302281090273DF8282873C5
:10273D0002275502276D02278502279C0227B30227
:10274D0027CA0227E10227F875FB1F53FCF875FB1A
:10275D001E53FCF875FB1D53FCF075FB1C02280D78
:10276D0075FB1B53FCF875FB1A53FCF875FB1953DD
:10277D00FCF075FB1802280D75FB1753FCF875FB63
:10278D001653FCF875FB1553FCF075FB1480717531
:10279D00FB1353FCF875FB1253FCF875FB1153FC3E
:1027AD00F075FB10805A75FB0F53FCF875FB0E533B
:1027BD00FCF875FB0D53FCF075FB0C804375FB0BA2
:1027CD0053FCF875FB0A53FCF875FB0953FCF075C7
:1027DD00FB08802C75FB0753FCF875FB0653FCF8C2
:1027ED0075FB0553FCF075FB04801575FB0353FC5D
:1027FD00F875FB0253FCF875FB0153FCF0E4F5FB97
:04280D0053FCF02266
:0C39F800E4FEAF0612272D0EEEB408F618
:013A0400229F
:100A2900EFD394074003021322ED64536004EDB43D
:100A390073047D35801EEDB467047D398016EDB4ED
:100A49006C047D4C800EEDB470047D508006EDB4CD
:100A590078027D58ED1216CB0C12200B10300B3A90
:100A6900310B5E320B73330B88340B9D350BB23669
:100A79000BC4370BEB380BFD390C15410C27420C15
:100A89004E430C6F440C96450CB4460CDB470CFCEA
:100A9900480D20490D474A0D6E4B0D924C0DB94D2D
:100AA9000DE34E0E0D4F0E37500E5E510E88520E4D
:100AB900B6540EDD550F04560F32570F59580F779C
:100AC900590F9E5A0FC8610FF262101663103D64E8
:100AD90010646510926610B96810DD6911016A1118
:100AE9002C6B11576D117D6E11A36F11D17112020B
:100AF9007212257412507512767612A17712CF7977
:100B090012F57A00001322EF25E025E0FEC3741FD9
:100B19009EF5FB43FC0553FCFDC3741E9EF5FB4388
:100B2900FC0553FCFDC3741D9EF5FB75FC09021100
:100B390022EF25E025E0FEC3741F9EF5FB53FCF868
:100B4900C3741E9EF5FB53FCF8C3741D9EF5FB751B
:100B5900FC01021122EF25E025E0FEC3741F9EF57A
:100B6900FB43FC0653FCFE021073EF25E025E0FE73
:100B7900C3741F9EF5FB43FC0253FCFA020FDAEF24
:100B890025E025E0FEC3741F9EF5FB43FC0353FCDF
:100B9900FB020D0BEF25E025E0FEC3741F9EF5FB5C
:100BA90043FC0353FCFB020CEDEF25E025E0FEC3FB
:100BB900741F9EF5FB43FC07020CEDEF25E025E0D1
:100BC900FEC3741F9EF5FB53FCF8C3741E9EF5FB10
:100BD90043FC0153FCF9C3741D9EF5FBE4F5FC02CB
:100BE9001122EF25E025E0FEC3741F9EF5FB43FCAF
:100BF90007020FDAEF25E025E0FEC3741F9EF5FB1F
:100C090043FC0353FCFB020FDA02272DEF25E025F5
:100C1900E0FEC3741F9EF5FB43FC070211E3EF25B9
:100C2900E025E0FEC3741F9EF5FB53FCF8C3741E58
:100C39009EF5FB43FC0153FCF9C3741D9EF5FB753E
:100C4900FC0E0211F8EF25E025E0FEC3741F9EF5A6
:100C5900FB43FC0553FCFDC3741E9EF5FB43FC01DD
:100C690053FCF9020DADEF25E025E0FEC3741F9E8C
:100C7900F5FB53FCF8C3741E9EF5FB43FC0153FCC2
:100C8900F9C3741D9EF5FB75FC0E021122EF25E0D8
:100C990025E0FEC3741F9EF5FB43FC07C3741E9E2B
:100CA900F5FB43FC0153FCF9021031EF25E025E087
:100CB900FEC3741F9EF5FB43FC07C3741E9EF5FB20
:100CC90043FC0153FCF9C3741D9EF5FBE4F5FC02DA
:100CD9001246EF25E025E0FEC3741F9EF5FB43FC99
:100CE9000553FCFDC3741E9EF5FB43FC0153FCF93F
:100CF90002100AEF25E025E0FEC3741F9EF5FB43B1
:100D0900FC07C3741E9EF5FB53FCF8C3741D9EF5C6
:100D1900FBE4F5FC0211F8EF25E025E0FEC3741FA2
:100D29009EF5FB53FCF8C3741E9EF5FB43FC01536F
:100D3900FCF9C3741D9EF5FB75FC0E021319EF2512
:100D4900E025E0FEC3741F9EF5FB43FC0453FCFC45
:100D5900C3741E9EF5FB53FCF8C3741D9EF5FB7509
:100D6900FC08021122EF25E025E0FEC3741F9EF561
:100D7900FB43FC07C3741E9EF5FB53FCF8C3741DAB
:100D89009EF5FB75FC010211C7EF25E025E0FEC3C6
:100D9900741F9EF5FB43FC0553FCFDC3741E9EF5B1
:100DA900FB53FCF8C3741D9EF5FB75FC080213196F
:100DB900EF25E025E0FEC3741F9EF5FB43FC0553B8
:100DC900FCFDC3741E9EF5FB43FC0253FCFAC3747D
:100DD9001D9EF5FB75FC05021122EF25E025E0FEBD
:100DE900C3741F9EF5FB43FC0553FCFDC3741E9E93
:100DF900F5FB43FC0153FCF9C3741D9EF5FBE4F5B7
:100E0900FC021122EF25E025E0FEC3741F9EF5FBCD
:100E190043FC0553FCFDC3741E9EF5FB43FC0153C3
:100E2900FCF9C3741D9EF5FB75FC08021122EF2520
:100E3900E025E0FEC3741F9EF5FB43FC07C3741E47
:100E49009EF5FB43FC0153FCF9C3741D9EF5FBE4BD
:100E5900F5FC021088EF25E025E0FEC3741F9EF51E
:100E6900FB43FC0553FCFDC3741E9EF5FB43FC01CB
:100E790053FCF9C3741D9EF5FB75FC08020F28EF9E
:100E890025E025E0FEC3741F9EF5FB43FC07C374F0
:100E99001E9EF5FB43FC0153FCF9C3741D9EF5FB33
:100EA900E4F5FCC3741C9EF5FB75FC0722EF25E0F5
:100EB90025E0FEC3741F9EF5FB53FCF8C3741E9E08
:100EC900F5FB43FC0153FCF9C3741D9EF5FB75FC4E
:100ED90006021319EF25E025E0FEC3741F9EF5FBFA
:100EE90043FC0553FCFDC3741E9EF5FB53FCF8C37C
:100EF900741D9EF5FB75FC08021122EF25E025E023
:100F0900FEC3741F9EF5FB53FCF8C3741E9EF5FBCC
:100F190043FC0253FCFAC3741D9EF5FBE4F5FCC3C4
:100F2900741C9EF5FB75FC0D22EF25E025E0FEC340
:100F3900741F9EF5FB43FC0553FCFDC3741E9EF50F
:100F4900FB53FCF8C3741D9EF5FB75FC0E021122C0
:100F5900EF25E025E0FEC3741F9EF5FB53FCF8C3A3
:100F6900741E9EF5FB43FC0653FCFE021144EF255B
:100F7900E025E0FEC3741F9EF5FB43FC0353FCFB15
:100F8900C3741E9EF5FB53FCF8C3741D9EF5FB75D7
:100F9900FC080211F8EF25E025E0FEC3741F9EF559
:100FA900FB43FC0253FCFAC3741E9EF5FB43FC058C
:100FB90053FCFDC3741D9EF5FB75FC09021246EF37
:100FC90025E025E0FEC3741F9EF5FB43FC0653FC98
:100FD900FEC3741E9EF5FB43FC0153FCF9C3741D4B
:100FE9009EF5FB75FC080211F8EF25E025E0FEC32C
:100FF900741F9EF5FB43FC07C3741E9EF5FB53FC4F
:10100900F8C3741D9EF5FB75FC080211C7EF25E0B6
:1010190025E0FEC3741F9EF5FB43FC0653FCFEC38B
:10102900741E9EF5FB53FCF8C3741D9EF5FB75FCFD
:1010390008021246EF25E025E0FEC3741F9EF5FB6A
:1010490043FC0653FCFEC3741E9EF5FB53FCF8C318
:10105900741D9EF5FB75FC080211F8EF25E025E0EB
:10106900FEC3741F9EF5FB43FC07C3741E9EF5FB6C
:1010790043FC0153FCF9C3741D9EF5FB75FC08C3C1
:10108900741C9EF5FB75FC0322EF25E025E0FEC3E9
:10109900741F9EF5FB43FC07C3741E9EF5FB43FCBE
:1010A9000153FCF9C3741D9EF5FBE4F5FC02131909
:1010B900EF25E025E0FEC3741F9EF5FB43FC07C343
:1010C900741E9EF5FB53FCF8C3741D9EF5FBE4F5F5
:1010D900FC0211C7EF25E025E0FEC3741F9EF5FB56
:1010E90053FCF8C3741E9EF5FB53FCF8C3741D9E94
:1010F900F5FB75FC06021319EF25E025E0FEC37424
:101109001F9EF5FB53FCF8C3741E9EF5FB53FCF8B8
:10111900C3741D9EF5FB75FC08C3741C9EF5FB7515
:10112900FC0922EF25E025E0FEC3741F9EF5FB4371
:10113900FC07C3741E9EF5FB53FCF8C3741D9EF592
:10114900FB75FC01C3741C9EF5FB75FC0422EF259D
:10115900E025E0FEC3741F9EF5FB43FC0653FCFE2D
:10116900C3741E9EF5FB53FCF8C3741D9EF5FB75F5
:10117900FC04804AEF25E025E0FEC3741F9EF5FBC1
:1011890043FC0653FCFEC3741E9EF5FB53FCF8C3D7
:10119900741D9EF5FBE4F5FC8024EF25E025E0FEB7
:1011A900C3741F9EF5FB43FC0653FCFEC3741E9ECD
:1011B900F5FB53FCF8C3741D9EF5FB75FC08C3745D
:1011C9001C9EF5FB75FC0A22EF25E025E0FEC374A1
:1011D9001F9EF5FB43FC0353FCFBC3741E9EF5FBEA
:1011E90043FC0153FCF9C3741D9EF5FBE4F5FCC3F4
:1011F900741C9EF5FB75FC0B22EF25E025E0FEC370
:10120900741F9EF5FB53FCF8C3741E9EF5FB53FC3B
:10121900F8C3741D9EF5FB75FC048021EF25E025BC
:10122900E0FEC3741F9EF5FB43FC07C3741E9EF5C5
:10123900FB53FCF8C3741D9EF5FB75FC08C3741CB5
:101249009EF5FB75FC0222EF25E025E0FEC3741F25
:101259009EF5FB43FC0453FCFCC3741E9EF5FB5333
:10126900FCF8C3741D9EF5FB75FC08804FEF25E063
:1012790025E0FEC3741F9EF5FB53FCF8C3741E9E44
:10128900F5FB53FCF8C3741D9EF5FBE4F5FCC37430
:101299001C9EF5FB75FC0C22EF25E025E0FEC374CE
:1012A9001F9EF5FB43FC0453FCFCC3741E9EF5FB17
:1012B90053FCF8C3741D9EF5FB75FC0CC3741C9E8E
:1012C900F5FB75FC0822EF25E025E0FEC3741F9E9F
:1012D900F5FB53FCF8C3741E9EF5FB43FC0253FC5B
:1012E900FAC3741D9EF5FB75FC058024EF25E025E6
:1012F900E0FEC3741F9EF5FB53FCF8C3741E9EF5F4
:10130900FB43FC0553FCFDC3741D9EF5FB75FC09ED
:0A131900C3741C9EF5FBE4F5FC22F2
:0B2A6100900019EBF0A3EAF0A3E9F0ED
:102A6C00E4A3F0FFC200E94A7003022B02900019A4
:102A7C00E0FBA3E0FAA3E0F912384DEFC394084051
:102A8C002EE490001CF090001CE0FF900019E0FB7D
:102A9C00A3E0FAA3E0F98F82758300121432FD12C1
:102AAC000A2990001CE004F0E0C3940840D822E40A
:102ABC0090001CF090001CE0FFC3940850382000DC
:102ACC0023900019E0FBA3E0FAA3E0F98F82758351
:102ADC0000121432FD60028012D20090001CE0FF44
:102AEC007D20800790001CE0FF7D20120A299000B9
:062AFC001CE004F080BEA6
:012B020022B0
:082C13004100A2004100A300F2
:1036BF001235E15389F75389FB5389FD43890190F3
:1036CF0000A274FCF0A37466F0758CFCF58AD2A985
:0336DF00D28C2268
:1035E1009000997401F0E490009BF090009DF090A0
:1035F100009FF0A3F090009AF090009CF090009E44
:06360100F09000A1F02290
:03000B00022D2C97
:102D2C00C0E0C0F0C083C082C0D075D000C000C06D
:102D3C00069000A2E0F58CA3E0F58A900099E004DF
:102D4C00F0C394054005E4F0A304F090009BE0046C
:102D5C00F0C3940A4005E4F0A304F090009DE00455
:102D6C00F0C394644005E4F0A304F090009FE47574
:102D7C00F0011214B4FEC3E5F094E8EE9403400A9B
:102D8C0090009FE4F0A3F0A304F0D006D000D0D0C4
:092D9C00D082D083D0F0D0E032E7
:10347C00E47816F60876030876FF0876030876FFDC
:10348C0043E101F5E843B10153B2FE43F60143B108
:10349C000253B2FD43F60253E1BF43E12053E1EF87
:0334AC00D2AE227B
:1036E2007816E6600CE4F6C2EBC2EAC2E9C2E880F0
:1036F2000C78167601C2EBC2EAC2E9D2E8000000F9
:03370200D2EE22E2
:093A740053B1DF43B220023B5BB9
:033B5B00C28522FE
:033B5E00D28522EB
:033B6100B2852208
:093A7D0053B1BF43B240023B67A4
:033B6400C28622F4
:033B6700D28622E1
:10369B000A6D679C46F6375D4521EFAC5A50010B1E
:1036AB00DF020A6D679C46F6375D4521EFAC5A5039
:0436BB00E10BDF023E
:082C1B004500ABCCCCCCCCCCC5
:10389E0053B1EF43B21053ACEF43AD1053ACDF4313
:0338AE00AD202228
:013B6D002235
:10374600E4FEC284EF30E704D2838002C283EF2511
:0E375600E0FF00D28400000EEEB408E6C2844C
:013764002242
:0438B100E4FD7FFCB7
:0F38B500C2B400123746AF0512374600D2B42214
:0A32D0007B019000187405F07F3FA9
:0B32DA00900015EBF0A3EAF0A3E9F070
:1032E500C2B4E4FD123746900018E0FFEDC39F50CD
:1032F5001A900015E0FBA3E0FAA3E0F98D8275832F
:0D33050000121432FF1237460D80DCD2B4E6
:013312002298
:10365200E4FEC284EF30E704D2838002C283EF2506
:10366200E0FF00D28400000EEEB408E643B1085336
:04367200B2F7C28465
:013676002231
:1037D300E4FFFEC284EF25E0FF00D284308303447C
:0937E30001FF0EEEB408ECC284F3
:0137EC0022BA
:1038C400C2B4001236521237D353B1F743B20800D0
:0238D400D2B46C
:0138D60022CF
:0B339700900004EBF0A3EAF0A3E9F0C3
:1033A200C2B4123652E4FD900007E0FFEDC39F5015
:1033B2001A1237D3900004E0FBA3E0FAA3E0F98DE0
:1033C20082758300EF1214920D80DC53B1F743B281
:0333D20008D2B46A
:0133D50022D5
:0F39C0001238B17D8E7F201238B5000000002232
:10360700E4FEFD7FFC1238B57D8F7F201238B5E4CC
:10361700FD7FFD1238B5E4FEFF000FBF00010EBEAF
:0536270007F7BFD0F41D
:01362C00227B
:0A3A34007F071238C4EF5470FF2220
:063B4E007F091238C422B9
:073B23007D707F270238B519
:0C3A1D00E4FD7FE11238B57FE20238B50D
:0E39DD00AC071238B1AF04AD077F250238B534
:06331300123A34EF703C99
:10331900900003F0A3F0900018EDF07FA01232DACC
:10332900E4FD7FFD1238B5E4900003F0A3F00090AE
:103339000004E004F07006900003E004F09000033C
:0C334900E07004A3E064C870E51238B125
:013355002255
:10356700AC05123A34EF30E61D1238B1900007EC83
:10357700F07F61123397123A1D123B23E4FD7FFD62
:093587001238B57F01227F0022F9
:1023F70078027C007D017BFF7A36799B7E007F0522
:102407001213F378077C007D017BFF7A3679A07E73
:10241700007F031213F3780A7C007D017BFF7A3675
:1024270079A37E007F061213F378107C007D017B71
:10243700FF7A3679A97E007F011213F378117C00A9
:102447007D017BFF7A3679AA7E007F031213F31290
:102457003B6D7D5A7F531238B57DA57F531238B532
:102467007D207F3D1238B51238B17FE11238B57F34
:10247700E21238B57D707F271238B57D017F2212B1
:1024870038B57D037F231238B57D4E7F251238B5C9
:102497007D107F311238B57B017A0079AB90001837
:1024A7007405F07F301232DA7B017A0079AB900045
:1024B700187405F07F2A1232DA7A0079021232D0C4
:1024C7007B017A00790A9000187406F07F3A12327D
:1024D700DA7B017A0079109000187401F07F3912C5
:1024E70032DA7B017A0079079000187403F07F3E97
:1024F7001232DA7B017A0079119000187403F07FA9
:102507003B1232DAE4FD7F3C1238B57D3F7F26125D
:0E25170038B5E4FD7F241238B57F210238B5B7
:05281100900041EFF012
:10281600E478427C007D017BFF7A3679ADFE7F0548
:102826001213F378477C007D017BFF7A3679B27EFE
:10283600007F031213F3784A7C007D017BFF7A3612
:1028460079B57E007F061213F378507C007D017BFC
:10285600FF7A3679BB7E007F011213F378517C0034
:102866007D017BFF7A3679BC7E007F031213F37DF0
:102876005A7F531238B57DA57F531238B57D207F18
:102886003D1238B51238B1E4FF000000000FEFB476
:10289600DCF7900041E0FD7F251238B57D3F7F26AD
:1028A6001238B57A0079421232D07B017A00794A21
:1028B6009000187406F07F3A1232DA7B017A0079BA
:1028C600509000187401F07F391232DA7B017A00D9
:1028D60079479000187403F07F3E1232DA7B017A52
:0E28E6000079519000187403F07F3B0232DA43
:1022B200EF14604414606F1470030223511470030E
:1022C20002238D240460030223F1A2AF9209C2AF5C
:1022D20075C7AA75C755439780A20992AFA2AF925C
:1022E20009C2AF75C7AA75C7555397BFA20992AF66
:1022F200E59630E7FB0223B8A2AF9209C2AF75C7D9
:10230200AA75C75553977FA20992AFA2AF9209C28D
:10231200AF75C7AA75C755439740A20992AFE59614
:1023220030E6FB0223B8A2AF9209C2AF75C7AA7505
:10233200C755439720A20992AFE59630E5FBA2AFBD
:102342009209C2AF75C7AA75C7555396FB8027A2DB
:10235200AF9209C2AF75C7AA75C755439710A209B4
:1023620092AFE59630E4FBA2AF9209C2AF75C7AA5D
:1023720075C755439604A20992AFA2AF9209C2AFA4
:1023820075C7AA75C7555396FD804DA2AF9209C273
:10239200AF75C7AA75C75553977FA20992AFA2AF6F
:1023A2009209C2AF75C7AA75C7555397BFA20992C2
:1023B200AFE59630E3FBA2AF9209C2AF75C7AA752B
:1023C200C7555396FBA20992AFA2AF9209C2AF754D
:1023D200C7AA75C755439602A20992AFA2AF920946
:1023E200C2AF75C7AA75C7555396FEA20992AFE54B
:0523F2009720E0FB2232
:1035900075985243892053877F538EEF53C4DFAB16
:1035A00007AA06A905A804E47F807E70FDFC121519
:0935B000B8EFF404F58DD28E226F
:1035B900759852438920438780538EEF53C4DFABFC
:1035C90007AA06A905A804E4FF7EE1FDFC1215B8C7
:0835D900EFF404F58DD28E22FF
:1035130075985243892053877F438E1053C4DFAB82
:1035230007AA06A905A8047F007E467D057C001234
:0A35330015B8EFF404F58DD28E22D6
:10353D00759852438920438780438E1053C4DFAB67
:10354D0007AA06A905A8047F007E8C7D0A7C0012BF
:0A355D0015B8EFF404F58DD28E22AC
:102EE0009000B012166E75985253877F53C4F84302
:102EF000C4209000B0E0F8A3E0F9A3E0FAA3E0FB5F
:102F00007F007E467D057C001215B8C3E49FFFE478
:102F10009EFE74019DFDE49CFC780812165B8FC632
:102F20009000B0E0F8A3E0F9A3E0FAA3E0FB7F0093
:102F30007E467D057C001215B8C3E49FFF8FC54314
:032F4000C40822A0
:102F43009000B412166E75985243878053C4F843A9
:102F5300C4209000B4E0F8A3E0F9A3E0FAA3E0FBF7
:102F63007F007E8C7D0A7C001215B8C3E49FFFE4CA
:102F73009EFE74019DFDE49CFC780812165B8FC6CF
:102F83009000B4E0F8A3E0F9A3E0FAA3E0FB7F002C
:102F93007E8C7D0A7C001215B8C3E49FFF8FC54366
:032FA300C408223D
:103066009000B812166E75F85253C4F89000B8E086
:10307600F8A3E0F9A3E0FAA3E0FB7F007E8C7D0ACB
:103086007C001215B8C3E49FFFE49EFE74019DFD0B
:10309600E49CFC780812165B8FC69000B8E0F8A393
:1030A600E0F9A3E0FAA3E0FB7F007E8C7D0A7C00BA
:0D30B6001215B8C3E49FFF8FC543C4082264
:070003003098FDAF99C2988F
:01000A0022D3
:083A8600C2998F993099FD22CD
:073A8E0030F8FDAF9AC2F809
:013A9500220E
:083A9600C2F98F9A30F9FD22FC
:1037ED00E4F5B1F5B2F5B3F5B4F5B5F5B6F5ACF55F
:0A37FD00ADF5DAF5DBF5DCF5DD22B1
:1037260075B1FFE4F5B275B3FFF5B475B5FFF5B63F
:1037360075ACFFF5AD75DAFFF5DB75DCFFF5DD225F
:1038070075C7AA75C755A2AF9209C2AF75C7AA7582
:0A381700C755439F80A20992AF221B
:043B540043AD8022DB
:1033D600EF640A701C30F811E59AB4130CC2F83089
:1033E600F8FDE59AB411F6C2F830F9FDC2F9759AFE
:1033F6000D30F811E59AB4130CC2F830F8FDE59AD1
:0D340600B411F6C2F830F9FDC2F98F9A2218
:062CA90090FFF81216F77F
:102CAF00850D83850E8212167A00000000E47FFFE7
:102CBF007EFFFDFC850D83850E82E0F8A3E0F9A36E
:102CCF00E0FAA3E0FBC312164A504C90000412170F
:102CDF001BE0FCA3E0FDA3E0FEA3E02401FFE43E24
:102CEF00FEE43DFDE43CFC90000412171B12166E2F
:102CFF00850D83850E82E0FCA3E0FDA3E0FEA3E03B
:102D0F002401FFE43EFEE43DFDE43CFC850D83859C
:072D1F000E8212166E809671
:062D26009000080216F700
:10370500538EF7438901D28CEF4E6012758AF77597
:103715008CFF308DFDC28DEF1F70ED1E80EAC28CCF
:013725002281
:10317A009000BC12166E538EF7438901D28CE4FF7D
:10318A00FEFDFC9000BCE0F8A3E0F9A3E0FAA3E09E
:10319A00FBC312164A602F758A65758CFC308DFD4B
:1031AA00C28D9000BCE0FCA3E0FDA3E0FEA3E024F6
:1031BA00FFFFEE34FFFEED34FFFDEC34FFFC900020
:0931CA00BC12166E80B8C28C2202
:1031D3009000C012166E538EEF438910D28EE4FF17
:1031E300FEFDFC9000C0E0F8A3E0F9A3E0FAA3E041
:1031F300FBC312164A602F758B65758DFC308FFDEE
:10320300C28F9000C0E0FCA3E0FDA3E0FEA3E02496
:10321300FFFFEE34FFFEED34FFFDEC34FFFC9000C6
:09322300C012166E80B8C28E22A2
:10311F009000C412166E75C40243C408E4FFFEFD8E
:10312F00FC9000C4E0F8A3E0F9A3E0FAA3E0FBC32E
:10313F0012164A603275C53375C6F5E5C430E4FB27
:10314F0053C4EF9000C4E0FCA3E0FDA3E0FEA3E0B6
:10315F0024FFFFEE34FFFEED34FFFDEC34FFFC9057
:0B316F0000C412166E80B553C4F72296
:102FA6009000C812166E538FFB538FFD538FFEE4AD
:102FB600F586538FDF438F08E4FFFEFDFC9000C8C3
:102FC600E0F8A3E0F9A3E0FAA3E0FBC312164A6017
:102FD6002CE58F30E4FB538FEF9000C8E0FCA3E0B4
:102FE600FDA3E0FEA3E024FFFFEE34FFFEED34FF79
:102FF600FDEC34FFFC9000C812166E80BB538FF7B1
:0130060022A7
:102525000A3D3D3D3D3D3D3D3D3D3D3D3D3D3D3D09
:102535003D3D3D3D3D3D3D3D3D3D3D3D3D3D3D3DC6
:102545003D3D3D3D3D3D3D3D3D3D3D3D3D3D3D3DB6
:102555003D3D3D3D3D3D3D3D3D3D3D3D3D3D3D3DA6
:102565003D3D3D3D3D000A2A2020436F707972694B
:102575006768742863292032303135204E75766FAF
:10258500746F6E20546563686E6F6C6F6779204356
:102595006F72702E20416C6C2072696768747320AD
:1025A50072657365727665642E2020000A2A2020E4
:1025B500436F6E7461637420452D4D61696C3A20DB
:1025C5004D6963726F432D38626974406E75766F1D
:1025D500746F6E2E636F6D20202020202020202018
:1025E50020202020202020202020202020202020E6
:1025F50020000A2A202044656D6F20566572736994
:102605006F6E20203A202532642E2532642E253225
:1026150064000A2A202046696E697368656420444F
:10262500617465203A202532642E2532642E2532C8
:0226350064003F
:103007007BFF7A257925121E647BFF7A25796B125F
:103017001E647BFF7A2579B1121E647BFF7A2579BE
:10302700F790001CE4F0A304F0E4A3F0A3F0A3F0EE
:10303700A3F0121E647BFF7A26791790001C740791
:10304700F0A374DFF0A3E4F0A37405F0A3E4F0A306
:0F305700741FF0121E647BFF7A257925021E6418
:03000000022B03CD
:102B0300787FE4F6D8FD9000007FFF7E01E4F0A318
:0A2B1300DFFCDEFA7581BD022B58CD
:102B1D00022DA5E493A3F8E493A34003F68001F2FC
:102B2D0008DFF48029E493A3F85407240CC8C333B9
:102B3D00C4540F4420C8834004F456800146F6DF88
:102B4D00E4800B0102040810204080902B9DE47E50
:102B5D00019360BCA3FF543F30E509541FFEE4937D
:102B6D00A360010ECF54C025E060A840B8E493A344
:102B7D00FAE493A3F8E493A3C8C582C8CAC583CA6F
:102B8D00F0A3C8C582C8CAC583CADFE9DEE780BE27
:012C230000B0
:10132300E709F608DFFA8046E709F208DFFA803EAC
:1013330088828C83E709F0A3DFFA8032E309F60899
:10134300DFFA8078E309F208DFFA807088828C8301
:10135300E309F0A3DFFA806489828A83E0A3F608B5
:10136300DFFA805889828A83E0A3F208DFFA804C8F
:1013730080D280FA80C680D4806980F28033801066
:1013830080A680EA809A80A880DA80E280CA8033CF
:1013930089828A83ECFAE493A3C8C582C8CCC58347
:1013A300CCF0A3C8C582C8CCC583CCDFE9DEE78017
:1013B3000D89828A83E493A3F608DFF9ECFAA9F096
:1013C300EDFB2289828A83ECFAE0A3C8C582C8CCEC
:1013D300C583CCF0A3C8C582C8CCC583CCDFEADE05
:1013E300E880DB89828A83E493A3F208DFF980CC67
:1013F30088F0EF60010E4E60C388F0ED2402B40460
:101403000050B9F582EB2402B4040050AF23234506
:06141300822390137373A5
:10141900BB010689828A83E0225002E722BBFE02D1
:09142900E32289828A83E4932204
:10143200BB010CE58229F582E5833AF583E022506F
:1014420006E92582F8E622BBFE06E92582F8E222B9
:0D145200E58229F582E5833AF583E49322D3
:10145F00BB010FF8E58229F582E5833AF583E02891
:10146F00F0225009C58229F8E58226F622BBFE0933
:10147F00C58229F8E22582F222F8EA2583F583E96D
:03148F009328227D
:10149200F8BB010DE58229F582E5833AF583E8F090
:1014A200225006E92582C8F622BBFE05E92582C83C
:0214B200F22224
:1014B400C5F0F8A3E028F0C5F0F8E58215827002C3
:0614C4001583E038F02260
:1014CA00BB0110E58229F582E5833AF583E0F5F060
:1014DA00A3E0225009E92582F886F008E622BBFE3D
:1014EA000AE92582F8E2F5F008E222E5832AF58383
:0814FA00E993F5F0A3E9932248
:10150200BB010DC58229C582C5833AC5830214B4C5
:101512005011C58229F808E5F026F618F5F0E582A3
:1015220036F622BBFE11C58229F808E225F0F5F055
:10153200F218E23582F222F8E58229F582E5832A61
:0D154200F58374019325F0F5F0E493382251
:10154F00F8BB0111E58229F582E5833AF583E8F0CE
:10155F00E5F0A3F0225009E92582C8F608A6F0228B
:0D156F00BBFE09E92582C8F2E5F008F22272
:10157C0075F008758200EF2FFFEE33FECD33CDCC26
:10158C0033CCC58233C5829BED9AEC99E5829840A9
:10159C000CF582EE9BFEED9AFDEC99FC0FD5F0D686
:1015AC00E4CEFBE4CDFAE4CCF9A88222B800C1B9B0
:1015BC000059BA002DEC8BF084CFCECDFCE5F0CBEE
:1015CC00F97818EF2FFFEE33FEED33FDEC33FCEB27
:1015DC0033FB10D703994004EB99FB0FD8E5E4F9E2
:1015EC00FA227818EF2FFFEE33FEED33FDEC33FCCF
:1015FC00C933C910D7059BE99A4007EC9BFCE99AC3
:10160C00F90FD8E0E4C9FAE4CCFB2275F010EF2F07
:10161C00FFEE33FEED33FDCC33CCC833C810D70707
:10162C009BEC9AE899400AED9BFDEC9AFCE899F842
:0E163C000FD5F0DAE4CDFBE4CCFAE4C8F922D5
:10164A00EB9FF5F0EA9E42F0E99D42F0E89C45F0F6
:01165A00226D
:10165B00E8600FECC313FCED13FDEE13FEEF13FF6D
:03166B00D8F12291
:0C166E00ECF0A3EDF0A3EEF0A3EFF022EF
:10167A00A8828583F0D083D0821216911216911215
:10168A001691121691E473E493A3C583C5F0C5833A
:10169A00C8C582C8F0A3C583C5F0C583C8C582C8BA
:0116AA00221D
:1016AB00BB010789828A8302186E5005E9F802187C
:1016BB0065BBFE05E9F802189789828A830218A098
:1016CB00D083D082F8E4937012740193700DA3A3AE
:1016DB0093F8740193F5828883E4737402936860C2
:0616EB00EFA3A3A380DFC2
:0616F1008A838982E47384
:1016F700E50E2582F582E50D3583F583B50D048565
:10170700820E2210AF0685820EF50D2285820EF518
:041717000DD2AF221E
:0D171B00E50E2582F582E50D3583F583226C
:101DF900E508241CF582E43400F583E00508229007
:101E0900001930070390001CE475F00112187702DD
:101E190014192000E97F2ED2008018EF540F249066
:101E2900D43440D4FF30040BEF24BFB41A0050035C
:101E39002461FFE50960021509050CE50C7002052E
:101E49000B30070E900019E475F001121877EF02B4
:101E5900183D0233D67403D2078003E4C207F5089C
:101E690090001912188EE4F509F50BF50CE50960D7
:101E7900077F20121E3C80F5750AFFC201C200C20D
:101E890002C203C205C206C208121E08FF700D3045
:101E990007057F00121E4DAF0CAE0B22B4255FC2A1
:101EA900D5C204121E08FF24D0B40A00501A75F0D6
:101EB9000A780930D50508B6FF0106C6A426F6201A
:101EC900D5047002D20380D924CFB41A00EF50048C
:101ED900C2E5D20402204ED20180C6D20080C0D20F
:101EE9000280BCD2D580BAD20580B47F20121E3CB4
:101EF9002002077401B5090040F1121DF9FF121EF5
:101F09003C021E76D208D2068095121DF9FB121DDD
:101F1900F9FA121DF9F94A4B7006791F7A217BFFEC
:101F290020022EE509602A7E008E82758300121434
:101F39003260060EEE650A70F0C2D5EBC0E0EAC069
:101F4900E0E9C0E0EE122095D0E0F9D0E0FAD0E067
:101F5900FB121419FF60AAEBC0E0EAC0E0E9C0E097
:101F6900121E3CD0E02401F9D0E03400FAD0E0FBA5
:101F7900E50A0460DCD50AD980877BFF7A2079914C
:101F8900D202809C791080027908C206C2088008B2
:101F9900D2D5790A8004790AC2D5E50A047002F516
:101FA9000AE4FAFDFEFF121DF9FC7B082001131259
:101FB9001DF9FD7B1030000A121DF9FE121DF9FFF3
:101FC9007B20EC3382D592D55013C3E43000069FB1
:101FD900FFE49EFEE42001039DFDE49CFCE4CBF8B4
:101FE900C201EC700CCFCECDCCE824F8F870F380A8
:101FF90017C3EF33FFEE33FEED33FDEC33FCEB3368
:10200900FB994002FB0FD8E9EB300105F8D0E0C499
:1020190048B201C0E00AEC4D4E4F78207B0070C2F7
:10202900EAB50A0040BCC0E0122097D0F0D0E02009
:102039000104C4C0E0C4B201C0F0121E25D0F0D51D
:10204900F0EB021E761216CB1F13531F8D581EE498
:102059004C1EE0421F914F1F99441F99491EF94395
:082069001F9F551F83461F83D2
:10207100451F8347213F501EE82D1EEC2E1F0F2BBD
:102081001EF0231F0D2021282A1EA84800001F072B
:102091003F3F3F00790AA2D5200314300509B9104A
:1020A100020404B9080104A2D5200602500104204B
:1020B10002689202B509005034C0E07F2030031954
:1020C1007F30A20272067205500F1220EEC202C2C8
:1020D10006C205C2087F30800F300503E9C0E01257
:1020E1001E3C300503D0E0F9D0E0B509CC3005172E
:1020F1007F30B9100C121E3C7F583004077F788066
:1021010003B90803121E3C3002057F2D021E3C7FDD
:10211100202008F87F2B2006F322920280CF286E20
:10212100756C6C2900D201121DF93001F8C20178D9
:102131000930D50108F6021EA82D50434958121D39
:10214100F92403B405004001E490213A93121E2DB5
:0D215100743A121E2DD203750904021F8D71
:10172800E709F60870FA8046E709F20870FA803E81
:1017380088828C83E709F0A370FA807EE309F608B3
:1017480070FA8076E309F20870FA806E88828C83DA
:10175800E309F0A370FA806289828A83E0A3F6081D
:1017680070FA805689828A83E0A3F20870FA804A68
:1017780080D280FA80C680D4806580F28031801063
:1017880080A680EA809A80A880DA80E280CA8031C8
:1017980089828A83ECFAE493A3C8C582C8CCC5833E
:1017A800CCF0A3C8C582C8CCC583CC70E9800D89AC
:1017B800828A83E493A3F60870F9ECFAA9F0EDFBAA
:1017C8002289828A83ECFAE0A3C8C582C8CCC58383
:1017D800CCF0A3C8C582C8CCC583CC70EA80DD89AB
:1017E800828A83E493A3F20870F980CE88F0ED240E
:1017F80002B4040050C4F582EB2402B4040050BAC9
:0918080023234582239017787315
:102E110090000EEBF0A3EAF0A3E9F0E4900016F0C5
:102E2100A3F090001474FFF5F012184F45F0603CC8
:102E3100900011E0FBA3E0FAA3E0F9121419FF904E
:102E4100000EE0FBA3E0FAA3E0F9900016E475F0B0
:102E51000112184F85F082F583EF121492EF60C2D0
:102E6100900012E475F0011214B480B690000EE0E7
:082E7100FBA3E0FAA3E0F92243
:10384D00E4FFFE121419600C0FEF70010E09E97000
:05385D00F20A80EF22D9
:10181100EF4E6012EF60010EEDBB010B89828A83EE
:10182100F0A3DFFCDEFA2289F05007F709DFFCA9FB
:0C183100F022BBFEFCF309DFFCA9F02252
:10183D00BB010689828A83F0225002F722BBFE018A
:02184D00F32284
:10184F00A3F8E0C5F025F0F0E5821582700215834C
:06185F00E0C838F0E822A9
:09186500E6FB08E6FA08E6F922A8
:09186E00E0FBA3E0FAA3E0F9227B
:10187700F8E0FBA3A3E0F925F0F0E58215827002FA
:071887001583E0FA38F0229E
:09188E00EBF0A3EAF0A3E9F0225B
:09189700E2FB08E2FA08E2F92282
:0C18A000E493FB740193FA740293F922A4
:00000001FF
