:082AA1004100B8004100B9003A
:03005B00022E2F43
:102E2F00C0E0C0D075D000C000C001C005C006C052
:102E3F0007C2EFAFC37815E6FD25E02416F876003C
:102E4F0008A607ED25E02416F8C000F9E7FE09E70C
:102E5F007802C333CE33CED8F9D000A60608F6EDEC
:102E6F0025E02416F8AFC2E6F6EF0846F6D007D0F5
:0C2E7F0006D005D001D000D0D0D0E03249
:102B11007F021220C21235041233961236C81238BF
:102B2100D2900086E06005E4F012344B900088E01A
:0D2B31006005E4F012351F90008AE060207E
:102B3E00E4900001F090008AF01227041236D7902C
:102B4E0000B8E004F0E0C394054002E4F012000E79
:062B5E0090008DE060080C
:082B6400E4F09000B9E004F078
:102B6C001234CC900000EFF060ACE0FF121814802F
:012B7C00A5B3
:05181400900002EFF05E
:10181900E4A3F0A3F0900003F0FE7F10FDFB7A0033
:10182900799D121779900002E024FEB41900400353
:10183900021BF590184A75F003A4C58325F0C583EA
:1018490073021895021BF5021BF50218EB021941E8
:10185900021BF5021997021BF5021BF50219ED028D
:101869001BF5021BF5021A43021BF5021BF5021AAE
:1018790099021BF5021BF5021AF9021BF5021BF569
:10188900021B4F021BF5021BF5021BA2900003E08D
:10189900FF04F0749D2FF876F2E0FF04F0749D2F99
:1018A900F87601E0FF04F0749D2FF87601E4A3F0C7
:1018B900789EE62401FFE433FE900004E0FDC39F17
:1018C900EE6480F87480984003021BF5749E2DF82D
:1018D900E6FF900003E0249DF8EF26F6A3E004F06C
:1018E90080CE900003E0FF04F0749D2FF876F2E0BB
:1018F900FF04F0749D2FF87601E0FF04F0749D2F2A
:10190900F87606E4A3F0789EE62401FFE433FE901E
:101919000004E0FDC39FEE6480F8748098400302E0
:101929001BF5749E2DF8E6FF900003E0249DF8EF67
:1019390026F6A3E004F080CE900003E0FF04F074E3
:101949009D2FF876F2E0FF04F0749D2FF87601E000
:10195900FF04F0749D2FF87607E4A3F0789EE6243F
:1019690001FFE433FE900004E0FDC39FEE6480F8BC
:101979007480984003021BF5749E2DF8E6FF9000D1
:1019890003E0249DF8EF26F6A3E004F080CE900052
:1019990003E0FF04F0749D2FF876F2E0FF04F07481
:1019A9009D2FF87601E0FF04F0749D2FF87603E48B
:1019B900A3F0789EE62401FFE433FE900004E0FDE5
:1019C900C39FEE6480F87480984003021BF5749EEF
:1019D9002DF8E6FF900003E0249DF8EF26F6A3E03A
:1019E90004F080CE900003E0FF04F0749D2FF87698
:1019F900F2E0FF04F0749D2FF87601E0FF04F07423
:101A09009D2FF87602E4A3F0789EE62401FFE433E3
:101A1900FE900004E0FDC39FEE6480F87480984056
:101A290003021BF5749E2DF8E6FF900003E0249D48
:101A3900F8EF26F6A3E004F080CE900003E0FF045F
:101A4900F0749D2FF876F2E0FF04F0749D2FF8767C
:101A590001E0FF04F0749D2FF87604E4A3F0789E6A
:101A6900E62401FFE433FE900004E0FDC39FEE6429
:101A790080F87480984003021BF5749E2DF8E6FFE8
:101A8900900003E0249DF8EF26F6A3E004F080CE51
:101A9900900003E0FF04F0749D2FF876F2E0FF0454
:101AA900F0749D2FF87602E0FF04F0749D2FF8760C
:101AB90009E0FF04F0749D2FF87603E4A3F0789E03
:101AC900E62401FFE433FE900004E0FDC39FEE64C9
:101AD90080F87480984003021BF5749E2DF8E6FF88
:101AE900900003E0249DF8EF26F6A3E004F080CEF1
:101AF900900003E0FF04F0749D2FF876F2E0FF04F4
:101B0900F0749D2FF87601E0FF04F0749D2FF876AC
:101B190005E4A3F0789EE62401FFE433FE90000477
:101B2900E0FDC39FEE6480F87480984003021BF5C2
:101B3900749E2DF8E6FF900003E0249DF8EF26F649
:101B4900A3E004F080CE900003E0FF04F0749D2F21
:101B5900F876F2E0FF04F0749D2FF87601E0FF04B7
:101B6900F0749D2FF87608E4A3F0789EE62401FF2F
:101B7900E433FE900004E0FDC39FEE6480F87480B6
:101B8900985069749E2DF8E6FF900003E0249DF8B3
:101B9900EF26F6A3E004F080D1900003E0FF04F003
:101BA900749D2FF876F2E0FF04F0749D2FF876010A
:101BB900E0FF04F0749D2FF876B9E4A3F0789EE66F
:101BC9002401FFE433FE900004E0FDC39FEE64802E
:101BD900F87480985016749E2DF8E6FF900003E083
:101BE900249DF8EF26F6A3E004F080D1900003E0ED
:0F1BF900600D04F07B007A00799DE0FD122F98BB
:011C080022B9
:0338D20002387A3F
:0138E40022C1
:0138E50022C0
:0138E60022BF
:0C37760090005FEBF0A3EAF0A3E9F02262
:0C378200900062EBF0A3EAF0A3E9F02253
:10364E0090005FA3E0FAA3E0F94A60031216592234
:10365E00900062A3E0FAA3E0F94A60031216592221
:10321800EF4E602D900055EEF0A3EFF0AF05A3EC54
:10322800F0A3EFF0AF03A3EAF0A3EFF0E4A3F0A359
:10323800F0A3F0A3F0900054F090005304F012367D
:023248004E2214
:1035C900E4900053F012365E7B007A0079001237DE
:0435D90076023782BD
:0A37A500900053E06002D322C3221B
:10270400900053E070030227B8900057E0FEA3E066
:10271400FF4E70030227B8900054E07035D3EF9455
:1027240000EE940050030227B890005BE475F001BA
:1027340012141CFED3900056E095F0900055E09ED4
:10274400507212365EE490005BF0A3F090005404E3
:10275400F022900054E06401705A90005B75F0011F
:1027640012141CFED3900058E095F0900057E09EA0
:102774005042900059E0FEA3E0FF9400EE94004024
:102784002590005DE475F00112141CFCD3EF95F064
:10279400EE9C5005E4900053F0900053E0700790D5
:1027A4000057F0A3F022E490005BF0A3F0900054F3
:0527B400F012364E2278
:102447002042415A4F4F4B410020505752204F4690
:102457004600414343204F4E00414343204F4646E9
:102467000020564F4C2025750020202020202020BA
:102477002000202020504155534500202020205087
:102487004C4159005343414E4E494E4700202020AE
:102497004D55544520002020204E455854200020FB
:1024A70020205052455620002020202053542575C7
:1024B700005452202575002050414952494E47008B
:1024C700202050414952454400545753205343411B
:1024D7004E002020545753204F4B0020202020200F
:1024E70025752530327500202020202575253032AE
:1024F7007500464D202575257500464D202025750C
:10250700257500464D202020257525750050524918
:102517005245440050414952494E4700504C415999
:10252700004D555445000000000000000000000069
:062537000000000000009E
:102AA90001AD0010AE0000000000000000000000B1
:102AB9000000000000109D00000000000000000060
:102AC9000000000000000050006500000000000048
:0A2AD90000000000000000000000F3
:10339600E478ADF6FE7F10FDFB7A0079AE12177960
:1033A6007E007F107D007B007A00799D12177912CE
:0533B600220702337044
:102F9800900005EBF0A3EAF0A3E9F0A3EDF0D394D9
:102FA80010503D12373178AD7601900005E0FBA353
:102FB800E0FAA3E0F990009DEB7008E965827003E0
:102FC800EA6583601B900008E0FF7E00789D7C0026
:102FD8007D00900005E0FBA3E0FAA3E0F912135B83
:012FE80022C6
:103588007810E67BFF30E1067A24794780047A24B4
:063598007950122869229F
:10359E007810E67BFF30E0067A24795980047A248D
:0635AE0079601228692279
:1030340078087C007D017BFF7A25792D7E007F1046
:1030440012135B12386512388112388F90001B748A
:10305400FFF0A37424F0A37468F07811E6FFA3E4EE
:10306400F0A3EFF07B017A007908121C6E7B017AE1
:0630740000790802286942
:0F366E007BFF7A24797012286912388102388F15
:0937B9007BFF7A2479790228696A
:0937C2007BFF7A24798202286958
:10362A007BFF7A24798B12286912388112388F022B
:02363A003865F1
:0937CB007BFF7A2479940228693D
:0937D4007BFF7A24798202286946
:0F367D007BFF7A24797912286912388102388FFD
:0F368C007BFF7A24799D12286912388102388FCA
:0F369B007BFF7A2479A612286912388102388FB2
:1031B20090001B74FFF0A37424F0A374AFF0781294
:1031C200E6FFA3E4F0A3EFF07B017A007965121C1D
:1031D2006E7B017A0079651228691238651238818E
:0331E2000238961A
:10324A0090001B74FFF0A37424F0A374B8F07813F1
:10325A00E6FF08E6A3CFF0A3EFF07B017A007965D9
:10326A00121C6E7B017A0079651228691238810274
:02327A00388F8B
:0F36AA007B017A00796512286912388102388F06
:0F36B9007BFF7A24797012286912388102388FCA
:0B005E00900002EBF0A3EAF0A3E9F031
:10006900E4A3F0A3F0A3F012138164F8600302097A
:1000790090900002E0FBA3E0FAA3E0F990000112DE
:10008900139AD394104003020990E4900005F0906C
:100099000002E0FBA3E0FAA3E0F990000112139A31
:1000A9002401FFE433FE900005E0FDC39FEE648068
:1000B900F8748098501DED2401FFE433FE8F828E81
:1000C9008312139AFF900007E02FF0900005E004D7
:1000D900F080BC900002E0FBA3E0FAA3E0F99000F5
:1000E9000112139AF582758300A3A312139AFF9044
:1000F9000007E06F60030209907E007F107D007B9E
:10010900007A00799D121779E4900006F0900002B8
:10011900E0FBA3E0FAA3E0F990000212139A121689
:100129003306C00107F802084A03071509015831C7
:1001390001CF3201E33302EC3404AF35056A3605E9
:10014900F53706A13808A041075AB90000098812F5
:1001590035C912388F12388112386512382D123884
:100169005712384912383B900002E0FBA3E0FAA38A
:10017900E0F990000312139A6401700F7810E644B5
:1001890002F67BFF7A357988020741900002E0FB8D
:10019900A3E0FAA3E0F990000312139A6402600342
:1001A9000209887810E654FDF67BFF7A35798812C2
:1001B90037767B007A007900123782E4FBFA7D01F9
:1001C900FC7F140207B8900002E0FBA3E0FAA3E069
:1001D900F990000312139A020988900002E0FBA328
:1001E900E0FAA3E0F990000312139A24FE700302C7
:1001F90002AD04600302098812388F12388112385F
:100209006512382D123857123849123842900002B7
:10021900E0FBA3E0FAA3E0F990000412139AB401F9
:100229000F90001B74FFF0A37424F0A374BE8067C1
:10023900900002E0FBA3E0FAA3E0F9900004121396
:100249009AB4020F90001B74FFF0A37424F0A374F6
:10025900C78044900002E0FBA3E0FAA3E0F9900014
:100269000412139AB4030F90001B74FFF0A37424B3
:10027900F0A374D08021900002E0FBA3E0FAA3E090
:10028900F990000412139AB4041790001B74FFF03C
:10029900A37424F0A374D9F07B017A007965121C48
:1002A9006E0205E11235C912375C90001B74FFF02C
:1002B900A37424F0A374E2F0900002E0FBA3E0FA37
:1002C900A3E0F990000312139AFF90001EE4F0A333
:1002D900EFF090000412139AFF900020E4F0A3EFCE
:1002E9000203D5900002E0FBA3E0FAA3E0F9900035
:1002F9000312139A24FE605A14700302041714702F
:100309000302039B147003020466240460030209B8
:100319008890000412139AB4010302042B9000027E
:10032900E0FBA3E0FAA3E0F990000412139A640237
:1003390060030209887BFF7A3779B91237767BFF28
:100349007A36796E123782E4FBFA7D06FC7F060263
:1003590007B8900002E0FBA3E0FAA3E0F9900004DB
:1003690012139A6402701512388F12388190001B8B
:1003790074FFF0A37424F0A3748B8050900002E002
:10038900FBA3E0FAA3E0F990000412139A640102B6
:10039900098812388F12388112386512382D1238AF
:1003A9005712384912383B123850900002E0FBA32B
:1003B900E0FAA3E0F990000412139A6401701A900C
:1003C900001B74FFF0A37424F0A37482F07B017AFC
:1003D900007965121C6E0205E1900002E0FBA3E0C2
:1003E900FAA3E0F990000412139A64026003020967
:1003F900887BFF7A3779CB1237767BFF7A36796E2D
:10040900123782E4FBFA7D07FC7F070207B89000E8
:1004190002E0FBA3E0FAA3E0F990000412139AB4F6
:1004290001061235C9020988900002E0FBA3E0FA2F
:10043900A3E0F990000412139A6402600302098888
:100449007BFF7A36797D1237767BFF7A36796E12A1
:100459003782E4FBFA7D0AFC7F0A0207B8900002A2
:10046900E0FBA3E0FAA3E0F990000412139A6401F7
:100479007031E92405F9E43AFA78657C007D017E5A
:10048900007F0812135B7BFF7A3679AA1237767BD5
:10049900FF7A3679B9123782E4FBFA7D06FC7F06CA
:1004A9000207B80207BC900002E0FBA3E0FAA3E050
:1004B900F990000312139A24FE604414606124FE2B
:1004C9007003020555240460030209889000041290
:1004D900139AB401097BFF7A36799B020741900090
:1004E90002E0FBA3E0FAA3E0F990000412139A6476
:1004F9000260030209887BFF7A36798C0207411270
:1005090035C9900002E0FBA3E0FAA3E0F9900005E9
:1005190012139A7812F67BFF7A3179B20207419069
:100529000002E0FBA3E0FAA3E0F990000612139A97
:100539007813760008F690000512139A781346F698
:1005490008E6F67BFF7A32794A020741900002E019
:10055900FBA3E0FAA3E02404F9E43AFA7D080209CE
:100569008512386512382D12383B123849123888ED
:1005790012389612385E900002E0FBA3E0FAA3E07D
:10058900F990000312139AFFD3940990001B74FF8A
:10059900400BF0A37424F0A374EEF0801BF0A37455
:1005A90024F0A374E2F0900002E0FBA3E0FAA3E0D8
:1005B900F990000312139AFF90001EE4F0A3EFF0E4
:1005C90090000412139AFF900020E4F0A3EFF07B4F
:1005D900017A007965121C6E7B017A007965123502
:1005E900B4AD077B017A0079650209851238571283
:1005F900383412386C123881123896900002E0FBB8
:10060900A3E0FAA3E0F990000312139AFFD39463CD
:10061900401090001B74FFF0A37424F0A374F9F048
:100629008042900002E0FBA3E0FAA3E0F990000306
:1006390012139AFFD3940990001B74FF400BF0A387
:100649007425F0A37401F0801BF0A37425F0A37442
:100659000AF0900002E0FBA3E0FAA3E0F99000039E
:1006690012139AFF90001EE4F0A3EFF09000041219
:10067900139AFF900020E4F0A3EFF07B017A007950
:1006890065121C6E7B017A0079651235B4AD077B62
:10069900017A007965020985900002E0FBA3E0FA7E
:1006A900A3E0F990000312139A547F7811F67BFFA7
:1006B9007A307934020741900002E0FBA3E0FAA303
:1006C900E0F990000312139A64017031E92404F9E6
:1006D900E43AFA78657C007D017E007F0812135B9D
:1006E9007BFF7A3679AA1237767BFF7A3679B91287
:1006F9003782E4FBFA7D06FC7F060207B890000208
:10070900E0FBA3E0FAA3E024040207C812388F1221
:100719003881900002E0FBA3E0FAA3E0F99000031E
:1007290012139A7810B40106E64401F68004E654DF
:10073900FEF67BFF7A35799E1237767B007A00794F
:10074900001237827B017A007D017C007F14020749
:10075900ED900002E0FBA3E0FAA3E0F99000031298
:10076900139A640160030207F2123826900002E02E
:10077900FBA3E0FAA3E0F990000412139A64017054
:1007890032E92405F9E43AFA78657C007D017E00B6
:100799007F0812135B7BFF7A3679AA1237767BFFC3
:1007A9007A3679B9123782E4FBFA7D05FC7F05FEBA
:1007B90002089A900002E0FBA3E0FAA3E02405F9FD
:1007C900E43AFA7D08122FE97BFF7A3679AA1237C3
:1007D900767B007A0079001237827B017A007D01ED
:1007E9007C007F017E0002089A12381F0209889056
:1007F9000002E0FBA3E0FAA3E02403F9E43AFA7863
:10080900657C007D017E007F0812135B900002E089
:10081900FBA3E0FAA3E02403F9E43AFA7D08122FD6
:10082900E97BFF7A3679AA1237767B007A0079005C
:100839001237827B017A007D017C007F017E008076
:1008490050900002E0FBA3E0FAA3E02403F9E43AA4
:10085900FA78657C007D017E007F0812135B9000A9
:1008690002E0FBA3E0FAA3E02403F9E43AFA7D08E5
:10087900122FE97BFF7A3679AA1237767B007A0044
:1008890079001237827B017A007D017C007F017E2D
:100899000012321802098812386512388112388F0D
:1008A90012383B12382D123849123857900002E09D
:1008B900FBA3E0FAA3E0F990000312139A24FC6069
:1008C9006224036003020988123842900002E0FBA7
:1008D900A3E0FAA3E0F990000412139AB4010E7888
:1008E900657C007D017BFF7A2579148020900002C8
:1008F900E0FBA3E0FAA3E0F990000412139AB40212
:100909000F78657C007D017BFF7A25791B12175CC6
:100919007B017A0079651235B4AD077B017A0079DC
:10092900658059123850900002E0FBA3E0FAA3E079
:10093900F990000412139AB4010E78657C007D01C8
:100949007BFF7A2579238020900002E0FBA3E0FA5F
:10095900A3E0F990000412139AB4020F78657C00A1
:100969007D017BFF7A25792812175C7B017A007952
:10097900651235B4AD077B017A007965122FE990CC
:070989000006E0600204F02B
:010990002244
:10000E0078ADE660301237AFEF24F0601724D06081
:10001E00112420701512378E12389DE478ADF60239
:10002E003370800012378E02389D7B007A00799DE6
:10003E007D100230BD7B007A0079AE7D101232D079
:0D004E00EF60097B007A0079AE12005E229F
:0800030044454641554C5400F0
:102AE300500075000000000000000000000000001E
:032AF300000000E0
:0F36C80078757C007D017BFF7A00790302175C27
:102FE900900008EBF0A3EAF0A3E9F0A3EDF090005C
:102FF90008E0F9A3E0FAA3E090000FC9F0A3EAF012
:10300900A3E9F0EDFFA3E4F0A3EFF07B017A0079E7
:1030190075122B7D90000BE0FFC39410500C747552
:0B3029002FF582E43400F583E4F02270
:0F36D7001237A540097B017A0079751228692204
:1035040012348D12317C1231E51238B01237E612C2
:0B35140034281235F11237EFD2AF223D
:0A2AF600420095000042009300002A
:0937DD003082037F00227F0122EB
:092BE5007818E6FC08E6FD7E0309
:102BEE00EF2405FBE43EFAD3EB94FFEA9403400690
:102BFE007A037BFF8007EF2405FBE43EFA900095F5
:102C0E00EAF0A3EBF0C3EF9405EE940050067E00BD
:102C1E007F008008EF24FBFFEE34FFFE900093EE62
:102C2E00F0A3EFF0C3ED9FEC9E4010900096E09D58
:0E2C3E00900095E09C40047F0180027F002200
:0F36E6007816E6FC08E6FD7FD47E03122BEE2259
:0F36F5007816E6FC08E6FD7FBB7E03122BEE2263
:0F3704007816E6FC08E6FD7F747E03122BEE229A
:0E3740007816E6FC08E6FDE4FFFE122BEE22F2
:0638A4007FDF122BE5227C
:0638AA007FD1122BE52284
:0F3713007818E6FC08E6FD7FB87E03122BEE2245
:0F3722007818E6FC08E6FD7F717E03122BEE227D
:10363C001237DDEF60091238A4EF60037F01227F9F
:02364C0000225A
:0638B0001227B9023818CE
:1035DD00789BE62490F8A607789B06E6C3940A40EC
:0435ED0002E4F622DC
:1034CC00789AE6FE08667002FF2274902EF8E6FFEA
:0B34DC00789A06E6C3940A4002E4F66A
:0134E70022C2
:1034E800789CE6FE18667002FF2274902EF8E6FFBC
:0B34F800789C06E6C3940A4002E4F64C
:0135030022A5
:0B379A00EF75F00BA4242AF8E6FF22D4
:1033E000EF75F00BA42428F8A60408A605AE03EF99
:1033F00075F00BA4242BF8A606EF75F00BA4242C73
:04340000F8E4F622D4
:0638B600789BE618F622E3
:0738180043B10453B2FB228F
:1027B900E4789AF608F608F6FFEF75F00BA42428DA
:1027C900F876000876C8EF75F00BA42425F8760290
:1027D900EF75F00BA4242AF8E4F6EF75F00BA424A6
:1027E9002BF8E4F6EF75F00BA4242CF8E4F60FEFC0
:1027F900B40AC6784C763278577632782276FF0852
:1028090076370876DD782D76FF0876360876E6780D
:102819003876FF0876360876F5784376FF087637F6
:10282900087604784E76FF08763708764078597628
:10283900FF0876380876A4786476FF087638087633
:10284900AA786F76FF087637087613787A76FF08C4
:0F2859007637087622788576FF08763608763C43
:01286800224D
:101F6E00900003EFF0E075F00BA42422F9E4FAFBE5
:101F7E00900090F0A3F0A3E9F0121613121659EF89
:101F8E00700302205A900090E0FBA3E0FAA3E0F960
:101F9E0090000312139AFFC3940550089000037427
:101FAE00050220BEEFC3940A50089000037401028C
:101FBE0013C790000812139A70149000080412139D
:101FCE00FA900003E075F003A404FF1235DD9000D3
:101FDE0090E0FBA3E0FAA3E0F9900006121432FFA2
:101FEE00AEF0D39400EE940050030220C190000492
:101FFE00121432C39FE5F09E5023900004E475F056
:10200E000112146AFCE5F06F7002EC6E60030220A0
:10201E00C1900003E075F003A42403802B90000907
:10202E0012139AFFD3940050030220C190000A7439
:10203E00011213C7C39F407B90000AE41213FA905B
:10204E000003E075F003A404FF0235DD900090E07C
:10205E00FBA3E0FAA3E0F990000312139AFFD394C6
:10206E0005400A90000374051213FA802BEF600AE4
:10207E0090000374FF1213C7801E90000812139A6B
:10208E00B40115900008E41213FA900003E075F005
:10209E0003A42402FF1235DD900090E0FBA3E0FACA
:1020AE00A3E0F9900004E4F5F01214B790000AE4EE
:0420BE001213FA22DD
:10351F00E4900002F0900002E0FFC3940A500B12F7
:0A352F001F6E900002E004F080EB34
:01353900226F
:10317C00E4F5B275B180F5B475B3FFF5B675B5FF6E
:10318C00F5AD75AC0FF5DB75DAFFF5DD75DCFFF52C
:10319C00F975FA0475E5FF75E6FF75E7FF75EEFF47
:0631AC0043F98002375CCC
:0C375C00E4FF8FFBE4F5FC0FEFB420F657
:01376800223E
:07381F0075FB1253FCF722B8
:0738260075FB1243FC0822B0
:07382D0075FB0E53FCF722AE
:0738340075FB0E43FC0822A6
:07383B0075FB0B53FCF722A3
:0738420075FB0B43FC08229B
:0738490075FB0A53FCF72296
:0738500075FB0A43FC08228E
:0738570075FB0353FCF7228F
:07385E0075FB0343FC082287
:0738650075FB0253FCF72282
:07386C0075FB0243FC08227A
:0738730075FB0F53FCF72267
:07387A0075FB0F43FC08225F
:0738810075FB0753FCF72261
:0738880075FB0743FC082259
:07388F0075FB0653FCF72254
:0738960075FB0643FC08224C
:0638BC0012388102388F72
:0638C2001238880238965E
:10253D00EFB40800400302262090254DF82828739B
:10254D0002256502257D0225950225AC0225C302D3
:10255D0025DA0225F102260875FB1F53FCF875FBE1
:10256D001E53FCF875FB1D53FCF075FB1C02261D5C
:10257D0075FB1B53FCF875FB1A53FCF875FB1953CF
:10258D00FCF075FB1802261D75FB1753FCF875FB47
:10259D001653FCF875FB1553FCF075FB1480717523
:1025AD00FB1353FCF875FB1253FCF875FB1153FC30
:1025BD00F075FB10805A75FB0F53FCF875FB0E532D
:1025CD00FCF875FB0D53FCF075FB0C804375FB0B94
:1025DD0053FCF875FB0A53FCF875FB0953FCF075B9
:1025ED00FB08802C75FB0753FCF875FB0653FCF8B4
:1025FD0075FB0553FCF075FB04801575FB0353FC4F
:10260D00F875FB0253FCF875FB0153FCF0E4F5FB88
:04261D0053FCF02258
:0C376900E4FEAF0612253D0EEEB408F69B
:013775002231
:10099100EFD39407400302128AED64536004EDB46F
:1009A10073047D35801EEDB467047D398016EDB486
:1009B1006C047D4C800EEDB470047D508006EDB466
:1009C10078027D58ED1216330B7A200A78300AA28C
:1009D100310AC6320ADB330AF0340B05350B1A36FD
:1009E1000B2C370B53380B65390B7D410B8F420BA9
:1009F100B6430BD7440BFE450C1C460C43470C6415
:100A0100480C88490CAF4A0CD64B0CFA4C0D214DC1
:100A11000D4B4E0D754F0D9F500DC6510DF0520EE1
:100A21001E540E45550E6C560E9A570EC1580EDFC8
:100A3100590F065A0F30610F5A620F7E630FA5647A
:100A41000FCC650FFA6610216810456910696A10AC
:100A5100946B10BF6D10E56E110B6F113971116A36
:100A610072118D7411B87511DE761209771237790A
:100A7100125D7A0000128AEF25E025E0FEC3741FA3
:100A81009EF5FB43FC0553FCFDC3741E9EF5FB4321
:100A9100FC0553FCFDC3741D9EF5FB75FC0902109A
:100AA1008AEF25E025E0FEC3741F9EF5FB53FCF899
:100AB100C3741E9EF5FB53FCF8C3741D9EF5FB75B4
:100AC100FC0102108AEF25E025E0FEC3741F9EF5AC
:100AD100FB43FC0653FCFE020FDBEF25E025E0FEA5
:100AE100C3741F9EF5FB43FC0253FCFA020F42EF55
:100AF10025E025E0FEC3741F9EF5FB43FC0353FC78
:100B0100FB020C73EF25E025E0FEC3741F9EF5FB8D
:100B110043FC0353FCFB020C55EF25E025E0FEC32B
:100B2100741F9EF5FB43FC07020C55EF25E025E001
:100B3100FEC3741F9EF5FB53FCF8C3741E9EF5FBA8
:100B410043FC0153FCF9C3741D9EF5FBE4F5FC0263
:100B5100108AEF25E025E0FEC3741F9EF5FB43FCE0
:100B610007020F42EF25E025E0FEC3741F9EF5FB4F
:100B710043FC0353FCFB020F4202253DEF25E02518
:100B8100E0FEC3741F9EF5FB43FC0702114BEF25EA
:100B9100E025E0FEC3741F9EF5FB53FCF8C3741EF1
:100BA1009EF5FB43FC0153FCF9C3741D9EF5FB75D7
:100BB100FC0E021160EF25E025E0FEC3741F9EF5D7
:100BC100FB43FC0553FCFDC3741E9EF5FB43FC0176
:100BD10053FCF9020D15EF25E025E0FEC3741F9EBD
:100BE100F5FB53FCF8C3741E9EF5FB43FC0153FC5B
:100BF100F9C3741D9EF5FB75FC0E02108AEF25E00A
:100C010025E0FEC3741F9EF5FB43FC07C3741E9EC3
:100C1100F5FB43FC0153FCF9020F99EF25E025E0B8
:100C2100FEC3741F9EF5FB43FC07C3741E9EF5FBB8
:100C310043FC0153FCF9C3741D9EF5FBE4F5FC0272
:100C410011AEEF25E025E0FEC3741F9EF5FB43FCCA
:100C51000553FCFDC3741E9EF5FB43FC0153FCF9D7
:100C6100020F72EF25E025E0FEC3741F9EF5FB43E2
:100C7100FC07C3741E9EF5FB53FCF8C3741D9EF55F
:100C8100FBE4F5FC021160EF25E025E0FEC3741FD3
:100C91009EF5FB53FCF8C3741E9EF5FB43FC015308
:100CA100FCF9C3741D9EF5FB75FC0E021281EF2544
:100CB100E025E0FEC3741F9EF5FB43FC0453FCFCDE
:100CC100C3741E9EF5FB53FCF8C3741D9EF5FB75A2
:100CD100FC0802108AEF25E025E0FEC3741F9EF593
:100CE100FB43FC07C3741E9EF5FB53FCF8C3741D44
:100CF1009EF5FB75FC0102112FEF25E025E0FEC3F7
:100D0100741F9EF5FB43FC0553FCFDC3741E9EF549
:100D1100FB53FCF8C3741D9EF5FB75FC08021281A0
:100D2100EF25E025E0FEC3741F9EF5FB43FC055350
:100D3100FCFDC3741E9EF5FB43FC0253FCFAC37415
:100D41001D9EF5FB75FC0502108AEF25E025E0FEEE
:100D5100C3741F9EF5FB43FC0553FCFDC3741E9E2B
:100D6100F5FB43FC0153FCF9C3741D9EF5FBE4F54F
:100D7100FC02108AEF25E025E0FEC3741F9EF5FBFF
:100D810043FC0553FCFDC3741E9EF5FB43FC01535C
:100D9100FCF9C3741D9EF5FB75FC0802108AEF2552
:100DA100E025E0FEC3741F9EF5FB43FC07C3741EE0
:100DB1009EF5FB43FC0153FCF9C3741D9EF5FBE456
:100DC100F5FC020FF0EF25E025E0FEC3741F9EF550
:100DD100FB43FC0553FCFDC3741E9EF5FB43FC0164
:100DE10053FCF9C3741D9EF5FB75FC08020E90EFD0
:100DF10025E025E0FEC3741F9EF5FB43FC07C37489
:100E01001E9EF5FB43FC0153FCF9C3741D9EF5FBCB
:100E1100E4F5FCC3741C9EF5FB75FC0722EF25E08D
:100E210025E0FEC3741F9EF5FB53FCF8C3741E9EA0
:100E3100F5FB43FC0153FCF9C3741D9EF5FB75FCE6
:100E410006021281EF25E025E0FEC3741F9EF5FB2B
:100E510043FC0553FCFDC3741E9EF5FB53FCF8C314
:100E6100741D9EF5FB75FC0802108AEF25E025E054
:100E7100FEC3741F9EF5FB53FCF8C3741E9EF5FB65
:100E810043FC0253FCFAC3741D9EF5FBE4F5FCC35D
:100E9100741C9EF5FB75FC0D22EF25E025E0FEC3D9
:100EA100741F9EF5FB43FC0553FCFDC3741E9EF5A8
:100EB100FB53FCF8C3741D9EF5FB75FC0E02108AF2
:100EC100EF25E025E0FEC3741F9EF5FB53FCF8C33C
:100ED100741E9EF5FB43FC0653FCFE0210ACEF258D
:100EE100E025E0FEC3741F9EF5FB43FC0353FCFBAE
:100EF100C3741E9EF5FB53FCF8C3741D9EF5FB7570
:100F0100FC08021160EF25E025E0FEC3741F9EF589
:100F1100FB43FC0253FCFAC3741E9EF5FB43FC0524
:100F210053FCFDC3741D9EF5FB75FC090211AEEF68
:100F310025E025E0FEC3741F9EF5FB43FC0653FC30
:100F4100FEC3741E9EF5FB43FC0153FCF9C3741DE3
:100F51009EF5FB75FC08021160EF25E025E0FEC35C
:100F6100741F9EF5FB43FC07C3741E9EF5FB53FCE7
:100F7100F8C3741D9EF5FB75FC0802112FEF25E0E7
:100F810025E0FEC3741F9EF5FB43FC0653FCFEC324
:100F9100741E9EF5FB53FCF8C3741D9EF5FB75FC96
:100FA100080211AEEF25E025E0FEC3741F9EF5FB9C
:100FB10043FC0653FCFEC3741E9EF5FB53FCF8C3B1
:100FC100741D9EF5FB75FC08021160EF25E025E01C
:100FD100FEC3741F9EF5FB43FC07C3741E9EF5FB05
:100FE10043FC0153FCF9C3741D9EF5FB75FC08C35A
:100FF100741C9EF5FB75FC0322EF25E025E0FEC382
:10100100741F9EF5FB43FC07C3741E9EF5FB43FC56
:101011000153FCF9C3741D9EF5FBE4F5FC0212813A
:10102100EF25E025E0FEC3741F9EF5FB43FC07C3DB
:10103100741E9EF5FB53FCF8C3741D9EF5FBE4F58D
:10104100FC02112FEF25E025E0FEC3741F9EF5FB86
:1010510053FCF8C3741E9EF5FB53FCF8C3741D9E2C
:10106100F5FB75FC06021281EF25E025E0FEC37455
:101071001F9EF5FB53FCF8C3741E9EF5FB53FCF851
:10108100C3741D9EF5FB75FC08C3741C9EF5FB75AE
:10109100FC0922EF25E025E0FEC3741F9EF5FB430A
:1010A100FC07C3741E9EF5FB53FCF8C3741D9EF52B
:1010B100FB75FC01C3741C9EF5FB75FC0422EF2536
:1010C100E025E0FEC3741F9EF5FB43FC0653FCFEC6
:1010D100C3741E9EF5FB53FCF8C3741D9EF5FB758E
:1010E100FC04804AEF25E025E0FEC3741F9EF5FB5A
:1010F10043FC0653FCFEC3741E9EF5FB53FCF8C370
:10110100741D9EF5FBE4F5FC8024EF25E025E0FE4F
:10111100C3741F9EF5FB43FC0653FCFEC3741E9E65
:10112100F5FB53FCF8C3741D9EF5FB75FC08C374F5
:101131001C9EF5FB75FC0A22EF25E025E0FEC37439
:101141001F9EF5FB43FC0353FCFBC3741E9EF5FB82
:1011510043FC0153FCF9C3741D9EF5FBE4F5FCC38C
:10116100741C9EF5FB75FC0B22EF25E025E0FEC308
:10117100741F9EF5FB53FCF8C3741E9EF5FB53FCD4
:10118100F8C3741D9EF5FB75FC048021EF25E02555
:10119100E0FEC3741F9EF5FB43FC07C3741E9EF55E
:1011A100FB53FCF8C3741D9EF5FB75FC08C3741C4E
:1011B1009EF5FB75FC0222EF25E025E0FEC3741FBE
:1011C1009EF5FB43FC0453FCFCC3741E9EF5FB53CC
:1011D100FCF8C3741D9EF5FB75FC08804FEF25E0FC
:1011E10025E0FEC3741F9EF5FB53FCF8C3741E9EDD
:1011F100F5FB53FCF8C3741D9EF5FBE4F5FCC374C9
:101201001C9EF5FB75FC0C22EF25E025E0FEC37466
:101211001F9EF5FB43FC0453FCFCC3741E9EF5FBAF
:1012210053FCF8C3741D9EF5FB75FC0CC3741C9E26
:10123100F5FB75FC0822EF25E025E0FEC3741F9E37
:10124100F5FB53FCF8C3741E9EF5FB43FC0253FCF3
:10125100FAC3741D9EF5FB75FC058024EF25E0257E
:10126100E0FEC3741F9EF5FB53FCF8C3741E9EF58C
:10127100FB43FC0553FCFDC3741D9EF5FB75FC0986
:0A128100C3741C9EF5FBE4F5FC228B
:0B286900900018EBF0A3EAF0A3E9F0E8
:10287400E4A3F0FFC200E94A700302290A90001899
:10288400E0FBA3E0FAA3E0F91235B4EFC3940840E7
:102894002EE490001BF090001BE0FF900018E0FB7A
:1028A400A3E0FAA3E0F98F8275830012139AFD1254
:1028B400099190001BE004F0E0C3940840D822E49E
:1028C40090001BF090001BE0FFC3940850382000D8
:1028D40023900018E0FBA3E0FAA3E0F98F8275834C
:1028E4000012139AFD60028012D20090001BE0FFD8
:1028F4007D20800790001BE0FF7D2012099190004D
:062904001BE004F080BEA0
:01290A0022AA
:082B000041008E0041008F002E
:1034280012334A5389F75389FB5389FD4389019025
:10343800008E74FCF0A37466F0758CFCF58AD2A932
:03344800D28C2201
:10334A009000857401F0E4900087F0900089F09075
:10335A00008BF0A3F0900086F0900088F090008A2D
:06336A00F090008DF0223E
:03000B00022A289E
:102A2800C0E0C0F0C083C082C0D075D000C000C074
:102A38000690008EE0F58CA3E0F58A900085E0040E
:102A4800F0C394054005E4F0A304F0900087E00487
:102A5800F0C3940A4005E4F0A304F0900089E00470
:102A6800F0C394644005E4F0A304F090008BE4758F
:102A7800F00112141CFEC3E5F094E8EE9403400A3A
:102A880090008BE4F0A3F0A304F0D006D000D0D0DF
:092A9800D082D083D0F0D0E032EE
:1031E500E47815F60876030876FF0876030876FF77
:1031F50043E101F5E853B1FE53B2FE53B1FD53B2BD
:10320500FD43F60143F60253E1BF43E12053E1EFED
:03321500D2AE2214
:10344B007815E6600DE4F6C2EBC2EAC2E9C2E8D237
:10345B00EE2278157601C2EBC2EAC2E9D2E8D2EECF
:01346B00223E
:0937E60053B1DF43B2200238D5D3
:0338D500C2852287
:0338D800D2852274
:0338DB00B2852291
:0937EF0053B1BF43B2400238E1BE
:0338DE00C286227D
:0338E100D286226A
:103404000A6D679C46F6375D4521EFAC5A50010BB7
:10341400DF020A6D679C46F6375D4521EFAC5A50D2
:04342400E10BDF02D7
:082B0800450097CCCCCCCCCCED
:1035F10053B1EF43B21053ACEF43AD1053ACDF43C3
:03360100AD2022D7
:0138E70022BE
:1034AD00E4FEC284EF30E704D2838002C283EF25AD
:0E34BD00E0FF00D28400000EEEB408E6C284E8
:0134CB0022DE
:04360400E4FD7FFC66
:0F360800C2B4001234ADAF051234AD00D2B422FB
:0A307A007B019000187405F07F3F01
:0B308400900015EBF0A3EAF0A3E9F0C8
:10308F00C2B4E4FD1234AD900018E0FFEDC39F50C1
:10309F001A900015E0FBA3E0FAA3E0F98D82758387
:0D30AF000012139AFF1234AD0D80DCD2B474
:0130BC0022F1
:1033BB00E4FEC284EF30E704D2838002C283EF25A0
:1033CB00E0FF00D28400000EEEB408E643B10853D0
:0433DB00B2F7C284FF
:0133DF0022CB
:10353A00E4FFFEC284EF25E0FF00D2843083034417
:09354A0001FF0EEEB408ECC2848E
:013553002255
:10361700C2B4001233BB12353A53B1F743B20800B4
:02362700D2B41B
:01362900227E
:0B310000900003EBF0A3EAF0A3E9F05D
:10310B00C2B41233BBE4FD900006E0FFEDC39F5049
:10311B001A12353A900003E0FBA3E0FAA3E0F98D15
:10312B0082758300EF1213FA0D80DC53B1F743B2B3
:03313B0008D2B403
:01313E00226E
:0F3731001236047D8E7F20123608000000002221
:10337000E4FEFD7FFC1236087D8F7F20123608E4C4
:10338000FD7FFD123608E4FEFF000FBF00010EBEF8
:0533900007F7BFD0F4B7
:013395002215
:0A37AF007F07123617EF5470FF2257
:0638C8007F0912361722F1
:07389D007D707F2702360851
:0C378E00E4FD7FE11236087FE2023608FD
:0E374E00AC07123604AF04AD077F2502360823
:0630BD001237AFEF703C7A
:1030C300900002F0A3F0900018EDF07FA01230847E
:1030D300E4FD7FFD123608E4900002F0A3F00090B7
:1030E3000003E004F07006900002E004F090000298
:0C30F300E07004A3E064C870E51236042D
:0130FF0022AE
:1032D000AC051237AFEF30E61D123604900006EC55
:1032E000F07F6112310012378E12389DE4FD7FFDB0
:0932F0001236087F01227F002242
:1022070078027C007D017BFF7A3479047E007F05AC
:1022170012135B78077C007D017BFF7A3479097E96
:10222700007F0312135B780A7C007D017BFF7A3401
:10223700790C7E007F0612135B78107C007D017B92
:10224700FF7A3479127E007F0112135B78117C00CC
:102257007D017BFF7A3479137E007F0312135B12B3
:1022670038E77D5A7F531236087DA57F531236080B
:102277007D207F3D1236081236047FE11236087F33
:10228700E21236087D707F271236087D017F221201
:1022970036087D037F231236087D4E7F25123608C8
:1022A7007D107F311236087B017A007997900018EC
:1022B7007405F07F301230847B017A0079979000A3
:1022C700187405F07F2A1230847A00790212307A66
:1022D7007B017A00790A9000187406F07F3A123071
:1022E700847B017A0079109000187401F07F39120D
:1022F70030847B017A0079079000187403F07F3EE1
:102307001230847B017A0079119000187403F07FF2
:102317003B123084E4FD7F3C1236087D3F7F261256
:0E2327003608E4FD7F241236087F21023608B6
:05262100900040EFF005
:10262600E478417C007D017BFF7A347916FE7F05D4
:1026360012135B78467C007D017BFF7A34791B7E22
:10264600007F0312135B78497C007D017BFF7A349F
:10265600791E7E007F0612135B784F7C007D017B1E
:10266600FF7A3479247E007F0112135B78507C0058
:102676007D017BFF7A3479257E007F0312135B7D13
:102686005A7F531236087DA57F531236087D207F68
:102696003D123608123604E4FF000000000FEFB4C6
:1026A600DCF7900040E0FD7F251236087D3F7F264F
:1026B6001236087A00794112307A7B017A0079491C
:1026C6009000187406F07F3A1230847B017A007904
:1026D6004F9000187401F07F391230847B017A0024
:1026E60079469000187403F07F3E1230847B017A9D
:0E26F6000079509000187403F07F3B0230848E
:1020C200EF14604414606F147003022161147003F2
:1020D20002219D24046003022201A2AF9209C2AF31
:1020E20075C7AA75C755439780A20992AFA2AF924E
:1020F20009C2AF75C7AA75C7555397BFA20992AF58
:10210200E59630E7FB0221C8A2AF9209C2AF75C7BC
:10211200AA75C75553977FA20992AFA2AF9209C27F
:10212200AF75C7AA75C755439740A20992AFE59606
:1021320030E6FB0221C8A2AF9209C2AF75C7AA75E9
:10214200C755439720A20992AFE59630E5FBA2AFAF
:102152009209C2AF75C7AA75C7555396FB8027A2CD
:10216200AF9209C2AF75C7AA75C755439710A209A6
:1021720092AFE59630E4FBA2AF9209C2AF75C7AA4F
:1021820075C755439604A20992AFA2AF9209C2AF96
:1021920075C7AA75C7555396FD804DA2AF9209C265
:1021A200AF75C7AA75C75553977FA20992AFA2AF61
:1021B2009209C2AF75C7AA75C7555397BFA20992B4
:1021C200AFE59630E3FBA2AF9209C2AF75C7AA751D
:1021D200C7555396FBA20992AFA2AF9209C2AF753F
:1021E200C7AA75C755439602A20992AFA2AF920938
:1021F200C2AF75C7AA75C7555396FEA20992AFE53D
:052202009720E0FB2223
:1032F90075985243892053877F538EEF53C4DFABB0
:1033090007AA06A905A804E47F807E70FDFC1215B2
:0933190020EFF404F58DD28E22A0
:10332200759852438920438780538EEF53C4DFAB95
:1033320007AA06A905A804E4FF7EE1FDFC121520F8
:08334200EFF404F58DD28E2298
:10327C0075985243892053877F438E1053C4DFAB1C
:10328C0007AA06A905A8047F007E467D057C0012CE
:0A329C001520EFF404F58DD28E2208
:1032A600759852438920438780438E1053C4DFAB01
:1032B60007AA06A905A8047F007E8C7D0A7C001259
:0A32C6001520EFF404F58DD28E22DE
:102C4C0090009C1215D675985253877F53C4F84345
:102C5C00C42090009CE0F8A3E0F9A3E0FAA3E0FB09
:102C6C007F007E467D057C00121520C3E49FFFE4A7
:102C7C009EFE74019DFDE49CFC78081215C38FC662
:102C8C0090009CE0F8A3E0F9A3E0FAA3E0FB7F003E
:102C9C007E467D057C00121520C3E49FFF8FC54343
:032CAC00C4082237
:102CAF009000A01215D675985243878053C4F843ED
:102CBF00C4209000A0E0F8A3E0F9A3E0FAA3E0FBA2
:102CCF007F007E8C7D0A7C00121520C3E49FFFE4F9
:102CDF009EFE74019DFDE49CFC78081215C38FC6FF
:102CEF009000A0E0F8A3E0F9A3E0FAA3E0FB7F00D7
:102CFF007E8C7D0A7C00121520C3E49FFF8FC54395
:032D0F00C40822D3
:102DD2009000A41215D675F85253C4F89000A4E0DE
:102DE200F8A3E0F9A3E0FAA3E0FB7F007E8C7D0A62
:102DF2007C00121520C3E49FFFE49EFE74019DFD3A
:102E0200E49CFC78081215C38FC69000A4E0F8A3D6
:102E1200E0F9A3E0FAA3E0FB7F007E8C7D0A7C0050
:0D2E2200121520C3E49FFF8FC543C4082292
:0737F8003098FDAF99C29863
:0137FF0022A7
:08380000C2998F993099FD2255
:0738080030F8FDAF9AC2F891
:01380F002296
:08381000C2F98F9A30F9FD2284
:10355400E4F5B1F5B2F5B3F5B4F5B5F5B6F5ACF5FA
:0A356400ADF5DAF5DBF5DCF5DD224C
:10348D0075B1FFE4F5B275B3FFF5B475B5FFF5B6DB
:10349D0075ACFFF5AD75DAFFF5DB75DCFFF5DD22FB
:10356E0075C7AA75C755A2AF9209C2AF75C7AA751E
:0A357E00C755439F80A20992AF22B7
:0438CE0043AD802264
:10313F00EF640A701C30F811E59AB4130CC2F83022
:10314F00F8FDE59AB411F6C2F830F9FDC2F9759A97
:10315F000D30F811E59AB4130CC2F830F8FDE59A6A
:0D316F00B411F6C2F830F9FDC2F98F9A22B2
:0629A50090FFF812165F1E
:1029AB00850D83850E821215E200000000E47FFF87
:1029BB007EFFFDFC850D83850E82E0F8A3E0F9A375
:1029CB00E0FAA3E0FBC31215B2504C9000041216B0
:1029DB0083E0FCA3E0FDA3E0FEA3E02401FFE43EC3
:1029EB00FEE43DFDE43CFC9000041216831215D668
:1029FB00850D83850E82E0FCA3E0FDA3E0FEA3E042
:102A0B002401FFE43EFEE43DFDE43CFC850D8385A3
:072A1B000E821215D6809611
:062A220090000802165F9F
:10346C00538EF7438901D28CEF4E6012758AF77533
:10347C008CFF308DFDC28DEF1F70ED1E80EAC28C6B
:01348C00221D
:102EE6009000A81215D6538EF7438901D28CE4FFC1
:102EF600FEFDFC9000A8E0F8A3E0F9A3E0FAA3E049
:102F0600FBC31215B2602F758A65758CFC308DFD7A
:102F1600C28D9000A8E0FCA3E0FDA3E0FEA3E024A0
:102F2600FFFFEE34FFFEED34FFFDEC34FFFC9000B6
:092F3600A81215D680B8C28C2245
:102F3F009000AC1215D6538EEF438910D28EE4FF5A
:102F4F00FEFDFC9000ACE0F8A3E0F9A3E0FAA3E0EB
:102F5F00FBC31215B2602F758B65758DFC308FFD1D
:102F6F00C28F9000ACE0FCA3E0FDA3E0FEA3E02441
:102F7F00FFFFEE34FFFEED34FFFDEC34FFFC90005D
:092F8F00AC1215D680B8C28E22E6
:102E8B009000B01215D675C40243C408E4FFFEFDD2
:102E9B00FC9000B0E0F8A3E0F9A3E0FAA3E0FBC3D9
:102EAB001215B2603275C53375C6F5E5C430E4FB57
:102EBB0053C4EF9000B0E0FCA3E0FDA3E0FEA3E061
:102ECB0024FFFFEE34FFFEED34FFFDEC34FFFC90EE
:0B2EDB0000B01215D680B553C4F722DA
:102D12009000B41215D6538FFB538FFD538FFEE4F0
:102D2200F586538FDF438F08E4FFFEFDFC9000B46D
:102D3200E0F8A3E0F9A3E0FAA3E0FBC31215B26046
:102D42002CE58F30E4FB538FEF9000B4E0FCA3E05E
:102D5200FDA3E0FEA3E024FFFFEE34FFFEED34FF0F
:102D6200FDEC34FFFC9000B41215D680BB538FF7F4
:012D7200223E
:102335000A3D3D3D3D3D3D3D3D3D3D3D3D3D3D3DFB
:102345003D3D3D3D3D3D3D3D3D3D3D3D3D3D3D3DB8
:102355003D3D3D3D3D3D3D3D3D3D3D3D3D3D3D3DA8
:102365003D3D3D3D3D3D3D3D3D3D3D3D3D3D3D3D98
:102375003D3D3D3D3D000A2A2020436F707972693D
:102385006768742863292032303135204E75766FA1
:10239500746F6E20546563686E6F6C6F6779204348
:1023A5006F72702E20416C6C20726967687473209F
:1023B50072657365727665642E2020000A2A2020D6
:1023C500436F6E7461637420452D4D61696C3A20CD
:1023D5004D6963726F432D38626974406E75766F0F
:1023E500746F6E2E636F6D2020202020202020200A
:1023F50020202020202020202020202020202020D8
:1024050020000A2A202044656D6F20566572736985
:102415006F6E20203A202532642E2532642E253217
:1024250064000A2A202046696E6973686564204441
:10243500617465203A202532642E2532642E2532BA
:02244500640031
:102D73007BFF7A237935121C747BFF7A23797B12CC
:102D83001C747BFF7A2379C1121C747BFF7A24792C
:102D93000790001BE4F0A304F0E4A3F0A3F0A3F076
:102DA300A3F0121C747BFF7A24792790001B74070D
:102DB300F0A374DFF0A3E4F0A37405F0A3E4F0A39D
:0F2DC300741FF0121C747BFF7A237935021C7485
:0300000002290BC7
:10290B00787FE4F6D8FD9000007FFF7E01E4F0A312
:0A291B00DFFCDEFA7581BD022960C1
:10292500022B11E493A3F8E493A34003F68001F28C
:1029350008DFF48029E493A3F85407240CC8C333B3
:10294500C4540F4420C8834004F456800146F6DF82
:10295500E4800B0102040810204080902AA1E47E47
:10296500019360BCA3FF543F30E509541FFEE49377
:10297500A360010ECF54C025E060A840B8E493A33E
:10298500FAE493A3F8E493A3C8C582C8CAC583CA69
:10299500F0A3C8C582C8CAC583CADFE9DEE780BE21
:012B100000C4
:10128B00E709F608DFFA8046E709F208DFFA803E45
:10129B0088828C83E709F0A3DFFA8032E309F60832
:1012AB00DFFA8078E309F208DFFA807088828C839A
:1012BB00E309F0A3DFFA806489828A83E0A3F6084E
:1012CB00DFFA805889828A83E0A3F208DFFA804C28
:1012DB0080D280FA80C680D4806980F280338010FF
:1012EB0080A680EA809A80A880DA80E280CA803368
:1012FB0089828A83ECFAE493A3C8C582C8CCC583E0
:10130B00CCF0A3C8C582C8CCC583CCDFE9DEE780AF
:10131B000D89828A83E493A3F608DFF9ECFAA9F02E
:10132B00EDFB2289828A83ECFAE0A3C8C582C8CC84
:10133B00C583CCF0A3C8C582C8CCC583CCDFEADE9D
:10134B00E880DB89828A83E493A3F208DFF980CCFF
:10135B0088F0EF60010E4E60C388F0ED2402B404F8
:10136B000050B9F582EB2402B4040050AF2323459F
:06137B0082239012DB73D7
:10138100BB010689828A83E0225002E722BBFE026A
:09139100E32289828A83E493229D
:10139A00BB010CE58229F582E5833AF583E0225008
:1013AA0006E92582F8E622BBFE06E92582F8E22252
:0D13BA00E58229F582E5833AF583E493226C
:1013C700BB010FF8E58229F582E5833AF583E0282A
:1013D700F0225009C58229F8E58226F622BBFE09CC
:1013E700C58229F8E22582F222F8EA2583F583E906
:0313F70093282216
:1013FA00F8BB010DE58229F582E5833AF583E8F029
:10140A00225006E92582C8F622BBFE05E92582C8D4
:02141A00F222BC
:10141C00C5F0F8A3E028F0C5F0F8E582158270025B
:06142C001583E038F022F8
:10143200BB0110E58229F582E5833AF583E0F5F0F8
:10144200A3E0225009E92582F886F008E622BBFED5
:101452000AE92582F8E2F5F008E222E5832AF5831B
:08146200E993F5F0A3E99322E0
:10146A00BB010DC58229C582C5833AC58302141CF6
:10147A005011C58229F808E5F026F618F5F0E5823C
:10148A0036F622BBFE11C58229F808E225F0F5F0EE
:10149A00F218E23582F222F8E58229F582E5832AFA
:0D14AA00F58374019325F0F5F0E4933822EA
:1014B700F8BB0111E58229F582E5833AF583E8F067
:1014C700E5F0A3F0225009E92582C8F608A6F02224
:0D14D700BBFE09E92582C8F2E5F008F2220B
:1014E40075F008758200EF2FFFEE33FECD33CDCCBF
:1014F40033CCC58233C5829BED9AEC99E582984042
:101504000CF582EE9BFEED9AFDEC99FC0FD5F0D61E
:10151400E4CEFBE4CDFAE4CCF9A88222B800C1B948
:101524000059BA002DEC8BF084CFCECDFCE5F0CB86
:10153400F97818EF2FFFEE33FEED33FDEC33FCEBBF
:1015440033FB10D703994004EB99FB0FD8E5E4F97A
:10155400FA227818EF2FFFEE33FEED33FDEC33FC67
:10156400C933C910D7059BE99A4007EC9BFCE99A5B
:10157400F90FD8E0E4C9FAE4CCFB2275F010EF2FA0
:10158400FFEE33FEED33FDCC33CCC833C810D707A0
:101594009BEC9AE899400AED9BFDEC9AFCE899F8DB
:0E15A4000FD5F0DAE4CDFBE4CCFAE4C8F9226E
:1015B200EB9FF5F0EA9E42F0E99D42F0E89C45F08F
:0115C2002206
:1015C300E8600FECC313FCED13FDEE13FEEF13FF06
:0315D300D8F1222A
:0C15D600ECF0A3EDF0A3EEF0A3EFF02288
:1015E200A8828583F0D083D0821215F91215F912E0
:1015F20015F91215F9E473E493A3C583C5F0C58305
:10160200C8C582C8F0A3C583C5F0C583C8C582C852
:0116120022B5
:10161300BB010789828A830217D65005E9F80217AE
:10162300CDBBFE05E9F80217FF89828A83021808F9
:10163300D083D082F8E4937012740193700DA3A346
:1016430093F8740193F5828883E47374029368605A
:06165300EFA3A3A380DF5A
:061659008A838982E4731C
:10165F00E50E2582F582E50D3583F583B50D0485FD
:10166F00820E2210AF0685820EF50D2285820EF5B1
:04167F000DD2AF22B7
:0D168300E50E2582F582E50D3583F5832205
:101C0900E508241BF582E43400F583E005082290F9
:101C1900001830070390001BE475F0011217DF026A
:101C290013812000E97F2ED2008018EF540F2490F1
:101C3900D43440D4FF30040BEF24BFB41A0050034E
:101C49002461FFE50960021509050CE50C70020520
:101C59000B30070E900018E475F0011217DFEF0240
:101C690017A502313F7403D2078003E4C207F508C0
:101C79009000181217F6E4F509F50BF50CE5096063
:101C8900077F20121C4C80F5750AFFC201C200C2F1
:101C990002C203C205C206C208121C18FF700D3029
:101CA90007057F00121C5DAF0CAE0B22B4255FC285
:101CB900D5C204121C18FF24D0B40A00501A75F0BA
:101CC9000A780930D50508B6FF0106C6A426F6200C
:101CD900D5047002D20380D924CFB41A00EF50047E
:101CE900C2E5D204021E5ED20180C6D20080C0D2F3
:101CF9000280BCD2D580BAD20580B47F20121C4C98
:101D09002002077401B5090040F1121C09FF121CD9
:101D19004C021C86D208D2068095121C09FB121CA3
:101D290009FA121C09F94A4B7006792F7A1F7BFFB1
:101D390020022EE509602A7E008E82758300121327
:101D49009A60060EEE650A70F0C2D5EBC0E0EAC0F3
:101D5900E0E9C0E0EE121EA5D0E0F9D0E0FAD0E04B
:101D6900FB121381FF60AAEBC0E0EAC0E0E9C0E022
:101D7900121C4CD0E02401F9D0E03400FAD0E0FB89
:101D8900E50A0460DCD50AD980877BFF7A1E79A130
:101D9900D202809C791080027908C206C2088008A4
:101DA900D2D5790A8004790AC2D5E50A047002F508
:101DB9000AE4FAFDFEFF121C09FC7B08200113123C
:101DC9001C09FD7B1030000A121C09FE121C09FFB8
:101DD9007B20EC3382D592D55013C3E43000069FA3
:101DE900FFE49EFEE42001039DFDE49CFCE4CBF8A6
:101DF900C201EC700CCFCECDCCE824F8F870F3809A
:101E090017C3EF33FFEE33FEED33FDEC33FCEB3359
:101E1900FB994002FB0FD8E9EB300105F8D0E0C48B
:101E290048B201C0E00AEC4D4E4F78207B0070C2E9
:101E3900EAB50A0040BCC0E0121EA7D0F0D0E020ED
:101E49000104C4C0E0C4B201C0F0121C35D0F0D501
:101E5900F0EB021C861216331D23531D9D581CF4EA
:101E69004C1CF0421DA14F1DA9441DA9491D094340
:081E79001DAF551D93461D939A
:101E8100451D93471F4F501CF82D1CFC2E1D1F2B69
:101E91001D00231D1D201F382A1CB84800001D17D6
:101EA1003F3F3F00790AA2D5200314300509B9103C
:101EB100020404B9080104A2D5200602500104203D
:101EC10002689202B509005034C0E07F2030031946
:101ED1007F30A20272067205500F121EFEC202C2AC
:101EE10006C205C2087F30800F300503E9C0E01249
:101EF1001C4C300503D0E0F9D0E0B509CC30051712
:101F01007F30B9100C121C4C7F583004077F788049
:101F110003B90803121C4C3002057F2D021C4C7FB3
:101F2100202008F87F2B2006F322920280CF286E12
:101F3100756C6C2900D201121C093001F8C20178BC
:101F41000930D50108F6021CB82D50434958121C1E
:101F5100092403B405004001E4901F4A93121C3D7B
:0D1F6100743A121C3DD203750904021D9D47
:10169000E709F60870FA8046E709F20870FA803E1A
:1016A00088828C83E709F0A370FA807EE309F6084C
:1016B00070FA8076E309F20870FA806E88828C8373
:1016C000E309F0A370FA806289828A83E0A3F608B6
:1016D00070FA805689828A83E0A3F20870FA804A01
:1016E00080D280FA80C680D4806580F280318010FC
:1016F00080A680EA809A80A880DA80E280CA803161
:1017000089828A83ECFAE493A3C8C582C8CCC583D6
:10171000CCF0A3C8C582C8CCC583CC70E9800D8944
:10172000828A83E493A3F60870F9ECFAA9F0EDFB42
:101730002289828A83ECFAE0A3C8C582C8CCC5831B
:10174000CCF0A3C8C582C8CCC583CC70EA80DD8943
:10175000828A83E493A3F20870F980CE88F0ED24A6
:1017600002B4040050C4F582EB2402B4040050BA61
:0917700023234582239016E07347
:102B7D0090000CEBF0A3EAF0A3E9F0E4900014F060
:102B8D00A3F090001274FFF5F01217B745F0603CFA
:102B9D0090000FE0FBA3E0FAA3E0F9121381FF9080
:102BAD00000CE0FBA3E0FAA3E0F9900014E475F04B
:102BBD00011217B785F082F583EF1213FAEF60C299
:102BCD00900010E475F00112141C80B690000CE01A
:082BDD00FBA3E0FAA3E0F922DA
:1035B400E4FFFE121381600C0FEF70010E09E97035
:0535C400F20A80EF2275
:10177900EF4E6012EF60010EEDBB010B89828A8387
:10178900F0A3DFFCDEFA2289F05007F709DFFCA994
:0C179900F022BBFEFCF309DFFCA9F022EB
:1017A500BB010689828A83F0225002F722BBFE0123
:0217B500F3221D
:1017B700A3F8E0C5F025F0F0E582158270021583E5
:0617C700E0C838F0E82242
:0917CD00E6FB08E6FA08E6F92241
:0917D600E0FBA3E0FAA3E0F92214
:1017DF00F8E0FBA3A3E0F925F0F0E5821582700293
:0717EF001583E0FA38F02237
:0917F600EBF0A3EAF0A3E9F022F4
:0917FF00E2FB08E2FA08E2F9221B
:0C180800E493FB740193FA740293F9223C
:00000001FF
