:042F0B004100C800B9
:03005B0002349ECE
:10349E00C0E0C0D075D000C000C001C005C006C0DD
:1034AE0007C2EFAFC37819E6FD25E0241AF87600BF
:1034BE0008A607ED25E0241AF8C000F9E7FE09E793
:1034CE007802C333CE33CED8F9D000A60608F6ED77
:1034DE0025E0241AF8AFC2E6F6EF0846F6D007D07C
:0C34EE0006D005D001D000D0D0D0E032D4
:103112007F02122562123CE6E478C5F6123F7E1267
:103122003DD7123D6A900089E06005E4F0123C2B25
:1031320090008BE06008E4F0123D01122F919000A4
:043142008DE0601D9F
:10314600E4900001F090008DF0122C6F1238679019
:0D31560000C8E004F0E0C394054002E4F07E
:10316300900090E06005E4F0123555123CAE9000FB
:0C31730000EFF060AFE0FF12153980A8FB
:093FCB0020434F4E4E45435400C3
:042F0F004100C900B4
:05153900900002EFF03C
:10153E00E4A3F0A3F0900003F0FE7F10FDFB7A0011
:10154E00799D12200E900002E024FEB41D0040038F
:10155E00021B0890156F75F003A4C58325F0C58393
:10156E00730215C6021627021683021B080216D92D
:10157E0002172F021B080217850217DB021B080237
:10158E001831021887021B080218DD021933021BDC
:10159E0008021B08021993021B080219E9021B0814
:1015AE00021A3F021B08021B08021A95021B0802B0
:1015BE001B08021B08021AE89000C9E07053900045
:1015CE0003E0FF04F0749D2FF876F2E0FF04F07450
:1015DE009D2FF87601E0FF04F0749D2FF87654E409
:1015EE00A3F0789EE62401FFE433FE900004E0FDB4
:1015FE00C39FEE6480F87480985016749E2DF8E6A2
:10160E00FF900003E0249DF8EF26F6A3E004F0809F
:10161E00D1E49000C9F0021B089000C97401F0904B
:10162E000003E0FF04F0749D2FF876F2E0FF04F063
:10163E00749D2FF87601E0FF04F0749D2FF876016B
:10164E00E4A3F0789EE62401FFE433FE900004E06C
:10165E00FDC39FEE6480F87480984003021B0874EB
:10166E009E2DF8E6FF900003E0249DF8EF26F6A3EA
:10167E00E004F080CE900003E0FF04F0749D2FF89C
:10168E0076F2E0FF04F0749D2FF87601E0FF04F08F
:10169E00749D2FF87606E4A3F0789EE62401FFE40D
:1016AE0033FE900004E0FDC39FEE6480F8748098D2
:1016BE004003021B08749E2DF8E6FF900003E02401
:1016CE009DF8EF26F6A3E004F080CE900003E0FF35
:1016DE0004F0749D2FF876F2E0FF04F0749D2FF85D
:1016EE007601E0FF04F0749D2FF87607E4A3F078FE
:1016FE009EE62401FFE433FE900004E0FDC39FEE5E
:10170E006480F87480984003021B08749E2DF8E6DE
:10171E00FF900003E0249DF8EF26F6A3E004F0808E
:10172E00CE900003E0FF04F0749D2FF876F2E0FFF8
:10173E0004F0749D2FF87601E0FF04F0749D2FF8ED
:10174E007603E4A3F0789EE62401FFE433FE9000D6
:10175E0004E0FDC39FEE6480F87480984003021B82
:10176E0008749E2DF8E6FF900003E0249DF8EF2606
:10177E00F6A3E004F080CE900003E0FF04F0749D29
:10178E002FF876F2E0FF04F0749D2FF87601E0FF5B
:10179E0004F0749D2FF87603E4A3F0789EE62401FE
:1017AE00FFE433FE900004E0FDC39FEE6480F87406
:1017BE0080984003021B08749E2DF8E6FF900003EC
:1017CE00E0249DF8EF26F6A3E004F080CE9000030F
:1017DE00E0FF04F0749D2FF876F2E0FF04F0749DA4
:1017EE002FF87601E0FF04F0749D2FF87602E4A343
:1017FE00F0789EE62401FFE433FE900004E0FDC382
:10180E009FEE6480F87480984003021B08749E2D2E
:10181E00F8E6FF900003E0249DF8EF26F6A3E0041F
:10182E00F080CE900003E0FF04F0749D2FF876F266
:10183E00E0FF04F0749D2FF87601E0FF04F0749D34
:10184E002FF87602E4A3F0789EE62401FFE433FE3F
:10185E00900004E0FDC39FEE6480F874809840030E
:10186E00021B08749E2DF8E6FF900003E0249DF8FD
:10187E00EF26F6A3E004F080CE900003E0FF04F024
:10188E00749D2FF876F2E0FF04F0749D2FF8760128
:10189E00E0FF04F0749D2FF87604E4A3F0789EE642
:1018AE002401FFE433FE900004E0FDC39FEE64804C
:1018BE00F87480984003021B08749E2DF8E6FF9082
:1018CE000003E0249DF8EF26F6A3E004F080CE900E
:1018DE000003E0FF04F0749D2FF876F2E0FF04F0B1
:1018EE00749D2FF87601E0FF04F0749D2FF87604B6
:1018FE00E4A3F0789EE62401FFE433FE900004E0BA
:10190E00FDC39FEE6480F87480984003021B087438
:10191E009E2DF8E6FF900003E0249DF8EF26F6A337
:10192E00E004F080CE900003E0FF04F0749D2FF8E9
:10193E0076F2E0FF04F0749D2FF87602E0FF04F0DB
:10194E00749D2FF87609E0FF04F0749D2FF876034E
:10195E00E4A3F0789EE62401FFE433FE900004E059
:10196E00FDC39FEE6480F87480984003021B0874D8
:10197E009E2DF8E6FF900003E0249DF8EF26F6A3D7
:10198E00E004F080CE900003E0FF04F0749D2FF889
:10199E0076F2E0FF04F0749D2FF87601E0FF04F07C
:1019AE00749D2FF87605E4A3F0789EE62401FFE4FB
:1019BE0033FE900004E0FDC39FEE6480F8748098BF
:1019CE004003021B08749E2DF8E6FF900003E024EE
:1019DE009DF8EF26F6A3E004F080CE900003E0FF22
:1019EE0004F0749D2FF876F2E0FF04F0749D2FF84A
:1019FE007601E0FF04F0749D2FF87605E4A3F078ED
:101A0E009EE62401FFE433FE900004E0FDC39FEE4A
:101A1E006480F87480984003021B08749E2DF8E6CB
:101A2E00FF900003E0249DF8EF26F6A3E004F0807B
:101A3E00CE900003E0FF04F0749D2FF876F2E0FFE5
:101A4E0004F0749D2FF87601E0FF04F0749D2FF8DA
:101A5E007608E4A3F0789EE62401FFE433FE9000BE
:101A6E0004E0FDC39FEE6480F87480984003021B6F
:101A7E0008749E2DF8E6FF900003E0249DF8EF26F3
:101A8E00F6A3E004F080CE900003E0FF04F0749D16
:101A9E002FF876F2E0FF04F0749D2FF87601E0FF48
:101AAE0004F0749D2FF876B9E4A3F0789EE6240135
:101ABE00FFE433FE900004E0FDC39FEE6480F874F3
:101ACE0080985036749E2DF8E6FF900003E0249D1A
:101ADE00F8EF26F6A3E004F080D178C5760112392E
:101AEE00247BFF7A3F79CB122DCF7BFF7A3F79CBC8
:101AFE00E490000EF07D081236B7900003E06011FE
:101B0E0004F078C5E6700AFB7A00799DE0FD123785
:011B1E000ABC
:011B1F0022A3
:103E38004F4646204C494E450020505752204F4689
:023E4800460032
:082F13004100C7004100C600A7
:103D6A00E49000C7F09000C6F0FE7F08FDFB7A00E1
:083D7A0079BE12200E02408404
:1035550078C5E660239000C6E004F0E0D3942D40E2
:103565001CE4F6123F7E7BFF7A3E7938E490000E2C
:10357500F07D081236B78005E49000C6F09000C7CC
:10358500E004F0E0B40622123DC3123F4C12408421
:103595007BFF7A3E7941122DCF7BFF7A3E7941E45C
:0A35A50090000EF07D081236B722E8
:0140F50022A8
:0640AE00E49000C7F022BF
:0140F60022A7
:0C3F6600900061EBF0A3EAF0A3E9F02268
:0C3F7200900064EBF0A3EAF0A3E9F02259
:103E5C00900061A3E0FAA3E0F94A6003121EEE227F
:103E6C00900064A3E0FAA3E0F94A6003121EEE226C
:1039F800EF4E602D900057EEF0A3EFF0AF05A3EC6B
:103A0800F0A3EFF0AF03A3EAF0A3EFF0E4A3F0A371
:103A1800F0A3F0A3F0900056F090005504F0123E89
:023A28005C221E
:103DC300E4900055F0123E6C7B007A007900123FBC
:043DD30066023F72D3
:0A3FB700900055E06002D322C322FF
:102C6F00900055E07003022D23900059E0FEA3E081
:102C7F00FF4E7003022D23900056E07035D3EF9472
:102C8F0000EE94005003022D2390005DE475F001D7
:102C9F00121CB1FED3900058E095F0900057E09EC3
:102CAF005072123E6CE490005DF0A3F09000560459
:102CBF00F022900056E06401705A90005D75F001AB
:102CCF00121CB1FED390005AE095F0900059E09E8F
:102CDF00504290005BE0FEA3E0FF9400EE940040B2
:102CEF002590005FE475F001121CB1FCD3EF95F055
:102CFF00EE9C5005E4900055F0900055E070079061
:102D0F000059F0A3F022E490005DF0A3F09000567C
:052D1F00F0123E5C22F1
:1028E7002042415A4F4F4B410020505752204F46EC
:1028F7004600414343204F4E00414343204F464645
:102907000020564F4C202575002020202020202015
:1029170020002020205041555345002020204D55B0
:10292700544520002020204E4558542000202020C8
:10293700505245562000202020205354257500541E
:1029470052202575004D41544348204F4B002050DD
:10295700414952494E4700202050414952454400C1
:10296700545753205343414E002020545753204F70
:102977004B00202020202025752530327500534339
:10298700414E4E494E470020202020504C415900CF
:102997002020202025752530327500464D202575CD
:1029A700257500464D20202575257500464D2020AC
:1029B700202575257500505249524544005041491C
:1029C70052494E4700504C4159004D55544500005F
:1029D70000000000000000000000000000000000F0
:0929E700000000000000000000E7
:102F1B0001AD0010AE00000000000000000000003A
:102F2B000000000000109D000000000000000000E9
:102F3B0000000000000000500078000000000000BE
:0C2F4B0000000000000000000000C109B0
:103B7600E478ADF6FE7F10FDFB7A0079AE12200EDA
:103B86007E007F107D007B007A00799D12200E1248
:053B960026A7023B50D0
:0B375B0090000AEBF0A3EAF0A3E9F0F5
:10376600E4A3F0F090000DE0FFC394055029EF2488
:1037760080FFE43447FE1240DE90000AE0FBA3E03F
:10378600FAA3E0F9A3E0F582758300EF121C8F908F
:07379600000DE004F080CDFE
:01379D002209
:1039240078937C007D017B017A0079987E007F0585
:10393400121BF0E478ADF6FE7F10FDFB7A0079AE41
:1039440012200E7E007F107D007B007A00799D128C
:08395400200E1226A7023B50D1
:0C3F7E007B017A00799312375B023B76DE
:10370A00900005EBF0A3EAF0A3E9F0A3EDF0D3945F
:10371A0010503D123F2178AD7601900005E0FBA3E1
:10372A00E0FAA3E0F990009DEB7008E96582700366
:10373A00EA6583601B900008E0FF7E00789D7C00AC
:10374A007D00900005E0FBA3E0FAA3E0F9121BF06C
:01375A00224C
:103D820078BFE67BFF30E1067A2879E780047A285B
:063D920079F0122DCF2292
:103D980078BFE67BFF30E0067A2879F980047A2933
:063DA8007900122DCF226C
:10379E00780A7C007D017BFF7A2979D67E007F1026
:1037AE00121BF012408B12409990001D74FFF0A373
:1037BE007429F0A37408F078C0E6FFA3E4F0A3EF39
:1037CE00F07B017A00790A12210E7B017A00790AC8
:0337DE00022DCFEA
:0F3E7C007BFF7A297910122DCF12408B024099CB
:093FD4007BFF7A297919022DCF37
:093FDD007BFF7A297922022DCF25
:0F3E8B007BFF7A297919122DCF12408B024099B3
:0F3E9A007BFF7A29792B122DCF12408B02409992
:0F3EA9007BFF7A297934122DCF12408B0240997A
:1039920090001D74FFF0A37429F0A3743DF078C267
:1039A200E6FFA3E4F0A3EFF07B017A00797812211D
:1039B2000E7B017A007978122DCF12406F12408B64
:0339C2000240A020
:103A2A0090001D74FFF0A37429F0A37446F078C3C4
:103A3A00E6FF08E6A3CFF0A3EFF07B017A007978DE
:103A4A0012210E7B017A007978122DCF12408B0257
:023A5A00409991
:0F3EB8007B017A007978122DCF12408B0240994E
:0F3EC7007BFF7A297910122DCF12408B02409980
:0B005E00900003EBF0A3EAF0A3E9F030
:10006900E4A3F0A3F0A3F0121C1664F86003020CD9
:100079003E900003E0FBA3E0FAA3E0F9900001122F
:100089001C2FD394104003020C3EE4900006F0901C
:100099000003E0FBA3E0FAA3E0F9900001121C2F92
:1000A9002401FFE433FE900006E0FDC39FEE648067
:1000B900F8748098501DED2401FFE433FE8F828E81
:1000C90083121C2FFF900008E02FF0900006E00437
:1000D900F080BC900003E0FBA3E0FAA3E0F99000F4
:1000E90001121C2FF582758300A3A3121C2FFF9008
:1000F9000008E06F6003020C3E7E007F107D007BEC
:10010900007A00799D12200EE4900007F01240AEAB
:10011900900003E0FBA3E0FAA3E0F9900002121CAF
:100129002F121EC80918010A92020AE90309970940
:1001390002F631038333049E340675350789360880
:10014900213708E3380B444109DCB90233E0015E89
:05015900FE00000C3661
:10015E00E4900009F0780F7C00FD7BFF7A2979E6A8
:10016E00FE7F05121BF078147C007D007BFF7A2940
:10017E0079EB7E007F05121BF07E007F057D007BF4
:10018E00007A00790F12200E7E007F057D007B0025
:10019E007A00791412200E7B007A00790F12375BE9
:1001AE00900003E0FBA3E0FAA3E02403F9E43AFA9B
:1001BE0078147C007D007E007F05121BF0900009F4
:1001CE007401F0E4900006F0900006E0FF240FF9B1
:1001DE0074142FF8E6676007E4900009F0800A9027
:1001EE000006E004F0E0B405DF900009E07026FFA1
:1001FE00FE123F96E4900006F0900006E004F0E058
:10020E00B4FDF67B007A00791490000F7405F0E4CB
:10021E00FFFE123661E478C5F6123F7E7BFF7A2927
:02022E00794C09
:10023000020A8212403012406F124037124061129F
:100240004053124045900003E0FBA3E0FAA3E0F91D
:10025000900003121C2F24FE600F14601114601311
:100260002403701212404C800D12403E8008124050
:1002700068800312405A7E007F107D007B017A0067
:10028000797812200E900003E0FBA3E0FAA3E024AB
:1002900004F9E43AFA78787C007D017E007F081248
:1002A0001BF07B017A007978123DAEAD077B017AB5
:1002B000007978E490000EF01236B7900003E0FB6E
:1002C000A3E0FAA3E0F990000C121C2F601D7BFF45
:1002D0007A3E79B8123F667BFF7A3E79C7123F7249
:1002E000123FB75003020C36020502123FB740031B
:1002F000020C360205E1123DC312409912408B12E6
:10030000406F124037124061124053124045900036
:1003100003E0FBA3E0FAA3E0F9900003121C2F64B2
:1003200001702578BFE64402F67BFF7A3D798212A0
:100330003F667B007A007900123F727B017A007D74
:10034000017C007F50020AE5900003E0FBA3E0FA85
:10035000A3E0F9900003121C2F64026003020C3624
:1003600078BFE654FDF67BFF7A3D7982123F667BCB
:10037000007A007900123F72E4FBFA7D01FC7F14E1
:10038000020A6E900003E0FBA3E0FAA3E0F99000FC
:1003900003121C2F24FE7003020455046003020C98
:1003A0003678C1E664016007123DC378C176011258
:1003B000406F12403712406112405312404C90007F
:1003C00003E0FBA3E0FAA3E0F9900004121C2FB4B1
:1003D000010F90001D74FFF0A37429F0A3745580E1
:1003E00067900003E0FBA3E0FAA3E0F99000041299
:1003F0001C2FB4020F90001D74FFF0A37429F0A30A
:10040000745E8044900003E0FBA3E0FAA3E0F9905F
:100410000004121C2FB4030F90001D74FFF0A3748E
:1004200029F0A374678021900003E0FBA3E0FAA306
:10043000E0F9900004121C2FB4041790001D74FF03
:10044000F0A37429F0A37470F07B017A007978121C
:10045000210E020BBD123DC3123F4C90001D74FFD4
:10046000F0A37429F0A37479F0900003E0FBA3E0FB
:10047000FAA3E0F9900003121C2FFF900020E4F093
:10048000A3EFF0900004121C2FFF900022E4F0A3D1
:10049000EFF07B017A00797812210E020C36900081
:1004A00003E0FBA3E0FAA3E0F9900003121C2F2461
:1004B000FE605A1470030205CD1470030205471440
:1004C000700302061C24046003020C369000041220
:1004D0001C2FB401030205E1900003E0FBA3E0FA46
:1004E000A3E0F9900004121C2F64026003020C3692
:1004F0007BFF7A3F79D4123F667BFF7A3E797C128C
:100500003F72E4FBFA7D06FC7F06020A6E90000350
:10051000E0FBA3E0FAA3E0F9900004121C2F6402B0
:10052000700F90001D74FFF0A37429F0A3748580F0
:1005300058900003E0FBA3E0FAA3E0F99000041256
:070540001C2F6401020C36C0
:1005470012409912408B12406F12403712406112CD
:10055700405312404512405A900003E0FBA3E0FAD3
:10056700A3E0F9900004121C2F64017022300905E2
:10057700123DC3C20990001D74FFF0A37429F0A3B4
:10058700748EF07B017A00797812210E020BBD90F0
:100597000003E0FBA3E0FAA3E0F9900004121C2F8C
:1005A70064026003020C36D2097BFF7A3F79DD12C1
:1005B7003F667BFF7A3E797C123F72E4FBFA7D0748
:0305C700FC7F07AF
:1005CA00020A6E900003E0FBA3E0FAA3E0F99000B0
:1005DA0004121C2FB40106123DC3020C369000030C
:1005EA00E0FBA3E0FAA3E0F9900004121C2F6402D6
:1005FA006003020C367BFF7A3E798B123F667BFFE3
:10060A007A3E797C123F72E4FBFA7D0AFC7F0A0289
:10061A000A6E900003E0FBA3E0FAA3E0F99000045D
:10062A00121C2F64017031E92405F9E43AFA78784A
:10063A007C007D017E007F08121BF07BFF7A3E79E9
:10064A00B8123F667BFF7A3E79C7123F72E4FBFA23
:10065A007D06FC7F06020A6E900003E0FBA3E0FA27
:10066A00A3E02405F9E43AFA020A82900003E0FBC7
:10067A00A3E0FAA3E0F9900003121C2F24FE607392
:10068A0014700302073324FE700302077624046001
:10069A0003020C36900004121C2FB4011F7BFF7A50
:1006AA003E79A9123F667B007A007900123F727B7D
:1006BA00017A007D017C007F1E020AE5900003E0BA
:1006CA00FBA3E0FAA3E0F9900004121C2F64026075
:1006DA0003020C367BFF7A3E799A123F667B007AD8
:1006EA00007900123F727B017A007D017C007F1E37
:1006FA00020AE5123DC3900003E0FBA3E0FAA3E07F
:10070A00F9900005121C2F78C2F67BFF7A3979928C
:10071A00123F667B007A007900123F727B017A00F1
:10072A007D017C007F1E020AE5900003E0FBA3E046
:10073A00FAA3E0F9900006121C2F78C3760008F697
:10074A00900005121C2F78C346F608E6F67BFF7A5E
:10075A003A792A123F667B007A007900123F727B4F
:10076A00017A007D017C007F1E020AE5900003E009
:10077A00FBA3E0FAA3E02404F9E43AFA020A827835
:10078A00C1E664036007123DC378C1760312406F65
:10079A00124037124045124053124068900003E05D
:1007AA00FBA3E0FAA3E0F9900003121C2FFFD394F5
:1007BA000990001D74FF400BF0A37429F0A37497ED
:1007CA00F0801BF0A37429F0A37479F0900003E081
:1007DA00FBA3E0FAA3E0F9900003121C2FFF90009C
:1007EA0020E4F0A3EFF0900004121C2FFF900022E7
:1007FA00E4F0A3EFF07B017A00797812210E7B01F5
:10080A007A007978123DAEAD077B017A007978904B
:10081A00000E7403020BD278C1E664026007123D2F
:10082A00C378C1760212406112406F1240451240ED
:10083A005312403E124076900003E0FBA3E0FAA375
:10084A00E0F9900003121C2FFFD39463401090002C
:10085A001D74FFF0A37429F0A374A2F080429000E3
:10086A0003E0FBA3E0FAA3E0F9900003121C2FFFB8
:10087A00D3940990001D74FF400BF0A37429F0A3D0
:10088A0074AAF0801BF0A37429F0A374B3F090004B
:10089A0003E0FBA3E0FAA3E0F9900003121C2FFF88
:1008AA00900020E4F0A3EFF0900004121C2FFF90B8
:1008BA000022E4F0A3EFF07B017A00797812210E8E
:1008CA007B017A007978123DAEAD077B017A007917
:1008DA007890000E7401020BD2900003E0FBA3E0B3
:1008EA00FAA3E0F9900003121C2F547F78C0F67B1C
:1008FA00FF7A37799E123F667B007A007900123FB1
:10090A00727B017A007D017C007F1E020AE590005D
:10091A0003E0FBA3E0FAA3E0F9900003121C2F64A2
:10092A00017031E92404F9E43AFA78787C007D010F
:10093A007E007F08121BF07BFF7A3E79B8123F6671
:10094A007BFF7A3E79C7123F72E4FBFA7D06FC7F91
:10095A0006020A6E900003E0FBA3E0FAA3E0240477
:10096A00F9E43AFAE490000EF07D081236B77BFFFC
:10097A007A3E79B8123F667B007A007900123F729C
:10098A007B017A007D017C007F01020AE512409911
:10099A0012408B900003E0FBA3E0FAA3E0F9900079
:1009AA0003121C2F78BFB40106E64401F68004E660
:1009BA0054FEF67BFF7A3D7998123F667B007A00F7
:1009CA007900123F727B017A007D017C007F14025C
:1009DA000AE5900003E0FBA3E0FAA3E0F990000324
:1009EA00121C2F64016003020A8C1240309000032B
:1009FA00E0FBA3E0FAA3E0F9900004121C2F6401C3
:100A0A007066E92405F9E43AFA78787C007D017E7B
:100A1A00007F08121BF0E4900006F0900006E0FF49
:100A2A00C39410502574782FF582E43400F583E0DE
:100A3A007010900006E02478F582E43400F583749F
:100A4A0020F0900006E004F080D17BFF7A3E79B86E
:100A5A00123F667BFF7A3E79C7123F72E4FBFA7D4A
:100A6A0005FC7F05FE020B3E900003E0FBA3E0FAC3
:100A7A00A3E02405F9E43AFAE490000EF07D0802B6
:100A8A000C33124029020C36900003E0FBA3E0FA73
:100A9A00A3E02403F9E43AFA78787C007D017E0029
:100AAA007F08121BF0900003E0FBA3E0FAA3E02406
:100ABA0003F9E43AFAE490000EF07D081236B77BA7
:100ACA00FF7A3E79B8123F667B007A007900123FBE
:100ADA00727B017A007D017C007F017E0080559047
:100AEA000003E0FBA3E0FAA3E02403F9E43AFA786E
:100AFA00787C007D017E007F08121BF0900003E0E5
:100B0A00FBA3E0FAA3E02403F9E43AFAE490000E26
:100B1A00F07D081236B77BFF7A3E79B8123F667BC2
:100B2A00007A007900123F727B017A007D017C0015
:100B3A007F017E001239F8020C3612406F12408B88
:100B4A0012409912404512403712405312406190A8
:100B5A000003E0FBA3E0FAA3E0F9900003121C2FC4
:100B6A0024FC606724036003020C3612404C900098
:100B7A0003E0FBA3E0FAA3E0F9900004121C2FB4EF
:100B8A00010E78787C007D017BFF7A2979BD80206F
:100B9A00900003E0FBA3E0FAA3E0F9900004121C22
:100BAA002FB4020F78787C007D017BFF7A2979C403
:100BBA00121FF17B017A007978123DAEAD077B01F5
:100BCA007A007978E490000EF0805E12405A900024
:100BDA0003E0FBA3E0FAA3E0F9900004121C2FB48F
:100BEA00010E78787C007D017BFF7A2979CC802000
:100BFA00900003E0FBA3E0FAA3E0F9900004121CC2
:100C0A002FB4020F78787C007D017BFF7A2979D195
:100C1A00121FF17B017A007978123DAEAD077B0194
:100C2A007A007978E490000EF01236B7900007E067
:040C3A00600204F060
:010C3E002293
:102F9100E4900002F078ADE66063123FC1EF24F0E7
:102FA100603924D0603324207037123F8A1240A741
:102FB100E478ADF6900002F00000900002E004F029
:102FC100E0B464F4123B50E4900002F00000900081
:102FD10002E004F0E0B464F4228000123F8A02406F
:102FE100A7E4900002F00000900002E004F0E0B4D9
:102FF10082F47B007A00799D7D100238247B007A6F
:103001000079AE7D10123AB0EF60097B007A007949
:04301100AE12005E9D
:013015002298
:093FE60020505752204F464600BE
:102F570050006800000000000000000000000000B2
:072F670000000041006700BB
:103DD700E4900067F078687C007D017BFF7A3F798B
:043DE700E6021FF1E0
:1036B70090000AEBF0A3EAF0A3E9F0A3EDF0900085
:1036C7000AE0F9A3E0FAA3E0900012C9F0A3EAF038
:1036D700A3E9F0EDFFA3E4F0A3EFF07B017A007913
:1036E700681231EC90000DE0FFC39410500C746821
:1036F7002FF582E43400F583E4F090000EE09000AB
:0337070067F02246
:10386700123FB7403B7B017A007968122DCF900059
:1038770067E0700612409902408B900067E0B40140
:103887000512408B8017900067E0B4020612409241
:10389700024099900067E0B403061240921240A0DC
:0138A70022FE
:0140F70022A6
:0B3F9600EF2480FFEE3447FE02000E17
:0B3FA100EF2480FFEE3447FE02317F6A
:1036610090000AEEF0A3EFF0A3EBF0A3EAF0A3E9D8
:01367100F068
:10367200E4900010F0F090000FE0FFA3E0FEC39F83
:103682005032EEFF90000BE02FFF90000AE0340072
:10369200FE90000CE0FBA3E0FAA3E0F9900010E03A
:1036A200F582758300121C2FFD123FA1900010E0DD
:0436B20004F080C2DE
:0136B60022F1
:0440DE0012000322A7
:0140F80022A5
:0140F90022A4
:103CE600123C6F12395C1239C51240C0123FF812ED
:0B3CF6003C08123DFF124001D2AF223B
:0A2F6E004200A200004200A0000093
:093FEF003082037F00227F0122D1
:09325400781AE6FC08E6FD7F1281
:10325D00EF2407FBE43EFAD3EB94FFEA9403400618
:10326D007A037BFF8007EF2407FBE43EFA9000A270
:10327D00EAF0A3EBF0C3EF9407EE940050067E0046
:10328D007F008008EF24F9FFEE34FFFE9000A0EEE2
:10329D00F0A3EFF0C3ED9FEC9E40109000A3E09DD6
:0E32AD009000A2E09C40047F0180027F00227E
:0F3ED600781AE6FC08E6FD7F077E0312325D22B4
:0640B4007E0212325422CC
:0640BA007E0112325422C7
:0E3F3000781AE6FC08E6FDE4FFFE12325D2280
:0F3EE500781CE6FC08E6FD7F387E0312325D2272
:0F3EF400781CE6FC08E6FD7F747E0212325D2228
:0F3F0300781CE6FC08E6FD7FB07E0112325D22DD
:0F3F1200781CE6FC08E6FD7FE07E0012325D229F
:103E4A00123ED6EF6009123EE5EF60037F01227F42
:023E5A00002244
:0640C000122BB7024022A2
:103DEB00789BE62490F8A607789B06E6C3940A40D6
:043DFB0002E4F622C6
:103CAE00789AE6FE08667002FF2274902EF8E6FF00
:0B3CBE00789A06E6C3940A4002E4F680
:013CC90022D8
:103CCA00789CE6FE18667002FF2274902EF8E6FFD2
:0B3CDA00789C06E6C3940A4002E4F662
:013CE50022BC
:0B3FAC00EF75F00BA4242AF8E6FF22BA
:103BC000EF75F00BA42428F8A60408A605AE03EFB1
:103BD00075F00BA4242BF8A606EF75F00BA4242C8B
:043BE000F8E4F622ED
:0640C600789BE618F622CB
:0740220043B10453B2FB227D
:102BB700E4789AF608F608F6FFEF75F00BA42428D8
:102BC700F87600087696EF75F00BA42425F87602C0
:102BD700EF75F00BA4242AF8E4F6EF75F00BA424A4
:102BE7002BF8E4F6EF75F00BA4242CF8E4F60FEFBE
:102BF700B40AC678417628784C76287857762878AC
:102C07006D7628782276FF08763F0876EF782D765E
:102C1700FF08763E0876D6783876FF08764008763D
:102C2700B4784376FF0876400876BA784E76FF0880
:102C3700763F087630785976FF08763E0876E5784D
:102C47006476FF08763E0876F4786F76FF08763F5D
:102C5700087603787A76FF08763F087612788576C5
:072C6700FF08763E08764AE3
:012C6E002243
:10240E00900003EFF0E075F00BA42422F9E4FAFB40
:10241E0090009DF0A3F0A3E9F0121EA8121EEEEF9D
:10242E0070030224FA90009DE0FBA3E0FAA3E0F90A
:10243E00900003121C2FFFC39405500890000374E4
:10244E000502255EEFC3940A500890000374010242
:10245E001C5C900008121C2F701490000804121CB3
:10246E008F900003E075F003A404FF123DEB900083
:10247E009DE0FBA3E0FAA3E0F9900006121CC7FF53
:10248E00AEF0D39400EE9400500302256190000448
:10249E00121CC7C39FE5F09E5023900004E475F014
:1024AE0001121CFFFCE5F06F7002EC6E600302255A
:1024BE0061900003E075F003A42403802B900009C3
:1024CE00121C2FFFD39400500302256190000A7452
:1024DE0001121C5CC39F407B90000AE4121C8F907B
:1024EE000003E075F003A404FF023DEB90009DE0B5
:1024FE00FBA3E0FAA3E0F9900003121C2FFFD39484
:10250E0005400A9000037405121C8F802BEF600AA1
:10251E0090000374FF121C5C801E900008121C2F8A
:10252E00B40115900008E4121C8F900003E075F0C2
:10253E0003A42402FF123DEB90009DE0FBA3E0FA02
:10254E00A3E0F9900004E4F5F0121D4C90000AE4AB
:04255E00121C8F229A
:103D0100E4900002F0900002E0FFC3940A500B120D
:0A3D1100240E900002E004F080EBA5
:013D1B002285
:10395C00E4F5B275B180F5B475B3FFF5B675B5FF86
:10396C00F5AD75AC0FF5DB75DAFFF5DD75DCFFF544
:10397C00F975FA0475E5FF75E6FF75E7FF75EEFF5F
:06398C0043F980023F4CEC
:0C3F4C00E4FF8FFBE4F5FC0FEFB420F65F
:013F58002246
:0740290075FB1253FCF722A6
:0740300075FB1243FC08229E
:0740370075FB0E53FCF7229C
:07403E0075FB0E43FC082294
:0740450075FB0B53FCF72291
:07404C0075FB0B43FC082289
:0740530075FB0A53FCF72284
:07405A0075FB0A43FC08227C
:0740610075FB0353FCF7227D
:0740680075FB0343FC082275
:07406F0075FB0253FCF72270
:0740760075FB0243FC082268
:07407D0075FB0F53FCF72255
:0740840075FB0F43FC08224D
:07408B0075FB0753FCF7224F
:0740920075FB0743FC082247
:0740990075FB0653FCF72242
:0740A00075FB0643FC08223A
:0640CC0012408B02409936
:0640D2001240920240A022
:1029F000EFB408004003022AD3902A00F828287375
:102A0000022A18022A30022A48022A5F022A760283
:102A10002A8D022AA4022ABB75FB1F53FCF875FB02
:102A20001E53FCF875FB1D53FCF075FB1C022AD0ED
:102A300075FB1B53FCF875FB1A53FCF875FB195317
:102A4000FCF075FB18022AD075FB1753FCF875FBD8
:102A50001653FCF875FB1553FCF075FB148071756B
:102A6000FB1353FCF875FB1253FCF875FB1153FC78
:102A7000F075FB10805A75FB0F53FCF875FB0E5375
:102A8000FCF875FB0D53FCF075FB0C804375FB0BDC
:102A900053FCF875FB0A53FCF875FB0953FCF07501
:102AA000FB08802C75FB0753FCF875FB0653FCF8FC
:102AB00075FB0553FCF075FB04801575FB0353FC97
:102AC000F875FB0253FCF875FB0153FCF0E4F5FBD1
:042AD00053FCF022A1
:0C3F5900E4FEAF061229F00EEEB408F6EC
:013F65002239
:100C3F00EFD394074003021538ED64536004EDB40D
:100C4F0073047D35801EEDB467047D398016EDB4D5
:100C5F006C047D4C800EEDB470047D508006EDB4B5
:100C6F0078027D58ED121EC80E28200D26300D502B
:100C7F00310D74320D89330D9E340DB3350DC836D9
:100C8F000DDA370E01380E13390E2B410E3D420E81
:100C9F0064430E85440EAC450ECA460EF1470F1243
:100CAF00480F36490F5D4A0F844B0FA84C0FCF4D9D
:100CBF000FF94E10234F104D50107451109E5210BB
:100CCF00CC5410F355111A56114857116F58118DF6
:100CDF005911B45A11DE61120862122C6312536457
:100CEF00127A6512A86612CF6812F36913176A1386
:100CFF00426B136D6D13936E13B96F13E771141865
:100D0F0072143B74146675148C7614B77714E579E6
:100D1F00150B7A00001538EF25E025E0FEC3741F90
:100D2F009EF5FB43FC0553FCFDC3741E9EF5FB4370
:100D3F00FC0553FCFDC3741D9EF5FB75FC090213E6
:100D4F0038EF25E025E0FEC3741F9EF5FB53FCF83A
:100D5F00C3741E9EF5FB53FCF8C3741D9EF5FB7503
:100D6F00FC01021338EF25E025E0FEC3741F9EF54A
:100D7F00FB43FC0653FCFE021289EF25E025E0FE43
:100D8F00C3741F9EF5FB43FC0253FCFA0211F0EFF4
:100D9F0025E025E0FEC3741F9EF5FB43FC0353FCC7
:100DAF00FB020F21EF25E025E0FEC3741F9EF5FB2C
:100DBF0043FC0353FCFB020F03EF25E025E0FEC3CA
:100DCF00741F9EF5FB43FC07020F03EF25E025E0A0
:100DDF00FEC3741F9EF5FB53FCF8C3741E9EF5FBF8
:100DEF0043FC0153FCF9C3741D9EF5FBE4F5FC02B3
:100DFF001338EF25E025E0FEC3741F9EF5FB43FC7F
:100E0F00070211F0EF25E025E0FEC3741F9EF5FBEE
:100E1F0043FC0353FCFB0211F00229F0EF25E02500
:100E2F00E0FEC3741F9EF5FB43FC070213F9EF2589
:100E3F00E025E0FEC3741F9EF5FB53FCF8C3741E40
:100E4F009EF5FB43FC0153FCF9C3741D9EF5FB7526
:100E5F00FC0E02140EEF25E025E0FEC3741F9EF575
:100E6F00FB43FC0553FCFDC3741E9EF5FB43FC01C5
:100E7F0053FCF9020FC3EF25E025E0FEC3741F9E5C
:100E8F00F5FB53FCF8C3741E9EF5FB43FC0153FCAA
:100E9F00F9C3741D9EF5FB75FC0E021338EF25E0A8
:100EAF0025E0FEC3741F9EF5FB43FC07C3741E9E13
:100EBF00F5FB43FC0153FCF9021247EF25E025E057
:100ECF00FEC3741F9EF5FB43FC07C3741E9EF5FB08
:100EDF0043FC0153FCF9C3741D9EF5FBE4F5FC02C2
:100EEF00145CEF25E025E0FEC3741F9EF5FB43FC69
:100EFF000553FCFDC3741E9EF5FB43FC0153FCF927
:100F0F00021220EF25E025E0FEC3741F9EF5FB4380
:100F1F00FC07C3741E9EF5FB53FCF8C3741D9EF5AE
:100F2F00FBE4F5FC02140EEF25E025E0FEC3741F71
:100F3F009EF5FB53FCF8C3741E9EF5FB43FC015357
:100F4F00FCF9C3741D9EF5FB75FC0E02152FEF25E2
:100F5F00E025E0FEC3741F9EF5FB43FC0453FCFC2D
:100F6F00C3741E9EF5FB53FCF8C3741D9EF5FB75F1
:100F7F00FC08021338EF25E025E0FEC3741F9EF531
:100F8F00FB43FC07C3741E9EF5FB53FCF8C3741D93
:100F9F009EF5FB75FC010213DDEF25E025E0FEC396
:100FAF00741F9EF5FB43FC0553FCFDC3741E9EF599
:100FBF00FB53FCF8C3741D9EF5FB75FC0802152F3F
:100FCF00EF25E025E0FEC3741F9EF5FB43FC0553A0
:100FDF00FCFDC3741E9EF5FB43FC0253FCFAC37465
:100FEF001D9EF5FB75FC05021338EF25E025E0FE8D
:100FFF00C3741F9EF5FB43FC0553FCFDC3741E9E7B
:10100F00F5FB43FC0153FCF9C3741D9EF5FBE4F59E
:10101F00FC021338EF25E025E0FEC3741F9EF5FB9D
:10102F0043FC0553FCFDC3741E9EF5FB43FC0153AB
:10103F00FCF9C3741D9EF5FB75FC08021338EF25F0
:10104F00E025E0FEC3741F9EF5FB43FC07C3741E2F
:10105F009EF5FB43FC0153FCF9C3741D9EF5FBE4A5
:10106F00F5FC02129EEF25E025E0FEC3741F9EF5EE
:10107F00FB43FC0553FCFDC3741E9EF5FB43FC01B3
:10108F0053FCF9C3741D9EF5FB75FC0802113EEF6E
:10109F0025E025E0FEC3741F9EF5FB43FC07C374D8
:1010AF001E9EF5FB43FC0153FCF9C3741D9EF5FB1B
:1010BF00E4F5FCC3741C9EF5FB75FC0722EF25E0DD
:1010CF0025E0FEC3741F9EF5FB53FCF8C3741E9EF0
:1010DF00F5FB43FC0153FCF9C3741D9EF5FB75FC36
:1010EF000602152FEF25E025E0FEC3741F9EF5FBCA
:1010FF0043FC0553FCFDC3741E9EF5FB53FCF8C364
:10110F00741D9EF5FB75FC08021338EF25E025E0F2
:10111F00FEC3741F9EF5FB53FCF8C3741E9EF5FBB4
:10112F0043FC0253FCFAC3741D9EF5FBE4F5FCC3AC
:10113F00741C9EF5FB75FC0D22EF25E025E0FEC328
:10114F00741F9EF5FB43FC0553FCFDC3741E9EF5F7
:10115F00FB53FCF8C3741D9EF5FB75FC0E02133890
:10116F00EF25E025E0FEC3741F9EF5FB53FCF8C38B
:10117F00741E9EF5FB43FC0653FCFE02135AEF252B
:10118F00E025E0FEC3741F9EF5FB43FC0353FCFBFD
:10119F00C3741E9EF5FB53FCF8C3741D9EF5FB75BF
:1011AF00FC0802140EEF25E025E0FEC3741F9EF528
:1011BF00FB43FC0253FCFAC3741E9EF5FB43FC0574
:1011CF0053FCFDC3741D9EF5FB75FC0902145CEF07
:1011DF0025E025E0FEC3741F9EF5FB43FC0653FC80
:1011EF00FEC3741E9EF5FB43FC0153FCF9C3741D33
:1011FF009EF5FB75FC0802140EEF25E025E0FEC3FB
:10120F00741F9EF5FB43FC07C3741E9EF5FB53FC36
:10121F00F8C3741D9EF5FB75FC080213DDEF25E086
:10122F0025E0FEC3741F9EF5FB43FC0653FCFEC373
:10123F00741E9EF5FB53FCF8C3741D9EF5FB75FCE5
:10124F000802145CEF25E025E0FEC3741F9EF5FB3A
:10125F0043FC0653FCFEC3741E9EF5FB53FCF8C300
:10126F00741D9EF5FB75FC0802140EEF25E025E0BA
:10127F00FEC3741F9EF5FB43FC07C3741E9EF5FB54
:10128F0043FC0153FCF9C3741D9EF5FB75FC08C3A9
:10129F00741C9EF5FB75FC0322EF25E025E0FEC3D1
:1012AF00741F9EF5FB43FC07C3741E9EF5FB43FCA6
:1012BF000153FCF9C3741D9EF5FBE4F5FC02152FD9
:1012CF00EF25E025E0FEC3741F9EF5FB43FC07C32B
:1012DF00741E9EF5FB53FCF8C3741D9EF5FBE4F5DD
:1012EF00FC0213DDEF25E025E0FEC3741F9EF5FB26
:1012FF0053FCF8C3741E9EF5FB53FCF8C3741D9E7C
:10130F00F5FB75FC0602152FEF25E025E0FEC374F3
:10131F001F9EF5FB53FCF8C3741E9EF5FB53FCF8A0
:10132F00C3741D9EF5FB75FC08C3741C9EF5FB75FD
:10133F00FC0922EF25E025E0FEC3741F9EF5FB4359
:10134F00FC07C3741E9EF5FB53FCF8C3741D9EF57A
:10135F00FB75FC01C3741C9EF5FB75FC0422EF2585
:10136F00E025E0FEC3741F9EF5FB43FC0653FCFE15
:10137F00C3741E9EF5FB53FCF8C3741D9EF5FB75DD
:10138F00FC04804AEF25E025E0FEC3741F9EF5FBA9
:10139F0043FC0653FCFEC3741E9EF5FB53FCF8C3BF
:1013AF00741D9EF5FBE4F5FC8024EF25E025E0FE9F
:1013BF00C3741F9EF5FB43FC0653FCFEC3741E9EB5
:1013CF00F5FB53FCF8C3741D9EF5FB75FC08C37445
:1013DF001C9EF5FB75FC0A22EF25E025E0FEC37489
:1013EF001F9EF5FB43FC0353FCFBC3741E9EF5FBD2
:1013FF0043FC0153FCF9C3741D9EF5FBE4F5FCC3DC
:10140F00741C9EF5FB75FC0B22EF25E025E0FEC357
:10141F00741F9EF5FB53FCF8C3741E9EF5FB53FC23
:10142F00F8C3741D9EF5FB75FC048021EF25E025A4
:10143F00E0FEC3741F9EF5FB43FC07C3741E9EF5AD
:10144F00FB53FCF8C3741D9EF5FB75FC08C3741C9D
:10145F009EF5FB75FC0222EF25E025E0FEC3741F0D
:10146F009EF5FB43FC0453FCFCC3741E9EF5FB531B
:10147F00FCF8C3741D9EF5FB75FC08804FEF25E04B
:10148F0025E0FEC3741F9EF5FB53FCF8C3741E9E2C
:10149F00F5FB53FCF8C3741D9EF5FBE4F5FCC37418
:1014AF001C9EF5FB75FC0C22EF25E025E0FEC374B6
:1014BF001F9EF5FB43FC0453FCFCC3741E9EF5FBFF
:1014CF0053FCF8C3741D9EF5FB75FC0CC3741C9E76
:1014DF00F5FB75FC0822EF25E025E0FEC3741F9E87
:1014EF00F5FB53FCF8C3741E9EF5FB43FC0253FC43
:1014FF00FAC3741D9EF5FB75FC058024EF25E025CE
:10150F00E0FEC3741F9EF5FB53FCF8C3741E9EF5DB
:10151F00FB43FC0553FCFDC3741D9EF5FB75FC09D5
:0A152F00C3741C9EF5FBE4F5FC22DA
:0B2DCF0090001AEBF0A3EAF0A3E9F07B
:102DDA00E4A3F0FFC200E94A7003022E7090001AC1
:102DEA00E0FBA3E0FAA3E0F9123DAEEFC39408407A
:102DFA002EE490001DF090001DE0FF90001AE0FB09
:102E0A00A3E0FAA3E0F98F82758300121C2FFD124A
:102E1A000C3F90001DE004F0E0C3940840D822E47F
:102E2A0090001DF090001DE0FFC394085038200068
:102E3A002390001AE0FBA3E0FAA3E0F98F827583DE
:102E4A0000121C2FFD60028012D20090001DE0FFCC
:102E5A007D20800790001DE0FF7D20120C3F90002E
:062E6A001DE004F080BE33
:012E7000223F
:082F78004100910041009200AC
:103C0800123B2A5389F75389FB5389FD4389019055
:103C1800009174FCF0A37466F0758CFCF58AD2A947
:033C2800D28C2219
:103B2A009000887401F0E490008AF090008CF09084
:103B3A00008EF0A3F0900089F090008BF090008D39
:063B4A00F0900090F02253
:03000B0002309927
:10309900C0E0C0F0C083C082C0D075D000C000C0FD
:1030A90006900091E0F58CA3E0F58A900088E00491
:1030B900F0C394054005E4F0A304F090008AE0040D
:1030C900F0C3940A4005E4F0A304F090008CE004F6
:1030D900F0C394644005E4F0A304F090008EE47515
:1030E900F001121CB1FEC3E5F094E8EE9403400A26
:1030F90090008EE4F0A3F0A304F0D006D000D0D065
:09310900D082D083D0F0D0E03276
:1039C500E47819F60876030876FF0876030876FF8B
:1039D50043E101F5E843B10153B2FE43F60143B1BA
:1039E5000253B2FD43F60253E1BF43E12053E1EF39
:0339F500D2AE222D
:103C2B007819E6600CE4F6C2EBC2EAC2E9C2E8809E
:103C3B000C78197601C2EBC2EAC2E9D2E8000000A7
:033C4B00D2EE2294
:093FF80053B1DF43B2200240E6A0
:0340E600C285226E
:0340E900D285225B
:0340EC00B2852278
:0940010053B1BF43B2400240F28A
:0340EF00C2862264
:0340F200D2862251
:103BE4000A6D679C46F6375D4521EFAC5A50010BD0
:103BF400DF020A6D679C46F6375D4521EFAC5A50EB
:043C0400E10BDF02EF
:102F80004500981262ACB366450093CCCCCCCCCC57
:103DFF0053B1EF43B21053ACEF43AD1053ACDF43AD
:033E0F00AD2022C1
:0140FA0022A3
:103C8F00E4FEC284EF30E704D2838002C283EF25C3
:0E3C9F00E0FF00D28400000EEEB408E6C284FE
:013CAD0022F4
:043E1200E4FD7FFC50
:0F3E1600C2B400123C8FAF05123C8F00D2B42211
:0A37E1007B019000207405F07F3F8B
:0B37EB0090001DEBF0A3EAF0A3E9F052
:1037F600C2B4E4FD123C8F900020E0FFEDC39F5061
:103806001A90001DE0FBA3E0FAA3E0F98D82758310
:0D38160000121C2FFF123C8F0D80DCD2B47D
:013823002282
:103B9B00E4FEC284EF30E704D2838002C283EF25B8
:103BAB00E0FF00D28400000EEEB408E643B10853E8
:043BBB00B2F7C28417
:013BBF0022E3
:103D1C00E4FFFEC284EF25E0FF00D284308303442D
:093D2C0001FF0EEEB408ECC284A4
:013D3500226B
:103E2500C2B400123B9B123D1C53B1F743B20800CC
:023E3500D2B405
:013E37002268
:0B38A800900004EBF0A3EAF0A3E9F0AD
:1038B300C2B4123B9BE4FD900007E0FFEDC39F50B1
:1038C3001A123D1C900004E0FBA3E0FAA3E0F98D7B
:1038D30082758300EF121C8F0D80DC53B1F743B266
:0338E30008D2B454
:0138E60022BF
:0F3F2100123E127D8E7F20123E160000000022FD
:103B5000E4FEFD7FFC123E167D8F7F20123E16E4B0
:103B6000FD7FFD123E16E4FEFF000FBF00010EBEFA
:053B700007F7BFD0F4CF
:013B7500222D
:0A3FC1007F07123E25EF5470FF2227
:0640D8007F09123E2522C3
:0740A7007D707F27023E1629
:0C3F8A00E4FD7FE1123E167FE2023E16CD
:0E3F3E00AC07123E12AF04AD077F25023E16FF
:06382400123FC1EF703CF1
:10382A00900003F0A3F0900020EDF07FA01237EB98
:10383A00E4FD7FFD123E16E4900003F0A3F0009031
:10384A000004E004F07006900003E004F090000326
:0C385A00E07004A3E064C870E5123E12A8
:01386600223F
:103AB000AC05123FC1EF30E61D123E12900007EC3C
:103AC000F07F611238A8123F8A1240A7E4FD7FFD03
:093AD000123E167F01227F002244
:1026A700780A7C007D017BFF7A3B79E47E007F0519
:1026B700121BF0780F7C007D017BFF7A3B79E97E66
:1026C700007F03121BF078127C007D017BFF7A3BB1
:1026D70079EC7E007F06121BF078187C007D017B69
:1026E700FF7A3B79F27E007F01121BF078197C009C
:1026F7007D017BFF7A3B79F37E007F03121BF0128B
:1027070040FA7D5A7F53123E167DA57F53123E161F
:102717007D207F3D123E16123E127FE1123E167F4C
:10272700E2123E167D707F27123E167D017F221230
:102737003E167D037F23123E167D4E7F25123E16E1
:102747007D107F31123E167B017A0079939000202D
:102757007405F07F301237EB7B017A007993900094
:10276700207405F07F2A1237EB7A00790A1237E1D5
:102777007B017A0079129000207406F07F3A1237B5
:10278700EB7B017A0079189000207401F07F3912F1
:1027970037EB7B017A00790F9000207403F07F3EBE
:1027A7001237EB7B017A0079199000207403F07FD0
:1027B7003B1237EBE4FD7F3C123E167D3F7F26122E
:0E27C7003E16E4FD7F24123E167F21023E16D0
:052AD400900042EFF04C
:102AD900E478437C007D017BFF7A3B79F6FE7F0534
:102AE900121BF078487C007D017BFF7A3B79FB7EE5
:102AF900007F03121BF0784B7C007D017BFF7A3B42
:102B090079FE7E007F06121BF078517C007D017BE7
:102B1900FF7A3C79047E007F01121BF078527C0019
:102B29007D017BFF7A3C79057E007F03121BF07DD6
:102B39005A7F53123E167DA57F53123E167D207F84
:102B49003D123E16123E12E4FF000000000FEFB4E2
:102B5900DCF7900042E0FD7F25123E167D3F7F267F
:102B6900123E167A0079431237E17B017A00794BDC
:102B79009000207406F07F3A1237EB7B017A0079D6
:102B8900519000207401F07F391237EB7B017A00F4
:102B990079489000207403F07F3E1237EB7B017A6D
:0E2BA9000079529000207403F07F3B0237EB5E
:0140FB0022A2
:10317F00EFF5A6EEF5A7A2AF920AC2AF75C7AA7573
:10318F00C755439F01A20A92AFA2AF920AC2AF7571
:10319F00C7AA75C75543A501A20A92AF75AF21AF54
:1031AF00058FAEA2AF920AC2AF75C7AA75C75543B6
:1031BF00A401A20A92AFA2AF920AC2AF75C7AA75B5
:1031CF00C75553A5FEA20A92AFA2AF920AC2AF751E
:0D31DF00C7AA75C755539FFEA20A92AF22E2
:10000E008FA6EEF5A775AEFFA2AF920AC2AF75C767
:10001E00AA75C755439F01A20A92AFA2AF920AC218
:10002E00AF75C7AA75C75543A501A20A92AF75AFA2
:10003E0022A2AF920AC2AF75C7AA75C75543A401D3
:05004E00A20A92AF229E
:102D24009000A4EEF0A3EFF0A3EBF0A3EAF0A3E984
:012D3400F0AE
:102D35009000A4E0FEA3E0F5A6EEF5A7A2AF920AE7
:102D4500C2AF75C7AA75C755439F01A20A92AFA224
:102D5500AF920AC2AF75C7AA75C75543A501A20AA6
:102D650092AF75AF21E4FEFF9000A9E0FDC3EF9D92
:102D7500EE9400502E9000A6E0FBA3E0FAA3E0F944
:102D85008F828E83121C2FF5AEA2AF920AC2AF7549
:102D9500C7AA75C75543A401A20A92AF0FBF000188
:102DA5000E80C5A2AF920AC2AF75C7AA75C75553A3
:102DB500A5FEA20A92AFA2AF920AC2AF75C7AA75C5
:092DC500C755539FFEA20A92AF0C
:012DCE0022E2
:040003008F828E83D7
:03000700E493FF80
:01000A0022D3
:10256200EF14604414606F147003022601147003A8
:1025720002263D240460030226A1A2AF920AC2AF42
:1025820075C7AA75C755439780A20A92AFA2AF92A8
:102592000AC2AF75C7AA75C7555397BFA20A92AFB1
:1025A200E59630E7FB022668A2AF920AC2AF75C772
:1025B200AA75C75553977FA20A92AFA2AF920AC2D9
:1025C200AF75C7AA75C755439740A20A92AFE59661
:1025D20030E6FB022668A2AF920AC2AF75C7AA759F
:1025E200C755439720A20A92AFE59630E5FBA2AF0A
:1025F200920AC2AF75C7AA75C7555396FB8027A228
:10260200AF920AC2AF75C7AA75C755439710A20AFF
:1026120092AFE59630E4FBA2AF920AC2AF75C7AAA9
:1026220075C755439604A20A92AFA2AF920AC2AFEF
:1026320075C7AA75C7555396FD804DA2AF920AC2BF
:10264200AF75C7AA75C75553977FA20A92AFA2AFBB
:10265200920AC2AF75C7AA75C7555397BFA20A920D
:10266200AFE59630E3FBA2AF920AC2AF75C7AA7577
:10267200C7555396FBA20A92AFA2AF920AC2AF7598
:10268200C7AA75C755439602A20A92AFA2AF920A91
:10269200C2AF75C7AA75C7555396FEA20A92AFE597
:0526A2009720E0FB227F
:103AD90075985243892053877F538EEF53C4DFABC8
:103AE90007AA06A905A804E47F807E70FDFC121DC3
:093AF900B5EFF404F58DD28E2224
:103B0200759852438920438780538EEF53C4DFABAD
:103B120007AA06A905A804E4FF7EE1FDFC121DB573
:083B2200EFF404F58DD28E22B0
:103A5C0075985243892053877F438E1053C4DFAB34
:103A6C0007AA06A905A8047F007E467D057C0012E6
:0A3A7C001DB5EFF404F58DD28E2283
:103A8600759852438920438780438E1053C4DFAB19
:103A960007AA06A905A8047F007E8C7D0A7C001271
:0A3AA6001DB5EFF404F58DD28E2259
:1032BB009000AA121E6B75985253877F53C4F84324
:1032CB00C4209000AAE0F8A3E0F9A3E0FAA3E0FB86
:1032DB007F007E467D057C00121DB5C3E49FFFE495
:1032EB009EFE74019DFDE49CFC7808121E588FC64F
:1032FB009000AAE0F8A3E0F9A3E0FAA3E0FB7F00BB
:10330B007E467D057C00121DB5C3E49FFF8FC54330
:03331B00C40822C1
:10331E009000AE121E6B75985243878053C4F843CB
:10332E00C4209000AEE0F8A3E0F9A3E0FAA3E0FB1E
:10333E007F007E8C7D0A7C00121DB5C3E49FFFE4E6
:10334E009EFE74019DFDE49CFC7808121E588FC6EB
:10335E009000AEE0F8A3E0F9A3E0FAA3E0FB7F0053
:10336E007E8C7D0A7C00121DB5C3E49FFF8FC54382
:03337E00C408225E
:103441009000B2121E6B75F85253C4F89000B2E0AE
:10345100F8A3E0F9A3E0FAA3E0FB7F007E8C7D0AEC
:103461007C00121DB5C3E49FFFE49EFE74019DFD27
:10347100E49CFC7808121E588FC69000B2E0F8A3B5
:10348100E0F9A3E0FAA3E0FB7F007E8C7D0A7C00DB
:0D349100121DB5C3E49FFF8FC543C4082280
:070053003098FDAF99C2983F
:01005A002283
:08400A00C2998F993099FD2243
:0740120030F8FDAF9AC2F87F
:014019002284
:08401A00C2F98F9A30F9FD2272
:103D3600E4F5B1F5B2F5B3F5B4F5B5F5B6F5ACF510
:0A3D4600ADF5DAF5DBF5DCF5DD2262
:103C6F0075B1FFE4F5B275B3FFF5B475B5FFF5B6F1
:103C7F0075ACFFF5AD75DAFFF5DB75DCFFF5DD2211
:103D500075C7AA75C755A2AF920AC2AF75C7AA7533
:0A3D6000C755439F80A20A92AF22CC
:0440E20043AD802248
:1038E700EF640A701C30F811E59AB4130CC2F83073
:1038F700F8FDE59AB411F6C2F830F9FDC2F9759AE8
:103907000D30F811E59AB4130CC2F830F8FDE59ABA
:0D391700B411F6C2F830F9FDC2F98F9A2202
:0630160090FFF8121EF409
:10301C00850D83850E82121E7700000000E47FFF71
:10302C007EFFFDFC850D83850E82E0F8A3E0F9A3FD
:10303C00E0FAA3E0FBC3121E47504C900004121F91
:10304C0018E0FCA3E0FDA3E0FEA3E02401FFE43EB6
:10305C00FEE43DFDE43CFC900004121F18121E6BB4
:10306C00850D83850E82E0FCA3E0FDA3E0FEA3E0CA
:10307C002401FFE43EFEE43DFDE43CFC850D83852C
:07308C000E82121E6B8096FC
:06309300900008021EF48B
:103C4E00538EF7438901D28CEF4E6012758AF77549
:103C5E008CFF308DFDC28DEF1F70ED1E80EAC28C81
:013C6E002233
:1035AF009000B6121E6B538EF7438901D28CE4FF45
:1035BF00FEFDFC9000B6E0F8A3E0F9A3E0FAA3E06B
:1035CF00FBC3121E47602F758A65758CFC308DFD0D
:1035DF00C28D9000B6E0FCA3E0FDA3E0FEA3E024C3
:1035EF00FFFFEE34FFFEED34FFFDEC34FFFC9000E7
:0935FF00B6121E6B80B8C28C22CA
:103608009000BA121E6B538EEF438910D28EE4FFDE
:10361800FEFDFC9000BAE0F8A3E0F9A3E0FAA3E00D
:10362800FBC3121E47602F758B65758DFC308FFDAF
:10363800C28F9000BAE0FCA3E0FDA3E0FEA3E02463
:10364800FFFFEE34FFFEED34FFFDEC34FFFC90008D
:09365800BA121E6B80B8C28E226A
:1034FA009000BE121E6B75C40243C408E4FFFEFDB1
:10350A00FC9000BEE0F8A3E0F9A3E0FAA3E0FBC355
:10351A00121E47603275C53375C6F5E5C430E4FB43
:10352A0053C4EF9000BEE0FCA3E0FDA3E0FEA3E0DD
:10353A0024FFFFEE34FFFEED34FFFDEC34FFFC9078
:0B354A0000BE121E6B80B553C4F722B8
:103381009000C2121E6B538FFB538FFD538FFEE4CF
:10339100F586538FDF438F08E4FFFEFDFC9000C2EA
:1033A100E0F8A3E0F9A3E0FAA3E0FBC3121E476033
:1033B1002CE58F30E4FB538FEF9000C2E0FCA3E0DB
:1033C100FDA3E0FEA3E024FFFFEE34FFFEED34FF9A
:1033D100FDEC34FFFC9000C2121E6B80BB538FF7D3
:0133E10022C9
:1027D5000A3D3D3D3D3D3D3D3D3D3D3D3D3D3D3D57
:1027E5003D3D3D3D3D3D3D3D3D3D3D3D3D3D3D3D14
:1027F5003D3D3D3D3D3D3D3D3D3D3D3D3D3D3D3D04
:102805003D3D3D3D3D3D3D3D3D3D3D3D3D3D3D3DF3
:102815003D3D3D3D3D000A2A2020436F7079726998
:102825006768742863292032303135204E75766FFC
:10283500746F6E20546563686E6F6C6F67792043A3
:102845006F72702E20416C6C2072696768747320FA
:1028550072657365727665642E2020000A2A202031
:10286500436F6E7461637420452D4D61696C3A2028
:102875004D6963726F432D38626974406E75766F6A
:10288500746F6E2E636F6D20202020202020202065
:102895002020202020202020202020202020202033
:1028A50020000A2A202044656D6F205665727369E1
:1028B5006F6E20203A202532642E2532642E253273
:1028C50064000A2A202046696E697368656420449D
:1028D500617465203A202532642E2532642E253216
:0228E50064008D
:1033E2007BFF7A2779D51221147BFF7A28791B1269
:1033F20021147BFF7A2879611221147BFF7A2879C4
:10340200A790001DE4F0A304F0E4A3F0A3F0A3F05E
:10341200A3F01221147BFF7A2879C790001D74074C
:10342200F0A374DFF0A3E4F0A37405F0A3E4F0A327
:0F343200741FF01221147BFF7A2779D502211421
:03000000022E715C
:102E7100787FE4F6D8FD9000007FFF7E01E4F0A3A7
:0A2E8100DFFCDEFA7581C5022EC6E3
:102E8B00023112E493A3F8E493A34003F68001F21A
:102E9B0008DFF48029E493A3F85407240CC8C33348
:102EAB00C4540F4420C8834004F456800146F6DF17
:102EBB00E4800B0102040810204080902F0BE47E6D
:102ECB00019360BCA3FF543F30E509541FFEE4930C
:102EDB00A360010ECF54C025E060A840B8E493A3D3
:102EEB00FAE493A3F8E493A3C8C582C8CAC583CAFE
:102EFB00F0A3C8C582C8CAC583CADFE9DEE780BEB6
:012F90000040
:101B2000E709F608DFFA8046E709F208DFFA803EA7
:101B300088828C83E709F0A3DFFA8032E309F60894
:101B4000DFFA8078E309F208DFFA807088828C83FC
:101B5000E309F0A3DFFA806489828A83E0A3F608B0
:101B6000DFFA805889828A83E0A3F208DFFA804C8A
:101B700080D280FA80C680D4806980F28033801061
:101B800080A680EA809A80A880DA80E280CA8033CA
:101B900089828A83ECFAE493A3C8C582C8CCC58342
:101BA000CCF0A3C8C582C8CCC583CCDFE9DEE78012
:101BB0000D89828A83E493A3F608DFF9ECFAA9F091
:101BC000EDFB2289828A83ECFAE0A3C8C582C8CCE7
:101BD000C583CCF0A3C8C582C8CCC583CCDFEADE00
:101BE000E880DB89828A83E493A3F208DFF980CC62
:101BF00088F0EF60010E4E60C388F0ED2402B4045B
:101C00000050B9F582EB2402B4040050AF23234501
:061C10008223901B70739B
:101C1600BB010689828A83E0225002E722BBFE02CC
:091C2600E32289828A83E49322FF
:101C2F00BB010CE58229F582E5833AF583E022506A
:101C3F0006E92582F8E622BBFE06E92582F8E222B4
:0D1C4F00E58229F582E5833AF583E49322CE
:101C5C00BB010FF8E58229F582E5833AF583E0288C
:101C6C00F0225009C58229F8E58226F622BBFE092E
:101C7C00C58229F8E22582F222F8EA2583F583E968
:031C8C0093282278
:101C8F00F8BB010DE58229F582E5833AF583E8F08B
:101C9F00225006E92582C8F622BBFE05E92582C837
:021CAF00F2221F
:101CB100C5F0F8A3E028F0C5F0F8E58215827002BE
:061CC1001583E038F0225B
:101CC700BB0110E58229F582E5833AF583E0F5F05B
:101CD700A3E0225009E92582F886F008E622BBFE38
:101CE7000AE92582F8E2F5F008E222E5832AF5837E
:081CF700E993F5F0A3E9932243
:101CFF00BB010DC58229C582C5833AC583021CB1BC
:101D0F005011C58229F808E5F026F618F5F0E5829E
:101D1F0036F622BBFE11C58229F808E225F0F5F050
:101D2F00F218E23582F222F8E58229F582E5832A5C
:0D1D3F00F58374019325F0F5F0E49338224C
:101D4C00F8BB0111E58229F582E5833AF583E8F0C9
:101D5C00E5F0A3F0225009E92582C8F608A6F02286
:0D1D6C00BBFE09E92582C8F2E5F008F2226D
:101D790075F008758200EF2FFFEE33FECD33CDCC21
:101D890033CCC58233C5829BED9AEC99E5829840A4
:101D99000CF582EE9BFEED9AFDEC99FC0FD5F0D681
:101DA900E4CEFBE4CDFAE4CCF9A88222B800C1B9AB
:101DB9000059BA002DEC8BF084CFCECDFCE5F0CBE9
:101DC900F97818EF2FFFEE33FEED33FDEC33FCEB22
:101DD90033FB10D703994004EB99FB0FD8E5E4F9DD
:101DE900FA227818EF2FFFEE33FEED33FDEC33FCCA
:101DF900C933C910D7059BE99A4007EC9BFCE99ABE
:101E0900F90FD8E0E4C9FAE4CCFB2275F010EF2F02
:101E1900FFEE33FEED33FDCC33CCC833C810D70702
:101E29009BEC9AE899400AED9BFDEC9AFCE899F83D
:0E1E39000FD5F0DAE4CDFBE4CCFAE4C8F922D0
:101E4700EB9FF5F0EA9E42F0E99D42F0E89C45F0F1
:011E57002268
:101E5800E8600FECC313FCED13FDEE13FEEF13FF68
:031E6800D8F1228C
:0C1E6B00ECF0A3EDF0A3EEF0A3EFF022EA
:101E7700A8828583F0D083D082121E8E121E8E1206
:101E87001E8E121E8EE473E493A3C583C5F0C5832B
:101E9700C8C582C8F0A3C583C5F0C583C8C582C8B5
:011EA7002218
:101EA800BB010789828A8302206B5005E9F802206A
:101EB80062BBFE05E9F802209489828A8302209D8C
:101EC800D083D082F8E4937012740193700DA3A3A9
:101ED80093F8740193F5828883E4737402936860BD
:061EE800EFA3A3A380DFBD
:061EEE008A838982E4737F
:101EF400E50E2582F582E50D3583F583B50D048560
:101F0400820E2210AF0685820EF50D2285820EF513
:041F14000DD2AF2219
:0D1F1800E50E2582F582E50D3583F5832267
:1020A900E508241DF582E43400F583E00508229053
:1020B900001A30070390001DE475F0011220740224
:1020C9001C162000E97F2ED2008018EF540F2490AF
:1020D900D43440D4FF30040BEF24BFB41A005003AA
:1020E9002461FFE50960021509050CE50C7002057C
:1020F9000B30070E90001AE475F001122074EF02FC
:10210900203A0238E77403D2078003E4C207F508CE
:1021190090001A12208BE4F509F50BF50CE509601E
:10212900077F201220EC80F5750AFFC201C200C2A8
:1021390002C203C205C206C2081220B8FF700D30E0
:1021490007057F001220FDAF0CAE0B22B4255FC23C
:10215900D5C2041220B8FF24D0B40A00501A75F071
:102169000A780930D50508B6FF0106C6A426F62067
:10217900D5047002D20380D924CFB41A00EF5004D9
:10218900C2E5D2040222FED20180C6D20080C0D2AA
:102199000280BCD2D580BAD20580B47F201220EC4F
:1021A9002002077401B5090040F11220A9FF12208D
:1021B900EC022126D208D20680951220A9FB122012
:1021C900A9FA1220A9F94A4B700679CF7A237BFF25
:1021D90020022EE509602A7E008E82758300121C7A
:1021E9002F60060EEE650A70F0C2D5EBC0E0EAC0BA
:1021F900E0E9C0E0EE122345D0E0F9D0E0FAD0E002
:10220900FB121C16FF60AAEBC0E0EAC0E0E9C0E0DF
:102219001220ECD0E02401F9D0E03400FAD0E0FB40
:10222900E50A0460DCD50AD980877BFF7A237941E6
:10223900D202809C791080027908C206C2088008FF
:10224900D2D5790A8004790AC2D5E50A047002F563
:102259000AE4FAFDFEFF1220A9FC7B0820011312F3
:1022690020A9FD7B1030000A1220A9FE1220A9FF27
:102279007B20EC3382D592D55013C3E43000069FFE
:10228900FFE49EFEE42001039DFDE49CFCE4CBF801
:10229900C201EC700CCFCECDCCE824F8F870F380F5
:1022A90017C3EF33FFEE33FEED33FDEC33FCEB33B5
:1022B900FB994002FB0FD8E9EB300105F8D0E0C4E7
:1022C90048B201C0E00AEC4D4E4F78207B0070C245
:1022D900EAB50A0040BCC0E0122347D0F0D0E020A4
:1022E9000104C4C0E0C4B201C0F01220D5D0F0D5B9
:1022F900F0EB022126121EC821C353223D58219416
:102309004C21904222414F22494422494921A94363
:08231900224F55223346223306
:102321004522334723EF5021982D219C2E21BF2B8D
:1023310021A02321BD2023D82A215848000021B7FC
:102341003F3F3F00790AA2D5200314300509B91097
:10235100020404B9080104A2D52006025001042098
:1023610002689202B509005034C0E07F20300319A1
:102371007F30A20272067205500F12239EC202C262
:1023810006C205C2087F30800F300503E9C0E012A4
:1023910020EC300503D0E0F9D0E0B509CC300517C9
:1023A1007F30B9100C1220EC7F583004077F788001
:1023B10003B908031220EC3002057F2D0220EC7FC7
:1023C100202008F87F2B2006F322920280CF286E6E
:1023D100756C6C2900D2011220A93001F8C2017874
:1023E1000930D50108F60221582D504349581220D1
:1023F100A92403B405004001E49023EA931220DDEF
:0D240100743A1220DDD20375090402223D59
:101F2500E709F60870FA8046E709F20870FA803E7C
:101F350088828C83E709F0A370FA807EE309F608AE
:101F450070FA8076E309F20870FA806E88828C83D5
:101F5500E309F0A370FA806289828A83E0A3F60818
:101F650070FA805689828A83E0A3F20870FA804A63
:101F750080D280FA80C680D4806580F2803180105E
:101F850080A680EA809A80A880DA80E280CA8031C3
:101F950089828A83ECFAE493A3C8C582C8CCC58339
:101FA500CCF0A3C8C582C8CCC583CC70E9800D89A7
:101FB500828A83E493A3F60870F9ECFAA9F0EDFBA5
:101FC5002289828A83ECFAE0A3C8C582C8CCC5837E
:101FD500CCF0A3C8C582C8CCC583CC70EA80DD89A6
:101FE500828A83E493A3F20870F980CE88F0ED2409
:101FF50002B4040050C4F582EB2402B4040050BAC4
:092005002323458223901F75730B
:1031EC0090000FEBF0A3EAF0A3E9F0E4900017F0E5
:1031FC00A3F090001574FFF5F012204C45F0603CE4
:10320C00900012E0FBA3E0FAA3E0F9121C16FF9069
:10321C00000FE0FBA3E0FAA3E0F9900017E475F0CF
:10322C000112204C85F082F583EF121C8FEF60C2E7
:10323C00900013E475F001121CB180B690000FE001
:08324C00FBA3E0FAA3E0F92264
:103DAE00E4FFFE121C16600C0FEF70010E09E97095
:053DBE00F20A80EF2273
:10200E00EF4E6012EF60010EEDBB010B89828A83E9
:10201E00F0A3DFFCDEFA2289F05007F709DFFCA9F6
:0C202E00F022BBFEFCF309DFFCA9F0224D
:10203A00BB010689828A83F0225002F722BBFE0185
:02204A00F3227F
:10204C00A3F8E0C5F025F0F0E58215827002158347
:06205C00E0C838F0E822A4
:09206200E6FB08E6FA08E6F922A3
:09206B00E0FBA3E0FAA3E0F92276
:10207400F8E0FBA3A3E0F925F0F0E58215827002F5
:072084001583E0FA38F02299
:09208B00EBF0A3EAF0A3E9F02256
:09209400E2FB08E2FA08E2F9227D
:0C209D00E493FB740193FA740293F9229F
:00000001FF
