:0736490063683020256400D6
:1028C9005000570000000000000000000000000058
:0B28D9000000004100550041005600C7
:03005B00022C92E2
:102C9200C0E0C0D075D000C000C001C005C006C0F1
:102CA20007C2EFAFC37815E6FD25E02416F87600DB
:102CB20008A607ED25E02416F8C000F9E7FE09E7AB
:102CC2007802C333CE33CED8F9D000A60608F6ED8B
:102CD20025E02416F8AFC2E6F6EF0846F6D007D094
:0C2CE20006D005D001D000D0D0D0E032E8
:10283A007F02121F6E12332D1231A21233B01237D9
:10284A000A90009AE06005E4F012327690009CE06B
:0D285A006005E4F012334890009EE06043FA
:10286700E4900001F090009EF0122599123508902F
:102877000055E004F0E0C394054025E4F090001D06
:1028870074FFF0A37436F0A37449F07816E6FF08D6
:10289700E6A3CFF0A3EFF07B017A007957121B1A5A
:0328A70012000E0E
:0628AA009000A1E06008AF
:0828B000E4F0900056E004F092
:1028B8001232F5900000EFF06089E0FF1216668092
:0128C800828D
:05166600900002EFF00E
:10166B00E4A3F0A3F0900003F0FE7F10FDFB7A00E3
:10167B00799D1215E1900002E024FEB4190040039D
:10168B00021AA190169C75F003A4C58325F0C5839F
:10169B00730216E7021747021AA10217A7021AA133
:1016AB00021807021AA1021AA1021867021AA10254
:1016BB001AA1021AA10218C7021AA1021AA1021931
:1016CB0027021AA1021AA1021987021AA1021AA152
:1016DB000219E7021AA1021AA1021A44900003E0B0
:1016EB00FF04F0749D2FF876F2E0FF04F0749D2F49
:1016FB00F87602E0FF04F0749D2FF876B1E0FF045A
:10170B00F0749D2FF87603E4A3F0789EE62401FF96
:10171B00E433FE900004E0FDC39FEE6480F8748018
:10172B00984003021AA1749E2DF8E6FF900003E087
:10173B00249DF8EF26F6A3E004F080CE900003E0A2
:10174B00FF04F0749D2FF876F2E0FF04F0749D2FE8
:10175B00F87602E0FF04F0749D2FF876BAE0FF04F0
:10176B00F0749D2FF87603E4A3F0789EE62401FF36
:10177B00E433FE900004E0FDC39FEE6480F87480B8
:10178B00984003021AA1749E2DF8E6FF900003E027
:10179B00249DF8EF26F6A3E004F080CE900003E042
:1017AB00FF04F0749D2FF876F2E0FF04F0749D2F88
:1017BB00F87602E0FF04F0749D2FF876B2E0FF0498
:1017CB00F0749D2FF87603E4A3F0789EE62401FFD6
:1017DB00E433FE900004E0FDC39FEE6480F8748058
:1017EB00984003021AA1749E2DF8E6FF900003E0C7
:1017FB00249DF8EF26F6A3E004F080CE900003E0E2
:10180B00FF04F0749D2FF876F2E0FF04F0749D2F27
:10181B00F87602E0FF04F0749D2FF876B4E0FF0435
:10182B00F0749D2FF87601E4A3F0789EE62401FF77
:10183B00E433FE900004E0FDC39FEE6480F87480F7
:10184B00984003021AA1749E2DF8E6FF900003E066
:10185B00249DF8EF26F6A3E004F080CE900003E081
:10186B00FF04F0749D2FF876F2E0FF04F0749D2FC7
:10187B00F87602E0FF04F0749D2FF876B3E0FF04D6
:10188B00F0749D2FF87601E4A3F0789EE62401FF17
:10189B00E433FE900004E0FDC39FEE6480F8748097
:1018AB00984003021AA1749E2DF8E6FF900003E006
:1018BB00249DF8EF26F6A3E004F080CE900003E021
:1018CB00FF04F0749D2FF876F2E0FF04F0749D2F67
:1018DB00F87602E0FF04F0749D2FF876B5E0FF0474
:1018EB00F0749D2FF87601E4A3F0789EE62401FFB7
:1018FB00E433FE900004E0FDC39FEE6480F8748037
:10190B00984003021AA1749E2DF8E6FF900003E0A5
:10191B00249DF8EF26F6A3E004F080CE900003E0C0
:10192B00FF04F0749D2FF876F2E0FF04F0749D2F06
:10193B00F87602E0FF04F0749D2FF876B6E0FF0412
:10194B00F0749D2FF87603E4A3F0789EE62401FF54
:10195B00E433FE900004E0FDC39FEE6480F87480D6
:10196B00984003021AA1749E2DF8E6FF900003E045
:10197B00249DF8EF26F6A3E004F080CE900003E060
:10198B00FF04F0749D2FF876F2E0FF04F0749D2FA6
:10199B00F87602E0FF04F0749D2FF876B7E0FF04B1
:1019AB00F0749D2FF87602E4A3F0789EE62401FFF5
:1019BB00E433FE900004E0FDC39FEE6480F8748076
:1019CB00984003021AA1749E2DF8E6FF900003E0E5
:1019DB00249DF8EF26F6A3E004F080CE900003E000
:1019EB00FF04F0749D2FF876F2E0FF04F0749D2F46
:1019FB00F87602E0FF04F0749D2FF876B8E0FF0450
:101A0B00F0749D2FF87601E4A3F0789EE62401FF95
:101A1B00E433FE900004E0FDC39FEE6480F8748015
:101A2B00985073749E2DF8E6FF900003E0249DF808
:101A3B00EF26F6A3E004F080D1900003E0FF04F062
:101A4B00749D2FF876F2E0FF04F0749D2FF8760268
:101A5B00E0FF04F0749D2FF876B9E0FF04F0749D5D
:101A6B002FF87601E4A3F0789EE62401FFE433FE21
:101A7B00900004E0FDC39FEE6480F87480985016CC
:101A8B00749E2DF8E6FF900003E0249DF8EF26F6F8
:101A9B00A3E004F080D1900003E0600D04F07B0024
:091AAB007A00799DE0FD122DFB8B
:011AB400220F
:03370A000236B2D2
:01371C00228A
:01371D002289
:01371E002288
:0C35A700900073EBF0A3EAF0A3E9F0221F
:0C35B300900076EBF0A3EAF0A3E9F02210
:10348E00900073A3E0FAA3E0F94A60031214C1227C
:10349E00900076A3E0FAA3E0F94A60031214C12269
:102FF400EF4E602D900069EEF0A3EFF0AF05A3EC67
:10300400F0A3EFF0AF03A3EAF0A3EFF0E4A3F0A37F
:10301400F0A3F0A3F0900068F090006704F012347D
:023024008E22FA
:10340900E4900067F012349E7B007A00790012354F
:04341900A70235B31E
:0A35D600900067E06002D322C322D8
:10259900900067E0700302264D90006BE0FEA3E017
:1025A900FF4E700302264D900068E07035D3EF941A
:1025B90000EE9400500302264D90006FE475F0017F
:1025C900121284FED390006AE095F0900069E09EB3
:1025D900507212349EE490006FF0A3F090006804EA
:1025E900F022900068E06401705A90006F75F00164
:1025F900121284FED390006CE095F090006BE09E7F
:10260900504290006DE0FEA3E0FF9400EE9400407C
:1026190025900071E475F001121284FCD3EF95F056
:10262900EE9C5005E4900067F0900067E070079019
:10263900006BF0A3F022E490006FF0A3F090006823
:05264900F012348E22A6
:1024BA002042415A4F4F4B410020505752204F461D
:1024CA00460052454C4159204F4E0052454C415905
:1024DA004F46460020564F4C2025750020202020CC
:1024EA002020202000202020504155534500202044
:1024FA002020504C4159005343414E4E494E47000B
:10250A002020204D55544520002020204E45585467
:10251A002000202020505245562000202020205301
:10252A00542575005452202575005052495245448D
:10253A000050414952494E4700464D2025752575A0
:10254A0000464D20202575257500464D2020202562
:10255A0075257500504C4159004D555445002020B1
:10256A00202575253032750020202020257525303C
:10257A003275002020202020257525303275000074
:0F258A0000000000000000000000000000000042
:1028E40001AD0010AE000000000000000000000078
:1028F4000000000000109D00000000000000000027
:1029040000000000000000500079000000000000FA
:0A29140000000000000000000000B9
:1031A200E478ADF6FE7F10FDFB7A0079AE1215E1F0
:1031B2007E007F107D007B007A00799D1215E1125E
:0531C20020B302317C86
:102DFB00900005EBF0A3EAF0A3E9F0A3EDF0D39478
:102E0B0010503D12356278AD7601900005E0FBA3C2
:102E1B00E0FAA3E0F990009DEB7008E9658270037E
:102E2B00EA6583601B900008E0FF7E00789D7C00C4
:102E3B007D00900005E0FBA3E0FAA3E0F912116E10
:012E4B002264
:1033C8007810E67BFF30E1067A2479BA80047A2403
:0633D80079C31226FE225B
:1033DE007810E67BFF30E0067A2479CC80047A24DC
:0633EE0079D51226FE2233
:102F1100780A7C007D017BFF7A2579897E007F100C
:102F210012116E90001D74FFF0A37424F0A374DEDF
:102F3100F07811E6FFA3E4F0A3EFF07B017A0079CA
:0D2F41000A121B1A7B017A00790A0226FE93
:0F34AE007BFF7A2479E61226FE1236B90236C762
:0935EA007BFF7A2479EF0226FE32
:0935F3007BFF7A2479F80226FE20
:10346A007BFF7A2579011226FE1236B91236C70277
:02347A00369D7D
:0935FC007BFF7A25790A0226FE04
:093605007BFF7A2479F80226FE0D
:0F34BD007BFF7A2479EF1226FE1236B90236C74A
:0F34CC007BFF7A2579131226FE1236B90236C716
:0F34DB007BFF7A25791C1226FE1236B90236C7FE
:1030580090001D74FFF0A37425F0A37425F0781276
:10306800E6FFA3E4F0A3EFF07B017A007979121B65
:103078001A7B017A0079791226FE1236B90236CE09
:1030260090001D74FFF0A37425F0A3742EF078139E
:10303600E6FF08E6A3CFF0A3EFF07B017A007979EB
:10304600121B1A7B017A0079791226FE1236B90212
:0230560036C77B
:0F34EA007B017A0079791226FE1236B90236C7B5
:0F34F9007BFF7A2479E61226FE1236B90236C717
:0B095800900002EBF0A3EAF0A3E9F02E
:10096300E4A3F0A3F0A3F012119464F8600302105F
:100973009D123713900002E0FBA3E0FAA3E0F99085
:1009830000011211ADD39410400302109DE49000B6
:1009930005F0900002E0FBA3E0FAA3E0F990000168
:1009A3001211AD2401FFE433FE900005E0FDC39F67
:1009B300EE6480F8748098501DED2401FFE433FE4B
:1009C3008F828E831211ADFF900007E02FF090000D
:1009D30005E004F080BC900002E0FBA3E0FAA3E092
:1009E300F99000011211ADF582758300A3A31211D2
:1009F300ADFF900007E06F600302109D7E007F1043
:100A03007D007B007A00799D1215E1E4900006F0E9
:100A1300900002E0FBA3E0FAA3E0F99000021211B8
:100A2300AD244EB409004003021095900A3C75F0C2
:100A330003A4C58325F0C58373020C0D020AA40227
:100A43000B1C020BD5020A7B020BF1020DEC020B0D
:100A5300A7020A579000031211AD7810600DE64407
:100A630002F67BFF7A3379C8020C4AE654FDF67B23
:100A7300FF7A3379C8020C9D900002E0FBA3E0FAF1
:100A8300A3E0F99000031211AD7810B40106E64417
:100A930001F68004E654FEF67BFF7A3379DE020C1E
:100AA3004A900002E0FBA3E0FAA3E0F990000312EE
:100AB30011AD24FE601724FE603014605A240460D4
:100AC300030210957BFF7A3479DB020C4A90000213
:100AD300E0FBA3E0FAA3E0F99000041211AD781251
:100AE300F67BFF7A307958020C4A900002E0FBA3B0
:100AF300E0FAA3E0F99000041211AD781376000830
:100B0300F69000051211AD781346F608E6F67BFF62
:100B13007A307926020C4A8076900002E0FBA3E04B
:100B2300FAA3E0F99000031211AD24FE601724FE2E
:100B3300603014605A240460030210957BFF7A34FA
:100B430079CC020C4A900002E0FBA3E0FAA3E0F99F
:100B53009000041211AD7812F67BFF7A30795802B7
:100B63000C4A900002E0FBA3E0FAA3E0F990000432
:100B73001211AD7813760008F69000051211AD78C6
:100B83001346F608E6F67BFF7A307926020C4A9084
:100B93000002E0FBA3E0FAA3E02404F9E43AFA7DBF
:100BA30008021092900002E0FBA3E0FAA3E0F990A0
:100BB30000031211AD640170109000041211AD64B2
:100BC300017003020D82020DB37B007A00790002EB
:100BD3000DCE900002E0FBA3E0FAA3E0F99000033E
:100BE3001211AD7811F67BFF7A2F7911805990009D
:100BF30002E0FBA3E0FAA3E0F99000031211AD7841
:100C030011F67BFF7A2F7911803D900002E0FBA360
:100C1300E0FAA3E0F99000031211AD24FE60611421
:100C23007003020CCA147003020D30147003020D1A
:100C33006D240460030210959000041211ADB401F9
:100C43001F7BFF7A3579F31235A77B007A00790091
:100C53001235B37B017A007D017C007F14020DE421
:100C6300900002E0FBA3E0FAA3E0F9900004121164
:100C7300AD640260030210957BFF7A3579EA8061E7
:100C8300900002E0FBA3E0FAA3E0F9900004121144
:100C9300ADB4021D7BFF7A34796A1235A77B007AE3
:100CA3000079001235B3E4FBFA7D01FC7F14020DD9
:100CB300B0900002E0FBA3E0FAA3E0F99000041275
:100CC30011AD6401021095900002E0FBA3E0FAA3CA
:100CD300E0F99000041211ADB4011D7BFF7A36795F
:100CE300051235A77BFF7A3479AE1235B3E4FBFAEC
:100CF3007D0AFC7F0A020DB0900002E0FBA3E0FA3C
:100D0300A3E0F99000041211AD6402600302109590
:100D13007BFF7A3579FC1235A77BFF7A3479AE12E3
:100D230035B3E4FBFA7D0AFC7F0A020DB0900002A2
:100D3300E0FBA3E0FAA3E0F99000041211ADFF6415
:100D4300017003021095EF640260030210957BFFAC
:100D53007A3479BD1235A77BFF7A3479AE1235B375
:100D6300E4FBFA7D0AFC7F0A8043900002E0FBA3C8
:100D7300E0FAA3E0F99000041211AD64017031E9C7
:100D83002405F9E43AFA78797C007D017E007F0836
:100D930012116E7BFF7A3479EA1235A77BFF7A341E
:100DA30079F91235B3E4FBFA7D08FC7F08FE803342
:100DB300900002E0FBA3E0FAA3E02405F9E43AFA89
:100DC3007D081232557BFF7A3479EA1235A77B000E
:100DD3007A0079001235B37B017A007D017C007FB4
:100DE300017E00122FF402109512369D1236B912AD
:100DF30036C712367312366512368112368F90005B
:100E030002E0FBA3E0FAA3E0F99000031211AD2482
:100E1300FE606F147003020F2B147003020F8724FC
:100E230003600302109512367A900002E0FBA3E000
:100E3300FAA3E0F99000041211ADB4010E78797CA5
:100E4300007D017BFF7A2579348020900002E0FB4E
:100E5300A3E0FAA3E0F99000041211ADB4020F78F5
:100E6300797C007D017BFF7A25793B1215C47B01D8
:100E73007A0079791233F4AD077B017A007979022C
:100E8300109212366C1236A41236C7900002E0FBA1
:100E9300A3E0FAA3E0F99000041211ADFFD3946329
:100EA300401090001D74FFF0A37425F0A37443F069
:100EB3008042900002E0FBA3E0FAA3E0F990000473
:100EC3001211ADFFD3940990001D74FF400BF0A3E2
:100ED3007425F0A3744BF0801BF0A37425F0A37466
:100EE30054F0900002E0FBA3E0FAA3E0F9900004C1
:100EF3001211ADFF900020E4F0A3EFF09000051273
:100F030011ADFF900022E4F0A3EFF07B017A0079AA
:100F130079121B1A7B017A0079791233F4AD077BBE
:100F2300017A007979021092123688900002E0FB70
:100F3300A3E0FAA3E0F99000041211ADB4010E7816
:100F4300797C007D017BFF7A25795E802090000209
:100F5300E0FBA3E0FAA3E0F99000041211ADB402A0
:100F63000F78797C007D017BFF7A2579631215C4A4
:100F73007B017A0079791233F4AD077B017A00792A
:040F8300790210924D
:100F8700E4900008F0A3F0900002E0FBA3E0FAA3CE
:100F9700E0F99000041211ADFF900008E4F0A3EF10
:100FA700F0E0F8E4F0E8900008F09000051211ADC9
:100FB700FF900008E0F0A3E04FF01236969000088B
:100FC700E0FEA3E0FF7C007D3C12122FAC06AD07CC
:100FD700D3ED9463EC9400402490001D74FFF0A3BC
:100FE7007425F0A37468F0900008E0FEA3E0FF907A
:100FF7000020ECF0A3EDF07C007D3C806B900008B6
:10100700E0FEA3E0FF7C007D3C12122FAC06AD078B
:10101700D3ED9409EC940090001D74FF401FF0A3DA
:101027007425F0A37472F0900008E0FEA3E0FF902F
:101037000020ECF0A3EDF07C007D3C802BF0A37446
:1010470025F0A3747DF0900008E0FAA3E0FB7C0094
:101057007D3CFFAE0212122F900020EEF0A3EFF0BE
:101067007C007D3CAF03AE0212122FA3ECF0A3ED80
:10107700F07B017A007979121B1A7B017A00797962
:0E1087001233F4AD077B017A007979123255ED
:08109500900006E0600204F087
:01109D002230
:10000E0078ADE660301235E0EF24F0601724D06052
:10001E0011242070151235BF1236D5E478ADF602D4
:10002E00317C80001235BF0236D57B007A00799D77
:10003E007D10022E8F7B007A0079AE7D101230DC9F
:0D004E00EF60097B007A0079AE120958229C
:0800030044454641554C5400F0
:10291E0050008900000000000000000000000000D0
:03292E00000000A6
:1033B0007BFF7A0079031233F478897C007D017BEE
:0833C000FF7A00790302116E8F
:1032550090000AEDF0FF7E0078897C007D01121157
:103265006E90000AE02489F582E43400F583E4F0E9
:013275002236
:0F3508001235D640097B017A0079891226FE22FE
:10332D001232B8122F8B122FC11236E81236171225
:0B333D00320F123431123620D2AF22C2
:0A2931004200A900004200A70000C8
:09360E003082037F00227F0122BB
:092A48007818E6FC08E6FD7E03A7
:102A5100EF2405FBE43EFAD3EB94FFEA940340062E
:102A61007A037BFF8007EF2405FBE43EFA9000A97F
:102A7100EAF0A3EBF0C3EF9405EE940050067E005C
:102A81007F008008EF24FBFFEE34FFFE9000A7EEED
:102A9100F0A3EFF0C3ED9FEC9E40109000AAE09DE3
:0E2AA1009000A9E09C40047F0180027F00228B
:0F3517007816E6FC08E6FD7FD47E03122A5122C7
:0F3526007816E6FC08E6FD7FBB7E03122A5122D1
:0F3535007816E6FC08E6FD7F747E03122A512209
:0E3571007816E6FC08E6FDE4FFFE122A512261
:0636DC007FDF122A4822E4
:0636E2007FD1122A4822EC
:0F3544007818E6FC08E6FD7FB87E03122A5122B4
:0F3553007818E6FC08E6FD7F717E03122A5122EC
:10347C0012360EEF60091236DCEF60037F01227FFB
:02348C0000221C
:0636E80012264E023650CE
:10341D00789BE62490F8A607789B06E6C3940A40AD
:04342D0002E4F6229D
:1032F500789AE6FE08667002FF2274902EF8E6FFC3
:0B330500789A06E6C3940A4002E4F642
:01331000229A
:10331100789CE6FE18667002FF2274902EF8E6FF94
:0B332100789C06E6C3940A4002E4F624
:01332C00227E
:0B35CB00EF75F00BA4242AF8E6FF22A5
:1031C700EF75F00BA42428F8A60408A605AE03EFB4
:1031D70075F00BA4242BF8A606EF75F00BA4242C8E
:0431E700F8E4F622F0
:0636EE00789BE618F622AD
:0736500043B10453B2FB2259
:10264E00E4789AF608F608F6FFEF75F00BA4242846
:10265E00F876000876C8EF75F00BA42425F87602FC
:10266E00EF75F00BA4242AF8E4F6EF75F00BA42412
:10267E002BF8E4F6EF75F00BA4242CF8E4F60FEF2C
:10268E00B40AC6784C763278577632782276FF08BE
:10269E00763608760E782D76FF087635087617781A
:1026AE003876FF087635087626784376FF08763535
:1026BE00087635784E76FF08763508767178597635
:1026CE00FF0876360876DC786476FF08763608766C
:1026DE00E2786F76FF087635087644787A76FF08CA
:0F26EE007635087653788576FF08763408767C43
:0126FD0022BA
:101E1A00900003EFF0E075F00BA42422F9E4FAFB3A
:101E2A009000A4F0A3F0A3E9F012147B1214C1EFFE
:101E3A007003021F069000A4E0FBA3E0FAA3E0F9F6
:101E4A009000031211ADFFC394055008900003746B
:101E5A0005021F6AEFC3940A500890000374010236
:101E6A0011DA9000081211AD7014900008041212D1
:101E7A000D900003E075F003A404FF12341D9000D6
:101E8A00A4E0FBA3E0FAA3E0F990000612129AFF7D
:101E9A00AEF0D39400EE94005003021F6D9000043C
:101EAA0012129AC39FE5F09E5023900004E475F045
:101EBA00011212D2FCE5F06F7002EC6E6003021F91
:101ECA006D900003E075F003A42403802B900009B1
:101EDA001211ADFFD394005003021F6D90000A74D3
:101EEA00011211DAC39F407B90000AE412120D908E
:101EFA000003E075F003A404FF02341D9000A4E07F
:101F0A00FBA3E0FAA3E0F99000031211ADFFD3940A
:101F1A0005400A900003740512120D802BEF600A27
:101F2A0090000374FF1211DA801E9000081211AD9E
:101F3A00B40115900008E412120D900003E075F048
:101F4A0003A42402FF12341D9000A4E0FBA3E0FACC
:101F5A00A3E0F9900004E4F5F012131F90000AE4DC
:041F6A0012120D2220
:10334800E4900002F0900002E0FFC3940A500B12D0
:0A3358001E1A900002E004F080EB62
:013362002248
:102F8B00E4F5B275B180F5B475B3FFF5B675B5FF61
:102F9B00F5AD75AC0FF5DB75DAFFF5DD75DCFFF51F
:102FAB00F975FA0475E5FF75E6FF75E7FF75EEFF3A
:062FBB0043F98002358D90
:0C358D00E4FF8FFBE4F5FC0FEFB420F628
:01359900220F
:0736570075FB1253FCF72282
:07365E0075FB1243FC08227A
:0736650075FB0E53FCF72278
:07366C0075FB0E43FC082270
:0736730075FB0B53FCF7226D
:07367A0075FB0B43FC082265
:0736810075FB0A53FCF72260
:0736880075FB0A43FC082258
:07368F0075FB0353FCF72259
:0736960075FB0343FC082251
:07369D0075FB0253FCF7224C
:0736A40075FB0243FC082244
:0736AB0075FB0F53FCF72231
:0736B20075FB0F43FC082229
:0736B90075FB0753FCF7222B
:0736C00075FB0743FC082223
:0736C70075FB0653FCF7221E
:0736CE0075FB0643FC082216
:0636F4001236B90236C7D0
:0636FA001236C00236CEBC
:1022F300EFB4080040030223D6902303F828287381
:1023030002231B02233302234B022362022379029B
:1023130023900223A70223BE75FB1F53FCF875FB12
:102323001E53FCF875FB1D53FCF075FB1C0223D3F5
:1023330075FB1B53FCF875FB1A53FCF875FB19531B
:10234300FCF075FB180223D375FB1753FCF875FBE0
:102353001653FCF875FB1553FCF075FB148071756F
:10236300FB1353FCF875FB1253FCF875FB1153FC7C
:10237300F075FB10805A75FB0F53FCF875FB0E5379
:10238300FCF875FB0D53FCF075FB0C804375FB0BE0
:1023930053FCF875FB0A53FCF875FB0953FCF07505
:1023A300FB08802C75FB0753FCF875FB0653FCF800
:1023B30075FB0553FCF075FB04801575FB0353FC9B
:1023C300F875FB0253FCF875FB0153FCF0E4F5FBD5
:0423D30053FCF022A5
:0C359A00E4FEAF061222F30EEEB408F6B9
:0135A6002202
:10005E00EFD394074003020957ED64536004EDB4E7
:10006E0073047D35801EEDB467047D398016EDB4C2
:10007E006C047D4C800EEDB470047D508006EDB4A2
:10008E0078027D58ED12149B024720014530016F16
:10009E003101933201A83301BD3401D23501E73667
:1000AE0001F937022038023239024A41025C42021B
:1000BE00834302A44402CB4502E9460310470331B1
:1000CE0048035549037C4A03A34B03C74C03EE4D2B
:1000DE0004184E04424F046C5004935104BD520454
:1000EE00EB54051255053956056757058E5805AC64
:1000FE005905D35A05FD61062762064B63067264E5
:10010E0006996506C76606EE6807126907366A071E
:10011E00616B078C6D07B26E07D86F0806710837D2
:10012E0072085A7408857508AB7608D67709047973
:10013E00092A7A00000957EF25E025E0FEC3741F57
:10014E009EF5FB43FC0553FCFDC3741E9EF5FB435D
:10015E00FC0553FCFDC3741D9EF5FB75FC090207DF
:10016E0057EF25E025E0FEC3741F9EF5FB53FCF808
:10017E00C3741E9EF5FB53FCF8C3741D9EF5FB75F0
:10018E00FC01020757EF25E025E0FEC3741F9EF524
:10019E00FB43FC0653FCFE0206A8EF25E025E0FE1D
:1001AE00C3741F9EF5FB43FC0253FCFA02060FEFCD
:1001BE0025E025E0FEC3741F9EF5FB43FC0353FCB4
:1001CE00FB020340EF25E025E0FEC3741F9EF5FB06
:1001DE0043FC0353FCFB020322EF25E025E0FEC3A4
:1001EE00741F9EF5FB43FC07020322EF25E025E07A
:1001FE00FEC3741F9EF5FB53FCF8C3741E9EF5FBE5
:10020E0043FC0153FCF9C3741D9EF5FBE4F5FC029F
:10021E000757EF25E025E0FEC3741F9EF5FB43FC58
:10022E000702060FEF25E025E0FEC3741F9EF5FBC7
:10023E0043FC0353FCFB02060F0222F3EF25E025DD
:10024E00E0FEC3741F9EF5FB43FC07020818EF2562
:10025E00E025E0FEC3741F9EF5FB53FCF8C3741E2D
:10026E009EF5FB43FC0153FCF9C3741D9EF5FB7513
:10027E00FC0E02082DEF25E025E0FEC3741F9EF54F
:10028E00FB43FC0553FCFDC3741E9EF5FB43FC01B2
:10029E0053FCF90203E2EF25E025E0FEC3741F9E36
:1002AE00F5FB53FCF8C3741E9EF5FB43FC0153FC97
:1002BE00F9C3741D9EF5FB75FC0E020757EF25E082
:1002CE0025E0FEC3741F9EF5FB43FC07C3741E9E00
:1002DE00F5FB43FC0153FCF9020666EF25E025E031
:1002EE00FEC3741F9EF5FB43FC07C3741E9EF5FBF5
:1002FE0043FC0153FCF9C3741D9EF5FBE4F5FC02AF
:10030E00087BEF25E025E0FEC3741F9EF5FB43FC42
:10031E000553FCFDC3741E9EF5FB43FC0153FCF913
:10032E0002063FEF25E025E0FEC3741F9EF5FB435A
:10033E00FC07C3741E9EF5FB53FCF8C3741D9EF59B
:10034E00FBE4F5FC02082DEF25E025E0FEC3741F4B
:10035E009EF5FB53FCF8C3741E9EF5FB43FC015344
:10036E00FCF9C3741D9EF5FB75FC0E02094EEF25BC
:10037E00E025E0FEC3741F9EF5FB43FC0453FCFC1A
:10038E00C3741E9EF5FB53FCF8C3741D9EF5FB75DE
:10039E00FC08020757EF25E025E0FEC3741F9EF50B
:1003AE00FB43FC07C3741E9EF5FB53FCF8C3741D80
:1003BE009EF5FB75FC010207FCEF25E025E0FEC370
:1003CE00741F9EF5FB43FC0553FCFDC3741E9EF586
:1003DE00FB53FCF8C3741D9EF5FB75FC0802094E19
:1003EE00EF25E025E0FEC3741F9EF5FB43FC05538D
:1003FE00FCFDC3741E9EF5FB43FC0253FCFAC37452
:10040E001D9EF5FB75FC05020757EF25E025E0FE66
:10041E00C3741F9EF5FB43FC0553FCFDC3741E9E67
:10042E00F5FB43FC0153FCF9C3741D9EF5FBE4F58B
:10043E00FC020757EF25E025E0FEC3741F9EF5FB77
:10044E0043FC0553FCFDC3741E9EF5FB43FC015398
:10045E00FCF9C3741D9EF5FB75FC08020757EF25CA
:10046E00E025E0FEC3741F9EF5FB43FC07C3741E1C
:10047E009EF5FB43FC0153FCF9C3741D9EF5FBE492
:10048E00F5FC0206BDEF25E025E0FEC3741F9EF5C8
:10049E00FB43FC0553FCFDC3741E9EF5FB43FC01A0
:1004AE0053FCF9C3741D9EF5FB75FC0802055DEF48
:1004BE0025E025E0FEC3741F9EF5FB43FC07C374C5
:1004CE001E9EF5FB43FC0153FCF9C3741D9EF5FB08
:1004DE00E4F5FCC3741C9EF5FB75FC0722EF25E0CA
:1004EE0025E0FEC3741F9EF5FB53FCF8C3741E9EDD
:1004FE00F5FB43FC0153FCF9C3741D9EF5FB75FC23
:10050E000602094EEF25E025E0FEC3741F9EF5FBA3
:10051E0043FC0553FCFDC3741E9EF5FB53FCF8C350
:10052E00741D9EF5FB75FC08020757EF25E025E0CC
:10053E00FEC3741F9EF5FB53FCF8C3741E9EF5FBA1
:10054E0043FC0253FCFAC3741D9EF5FBE4F5FCC399
:10055E00741C9EF5FB75FC0D22EF25E025E0FEC315
:10056E00741F9EF5FB43FC0553FCFDC3741E9EF5E4
:10057E00FB53FCF8C3741D9EF5FB75FC0E0207576A
:10058E00EF25E025E0FEC3741F9EF5FB53FCF8C378
:10059E00741E9EF5FB43FC0653FCFE020779EF2505
:1005AE00E025E0FEC3741F9EF5FB43FC0353FCFBEA
:1005BE00C3741E9EF5FB53FCF8C3741D9EF5FB75AC
:1005CE00FC0802082DEF25E025E0FEC3741F9EF502
:1005DE00FB43FC0253FCFAC3741E9EF5FB43FC0561
:1005EE0053FCFDC3741D9EF5FB75FC0902087BEFE1
:1005FE0025E025E0FEC3741F9EF5FB43FC0653FC6D
:10060E00FEC3741E9EF5FB43FC0153FCF9C3741D1F
:10061E009EF5FB75FC0802082DEF25E025E0FEC3D4
:10062E00741F9EF5FB43FC07C3741E9EF5FB53FC23
:10063E00F8C3741D9EF5FB75FC080207FCEF25E060
:10064E0025E0FEC3741F9EF5FB43FC0653FCFEC360
:10065E00741E9EF5FB53FCF8C3741D9EF5FB75FCD2
:10066E000802087BEF25E025E0FEC3741F9EF5FB14
:10067E0043FC0653FCFEC3741E9EF5FB53FCF8C3ED
:10068E00741D9EF5FB75FC0802082DEF25E025E094
:10069E00FEC3741F9EF5FB43FC07C3741E9EF5FB41
:1006AE0043FC0153FCF9C3741D9EF5FB75FC08C396
:1006BE00741C9EF5FB75FC0322EF25E025E0FEC3BE
:1006CE00741F9EF5FB43FC07C3741E9EF5FB43FC93
:1006DE000153FCF9C3741D9EF5FBE4F5FC02094EB3
:1006EE00EF25E025E0FEC3741F9EF5FB43FC07C318
:1006FE00741E9EF5FB53FCF8C3741D9EF5FBE4F5CA
:10070E00FC0207FCEF25E025E0FEC3741F9EF5FBFF
:10071E0053FCF8C3741E9EF5FB53FCF8C3741D9E68
:10072E00F5FB75FC0602094EEF25E025E0FEC374CD
:10073E001F9EF5FB53FCF8C3741E9EF5FB53FCF88D
:10074E00C3741D9EF5FB75FC08C3741C9EF5FB75EA
:10075E00FC0922EF25E025E0FEC3741F9EF5FB4346
:10076E00FC07C3741E9EF5FB53FCF8C3741D9EF567
:10077E00FB75FC01C3741C9EF5FB75FC0422EF2572
:10078E00E025E0FEC3741F9EF5FB43FC0653FCFE02
:10079E00C3741E9EF5FB53FCF8C3741D9EF5FB75CA
:1007AE00FC04804AEF25E025E0FEC3741F9EF5FB96
:1007BE0043FC0653FCFEC3741E9EF5FB53FCF8C3AC
:1007CE00741D9EF5FBE4F5FC8024EF25E025E0FE8C
:1007DE00C3741F9EF5FB43FC0653FCFEC3741E9EA2
:1007EE00F5FB53FCF8C3741D9EF5FB75FC08C37432
:1007FE001C9EF5FB75FC0A22EF25E025E0FEC37476
:10080E001F9EF5FB43FC0353FCFBC3741E9EF5FBBE
:10081E0043FC0153FCF9C3741D9EF5FBE4F5FCC3C8
:10082E00741C9EF5FB75FC0B22EF25E025E0FEC344
:10083E00741F9EF5FB53FCF8C3741E9EF5FB53FC10
:10084E00F8C3741D9EF5FB75FC048021EF25E02591
:10085E00E0FEC3741F9EF5FB43FC07C3741E9EF59A
:10086E00FB53FCF8C3741D9EF5FB75FC08C3741C8A
:10087E009EF5FB75FC0222EF25E025E0FEC3741FFA
:10088E009EF5FB43FC0453FCFCC3741E9EF5FB5308
:10089E00FCF8C3741D9EF5FB75FC08804FEF25E038
:1008AE0025E0FEC3741F9EF5FB53FCF8C3741E9E19
:1008BE00F5FB53FCF8C3741D9EF5FBE4F5FCC37405
:1008CE001C9EF5FB75FC0C22EF25E025E0FEC374A3
:1008DE001F9EF5FB43FC0453FCFCC3741E9EF5FBEC
:1008EE0053FCF8C3741D9EF5FB75FC0CC3741C9E63
:1008FE00F5FB75FC0822EF25E025E0FEC3741F9E74
:10090E00F5FB53FCF8C3741E9EF5FB43FC0253FC2F
:10091E00FAC3741D9EF5FB75FC058024EF25E025BA
:10092E00E0FEC3741F9EF5FB53FCF8C3741E9EF5C8
:10093E00FB43FC0553FCFDC3741D9EF5FB75FC09C2
:0A094E00C3741C9EF5FBE4F5FC22C7
:0B26FE0090001AEBF0A3EAF0A3E9F053
:10270900E4A3F0FFC200E94A700302279F90001A70
:10271900E0FBA3E0FAA3E0F91233F4EFC394084015
:102729002EE490001DF090001DE0FF90001AE0FBE0
:10273900A3E0FAA3E0F98F827583001211ADFD12AF
:10274900005E90001DE004F0E0C3940840D822E444
:1027590090001DF090001DE0FFC394085038200040
:102769002390001AE0FBA3E0FAA3E0F98F827583B6
:10277900001211ADFD60028012D20090001DE0FF31
:102789007D20800790001DE0FF7D2012005E9000F3
:062799001DE004F080BE0B
:01279F002217
:08293B004100A2004100A300CD
:10320F001231565389F75389FB5389FD4389019036
:10321F0000A274FCF0A37466F0758CFCF58AD2A939
:03322F00D28C221C
:103156009000997401F0E490009BF090009DF0902F
:10316600009FF0A3F090009AF090009CF090009ED3
:06317600F09000A1F02220
:03000B000229CFF8
:1029CF00C0E0C0F0C083C082C0D075D000C000C0CE
:1029DF00069000A2E0F58CA3E0F58A900099E00440
:1029EF00F0C394054005E4F0A304F090009BE004CD
:1029FF00F0C3940A4005E4F0A304F090009DE004B6
:102A0F00F0C394644005E4F0A304F090009FE475D4
:102A1F00F001121284FEC3E5F094E8EE9403400A2D
:102A2F0090009FE4F0A3F0A304F0D006D000D0D024
:092A3F00D082D083D0F0D0E03247
:102FC100E47815F60876030876FF0876030876FF9D
:102FD10043E101F5E853B1FE53B2FE53B1FD53B2E3
:102FE100FD43F60143F60253E1BF43E12053E1EF14
:032FF100D2AE223B
:103276007815E6600DE4F6C2EBC2EAC2E9C2E8D20E
:10328600EE2278157601C2EBC2EAC2E9D2E8D2EEA6
:013296002215
:0936170053B1DF43B22002370D6C
:03370D00C2852250
:03371000D285223D
:03371300B285225A
:0936200053B1BF43B24002371957
:03371600C2862246
:03371900D2862233
:1031EB000A6D679C46F6375D4521EFAC5A50010BD3
:1031FB00DF020A6D679C46F6375D4521EFAC5A50EE
:04320B00E10BDF02F2
:082943004500ABCCCCCCCCCCA0
:1034310053B1EF43B21053ACEF43AD1053ACDF4384
:03344100AD202299
:01371F002287
:1032D800E4FEC284EF30E704D2838002C283EF2584
:0C32E800E0FFD284000EEEB408E8C284BF
:0132F40022B7
:04344400E4FD7FFC28
:0F344800C2B4001232D8AF051232D800D2B4226B
:0A2E4C007B019000187405F07F3F31
:0B2E5600900015EBF0A3EAF0A3E9F0F8
:102E6100C2B4E4FD1232D8900018E0FFEDC39F50C8
:102E71001A900015E0FBA3E0FAA3E0F98D827583B7
:0D2E8100001211ADFF1232D80D80DCD2B46A
:012E8E002221
:10323200E4FEC284EF30E704D2838002C283EF252A
:10324200E0FFD284000EEEB408E843B10853B2F7AF
:02325200C28434
:013254002257
:10339700E4FFFEC284EF25E0FFD2843083034401BB
:0833A700FF0EEEB408EDC28434
:0133AF0022FB
:10345700C2B40012323212339753B1F743B20800A5
:02346700D2B4DD
:013469002240
:0B2ED200900003EBF0A3EAF0A3E9F08E
:102EDD00C2B4123232E4FD900006E0FFEDC39F5004
:102EED001A123397900003E0FBA3E0FAA3E0F98DEB
:102EFD0082758300EF12120D0D80DC53B1F743B2D2
:032F0D0008D2B433
:012F1000229E
:0F3562001234447D8E7F20123448000000002276
:10317C00E4FEFD7FFC1234487D8F7F20123448E43E
:10318C00FD7FFD123448E4FEFF000FBF00010EBEB0
:05319C0007F7BFD0F4AD
:0131A100220B
:0A35E0007F07123457EF5470FF22EA
:063700007F09123457227C
:0736D5007D707F27023448DD
:0C35BF00E4FD7FE11234487FE202344852
:0E357F00AC07123444AF04AD077F2502344878
:062E8F001235E0EF703C7B
:102E9500900002F0A3F0900018EDF07FA0122E56DE
:102EA500E4FD7FFD123448E4900002F0A3F00090A9
:102EB5000003E004F07006900002E004F0900002C8
:0C2EC500E07004A3E064C870E51234441F
:012ED10022DE
:1030DC00AC051235E0EF30E61D123444900006ECDE
:1030EC00F07F61122ED21235BF1236D5E4FD7FFD72
:0930FC001234487F01227F0022FA
:1020B30078027C007D017BFF7A3179EB7E007F051E
:1020C30012116E78077C007D017BFF7A3179F07EF7
:1020D300007F0312116E780A7C007D017BFF7A3149
:1020E30079F37E007F0612116E78107C007D017BF0
:1020F300FF7A3179F97E007F0112116E78117C002D
:102103007D017BFF7A3179FA7E007F0312116E1213
:10211300371F7D5A7F531234487DA57F53123448AD
:102123007D207F3D1234481234447FE11234487FCE
:10213300E21234487D707F271234487D017F2212DA
:1021430034487D037F231234487D4E7F2512344863
:102153007D107F311234487B017A0079AB900018EF
:102163007405F07F30122E567B017A0079AB900014
:10217300187405F07F2A122E567A007902122E4C1B
:102183007B017A00790A9000187406F07F3A122EC8
:10219300567B017A0079109000187401F07F391290
:1021A3002E567B017A0079079000187403F07F3E66
:1021B300122E567B017A0079119000187403F07F78
:1021C3003B122E56E4FD7F3C1234487D3F7F26129E
:0E21D3003448E4FD7F241234487F2102344852
:0523D700900042EFF050
:1023DC00E478437C007D017BFF7A3179FDFE7F053B
:1023EC0012116E78487C007D017BFF7A3279027E77
:1023FC00007F0312116E784B7C007D017BFF7A32DB
:10240C0079057E007F0612116E78517C007D017B70
:10241C00FF7A32790B7E007F0112116E78527C00AC
:10242C007D017BFF7A32790C7E007F0312116E7D69
:10243C005A7F531234487DA57F531234487D207F38
:10244C003D123448123444E4FF000000000FEFB496
:10245C00DCF7900042E0FD7F251234487D3F7F265B
:10246C001234487A007943122E4C7B017A00794B56
:10247C009000187406F07F3A122E567B017A007980
:10248C00519000187401F07F39122E567B017A009E
:10249C0079489000187403F07F3E122E567B017A17
:0E24AC000079529000187403F07F3B022E5608
:101F6E00EF14604414606F14700302200D1470039C
:101F7E00022049240460030220ADA2AF9209C2AF31
:101F8E0075C7AA75C755439780A20992AFA2AF92A3
:101F9E0009C2AF75C7AA75C7555397BFA20992AFAD
:101FAE00E59630E7FB022074A2AF9209C2AF75C767
:101FBE00AA75C75553977FA20992AFA2AF9209C2D5
:101FCE00AF75C7AA75C755439740A20992AFE5965C
:101FDE0030E6FB022074A2AF9209C2AF75C7AA7594
:101FEE00C755439720A20992AFE59630E5FBA2AF05
:101FFE009209C2AF75C7AA75C7555396FB8027A223
:10200E00AF9209C2AF75C7AA75C755439710A209FB
:10201E0092AFE59630E4FBA2AF9209C2AF75C7AAA4
:10202E0075C755439604A20992AFA2AF9209C2AFEB
:10203E0075C7AA75C7555396FD804DA2AF9209C2BA
:10204E00AF75C7AA75C75553977FA20992AFA2AFB6
:10205E009209C2AF75C7AA75C7555397BFA2099209
:10206E00AFE59630E3FBA2AF9209C2AF75C7AA7572
:10207E00C7555396FBA20992AFA2AF9209C2AF7594
:10208E00C7AA75C755439602A20992AFA2AF92098D
:10209E00C2AF75C7AA75C7555396FEA20992AFE592
:0520AE009720E0FB2279
:1031050075985243892053877F538EEF53C4DFABA5
:1031150007AA06A905A804E47F807E70FDFC1213AA
:0931250088EFF404F58DD28E222E
:10312E00759852438920438780538EEF53C4DFAB8B
:10313E0007AA06A905A804E4FF7EE1FDFC12138888
:08314E00EFF404F58DD28E228E
:1030880075985243892053877F438E1053C4DFAB12
:1030980007AA06A905A8047F007E467D057C0012C4
:0A30A8001388EFF404F58DD28E2298
:1030B200759852438920438780438E1053C4DFABF7
:1030C20007AA06A905A8047F007E8C7D0A7C00124F
:0A30D2001388EFF404F58DD28E226E
:102AAF009000B012143E75985253877F53C4F84369
:102ABF00C4209000B0E0F8A3E0F9A3E0FAA3E0FB94
:102ACF007F007E467D057C00121388C3E49FFFE4E0
:102ADF009EFE74019DFDE49CFC780812142B8FC69A
:102AEF009000B0E0F8A3E0F9A3E0FAA3E0FB7F00C9
:102AFF007E467D057C00121388C3E49FFF8FC5437C
:032B0F00C40822D5
:102B12009000B412143E75985243878053C4F84310
:102B2200C4209000B4E0F8A3E0F9A3E0FAA3E0FB2C
:102B32007F007E8C7D0A7C00121388C3E49FFFE431
:102B42009EFE74019DFDE49CFC780812142B8FC636
:102B52009000B4E0F8A3E0F9A3E0FAA3E0FB7F0061
:102B62007E8C7D0A7C00121388C3E49FFF8FC543CD
:032B7200C4082272
:102C35009000B812143E75F85253C4F89000B8E0ED
:102C4500F8A3E0F9A3E0FAA3E0FB7F007E8C7D0A00
:102C55007C00121388C3E49FFFE49EFE74019DFD72
:102C6500E49CFC780812142B8FC69000B8E0F8A3FA
:102C7500E0F9A3E0FAA3E0FB7F007E8C7D0A7C00EF
:0D2C8500121388C3E49FFF8FC543C40822CB
:073629003098FDAF99C29833
:013630002277
:08363100C2998F993099FD2226
:0736390030F8FDAF9AC2F862
:013640002267
:08364100C2F98F9A30F9FD2255
:10336300E4F5B1F5B2F5B3F5B4F5B5F5B6F5ACF5ED
:0A337300ADF5DAF5DBF5DCF5DD223F
:1032B80075B1FFE4F5B275B3FFF5B475B5FFF5B6B2
:1032C80075ACFFF5AD75DAFFF5DB75DCFFF5DD22D2
:10337D0075C7AA75C755A2AF9209C2AF75C7AA7511
:0A338D00C755439F80A20992AF22AA
:0437060043AD80222D
:102F4E00EF640A701C30F811E59AB4130CC2F83015
:102F5E00F8FDE59AB411F6C2F830F9FDC2F9759A8A
:102F6E000D30F811E59AB4130CC2F830F8FDE59A5D
:0D2F7E00B411F6C2F830F9FDC2F98F9A22A5
:06294C0090FFF81214C711
:10295200850D83850E8212144A00000000E47FFF79
:102962007EFFFDFC850D83850E82E0F8A3E0F9A3CE
:10297200E0FAA3E0FBC312141A504C9000041214A4
:10298200EBE0FCA3E0FDA3E0FEA3E02401FFE43EB4
:10299200FEE43DFDE43CFC9000041214EB12143EF4
:1029A200850D83850E82E0FCA3E0FDA3E0FEA3E09B
:1029B2002401FFE43EFEE43DFDE43CFC850D8385FD
:0729C2000E8212143E809604
:0629C9009000080214C793
:10329700538EF7438901D28CEF4E6012758AF7750A
:1032A7008CFF308DFDC28DEF1F70ED1E80EAC28C42
:0132B70022F4
:102D49009000BC12143E538EF7438901D28CE4FFE4
:102D5900FEFDFC9000BCE0F8A3E0F9A3E0FAA3E0D3
:102D6900FBC312141A602F758A65758CFC308DFDB2
:102D7900C28D9000BCE0FCA3E0FDA3E0FEA3E0242B
:102D8900FFFFEE34FFFEED34FFFDEC34FFFC900055
:092D9900BC12143E80B8C28C2269
:102DA2009000C012143E538EEF438910D28EE4FF7E
:102DB200FEFDFC9000C0E0F8A3E0F9A3E0FAA3E076
:102DC200FBC312141A602F758B65758DFC308FFD55
:102DD200C28F9000C0E0FCA3E0FDA3E0FEA3E024CC
:102DE200FFFFEE34FFFEED34FFFDEC34FFFC9000FC
:092DF200C012143E80B8C28E220A
:102CEE009000C412143E75C40243C408E4FFFEFDF6
:102CFE00FC9000C4E0F8A3E0F9A3E0FAA3E0FBC364
:102D0E0012141A603275C53375C6F5E5C430E4FB8E
:102D1E0053C4EF9000C4E0FCA3E0FDA3E0FEA3E0EB
:102D2E0024FFFFEE34FFFEED34FFFDEC34FFFC908C
:0B2D3E0000C412143E80B553C4F722FD
:102B75009000C812143E538FFB538FFD538FFEE414
:102B8500F586538FDF438F08E4FFFEFDFC9000C8F8
:102B9500E0F8A3E0F9A3E0FAA3E0FBC312141A607E
:102BA5002CE58F30E4FB538FEF9000C8E0FCA3E0E9
:102BB500FDA3E0FEA3E024FFFFEE34FFFEED34FFAE
:102BC500FDEC34FFFC9000C812143E80BB538FF718
:012BD50022DD
:1021E1000A3D3D3D3D3D3D3D3D3D3D3D3D3D3D3D51
:1021F1003D3D3D3D3D3D3D3D3D3D3D3D3D3D3D3D0E
:102201003D3D3D3D3D3D3D3D3D3D3D3D3D3D3D3DFD
:102211003D3D3D3D3D3D3D3D3D3D3D3D3D3D3D3DED
:102221003D3D3D3D3D000A2A2020436F7079726992
:102231006768742863292032303135204E75766FF6
:10224100746F6E20546563686E6F6C6F677920439D
:102251006F72702E20416C6C2072696768747320F4
:1022610072657365727665642E2020000A2A20202B
:10227100436F6E7461637420452D4D61696C3A2022
:102281004D6963726F432D38626974406E75766F64
:10229100746F6E2E636F6D2020202020202020205F
:1022A100202020202020202020202020202020202D
:1022B10020000A2A202044656D6F205665727369DB
:1022C1006F6E20203A202532642E2532642E25326D
:1022D10064000A2A202046696E6973686564204497
:1022E100617465203A202532642E2532642E253210
:0222F100640087
:102BD6007BFF7A2179E1121B207BFF7A227927126B
:102BE6001B207BFF7A22796D121B207BFF7A2279CC
:102BF600B390001DE4F0A304F0E4A3F0A3F0A3F067
:102C0600A3F0121B207BFF7A2279D390001D740754
:102C1600F0A374DFF0A3E4F0A37405F0A3E4F0A33B
:0F2C2600741FF0121B207BFF7A2179E1021B2023
:030000000227A034
:1027A000787FE4F6D8FD9000007FFF7E01E4F0A37F
:0A27B000DFFCDEFA7581BD0227F59B
:1027BA0002283AE493A3F8E493A34003F68001F2D3
:1027CA0008DFF48029E493A3F85407240CC8C33320
:1027DA00C4540F4420C8834004F456800146F6DFEF
:1027EA00E4800B01020408102040809028C9E47E8E
:1027FA00019360BCA3FF543F30E509541FFEE493E4
:10280A00A360010ECF54C025E060A840B8E493A3AA
:10281A00FAE493A3F8E493A3C8C582C8CAC583CAD5
:10282A00F0A3C8C582C8CAC583CADFE9DEE780BE8D
:01294B00008B
:10109E00E709F608DFFA8046E709F208DFFA803E34
:1010AE0088828C83E709F0A3DFFA8032E309F60821
:1010BE00DFFA8078E309F208DFFA807088828C8389
:1010CE00E309F0A3DFFA806489828A83E0A3F6083D
:1010DE00DFFA805889828A83E0A3F208DFFA804C17
:1010EE0080D280FA80C680D4806980F280338010EE
:1010FE0080A680EA809A80A880DA80E280CA803357
:10110E0089828A83ECFAE493A3C8C582C8CCC583CE
:10111E00CCF0A3C8C582C8CCC583CCDFE9DEE7809E
:10112E000D89828A83E493A3F608DFF9ECFAA9F01D
:10113E00EDFB2289828A83ECFAE0A3C8C582C8CC73
:10114E00C583CCF0A3C8C582C8CCC583CCDFEADE8C
:10115E00E880DB89828A83E493A3F208DFF980CCEE
:10116E0088F0EF60010E4E60C388F0ED2402B404E7
:10117E000050B9F582EB2402B4040050AF2323458E
:06118E0082239010EE73B5
:10119400BB010689828A83E0225002E722BBFE0259
:0911A400E32289828A83E493228C
:1011AD00BB010CE58229F582E5833AF583E02250F7
:1011BD0006E92582F8E622BBFE06E92582F8E22241
:0D11CD00E58229F582E5833AF583E493225B
:1011DA00BB010FF8E58229F582E5833AF583E02819
:1011EA00F0225009C58229F8E58226F622BBFE09BB
:1011FA00C58229F8E22582F222F8EA2583F583E9F5
:03120A0093282204
:10120D00F8BB010DE58229F582E5833AF583E8F017
:10121D00225006E92582C8F622BBFE05E92582C8C3
:02122D00F222AB
:10122F00BC000BBE0029EF8DF084FFADF022E4CCA3
:10123F00F875F008EF2FFFEE33FEEC33FCEE9DEC6C
:10124F00984005FCEE9DFE0FD5F0E9E4CEFD22EDB2
:10125F00F8F5F0EE8420D21CFEADF075F008EF2FFC
:10126F00FFED33FD4007985006D5F0F222C398FDED
:05127F000FD5F0EA228A
:10128400C5F0F8A3E028F0C5F0F8E58215827002F5
:061294001583E038F02292
:10129A00BB0110E58229F582E5833AF583E0F5F092
:1012AA00A3E0225009E92582F886F008E622BBFE6F
:1012BA000AE92582F8E2F5F008E222E5832AF583B5
:0812CA00E993F5F0A3E993227A
:1012D200BB010DC58229C582C5833AC5830212842A
:1012E2005011C58229F808E5F026F618F5F0E582D6
:1012F20036F622BBFE11C58229F808E225F0F5F088
:10130200F218E23582F222F8E58229F582E5832A93
:0D131200F58374019325F0F5F0E493382283
:10131F00F8BB0111E58229F582E5833AF583E8F000
:10132F00E5F0A3F0225009E92582C8F608A6F022BD
:0D133F00BBFE09E92582C8F2E5F008F222A4
:10134C0075F008758200EF2FFFEE33FECD33CDCC58
:10135C0033CCC58233C5829BED9AEC99E5829840DB
:10136C000CF582EE9BFEED9AFDEC99FC0FD5F0D6B8
:10137C00E4CEFBE4CDFAE4CCF9A88222B800C1B9E2
:10138C000059BA002DEC8BF084CFCECDFCE5F0CB20
:10139C00F97818EF2FFFEE33FEED33FDEC33FCEB59
:1013AC0033FB10D703994004EB99FB0FD8E5E4F914
:1013BC00FA227818EF2FFFEE33FEED33FDEC33FC01
:1013CC00C933C910D7059BE99A4007EC9BFCE99AF5
:1013DC00F90FD8E0E4C9FAE4CCFB2275F010EF2F3A
:1013EC00FFEE33FEED33FDCC33CCC833C810D7073A
:1013FC009BEC9AE899400AED9BFDEC9AFCE899F875
:0E140C000FD5F0DAE4CDFBE4CCFAE4C8F92207
:10141A00EB9FF5F0EA9E42F0E99D42F0E89C45F028
:01142A00229F
:10142B00E8600FECC313FCED13FDEE13FEEF13FF9F
:03143B00D8F122C3
:0C143E00ECF0A3EDF0A3EEF0A3EFF02221
:10144A00A8828583F0D083D08212146112146112AB
:10145A001461121461E473E493A3C583C5F0C583D0
:10146A00C8C582C8F0A3C583C5F0C583C8C582C8EC
:01147A00224F
:10147B00BB010789828A830216285005E9F80216F8
:10148B001FBBFE05E9F802165189828A8302165AA0
:10149B00D083D082F8E4937012740193700DA3A3E0
:1014AB0093F8740193F5828883E4737402936860F4
:0614BB00EFA3A3A380DFF4
:0614C1008A838982E473B6
:1014C700E50E2582F582E50D3583F583B50D048597
:1014D700820E2210AF0685820EF50D2285820EF54B
:0414E7000DD2AF2251
:0D14EB00E50E2582F582E50D3583F583229F
:101AB500E508241DF582E43400F583E0050822904D
:101AC500001A30070390001DE475F001121631026B
:101AD50011942000E97F2ED2008018EF540F249036
:101AE500D43440D4FF30040BEF24BFB41A005003A4
:101AF5002461FFE50960021509050CE50C70020576
:101B05000B30070E90001AE475F001121631EF0242
:101B1500160D022F4E7403D2078003E4C207F508A1
:101B250090001A121648E4F509F50BF50CE5096065
:101B3500077F20121AF880F5750AFFC201C200C29C
:101B450002C203C205C206C208121AC4FF700D30D4
:101B550007057F00121B09AF0CAE0B22B4255FC22F
:101B6500D5C204121AC4FF24D0B40A00501A75F065
:101B75000A780930D50508B6FF0106C6A426F62061
:101B8500D5047002D20380D924CFB41A00EF5004D3
:101B9500C2E5D204021D0AD20180C6D20080C0D29D
:101BA5000280BCD2D580BAD20580B47F20121AF843
:101BB5002002077401B5090040F1121AB5FF121A87
:101BC500F8021B32D208D2068095121AB5FB121AFA
:101BD500B5FA121AB5F94A4B700679DB7A1D7BFF07
:101BE50020022EE509602A7E008E8275830012117F
:101BF500AD60060EEE650A70F0C2D5EBC0E0EAC036
:101C0500E0E9C0E0EE121D51D0E0F9D0E0FAD0E0F5
:101C1500FB121194FF60AAEBC0E0EAC0E0E9C0E066
:101C2500121AF8D0E02401F9D0E03400FAD0E0FB34
:101C3500E50A0460DCD50AD980877BFF7A1D794DDA
:101C4500D202809C791080027908C206C2088008F9
:101C5500D2D5790A8004790AC2D5E50A047002F55D
:101C65000AE4FAFDFEFF121AB5FC7B0820011312E7
:101C75001AB5FD7B1030000A121AB5FE121AB5FF0F
:101C85007B20EC3382D592D55013C3E43000069FF8
:101C9500FFE49EFEE42001039DFDE49CFCE4CBF8FB
:101CA500C201EC700CCFCECDCCE824F8F870F380EF
:101CB50017C3EF33FFEE33FEED33FDEC33FCEB33AF
:101CC500FB994002FB0FD8E9EB300105F8D0E0C4E1
:101CD50048B201C0E00AEC4D4E4F78207B0070C23F
:101CE500EAB50A0040BCC0E0121D53D0F0D0E02098
:101CF5000104C4C0E0C4B201C0F0121AE1D0F0D5AD
:101D0500F0EB021B3212149B1BCF531C49581BA02E
:101D15004C1B9C421C4D4F1C55441C55491BB5433F
:081D25001C5B551C3F461C3FEE
:101D2D00451C3F471DFB501BA42D1BA82E1BCB2B69
:101D3D001BAC231BC9201DE42A1B644800001BC3D8
:101D4D003F3F3F00790AA2D5200314300509B91091
:101D5D00020404B9080104A2D52006025001042092
:101D6D0002689202B509005034C0E07F203003199B
:101D7D007F30A20272067205500F121DAAC202C256
:101D8D0006C205C2087F30800F300503E9C0E0129E
:101D9D001AF8300503D0E0F9D0E0B509CC300517BD
:101DAD007F30B9100C121AF87F583004077F7880F5
:101DBD0003B90803121AF83002057F2D021AF87FB5
:101DCD00202008F87F2B2006F322920280CF286E68
:101DDD00756C6C2900D201121AB53001F8C2017868
:101DED000930D50108F6021B642D50434958121ACB
:101DFD00B52403B405004001E4901DF693121AE9D1
:0D1E0D00743A121AE9D203750904021C4947
:1014F800E709F60870FA8046E709F20870FA803EB4
:1015080088828C83E709F0A370FA807EE309F608E5
:1015180070FA8076E309F20870FA806E88828C830C
:10152800E309F0A370FA806289828A83E0A3F6084F
:1015380070FA805689828A83E0A3F20870FA804A9A
:1015480080D280FA80C680D4806580F28031801095
:1015580080A680EA809A80A880DA80E280CA8031FA
:1015680089828A83ECFAE493A3C8C582C8CCC58370
:10157800CCF0A3C8C582C8CCC583CC70E9800D89DE
:10158800828A83E493A3F60870F9ECFAA9F0EDFBDC
:101598002289828A83ECFAE0A3C8C582C8CCC583B5
:1015A800CCF0A3C8C582C8CCC583CC70EA80DD89DD
:1015B800828A83E493A3F20870F980CE88F0ED2440
:1015C80002B4040050C4F582EB2402B4040050BAFB
:0915D8002323458223901548737A
:1033F400E4FFFE121194600C0FEF70010E09E970E6
:05340400F20A80EF2236
:1015E100EF4E6012EF60010EEDBB010B89828A8321
:1015F100F0A3DFFCDEFA2289F05007F709DFFCA92E
:0C160100F022BBFEFCF309DFFCA9F02284
:10160D00BB010689828A83F0225002F722BBFE01BC
:02161D00F322B6
:09161F00E6FB08E6FA08E6F922F0
:09162800E0FBA3E0FAA3E0F922C3
:10163100F8E0FBA3A3E0F925F0F0E5821582700242
:071641001583E0FA38F022E6
:09164800EBF0A3EAF0A3E9F022A3
:09165100E2FB08E2FA08E2F922CA
:0C165A00E493FB740193FA740293F922EC
:00000001FF
