:0734FF006368302025640022
:10277F0050005500000000000000000000000000A5
:0B278F00000000410053004100540016
:03005B00022B482D
:102B4800C0E0C0D075D000C000C001C005C006C03C
:102B580007C2EFAFC37815E6FD25E02416F8760026
:102B680008A607ED25E02416F8C000F9E7FE09E7F6
:102B78007802C333CE33CED8F9D000A60608F6EDD6
:102B880025E02416F8AFC2E6F6EF0846F6D007D0DF
:0C2B980006D005D001D000D0D0D0E03233
:1026F0007F02121E311231E3123058123266123547
:10270000C0900098E06005E4F012312C90009AE04F
:0D2710006005E4F01231FE90009CE0604393
:10271D00E4900001F090009CF012244F1233BE9013
:10272D000053E004F0E0C394054025E4F090001B55
:10273D0074FFF0A37434F0A374FFF07816E6FF086D
:10274D00E6A3CFF0A3EFF07B017A0079551219DDE6
:03275D0012000E59
:0627600090009FE06008FC
:08276600E4F0900054E004F0DF
:10276E001231AB900000EFF06089E0FF1215798016
:01277E0082D8
:05157900900002EFF0FC
:10157E00E4A3F0A3F0900003F0FE7F10FDFB7A00D1
:10158E00799D1214F4900002E024FEB41900400379
:10159E000219649015AF75F003A4C58325F0C583B9
:1015AE00730215FA0219640219640216500216A685
:1015BE000219640216FC021964021964021752021F
:1015CE0019640219640217A8021964021964021739
:1015DE00FE02196402196402185E0219640219648B
:1015EE000218B4021964021964021907900003E08C
:1015FE00FF04F0749D2FF876F2E0FF04F0749D2F37
:10160E00F87601E0FF04F0749D2FF87601E4A3F064
:10161E00789EE62401FFE433FE900004E0FDC39FB4
:10162E00EE6480F87480984003021964749E2DF85D
:10163E00E6FF900003E0249DF8EF26F6A3E004F009
:10164E0080CE900003E0FF04F0749D2FF876F2E058
:10165E00FF04F0749D2FF87601E0FF04F0749D2FC7
:10166E00F87606E4A3F0789EE62401FFE433FE90BC
:10167E000004E0FDC39FEE6480F87480984003027E
:10168E001964749E2DF8E6FF900003E0249DF8EF98
:10169E0026F6A3E004F080CE900003E0FF04F07481
:1016AE009D2FF876F2E0FF04F0749D2FF87601E09E
:1016BE00FF04F0749D2FF87607E4A3F0789EE624DD
:1016CE0001FFE433FE900004E0FDC39FEE6480F85A
:1016DE007480984003021964749E2DF8E6FF900002
:1016EE0003E0249DF8EF26F6A3E004F080CE9000F0
:1016FE0003E0FF04F0749D2FF876F2E0FF04F0741F
:10170E009D2FF87601E0FF04F0749D2FF87603E428
:10171E00A3F0789EE62401FFE433FE900004E0FD82
:10172E00C39FEE6480F87480984003021964749E1F
:10173E002DF8E6FF900003E0249DF8EF26F6A3E0D7
:10174E0004F080CE900003E0FF04F0749D2FF87635
:10175E00F2E0FF04F0749D2FF87601E0FF04F074C0
:10176E009D2FF87602E4A3F0789EE62401FFE43381
:10177E00FE900004E0FDC39FEE6480F874809840F4
:10178E0003021964749E2DF8E6FF900003E0249D79
:10179E00F8EF26F6A3E004F080CE900003E0FF04FD
:1017AE00F0749D2FF876F2E0FF04F0749D2FF8761A
:1017BE0001E0FF04F0749D2FF87604E4A3F0789E08
:1017CE00E62401FFE433FE900004E0FDC39FEE64C7
:1017DE0080F87480984003021964749E2DF8E6FF19
:1017EE00900003E0249DF8EF26F6A3E004F080CEEF
:1017FE00900003E0FF04F0749D2FF876F2E0FF04F2
:10180E00F0749D2FF87602E0FF04F0749D2FF876A9
:10181E0009E0FF04F0749D2FF87603E4A3F0789EA0
:10182E00E62401FFE433FE900004E0FDC39FEE6466
:10183E0080F87480984003021964749E2DF8E6FFB8
:10184E00900003E0249DF8EF26F6A3E004F080CE8E
:10185E00900003E0FF04F0749D2FF876F2E0FF0491
:10186E00F0749D2FF87601E0FF04F0749D2FF8764A
:10187E0005E4A3F0789EE62401FFE433FE90000415
:10188E00E0FDC39FEE6480F87480984003021964F3
:10189E00749E2DF8E6FF900003E0249DF8EF26F6E7
:1018AE00A3E004F080CE900003E0FF04F0749D2FBF
:1018BE00F876F2E0FF04F0749D2FF87601E0FF0455
:1018CE00F0749D2FF87608E4A3F0789EE62401FFCD
:1018DE00E433FE900004E0FDC39FEE6480F8748054
:1018EE00985073749E2DF8E6FF900003E0249DF847
:1018FE00EF26F6A3E004F080D1900003E0FF04F0A1
:10190E00749D2FF876F2E0FF04F0749D2FF87602A6
:10191E00E0FF04F0749D2FF876B9E0FF04F0749D9B
:10192E002FF87601E4A3F0789EE62401FFE433FE5F
:10193E00900004E0FDC39FEE6480F874809850160A
:10194E00749E2DF8E6FF900003E0249DF8EF26F636
:10195E00A3E004F080D1900003E0600D04F07B0062
:09196E007A00799DE0FD122CB114
:01197700224D
:0335C00002356869
:0135D20022D6
:0135D30022D5
:0135D40022D4
:0C345D00900071EBF0A3EAF0A3E9F0226C
:0C346900900074EBF0A3EAF0A3E9F0225D
:10334400900071A3E0FAA3E0F94A60031213D422B7
:10335400900074A3E0FAA3E0F94A60031213D422A4
:102EAA00EF4E602D900067EEF0A3EFF0AF05A3ECB4
:102EBA00F0A3EFF0AF03A3EAF0A3EFF0E4A3F0A3CB
:102ECA00F0A3F0A3F0900066F090006504F01233CE
:022EDA00442290
:1032BF00E4900065F01233547B007A0079001234E9
:0432CF005D023469FF
:0A348C00900065E06002D322C32225
:10244F00900065E07003022503900069E0FEA3E0B1
:10245F00FF4E7003022503900066E07035D3EF94B2
:10246F0000EE9400500302250390006DE475F00117
:10247F00121197FED3900068E095F0900067E09EF0
:10248F005072123354E490006DF0A3F09000660484
:10249F00F022900066E06401705A90006D75F001B3
:1024AF00121197FED390006AE095F0900069E09EBC
:1024BF00504290006BE0FEA3E0FF9400EE940040CA
:1024CF002590006FE475F001121197FCD3EF95F092
:1024DF00EE9C5005E4900065F0900065E070079069
:1024EF000069F0A3F022E490006DF0A3F090006675
:0524FF00F0123344223D
:10237D002042415A4F4F4B410020505752204F465B
:10238D004600414343204F4E00414343204F4646B4
:10239D000020564F4C202575002020202020202085
:1023AD002000202020504155534500202020205052
:1023BD004C4159005343414E4E494E470020202079
:1023CD004D55544520002020204E455854200020C6
:1023DD002020505245562000202020205354257592
:1023ED0000545220257500202020202575253032DF
:1023FD007500202020202025752530327500464D92
:10240D00202575257500464D20202575257500461E
:10241D004D20202025752575005052495245440008
:10242D0050414952494E4700504C4159004D555469
:10243D00450000000000000000000000000000004A
:02244D0000008D
:10279A0001AD0010AE0000000000000000000000C3
:1027AA000000000000109D00000000000000000072
:1027BA000000000000000050007700000000000048
:0A27CA000000000000000000000005
:10305800E478ADF6FE7F10FDFB7A0079AE1214F429
:103068007E007F107D007B007A00799D1214F41297
:053078001F760230325A
:102CB100900005EBF0A3EAF0A3E9F0A3EDF0D394C3
:102CC10010503D12341878AD7601900005E0FBA359
:102CD100E0FAA3E0F990009DEB7008E965827003CA
:102CE100EA6583601B900008E0FF7E00789D7C0010
:102CF1007D00900005E0FBA3E0FAA3E0F91210D6F5
:012D010022AF
:10327E007810E67BFF30E1067A23797D80047A238D
:06328E0079861225B4222E
:103294007810E67BFF30E0067A23798F80047A2366
:0632A40079961225B42208
:102DC70078087C007D017BFF7A24793F7E007F10A5
:102DD7001210D690001B74FFF0A37423F0A3749E07
:102DE700F07811E6FFA3E4F0A3EFF07B017A007916
:0D2DF700081219DD7B017A0079080225B46D
:0F3364007BFF7A2379A61225B412356F02357DCF
:0934A0007BFF7A2379AF0225B409
:0934A9007BFF7A2379B80225B4F7
:103320007BFF7A2379C11225B412356F12357D02E5
:02333000355313
:0934B2007BFF7A2379CA0225B4DC
:0934BB007BFF7A2379B80225B4E5
:0F3373007BFF7A2379AF1225B412356F02357DB7
:0F3382007BFF7A2379D31225B412356F02357D84
:0F3391007BFF7A2379DC1225B412356F02357D6C
:102F0E0090001B74FFF0A37423F0A374E5F0781205
:102F1E00E6FFA3E4F0A3EFF07B017A0079771219B4
:102F2E00DD7B017A0079771225B412356F02358474
:102EDC0090001B74FFF0A37423F0A374EEF078132E
:102EEC00E6FF08E6A3CFF0A3EFF07B017A00797739
:102EFC001219DD7B017A0079771225B412356F0235
:022F0C00357D11
:0F33A0007B017A0079771225B412356F02357DE3
:0F33AF007BFF7A2379A61225B412356F02357D84
:0B095800900002EBF0A3EAF0A3E9F02E
:10096300E4A3F0A3F0A3F01210FC64F860030210F8
:10097300051235C9900002E0FBA3E0FAA3E0F99069
:100983000001121115D394104003021005E49000E6
:1009930005F0900002E0FBA3E0FAA3E0F990000168
:1009A3001211152401FFE433FE900005E0FDC39FFF
:1009B300EE6480F8748098501DED2401FFE433FE4B
:1009C3008F828E83121115FF900007E02FF09000A5
:1009D30005E004F080BC900002E0FBA3E0FAA3E092
:1009E300F9900001121115F582758300A3A312116A
:1009F30015FF900007E06F60030210057E007F1073
:100A03007D007B007A00799D1214F4E4900006F0D7
:100A1300900002E0FBA3E0FAA3E0F99000021211B8
:100A23001524F77003020ED124D5606514700302F8
:100A33000C5B147003020D76147003020DEF147037
:100A430003020E9D24F77003020F152410600302A6
:100A53000FFD9000031211156401700F7810E64426
:100A630002F67BFF7A32797E020C93900002E0FB60
:100A7300A3E0FAA3E0F990000312111564026003E6
:100A8300020FFD7810E654FDF67BFF7A32797E8003
:100A93007A900002E0FBA3E0FAA3E0F990000312CE
:100AA300111524FE604B147003020BA11470030292
:100AB3000B3B147003020BDE24046003020FFD9052
:100AC3000004121115B401097BFF7A3479A9020CD1
:100AD30093900002E0FBA3E0FAA3E0F99000041274
:100AE300111564026003020FFD7BFF7A3479A08045
:100AF30061900002E0FBA3E0FAA3E0F99000041286
:100B03001115B4021D7BFF7A33792012345D7B000B
:100B13007A007900123469E4FBFA7D01FC7F140248
:100B23000C21900002E0FBA3E0FAA3E0F99000049B
:100B33001211156401020FFD900002E0FBA3E0FA1D
:100B4300A3E0F9900004121115B4011D7BFF7A3460
:100B530079BB12345D7BFF7A337964123469E4FB29
:100B6300FA7D0AFC7F0A020C21900002E0FBA3E05D
:100B7300FAA3E0F990000412111564026003020F56
:100B8300FD7BFF7A3479B212345D7BFF7A3379646B
:100B9300123469E4FBFA7D0AFC7F0A020C219000FF
:100BA30002E0FBA3E0FAA3E0F9900004121115FFA1
:100BB30064017003020FFDEF64026003020FFD7B0B
:100BC300FF7A33797312345D7BFF7A33796412349D
:100BD30069E4FBFA7D0AFC7F0A8043900002E0FB94
:100BE300A3E0FAA3E0F99000041211156401703236
:100BF300E92405F9E43AFA78777C007D017E007FE9
:100C0300081210D67BFF7A3379A012345D7BFF7A0A
:100C13003379AF123469E4FBFA7D08FC7F08FE02E6
:100C23000F0F900002E0FBA3E0FAA3E02405F9E430
:100C33003AFA7D0812310B7BFF7A3379A012345DC7
:100C43007B007A0079001234697B017A007D017C94
:100C5300007F017E00020F0F900002E0FBA3E0FA89
:100C6300A3E0F990000312111524FE6077147003BA
:100C7300020D1C24FE7003020D6124046003020FA5
:100C8300FD900004121115B401217BFF7A33799191
:100C930012345D7B007A0079001234697B017A009B
:100CA3007D017C007F147E00020F0F900002E0FBA9
:100CB300A3E0FAA3E0F990000412111564026003A3
:100CC300020FFD7BFF7A33798212345D7B007A0059
:100CD30079001234697B017A007D017C007F147EE8
:100CE30000020F0F900002E0FBA3E0FAA3E0F990EB
:100CF30000051211157812F67BFF7A2F790E123444
:100D03005D7B007A0079001234697B017A007D01F2
:100D13007C007F147E00020F0F900002E0FBA3E033
:100D2300FAA3E0F99000061211157813760008F67D
:100D3300900005121115781346F608E6F67BFF7A44
:100D43002E79DC12345D7B007A0079001234697BE2
:100D5300017A007D017C007F147E00020F0F90005A
:100D630002E0FBA3E0FAA3E02404F9E43AFA7D08E5
:100D7300020FFA12354C900002E0FBA3E0FAA3E065
:100D8300F9900003121115FFD3940990001B74FF0F
:100D9300400BF0A37423F0A374F4F0801BF0A3744E
:100DA30023F0A374FFF0900002E0FBA3E0FAA3E0BA
:100DB300F9900003121115FF90001EE4F0A3EFF069
:100DC300900004121115FF900020E4F0A3EFF07BD4
:100DD300017A0079771219DD7B017A007977123273
:100DE300AAAD077B017A007977020FFA1235221236
:100DF300355A12357D900002E0FBA3E0FAA3E0F937
:100E0300900003121115FFD39463401990001B74D3
:100E1300FFF0A37424F0A3740BF0900002A3A3903B
:100E2300001EEF804D900002E0FBA3E0FAA3E0F97F
:100E3300900003121115FFD3940990001B74FF4017
:100E430014F0A37424F0A37413F0900002A3A390EE
:100E5300001EEF801DF0A37424F0A3741CF0900017
:100E630002E0FBA3E0FAA3E0F9900003121115904E
:100E7300001EF090000412111590001FF07B017A00
:100E83000079771219DD7B017A0079771232AAADE6
:100E9300077B017A007977020FFA900002E0FBA347
:100EA300E0FAA3E0F99000031211157811F67BFF25
:100EB3007A2D79C712345D7B007A00790012346988
:100EC3007B017A007D017C007F147E00803E9000D0
:100ED30002E0FBA3E0FAA3E0F990000312111578F6
:100EE30010B40106E64401F68004E654FEF67BFFE7
:100EF3007A32799412345D7B007A00790012346976
:100F03007B017A007D017C007F147E00122EAA02F1
:100F13000FFD12355312356F12357D1235291235F7
:100F23001B123537123545900002E0FBA3E0FAA30C
:100F3300E0F990000312111524FC6062240360039E
:100F4300020FFD123530900002E0FBA3E0FAA3E0AC
:100F5300F9900004121115B4010E78777C007D011D
:100F63007BFF7A2479268020900002E0FBA3E0FA3D
:100F7300A3E0F9900004121115B4020F78777C00F6
:100F83007D017BFF7A24792D1214D77B017A0079B6
:100F9300771232AAAD077B017A007977805912352F
:100FA3003E900002E0FBA3E0FAA3E0F990000412F4
:100FB3001115B4010E78777C007D017BFF7A2479CB
:100FC300358020900002E0FBA3E0FAA3E0F9900053
:100FD30004121115B4020F78777C007D017BFF7A30
:100FE30024793A1214D77B017A0079771232AAADA9
:100FF300077B017A00797712310B900006E06002DB
:0210030004F0F7
:0110050022C8
:10000E0078ADE66030123496EF24F0601724D0609D
:10001E00112420701512347512358BE478ADF6026A
:10002E003032800012347502358B7B007A00799D58
:10003E007D10022D457B007A0079AE7D10122F9235
:0D004E00EF60097B007A0079AE120958229C
:0800030044454641554C5400F0
:1027D400500087000000000000000000000000001E
:0327E400000000F2
:103266007BFF7A0079031232AA78877C007D017B86
:08327600FF7A0079030210D673
:10310B00900008EDF0FF7E0078877C007D011210A7
:10311B00D6900008E02487F582E43400F583E4F0D0
:01312B002281
:0F33BE0012348C40097B017A0079871225B422E2
:1031E30012316E122E41122E7712359E1234CD12E9
:0B31F30030C51232E71234D6D2AF22F2
:0A27E7004200A700004200A5000018
:0934C4003082037F00227F012207
:0928FE007818E6FC08E6FD7E03F3
:10290700EF2405FBE43EFAD3EB94FFEA9403400679
:102917007A037BFF8007EF2405FBE43EFA9000A7CC
:10292700EAF0A3EBF0C3EF9405EE940050067E00A7
:102937007F008008EF24FBFFEE34FFFE9000A5EE3A
:10294700F0A3EFF0C3ED9FEC9E40109000A8E09D30
:0E2957009000A7E09C40047F0180027F0022D8
:0F33CD007816E6FC08E6FD7FD47E03122907225E
:0F33DC007816E6FC08E6FD7FBB7E031229072268
:0F33EB007816E6FC08E6FD7F747E0312290722A0
:0E3427007816E6FC08E6FDE4FFFE12290722F7
:063592007FDF1228FE227B
:063598007FD11228FE2283
:0F33FA007818E6FC08E6FD7FB87E03122907224B
:0F3409007818E6FC08E6FD7F717E031229072282
:103332001234C4EF6009123592EF60037F01227FDD
:02334200002267
:06359E00122504023506AF
:1032D300789BE62490F8A607789B06E6C3940A40F9
:0432E30002E4F622E9
:1031AB00789AE6FE08667002FF2274902EF8E6FF0E
:0B31BB00789A06E6C3940A4002E4F68E
:0131C60022E6
:1031C700789CE6FE18667002FF2274902EF8E6FFE0
:0B31D700789C06E6C3940A4002E4F670
:0131E20022CA
:0B348100EF75F00BA4242AF8E6FF22F0
:10307D00EF75F00BA42428F8A60408A605AE03EFFF
:10308D0075F00BA4242BF8A606EF75F00BA4242CD9
:04309D00F8E4F6223B
:0635A400789BE618F622F8
:0735060043B10453B2FB22A4
:10250400E4789AF608F608F6FFEF75F00BA4242891
:10251400F876000876C8EF75F00BA42425F8760247
:10252400EF75F00BA4242AF8E4F6EF75F00BA4245D
:102534002BF8E4F6EF75F00BA4242CF8E4F60FEF77
:10254400B40AC6784C763278577632782276FF0809
:1025540076340876C4782D76FF0876330876CD78FD
:102564003876FF0876330876DC784376FF087633CE
:102574000876EB784E76FF08763408762778597615
:10258400FF087635087692786476FF087635087603
:1025940098786F76FF0876330876FA787A76FF08AB
:0F25A4007634087609788576FF08763308763224
:0125B3002205
:101CDD00900003EFF0E075F00BA42422F9E4FAFB79
:101CED009000A2F0A3F0A3E9F012138E1213D4EF1B
:101CFD007003021DC99000A2E0FBA3E0FAA3E0F976
:101D0D00900003121115FFC3940550089000037441
:101D1D0005021E2DEFC3940A5008900003740102B2
:101D2D001142900008121115701490000804121140
:101D3D0075900003E075F003A404FF1232D39000F8
:101D4D00A2E0FBA3E0FAA3E0F99000061211ADFFAB
:101D5D00AEF0D39400EE94005003021E30900004B8
:101D6D001211ADC39FE5F09E5023900004E475F071
:101D7D00011211E5FCE5F06F7002EC6E6003021EBE
:101D8D0030900003E075F003A42403802B9000092C
:101D9D00121115FFD394005003021E3090000A74E7
:101DAD0001121142C39F407B90000AE412117590FD
:101DBD000003E075F003A404FF0232D39000A2E00B
:101DCD00FBA3E0FAA3E0F9900003121115FFD394E1
:101DDD0005400A9000037405121175802BEF600AFF
:101DED0090000374FF121142801E9000081211150D
:101DFD00B40115900008E4121175900003E075F020
:101E0D0003A42402FF1232D39000A2E0FBA3E0FA58
:101E1D00A3E0F9900004E4F5F012123290000AE408
:041E2D0012117522F7
:1031FE00E4900002F0900002E0FFC3940A500B121C
:0A320E001CDD900002E004F080EBEC
:013218002293
:102E4100E4F5B275B180F5B475B3FFF5B675B5FFAC
:102E5100F5AD75AC0FF5DB75DAFFF5DD75DCFFF56A
:102E6100F975FA0475E5FF75E6FF75E7FF75EEFF85
:062E710043F98002344326
:0C344300E4FF8FFBE4F5FC0FEFB420F673
:01344F00225A
:07350D0075FB1253FCF722CD
:0735140075FB1243FC0822C5
:07351B0075FB0E53FCF722C3
:0735220075FB0E43FC0822BB
:0735290075FB0B53FCF722B8
:0735300075FB0B43FC0822B0
:0735370075FB0A53FCF722AB
:07353E0075FB0A43FC0822A3
:0735450075FB0353FCF722A4
:07354C0075FB0343FC08229C
:0735530075FB0253FCF72297
:07355A0075FB0243FC08228F
:0735610075FB0F53FCF7227C
:0735680075FB0F43FC082274
:07356F0075FB0753FCF72276
:0735760075FB0743FC08226E
:07357D0075FB0653FCF72269
:0735840075FB0643FC082261
:0635AA0012356F02357DB1
:0635B0001235760235849D
:1021B600EFB4080040030222999021C6F82828733C
:1021C6000221DE0221F602220E02222502223C0212
:1021D600225302226A02228175FB1F53FCF875FB0B
:1021E6001E53FCF875FB1D53FCF075FB1C02229672
:1021F60075FB1B53FCF875FB1A53FCF875FB19535A
:10220600FCF075FB1802229675FB1753FCF875FB5C
:102216001653FCF875FB1553FCF075FB14807175AD
:10222600FB1353FCF875FB1253FCF875FB1153FCBA
:10223600F075FB10805A75FB0F53FCF875FB0E53B7
:10224600FCF875FB0D53FCF075FB0C804375FB0B1E
:1022560053FCF875FB0A53FCF875FB0953FCF07543
:10226600FB08802C75FB0753FCF875FB0653FCF83E
:1022760075FB0553FCF075FB04801575FB0353FCD9
:10228600F875FB0253FCF875FB0153FCF0E4F5FB13
:0422960053FCF022E3
:0C345000E4FEAF061221B60EEEB408F642
:01345C00224D
:10005E00EFD394074003020957ED64536004EDB4E7
:10006E0073047D35801EEDB467047D398016EDB4C2
:10007E006C047D4C800EEDB470047D508006EDB4A2
:10008E0078027D58ED1213AE024720014530016F04
:10009E003101933201A83301BD3401D23501E73667
:1000AE0001F937022038023239024A41025C42021B
:1000BE00834302A44402CB4502E9460310470331B1
:1000CE0048035549037C4A03A34B03C74C03EE4D2B
:1000DE0004184E04424F046C5004935104BD520454
:1000EE00EB54051255053956056757058E5805AC64
:1000FE005905D35A05FD61062762064B63067264E5
:10010E0006996506C76606EE6807126907366A071E
:10011E00616B078C6D07B26E07D86F0806710837D2
:10012E0072085A7408857508AB7608D67709047973
:10013E00092A7A00000957EF25E025E0FEC3741F57
:10014E009EF5FB43FC0553FCFDC3741E9EF5FB435D
:10015E00FC0553FCFDC3741D9EF5FB75FC090207DF
:10016E0057EF25E025E0FEC3741F9EF5FB53FCF808
:10017E00C3741E9EF5FB53FCF8C3741D9EF5FB75F0
:10018E00FC01020757EF25E025E0FEC3741F9EF524
:10019E00FB43FC0653FCFE0206A8EF25E025E0FE1D
:1001AE00C3741F9EF5FB43FC0253FCFA02060FEFCD
:1001BE0025E025E0FEC3741F9EF5FB43FC0353FCB4
:1001CE00FB020340EF25E025E0FEC3741F9EF5FB06
:1001DE0043FC0353FCFB020322EF25E025E0FEC3A4
:1001EE00741F9EF5FB43FC07020322EF25E025E07A
:1001FE00FEC3741F9EF5FB53FCF8C3741E9EF5FBE5
:10020E0043FC0153FCF9C3741D9EF5FBE4F5FC029F
:10021E000757EF25E025E0FEC3741F9EF5FB43FC58
:10022E000702060FEF25E025E0FEC3741F9EF5FBC7
:10023E0043FC0353FCFB02060F0221B6EF25E0251B
:10024E00E0FEC3741F9EF5FB43FC07020818EF2562
:10025E00E025E0FEC3741F9EF5FB53FCF8C3741E2D
:10026E009EF5FB43FC0153FCF9C3741D9EF5FB7513
:10027E00FC0E02082DEF25E025E0FEC3741F9EF54F
:10028E00FB43FC0553FCFDC3741E9EF5FB43FC01B2
:10029E0053FCF90203E2EF25E025E0FEC3741F9E36
:1002AE00F5FB53FCF8C3741E9EF5FB43FC0153FC97
:1002BE00F9C3741D9EF5FB75FC0E020757EF25E082
:1002CE0025E0FEC3741F9EF5FB43FC07C3741E9E00
:1002DE00F5FB43FC0153FCF9020666EF25E025E031
:1002EE00FEC3741F9EF5FB43FC07C3741E9EF5FBF5
:1002FE0043FC0153FCF9C3741D9EF5FBE4F5FC02AF
:10030E00087BEF25E025E0FEC3741F9EF5FB43FC42
:10031E000553FCFDC3741E9EF5FB43FC0153FCF913
:10032E0002063FEF25E025E0FEC3741F9EF5FB435A
:10033E00FC07C3741E9EF5FB53FCF8C3741D9EF59B
:10034E00FBE4F5FC02082DEF25E025E0FEC3741F4B
:10035E009EF5FB53FCF8C3741E9EF5FB43FC015344
:10036E00FCF9C3741D9EF5FB75FC0E02094EEF25BC
:10037E00E025E0FEC3741F9EF5FB43FC0453FCFC1A
:10038E00C3741E9EF5FB53FCF8C3741D9EF5FB75DE
:10039E00FC08020757EF25E025E0FEC3741F9EF50B
:1003AE00FB43FC07C3741E9EF5FB53FCF8C3741D80
:1003BE009EF5FB75FC010207FCEF25E025E0FEC370
:1003CE00741F9EF5FB43FC0553FCFDC3741E9EF586
:1003DE00FB53FCF8C3741D9EF5FB75FC0802094E19
:1003EE00EF25E025E0FEC3741F9EF5FB43FC05538D
:1003FE00FCFDC3741E9EF5FB43FC0253FCFAC37452
:10040E001D9EF5FB75FC05020757EF25E025E0FE66
:10041E00C3741F9EF5FB43FC0553FCFDC3741E9E67
:10042E00F5FB43FC0153FCF9C3741D9EF5FBE4F58B
:10043E00FC020757EF25E025E0FEC3741F9EF5FB77
:10044E0043FC0553FCFDC3741E9EF5FB43FC015398
:10045E00FCF9C3741D9EF5FB75FC08020757EF25CA
:10046E00E025E0FEC3741F9EF5FB43FC07C3741E1C
:10047E009EF5FB43FC0153FCF9C3741D9EF5FBE492
:10048E00F5FC0206BDEF25E025E0FEC3741F9EF5C8
:10049E00FB43FC0553FCFDC3741E9EF5FB43FC01A0
:1004AE0053FCF9C3741D9EF5FB75FC0802055DEF48
:1004BE0025E025E0FEC3741F9EF5FB43FC07C374C5
:1004CE001E9EF5FB43FC0153FCF9C3741D9EF5FB08
:1004DE00E4F5FCC3741C9EF5FB75FC0722EF25E0CA
:1004EE0025E0FEC3741F9EF5FB53FCF8C3741E9EDD
:1004FE00F5FB43FC0153FCF9C3741D9EF5FB75FC23
:10050E000602094EEF25E025E0FEC3741F9EF5FBA3
:10051E0043FC0553FCFDC3741E9EF5FB53FCF8C350
:10052E00741D9EF5FB75FC08020757EF25E025E0CC
:10053E00FEC3741F9EF5FB53FCF8C3741E9EF5FBA1
:10054E0043FC0253FCFAC3741D9EF5FBE4F5FCC399
:10055E00741C9EF5FB75FC0D22EF25E025E0FEC315
:10056E00741F9EF5FB43FC0553FCFDC3741E9EF5E4
:10057E00FB53FCF8C3741D9EF5FB75FC0E0207576A
:10058E00EF25E025E0FEC3741F9EF5FB53FCF8C378
:10059E00741E9EF5FB43FC0653FCFE020779EF2505
:1005AE00E025E0FEC3741F9EF5FB43FC0353FCFBEA
:1005BE00C3741E9EF5FB53FCF8C3741D9EF5FB75AC
:1005CE00FC0802082DEF25E025E0FEC3741F9EF502
:1005DE00FB43FC0253FCFAC3741E9EF5FB43FC0561
:1005EE0053FCFDC3741D9EF5FB75FC0902087BEFE1
:1005FE0025E025E0FEC3741F9EF5FB43FC0653FC6D
:10060E00FEC3741E9EF5FB43FC0153FCF9C3741D1F
:10061E009EF5FB75FC0802082DEF25E025E0FEC3D4
:10062E00741F9EF5FB43FC07C3741E9EF5FB53FC23
:10063E00F8C3741D9EF5FB75FC080207FCEF25E060
:10064E0025E0FEC3741F9EF5FB43FC0653FCFEC360
:10065E00741E9EF5FB53FCF8C3741D9EF5FB75FCD2
:10066E000802087BEF25E025E0FEC3741F9EF5FB14
:10067E0043FC0653FCFEC3741E9EF5FB53FCF8C3ED
:10068E00741D9EF5FB75FC0802082DEF25E025E094
:10069E00FEC3741F9EF5FB43FC07C3741E9EF5FB41
:1006AE0043FC0153FCF9C3741D9EF5FB75FC08C396
:1006BE00741C9EF5FB75FC0322EF25E025E0FEC3BE
:1006CE00741F9EF5FB43FC07C3741E9EF5FB43FC93
:1006DE000153FCF9C3741D9EF5FBE4F5FC02094EB3
:1006EE00EF25E025E0FEC3741F9EF5FB43FC07C318
:1006FE00741E9EF5FB53FCF8C3741D9EF5FBE4F5CA
:10070E00FC0207FCEF25E025E0FEC3741F9EF5FBFF
:10071E0053FCF8C3741E9EF5FB53FCF8C3741D9E68
:10072E00F5FB75FC0602094EEF25E025E0FEC374CD
:10073E001F9EF5FB53FCF8C3741E9EF5FB53FCF88D
:10074E00C3741D9EF5FB75FC08C3741C9EF5FB75EA
:10075E00FC0922EF25E025E0FEC3741F9EF5FB4346
:10076E00FC07C3741E9EF5FB53FCF8C3741D9EF567
:10077E00FB75FC01C3741C9EF5FB75FC0422EF2572
:10078E00E025E0FEC3741F9EF5FB43FC0653FCFE02
:10079E00C3741E9EF5FB53FCF8C3741D9EF5FB75CA
:1007AE00FC04804AEF25E025E0FEC3741F9EF5FB96
:1007BE0043FC0653FCFEC3741E9EF5FB53FCF8C3AC
:1007CE00741D9EF5FBE4F5FC8024EF25E025E0FE8C
:1007DE00C3741F9EF5FB43FC0653FCFEC3741E9EA2
:1007EE00F5FB53FCF8C3741D9EF5FB75FC08C37432
:1007FE001C9EF5FB75FC0A22EF25E025E0FEC37476
:10080E001F9EF5FB43FC0353FCFBC3741E9EF5FBBE
:10081E0043FC0153FCF9C3741D9EF5FBE4F5FCC3C8
:10082E00741C9EF5FB75FC0B22EF25E025E0FEC344
:10083E00741F9EF5FB53FCF8C3741E9EF5FB53FC10
:10084E00F8C3741D9EF5FB75FC048021EF25E02591
:10085E00E0FEC3741F9EF5FB43FC07C3741E9EF59A
:10086E00FB53FCF8C3741D9EF5FB75FC08C3741C8A
:10087E009EF5FB75FC0222EF25E025E0FEC3741FFA
:10088E009EF5FB43FC0453FCFCC3741E9EF5FB5308
:10089E00FCF8C3741D9EF5FB75FC08804FEF25E038
:1008AE0025E0FEC3741F9EF5FB53FCF8C3741E9E19
:1008BE00F5FB53FCF8C3741D9EF5FBE4F5FCC37405
:1008CE001C9EF5FB75FC0C22EF25E025E0FEC374A3
:1008DE001F9EF5FB43FC0453FCFCC3741E9EF5FBEC
:1008EE0053FCF8C3741D9EF5FB75FC0CC3741C9E63
:1008FE00F5FB75FC0822EF25E025E0FEC3741F9E74
:10090E00F5FB53FCF8C3741E9EF5FB43FC0253FC2F
:10091E00FAC3741D9EF5FB75FC058024EF25E025BA
:10092E00E0FEC3741F9EF5FB53FCF8C3741E9EF5C8
:10093E00FB43FC0553FCFDC3741D9EF5FB75FC09C2
:0A094E00C3741C9EF5FBE4F5FC22C7
:0B25B400900018EBF0A3EAF0A3E9F0A0
:1025BF00E4A3F0FFC200E94A700302265590001809
:1025CF00E0FBA3E0FAA3E0F91232AAEFC3940840AC
:1025DF002EE490001BF090001BE0FF900018E0FB32
:1025EF00A3E0FAA3E0F98F82758300121115FD1293
:1025FF00005E90001BE004F0E0C3940840D822E492
:10260F0090001BF090001BE0FFC39408503820008F
:10261F0023900018E0FBA3E0FAA3E0F98F82758303
:10262F0000121115FD60028012D20090001BE0FF16
:10263F007D20800790001BE0FF7D2012005E900040
:06264F001BE004F080BE58
:012655002262
:0827F1004100A0004100A1001D
:1030C50012300C5389F75389FB5389FD43890190CD
:1030D50000A074FCF0A37466F0758CFCF58AD2A987
:0330E500D28C2268
:10300C009000977401F0E4900099F090009BF09080
:10301C00009DF0A3F0900098F090009AF090009C26
:06302C00F090009FF0226D
:03000B0002288543
:10288500C0E0C0F0C083C082C0D075D000C000C019
:10289500069000A0E0F58CA3E0F58A900097E0048F
:1028A500F0C394054005E4F0A304F0900099E0041A
:1028B500F0C3940A4005E4F0A304F090009BE00403
:1028C500F0C394644005E4F0A304F090009DE47522
:1028D500F001121197FEC3E5F094E8EE9403400A67
:1028E50090009DE4F0A3F0A304F0D006D000D0D072
:0928F500D082D083D0F0D0E03293
:102E7700E47815F60876030876FF0876030876FFE8
:102E870043E101F5E853B1FE53B2FE53B1FD53B22E
:102E9700FD43F60143F60253E1BF43E12053E1EF5F
:032EA700D2AE2286
:10312C007815E6600DE4F6C2EBC2EAC2E9C2E8D259
:10313C00EE2278157601C2EBC2EAC2E9D2E8D2EEF1
:01314C002260
:0934CD0053B1DF43B2200235C304
:0335C300C285229C
:0335C600D2852289
:0335C900B28522A6
:0934D60053B1BF43B2400235CFEF
:0335CC00C2862292
:0335CF00D286227F
:1030A1000A6D679C46F6375D4521EFAC5A50010B1E
:1030B100DF020A6D679C46F6375D4521EFAC5A5039
:0430C100E10BDF023E
:0827F9004500A9CCCCCCCCCCEE
:1032E70053B1EF43B21053ACEF43AD1053ACDF43D0
:0332F700AD2022E5
:0135D50022D3
:10318E00E4FEC284EF30E704D2838002C283EF25CF
:0C319E00E0FFD284000EEEB408E8C2840A
:0131AA002202
:0432FA00E4FD7FFC74
:0F32FE00C2B40012318EAF0512318E00D2B4224D
:0A2D02007B019000187405F07F3F7C
:0B2D0C00900015EBF0A3EAF0A3E9F043
:102D1700C2B4E4FD12318E900018E0FFEDC39F505E
:102D27001A900015E0FBA3E0FAA3E0F98D82758302
:0D2D370000121115FF12318E0D80DCD2B498
:012D4400226C
:1030E800E4FEC284EF30E704D2838002C283EF2576
:1030F800E0FFD284000EEEB408E843B10853B2F7FB
:02310800C2847F
:01310A0022A2
:10324D00E4FFFEC284EF25E0FFD284308303440106
:08325D00FF0EEEB408EDC2847F
:013265002246
:10330D00C2B4001230E812324D53B1F743B2080087
:02331D00D2B428
:01331F00228B
:0B2D8800900003EBF0A3EAF0A3E9F0D9
:102D9300C2B41230E8E4FD900006E0FFEDC39F509B
:102DA3001A12324D900003E0FBA3E0FAA3E0F98D81
:102DB30082758300EF1211750D80DC53B1F743B2B6
:032DC30008D2B47F
:012DC60022EA
:0F3418001232FA7D8E7F201232FE000000002259
:10303200E4FEFD7FFC1232FE7D8F7F201232FEE421
:10304200FD7FFD1232FEE4FEFF000FBF00010EBE47
:0530520007F7BFD0F4F8
:013057002256
:0A3496007F0712330DEF5470FF2280
:0635B6007F0912330D2213
:07358B007D707F270232FE74
:0C347500E4FD7FE11232FE7FE20232FE35
:0E343500AC071232FAAF04AD077F250232FE5B
:062D4500123496EF703C11
:102D4B00900002F0A3F0900018EDF07FA0122D0C74
:102D5B00E4FD7FFD1232FEE4900002F0A3F0009040
:102D6B000003E004F07006900002E004F090000213
:0C2D7B00E07004A3E064C870E51232FAB6
:012D87002229
:102F9200AC05123496EF30E61D1232FA900006ECC0
:102FA200F07F61122D8812347512358BE4FD7FFD9E
:092FB2001232FE7F01227F002291
:101F760078027C007D017BFF7A3079A17E007F05A7
:101F86001210D678077C007D017BFF7A3079A67E19
:101F9600007F031210D6780A7C007D017BFF7A3021
:101FA60079A97E007F061210D678107C007D017B11
:101FB600FF7A3079AF7E007F011210D678117C004F
:101FC6007D017BFF7A3079B07E007F031210D61236
:101FD60035D57D5A7F531232FE7DA57F531232FED0
:101FE6007D207F3D1232FE1232FA7FE11232FE7FF1
:101FF600E21232FE7D707F271232FE7D017F2212B1
:1020060032FE7D037F231232FE7D4E7F251232FE85
:102016007D107F311232FE7B017A0079A99000187B
:102026007405F07F30122D0C7B017A0079A990009F
:10203600187405F07F2A122D0C7A007902122D02EF
:102046007B017A00790A9000187406F07F3A122D07
:102056000C7B017A0079109000187401F07F391218
:102066002D0C7B017A0079079000187403F07F3EEF
:10207600122D0C7B017A0079119000187403F07F01
:102086003B122D0CE4FD7F3C1232FE7D3F7F261273
:0E20960032FEE4FD7F241232FE7F210232FE74
:05229A00900040EFF090
:10229F00E478417C007D017BFF7A3079B3FE7F05C6
:1022AF001210D678467C007D017BFF7A3079B87E9C
:1022BF00007F031210D678497C007D017BFF7A30B6
:1022CF0079BB7E007F061210D6784F7C007D017B94
:1022DF00FF7A3079C17E007F011210D678507C00D2
:1022EF007D017BFF7A3079C27E007F031210D67D8D
:1022FF005A7F531232FE7DA57F531232FE7D207F0F
:10230F003D1232FE1232FAE4FF000000000FEFB46C
:10231F00DCF7900040E0FD7F251232FE7D3F7F26E7
:10232F001232FE7A007941122D027B017A0079492F
:10233F009000187406F07F3A122D0C7B017A007909
:10234F004F9000187401F07F39122D0C7B017A0029
:10235F0079469000187403F07F3E122D0C7B017AA2
:0E236F000079509000187403F07F3B022D0C93
:101E3100EF14604414606F147003021ED014700319
:101E4100021F0C24046003021F70A2AF9209C2AFEB
:101E510075C7AA75C755439780A20992AFA2AF92E1
:101E610009C2AF75C7AA75C7555397BFA20992AFEB
:101E7100E59630E7FB021F37A2AF9209C2AF75C7E3
:101E8100AA75C75553977FA20992AFA2AF9209C213
:101E9100AF75C7AA75C755439740A20992AFE5969A
:101EA10030E6FB021F37A2AF9209C2AF75C7AA7510
:101EB100C755439720A20992AFE59630E5FBA2AF43
:101EC1009209C2AF75C7AA75C7555396FB8027A261
:101ED100AF9209C2AF75C7AA75C755439710A2093A
:101EE10092AFE59630E4FBA2AF9209C2AF75C7AAE3
:101EF10075C755439604A20992AFA2AF9209C2AF2A
:101F010075C7AA75C7555396FD804DA2AF9209C2F8
:101F1100AF75C7AA75C75553977FA20992AFA2AFF4
:101F21009209C2AF75C7AA75C7555397BFA2099247
:101F3100AFE59630E3FBA2AF9209C2AF75C7AA75B0
:101F4100C7555396FBA20992AFA2AF9209C2AF75D2
:101F5100C7AA75C755439602A20992AFA2AF9209CB
:101F6100C2AF75C7AA75C7555396FEA20992AFE5D0
:051F71009720E0FB22B7
:102FBB0075985243892053877F538EEF53C4DFABF1
:102FCB0007AA06A905A804E47F807E70FDFC1212F7
:092FDB009BEFF404F58DD28E2267
:102FE400759852438920438780538EEF53C4DFABD7
:102FF40007AA06A905A804E4FF7EE1FDFC12129BC2
:08300400EFF404F58DD28E22D9
:102F3E0075985243892053877F438E1053C4DFAB5D
:102F4E0007AA06A905A8047F007E467D057C00120F
:0A2F5E00129BEFF404F58DD28E22D1
:102F6800759852438920438780438E1053C4DFAB42
:102F780007AA06A905A8047F007E8C7D0A7C00129A
:0A2F8800129BEFF404F58DD28E22A7
:102965009000AE12135175985253877F53C4F843A4
:10297500C4209000AEE0F8A3E0F9A3E0FAA3E0FBE1
:102985007F007E467D057C0012129BC3E49FFFE419
:102995009EFE74019DFDE49CFC780812133E8FC6D3
:1029A5009000AEE0F8A3E0F9A3E0FAA3E0FB7F0016
:1029B5007E467D057C0012129BC3E49FFF8FC543B5
:0329C500C4082221
:1029C8009000B212135175985243878053C4F8434C
:1029D800C4209000B2E0F8A3E0F9A3E0FAA3E0FB7A
:1029E8007F007E8C7D0A7C0012129BC3E49FFFE46B
:1029F8009EFE74019DFDE49CFC780812133E8FC670
:102A08009000B2E0F8A3E0F9A3E0FAA3E0FB7F00AE
:102A18007E8C7D0A7C0012129BC3E49FFF8FC54306
:032A2800C40822BD
:102AEB009000B612135175F85253C4F89000B6E02B
:102AFB00F8A3E0F9A3E0FAA3E0FB7F007E8C7D0A4C
:102B0B007C0012129BC3E49FFFE49EFE74019DFDAB
:102B1B00E49CFC780812133E8FC69000B6E0F8A335
:102B2B00E0F9A3E0FAA3E0FB7F007E8C7D0A7C003A
:0D2B3B0012129BC3E49FFF8FC543C4082204
:0734DF003098FDAF99C2987F
:0134E60022C3
:0834E700C2998F993099FD2272
:0734EF0030F8FDAF9AC2F8AE
:0134F60022B3
:0834F700C2F98F9A30F9FD22A1
:10321900E4F5B1F5B2F5B3F5B4F5B5F5B6F5ACF538
:0A322900ADF5DAF5DBF5DCF5DD228A
:10316E0075B1FFE4F5B275B3FFF5B475B5FFF5B6FD
:10317E0075ACFFF5AD75DAFFF5DB75DCFFF5DD221D
:1032330075C7AA75C755A2AF9209C2AF75C7AA755C
:0A324300C755439F80A20992AF22F5
:0435BC0043AD802279
:102E0400EF640A701C30F811E59AB4130CC2F83060
:102E1400F8FDE59AB411F6C2F830F9FDC2F9759AD5
:102E24000D30F811E59AB4130CC2F830F8FDE59AA8
:0D2E3400B411F6C2F830F9FDC2F98F9A22F0
:0628020090FFF81213DA4A
:10280800850D83850E8212135D00000000E47FFFB2
:102818007EFFFDFC850D83850E82E0F8A3E0F9A319
:10282800E0FAA3E0FBC312132D504C9000041213DE
:10283800FEE0FCA3E0FDA3E0FEA3E02401FFE43EEC
:10284800FEE43DFDE43CFC9000041213FE1213511B
:10285800850D83850E82E0FCA3E0FDA3E0FEA3E0E6
:102868002401FFE43EFEE43DFDE43CFC850D838548
:072878000E8212135180963D
:06287F009000080213DACC
:10314D00538EF7438901D28CEF4E6012758AF77555
:10315D008CFF308DFDC28DEF1F70ED1E80EAC28C8D
:01316D00223F
:102BFF009000BA121351538EF7438901D28CE4FF20
:102C0F00FEFDFC9000BAE0F8A3E0F9A3E0FAA3E020
:102C1F00FBC312132D602F758A65758CFC308DFDEB
:102C2F00C28D9000BAE0FCA3E0FDA3E0FEA3E02478
:102C3F00FFFFEE34FFFEED34FFFDEC34FFFC9000A0
:092C4F00BA12135180B8C28C22A4
:102C58009000BE121351538EEF438910D28EE4FFB9
:102C6800FEFDFC9000BEE0F8A3E0F9A3E0FAA3E0C3
:102C7800FBC312132D602F758B65758DFC308FFD8E
:102C8800C28F9000BEE0FCA3E0FDA3E0FEA3E02419
:102C9800FFFFEE34FFFEED34FFFDEC34FFFC900047
:092CA800BE12135180B8C28E2245
:102BA4009000C212135175C40243C408E4FFFEFD31
:102BB400FC9000C2E0F8A3E0F9A3E0FAA3E0FBC3B1
:102BC40012132D603275C53375C6F5E5C430E4FBC8
:102BD40053C4EF9000C2E0FCA3E0FDA3E0FEA3E039
:102BE40024FFFFEE34FFFEED34FFFDEC34FFFC90D8
:0B2BF40000C212135180B553C4F72239
:102A2B009000C6121351538FFB538FFD538FFEE44F
:102A3B00F586538FDF438F08E4FFFEFDFC9000C645
:102A4B00E0F8A3E0F9A3E0FAA3E0FBC312132D60B7
:102A5B002CE58F30E4FB538FEF9000C6E0FCA3E036
:102A6B00FDA3E0FEA3E024FFFFEE34FFFEED34FFF9
:102A7B00FDEC34FFFC9000C612135180BB538FF753
:012A8B002228
:1020A4000A3D3D3D3D3D3D3D3D3D3D3D3D3D3D3D8F
:1020B4003D3D3D3D3D3D3D3D3D3D3D3D3D3D3D3D4C
:1020C4003D3D3D3D3D3D3D3D3D3D3D3D3D3D3D3D3C
:1020D4003D3D3D3D3D3D3D3D3D3D3D3D3D3D3D3D2C
:1020E4003D3D3D3D3D000A2A2020436F70797269D1
:1020F4006768742863292032303135204E75766F35
:10210400746F6E20546563686E6F6C6F67792043DB
:102114006F72702E20416C6C207269676874732032
:1021240072657365727665642E2020000A2A202069
:10213400436F6E7461637420452D4D61696C3A2060
:102144004D6963726F432D38626974406E75766FA2
:10215400746F6E2E636F6D2020202020202020209D
:10216400202020202020202020202020202020206B
:1021740020000A2A202044656D6F20566572736919
:102184006F6E20203A202532642E2532642E2532AB
:1021940064000A2A202046696E69736865642044D5
:1021A400617465203A202532642E2532642E25324E
:0221B4006400C5
:102A8C007BFF7A2079A41219E37BFF7A2079EA1272
:102A9C0019E37BFF7A2179301219E37BFF7A2179D4
:102AAC007690001BE4F0A304F0E4A3F0A3F0A3F0F1
:102ABC00A3F01219E37BFF7A21799690001B74071F
:102ACC00F0A374DFF0A3E4F0A37405F0A3E4F0A387
:0F2ADC00741FF01219E37BFF7A2079A40219E32B
:030000000226567F
:10265600787FE4F6D8FD9000007FFF7E01E4F0A3CA
:0A266600DFFCDEFA7581BD0226AB31
:102670000226F0E493A3F8E493A34003F68001F26A
:1026800008DFF48029E493A3F85407240CC8C3336B
:10269000C4540F4420C8834004F456800146F6DF3A
:1026A000E4800B010204081020408090277FE47E24
:1026B000019360BCA3FF543F30E509541FFEE4932F
:1026C000A360010ECF54C025E060A840B8E493A3F6
:1026D000FAE493A3F8E493A3C8C582C8CAC583CA21
:1026E000F0A3C8C582C8CAC583CADFE9DEE780BED9
:0128010000D6
:10100600E709F608DFFA8046E709F208DFFA803ECC
:1010160088828C83E709F0A3DFFA8032E309F608B9
:10102600DFFA8078E309F208DFFA807088828C8321
:10103600E309F0A3DFFA806489828A83E0A3F608D5
:10104600DFFA805889828A83E0A3F208DFFA804CAF
:1010560080D280FA80C680D4806980F28033801086
:1010660080A680EA809A80A880DA80E280CA8033EF
:1010760089828A83ECFAE493A3C8C582C8CCC58367
:10108600CCF0A3C8C582C8CCC583CCDFE9DEE78037
:101096000D89828A83E493A3F608DFF9ECFAA9F0B6
:1010A600EDFB2289828A83ECFAE0A3C8C582C8CC0C
:1010B600C583CCF0A3C8C582C8CCC583CCDFEADE25
:1010C600E880DB89828A83E493A3F208DFF980CC87
:1010D60088F0EF60010E4E60C388F0ED2402B40480
:1010E6000050B9F582EB2402B4040050AF23234527
:0610F600822390105673E6
:1010FC00BB010689828A83E0225002E722BBFE02F2
:09110C00E32289828A83E4932224
:10111500BB010CE58229F582E5833AF583E022508F
:1011250006E92582F8E622BBFE06E92582F8E222D9
:0D113500E58229F582E5833AF583E49322F3
:10114200BB010FF8E58229F582E5833AF583E028B1
:10115200F0225009C58229F8E58226F622BBFE0953
:10116200C58229F8E22582F222F8EA2583F583E98D
:031172009328229D
:10117500F8BB010DE58229F582E5833AF583E8F0B0
:10118500225006E92582C8F622BBFE05E92582C85C
:02119500F22244
:10119700C5F0F8A3E028F0C5F0F8E58215827002E3
:0611A7001583E038F02280
:1011AD00BB0110E58229F582E5833AF583E0F5F080
:1011BD00A3E0225009E92582F886F008E622BBFE5D
:1011CD000AE92582F8E2F5F008E222E5832AF583A3
:0811DD00E993F5F0A3E9932268
:1011E500BB010DC58229C582C5833AC58302119706
:1011F5005011C58229F808E5F026F618F5F0E582C4
:1012050036F622BBFE11C58229F808E225F0F5F075
:10121500F218E23582F222F8E58229F582E5832A81
:0D122500F58374019325F0F5F0E493382271
:10123200F8BB0111E58229F582E5833AF583E8F0EE
:10124200E5F0A3F0225009E92582C8F608A6F022AB
:0D125200BBFE09E92582C8F2E5F008F22292
:10125F0075F008758200EF2FFFEE33FECD33CDCC46
:10126F0033CCC58233C5829BED9AEC99E5829840C9
:10127F000CF582EE9BFEED9AFDEC99FC0FD5F0D6A6
:10128F00E4CEFBE4CDFAE4CCF9A88222B800C1B9D0
:10129F000059BA002DEC8BF084CFCECDFCE5F0CB0E
:1012AF00F97818EF2FFFEE33FEED33FDEC33FCEB47
:1012BF0033FB10D703994004EB99FB0FD8E5E4F902
:1012CF00FA227818EF2FFFEE33FEED33FDEC33FCEF
:1012DF00C933C910D7059BE99A4007EC9BFCE99AE3
:1012EF00F90FD8E0E4C9FAE4CCFB2275F010EF2F28
:1012FF00FFEE33FEED33FDCC33CCC833C810D70728
:10130F009BEC9AE899400AED9BFDEC9AFCE899F862
:0E131F000FD5F0DAE4CDFBE4CCFAE4C8F922F5
:10132D00EB9FF5F0EA9E42F0E99D42F0E89C45F016
:01133D00228D
:10133E00E8600FECC313FCED13FDEE13FEEF13FF8D
:03134E00D8F122B1
:0C135100ECF0A3EDF0A3EEF0A3EFF0220F
:10135D00A8828583F0D083D0821213741213741275
:10136D001374121374E473E493A3C583C5F0C5839A
:10137D00C8C582C8F0A3C583C5F0C583C8C582C8DA
:01138D00223D
:10138E00BB010789828A8302153B5005E9F80215D5
:10139E0032BBFE05E9F802156489828A8302156D57
:1013AE00D083D082F8E4937012740193700DA3A3CE
:1013BE0093F8740193F5828883E4737402936860E2
:0613CE00EFA3A3A380DFE2
:0613D4008A838982E473A4
:1013DA00E50E2582F582E50D3583F583B50D048585
:1013EA00820E2210AF0685820EF50D2285820EF539
:0413FA000DD2AF223F
:0D13FE00E50E2582F582E50D3583F583228D
:10197800E508241BF582E43400F583E0050822908D
:10198800001830070390001BE475F001121544029B
:1019980010FC2000E97F2ED2008018EF540F24900D
:1019A800D43440D4FF30040BEF24BFB41A005003E2
:1019B8002461FFE50960021509050CE50C700205B4
:1019C8000B30070E900018E475F001121544EF0271
:1019D8001520022E047403D2078003E4C207F50819
:1019E80090001812155BE4F509F50BF50CE5096094
:1019F800077F201219BB80F5750AFFC201C200C219
:101A080002C203C205C206C208121987FF700D3050
:101A180007057F001219CCAF0CAE0B22B4255FC2AC
:101A2800D5C204121987FF24D0B40A00501A75F0E1
:101A38000A780930D50508B6FF0106C6A426F6209F
:101A4800D5047002D20380D924CFB41A00EF500411
:101A5800C2E5D204021BCDD20180C6D20080C0D21A
:101A68000280BCD2D580BAD20580B47F201219BBBF
:101A78002002077401B5090040F1121978FF121904
:101A8800BB0219F5D208D2068095121978FB1219F3
:101A980078FA121978F94A4B7006799E7A1C7BFFFE
:101AA80020022EE509602A7E008E827583001211BD
:101AB8001560060EEE650A70F0C2D5EBC0E0EAC00C
:101AC800E0E9C0E0EE121C14D0E0F9D0E0FAD0E072
:101AD800FB1210FCFF60AAEBC0E0EAC0E0E9C0E03E
:101AE8001219BBD0E02401F9D0E03400FAD0E0FBB1
:101AF800E50A0460DCD50AD980877BFF7A1C791057
:101B0800D202809C791080027908C206C208800837
:101B1800D2D5790A8004790AC2D5E50A047002F59B
:101B28000AE4FAFDFEFF121978FC7B082001131263
:101B38001978FD7B1030000A121978FE121978FF07
:101B48007B20EC3382D592D55013C3E43000069F36
:101B5800FFE49EFEE42001039DFDE49CFCE4CBF839
:101B6800C201EC700CCFCECDCCE824F8F870F3802D
:101B780017C3EF33FFEE33FEED33FDEC33FCEB33ED
:101B8800FB994002FB0FD8E9EB300105F8D0E0C41F
:101B980048B201C0E00AEC4D4E4F78207B0070C27D
:101BA800EAB50A0040BCC0E0121C16D0F0D0E02014
:101BB8000104C4C0E0C4B201C0F01219A4D0F0D529
:101BC800F0EB0219F51213AE1A92531B0C581A6354
:101BD8004C1A5F421B104F1B18441B18491A7843B4
:081BE8001B1E551B02461B02E7
:101BF000451B02471CBE501A672D1A6B2E1A8E2BDE
:101C00001A6F231A8C201CA72A1A274800001A864C
:101C10003F3F3F00790AA2D5200314300509B910CF
:101C2000020404B9080104A2D520060250010420D0
:101C300002689202B509005034C0E07F20300319D9
:101C40007F30A20272067205500F121C6DC202C2D2
:101C500006C205C2087F30800F300503E9C0E012DC
:101C600019BB300503D0E0F9D0E0B509CC30051739
:101C70007F30B9100C1219BB7F583004077F788071
:101C800003B908031219BB3002057F2D0219BB7F6F
:101C9000202008F87F2B2006F322920280CF286EA6
:101CA000756C6C2900D2011219783001F8C20178E4
:101CB0000930D50108F6021A272D50434958121948
:101CC000782403B405004001E4901CB9931219ACC8
:0D1CD000743A1219ACD203750904021B0C02
:10140B00E709F60870FA8046E709F20870FA803EA1
:10141B0088828C83E709F0A370FA807EE309F608D3
:10142B0070FA8076E309F20870FA806E88828C83FA
:10143B00E309F0A370FA806289828A83E0A3F6083D
:10144B0070FA805689828A83E0A3F20870FA804A88
:10145B0080D280FA80C680D4806580F28031801083
:10146B0080A680EA809A80A880DA80E280CA8031E8
:10147B0089828A83ECFAE493A3C8C582C8CCC5835E
:10148B00CCF0A3C8C582C8CCC583CC70E9800D89CC
:10149B00828A83E493A3F60870F9ECFAA9F0EDFBCA
:1014AB002289828A83ECFAE0A3C8C582C8CCC583A3
:1014BB00CCF0A3C8C582C8CCC583CC70EA80DD89CB
:1014CB00828A83E493A3F20870F980CE88F0ED242E
:1014DB0002B4040050C4F582EB2402B4040050BAE9
:0914EB00232345822390145B7356
:1032AA00E4FFFE1210FC600C0FEF70010E09E970CA
:0532BA00F20A80EF2282
:1014F400EF4E6012EF60010EEDBB010B89828A830F
:10150400F0A3DFFCDEFA2289F05007F709DFFCA91B
:0C151400F022BBFEFCF309DFFCA9F02272
:10152000BB010689828A83F0225002F722BBFE01AA
:02153000F322A4
:09153200E6FB08E6FA08E6F922DE
:09153B00E0FBA3E0FAA3E0F922B1
:10154400F8E0FBA3A3E0F925F0F0E5821582700230
:071554001583E0FA38F022D4
:09155B00EBF0A3EAF0A3E9F02291
:09156400E2FB08E2FA08E2F922B8
:0C156D00E493FB740193FA740293F922DA
:00000001FF
