:07350D006368302025640013
:10278D005000550000000000000000000000000097
:0B279D00000000410053004100540008
:03005B00022B561F
:102B5600C0E0C0D075D000C000C001C005C006C02E
:102B660007C2EFAFC37815E6FD25E02416F8760018
:102B760008A607ED25E02416F8C000F9E7FE09E7E8
:102B86007802C333CE33CED8F9D000A60608F6EDC8
:102B960025E02416F8AFC2E6F6EF0846F6D007D0D1
:0C2BA60006D005D001D000D0D0D0E03225
:1026FE007F02121E361231F112306612327412350A
:10270E00CE900098E06005E4F012313A90009AE025
:0D271E006005E4F012320C90009CE0604376
:10272B00E4900001F090009CF012245D1233CC90E9
:10273B000053E004F0E0C394054025E4F090001B47
:10274B0074FFF0A37435F0A3740DF07816E6FF0850
:10275B00E6A3CFF0A3EFF07B017A0079551219E2D3
:03276B0012000E4B
:06276E0090009FE06008EE
:08277400E4F0900054E004F0D1
:10277C001231B9900000EFF06089E0FF12158880EB
:01278C0082CA
:05158800900002EFF0ED
:10158D00E4A3F0A3F0900003F0FE7F10FDFB7A00C2
:10159D00799D121503900002E024FEB4190040035A
:1015AD000219699015BE75F003A4C58325F0C58396
:1015BD007302160902196902196902165F0216B53E
:1015CD0002196902170B02196902196902176102E2
:1015DD0019690219690217B7021969021969021806
:1015ED000D02196902196902186D0219690219694A
:1015FD000218C3021969021969021916900003E055
:10160D00FF04F0749D2FF876F2E0FF04F0749D2F27
:10161D00F87601E0FF04F0749D2FF87601E4A3F055
:10162D00789EE62401FFE433FE900004E0FDC39FA5
:10163D00EE6480F87480984003021969749E2DF849
:10164D00E6FF900003E0249DF8EF26F6A3E004F0FA
:10165D0080CE900003E0FF04F0749D2FF876F2E049
:10166D00FF04F0749D2FF87601E0FF04F0749D2FB8
:10167D00F87606E4A3F0789EE62401FFE433FE90AD
:10168D000004E0FDC39FEE6480F87480984003026F
:10169D001969749E2DF8E6FF900003E0249DF8EF84
:1016AD0026F6A3E004F080CE900003E0FF04F07472
:1016BD009D2FF876F2E0FF04F0749D2FF87601E08F
:1016CD00FF04F0749D2FF87607E4A3F0789EE624CE
:1016DD0001FFE433FE900004E0FDC39FEE6480F84B
:1016ED007480984003021969749E2DF8E6FF9000EE
:1016FD0003E0249DF8EF26F6A3E004F080CE9000E1
:10170D0003E0FF04F0749D2FF876F2E0FF04F0740F
:10171D009D2FF87601E0FF04F0749D2FF87603E419
:10172D00A3F0789EE62401FFE433FE900004E0FD73
:10173D00C39FEE6480F87480984003021969749E0B
:10174D002DF8E6FF900003E0249DF8EF26F6A3E0C8
:10175D0004F080CE900003E0FF04F0749D2FF87626
:10176D00F2E0FF04F0749D2FF87601E0FF04F074B1
:10177D009D2FF87602E4A3F0789EE62401FFE43372
:10178D00FE900004E0FDC39FEE6480F874809840E5
:10179D0003021969749E2DF8E6FF900003E0249D65
:1017AD00F8EF26F6A3E004F080CE900003E0FF04EE
:1017BD00F0749D2FF876F2E0FF04F0749D2FF8760B
:1017CD0001E0FF04F0749D2FF87604E4A3F0789EF9
:1017DD00E62401FFE433FE900004E0FDC39FEE64B8
:1017ED0080F87480984003021969749E2DF8E6FF05
:1017FD00900003E0249DF8EF26F6A3E004F080CEE0
:10180D00900003E0FF04F0749D2FF876F2E0FF04E2
:10181D00F0749D2FF87602E0FF04F0749D2FF8769A
:10182D0009E0FF04F0749D2FF87603E4A3F0789E91
:10183D00E62401FFE433FE900004E0FDC39FEE6457
:10184D0080F87480984003021969749E2DF8E6FFA4
:10185D00900003E0249DF8EF26F6A3E004F080CE7F
:10186D00900003E0FF04F0749D2FF876F2E0FF0482
:10187D00F0749D2FF87601E0FF04F0749D2FF8763B
:10188D0005E4A3F0789EE62401FFE433FE90000406
:10189D00E0FDC39FEE6480F87480984003021969DF
:1018AD00749E2DF8E6FF900003E0249DF8EF26F6D8
:1018BD00A3E004F080CE900003E0FF04F0749D2FB0
:1018CD00F876F2E0FF04F0749D2FF87601E0FF0446
:1018DD00F0749D2FF87608E4A3F0789EE62401FFBE
:1018ED00E433FE900004E0FDC39FEE6480F8748045
:1018FD00985069749E2DF8E6FF900003E0249DF842
:10190D00EF26F6A3E004F080D1900003E0FF04F091
:10191D00749D2FF876F2E0FF04F0749D2FF8760198
:10192D00E0FF04F0749D2FF876B9E4A3F0789EE6FD
:10193D002401FFE433FE900004E0FDC39FEE6480BC
:10194D00F87480985016749E2DF8E6FF900003E011
:10195D00249DF8EF26F6A3E004F080D1900003E07B
:0F196D00600D04F07B007A00799DE0FD122CBF25
:01197C002248
:0335CE000235764D
:0135E00022C8
:0135E10022C7
:0135E20022C6
:0C346B00900071EBF0A3EAF0A3E9F0225E
:0C347700900074EBF0A3EAF0A3E9F0224F
:10335200900071A3E0FAA3E0F94A60031213E3229A
:10336200900074A3E0FAA3E0F94A60031213E32287
:102EB800EF4E602D900067EEF0A3EFF0AF05A3ECA6
:102EC800F0A3EFF0AF03A3EAF0A3EFF0E4A3F0A3BD
:102ED800F0A3F0A3F0900066F090006504F01233C0
:022EE800522274
:1032CD00E4900065F01233627B007A0079001234CD
:0432DD006B023477D5
:0A349A00900065E06002D322C32217
:10245D00900065E07003022511900069E0FEA3E095
:10246D00FF4E7003022511900066E07035D3EF9496
:10247D0000EE9400500302251190006DE475F001FB
:10248D001211A6FED3900068E095F0900067E09ED3
:10249D005072123362E490006DF0A3F09000660468
:1024AD00F022900066E06401705A90006D75F001A5
:1024BD001211A6FED390006AE095F0900069E09E9F
:1024CD00504290006BE0FEA3E0FF9400EE940040BC
:1024DD002590006FE475F0011211A6FCD3EF95F075
:1024ED00EE9C5005E4900065F0900065E07007905B
:1024FD000069F0A3F022E490006DF0A3F090006667
:05250D00F01233522220
:102382002042415A4F4F4B410020505752204F4656
:102392004600414343204F4E00414343204F4646AF
:1023A2000020564F4C202575002020202020202080
:1023B200200020202050415553450020202020504D
:1023C2004C4159005343414E4E494E470020202074
:1023D2004D55544520002020204E455854200020C1
:1023E200202050524556200020202020535425758D
:1023F20000545220257500202020202575253032DA
:102402007500202020202025752530327500464D8C
:10241200202575257500464D202025752575004619
:102422004D202020257525750020202020444F4D69
:1024320045005052495245440050414952494E4785
:1024420000504C4159004D55544500000000000019
:0B24520000000000000000000000007F
:1027A80001AD0010AE0000000000000000000000B5
:1027B8000000000000109D00000000000000000064
:1027C800000000000000005000770000000000003A
:0A27D80000000000000000000000F7
:10306600E478ADF6FE7F10FDFB7A0079AE1215030B
:103076007E007F107D007B007A00799D1215031279
:053086001F7B02304039
:102CBF00900005EBF0A3EAF0A3E9F0A3EDF0D394B5
:102CCF0010503D12342678AD7601900005E0FBA33D
:102CDF00E0FAA3E0F990009DEB7008E965827003BC
:102CEF00EA6583601B900008E0FF7E00789D7C0002
:102CFF007D00900005E0FBA3E0FAA3E0F91210E5D8
:012D0F0022A1
:10328C007810E67BFF30E1067A23798280047A237A
:06329C00798B1225C2220D
:1032A2007810E67BFF30E0067A23799480047A2353
:0632B200799B1225C222E7
:102DD50078087C007D017BFF7A24794D7E007F1089
:102DE5001210E590001B74FFF0A37423F0A374A3E5
:102DF500F07811E6FFA3E4F0A3EFF07B017A007908
:0D2E0500081219E27B017A0079080225C24B
:0F3372007BFF7A2379AB1225C212357D02358B92
:0934AE007BFF7A2379B40225C2E8
:0934B7007BFF7A2379BD0225C2D6
:10332E007BFF7A2379C61225C212357D12358B02A8
:02333E003561F7
:0934C0007BFF7A2379CF0225C2BB
:0934C9007BFF7A2379BD0225C2C4
:0F3381007BFF7A2379B41225C212357D02358B7A
:0F3390007BFF7A2379D81225C212357D02358B47
:0F339F007BFF7A2379E11225C212357D02358B2F
:102F1C0090001B74FFF0A37423F0A374EAF07812F2
:102F2C00E6FFA3E4F0A3EFF07B017A0079771219A6
:102F3C00E27B017A0079771225C212357D02359237
:102EEA0090001B74FFF0A37423F0A374F3F078131B
:102EFA00E6FF08E6A3CFF0A3EFF07B017A0079772B
:102F0A001219E27B017A0079771225C212357D0205
:022F1A00358BF5
:0F33AE007B017A0079771225C212357D02358BAB
:0F33BD007BFF7A2379AB1225C212357D02358B47
:0B095800900002EBF0A3EAF0A3E9F02E
:10096300E4A3F0A3F0A3F012110B64F860030210E8
:10097300141235D7900002E0FBA3E0FAA3E0F9904C
:100983000001121124D394104003021014E49000C8
:1009930005F0900002E0FBA3E0FAA3E0F990000168
:1009A3001211242401FFE433FE900005E0FDC39FF0
:1009B300EE6480F8748098501DED2401FFE433FE4B
:1009C3008F828E83121124FF900007E02FF0900096
:1009D30005E004F080BC900002E0FBA3E0FAA3E092
:1009E300F9900001121124F582758300A3A312115B
:1009F30024FF900007E06F60030210147E007F1055
:100A03007D007B007A00799D121503E4900006F0C7
:100A1300900002E0FBA3E0FAA3E0F99000021211B8
:100A2300241213BD0E24010E9F090A49310A88348A
:100A33000C28350CE0360D59370E07380F24410EBC
:100A4300E3B90000100C9000031211246401700F2D
:100A53007810E64402F67BFF7A32798C020EC59059
:100A63000002E0FBA3E0FAA3E0F9900003121124D3
:100A73006402600302100C7810E654FDF67BFF7AE3
:100A830032798C807A900002E0FBA3E0FAA3E0F9CC
:100A930090000312112424FE604B147003020B9583
:100AA300147003020B2F147003020BD3240460038E
:100AB30002100C900004121124B401097BFF7A3454
:100AC30079B7020EC5900002E0FBA3E0FAA3E0F9B8
:100AD3009000041211246402600302100C7BFF7A5D
:100AE3003479AE8061900002E0FBA3E0FAA3E0F961
:100AF300900004121124B4021D7BFF7A33792E1265
:100B0300346B7B007A007900123477E4FBFA7D01C1
:100B1300FC7F14020E67900002E0FBA3E0FAA3E05F
:100B2300F9900004121124640102100C900002E0F9
:100B3300FBA3E0FAA3E0F9900004121124B4011D11
:100B43007BFF7A3479C912346B7BFF7A3379721263
:100B53003477E4FBFA7D0AFC7F0A020E67900002F9
:100B6300E0FBA3E0FAA3E0F990000412112464026D
:100B7300600302100C7BFF7A3479C012346B7BFF65
:100B83007A337972123477E4FBFA7D0AFC7F0A0226
:100B93000E67900002E0FBA3E0FAA3E0F9900004E3
:100BA300121124FF6401700302100CEF640260034E
:100BB30002100C7BFF7A33798112346B7BFF7A331B
:100BC3007972123477E4FBFA7D0AFC7F0A020E671E
:100BD300900002E0FBA3E0FAA3E0F99000041211F5
:100BE3002464017031E92405F9E43AFA78777C004A
:100BF3007D017E007F081210E57BFF7A3379AE1208
:100C0300346B7BFF7A3379BD123477E4FBFA7D08CA
:100C1300FC7F08020E67900002E0FBA3E0FAA3E06A
:100C23002405020E76900002E0FBA3E0FAA3E0F9AC
:100C330090000312112424FE604414605E24FE70AD
:100C430003020CCB2404600302100C900004121165
:100C530024B401097BFF7A33799F020EC590000209
:100C6300E0FBA3E0FAA3E0F990000412112464026C
:100C7300600302100C7BFF7A337990020EC590005B
:100C830002E0FBA3E0FAA3E0F99000051211247837
:100C930012F67BFF7A2F791C020EC5900002E0FB4F
:100CA300A3E0FAA3E0F9900006121124781376006A
:100CB30008F6900005121124781346F608E6F67B31
:100CC300FF7A2E79EA020EC5900002E0FBA3E0FA58
:100CD300A3E02404F9E43AFA7D0802100912355A14
:100CE300900002E0FBA3E0FAA3E0F99000031211E5
:100CF30024FFD3940990001B74FF400BF0A37423CB
:100D0300F0A374F9F0801BF0A37424F0A37404F02F
:100D1300900002E0FBA3E0FAA3E0F99000031211B4
:100D230024FF90001EE4F0A3EFF0900004121124BE
:100D3300FF900020E4F0A3EFF07B017A00797712B3
:100D430019E27B017A0079771232B8AD077B017A19
:100D530000797702100912353012356812358B90FD
:100D63000002E0FBA3E0FAA3E0F9900003121124D0
:100D7300FFD39463401990001B74FFF0A37424F015
:100D8300A37410F0900002A3A390001EEF804D9077
:100D93000002E0FBA3E0FAA3E0F9900003121124A0
:100DA300FFD3940990001B74FF4014F0A37424F044
:100DB300A37418F0900002A3A390001EEF801DF00F
:100DC300A37424F0A37421F0900002E0FBA3E0FAE3
:100DD300A3E0F990000312112490001EF090000488
:100DE30012112490001FF07B017A0079771219E227
:100DF3007B017A0079771232B8AD077B017A0079EB
:100E030077021009900002E0FBA3E0FAA3E0F99057
:100E130000031211247811F67BFF7A2D79D5020E87
:100E2300C5900002E0FBA3E0FAA3E0F990000312EF
:100E3300112464017031E92404F9E43AFA78777CE7
:100E4300007D017E007F081210E57BFF7A3379AEC7
:100E530012346B7BFF7A3379BD123477E4FBFA7D6E
:100E630008FC7F08FE8073900002E0FBA3E0FAA376
:100E7300E02404F9E43AFA7D081231197BFF7A334E
:100E830079AE12346B7B007A0079001234777B01E0
:100E93007A007D017C007F017E00803E900002E0AD
:100EA300FBA3E0FAA3E0F99000031211247810B435
:100EB3000106E64401F68004E654FEF67BFF7A322F
:100EC30079A212346B7B007A0079001234777B01AC
:100ED3007A007D017C007F147E00122EB802100C74
:100EE300900002E0FBA3E0FAA3E0F99000031211E3
:100EF300246401702612352278777C007D017BFF04
:100F03007A24792B1214E67B017A0079771232B8AE
:100F1300AD077B017A00797702100912351B0210A5
:100F23000C12356112357D12358B12353712352986
:100F3300123545123553900002E0FBA3E0FAA3E01B
:100F4300F990000312112424FC606224036003025D
:100F5300100C12353E900002E0FBA3E0FAA3E0F987
:100F6300900004121124B4010E78777C007D017B7C
:100F7300FF7A2479348020900002E0FBA3E0FAA3F7
:100F8300E0F9900004121124B4020F78777C007DFD
:100F9300017BFF7A24793B1214E67B017A0079778F
:100FA3001232B8AD077B017A007977805912354C3C
:100FB300900002E0FBA3E0FAA3E0F9900004121111
:100FC30024B4010E78777C007D017BFF7A2479437A
:100FD3008020900002E0FBA3E0FAA3E0F990000474
:100FE300121124B4020F78777C007D017BFF7A24F1
:100FF30079481214E67B017A0079771232B8AD078B
:101003007B017A007977123119900006E0600204BF
:01101300F0EC
:0110140022B9
:10000E0078ADE660301234A4EF24F0601724D0608F
:10001E001124207015123483123599E478ADF6024E
:10002E00304080001234830235997B007A00799D2E
:10003E007D10022D537B007A0079AE7D10122FA019
:0D004E00EF60097B007A0079AE120958229C
:0800030044454641554C5400F0
:1027E2005000870000000000000000000000000010
:0327F200000000E4
:103274007BFF7A0079031232B878877C007D017B6A
:08328400FF7A0079030210E556
:10311900900008EDF0FF7E0078877C007D01121099
:10312900E5900008E02487F582E43400F583E4F0B3
:013139002273
:0F33CC0012349A40097B017A0079871225C222B8
:1031F10012317C122E4F122E851235AC1234DB1295
:0B32010030D31232F51234E4D2AF22B9
:0A27F5004200A700004200A500000A
:0934D2003082037F00227F0122F9
:09290C007818E6FC08E6FD7E03E4
:10291500EF2405FBE43EFAD3EB94FFEA940340066B
:102925007A037BFF8007EF2405FBE43EFA9000A7BE
:10293500EAF0A3EBF0C3EF9405EE940050067E0099
:102945007F008008EF24FBFFEE34FFFE9000A5EE2C
:10295500F0A3EFF0C3ED9FEC9E40109000A8E09D22
:0E2965009000A7E09C40047F0180027F0022CA
:0F33DB007816E6FC08E6FD7FD47E031229152242
:0F33EA007816E6FC08E6FD7FBB7E03122915224C
:0F33F9007816E6FC08E6FD7F747E031229152284
:0E3435007816E6FC08E6FDE4FFFE12291522DB
:0635A0007FDF12290C225E
:0635A6007FD112290C2266
:0F3408007818E6FC08E6FD7FB87E03122915222E
:0F3417007818E6FC08E6FD7F717E031229152266
:103340001234D2EF60091235A0EF60037F01227FB3
:02335000002259
:0635AC0012251202351485
:1032E100789BE62490F8A607789B06E6C3940A40EB
:0432F10002E4F622DB
:1031B900789AE6FE08667002FF2274902EF8E6FF00
:0B31C900789A06E6C3940A4002E4F680
:0131D40022D8
:1031D500789CE6FE18667002FF2274902EF8E6FFD2
:0B31E500789C06E6C3940A4002E4F662
:0131F00022BC
:0B348F00EF75F00BA4242AF8E6FF22E2
:10308B00EF75F00BA42428F8A60408A605AE03EFF1
:10309B0075F00BA4242BF8A606EF75F00BA4242CCB
:0430AB00F8E4F6222D
:0635B200789BE618F622EA
:0735140043B10453B2FB2296
:10251200E4789AF608F608F6FFEF75F00BA4242883
:10252200F876000876C8EF75F00BA42425F8760239
:10253200EF75F00BA4242AF8E4F6EF75F00BA4244F
:102542002BF8E4F6EF75F00BA4242CF8E4F60FEF69
:10255200B40AC6784C763278577632782276FF08FB
:1025620076340876D2782D76FF0876330876DB78D3
:102572003876FF0876330876EA784376FF087633B2
:102582000876F9784E76FF087634087635785976EB
:10259200FF0876350876A0786476FF0876350876E7
:1025A200A6786F76FF087634087608787A76FF0880
:0F25B2007634087617788576FF087633087640FA
:0125C10022F7
:101CE200900003EFF0E075F00BA42422F9E4FAFB74
:101CF2009000A2F0A3F0A3E9F012139D1213E3EFF8
:101D02007003021DCE9000A2E0FBA3E0FAA3E0F96B
:101D1200900003121124FFC394055008900003742D
:101D220005021E32EFC3940A5008900003740102A8
:101D3200115190000812112470149000080412111D
:101D420084900003E075F003A404FF1232E19000D6
:101D5200A2E0FBA3E0FAA3E0F99000061211BCFF97
:101D6200AEF0D39400EE94005003021E35900004AE
:101D72001211BCC39FE5F09E5023900004E475F05D
:101D8200011211F4FCE5F06F7002EC6E6003021EAA
:101D920035900003E075F003A42403802B90000922
:101DA200121124FFD394005003021E3590000A74CE
:101DB20001121151C39F407B90000AE412118490DA
:101DC2000003E075F003A404FF0232E19000A2E0F8
:101DD200FBA3E0FAA3E0F9900003121124FFD394CD
:101DE20005400A9000037405121184802BEF600AEB
:101DF20090000374FF121151801E900008121124EA
:101E0200B40115900008E4121184900003E075F00B
:101E120003A42402FF1232E19000A2E0FBA3E0FA45
:101E2200A3E0F9900004E4F5F012124190000AE4F4
:041E320012118422E3
:10320C00E4900002F0900002E0FFC3940A500B120D
:0A321C001CE2900002E004F080EBD9
:013226002285
:102E4F00E4F5B275B180F5B475B3FFF5B675B5FF9E
:102E5F00F5AD75AC0FF5DB75DAFFF5DD75DCFFF55C
:102E6F00F975FA0475E5FF75E6FF75E7FF75EEFF77
:062E7F0043F9800234510A
:0C345100E4FF8FFBE4F5FC0FEFB420F665
:01345D00224C
:07351B0075FB1253FCF722BF
:0735220075FB1243FC0822B7
:0735290075FB0E53FCF722B5
:0735300075FB0E43FC0822AD
:0735370075FB0B53FCF722AA
:07353E0075FB0B43FC0822A2
:0735450075FB0A53FCF7229D
:07354C0075FB0A43FC082295
:0735530075FB0353FCF72296
:07355A0075FB0343FC08228E
:0735610075FB0253FCF72289
:0735680075FB0243FC082281
:07356F0075FB0F53FCF7226E
:0735760075FB0F43FC082266
:07357D0075FB0753FCF72268
:0735840075FB0743FC082260
:07358B0075FB0653FCF7225B
:0735920075FB0643FC082253
:0635B80012357D02358B87
:0635BE0012358402359273
:1021BB00EFB40800400302229E9021CBF82828732D
:1021CB000221E30221FB02221302222A02224102F4
:1021DB00225802226F02228675FB1F53FCF875FBF7
:1021EB001E53FCF875FB1D53FCF075FB1C02229B68
:1021FB0075FB1B53FCF875FB1A53FCF875FB195355
:10220B00FCF075FB1802229B75FB1753FCF875FB52
:10221B001653FCF875FB1553FCF075FB14807175A8
:10222B00FB1353FCF875FB1253FCF875FB1153FCB5
:10223B00F075FB10805A75FB0F53FCF875FB0E53B2
:10224B00FCF875FB0D53FCF075FB0C804375FB0B19
:10225B0053FCF875FB0A53FCF875FB0953FCF0753E
:10226B00FB08802C75FB0753FCF875FB0653FCF839
:10227B0075FB0553FCF075FB04801575FB0353FCD4
:10228B00F875FB0253FCF875FB0153FCF0E4F5FB0E
:04229B0053FCF022DE
:0C345E00E4FEAF061221BB0EEEB408F62F
:01346A00223F
:10005E00EFD394074003020957ED64536004EDB4E7
:10006E0073047D35801EEDB467047D398016EDB4C2
:10007E006C047D4C800EEDB470047D508006EDB4A2
:10008E0078027D58ED1213BD024720014530016FF5
:10009E003101933201A83301BD3401D23501E73667
:1000AE0001F937022038023239024A41025C42021B
:1000BE00834302A44402CB4502E9460310470331B1
:1000CE0048035549037C4A03A34B03C74C03EE4D2B
:1000DE0004184E04424F046C5004935104BD520454
:1000EE00EB54051255053956056757058E5805AC64
:1000FE005905D35A05FD61062762064B63067264E5
:10010E0006996506C76606EE6807126907366A071E
:10011E00616B078C6D07B26E07D86F0806710837D2
:10012E0072085A7408857508AB7608D67709047973
:10013E00092A7A00000957EF25E025E0FEC3741F57
:10014E009EF5FB43FC0553FCFDC3741E9EF5FB435D
:10015E00FC0553FCFDC3741D9EF5FB75FC090207DF
:10016E0057EF25E025E0FEC3741F9EF5FB53FCF808
:10017E00C3741E9EF5FB53FCF8C3741D9EF5FB75F0
:10018E00FC01020757EF25E025E0FEC3741F9EF524
:10019E00FB43FC0653FCFE0206A8EF25E025E0FE1D
:1001AE00C3741F9EF5FB43FC0253FCFA02060FEFCD
:1001BE0025E025E0FEC3741F9EF5FB43FC0353FCB4
:1001CE00FB020340EF25E025E0FEC3741F9EF5FB06
:1001DE0043FC0353FCFB020322EF25E025E0FEC3A4
:1001EE00741F9EF5FB43FC07020322EF25E025E07A
:1001FE00FEC3741F9EF5FB53FCF8C3741E9EF5FBE5
:10020E0043FC0153FCF9C3741D9EF5FBE4F5FC029F
:10021E000757EF25E025E0FEC3741F9EF5FB43FC58
:10022E000702060FEF25E025E0FEC3741F9EF5FBC7
:10023E0043FC0353FCFB02060F0221BBEF25E02516
:10024E00E0FEC3741F9EF5FB43FC07020818EF2562
:10025E00E025E0FEC3741F9EF5FB53FCF8C3741E2D
:10026E009EF5FB43FC0153FCF9C3741D9EF5FB7513
:10027E00FC0E02082DEF25E025E0FEC3741F9EF54F
:10028E00FB43FC0553FCFDC3741E9EF5FB43FC01B2
:10029E0053FCF90203E2EF25E025E0FEC3741F9E36
:1002AE00F5FB53FCF8C3741E9EF5FB43FC0153FC97
:1002BE00F9C3741D9EF5FB75FC0E020757EF25E082
:1002CE0025E0FEC3741F9EF5FB43FC07C3741E9E00
:1002DE00F5FB43FC0153FCF9020666EF25E025E031
:1002EE00FEC3741F9EF5FB43FC07C3741E9EF5FBF5
:1002FE0043FC0153FCF9C3741D9EF5FBE4F5FC02AF
:10030E00087BEF25E025E0FEC3741F9EF5FB43FC42
:10031E000553FCFDC3741E9EF5FB43FC0153FCF913
:10032E0002063FEF25E025E0FEC3741F9EF5FB435A
:10033E00FC07C3741E9EF5FB53FCF8C3741D9EF59B
:10034E00FBE4F5FC02082DEF25E025E0FEC3741F4B
:10035E009EF5FB53FCF8C3741E9EF5FB43FC015344
:10036E00FCF9C3741D9EF5FB75FC0E02094EEF25BC
:10037E00E025E0FEC3741F9EF5FB43FC0453FCFC1A
:10038E00C3741E9EF5FB53FCF8C3741D9EF5FB75DE
:10039E00FC08020757EF25E025E0FEC3741F9EF50B
:1003AE00FB43FC07C3741E9EF5FB53FCF8C3741D80
:1003BE009EF5FB75FC010207FCEF25E025E0FEC370
:1003CE00741F9EF5FB43FC0553FCFDC3741E9EF586
:1003DE00FB53FCF8C3741D9EF5FB75FC0802094E19
:1003EE00EF25E025E0FEC3741F9EF5FB43FC05538D
:1003FE00FCFDC3741E9EF5FB43FC0253FCFAC37452
:10040E001D9EF5FB75FC05020757EF25E025E0FE66
:10041E00C3741F9EF5FB43FC0553FCFDC3741E9E67
:10042E00F5FB43FC0153FCF9C3741D9EF5FBE4F58B
:10043E00FC020757EF25E025E0FEC3741F9EF5FB77
:10044E0043FC0553FCFDC3741E9EF5FB43FC015398
:10045E00FCF9C3741D9EF5FB75FC08020757EF25CA
:10046E00E025E0FEC3741F9EF5FB43FC07C3741E1C
:10047E009EF5FB43FC0153FCF9C3741D9EF5FBE492
:10048E00F5FC0206BDEF25E025E0FEC3741F9EF5C8
:10049E00FB43FC0553FCFDC3741E9EF5FB43FC01A0
:1004AE0053FCF9C3741D9EF5FB75FC0802055DEF48
:1004BE0025E025E0FEC3741F9EF5FB43FC07C374C5
:1004CE001E9EF5FB43FC0153FCF9C3741D9EF5FB08
:1004DE00E4F5FCC3741C9EF5FB75FC0722EF25E0CA
:1004EE0025E0FEC3741F9EF5FB53FCF8C3741E9EDD
:1004FE00F5FB43FC0153FCF9C3741D9EF5FB75FC23
:10050E000602094EEF25E025E0FEC3741F9EF5FBA3
:10051E0043FC0553FCFDC3741E9EF5FB53FCF8C350
:10052E00741D9EF5FB75FC08020757EF25E025E0CC
:10053E00FEC3741F9EF5FB53FCF8C3741E9EF5FBA1
:10054E0043FC0253FCFAC3741D9EF5FBE4F5FCC399
:10055E00741C9EF5FB75FC0D22EF25E025E0FEC315
:10056E00741F9EF5FB43FC0553FCFDC3741E9EF5E4
:10057E00FB53FCF8C3741D9EF5FB75FC0E0207576A
:10058E00EF25E025E0FEC3741F9EF5FB53FCF8C378
:10059E00741E9EF5FB43FC0653FCFE020779EF2505
:1005AE00E025E0FEC3741F9EF5FB43FC0353FCFBEA
:1005BE00C3741E9EF5FB53FCF8C3741D9EF5FB75AC
:1005CE00FC0802082DEF25E025E0FEC3741F9EF502
:1005DE00FB43FC0253FCFAC3741E9EF5FB43FC0561
:1005EE0053FCFDC3741D9EF5FB75FC0902087BEFE1
:1005FE0025E025E0FEC3741F9EF5FB43FC0653FC6D
:10060E00FEC3741E9EF5FB43FC0153FCF9C3741D1F
:10061E009EF5FB75FC0802082DEF25E025E0FEC3D4
:10062E00741F9EF5FB43FC07C3741E9EF5FB53FC23
:10063E00F8C3741D9EF5FB75FC080207FCEF25E060
:10064E0025E0FEC3741F9EF5FB43FC0653FCFEC360
:10065E00741E9EF5FB53FCF8C3741D9EF5FB75FCD2
:10066E000802087BEF25E025E0FEC3741F9EF5FB14
:10067E0043FC0653FCFEC3741E9EF5FB53FCF8C3ED
:10068E00741D9EF5FB75FC0802082DEF25E025E094
:10069E00FEC3741F9EF5FB43FC07C3741E9EF5FB41
:1006AE0043FC0153FCF9C3741D9EF5FB75FC08C396
:1006BE00741C9EF5FB75FC0322EF25E025E0FEC3BE
:1006CE00741F9EF5FB43FC07C3741E9EF5FB43FC93
:1006DE000153FCF9C3741D9EF5FBE4F5FC02094EB3
:1006EE00EF25E025E0FEC3741F9EF5FB43FC07C318
:1006FE00741E9EF5FB53FCF8C3741D9EF5FBE4F5CA
:10070E00FC0207FCEF25E025E0FEC3741F9EF5FBFF
:10071E0053FCF8C3741E9EF5FB53FCF8C3741D9E68
:10072E00F5FB75FC0602094EEF25E025E0FEC374CD
:10073E001F9EF5FB53FCF8C3741E9EF5FB53FCF88D
:10074E00C3741D9EF5FB75FC08C3741C9EF5FB75EA
:10075E00FC0922EF25E025E0FEC3741F9EF5FB4346
:10076E00FC07C3741E9EF5FB53FCF8C3741D9EF567
:10077E00FB75FC01C3741C9EF5FB75FC0422EF2572
:10078E00E025E0FEC3741F9EF5FB43FC0653FCFE02
:10079E00C3741E9EF5FB53FCF8C3741D9EF5FB75CA
:1007AE00FC04804AEF25E025E0FEC3741F9EF5FB96
:1007BE0043FC0653FCFEC3741E9EF5FB53FCF8C3AC
:1007CE00741D9EF5FBE4F5FC8024EF25E025E0FE8C
:1007DE00C3741F9EF5FB43FC0653FCFEC3741E9EA2
:1007EE00F5FB53FCF8C3741D9EF5FB75FC08C37432
:1007FE001C9EF5FB75FC0A22EF25E025E0FEC37476
:10080E001F9EF5FB43FC0353FCFBC3741E9EF5FBBE
:10081E0043FC0153FCF9C3741D9EF5FBE4F5FCC3C8
:10082E00741C9EF5FB75FC0B22EF25E025E0FEC344
:10083E00741F9EF5FB53FCF8C3741E9EF5FB53FC10
:10084E00F8C3741D9EF5FB75FC048021EF25E02591
:10085E00E0FEC3741F9EF5FB43FC07C3741E9EF59A
:10086E00FB53FCF8C3741D9EF5FB75FC08C3741C8A
:10087E009EF5FB75FC0222EF25E025E0FEC3741FFA
:10088E009EF5FB43FC0453FCFCC3741E9EF5FB5308
:10089E00FCF8C3741D9EF5FB75FC08804FEF25E038
:1008AE0025E0FEC3741F9EF5FB53FCF8C3741E9E19
:1008BE00F5FB53FCF8C3741D9EF5FBE4F5FCC37405
:1008CE001C9EF5FB75FC0C22EF25E025E0FEC374A3
:1008DE001F9EF5FB43FC0453FCFCC3741E9EF5FBEC
:1008EE0053FCF8C3741D9EF5FB75FC0CC3741C9E63
:1008FE00F5FB75FC0822EF25E025E0FEC3741F9E74
:10090E00F5FB53FCF8C3741E9EF5FB43FC0253FC2F
:10091E00FAC3741D9EF5FB75FC058024EF25E025BA
:10092E00E0FEC3741F9EF5FB53FCF8C3741E9EF5C8
:10093E00FB43FC0553FCFDC3741D9EF5FB75FC09C2
:0A094E00C3741C9EF5FBE4F5FC22C7
:0B25C200900018EBF0A3EAF0A3E9F092
:1025CD00E4A3F0FFC200E94A7003022663900018ED
:1025DD00E0FBA3E0FAA3E0F91232B8EFC394084090
:1025ED002EE490001BF090001BE0FF900018E0FB24
:1025FD00A3E0FAA3E0F98F82758300121124FD1276
:10260D00005E90001BE004F0E0C3940840D822E483
:10261D0090001BF090001BE0FFC394085038200081
:10262D0023900018E0FBA3E0FAA3E0F98F827583F5
:10263D0000121124FD60028012D20090001BE0FFF9
:10264D007D20800790001BE0FF7D2012005E900032
:06265D001BE004F080BE4A
:012663002254
:0827FF004100A0004100A1000F
:1030D30012301A5389F75389FB5389FD43890190B1
:1030E30000A074FCF0A37466F0758CFCF58AD2A979
:0330F300D28C225A
:10301A009000977401F0E4900099F090009BF09072
:10302A00009DF0A3F0900098F090009AF090009C18
:06303A00F090009FF0225F
:03000B0002289335
:10289300C0E0C0F0C083C082C0D075D000C000C00B
:1028A300069000A0E0F58CA3E0F58A900097E00481
:1028B300F0C394054005E4F0A304F0900099E0040C
:1028C300F0C3940A4005E4F0A304F090009BE004F5
:1028D300F0C394644005E4F0A304F090009DE47514
:1028E300F0011211A6FEC3E5F094E8EE9403400A4A
:1028F30090009DE4F0A3F0A304F0D006D000D0D064
:09290300D082D083D0F0D0E03284
:102E8500E47815F60876030876FF0876030876FFDA
:102E950043E101F5E853B1FE53B2FE53B1FD53B220
:102EA500FD43F60143F60253E1BF43E12053E1EF51
:032EB500D2AE2278
:10313A007815E6600DE4F6C2EBC2EAC2E9C2E8D24B
:10314A00EE2278157601C2EBC2EAC2E9D2E8D2EEE3
:01315A002252
:0934DB0053B1DF43B2200235D1E8
:0335D100C285228E
:0335D400D285227B
:0335D700B2852298
:0934E40053B1BF43B2400235DDD3
:0335DA00C2862284
:0335DD00D2862271
:1030AF000A6D679C46F6375D4521EFAC5A50010B10
:1030BF00DF020A6D679C46F6375D4521EFAC5A502B
:0430CF00E10BDF0230
:082807004500A9CCCCCCCCCCDF
:1032F50053B1EF43B21053ACEF43AD1053ACDF43C2
:03330500AD2022D6
:0135E30022C5
:10319C00E4FEC284EF30E704D2838002C283EF25C1
:0C31AC00E0FFD284000EEEB408E8C284FC
:0131B80022F4
:04330800E4FD7FFC65
:0F330C00C2B40012319CAF0512319C00D2B42222
:0A2D10007B019000187405F07F3F6E
:0B2D1A00900015EBF0A3EAF0A3E9F035
:102D2500C2B4E4FD12319C900018E0FFEDC39F5042
:102D35001A900015E0FBA3E0FAA3E0F98D827583F4
:0D2D450000121124FF12319C0D80DCD2B46D
:012D5200225E
:1030F600E4FEC284EF30E704D2838002C283EF2568
:10310600E0FFD284000EEEB408E843B10853B2F7EC
:02311600C28471
:013118002294
:10325B00E4FFFEC284EF25E0FFD2843083034401F8
:08326B00FF0EEEB408EDC28471
:013273002238
:10331B00C2B4001230F612325B53B1F743B208005D
:02332B00D2B41A
:01332D00227D
:0B2D9600900003EBF0A3EAF0A3E9F0CB
:102DA100C2B41230F6E4FD900006E0FFEDC39F507F
:102DB1001A12325B900003E0FBA3E0FAA3E0F98D65
:102DC10082758300EF1211840D80DC53B1F743B299
:032DD10008D2B471
:012DD40022DC
:0F3426001233087D8E7F2012330C00000000222D
:10304000E4FEFD7FFC12330C7D8F7F2012330CE4F5
:10305000FD7FFD12330CE4FEFF000FBF00010EBE2A
:0530600007F7BFD0F4EA
:013065002248
:0A34A4007F0712331BEF5470FF2264
:0635C4007F0912331B22F7
:073599007D707F2702330C57
:0C348300E4FD7FE112330C7FE202330C09
:0E344300AC07123308AF04AD077F2502330C2F
:062D53001234A4EF703CF5
:102D5900900002F0A3F0900018EDF07FA0122D1A58
:102D6900E4FD7FFD12330CE4900002F0A3F0009023
:102D79000003E004F07006900002E004F090000205
:0C2D8900E07004A3E064C870E512330899
:012D9500221B
:102FA000AC051234A4EF30E61D123308900006EC95
:102FB000F07F61122D96123483123599E4FD7FFD66
:092FC00012330C7F01227F002274
:101F7B0078027C007D017BFF7A3079AF7E007F0594
:101F8B001210E578077C007D017BFF7A3079B47EF7
:101F9B00007F031210E5780A7C007D017BFF7A300D
:101FAB0079B77E007F061210E578107C007D017BEF
:101FBB00FF7A3079BD7E007F011210E578117C002D
:101FCB007D017BFF7A3079BE7E007F031210E51214
:101FDB0035E37D5A7F5312330C7DA57F5312330C9F
:101FEB007D207F3D12330C1233087FE112330C7FBF
:101FFB00E212330C7D707F2712330C7D017F22128E
:10200B00330C7D037F2312330C7D4E7F2512330C53
:10201B007D107F3112330C7B017A0079A990001867
:10202B007405F07F30122D1A7B017A0079A990008C
:10203B00187405F07F2A122D1A7A007902122D10CE
:10204B007B017A00790A9000187406F07F3A122D02
:10205B001A7B017A0079109000187401F07F391205
:10206B002D1A7B017A0079079000187403F07F3EDC
:10207B00122D1A7B017A0079119000187403F07FEE
:10208B003B122D1AE4FD7F3C12330C7D3F7F261251
:0E209B00330CE4FD7F2412330C7F2102330C42
:05229F00900040EFF08B
:1022A400E478417C007D017BFF7A3079C1FE7F05B3
:1022B4001210E578467C007D017BFF7A3079C67E7A
:1022C400007F031210E578497C007D017BFF7A30A2
:1022D40079C97E007F061210E5784F7C007D017B72
:1022E400FF7A3079CF7E007F011210E578507C00B0
:1022F4007D017BFF7A3079D07E007F031210E57D6B
:102304005A7F5312330C7DA57F5312330C7D207FEB
:102314003D12330C123308E4FF000000000FEFB449
:10232400DCF7900040E0FD7F2512330C7D3F7F26D3
:1023340012330C7A007941122D107B017A0079490D
:102344009000187406F07F3A122D1A7B017A0079F6
:102354004F9000187401F07F39122D1A7B017A0016
:1023640079469000187403F07F3E122D1A7B017A8F
:0E2374000079509000187403F07F3B022D1A80
:101E3600EF14604414606F147003021ED51470030F
:101E4600021F1124046003021F75A2AF9209C2AFDC
:101E560075C7AA75C755439780A20992AFA2AF92DC
:101E660009C2AF75C7AA75C7555397BFA20992AFE6
:101E7600E59630E7FB021F3CA2AF9209C2AF75C7D9
:101E8600AA75C75553977FA20992AFA2AF9209C20E
:101E9600AF75C7AA75C755439740A20992AFE59695
:101EA60030E6FB021F3CA2AF9209C2AF75C7AA7506
:101EB600C755439720A20992AFE59630E5FBA2AF3E
:101EC6009209C2AF75C7AA75C7555396FB8027A25C
:101ED600AF9209C2AF75C7AA75C755439710A20935
:101EE60092AFE59630E4FBA2AF9209C2AF75C7AADE
:101EF60075C755439604A20992AFA2AF9209C2AF25
:101F060075C7AA75C7555396FD804DA2AF9209C2F3
:101F1600AF75C7AA75C75553977FA20992AFA2AFEF
:101F26009209C2AF75C7AA75C7555397BFA2099242
:101F3600AFE59630E3FBA2AF9209C2AF75C7AA75AB
:101F4600C7555396FBA20992AFA2AF9209C2AF75CD
:101F5600C7AA75C755439602A20992AFA2AF9209C6
:101F6600C2AF75C7AA75C7555396FEA20992AFE5CB
:051F76009720E0FB22B2
:102FC90075985243892053877F538EEF53C4DFABE3
:102FD90007AA06A905A804E47F807E70FDFC1212E9
:092FE900AAEFF404F58DD28E224A
:102FF200759852438920438780538EEF53C4DFABC9
:1030020007AA06A905A804E4FF7EE1FDFC1212AAA4
:08301200EFF404F58DD28E22CB
:102F4C0075985243892053877F438E1053C4DFAB4F
:102F5C0007AA06A905A8047F007E467D057C001201
:0A2F6C0012AAEFF404F58DD28E22B4
:102F7600759852438920438780438E1053C4DFAB34
:102F860007AA06A905A8047F007E8C7D0A7C00128C
:0A2F960012AAEFF404F58DD28E228A
:102973009000AE12136075985253877F53C4F84387
:10298300C4209000AEE0F8A3E0F9A3E0FAA3E0FBD3
:102993007F007E467D057C001212AAC3E49FFFE4FC
:1029A3009EFE74019DFDE49CFC780812134D8FC6B6
:1029B3009000AEE0F8A3E0F9A3E0FAA3E0FB7F0008
:1029C3007E467D057C001212AAC3E49FFF8FC54398
:0329D300C4082213
:1029D6009000B212136075985243878053C4F8432F
:1029E600C4209000B2E0F8A3E0F9A3E0FAA3E0FB6C
:1029F6007F007E8C7D0A7C001212AAC3E49FFFE44E
:102A06009EFE74019DFDE49CFC780812134D8FC652
:102A16009000B2E0F8A3E0F9A3E0FAA3E0FB7F00A0
:102A26007E8C7D0A7C001212AAC3E49FFF8FC543E9
:032A3600C40822AF
:102AF9009000B612136075F85253C4F89000B6E00E
:102B0900F8A3E0F9A3E0FAA3E0FB7F007E8C7D0A3D
:102B19007C001212AAC3E49FFFE49EFE74019DFD8E
:102B2900E49CFC780812134D8FC69000B6E0F8A318
:102B3900E0F9A3E0FAA3E0FB7F007E8C7D0A7C002C
:0D2B49001212AAC3E49FFF8FC543C40822E7
:0734ED003098FDAF99C29871
:0134F40022B5
:0834F500C2998F993099FD2264
:0734FD0030F8FDAF9AC2F8A0
:0135040022A4
:08350500C2F98F9A30F9FD2292
:10322700E4F5B1F5B2F5B3F5B4F5B5F5B6F5ACF52A
:0A323700ADF5DAF5DBF5DCF5DD227C
:10317C0075B1FFE4F5B275B3FFF5B475B5FFF5B6EF
:10318C0075ACFFF5AD75DAFFF5DB75DCFFF5DD220F
:1032410075C7AA75C755A2AF9209C2AF75C7AA754E
:0A325100C755439F80A20992AF22E7
:0435CA0043AD80226B
:102E1200EF640A701C30F811E59AB4130CC2F83052
:102E2200F8FDE59AB411F6C2F830F9FDC2F9759AC7
:102E32000D30F811E59AB4130CC2F830F8FDE59A9A
:0D2E4200B411F6C2F830F9FDC2F98F9A22E2
:0628100090FFF81213E92D
:10281600850D83850E8212136C00000000E47FFF95
:102826007EFFFDFC850D83850E82E0F8A3E0F9A30B
:10283600E0FAA3E0FBC312133C504C9000041214C0
:102846000DE0FCA3E0FDA3E0FEA3E02401FFE43ECF
:10285600FEE43DFDE43CFC90000412140D121360EE
:10286600850D83850E82E0FCA3E0FDA3E0FEA3E0D8
:102876002401FFE43EFEE43DFDE43CFC850D83853A
:072886000E82121360809620
:06288D009000080213E9AF
:10315B00538EF7438901D28CEF4E6012758AF77547
:10316B008CFF308DFDC28DEF1F70ED1E80EAC28C7F
:01317B002231
:102C0D009000BA121360538EF7438901D28CE4FF02
:102C1D00FEFDFC9000BAE0F8A3E0F9A3E0FAA3E012
:102C2D00FBC312133C602F758A65758CFC308DFDCE
:102C3D00C28D9000BAE0FCA3E0FDA3E0FEA3E0246A
:102C4D00FFFFEE34FFFEED34FFFDEC34FFFC900092
:092C5D00BA12136080B8C28C2287
:102C66009000BE121360538EEF438910D28EE4FF9C
:102C7600FEFDFC9000BEE0F8A3E0F9A3E0FAA3E0B5
:102C8600FBC312133C602F758B65758DFC308FFD71
:102C9600C28F9000BEE0FCA3E0FDA3E0FEA3E0240B
:102CA600FFFFEE34FFFEED34FFFDEC34FFFC900039
:092CB600BE12136080B8C28E2228
:102BB2009000C212136075C40243C408E4FFFEFD14
:102BC200FC9000C2E0F8A3E0F9A3E0FAA3E0FBC3A3
:102BD20012133C603275C53375C6F5E5C430E4FBAB
:102BE20053C4EF9000C2E0FCA3E0FDA3E0FEA3E02B
:102BF20024FFFFEE34FFFEED34FFFDEC34FFFC90CA
:0B2C020000C212136080B553C4F7221B
:102A39009000C6121360538FFB538FFD538FFEE432
:102A4900F586538FDF438F08E4FFFEFDFC9000C637
:102A5900E0F8A3E0F9A3E0FAA3E0FBC312133C609A
:102A69002CE58F30E4FB538FEF9000C6E0FCA3E028
:102A7900FDA3E0FEA3E024FFFFEE34FFFEED34FFEB
:102A8900FDEC34FFFC9000C612136080BB538FF736
:012A9900221A
:1020A9000A3D3D3D3D3D3D3D3D3D3D3D3D3D3D3D8A
:1020B9003D3D3D3D3D3D3D3D3D3D3D3D3D3D3D3D47
:1020C9003D3D3D3D3D3D3D3D3D3D3D3D3D3D3D3D37
:1020D9003D3D3D3D3D3D3D3D3D3D3D3D3D3D3D3D27
:1020E9003D3D3D3D3D000A2A2020436F70797269CC
:1020F9006768742863292032303135204E75766F30
:10210900746F6E20546563686E6F6C6F67792043D6
:102119006F72702E20416C6C20726967687473202D
:1021290072657365727665642E2020000A2A202064
:10213900436F6E7461637420452D4D61696C3A205B
:102149004D6963726F432D38626974406E75766F9D
:10215900746F6E2E636F6D20202020202020202098
:102169002020202020202020202020202020202066
:1021790020000A2A202044656D6F20566572736914
:102189006F6E20203A202532642E2532642E2532A6
:1021990064000A2A202046696E69736865642044D0
:1021A900617465203A202532642E2532642E253249
:0221B9006400C0
:102A9A007BFF7A2079A91219E87BFF7A2079EF1255
:102AAA0019E87BFF7A2179351219E87BFF7A2179B7
:102ABA007B90001BE4F0A304F0E4A3F0A3F0A3F0DE
:102ACA00A3F01219E87BFF7A21799B90001B740707
:102ADA00F0A374DFF0A3E4F0A37405F0A3E4F0A379
:0F2AEA00741FF01219E87BFF7A2079A90219E80E
:0300000002266471
:10266400787FE4F6D8FD9000007FFF7E01E4F0A3BC
:0A267400DFFCDEFA7581BD0226B915
:10267E000226FEE493A3F8E493A34003F68001F24E
:10268E0008DFF48029E493A3F85407240CC8C3335D
:10269E00C4540F4420C8834004F456800146F6DF2C
:1026AE00E4800B010204081020408090278DE47E08
:1026BE00019360BCA3FF543F30E509541FFEE49321
:1026CE00A360010ECF54C025E060A840B8E493A3E8
:1026DE00FAE493A3F8E493A3C8C582C8CAC583CA13
:1026EE00F0A3C8C582C8CAC583CADFE9DEE780BECB
:01280F0000C8
:10101500E709F608DFFA8046E709F208DFFA803EBD
:1010250088828C83E709F0A3DFFA8032E309F608AA
:10103500DFFA8078E309F208DFFA807088828C8312
:10104500E309F0A3DFFA806489828A83E0A3F608C6
:10105500DFFA805889828A83E0A3F208DFFA804CA0
:1010650080D280FA80C680D4806980F28033801077
:1010750080A680EA809A80A880DA80E280CA8033E0
:1010850089828A83ECFAE493A3C8C582C8CCC58358
:10109500CCF0A3C8C582C8CCC583CCDFE9DEE78028
:1010A5000D89828A83E493A3F608DFF9ECFAA9F0A7
:1010B500EDFB2289828A83ECFAE0A3C8C582C8CCFD
:1010C500C583CCF0A3C8C582C8CCC583CCDFEADE16
:1010D500E880DB89828A83E493A3F208DFF980CC78
:1010E50088F0EF60010E4E60C388F0ED2402B40471
:1010F5000050B9F582EB2402B4040050AF23234518
:06110500822390106573C7
:10110B00BB010689828A83E0225002E722BBFE02E2
:09111B00E32289828A83E4932215
:10112400BB010CE58229F582E5833AF583E0225080
:1011340006E92582F8E622BBFE06E92582F8E222CA
:0D114400E58229F582E5833AF583E49322E4
:10115100BB010FF8E58229F582E5833AF583E028A2
:10116100F0225009C58229F8E58226F622BBFE0944
:10117100C58229F8E22582F222F8EA2583F583E97E
:031181009328228E
:10118400F8BB010DE58229F582E5833AF583E8F0A1
:10119400225006E92582C8F622BBFE05E92582C84D
:0211A400F22235
:1011A600C5F0F8A3E028F0C5F0F8E58215827002D4
:0611B6001583E038F02271
:1011BC00BB0110E58229F582E5833AF583E0F5F071
:1011CC00A3E0225009E92582F886F008E622BBFE4E
:1011DC000AE92582F8E2F5F008E222E5832AF58394
:0811EC00E993F5F0A3E9932259
:1011F400BB010DC58229C582C5833AC5830211A6E8
:101204005011C58229F808E5F026F618F5F0E582B4
:1012140036F622BBFE11C58229F808E225F0F5F066
:10122400F218E23582F222F8E58229F582E5832A72
:0D123400F58374019325F0F5F0E493382262
:10124100F8BB0111E58229F582E5833AF583E8F0DF
:10125100E5F0A3F0225009E92582C8F608A6F0229C
:0D126100BBFE09E92582C8F2E5F008F22283
:10126E0075F008758200EF2FFFEE33FECD33CDCC37
:10127E0033CCC58233C5829BED9AEC99E5829840BA
:10128E000CF582EE9BFEED9AFDEC99FC0FD5F0D697
:10129E00E4CEFBE4CDFAE4CCF9A88222B800C1B9C1
:1012AE000059BA002DEC8BF084CFCECDFCE5F0CBFF
:1012BE00F97818EF2FFFEE33FEED33FDEC33FCEB38
:1012CE0033FB10D703994004EB99FB0FD8E5E4F9F3
:1012DE00FA227818EF2FFFEE33FEED33FDEC33FCE0
:1012EE00C933C910D7059BE99A4007EC9BFCE99AD4
:1012FE00F90FD8E0E4C9FAE4CCFB2275F010EF2F19
:10130E00FFEE33FEED33FDCC33CCC833C810D70718
:10131E009BEC9AE899400AED9BFDEC9AFCE899F853
:0E132E000FD5F0DAE4CDFBE4CCFAE4C8F922E6
:10133C00EB9FF5F0EA9E42F0E99D42F0E89C45F007
:01134C00227E
:10134D00E8600FECC313FCED13FDEE13FEEF13FF7E
:03135D00D8F122A2
:0C136000ECF0A3EDF0A3EEF0A3EFF02200
:10136C00A8828583F0D083D0821213831213831248
:10137C001383121383E473E493A3C583C5F0C5836D
:10138C00C8C582C8F0A3C583C5F0C583C8C582C8CB
:01139C00222E
:10139D00BB010789828A8302154A5005E9F80215B7
:1013AD0041BBFE05E9F802157389828A8302157C1B
:1013BD00D083D082F8E4937012740193700DA3A3BF
:1013CD0093F8740193F5828883E4737402936860D3
:0613DD00EFA3A3A380DFD3
:0613E3008A838982E47395
:1013E900E50E2582F582E50D3583F583B50D048576
:1013F900820E2210AF0685820EF50D2285820EF52A
:041409000DD2AF222F
:0D140D00E50E2582F582E50D3583F583227D
:10197D00E508241BF582E43400F583E00508229088
:10198D00001830070390001BE475F0011215530287
:10199D00110B2000E97F2ED2008018EF540F2490F8
:1019AD00D43440D4FF30040BEF24BFB41A005003DD
:1019BD002461FFE50960021509050CE50C700205AF
:1019CD000B30070E900018E475F001121553EF025D
:1019DD00152F022E127403D2078003E4C207F508F7
:1019ED0090001812156AE4F509F50BF50CE5096080
:1019FD00077F201219C080F5750AFFC201C200C20F
:101A0D0002C203C205C206C20812198CFF700D3046
:101A1D0007057F001219D1AF0CAE0B22B4255FC2A2
:101A2D00D5C20412198CFF24D0B40A00501A75F0D7
:101A3D000A780930D50508B6FF0106C6A426F6209A
:101A4D00D5047002D20380D924CFB41A00EF50040C
:101A5D00C2E5D204021BD2D20180C6D20080C0D210
:101A6D000280BCD2D580BAD20580B47F201219C0B5
:101A7D002002077401B5090040F112197DFF1219FA
:101A8D00C00219FAD208D206809512197DFB1219DF
:101A9D007DFA12197DF94A4B700679A37A1C7BFFEA
:101AAD0020022EE509602A7E008E827583001211B8
:101ABD002460060EEE650A70F0C2D5EBC0E0EAC0F8
:101ACD00E0E9C0E0EE121C19D0E0F9D0E0FAD0E068
:101ADD00FB12110BFF60AAEBC0E0EAC0E0E9C0E029
:101AED001219C0D0E02401F9D0E03400FAD0E0FBA7
:101AFD00E50A0460DCD50AD980877BFF7A1C79154D
:101B0D00D202809C791080027908C206C208800832
:101B1D00D2D5790A8004790AC2D5E50A047002F596
:101B2D000AE4FAFDFEFF12197DFC7B082001131259
:101B3D00197DFD7B1030000A12197DFE12197DFFF3
:101B4D007B20EC3382D592D55013C3E43000069F31
:101B5D00FFE49EFEE42001039DFDE49CFCE4CBF834
:101B6D00C201EC700CCFCECDCCE824F8F870F38028
:101B7D0017C3EF33FFEE33FEED33FDEC33FCEB33E8
:101B8D00FB994002FB0FD8E9EB300105F8D0E0C41A
:101B9D0048B201C0E00AEC4D4E4F78207B0070C278
:101BAD00EAB50A0040BCC0E0121C1BD0F0D0E0200A
:101BBD000104C4C0E0C4B201C0F01219A9D0F0D51F
:101BCD00F0EB0219FA1213BD1A97531B11581A682C
:101BDD004C1A64421B154F1B1D441B1D491A7D4396
:081BED001B23551B07461B07D3
:101BF500451B07471CC3501A6C2D1A702E1A932BC0
:101C05001A74231A91201CAC2A1A2C4800001A8B2E
:101C15003F3F3F00790AA2D5200314300509B910CA
:101C2500020404B9080104A2D520060250010420CB
:101C350002689202B509005034C0E07F20300319D4
:101C45007F30A20272067205500F121C72C202C2C8
:101C550006C205C2087F30800F300503E9C0E012D7
:101C650019C0300503D0E0F9D0E0B509CC3005172F
:101C75007F30B9100C1219C07F583004077F788067
:101C850003B908031219C03002057F2D0219C07F60
:101C9500202008F87F2B2006F322920280CF286EA1
:101CA500756C6C2900D20112197D3001F8C20178DA
:101CB5000930D50108F6021A2C2D5043495812193E
:101CC5007D2403B405004001E4901CBE931219B1B4
:0D1CD500743A1219B1D203750904021B11F3
:10141A00E709F60870FA8046E709F20870FA803E92
:10142A0088828C83E709F0A370FA807EE309F608C4
:10143A0070FA8076E309F20870FA806E88828C83EB
:10144A00E309F0A370FA806289828A83E0A3F6082E
:10145A0070FA805689828A83E0A3F20870FA804A79
:10146A0080D280FA80C680D4806580F28031801074
:10147A0080A680EA809A80A880DA80E280CA8031D9
:10148A0089828A83ECFAE493A3C8C582C8CCC5834F
:10149A00CCF0A3C8C582C8CCC583CC70E9800D89BD
:1014AA00828A83E493A3F60870F9ECFAA9F0EDFBBB
:1014BA002289828A83ECFAE0A3C8C582C8CCC58394
:1014CA00CCF0A3C8C582C8CCC583CC70EA80DD89BC
:1014DA00828A83E493A3F20870F980CE88F0ED241F
:1014EA0002B4040050C4F582EB2402B4040050BADA
:0914FA00232345822390146A7338
:1032B800E4FFFE12110B600C0FEF70010E09E970AC
:0532C800F20A80EF2274
:10150300EF4E6012EF60010EEDBB010B89828A83FF
:10151300F0A3DFFCDEFA2289F05007F709DFFCA90C
:0C152300F022BBFEFCF309DFFCA9F02263
:10152F00BB010689828A83F0225002F722BBFE019B
:02153F00F32295
:09154100E6FB08E6FA08E6F922CF
:09154A00E0FBA3E0FAA3E0F922A2
:10155300F8E0FBA3A3E0F925F0F0E5821582700221
:071563001583E0FA38F022C5
:09156A00EBF0A3EAF0A3E9F02282
:09157300E2FB08E2FA08E2F922A9
:0C157C00E493FB740193FA740293F922CB
:00000001FF
