:042EF7004100C200D4
:03005B00023372FB
:10337200C0E0C0D075D000C000C001C005C006C00A
:1033820007C2EFAFC37816E6FD25E02417F87600F2
:1033920008A607ED25E02417F8C000F9E7FE09E7C3
:1033A2007802C333CE33CED8F9D000A60608F6EDA4
:1033B20025E02417F8AFC2E6F6EF0846F6D007D0AC
:0C33C20006D005D001D000D0D0D0E03201
:103057007F02122459123ABC12394C123BA9123B77
:103067008190008AE06005E4F0123A0190008CE05C
:103077006008E4F0123AD7122DEF90008EE0601D41
:10308700E4900001F090008EF0122B531236489016
:0D30970000C2E004F0E0C394054002E4F044
:1030A400900091E06005E4F0123805123A84900033
:0C30B40000EFF060AFE0FF12146380A892
:042EFB004100C300CF
:05146300900002EFF013
:10146800E4A3F0A3F0900003F0FE7F10FDFB7A00E8
:10147800799D121F05900002E024FEB41900400374
:10148800021A0390149975F003A4C58325F0C58347
:10149800730214E40215450215A1021A030215F796
:1014A80002164D021A030216A30216F9021A0302C3
:1014B800174F0217A5021A030217FB021851021A46
:1014C80003021A030218B1021A03021907021A03C7
:1014D80002195D021A03021A030219B09000C3E050
:1014E8007053900003E0FF04F0749D2FF876F2E04B
:1014F800FF04F0749D2FF87601E0FF04F0749D2F2F
:10150800F87654E4A3F0789EE62401FFE433FE90D5
:101518000004E0FDC39FEE6480F874809850167450
:101528009E2DF8E6FF900003E0249DF8EF26F6A331
:10153800E004F080D1E49000C3F0021A039000C3E5
:101548007401F0900003E0FF04F0749D2FF876F228
:10155800E0FF04F0749D2FF87601E0FF04F0749D1D
:101568002FF87601E4A3F0789EE62401FFE433FE29
:10157800900004E0FDC39FEE6480F87480984003F7
:10158800021A03749E2DF8E6FF900003E0249DF8EC
:10159800EF26F6A3E004F080CE900003E0FF04F00D
:1015A800749D2FF876F2E0FF04F0749D2FF8760111
:1015B800E0FF04F0749D2FF87606E4A3F0789EE629
:1015C8002401FFE433FE900004E0FDC39FEE648035
:1015D800F87480984003021A03749E2DF8E6FF9071
:1015E8000003E0249DF8EF26F6A3E004F080CE90F7
:1015F8000003E0FF04F0749D2FF876F2E0FF04F09A
:10160800749D2FF87601E0FF04F0749D2FF876079B
:10161800E4A3F0789EE62401FFE433FE900004E0A2
:10162800FDC39FEE6480F87480984003021A037427
:101638009E2DF8E6FF900003E0249DF8EF26F6A320
:10164800E004F080CE900003E0FF04F0749D2FF8D2
:1016580076F2E0FF04F0749D2FF87601E0FF04F0C5
:10166800749D2FF87603E4A3F0789EE62401FFE446
:1016780033FE900004E0FDC39FEE6480F874809808
:101688004003021A03749E2DF8E6FF900003E0243D
:101698009DF8EF26F6A3E004F080CE900003E0FF6B
:1016A80004F0749D2FF876F2E0FF04F0749D2FF893
:1016B8007601E0FF04F0749D2FF87603E4A3F07838
:1016C8009EE62401FFE433FE900004E0FDC39FEE94
:1016D8006480F87480984003021A03749E2DF8E61B
:1016E800FF900003E0249DF8EF26F6A3E004F080C5
:1016F800CE900003E0FF04F0749D2FF876F2E0FF2F
:1017080004F0749D2FF87601E0FF04F0749D2FF823
:101718007602E4A3F0789EE62401FFE433FE90000D
:1017280004E0FDC39FEE6480F87480984003021AB9
:1017380003749E2DF8E6FF900003E0249DF8EF2641
:10174800F6A3E004F080CE900003E0FF04F0749D5F
:101758002FF876F2E0FF04F0749D2FF87601E0FF91
:1017680004F0749D2FF87602E4A3F0789EE6240135
:10177800FFE433FE900004E0FDC39FEE6480F8743C
:1017880080984003021A03749E2DF8E6FF90000328
:10179800E0249DF8EF26F6A3E004F080CE90000345
:1017A800E0FF04F0749D2FF876F2E0FF04F0749DDA
:1017B8002FF87601E0FF04F0749D2FF87604E4A377
:1017C800F0789EE62401FFE433FE900004E0FDC3B8
:1017D8009FEE6480F87480984003021A03749E2D6B
:1017E800F8E6FF900003E0249DF8EF26F6A3E00456
:1017F800F080CE900003E0FF04F0749D2FF876F29D
:10180800E0FF04F0749D2FF87601E0FF04F0749D6A
:101818002FF87604E4A3F0789EE62401FFE433FE73
:10182800900004E0FDC39FEE6480F8748098400344
:10183800021A03749E2DF8E6FF900003E0249DF839
:10184800EF26F6A3E004F080CE900003E0FF04F05A
:10185800749D2FF876F2E0FF04F0749D2FF876025D
:10186800E0FF04F0749D2FF87609E0FF04F0749D02
:101878002FF87603E4A3F0789EE62401FFE433FE14
:10188800900004E0FDC39FEE6480F87480984003E4
:10189800021A03749E2DF8E6FF900003E0249DF8D9
:1018A800EF26F6A3E004F080CE900003E0FF04F0FA
:1018B800749D2FF876F2E0FF04F0749D2FF87601FE
:1018C800E0FF04F0749D2FF87605E4A3F0789EE617
:1018D8002401FFE433FE900004E0FDC39FEE648022
:1018E800F87480984003021A03749E2DF8E6FF905E
:1018F8000003E0249DF8EF26F6A3E004F080CE90E4
:101908000003E0FF04F0749D2FF876F2E0FF04F086
:10191800749D2FF87601E0FF04F0749D2FF876058A
:10192800E4A3F0789EE62401FFE433FE900004E08F
:10193800FDC39FEE6480F87480984003021A037414
:101948009E2DF8E6FF900003E0249DF8EF26F6A30D
:10195800E004F080CE900003E0FF04F0749D2FF8BF
:1019680076F2E0FF04F0749D2FF87601E0FF04F0B2
:10197800749D2FF87608E4A3F0789EE62401FFE42E
:1019880033FE900004E0FDC39FEE6480F8748098F5
:101998005069749E2DF8E6FF900003E0249DF8EF4F
:1019A80026F6A3E004F080D1900003E0FF04F07471
:1019B8009D2FF876F2E0FF04F0749D2FF87601E091
:1019C800FF04F0749D2FF876B9E4A3F0789EE6241E
:1019D80001FFE433FE900004E0FDC39FEE6480F84D
:1019E8007480985016749E2DF8E6FF900003E0244A
:1019F8009DF8EF26F6A3E004F080D1900003E060A4
:0E1A08000D04F07B007A00799DE0FD12352E72
:011A160022AD
:093D690020505752204F4646003D
:042EFF004100C400CA
:103B8100E49000C4F0FE7F07FDFB7A00790F121F5D
:043B910005023E22C9
:103805009000C4E004F0E0B40622123B95123D0C92
:10381500123E227BFF7A3D7969122CB37BFF7A3DFC
:0D3825007969E490000FF07D081234DB2279
:013E8F002210
:063E4C00E49000C4F02226
:013E9000220F
:0C3D2600900062EBF0A3EAF0A3E9F022A9
:0C3D3200900065EBF0A3EAF0A3E9F0229A
:103C1C00900062A3E0FAA3E0F94A6003121DE522CA
:103C2C00900065A3E0FAA3E0F94A6003121DE522B7
:1037A100EF4E602D900058EEF0A3EFF0AF05A3ECC3
:1037B100F0A3EFF0AF03A3EAF0A3EFF0E4A3F0A3CB
:1037C100F0A3F0A3F0900057F090005604F0123CE3
:0237D1001C22B8
:103B9500E4900056F0123C2C7B007A007900123D2F
:043BA50026023D3285
:0A3D5500900056E06002D322C32262
:102B5300900056E07003022C0790005AE0FEA3E0B9
:102B6300FF4E7003022C07900057E07035D3EF94AB
:102B730000EE94005003022C0790005EE475F00110
:102B8300121BA8FED3900059E095F0900058E09EE8
:102B93005072123C2CE490005EF0A3F090005704B6
:102BA300F022900057E06401705A90005E75F001C6
:102BB300121BA8FED390005BE095F090005AE09EB4
:102BC300504290005CE0FEA3E0FF9400EE940040CE
:102BD30025900060E475F001121BA8FCD3EF95F07B
:102BE300EE9C5005E4900056F0900056E07007907C
:102BF300005AF0A3F022E490005EF0A3F090005797
:052C0300F0123C1C2250
:1027DE002042415A4F4F4B410020505752204F46F6
:1027EE004600414343204F4E00414343204F46464F
:1027FE000020564F4C202575002020202020202020
:10280E0020002020205041555345002020204D55BA
:10281E00544520002020204E4558542000202020D2
:10282E005052455620002020202053542575005428
:10283E0052202575002050414952494E4700202014
:10284E0050414952454400545753205343414E0082
:10285E002020545753204F4B002020202020257538
:10286E0025303275005343414E4E494E47002020CD
:10287E002020504C41590020202020257525303233
:10288E007500464D202575257500464D2020257571
:10289E00257500464D20202025752575005052497E
:1028AE005245440050414952494E4700504C4159FF
:1028BE00004D5554450000000000000000000000CF
:0628CE0000000000000004
:102F030001AD0010AE000000000000000000000052
:102F13000000000000109D00000000000000000001
:102F230000000000000000500079000000000000D5
:0C2F330000000000000000000000C109C8
:10394C00E478ADF6FE7F10FDFB7A0079AE121F0510
:10395C007E007F107D007B007A00799D121F05127E
:05396C00259E02392632
:10352E00900005EBF0A3EAF0A3E9F0A3EDF0D3943D
:10353E0010503D123CE178AD7601900005E0FBA302
:10354E00E0FAA3E0F990009DEB7008E96582700344
:10355E00EA6583601B900008E0FF7E00789D7C008A
:10356E007D00900005E0FBA3E0FAA3E0F9121AE754
:01357E00222A
:103B40007810E67BFF30E1067A2779DE80047A2759
:063B500079E7122CB322FC
:103B56007810E67BFF30E0067A2779F080047A2732
:063B660079F7122CB322D6
:10357F00780B7C007D017BFF7A2879C47E007F1059
:10358F00121AE7123E29123E3790001E74FFF0A365
:10359F007427F0A374FFF07811E6FFA3E4F0A3EF14
:1035AF00F07B017A00790B1220057B017A00790BF1
:0335BF00022CB328
:0F3C3C007BFF7A287907122CB3123E29023E37FC
:093D72007BFF7A287910022CB3C2
:093D7B007BFF7A287919022CB3B0
:0F3C4B007BFF7A287910122CB3123E29023E37E4
:0F3C5A007BFF7A287922122CB3123E29023E37C3
:0F3C69007BFF7A28792B122CB3123E29023E37AB
:10373B0090001E74FFF0A37428F0A37434F0781378
:10374B00E6FFA3E4F0A3EFF07B017A007979122076
:10375B00057B017A007979122CB3123E0D123E29AA
:03376B00023E3EDD
:1037D30090001E74FFF0A37428F0A3743DF07814D6
:1037E300E6FF08E6A3CFF0A3EFF07B017A00797937
:1037F3001220057B017A007979122CB3123E29023B
:023803003E374E
:0F3C78007B017A007979122CB3123E29023E3774
:0F3C87007BFF7A287907122CB3123E29023E37B1
:0B005E00900003EBF0A3EAF0A3E9F030
:10006900E4A3F0A3F0A3F0121B0D64F86003020BE4
:1000790068900003E0FBA3E0FAA3E0F99000011205
:100089001B26D394104003020B68E4900006F090FD
:100099000003E0FBA3E0FAA3E0F9900001121B269C
:1000A9002401FFE433FE900006E0FDC39FEE648067
:1000B900F8748098501DED2401FFE433FE8F828E81
:1000C90083121B26FF900008E02FF0900006E00441
:1000D900F080BC900003E0FBA3E0FAA3E0F99000F4
:1000E90001121B26F582758300A3A3121B26FF901C
:1000F9000008E06F6003020B687E007F107D007BC3
:10010900007A00799D121F05E4900007F0123E4C19
:10011900900003E0FBA3E0FAA3E0F9900002121BB0
:1001290026121DBF08420109BC020A130308C109AE
:1001390002343102C13303DC3405A33506B3360773
:100149004B37080D380A6E410906B9015BE000001A
:020159000B6039
:10015B007E007F027D007B017A007909121F051258
:10016B003DCE123E0D123DD5123DFF123DF1123D1B
:10017B00E3900003E0FBA3E0FAA3E0F99000031285
:10018B001B2624FE600F14601114601324037012DD
:10019B00123DEA800D123DDC8008123E06800312F0
:1001AB003DF87E007F107D007B017A007979121F6C
:1001BB0005900003E0FBA3E0FAA3E02404F9E43A82
:1001CB00FA78797C007D017E007F08121AE77B01AB
:1001DB007A007979123B6CAD077B017A007979E46F
:1001EB0090000FF01234DB900003E0FBA3E0FAA3C6
:1001FB00E0F990000C121B26900009F0A3E030E010
:10020B001D7BFF7A3C7978123D267BFF7A3C798700
:10021B00123D32123D555003020B60020440123D59
:06022B00554003020B60C8
:1002310002051F123B95123E37123E29123E0D1246
:100241003DD5123DFF123DF1123DE3900003E0FB6D
:10025100A3E0FAA3E0F9900003121B2664017025C4
:100261007810E64402F67BFF7A3B7940123D267B0B
:10027100007A007900123D327B017A007D017C0019
:100281007F32020A0F900003E0FBA3E0FAA3E0F93A
:10029100900003121B2664026003020B607810E6D3
:1002A10054FDF67BFF7A3B7940123D267B007A00B4
:1002B1007900123D32E4FBFA7D01FC7F14020998BA
:1002C100900003E0FBA3E0FAA3E0F9900003121B06
:1002D1002624FE7003020393046003020B6078126C
:1002E100E664016007123B9578127601123E0D1209
:1002F1003DD5123DFF123DF1123DEA900003E0FBB6
:10030100A3E0FAA3E0F9900004121B26B4010F90B8
:10031100001E74FFF0A37428F0A37443806790005B
:1003210003E0FBA3E0FAA3E0F9900004121B26B45A
:10033100020F90001E74FFF0A37428F0A3744C8088
:1003410044900003E0FBA3E0FAA3E0F9900004125B
:100351001B26B4030F90001E74FFF0A37428F0A3B2
:1003610074558021900003E0FBA3E0FAA3E0F9902B
:100371000004121B26B4041790001E74FFF0A3742E
:1003810028F0A3745EF07B017A00797912200502CE
:100391000AE7123B95123D0C90001E74FFF0A37406
:1003A10028F0A37467F0900003E0FBA3E0FAA3E058
:1003B100F9900003121B26FF900021E4F0A3EFF057
:1003C100900004121B26FF900023E4F0A3EFF07BC2
:1003D100017A007979122005020B60900003E0FB9D
:1003E100A3E0FAA3E0F9900003121B2624FE605A51
:1003F10014700302050B14700302048514700302C8
:10040100055A24046003020B60900004121B26B4F9
:10041100010302051F900003E0FBA3E0FAA3E0F94A
:10042100900004121B2664026003020B607BFF7ABA
:100431003D7972123D267BFF7A3C793C123D32E4D4
:10044100FBFA7D06FC7F06020998900003E0FBA3FE
:10045100E0FAA3E0F9900004121B266402700F90E9
:10046100001E74FFF0A37428F0A3747380589000E9
:1004710003E0FBA3E0FAA3E0F9900004121B266459
:0404810001020B6009
:10048500123E37123E29123E0D123DD5123DFF1286
:100495003DF1123DE3123DF8900003E0FBA3E0FAC5
:1004A500A3E0F9900004121B2664017022300905AF
:1004B500123B95C20990001E74FFF0A37428F0A3A7
:1004C500747CF07B017A007979122005020AE790A5
:1004D5000003E0FBA3E0FAA3E0F9900004121B2659
:1004E50064026003020B60D2097BFF7A3D797B12BF
:1004F5003D267BFF7A3C793C123D32E4FBFA7D07D1
:03050500FC7F0771
:10050800020998900003E0FBA3E0FAA3E0F9900049
:1005180004121B26B40106123B95020B60900003DF
:10052800E0FBA3E0FAA3E0F9900004121B266402A2
:100538006003020B607BFF7A3C794B123D267BFF00
:100548007A3C793C123D32E4FBFA7D0AFC7F0A02D0
:100558000998900003E0FBA3E0FAA3E0F9900004F7
:10056800121B2664017031E92405F9E43AFA787916
:100578007C007D017E007F08121AE77BFF7A3C79B8
:1005880078123D267BFF7A3C7987123D32E4FBFAEC
:100598007D06FC7F0602099802099C900003E0FB97
:1005A800A3E0FAA3E0F9900003121B2624FE60736F
:1005B80014700302066124FE70030206A42404607A
:1005C80003020B60900004121B26B4011F7BFF7A04
:1005D8003C7969123D267B007A007900123D327B16
:1005E800017A007D017C007F1E020A0F900003E063
:1005F800FBA3E0FAA3E0F9900004121B2664026052
:1006080003020B607BFF7A3C795A123D267B007A05
:10061800007900123D327B017A007D017C007F1E4B
:10062800020A0F123B95900003E0FBA3E0FAA3E057
:10063800F9900005121B267813F67BFF7A37793B71
:10064800123D267B007A007900123D327B017A0048
:100658007D017C007F1E020A0F900003E0FBA3E0EF
:10066800FAA3E0F9900006121B267814760008F623
:10067800900005121B26781446F608E6F67BFF7AEA
:100688003779D3123D267B007A007900123D327B00
:10069800017A007D017C007F1E020A0F900003E0B2
:1006A800FBA3E0FAA3E024040209A87812E6640395
:1006B8006007123B9578127603123E0D123DD51253
:1006C8003DE3123DF1123E06900003E0FBA3E0FA81
:1006D800A3E0F9900003121B26FFD3940990001E93
:1006E80074FF400BF0A37428F0A37485F0801BF00E
:1006F800A37428F0A37467F0900003E0FBA3E0FA6A
:10070800A3E0F9900003121B26FF900021E4F0A358
:10071800EFF0900004121B26FF900023E4F0A3EFF3
:10072800F07B017A0079791220057B017A007979CA
:10073800123B6CAD077B017A00797990000F740346
:10074800020AFC7812E664026007123B957812767A
:1007580002123DFF123E0D123DE3123DF1123DDC47
:10076800123E14900003E0FBA3E0FAA3E0F9900026
:1007780003121B26FFD39463401090001E74FFF0F1
:10078800A37428F0A37490F08042900003E0FBA3C8
:10079800E0FAA3E0F9900003121B26FFD394099016
:1007A800001E74FF400BF0A37428F0A37498F08027
:1007B8001BF0A37428F0A374A1F0900003E0FBA33E
:1007C800E0FAA3E0F9900003121B26FF900021E451
:1007D800F0A3EFF0900004121B26FF900023E4F032
:1007E800A3EFF07B017A0079791220057B017A006A
:1007F8007979123B6CAD077B017A00797990000F0B
:100808007401020AFC900003E0FBA3E0FAA3E0F9FC
:10081800900003121B26547F7811F67BFF7A3579F6
:100828007F123D267B007A007900123D327B017AE7
:10083800007D017C007F1E020A0F900003E0FBA3ED
:10084800E0FAA3E0F9900003121B2664017031E975
:100858002404F9E43AFA78797C007D017E007F0867
:10086800121AE77BFF7A3C7978123D267BFF7A3CA7
:100878007987123D32E4FBFA7D06FC7F060209986F
:10088800900003E0FBA3E0FAA3E02404F9E43AFAB9
:10089800E490000FF07D081234DB7BFF7A3C797816
:1008A800123D267B007A007900123D327B017A00E6
:1008B8007D017C007F01020A0F123E37123E29900B
:1008C8000003E0FBA3E0FAA3E0F9900003121B2663
:1008D8007810B40106E64401F68004E654FEF67B7F
:1008E800FF7A3B7956123D267B007A007900123D4B
:1008F800327B017A007D017C007F14020A0F900090
:1009080003E0FBA3E0FAA3E0F9900003121B2664BE
:100918000160030209B6123DCE900003E0FBA3E09C
:10092800FAA3E0F9900004121B2664017066E9241A
:1009380005F9E43AFA78797C007D017E007F081297
:100948001AE7E4900006F0900006E0FFC394105008
:100958002574792FF582E43400F583E07010900057
:1009680006E02479F582E43400F5837420F09000E1
:1009780006E004F080D17BFF7A3C7978123D267B33
:10098800FF7A3C7987123D32E4FBFA7D05FC7F054E
:10099800FE020A68900003E0FBA3E0FAA3E0240546
:1009A800F9E43AFAE490000FF07D08020B5D123D7D
:1009B800C7020B60900003E0FBA3E0FAA3E0240366
:1009C800F9E43AFA78797C007D017E007F08121AF2
:1009D800E7900003E0FBA3E0FAA3E02403F9E43A7C
:1009E800FAE490000FF07D081234DB7BFF7A3C7943
:1009F80078123D267B007A007900123D327B017A1D
:100A0800007D017C007F017E008055900003E0FBA3
:100A1800A3E0FAA3E02403F9E43AFA78797C007DAC
:100A2800017E007F08121AE7900003E0FBA3E0FABA
:100A3800A3E02403F9E43AFAE490000FF07D0812E9
:100A480034DB7BFF7A3C7978123D267B007A00798B
:100A580000123D327B017A007D017C007F017E001F
:100A68001237A1020B60123E0D123E29123E3712B8
:100A78003DE3123DD5123DF1123DFF900003E0FB2E
:100A8800A3E0FAA3E0F9900003121B2624FC606798
:100A980024036003020B60123DEA900003E0FBA30D
:100AA800E0FAA3E0F9900004121B26B4010E78794D
:100AB8007C007D017BFF7A2879AB8020900003E0E1
:100AC800FBA3E0FAA3E0F9900004121B26B4020F7E
:100AD80078797C007D017BFF7A2879B2121EE87B49
:100AE800017A007979123B6CAD077B017A0079793C
:100AF800E490000FF0805E123DF8900003E0FBA345
:100B0800E0FAA3E0F9900004121B26B4010E7879EC
:100B18007C007D017BFF7A2879BA8020900003E071
:100B2800FBA3E0FAA3E0F9900004121B26B4020F1D
:100B380078797C007D017BFF7A2879BF121EE87BDB
:100B4800017A007979123B6CAD077B017A007979DB
:100B5800E490000FF01234DB900007E0600204F02C
:010B6800226A
:102DEF00E4900002F078ADE66063123D5FEF24F0EF
:102DFF00603924D0603324207037123D3E123E4597
:102E0F00E478ADF6900002F00000900002E004F0CC
:102E1F00E0B464F4123926E4900002F00000900050
:102E2F0002E004F0E0B464F4228000123D3E023E62
:102E3F0045E4900002F00000900002E004F0E0B4DE
:102E4F0082F47B007A00799D7D100236057B007A33
:102E5F000079AE7D10123886EF60097B007A007919
:042E6F00AE12005E41
:012E7300223C
:093D840020505752204F46460022
:102F3F0050006900000000000000000000000000C9
:072F4F0000000041006800D2
:103BA900E4900068F078697C007D017BFF7A3D79BB
:043BB90084021EE87C
:1034DB0090000BEBF0A3EAF0A3E9F0A3EDF0900062
:1034EB000BE0F9A3E0FAA3E0900013C9F0A3EAF014
:1034FB00A3E9F0EDFFA3E4F0A3EFF07B017A0079F1
:10350B00691230C090000EE0FFC39410500C746928
:10351B002FF582E43400F583E4F090000FE0900087
:03352B0068F02223
:10364800123D55403B7B017A007969122CB39000FA
:1036580068E07006123E37023E29900068E0B40127
:1036680005123E298017900068E0B40206123E3029
:10367800023E37900068E0B40306123E30123E3E28
:01368800221F
:103ABC00123A4512370512376E123E5E123D9612BF
:0B3ACC0039DE123BD1123D9FD2AF2229
:0A2F560042009900004200970000BD
:093D8D003082037F00227F012235
:093128007817E6FC08E6FD7F12B1
:10313100EF2407FBE43EFAD3EB94FFEA9403400645
:103141007A037BFF8007EF2407FBE43EFA900099A6
:10315100EAF0A3EBF0C3EF9407EE940050067E0073
:103161007F008008EF24F9FFEE34FFFE900097EE18
:10317100F0A3EFF0C3ED9FEC9E401090009AE09D0C
:0E318100900099E09C40047F0180027F0022B4
:0F3C96007817E6FC08E6FD7F077E031231312226
:063E52007E02123128225D
:063E58007E011231282258
:0E3CF0007817E6FC08E6FDE4FFFE12313122F3
:0F3CA5007819E6FC08E6FD7F387E0312313122E4
:0F3CB4007819E6FC08E6FD7F747E02123131229A
:0F3CC3007819E6FC08E6FD7FB07E011231312250
:0F3CD2007819E6FC08E6FD7FE07E001231312212
:103C0A00123D8DEF6009123CA5EF60037F01227F10
:023C1A00002286
:063E5E00122A9B023DC088
:103BBD00789BE62490F8A607789B06E6C3940A4006
:043BCD0002E4F622F6
:103A8400789AE6FE08667002FF2274902EF8E6FF2C
:0B3A9400789A06E6C3940A4002E4F6AC
:013A9F002204
:103AA000789CE6FE18667002FF2274902EF8E6FFFE
:0B3AB000789C06E6C3940A4002E4F68E
:013ABB0022E8
:0B3D4A00EF75F00BA4242AF8E6FF221E
:10399600EF75F00BA42428F8A60408A605AE03EFDD
:1039A60075F00BA4242BF8A606EF75F00BA4242CB7
:0439B600F8E4F62219
:063E6400789BE618F6222F
:073DC00043B10453B2FB22E2
:102A9B00E4789AF608F608F6FFEF75F00BA42428F5
:102AAB00F876000876C8EF75F00BA42425F87602AB
:102ABB00EF75F00BA4242AF8E4F6EF75F00BA424C1
:102ACB002BF8E4F6EF75F00BA4242CF8E4F60FEFDB
:102ADB00B40AC678417628784C76287857762878C9
:102AEB006D7628782276FF08763D08768D782D76E0
:102AFB00FF08763C087696783876FF08763E08769F
:102B0B0052784376FF08763E087658784E76FF0863
:102B1B00763C0876F0785976FF08763C0876A578EF
:102B2B006476FF08763C0876B4786F76FF08763CBF
:102B3B000876C3787A76FF08763C0876D278857665
:072B4B00FF08763C08760A42
:012B52002260
:10230500900003EFF0E075F00BA42422F9E4FAFB4A
:10231500900094F0A3F0A3E9F0121D9F121DE5EFC4
:1023250070030223F1900094E0FBA3E0FAA3E0F927
:10233500900003121B26FFC39405500890000374F8
:1023450005022455EFC3940A500890000374010256
:102355001B53900008121B26701490000804121BD2
:1023650086900003E075F003A404FF123BBD9000C6
:1023750094E0FBA3E0FAA3E0F9900006121BBEFF70
:10238500AEF0D39400EE940050030224589000045C
:10239500121BBEC39FE5F09E5023900004E475F028
:1023A50001121BF6FCE5F06F7002EC6E600302246F
:1023B50058900003E075F003A42403802B900009D6
:1023C500121B26FFD39400500302245890000A7470
:1023D50001121B53C39F407B90000AE4121B869099
:1023E5000003E075F003A404FF023BBD900094E0F8
:1023F500FBA3E0FAA3E0F9900003121B26FFD39498
:1024050005400A9000037405121B86802BEF600AB5
:1024150090000374FF121B53801E900008121B26A8
:10242500B40115900008E4121B86900003E075F0D6
:1024350003A42402FF123BBD900094E0FBA3E0FA45
:10244500A3E0F9900004E4F5F0121C4390000AE4BF
:04245500121B8622AE
:103AD700E4900002F0900002E0FFC3940A500B123A
:0A3AE7002305900002E004F080EBDC
:013AF10022B2
:10370500E4F5B275B180F5B475B3FFF5B675B5FFDF
:10371500F5AD75AC0FF5DB75DAFFF5DD75DCFFF59D
:10372500F975FA0475E5FF75E6FF75E7FF75EEFFB8
:0637350043F980023D0C87
:0C3D0C00E4FF8FFBE4F5FC0FEFB420F6A1
:013D18002288
:073DC70075FB1253FCF7220B
:073DCE0075FB1243FC082203
:073DD50075FB0E53FCF72201
:073DDC0075FB0E43FC0822F9
:073DE30075FB0B53FCF722F6
:073DEA0075FB0B43FC0822EE
:073DF10075FB0A53FCF722E9
:073DF80075FB0A43FC0822E1
:073DFF0075FB0353FCF722E2
:073E060075FB0343FC0822D9
:073E0D0075FB0253FCF722D4
:073E140075FB0243FC0822CC
:073E1B0075FB0F53FCF722B9
:073E220075FB0F43FC0822B1
:073E290075FB0753FCF722B3
:073E300075FB0743FC0822AB
:073E370075FB0653FCF722A6
:073E3E0075FB0643FC08229E
:063E6A00123E29023E3762
:063E7000123E30023E3E4E
:1028D400EFB4080040030229B79028E4F8282873CD
:1028E4000228FC02291402292C02294302295A0233
:1028F400297102298802299F75FB1F53FCF875FB77
:102904001E53FCF875FB1D53FCF075FB1C0229B427
:1029140075FB1B53FCF875FB1A53FCF875FB195334
:10292400FCF075FB180229B475FB1753FCF875FB12
:102934001653FCF875FB1553FCF075FB1480717588
:10294400FB1353FCF875FB1253FCF875FB1153FC95
:10295400F075FB10805A75FB0F53FCF875FB0E5392
:10296400FCF875FB0D53FCF075FB0C804375FB0BF9
:1029740053FCF875FB0A53FCF875FB0953FCF0751E
:10298400FB08802C75FB0753FCF875FB0653FCF819
:1029940075FB0553FCF075FB04801575FB0353FCB4
:1029A400F875FB0253FCF875FB0153FCF0E4F5FBEE
:0429B40053FCF022BE
:0C3D1900E4FEAF061228D40EEEB408F64B
:013D2500227B
:100B6900EFD394074003021462ED64536004EDB4BB
:100B790073047D35801EEDB467047D398016EDB4AC
:100B89006C047D4C800EEDB470047D508006EDB48C
:100B990078027D58ED121DBF0D52200C50300C7A91
:100BA900310C9E320CB3330CC8340CDD350CF236E3
:100BB9000D04370D2B380D3D390D55410D67420D8B
:100BC9008E430DAF440DD6450DF4460E1B470E3C22
:100BD900480E60490E874A0EAE4B0ED24C0EF94DA7
:100BE9000F234E0F4D4F0F77500F9E510FC8520FC5
:100BF900F654101D5510445610725710995810B7D5
:100C09005910DE5A110861113262115663117D645F
:100C190011A46511D26611F968121D6912416A128F
:100C29006C6B12976D12BD6E12E36F131171134243
:100C39007213657413907513B67613E177140F79EF
:100C490014357A00001462EF25E025E0FEC3741F15
:100C59009EF5FB43FC0553FCFDC3741E9EF5FB4347
:100C6900FC0553FCFDC3741D9EF5FB75FC090212BE
:100C790062EF25E025E0FEC3741F9EF5FB53FCF8E7
:100C8900C3741E9EF5FB53FCF8C3741D9EF5FB75DA
:100C9900FC01021262EF25E025E0FEC3741F9EF5F8
:100CA900FB43FC0653FCFE0211B3EF25E025E0FEF1
:100CB900C3741F9EF5FB43FC0253FCFA02111AEFA1
:100CC90025E025E0FEC3741F9EF5FB43FC0353FC9E
:100CD900FB020E4BEF25E025E0FEC3741F9EF5FBDA
:100CE90043FC0353FCFB020E2DEF25E025E0FEC378
:100CF900741F9EF5FB43FC07020E2DEF25E025E04E
:100D0900FEC3741F9EF5FB53FCF8C3741E9EF5FBCE
:100D190043FC0153FCF9C3741D9EF5FBE4F5FC0289
:100D29001262EF25E025E0FEC3741F9EF5FB43FC2C
:100D39000702111AEF25E025E0FEC3741F9EF5FB9B
:100D490043FC0353FCFB02111A0228D4EF25E025CA
:100D5900E0FEC3741F9EF5FB43FC07021323EF2536
:100D6900E025E0FEC3741F9EF5FB53FCF8C3741E17
:100D79009EF5FB43FC0153FCF9C3741D9EF5FB75FD
:100D8900FC0E021338EF25E025E0FEC3741F9EF523
:100D9900FB43FC0553FCFDC3741E9EF5FB43FC019C
:100DA90053FCF9020EEDEF25E025E0FEC3741F9E0A
:100DB900F5FB53FCF8C3741E9EF5FB43FC0153FC81
:100DC900F9C3741D9EF5FB75FC0E021262EF25E056
:100DD90025E0FEC3741F9EF5FB43FC07C3741E9EEA
:100DE900F5FB43FC0153FCF9021171EF25E025E005
:100DF900FEC3741F9EF5FB43FC07C3741E9EF5FBDF
:100E090043FC0153FCF9C3741D9EF5FBE4F5FC0298
:100E19001386EF25E025E0FEC3741F9EF5FB43FC16
:100E29000553FCFDC3741E9EF5FB43FC0153FCF9FD
:100E390002114AEF25E025E0FEC3741F9EF5FB432E
:100E4900FC07C3741E9EF5FB53FCF8C3741D9EF585
:100E5900FBE4F5FC021338EF25E025E0FEC3741F1F
:100E69009EF5FB53FCF8C3741E9EF5FB43FC01532E
:100E7900FCF9C3741D9EF5FB75FC0E021459EF2590
:100E8900E025E0FEC3741F9EF5FB43FC0453FCFC04
:100E9900C3741E9EF5FB53FCF8C3741D9EF5FB75C8
:100EA900FC08021262EF25E025E0FEC3741F9EF5DF
:100EB900FB43FC07C3741E9EF5FB53FCF8C3741D6A
:100EC9009EF5FB75FC01021307EF25E025E0FEC343
:100ED900741F9EF5FB43FC0553FCFDC3741E9EF570
:100EE900FB53FCF8C3741D9EF5FB75FC08021459ED
:100EF900EF25E025E0FEC3741F9EF5FB43FC055377
:100F0900FCFDC3741E9EF5FB43FC0253FCFAC3743B
:100F19001D9EF5FB75FC05021262EF25E025E0FE3A
:100F2900C3741F9EF5FB43FC0553FCFDC3741E9E51
:100F3900F5FB43FC0153FCF9C3741D9EF5FBE4F575
:100F4900FC021262EF25E025E0FEC3741F9EF5FB4B
:100F590043FC0553FCFDC3741E9EF5FB43FC015382
:100F6900FCF9C3741D9EF5FB75FC08021262EF259E
:100F7900E025E0FEC3741F9EF5FB43FC07C3741E06
:100F89009EF5FB43FC0153FCF9C3741D9EF5FBE47C
:100F9900F5FC0211C8EF25E025E0FEC3741F9EF59C
:100FA900FB43FC0553FCFDC3741E9EF5FB43FC018A
:100FB90053FCF9C3741D9EF5FB75FC08021068EF1C
:100FC90025E025E0FEC3741F9EF5FB43FC07C374AF
:100FD9001E9EF5FB43FC0153FCF9C3741D9EF5FBF2
:100FE900E4F5FCC3741C9EF5FB75FC0722EF25E0B4
:100FF90025E0FEC3741F9EF5FB53FCF8C3741E9EC7
:10100900F5FB43FC0153FCF9C3741D9EF5FB75FC0C
:1010190006021459EF25E025E0FEC3741F9EF5FB77
:1010290043FC0553FCFDC3741E9EF5FB53FCF8C33A
:10103900741D9EF5FB75FC08021262EF25E025E0A0
:10104900FEC3741F9EF5FB53FCF8C3741E9EF5FB8B
:1010590043FC0253FCFAC3741D9EF5FBE4F5FCC383
:10106900741C9EF5FB75FC0D22EF25E025E0FEC3FF
:10107900741F9EF5FB43FC0553FCFDC3741E9EF5CE
:10108900FB53FCF8C3741D9EF5FB75FC0E0212623E
:10109900EF25E025E0FEC3741F9EF5FB53FCF8C362
:1010A900741E9EF5FB43FC0653FCFE021284EF25D9
:1010B900E025E0FEC3741F9EF5FB43FC0353FCFBD4
:1010C900C3741E9EF5FB53FCF8C3741D9EF5FB7596
:1010D900FC08021338EF25E025E0FEC3741F9EF5D6
:1010E900FB43FC0253FCFAC3741E9EF5FB43FC054B
:1010F90053FCFDC3741D9EF5FB75FC09021386EFB5
:1011090025E025E0FEC3741F9EF5FB43FC0653FC56
:10111900FEC3741E9EF5FB43FC0153FCF9C3741D09
:101129009EF5FB75FC08021338EF25E025E0FEC3A8
:10113900741F9EF5FB43FC07C3741E9EF5FB53FC0D
:10114900F8C3741D9EF5FB75FC08021307EF25E033
:1011590025E0FEC3741F9EF5FB43FC0653FCFEC34A
:10116900741E9EF5FB53FCF8C3741D9EF5FB75FCBC
:1011790008021386EF25E025E0FEC3741F9EF5FBE8
:1011890043FC0653FCFEC3741E9EF5FB53FCF8C3D7
:10119900741D9EF5FB75FC08021338EF25E025E068
:1011A900FEC3741F9EF5FB43FC07C3741E9EF5FB2B
:1011B90043FC0153FCF9C3741D9EF5FB75FC08C380
:1011C900741C9EF5FB75FC0322EF25E025E0FEC3A8
:1011D900741F9EF5FB43FC07C3741E9EF5FB43FC7D
:1011E9000153FCF9C3741D9EF5FBE4F5FC02145987
:1011F900EF25E025E0FEC3741F9EF5FB43FC07C302
:10120900741E9EF5FB53FCF8C3741D9EF5FBE4F5B3
:10121900FC021307EF25E025E0FEC3741F9EF5FBD2
:1012290053FCF8C3741E9EF5FB53FCF8C3741D9E52
:10123900F5FB75FC06021459EF25E025E0FEC374A1
:101249001F9EF5FB53FCF8C3741E9EF5FB53FCF877
:10125900C3741D9EF5FB75FC08C3741C9EF5FB75D4
:10126900FC0922EF25E025E0FEC3741F9EF5FB4330
:10127900FC07C3741E9EF5FB53FCF8C3741D9EF551
:10128900FB75FC01C3741C9EF5FB75FC0422EF255C
:10129900E025E0FEC3741F9EF5FB43FC0653FCFEEC
:1012A900C3741E9EF5FB53FCF8C3741D9EF5FB75B4
:1012B900FC04804AEF25E025E0FEC3741F9EF5FB80
:1012C90043FC0653FCFEC3741E9EF5FB53FCF8C396
:1012D900741D9EF5FBE4F5FC8024EF25E025E0FE76
:1012E900C3741F9EF5FB43FC0653FCFEC3741E9E8C
:1012F900F5FB53FCF8C3741D9EF5FB75FC08C3741C
:101309001C9EF5FB75FC0A22EF25E025E0FEC3745F
:101319001F9EF5FB43FC0353FCFBC3741E9EF5FBA8
:1013290043FC0153FCF9C3741D9EF5FBE4F5FCC3B2
:10133900741C9EF5FB75FC0B22EF25E025E0FEC32E
:10134900741F9EF5FB53FCF8C3741E9EF5FB53FCFA
:10135900F8C3741D9EF5FB75FC048021EF25E0257B
:10136900E0FEC3741F9EF5FB43FC07C3741E9EF584
:10137900FB53FCF8C3741D9EF5FB75FC08C3741C74
:101389009EF5FB75FC0222EF25E025E0FEC3741FE4
:101399009EF5FB43FC0453FCFCC3741E9EF5FB53F2
:1013A900FCF8C3741D9EF5FB75FC08804FEF25E022
:1013B90025E0FEC3741F9EF5FB53FCF8C3741E9E03
:1013C900F5FB53FCF8C3741D9EF5FBE4F5FCC374EF
:1013D9001C9EF5FB75FC0C22EF25E025E0FEC3748D
:1013E9001F9EF5FB43FC0453FCFCC3741E9EF5FBD6
:1013F90053FCF8C3741D9EF5FB75FC0CC3741C9E4D
:10140900F5FB75FC0822EF25E025E0FEC3741F9E5D
:10141900F5FB53FCF8C3741E9EF5FB43FC0253FC19
:10142900FAC3741D9EF5FB75FC058024EF25E025A4
:10143900E0FEC3741F9EF5FB53FCF8C3741E9EF5B2
:10144900FB43FC0553FCFDC3741D9EF5FB75FC09AC
:0A145900C3741C9EF5FBE4F5FC22B1
:0B2CB30090001BEBF0A3EAF0A3E9F097
:102CBE00E4A3F0FFC200E94A7003022D5490001BFA
:102CCE00E0FBA3E0FAA3E0F9123B6CEFC3940840DB
:102CDE002EE490001EF090001EE0FF90001BE0FB23
:102CEE00A3E0FAA3E0F98F82758300121B26FD1272
:102CFE000B6990001EE004F0E0C3940840D822E473
:102D0E0090001EF090001EE0FFC394085038200083
:102D1E002390001BE0FBA3E0FAA3E0F98F827583FA
:102D2E0000121B26FD60028012D20090001EE0FFF2
:102D3E007D20800790001EE0FF7D20120B69900021
:062D4E001EE004F080BE4F
:012D5400225C
:082F60004100920041009300C2
:1039DE001239005389F75389FB5389FD43890190AE
:1039EE00009274FCF0A37466F0758CFCF58AD2A973
:0339FE00D28C2246
:103900009000897401F0E490008BF090008DF090AD
:10391000008FF0A3F090008AF090008CF090008E61
:06392000F0900091F0227E
:03000B00022F7150
:102F7100C0E0C0F0C083C082C0D075D000C000C026
:102F810006900092E0F58CA3E0F58A900089E004B8
:102F9100F0C394054005E4F0A304F090008BE00435
:102FA100F0C3940A4005E4F0A304F090008DE0041E
:102FB100F0C394644005E4F0A304F090008FE4753D
:102FC100F001121BA8FEC3E5F094E8EE9403400A59
:102FD10090008FE4F0A3F0A304F0D006D000D0D08D
:092FE100D082D083D0F0D0E032A0
:10376E00E47816F60876030876FF0876030876FFE7
:10377E0043E101F5E843B10153B2FE43F60143B113
:10378E000253B2FD43F60253E1BF43E12053E1EF92
:03379E00D2AE2286
:103A01007816E6600CE4F6C2EBC2EAC2E9C2E880CD
:103A11000C78167601C2EBC2EAC2E9D2E8000000D6
:033A2100D2EE22C0
:093D960053B1DF43B220023E806C
:033E8000C28522D6
:033E8300D28522C3
:033E8600B28522E0
:093D9F0053B1BF43B240023E8C57
:033E8900C28622CC
:033E8C00D28622B9
:1039BA000A6D679C46F6375D4521EFAC5A50010BFC
:1039CA00DF020A6D679C46F6375D4521EFAC5A5017
:0439DA00E10BDF021C
:082F68004500A1CCCCCCCCCC7F
:103BD10053B1EF43B21053ACEF43AD1053ACDF43DD
:033BE100AD2022F2
:013E9100220E
:103A6500E4FEC284EF30E704D2838002C283EF25EF
:0E3A7500E0FF00D28400000EEEB408E6C2842A
:013A83002220
:043BE400E4FD7FFC81
:0F3BE800C2B400123A65AF05123A6500D2B4229A
:0A35C2007B019000187405F07F3FB4
:0B35CC00900015EBF0A3EAF0A3E9F07B
:1035D700C2B4E4FD123A65900018E0FFEDC39F50B6
:1035E7001A900015E0FBA3E0FAA3E0F98D8275833A
:0D35F70000121B26FF123A650D80DCD2B4D5
:0136040022A3
:10397100E4FEC284EF30E704D2838002C283EF25E4
:10398100E0FF00D28400000EEEB408E643B1085314
:04399100B2F7C28443
:01399500220F
:103AF200E4FFFEC284EF25E0FF00D284308303445A
:093B020001FF0EEEB408ECC284D0
:013B0B002297
:103BF700C2B400123971123AF253B1F743B2080056
:023C0700D2B435
:013C09002298
:0B368900900004EBF0A3EAF0A3E9F0CE
:10369400C2B4123971E4FD900007E0FFEDC39F50FE
:1036A4001A123AF2900004E0FBA3E0FAA3E0F98DC9
:1036B40082758300EF121B860D80DC53B1F743B291
:0336C40008D2B475
:0136C70022E0
:0F3CE100123BE47D8E7F20123BE80000000022A2
:10392600E4FEFD7FFC123BE87D8F7F20123BE8E43E
:10393600FD7FFD123BE8E4FEFF000FBF00010EBE57
:0539460007F7BFD0F4FB
:01394B002259
:0A3D5F007F07123BF7EF5470FF22BC
:063E76007F09123BF72258
:073E45007D707F27023BE8BE
:0C3D3E00E4FD7FE1123BE87FE2023BE87D
:0E3CFE00AC07123BE4AF04AD077F25023BE8A4
:06360500123D5FEF703C76
:10360B00900003F0A3F0900018EDF07FA01235CCE2
:10361B00E4FD7FFD123BE8E4900003F0A3F0009083
:10362B000004E004F07006900003E004F090000347
:0C363B00E07004A3E064C870E5123BE4FA
:013647002260
:10388600AC05123D5FEF30E61D123BE4900007ECFD
:10389600F07F61123689123D3E123E45E4FD7FFD02
:0938A600123BE87F01227F0022A1
:10259E0078027C007D017BFF7A3979BA7E007F0557
:1025AE00121AE778077C007D017BFF7A3979BF7EAE
:1025BE00007F03121AE7780A7C007D017BFF7A39CF
:1025CE0079C27E007F06121AE778107C007D017BAF
:1025DE00FF7A3979C87E007F01121AE778117C00E4
:1025EE007D017BFF7A3979C97E007F03121AE712CB
:1025FE003E917D5A7F53123BE87DA57F53123BE8F7
:10260E007D207F3D123BE8123BE47FE1123BE87FE9
:10261E00E2123BE87D707F27123BE87D017F22129C
:10262E003BE87D037F23123BE87D4E7F25123BE87E
:10263E007D107F31123BE87B017A0079A190001862
:10264E007405F07F301235CC7B017A0079A19000B1
:10265E00187405F07F2A1235CC7A0079021235C231
:10266E007B017A00790A9000187406F07F3A1235D1
:10267E00CC7B017A0079109000187401F07F39122A
:10268E0035CC7B017A0079079000187403F07F3EF9
:10269E001235CC7B017A0079119000187403F07F0B
:1026AE003B1235CCE4FD7F3C123BE87D3F7F26128A
:0E26BE003BE8E4FD7F24123BE87F21023BE86D
:0529B800900043EFF068
:1029BD00E478447C007D017BFF7A3979CCFE7F057C
:1029CD00121AE778497C007D017BFF7A3979D17E37
:1029DD00007F03121AE7784C7C007D017BFF7A396A
:1029ED0079D47E007F06121AE778527C007D017B38
:1029FD00FF7A3979DA7E007F01121AE778537C006D
:102A0D007D017BFF7A3979DB7E007F03121AE77D2A
:102A1D005A7F53123BE87DA57F53123BE87D207F03
:102A2D003D123BE8123BE4E4FF000000000FEFB461
:102A3D00DCF7900043E0FD7F25123BE87D3F7F26CC
:102A4D00123BE87A0079441235C27B017A00794C49
:102A5D009000187406F07F3A1235CC7B017A00791C
:102A6D00529000187401F07F391235CC7B017A0039
:102A7D0079499000187403F07F3E1235CC7B017AB2
:0E2A8D000079539000187403F07F3B0235CCA3
:013E9200220D
:102FEA00EFF5A6EEF5A7A2AF920AC2AF75C7AA750A
:102FFA00C755439F01A20A92AFA2AF920AC2AF7508
:10300A00C7AA75C75543A501A20A92AF75AF21AFEA
:10301A00058FAEA2AF920AC2AF75C7AA75C755434C
:10302A00A401A20A92AFA2AF920AC2AF75C7AA754B
:10303A00C75553A5FEA20A92AFA2AF920AC2AF75B4
:0D304A00C7AA75C755539FFEA20A92AF2278
:10000E008FA6EEF5A775AEFFA2AF920AC2AF75C767
:10001E00AA75C755439F01A20A92AFA2AF920AC218
:10002E00AF75C7AA75C75543A501A20A92AF75AFA2
:10003E0022A2AF920AC2AF75C7AA75C75543A401D3
:05004E00A20A92AF229E
:102C080090009BEEF0A3EFF0A3EBF0A3EAF0A3E9AA
:012C1800F0CB
:102C190090009BE0FEA3E0F5A6EEF5A7A2AF920A0D
:102C2900C2AF75C7AA75C755439F01A20A92AFA241
:102C3900AF920AC2AF75C7AA75C75543A501A20AC3
:102C490092AF75AF21E4FEFF9000A0E0FDC3EF9DB8
:102C5900EE9400502E90009DE0FBA3E0FAA3E0F96A
:102C69008F828E83121B26F5AEA2AF920AC2AF7570
:102C7900C7AA75C75543A401A20A92AF0FBF0001A5
:102C89000E80C5A2AF920AC2AF75C7AA75C75553C0
:102C9900A5FEA20A92AFA2AF920AC2AF75C7AA75E2
:092CA900C755539FFEA20A92AF29
:012CB20022FF
:040003008F828E83D7
:03000700E493FF80
:01000A0022D3
:10245900EF14604414606F1470030224F8147003BD
:1024690002253424046003022598A2AF920AC2AF60
:1024790075C7AA75C755439780A20A92AFA2AF92B2
:102489000AC2AF75C7AA75C7555397BFA20A92AFBB
:10249900E59630E7FB02255FA2AF920AC2AF75C786
:1024A900AA75C75553977FA20A92AFA2AF920AC2E3
:1024B900AF75C7AA75C755439740A20A92AFE5966B
:1024C90030E6FB02255FA2AF920AC2AF75C7AA75B3
:1024D900C755439720A20A92AFE59630E5FBA2AF14
:1024E900920AC2AF75C7AA75C7555396FB8027A232
:1024F900AF920AC2AF75C7AA75C755439710A20A0A
:1025090092AFE59630E4FBA2AF920AC2AF75C7AAB3
:1025190075C755439604A20A92AFA2AF920AC2AFF9
:1025290075C7AA75C7555396FD804DA2AF920AC2C9
:10253900AF75C7AA75C75553977FA20A92AFA2AFC5
:10254900920AC2AF75C7AA75C7555397BFA20A9217
:10255900AFE59630E3FBA2AF920AC2AF75C7AA7581
:10256900C7555396FBA20A92AFA2AF920AC2AF75A2
:10257900C7AA75C755439602A20A92AFA2AF920A9B
:10258900C2AF75C7AA75C7555396FEA20A92AFE5A1
:052599009720E0FB2289
:1038AF0075985243892053877F538EEF53C4DFABF4
:1038BF0007AA06A905A804E47F807E70FDFC121CF0
:0938CF00ACEFF404F58DD28E2259
:1038D800759852438920438780538EEF53C4DFABDA
:1038E80007AA06A905A804E4FF7EE1FDFC121CACAA
:0838F800EFF404F58DD28E22DD
:1038320075985243892053877F438E1053C4DFAB60
:1038420007AA06A905A8047F007E467D057C001212
:0A3852001CACEFF404F58DD28E22B9
:10385C00759852438920438780438E1053C4DFAB45
:10386C0007AA06A905A8047F007E8C7D0A7C00129D
:0A387C001CACEFF404F58DD28E228F
:10318F009000A6121D6275985253877F53C4F8435F
:10319F00C4209000A6E0F8A3E0F9A3E0FAA3E0FBB7
:1031AF007F007E467D057C00121CACC3E49FFFE4CC
:1031BF009EFE74019DFDE49CFC7808121D4F8FC686
:1031CF009000A6E0F8A3E0F9A3E0FAA3E0FB7F00EC
:1031DF007E467D057C00121CACC3E49FFF8FC54368
:0331EF00C40822EF
:1031F2009000AA121D6275985243878053C4F84307
:10320200C4209000AAE0F8A3E0F9A3E0FAA3E0FB4F
:103212007F007E8C7D0A7C00121CACC3E49FFFE41D
:103222009EFE74019DFDE49CFC7808121D4F8FC622
:103232009000AAE0F8A3E0F9A3E0FAA3E0FB7F0084
:103242007E8C7D0A7C00121CACC3E49FFF8FC543B9
:03325200C408228B
:103315009000AE121D6275F85253C4F89000AEE0ED
:10332500F8A3E0F9A3E0FAA3E0FB7F007E8C7D0A19
:103335007C00121CACC3E49FFFE49EFE74019DFD5E
:10334500E49CFC7808121D4F8FC69000AEE0F8A3F0
:10335500E0F9A3E0FAA3E0FB7F007E8C7D0A7C0008
:0D336500121CACC3E49FFF8FC543C40822B7
:070053003098FDAF99C2983F
:01005A002283
:083DA800C2998F993099FD22A8
:073DB00030F8FDAF9AC2F8E4
:013DB70022E9
:083DB800C2F98F9A30F9FD22D7
:103B0C00E4F5B1F5B2F5B3F5B4F5B5F5B6F5ACF53C
:0A3B1C00ADF5DAF5DBF5DCF5DD228E
:103A450075B1FFE4F5B275B3FFF5B475B5FFF5B61D
:103A550075ACFFF5AD75DAFFF5DB75DCFFF5DD223D
:103B260075C7AA75C755A2AF920AC2AF75C7AA755F
:0A3B3600C755439F80A20A92AF22F8
:043E7C0043AD8022B0
:1036C800EF640A701C30F811E59AB4130CC2F83094
:1036D800F8FDE59AB411F6C2F830F9FDC2F9759A09
:1036E8000D30F811E59AB4130CC2F830F8FDE59ADC
:0D36F800B411F6C2F830F9FDC2F98F9A2224
:062E740090FFF8121DEBB7
:102E7A00850D83850E82121D6E00000000E47FFF1F
:102E8A007EFFFDFC850D83850E82E0F8A3E0F9A3A1
:102E9A00E0FAA3E0FBC3121D3E504C900004121E40
:102EAA000FE0FCA3E0FDA3E0FEA3E02401FFE43E63
:102EBA00FEE43DFDE43CFC900004121E0F121D626C
:102ECA00850D83850E82E0FCA3E0FDA3E0FEA3E06E
:102EDA002401FFE43EFEE43DFDE43CFC850D8385D0
:072EEA000E82121D628096AA
:062EF100900008021DEB39
:103A2400538EF7438901D28CEF4E6012758AF77575
:103A34008CFF308DFDC28DEF1F70ED1E80EAC28CAD
:013A4400225F
:103429009000B2121D62538EF7438901D28CE4FFDA
:10343900FEFDFC9000B2E0F8A3E0F9A3E0FAA3E0F6
:10344900FBC3121D3E602F758A65758CFC308DFD9E
:10345900C28D9000B2E0FCA3E0FDA3E0FEA3E0244E
:10346900FFFFEE34FFFEED34FFFDEC34FFFC90006E
:09347900B2121D6280B8C28C225F
:103482009000B6121D62538EEF438910D28EE4FF74
:10349200FEFDFC9000B6E0F8A3E0F9A3E0FAA3E099
:1034A200FBC3121D3E602F758B65758DFC308FFD41
:1034B200C28F9000B6E0FCA3E0FDA3E0FEA3E024EF
:1034C200FFFFEE34FFFEED34FFFDEC34FFFC900015
:0934D200B6121D6280B8C28E2200
:1033CE009000BA121D6275C40243C408E4FFFEFDEC
:1033DE00FC9000BAE0F8A3E0F9A3E0FAA3E0FBC387
:1033EE00121D3E603275C53375C6F5E5C430E4FB7B
:1033FE0053C4EF9000BAE0FCA3E0FDA3E0FEA3E00F
:10340E0024FFFFEE34FFFEED34FFFDEC34FFFC90A5
:0B341E0000BA121D6280B553C4F722F3
:103255009000BE121D62538FFB538FFD538FFEE40A
:10326500F586538FDF438F08E4FFFEFDFC9000BE1B
:10327500E0F8A3E0F9A3E0FAA3E0FBC3121D3E606A
:103285002CE58F30E4FB538FEF9000BEE0FCA3E00C
:10329500FDA3E0FEA3E024FFFFEE34FFFEED34FFC7
:1032A500FDEC34FFFC9000BE121D6280BB538FF70E
:0132B50022F6
:1026CC000A3D3D3D3D3D3D3D3D3D3D3D3D3D3D3D61
:1026DC003D3D3D3D3D3D3D3D3D3D3D3D3D3D3D3D1E
:1026EC003D3D3D3D3D3D3D3D3D3D3D3D3D3D3D3D0E
:1026FC003D3D3D3D3D3D3D3D3D3D3D3D3D3D3D3DFE
:10270C003D3D3D3D3D000A2A2020436F70797269A2
:10271C006768742863292032303135204E75766F06
:10272C00746F6E20546563686E6F6C6F67792043AD
:10273C006F72702E20416C6C207269676874732004
:10274C0072657365727665642E2020000A2A20203B
:10275C00436F6E7461637420452D4D61696C3A2032
:10276C004D6963726F432D38626974406E75766F74
:10277C00746F6E2E636F6D2020202020202020206F
:10278C00202020202020202020202020202020203D
:10279C0020000A2A202044656D6F205665727369EB
:1027AC006F6E20203A202532642E2532642E25327D
:1027BC0064000A2A202046696E69736865642044A7
:1027CC00617465203A202532642E2532642E253220
:0227DC00640097
:1032B6007BFF7A2679CC12200B7BFF7A27791212B4
:1032C600200B7BFF7A27795812200B7BFF7A277910
:1032D6009E90001EE4F0A304F0E4A3F0A3F0A3F094
:1032E600A3F012200B7BFF7A2779BE90001E74078D
:1032F600F0A374DFF0A3E4F0A37405F0A3E4F0A355
:0F330600741FF012200B7BFF7A2679CC02200B6C
:03000000022D5579
:102D5500787FE4F6D8FD9000007FFF7E01E4F0A3C4
:0A2D6500DFFCDEFA7581BD022DAA25
:102D6F00023057E493A3F8E493A34003F68001F2F3
:102D7F0008DFF48029E493A3F85407240CC8C33365
:102D8F00C4540F4420C8834004F456800146F6DF34
:102D9F00E4800B0102040810204080902EF7E47E9F
:102DAF00019360BCA3FF543F30E509541FFEE49329
:102DBF00A360010ECF54C025E060A840B8E493A3F0
:102DCF00FAE493A3F8E493A3C8C582C8CAC583CA1B
:102DDF00F0A3C8C582C8CAC583CADFE9DEE780BED3
:012F70000060
:101A1700E709F608DFFA8046E709F208DFFA803EB1
:101A270088828C83E709F0A3DFFA8032E309F6089E
:101A3700DFFA8078E309F208DFFA807088828C8306
:101A4700E309F0A3DFFA806489828A83E0A3F608BA
:101A5700DFFA805889828A83E0A3F208DFFA804C94
:101A670080D280FA80C680D4806980F2803380106B
:101A770080A680EA809A80A880DA80E280CA8033D4
:101A870089828A83ECFAE493A3C8C582C8CCC5834C
:101A9700CCF0A3C8C582C8CCC583CCDFE9DEE7801C
:101AA7000D89828A83E493A3F608DFF9ECFAA9F09B
:101AB700EDFB2289828A83ECFAE0A3C8C582C8CCF1
:101AC700C583CCF0A3C8C582C8CCC583CCDFEADE0A
:101AD700E880DB89828A83E493A3F208DFF980CC6C
:101AE70088F0EF60010E4E60C388F0ED2402B40465
:101AF7000050B9F582EB2402B4040050AF2323450C
:061B07008223901A6773AF
:101B0D00BB010689828A83E0225002E722BBFE02D6
:091B1D00E32289828A83E4932209
:101B2600BB010CE58229F582E5833AF583E0225074
:101B360006E92582F8E622BBFE06E92582F8E222BE
:0D1B4600E58229F582E5833AF583E49322D8
:101B5300BB010FF8E58229F582E5833AF583E02896
:101B6300F0225009C58229F8E58226F622BBFE0938
:101B7300C58229F8E22582F222F8EA2583F583E972
:031B830093282282
:101B8600F8BB010DE58229F582E5833AF583E8F095
:101B9600225006E92582C8F622BBFE05E92582C841
:021BA600F22229
:101BA800C5F0F8A3E028F0C5F0F8E58215827002C8
:061BB8001583E038F02265
:101BBE00BB0110E58229F582E5833AF583E0F5F065
:101BCE00A3E0225009E92582F886F008E622BBFE42
:101BDE000AE92582F8E2F5F008E222E5832AF58388
:081BEE00E993F5F0A3E993224D
:101BF600BB010DC58229C582C5833AC583021BA8D0
:101C06005011C58229F808E5F026F618F5F0E582A8
:101C160036F622BBFE11C58229F808E225F0F5F05A
:101C2600F218E23582F222F8E58229F582E5832A66
:0D1C3600F58374019325F0F5F0E493382256
:101C4300F8BB0111E58229F582E5833AF583E8F0D3
:101C5300E5F0A3F0225009E92582C8F608A6F02290
:0D1C6300BBFE09E92582C8F2E5F008F22277
:101C700075F008758200EF2FFFEE33FECD33CDCC2B
:101C800033CCC58233C5829BED9AEC99E5829840AE
:101C90000CF582EE9BFEED9AFDEC99FC0FD5F0D68B
:101CA000E4CEFBE4CDFAE4CCF9A88222B800C1B9B5
:101CB0000059BA002DEC8BF084CFCECDFCE5F0CBF3
:101CC000F97818EF2FFFEE33FEED33FDEC33FCEB2C
:101CD00033FB10D703994004EB99FB0FD8E5E4F9E7
:101CE000FA227818EF2FFFEE33FEED33FDEC33FCD4
:101CF000C933C910D7059BE99A4007EC9BFCE99AC8
:101D0000F90FD8E0E4C9FAE4CCFB2275F010EF2F0C
:101D1000FFEE33FEED33FDCC33CCC833C810D7070C
:101D20009BEC9AE899400AED9BFDEC9AFCE899F847
:0E1D30000FD5F0DAE4CDFBE4CCFAE4C8F922DA
:101D3E00EB9FF5F0EA9E42F0E99D42F0E89C45F0FB
:011D4E002272
:101D4F00E8600FECC313FCED13FDEE13FEEF13FF72
:031D5F00D8F12296
:0C1D6200ECF0A3EDF0A3EEF0A3EFF022F4
:101D6E00A8828583F0D083D082121D85121D851224
:101D7E001D85121D85E473E493A3C583C5F0C58349
:101D8E00C8C582C8F0A3C583C5F0C583C8C582C8BF
:011D9E002222
:101D9F00BB010789828A83021F625005E9F8021F7F
:101DAF0059BBFE05E9F8021F8B89828A83021F94B3
:101DBF00D083D082F8E4937012740193700DA3A3B3
:101DCF0093F8740193F5828883E4737402936860C7
:061DDF00EFA3A3A380DFC7
:061DE5008A838982E47389
:101DEB00E50E2582F582E50D3583F583B50D04856A
:101DFB00820E2210AF0685820EF50D2285820EF51E
:041E0B000DD2AF2223
:0D1E0F00E50E2582F582E50D3583F5832271
:101FA000E508241EF582E43400F583E0050822905C
:101FB000001B30070390001EE475F001121F6B0236
:101FC0001B0D2000E97F2ED2008018EF540F2490C3
:101FD000D43440D4FF30040BEF24BFB41A005003B4
:101FE0002461FFE50960021509050CE50C70020586
:101FF0000B30070E90001BE475F001121F6BEF020F
:102000001F310236C87403D2078003E4C207F50803
:1020100090001B121F82E4F509F50BF50CE5096031
:10202000077F20121FE380F5750AFFC201C200C2BC
:1020300002C203C205C206C208121FAFFF700D30F4
:1020400007057F00121FF4AF0CAE0B22B4255FC250
:10205000D5C204121FAFFF24D0B40A00501A75F085
:102060000A780930D50508B6FF0106C6A426F62071
:10207000D5047002D20380D924CFB41A00EF5004E3
:10208000C2E5D2040221F5D20180C6D20080C0D2BE
:102090000280BCD2D580BAD20580B47F20121FE363
:1020A0002002077401B5090040F1121FA0FF121FA2
:1020B000E302201DD208D2068095121FA0FB121F3A
:1020C000A0FA121FA0F94A4B700679C67A227BFF4C
:1020D00020022EE509602A7E008E82758300121B85
:1020E0002660060EEE650A70F0C2D5EBC0E0EAC0CD
:1020F000E0E9C0E0EE12223CD0E0F9D0E0FAD0E016
:10210000FB121B0DFF60AAEBC0E0EAC0E0E9C0E0F3
:10211000121FE3D0E02401F9D0E03400FAD0E0FB54
:10212000E50A0460DCD50AD980877BFF7A227938FA
:10213000D202809C791080027908C206C208800809
:10214000D2D5790A8004790AC2D5E50A047002F56D
:102150000AE4FAFDFEFF121FA0FC7B082001131207
:102160001FA0FD7B1030000A121FA0FE121FA0FF4F
:102170007B20EC3382D592D55013C3E43000069F08
:10218000FFE49EFEE42001039DFDE49CFCE4CBF80B
:10219000C201EC700CCFCECDCCE824F8F870F380FF
:1021A00017C3EF33FFEE33FEED33FDEC33FCEB33BF
:1021B000FB994002FB0FD8E9EB300105F8D0E0C4F1
:1021C00048B201C0E00AEC4D4E4F78207B0070C24F
:1021D000EAB50A0040BCC0E012223ED0F0D0E020B8
:1021E0000104C4C0E0C4B201C0F0121FCCD0F0D5CD
:1021F000F0EB02201D121DBF20BA53213458208B52
:102200004C20874221384F21404421404920A0439F
:08221000214655212A46212A2E
:1022180045212A4722E650208F2D20932E20B62BC9
:1022280020972320B42022CF2A204F48000020AE38
:102238003F3F3F00790AA2D5200314300509B910A1
:10224800020404B9080104A2D520060250010420A2
:1022580002689202B509005034C0E07F20300319AB
:102268007F30A20272067205500F122295C202C276
:1022780006C205C2087F30800F300503E9C0E012AE
:102288001FE3300503D0E0F9D0E0B509CC300517DD
:102298007F30B9100C121FE37F583004077F788015
:1022A80003B90803121FE33002057F2D021FE37FE5
:1022B800202008F87F2B2006F322920280CF286E78
:1022C800756C6C2900D201121FA03001F8C2017888
:1022D8000930D50108F602204F2D50434958121FE6
:1022E800A02403B405004001E49022E193121FD416
:0D22F800743A121FD4D20375090402213478
:101E1C00E709F60870FA8046E709F20870FA803E86
:101E2C0088828C83E709F0A370FA807EE309F608B8
:101E3C0070FA8076E309F20870FA806E88828C83DF
:101E4C00E309F0A370FA806289828A83E0A3F60822
:101E5C0070FA805689828A83E0A3F20870FA804A6D
:101E6C0080D280FA80C680D4806580F28031801068
:101E7C0080A680EA809A80A880DA80E280CA8031CD
:101E8C0089828A83ECFAE493A3C8C582C8CCC58343
:101E9C00CCF0A3C8C582C8CCC583CC70E9800D89B1
:101EAC00828A83E493A3F60870F9ECFAA9F0EDFBAF
:101EBC002289828A83ECFAE0A3C8C582C8CCC58388
:101ECC00CCF0A3C8C582C8CCC583CC70EA80DD89B0
:101EDC00828A83E493A3F20870F980CE88F0ED2413
:101EEC0002B4040050C4F582EB2402B4040050BACE
:091EFC002323458223901E6C7320
:1030C000900010EBF0A3EAF0A3E9F0E4900018F010
:1030D000A3F090001674FFF5F0121F4345F0603C1A
:1030E000900013E0FBA3E0FAA3E0F9121B0DFF90A0
:1030F0000010E0FBA3E0FAA3E0F9900018E475F0FB
:1031000001121F4385F082F583EF121B86EF60C228
:10311000900014E475F001121BA880B6900010E036
:08312000FBA3E0FAA3E0F92291
:103B6C00E4FFFE121B0D600C0FEF70010E09E970E3
:053B7C00F20A80EF22B7
:101F0500EF4E6012EF60010EEDBB010B89828A83F3
:101F1500F0A3DFFCDEFA2289F05007F709DFFCA900
:0C1F2500F022BBFEFCF309DFFCA9F02257
:101F3100BB010689828A83F0225002F722BBFE018F
:021F4100F32289
:101F4300A3F8E0C5F025F0F0E58215827002158351
:061F5300E0C838F0E822AE
:091F5900E6FB08E6FA08E6F922AD
:091F6200E0FBA3E0FAA3E0F92280
:101F6B00F8E0FBA3A3E0F925F0F0E58215827002FF
:071F7B001583E0FA38F022A3
:091F8200EBF0A3EAF0A3E9F02260
:091F8B00E2FB08E2FA08E2F92287
:0C1F9400E493FB740193FA740293F922A9
:00000001FF
