:042F10004100C800B4
:03005B000234A3C9
:1034A300C0E0C0D075D000C000C001C005C006C0D8
:1034B30007C2EFAFC37819E6FD25E0241AF87600BA
:1034C30008A607ED25E0241AF8C000F9E7FE09E78E
:1034D3007802C333CE33CED8F9D000A60608F6ED72
:1034E30025E0241AF8AFC2E6F6EF0846F6D007D077
:0C34F30006D005D001D000D0D0D0E032CF
:103117007F02122567123CEBE478C5F6123F831253
:103127003DDC123D6F900089E06005E4F0123C3011
:1031370090008BE06008E4F0123D06122F96900095
:043147008DE0601D9A
:10314B00E4900001F090008DF0122C7412386C900A
:0D315B0000C8E004F0E0C394054002E4F079
:10316800900090E06005E4F012355A123CB39000EC
:0C31780000EFF060AFE0FF12153980A8F6
:093FD00020434F4E4E45435400BE
:042F14004100C900AF
:05153900900002EFF03C
:10153E00E4A3F0A3F078C5E66003021B24E4900058
:10154E0003F0FE7F10FDFB7A00799D1220139000B0
:10155E0002E024FEB41D004003021B1190157875A5
:10156E00F003A4C58325F0C583730215CF02163090
:10157E0002168C021B110216E2021738021B110210
:10158E00178E0217E4021B1102183A021890021B62
:10159E00110218E602193C021B11021B1102199CC2
:1015AE00021B110219F2021B11021A48021B110230
:1015BE001B11021A9E021B11021B11021B11021A91
:1015CE00F19000C9E07053900003E0FF04F0749DA9
:1015DE002FF876F2E0FF04F0749D2FF87601E0FF0D
:1015EE0004F0749D2FF87654E4A3F0789EE624015F
:1015FE00FFE433FE900004E0FDC39FEE6480F874B8
:10160E0080985016749E2DF8E6FF900003E0249DFE
:10161E00F8EF26F6A3E004F080D1E49000C9F002C2
:10162E001B119000C97401F0900003E0FF04F074E8
:10163E009D2FF876F2E0FF04F0749D2FF87601E00E
:10164E00FF04F0749D2FF87601E4A3F0789EE62453
:10165E0001FFE433FE900004E0FDC39FEE6480F8CA
:10166E007480984003021B11749E2DF8E6FF9000C3
:10167E0003E0249DF8EF26F6A3E004F080CE900060
:10168E0003E0FF04F0749D2FF876F2E0FF04F0748F
:10169E009D2FF87601E0FF04F0749D2FF87606E496
:1016AE00A3F0789EE62401FFE433FE900004E0FDF3
:1016BE00C39FEE6480F87480984003021B11749EE1
:1016CE002DF8E6FF900003E0249DF8EF26F6A3E048
:1016DE0004F080CE900003E0FF04F0749D2FF876A6
:1016EE00F2E0FF04F0749D2FF87601E0FF04F07431
:1016FE009D2FF87607E4A3F0789EE62401FFE433ED
:10170E00FE900004E0FDC39FEE6480F87480984064
:10171E0003021B11749E2DF8E6FF900003E0249D3A
:10172E00F8EF26F6A3E004F080CE900003E0FF046D
:10173E00F0749D2FF876F2E0FF04F0749D2FF8768A
:10174E0001E0FF04F0749D2FF87603E4A3F0789E79
:10175E00E62401FFE433FE900004E0FDC39FEE6437
:10176E0080F87480984003021B11749E2DF8E6FFDA
:10177E00900003E0249DF8EF26F6A3E004F080CE5F
:10178E00900003E0FF04F0749D2FF876F2E0FF0462
:10179E00F0749D2FF87601E0FF04F0749D2FF8761B
:1017AE0003E4A3F0789EE62401FFE433FE900004E8
:1017BE00E0FDC39FEE6480F87480984003021B1115
:1017CE00749E2DF8E6FF900003E0249DF8EF26F6B8
:1017DE00A3E004F080CE900003E0FF04F0749D2F90
:1017EE00F876F2E0FF04F0749D2FF87601E0FF0426
:1017FE00F0749D2FF87602E4A3F0789EE62401FFA4
:10180E00E433FE900004E0FDC39FEE6480F8748024
:10181E00984003021B11749E2DF8E6FF900003E022
:10182E00249DF8EF26F6A3E004F080CE900003E0AE
:10183E00FF04F0749D2FF876F2E0FF04F0749D2FF4
:10184E00F87601E0FF04F0749D2FF87602E4A3F021
:10185E00789EE62401FFE433FE900004E0FDC39F72
:10186E00EE6480F87480984003021B11749E2DF86C
:10187E00E6FF900003E0249DF8EF26F6A3E004F0C7
:10188E0080CE900003E0FF04F0749D2FF876F2E016
:10189E00FF04F0749D2FF87601E0FF04F0749D2F85
:1018AE00F87604E4A3F0789EE62401FFE433FE907C
:1018BE000004E0FDC39FEE6480F87480984003023C
:1018CE001B11749E2DF8E6FF900003E0249DF8EFA7
:1018DE0026F6A3E004F080CE900003E0FF04F0743F
:1018EE009D2FF876F2E0FF04F0749D2FF87601E05C
:1018FE00FF04F0749D2FF87604E4A3F0789EE6249E
:10190E0001FFE433FE900004E0FDC39FEE6480F817
:10191E007480984003021B11749E2DF8E6FF900010
:10192E0003E0249DF8EF26F6A3E004F080CE9000AD
:10193E0003E0FF04F0749D2FF876F2E0FF04F074DC
:10194E009D2FF87602E0FF04F0749D2FF87609E0E3
:10195E00FF04F0749D2FF87603E4A3F0789EE6243E
:10196E0001FFE433FE900004E0FDC39FEE6480F8B7
:10197E007480984003021B11749E2DF8E6FF9000B0
:10198E0003E0249DF8EF26F6A3E004F080CE90004D
:10199E0003E0FF04F0749D2FF876F2E0FF04F0747C
:1019AE009D2FF87601E0FF04F0749D2FF87605E484
:1019BE00A3F0789EE62401FFE433FE900004E0FDE0
:1019CE00C39FEE6480F87480984003021B11749ECE
:1019DE002DF8E6FF900003E0249DF8EF26F6A3E035
:1019EE0004F080CE900003E0FF04F0749D2FF87693
:1019FE00F2E0FF04F0749D2FF87601E0FF04F0741E
:101A0E009D2FF87605E4A3F0789EE62401FFE433DB
:101A1E00FE900004E0FDC39FEE6480F87480984051
:101A2E0003021B11749E2DF8E6FF900003E0249D27
:101A3E00F8EF26F6A3E004F080CE900003E0FF045A
:101A4E00F0749D2FF876F2E0FF04F0749D2FF87677
:101A5E0001E0FF04F0749D2FF87608E4A3F0789E61
:101A6E00E62401FFE433FE900004E0FDC39FEE6424
:101A7E0080F87480984003021B11749E2DF8E6FFC7
:101A8E00900003E0249DF8EF26F6A3E004F080CE4C
:101A9E00900003E0FF04F0749D2FF876F2E0FF044F
:101AAE00F0749D2FF87601E0FF04F0749D2FF87608
:101ABE00B9E4A3F0789EE62401FFE433FE9000041F
:101ACE00E0FDC39FEE6480F87480985036749E2DAE
:101ADE00F8E6FF900003E0249DF8EF26F6A3E0045D
:101AEE00F080D178C576011239297BFF7A3F79D003
:101AFE00122DD47BFF7A3F79D0E490000EF07D0852
:101B0E001236BC900003E0600D04F07B007A007981
:061B1E009DE0FD12370FEF
:011B2400229E
:103E3D004F4646204C494E450020505752204F4684
:023E4D0046002D
:082F18004100C7004100C600A2
:103D6F00E49000C7F09000C6F0FE7F08FDFB7A00DC
:083D7F0079BE122013024089F5
:10355A0078C5E660239000C6E004F0E0D3942D40DD
:10356A001CE4F6123F837BFF7A3E793DE490000E1D
:10357A00F07D081236BC8005E49000C6F09000C7C2
:10358A00E004F0E0B40622123DC8123F511240890D
:10359A007BFF7A3E7946122DD47BFF7A3E7946E448
:0A35AA0090000EF07D081236BC22DE
:0140FA0022A3
:0640B300E49000C7F022BA
:0140FB0022A2
:0C3F6B00900061EBF0A3EAF0A3E9F02263
:0C3F7700900064EBF0A3EAF0A3E9F02254
:103E6100900061A3E0FAA3E0F94A6003121EF32275
:103E7100900064A3E0FAA3E0F94A6003121EF32262
:1039FD00EF4E602D900057EEF0A3EFF0AF05A3EC66
:103A0D00F0A3EFF0AF03A3EAF0A3EFF0E4A3F0A36C
:103A1D00F0A3F0A3F0900056F090005504F0123E84
:023A2D00612214
:103DC800E4900055F0123E717B007A007900123FB2
:043DD8006B023F77C4
:0A3FBC00900055E06002D322C322FA
:102C7400900055E07003022D28900059E0FEA3E077
:102C8400FF4E7003022D28900056E07035D3EF9468
:102C940000EE94005003022D2890005DE475F001CD
:102CA400121CB6FED3900058E095F0900057E09EB9
:102CB4005072123E71E490005DF0A3F0900056044F
:102CC400F022900056E06401705A90005D75F001A6
:102CD400121CB6FED390005AE095F0900059E09E85
:102CE400504290005BE0FEA3E0FF9400EE940040AD
:102CF4002590005FE475F001121CB6FCD3EF95F04B
:102D0400EE9C5005E4900055F0900055E07007905B
:102D14000059F0A3F022E490005DF0A3F090005677
:052D2400F0123E6122E7
:1028EC002042415A4F4F4B410020505752204F46E7
:1028FC004600414343204F4E00414343204F464640
:10290C000020564F4C202575002020202020202010
:10291C0020002020205041555345002020204D55AB
:10292C00544520002020204E4558542000202020C3
:10293C005052455620002020202053542575005419
:10294C0052202575004D41544348204F4B002050D8
:10295C00414952494E4700202050414952454400BC
:10296C00545753205343414E002020545753204F6B
:10297C004B00202020202025752530327500534334
:10298C00414E4E494E470020202020504C415900CA
:10299C002020202025752530327500464D202575C8
:1029AC00257500464D20202575257500464D2020A7
:1029BC002025752575005052495245440050414917
:1029CC0052494E4700504C4159004D55544500005A
:1029DC0000000000000000000000000000000000EB
:0929EC00000000000000000000E2
:102F200001AD0010AE000000000000000000000035
:102F30000000000000109D000000000000000000E4
:102F400000000000000000500078000000000000B9
:0C2F500000000000000000000000C109AB
:103B7B00E478ADF6FE7F10FDFB7A0079AE122013D0
:103B8B007E007F107D007B007A00799D122013123E
:053B9B0026AC023B55C1
:0B37600090000AEBF0A3EAF0A3E9F0F0
:10376B00E4A3F0F090000DE0FFC394055029EF2483
:10377B0080FFE43447FE1240E390000AE0FBA3E035
:10378B00FAA3E0F9A3E0F582758300EF121C949085
:07379B00000DE004F080CDF9
:0137A2002204
:1039290078937C007D017B017A0079987E007F0580
:10393900121BF5E478ADF6FE7F10FDFB7A0079AE37
:103949001220137E007F107D007B007A00799D1282
:0839590020131226AC023B55BD
:0C3F83007B017A007993123760023B7BCF
:10370F00900005EBF0A3EAF0A3E9F0A3EDF0D3945A
:10371F0010503D123F2678AD7601900005E0FBA3D7
:10372F00E0FAA3E0F990009DEB7008E96582700361
:10373F00EA6583601B900008E0FF7E00789D7C00A7
:10374F007D00900005E0FBA3E0FAA3E0F9121BF562
:01375F002247
:103D870078BFE67BFF30E1067A2879EC80047A2851
:063D970079F5122DD42283
:103D9D0078BFE67BFF30E0067A2879FE80047A2929
:063DAD007905122DD4225D
:1037A300780A7C007D017BFF7A2979DB7E007F101C
:1037B300121BF512409012409E90001D74FFF0A35F
:1037C3007429F0A3740DF078C0E6FFA3E4F0A3EF2F
:1037D300F07B017A00790A1221137B017A00790ABE
:0337E300022DD4E0
:0F3E81007BFF7A297915122DD412409002409EB2
:093FD9007BFF7A29791E022DD428
:093FE2007BFF7A297927022DD416
:0F3E90007BFF7A29791E122DD412409002409E9A
:0F3E9F007BFF7A297930122DD412409002409E79
:0F3EAE007BFF7A297939122DD412409002409E61
:1039970090001D74FFF0A37429F0A37442F078C25D
:1039A700E6FFA3E4F0A3EFF07B017A007978122118
:1039B700137B017A007978122DD41240741240904B
:0339C7000240A516
:103A2F0090001D74FFF0A37429F0A3744BF078C3BA
:103A3F00E6FF08E6A3CFF0A3EFF07B017A007978D9
:103A4F001221137B017A007978122DD41240900243
:023A5F00409E87
:0F3EBD007B017A007978122DD412409002409E3A
:0F3ECC007BFF7A297915122DD412409002409E67
:0B005E00900003EBF0A3EAF0A3E9F030
:10006900E4A3F0A3F0A3F0121C1B64F86003020CD4
:100079003E900003E0FBA3E0FAA3E0F9900001122F
:100089001C34D394104003020C3EE4900006F09017
:100099000003E0FBA3E0FAA3E0F9900001121C348D
:1000A9002401FFE433FE900006E0FDC39FEE648067
:1000B900F8748098501DED2401FFE433FE8F828E81
:1000C90083121C34FF900008E02FF0900006E00432
:1000D900F080BC900003E0FBA3E0FAA3E0F99000F4
:1000E90001121C34F582758300A3A3121C34FF90FE
:1000F9000008E06F6003020C3E7E007F107D007BEC
:10010900007A00799D122013E4900007F01240B3A1
:10011900900003E0FBA3E0FAA3E0F9900002121CAF
:1001290034121ECD0918010A92020AE90309970936
:1001390002F631038333049E340675350789360880
:10014900213708E3380B444109DCB90233E0015E89
:05015900FE00000C3661
:10015E00E4900009F0780F7C00FD7BFF7A2979EBA3
:10016E00FE7F05121BF578147C007D007BFF7A293B
:10017E0079F07E007F05121BF57E007F057D007BEA
:10018E00007A00790F1220137E007F057D007B0020
:10019E007A0079141220137B007A00790F123760DF
:1001AE00900003E0FBA3E0FAA3E02403F9E43AFA9B
:1001BE0078147C007D007E007F05121BF5900009EF
:1001CE007401F0E4900006F0900006E0FF240FF9B1
:1001DE0074142FF8E6676007E4900009F0800A9027
:1001EE000006E004F0E0B405DF900009E07026FFA1
:1001FE00FE123F9BE4900006F0900006E004F0E053
:10020E00B4FDF67B007A00791490000F7405F0E4CB
:10021E00FFFE123666E478C5F6123F837BFF7A291D
:02022E00795104
:10023000020A8212403512407412403C124066128B
:10024000405812404A900003E0FBA3E0FAA3E0F913
:10025000900003121C3424FE600F1460111460130C
:1002600024037012124051800D1240438008124046
:100270006D800312405F7E007F107D007B017A005D
:100280007978122013900003E0FBA3E0FAA3E024A6
:1002900004F9E43AFA78787C007D017E007F081248
:1002A0001BF57B017A007978123DB3AD077B017AAB
:1002B000007978E490000EF01236BC900003E0FB69
:1002C000A3E0FAA3E0F990000C121C34601D7BFF40
:1002D0007A3E79BD123F6B7BFF7A3E79CC123F7735
:1002E000123FBC5003020C36020502123FBC400311
:1002F000020C360205E1123DC812409E12409012D7
:10030000407412403C12406612405812404A90001D
:1003100003E0FBA3E0FAA3E0F9900003121C3464AD
:1003200001702578BFE64402F67BFF7A3D7987129B
:100330003F6B7B007A007900123F777B017A007D6A
:10034000017C007F50020AE5900003E0FBA3E0FA85
:10035000A3E0F9900003121C3464026003020C361F
:1003600078BFE654FDF67BFF7A3D7987123F6B7BC1
:10037000007A007900123F77E4FBFA7D01FC7F14DC
:10038000020A6E900003E0FBA3E0FAA3E0F99000FC
:1003900003121C3424FE7003020455046003020C93
:1003A0003678C1E664016007123DC878C176011253
:1003B000407412403C124066124058124051900066
:1003C00003E0FBA3E0FAA3E0F9900004121C34B4AC
:1003D000010F90001D74FFF0A37429F0A3745A80DC
:1003E00067900003E0FBA3E0FAA3E0F99000041299
:1003F0001C34B4020F90001D74FFF0A37429F0A305
:1004000074638044900003E0FBA3E0FAA3E0F9905A
:100410000004121C34B4030F90001D74FFF0A37489
:1004200029F0A3746C8021900003E0FBA3E0FAA301
:10043000E0F9900004121C34B4041790001D74FFFE
:10044000F0A37429F0A37475F07B017A0079781217
:100450002113020BBD123DC8123F5190001D74FFC5
:10046000F0A37429F0A3747EF0900003E0FBA3E0F6
:10047000FAA3E0F9900003121C34FF900020E4F08E
:10048000A3EFF0900004121C34FF900022E4F0A3CC
:10049000EFF07B017A007978122113020C3690007C
:1004A00003E0FBA3E0FAA3E0F9900003121C34245C
:1004B000FE605A1470030205CD1470030205471440
:1004C000700302061C24046003020C369000041220
:1004D0001C34B401030205E1900003E0FBA3E0FA41
:1004E000A3E0F9900004121C3464026003020C368D
:1004F0007BFF7A3F79D9123F6B7BFF7A3E7981127D
:100500003F77E4FBFA7D06FC7F06020A6E9000034B
:10051000E0FBA3E0FAA3E0F9900004121C346402AB
:10052000700F90001D74FFF0A37429F0A3748A80EB
:1005300058900003E0FBA3E0FAA3E0F99000041256
:070540001C346401020C36BB
:1005470012409E12409012407412403C12406612B4
:10055700405812404A12405F900003E0FBA3E0FAC4
:10056700A3E0F9900004121C3464017022300905DD
:10057700123DC8C20990001D74FFF0A37429F0A3AF
:100587007493F07B017A007978122113020BBD90E6
:100597000003E0FBA3E0FAA3E0F9900004121C3487
:1005A70064026003020C36D2097BFF7A3F79E212BC
:1005B7003F6B7BFF7A3E7981123F77E4FBFA7D0739
:0305C700FC7F07AF
:1005CA00020A6E900003E0FBA3E0FAA3E0F99000B0
:1005DA0004121C34B40106123DC8020C3690000302
:1005EA00E0FBA3E0FAA3E0F9900004121C346402D1
:1005FA006003020C367BFF7A3E7990123F6B7BFFD9
:10060A007A3E7981123F77E4FBFA7D0AFC7F0A027F
:10061A000A6E900003E0FBA3E0FAA3E0F99000045D
:10062A00121C3464017031E92405F9E43AFA787845
:10063A007C007D017E007F08121BF57BFF7A3E79E4
:10064A00BD123F6B7BFF7A3E79CC123F77E4FBFA0F
:10065A007D06FC7F06020A6E900003E0FBA3E0FA27
:10066A00A3E02405F9E43AFA020A82900003E0FBC7
:10067A00A3E0FAA3E0F9900003121C3424FE60738D
:10068A0014700302073324FE700302077624046001
:10069A0003020C36900004121C34B4011F7BFF7A4B
:1006AA003E79AE123F6B7B007A007900123F777B6E
:1006BA00017A007D017C007F1E020AE5900003E0BA
:1006CA00FBA3E0FAA3E0F9900004121C3464026070
:1006DA0003020C367BFF7A3E799F123F6B7B007ACE
:1006EA00007900123F777B017A007D017C007F1E32
:1006FA00020AE5123DC8900003E0FBA3E0FAA3E07A
:10070A00F9900005121C3478C2F67BFF7A39799782
:10071A00123F6B7B007A007900123F777B017A00E7
:10072A007D017C007F1E020AE5900003E0FBA3E046
:10073A00FAA3E0F9900006121C3478C3760008F692
:10074A00900005121C3478C346F608E6F67BFF7A59
:10075A003A792F123F6B7B007A007900123F777B40
:10076A00017A007D017C007F1E020AE5900003E009
:10077A00FBA3E0FAA3E02404F9E43AFA020A827835
:10078A00C1E664036007123DC878C176031240745B
:10079A0012403C12404A12405812406D900003E049
:1007AA00FBA3E0FAA3E0F9900003121C34FFD394F0
:1007BA000990001D74FF400BF0A37429F0A3749CE8
:1007CA00F0801BF0A37429F0A3747EF0900003E07C
:1007DA00FBA3E0FAA3E0F9900003121C34FF900097
:1007EA0020E4F0A3EFF0900004121C34FF900022E2
:1007FA00E4F0A3EFF07B017A0079781221137B01F0
:10080A007A007978123DB3AD077B017A0079789046
:10081A00000E7403020BD278C1E664026007123D2F
:10082A00C878C1760212406612407412404A1240D9
:10083A005812404312407B900003E0FBA3E0FAA366
:10084A00E0F9900003121C34FFD394634010900027
:10085A001D74FFF0A37429F0A374A7F080429000DE
:10086A0003E0FBA3E0FAA3E0F9900003121C34FFB3
:10087A00D3940990001D74FF400BF0A37429F0A3D0
:10088A0074AFF0801BF0A37429F0A374B8F0900041
:10089A0003E0FBA3E0FAA3E0F9900003121C34FF83
:1008AA00900020E4F0A3EFF0900004121C34FF90B3
:1008BA000022E4F0A3EFF07B017A00797812211389
:1008CA007B017A007978123DB3AD077B017A007912
:1008DA007890000E7401020BD2900003E0FBA3E0B3
:1008EA00FAA3E0F9900003121C34547F78C0F67B17
:1008FA00FF7A3779A3123F6B7B007A007900123FA7
:10090A00777B017A007D017C007F1E020AE5900058
:10091A0003E0FBA3E0FAA3E0F9900003121C34649D
:10092A00017031E92404F9E43AFA78787C007D010F
:10093A007E007F08121BF57BFF7A3E79BD123F6B62
:10094A007BFF7A3E79CC123F77E4FBFA7D06FC7F87
:10095A0006020A6E900003E0FBA3E0FAA3E0240477
:10096A00F9E43AFAE490000EF07D081236BC7BFFF7
:10097A007A3E79BD123F6B7B007A007900123F778D
:10098A007B017A007D017C007F01020AE512409E0C
:10099A00124090900003E0FBA3E0FAA3E0F9900074
:1009AA0003121C3478BFB40106E64401F68004E65B
:1009BA0054FEF67BFF7A3D799D123F6B7B007A00ED
:1009CA007900123F777B017A007D017C007F140257
:1009DA000AE5900003E0FBA3E0FAA3E0F990000324
:1009EA00121C3464016003020A8C12403590000321
:1009FA00E0FBA3E0FAA3E0F9900004121C346401BE
:100A0A007066E92405F9E43AFA78787C007D017E7B
:100A1A00007F08121BF5E4900006F0900006E0FF44
:100A2A00C39410502574782FF582E43400F583E0DE
:100A3A007010900006E02478F582E43400F583749F
:100A4A0020F0900006E004F080D17BFF7A3E79BD69
:100A5A00123F6B7BFF7A3E79CC123F77E4FBFA7D3B
:100A6A0005FC7F05FE020B3E900003E0FBA3E0FAC3
:100A7A00A3E02405F9E43AFAE490000EF07D0802B6
:100A8A000C3312402E020C36900003E0FBA3E0FA6E
:100A9A00A3E02403F9E43AFA78787C007D017E0029
:100AAA007F08121BF5900003E0FBA3E0FAA3E02401
:100ABA0003F9E43AFAE490000EF07D081236BC7BA2
:100ACA00FF7A3E79BD123F6B7B007A007900123FB4
:100ADA00777B017A007D017C007F017E0080559042
:100AEA000003E0FBA3E0FAA3E02403F9E43AFA786E
:100AFA00787C007D017E007F08121BF5900003E0E0
:100B0A00FBA3E0FAA3E02403F9E43AFAE490000E26
:100B1A00F07D081236BC7BFF7A3E79BD123F6B7BB3
:100B2A00007A007900123F777B017A007D017C0010
:100B3A007F017E001239FD020C3612407412409079
:100B4A0012409E12404A12403C124058124066908F
:100B5A000003E0FBA3E0FAA3E0F9900003121C34BF
:100B6A0024FC606724036003020C36124051900093
:100B7A0003E0FBA3E0FAA3E0F9900004121C34B4EA
:100B8A00010E78787C007D017BFF7A2979C280206A
:100B9A00900003E0FBA3E0FAA3E0F9900004121C22
:100BAA0034B4020F78787C007D017BFF7A2979C9F9
:100BBA00121FF67B017A007978123DB3AD077B01EB
:100BCA007A007978E490000EF0805E12405F90001F
:100BDA0003E0FBA3E0FAA3E0F9900004121C34B48A
:100BEA00010E78787C007D017BFF7A2979D18020FB
:100BFA00900003E0FBA3E0FAA3E0F9900004121CC2
:100C0A0034B4020F78787C007D017BFF7A2979D68B
:100C1A00121FF67B017A007978123DB3AD077B018A
:100C2A007A007978E490000EF01236BC900007E062
:040C3A00600204F060
:010C3E002293
:102F9600E4900002F078ADE66063123FC6EF24F0DD
:102FA600603924D0603324207037123F8F1240AC32
:102FB600E478ADF6900002F00000900002E004F024
:102FC600E0B464F4123B55E4900002F00000900077
:102FD60002E004F0E0B464F4228000123F8F024065
:102FE600ACE4900002F00000900002E004F0E0B4CF
:102FF60082F47B007A00799D7D100238297B007A65
:103006000079AE7D10123AB5EF60097B007A00793F
:04301600AE12005E98
:01301A002293
:093FEB0020505752204F464600B9
:102F5C0050006800000000000000000000000000AD
:072F6C0000000041006700B6
:103DDC00E4900067F078687C007D017BFF7A3F7986
:043DEC00EB021FF6D1
:1036BC0090000AEBF0A3EAF0A3E9F0A3EDF0900080
:1036CC000AE0F9A3E0FAA3E0900012C9F0A3EAF033
:1036DC00A3E9F0EDFFA3E4F0A3EFF07B017A00790E
:1036EC00681231F190000DE0FFC39410500C746817
:1036FC002FF582E43400F583E4F090000EE09000A6
:03370C0067F02241
:10386C00123FBC403B7B017A007968122DD490004A
:10387C0067E0700612409E024090900067E0B40131
:10388C00051240908017900067E0B4020612409732
:10389C0002409E900067E0B403061240971240A5C8
:0138AC0022F9
:0140FC0022A1
:0B3F9B00EF2480FFEE3447FE02000E12
:0B3FA600EF2480FFEE3447FE02318460
:1036660090000AEEF0A3EFF0A3EBF0A3EAF0A3E9D3
:01367600F063
:10367700E4900010F0F090000FE0FFA3E0FEC39F7E
:103687005032EEFF90000BE02FFF90000AE034006D
:10369700FE90000CE0FBA3E0FAA3E0F9900010E035
:1036A700F582758300121C34FD123FA6900010E0CE
:0436B70004F080C2D9
:0136BB0022EC
:0440E30012000322A2
:0140FD0022A0
:0140FE00229F
:103CEB00123C741239611239CA1240C5123FFD12CF
:0B3CFB003C0D123E04124006D2AF2226
:0A2F73004200A200004200A000008E
:093FF4003082037F00227F0122CC
:09325900781AE6FC08E6FD7F127C
:10326200EF2407FBE43EFAD3EB94FFEA9403400613
:103272007A037BFF8007EF2407FBE43EFA9000A26B
:10328200EAF0A3EBF0C3EF9407EE940050067E0041
:103292007F008008EF24F9FFEE34FFFE9000A0EEDD
:1032A200F0A3EFF0C3ED9FEC9E40109000A3E09DD1
:0E32B2009000A2E09C40047F0180027F002279
:0F3EDB00781AE6FC08E6FD7F077E0312326222AA
:0640B9007E0212325922C2
:0640BF007E0112325922BD
:0E3F3500781AE6FC08E6FDE4FFFE1232622276
:0F3EEA00781CE6FC08E6FD7F387E031232622268
:0F3EF900781CE6FC08E6FD7F747E02123262221E
:0F3F0800781CE6FC08E6FD7FB07E0112326222D3
:0F3F1700781CE6FC08E6FD7FE07E001232622295
:103E4F00123EDBEF6009123EEAEF60037F01227F33
:023E5F0000223F
:0640C500122BBC02402793
:103DF000789BE62490F8A607789B06E6C3940A40D1
:043E000002E4F622C0
:103CB300789AE6FE08667002FF2274902EF8E6FFFB
:0B3CC300789A06E6C3940A4002E4F67B
:013CCE0022D3
:103CCF00789CE6FE18667002FF2274902EF8E6FFCD
:0B3CDF00789C06E6C3940A4002E4F65D
:013CEA0022B7
:0B3FB100EF75F00BA4242AF8E6FF22B5
:103BC500EF75F00BA42428F8A60408A605AE03EFAC
:103BD50075F00BA4242BF8A606EF75F00BA4242C86
:043BE500F8E4F622E8
:0640CB00789BE618F622C6
:0740270043B10453B2FB2278
:102BBC00E4789AF608F608F6FFEF75F00BA42428D3
:102BCC00F87600087696EF75F00BA42425F87602BB
:102BDC00EF75F00BA4242AF8E4F6EF75F00BA4249F
:102BEC002BF8E4F6EF75F00BA4242CF8E4F60FEFB9
:102BFC00B40AC678417628784C76287857762878A7
:102C0C006D7628782276FF08763F0876F4782D7654
:102C1C00FF08763E0876DB783876FF087640087633
:102C2C00B9784376FF0876400876BF784E76FF0871
:102C3C00763F087635785976FF08763E0876EA783E
:102C4C006476FF08763E0876F9786F76FF08763F53
:102C5C00087608787A76FF08763F087617788576B6
:072C6C00FF08763E08764FD9
:012C7300223E
:10241300900003EFF0E075F00BA42422F9E4FAFB3B
:1024230090009DF0A3F0A3E9F0121EAD121EF3EF8E
:1024330070030224FF90009DE0FBA3E0FAA3E0F900
:10244300900003121C34FFC39405500890000374DA
:1024530005022563EFC3940A500890000374010238
:102463001C61900008121C34701490000804121CA4
:1024730094900003E075F003A404FF123DF0900074
:102483009DE0FBA3E0FAA3E0F9900006121CCCFF49
:10249300AEF0D39400EE940050030225669000043E
:1024A300121CCCC39FE5F09E5023900004E475F00A
:1024B30001121D04FCE5F06F7002EC6E600302254F
:1024C30066900003E075F003A42403802B900009B9
:1024D300121C34FFD39400500302256690000A7443
:1024E30001121C61C39F407B90000AE4121C94906C
:1024F3000003E075F003A404FF023DF090009DE0AB
:10250300FBA3E0FAA3E0F9900003121C34FFD39479
:1025130005400A9000037405121C94802BEF600A97
:1025230090000374FF121C61801E900008121C347B
:10253300B40115900008E4121C94900003E075F0B8
:1025430003A42402FF123DF090009DE0FBA3E0FAF8
:10255300A3E0F9900004E4F5F0121D5190000AE4A1
:04256300121C942290
:103D0600E4900002F0900002E0FFC3940A500B1208
:0A3D16002413900002E004F080EB9B
:013D20002280
:10396100E4F5B275B180F5B475B3FFF5B675B5FF81
:10397100F5AD75AC0FF5DB75DAFFF5DD75DCFFF53F
:10398100F975FA0475E5FF75E6FF75E7FF75EEFF5A
:0639910043F980023F51E2
:0C3F5100E4FF8FFBE4F5FC0FEFB420F65A
:013F5D002241
:07402E0075FB1253FCF722A1
:0740350075FB1243FC082299
:07403C0075FB0E53FCF72297
:0740430075FB0E43FC08228F
:07404A0075FB0B53FCF7228C
:0740510075FB0B43FC082284
:0740580075FB0A53FCF7227F
:07405F0075FB0A43FC082277
:0740660075FB0353FCF72278
:07406D0075FB0343FC082270
:0740740075FB0253FCF7226B
:07407B0075FB0243FC082263
:0740820075FB0F53FCF72250
:0740890075FB0F43FC082248
:0740900075FB0753FCF7224A
:0740970075FB0743FC082242
:07409E0075FB0653FCF7223D
:0740A50075FB0643FC082235
:0640D10012409002409E27
:0640D7001240970240A513
:1029F500EFB408004003022AD8902A05F828287366
:102A0500022A1D022A35022A4D022A64022A7B0265
:102A15002A92022AA9022AC075FB1F53FCF875FBEE
:102A25001E53FCF875FB1D53FCF075FB1C022AD5E3
:102A350075FB1B53FCF875FB1A53FCF875FB195312
:102A4500FCF075FB18022AD575FB1753FCF875FBCE
:102A55001653FCF875FB1553FCF075FB1480717566
:102A6500FB1353FCF875FB1253FCF875FB1153FC73
:102A7500F075FB10805A75FB0F53FCF875FB0E5370
:102A8500FCF875FB0D53FCF075FB0C804375FB0BD7
:102A950053FCF875FB0A53FCF875FB0953FCF075FC
:102AA500FB08802C75FB0753FCF875FB0653FCF8F7
:102AB50075FB0553FCF075FB04801575FB0353FC92
:102AC500F875FB0253FCF875FB0153FCF0E4F5FBCC
:042AD50053FCF0229C
:0C3F5E00E4FEAF061229F50EEEB408F6E2
:013F6A002234
:100C3F00EFD394074003021538ED64536004EDB40D
:100C4F0073047D35801EEDB467047D398016EDB4D5
:100C5F006C047D4C800EEDB470047D508006EDB4B5
:100C6F0078027D58ED121ECD0E28200D26300D5026
:100C7F00310D74320D89330D9E340DB3350DC836D9
:100C8F000DDA370E01380E13390E2B410E3D420E81
:100C9F0064430E85440EAC450ECA460EF1470F1243
:100CAF00480F36490F5D4A0F844B0FA84C0FCF4D9D
:100CBF000FF94E10234F104D50107451109E5210BB
:100CCF00CC5410F355111A56114857116F58118DF6
:100CDF005911B45A11DE61120862122C6312536457
:100CEF00127A6512A86612CF6812F36913176A1386
:100CFF00426B136D6D13936E13B96F13E771141865
:100D0F0072143B74146675148C7614B77714E579E6
:100D1F00150B7A00001538EF25E025E0FEC3741F90
:100D2F009EF5FB43FC0553FCFDC3741E9EF5FB4370
:100D3F00FC0553FCFDC3741D9EF5FB75FC090213E6
:100D4F0038EF25E025E0FEC3741F9EF5FB53FCF83A
:100D5F00C3741E9EF5FB53FCF8C3741D9EF5FB7503
:100D6F00FC01021338EF25E025E0FEC3741F9EF54A
:100D7F00FB43FC0653FCFE021289EF25E025E0FE43
:100D8F00C3741F9EF5FB43FC0253FCFA0211F0EFF4
:100D9F0025E025E0FEC3741F9EF5FB43FC0353FCC7
:100DAF00FB020F21EF25E025E0FEC3741F9EF5FB2C
:100DBF0043FC0353FCFB020F03EF25E025E0FEC3CA
:100DCF00741F9EF5FB43FC07020F03EF25E025E0A0
:100DDF00FEC3741F9EF5FB53FCF8C3741E9EF5FBF8
:100DEF0043FC0153FCF9C3741D9EF5FBE4F5FC02B3
:100DFF001338EF25E025E0FEC3741F9EF5FB43FC7F
:100E0F00070211F0EF25E025E0FEC3741F9EF5FBEE
:100E1F0043FC0353FCFB0211F00229F5EF25E025FB
:100E2F00E0FEC3741F9EF5FB43FC070213F9EF2589
:100E3F00E025E0FEC3741F9EF5FB53FCF8C3741E40
:100E4F009EF5FB43FC0153FCF9C3741D9EF5FB7526
:100E5F00FC0E02140EEF25E025E0FEC3741F9EF575
:100E6F00FB43FC0553FCFDC3741E9EF5FB43FC01C5
:100E7F0053FCF9020FC3EF25E025E0FEC3741F9E5C
:100E8F00F5FB53FCF8C3741E9EF5FB43FC0153FCAA
:100E9F00F9C3741D9EF5FB75FC0E021338EF25E0A8
:100EAF0025E0FEC3741F9EF5FB43FC07C3741E9E13
:100EBF00F5FB43FC0153FCF9021247EF25E025E057
:100ECF00FEC3741F9EF5FB43FC07C3741E9EF5FB08
:100EDF0043FC0153FCF9C3741D9EF5FBE4F5FC02C2
:100EEF00145CEF25E025E0FEC3741F9EF5FB43FC69
:100EFF000553FCFDC3741E9EF5FB43FC0153FCF927
:100F0F00021220EF25E025E0FEC3741F9EF5FB4380
:100F1F00FC07C3741E9EF5FB53FCF8C3741D9EF5AE
:100F2F00FBE4F5FC02140EEF25E025E0FEC3741F71
:100F3F009EF5FB53FCF8C3741E9EF5FB43FC015357
:100F4F00FCF9C3741D9EF5FB75FC0E02152FEF25E2
:100F5F00E025E0FEC3741F9EF5FB43FC0453FCFC2D
:100F6F00C3741E9EF5FB53FCF8C3741D9EF5FB75F1
:100F7F00FC08021338EF25E025E0FEC3741F9EF531
:100F8F00FB43FC07C3741E9EF5FB53FCF8C3741D93
:100F9F009EF5FB75FC010213DDEF25E025E0FEC396
:100FAF00741F9EF5FB43FC0553FCFDC3741E9EF599
:100FBF00FB53FCF8C3741D9EF5FB75FC0802152F3F
:100FCF00EF25E025E0FEC3741F9EF5FB43FC0553A0
:100FDF00FCFDC3741E9EF5FB43FC0253FCFAC37465
:100FEF001D9EF5FB75FC05021338EF25E025E0FE8D
:100FFF00C3741F9EF5FB43FC0553FCFDC3741E9E7B
:10100F00F5FB43FC0153FCF9C3741D9EF5FBE4F59E
:10101F00FC021338EF25E025E0FEC3741F9EF5FB9D
:10102F0043FC0553FCFDC3741E9EF5FB43FC0153AB
:10103F00FCF9C3741D9EF5FB75FC08021338EF25F0
:10104F00E025E0FEC3741F9EF5FB43FC07C3741E2F
:10105F009EF5FB43FC0153FCF9C3741D9EF5FBE4A5
:10106F00F5FC02129EEF25E025E0FEC3741F9EF5EE
:10107F00FB43FC0553FCFDC3741E9EF5FB43FC01B3
:10108F0053FCF9C3741D9EF5FB75FC0802113EEF6E
:10109F0025E025E0FEC3741F9EF5FB43FC07C374D8
:1010AF001E9EF5FB43FC0153FCF9C3741D9EF5FB1B
:1010BF00E4F5FCC3741C9EF5FB75FC0722EF25E0DD
:1010CF0025E0FEC3741F9EF5FB53FCF8C3741E9EF0
:1010DF00F5FB43FC0153FCF9C3741D9EF5FB75FC36
:1010EF000602152FEF25E025E0FEC3741F9EF5FBCA
:1010FF0043FC0553FCFDC3741E9EF5FB53FCF8C364
:10110F00741D9EF5FB75FC08021338EF25E025E0F2
:10111F00FEC3741F9EF5FB53FCF8C3741E9EF5FBB4
:10112F0043FC0253FCFAC3741D9EF5FBE4F5FCC3AC
:10113F00741C9EF5FB75FC0D22EF25E025E0FEC328
:10114F00741F9EF5FB43FC0553FCFDC3741E9EF5F7
:10115F00FB53FCF8C3741D9EF5FB75FC0E02133890
:10116F00EF25E025E0FEC3741F9EF5FB53FCF8C38B
:10117F00741E9EF5FB43FC0653FCFE02135AEF252B
:10118F00E025E0FEC3741F9EF5FB43FC0353FCFBFD
:10119F00C3741E9EF5FB53FCF8C3741D9EF5FB75BF
:1011AF00FC0802140EEF25E025E0FEC3741F9EF528
:1011BF00FB43FC0253FCFAC3741E9EF5FB43FC0574
:1011CF0053FCFDC3741D9EF5FB75FC0902145CEF07
:1011DF0025E025E0FEC3741F9EF5FB43FC0653FC80
:1011EF00FEC3741E9EF5FB43FC0153FCF9C3741D33
:1011FF009EF5FB75FC0802140EEF25E025E0FEC3FB
:10120F00741F9EF5FB43FC07C3741E9EF5FB53FC36
:10121F00F8C3741D9EF5FB75FC080213DDEF25E086
:10122F0025E0FEC3741F9EF5FB43FC0653FCFEC373
:10123F00741E9EF5FB53FCF8C3741D9EF5FB75FCE5
:10124F000802145CEF25E025E0FEC3741F9EF5FB3A
:10125F0043FC0653FCFEC3741E9EF5FB53FCF8C300
:10126F00741D9EF5FB75FC0802140EEF25E025E0BA
:10127F00FEC3741F9EF5FB43FC07C3741E9EF5FB54
:10128F0043FC0153FCF9C3741D9EF5FB75FC08C3A9
:10129F00741C9EF5FB75FC0322EF25E025E0FEC3D1
:1012AF00741F9EF5FB43FC07C3741E9EF5FB43FCA6
:1012BF000153FCF9C3741D9EF5FBE4F5FC02152FD9
:1012CF00EF25E025E0FEC3741F9EF5FB43FC07C32B
:1012DF00741E9EF5FB53FCF8C3741D9EF5FBE4F5DD
:1012EF00FC0213DDEF25E025E0FEC3741F9EF5FB26
:1012FF0053FCF8C3741E9EF5FB53FCF8C3741D9E7C
:10130F00F5FB75FC0602152FEF25E025E0FEC374F3
:10131F001F9EF5FB53FCF8C3741E9EF5FB53FCF8A0
:10132F00C3741D9EF5FB75FC08C3741C9EF5FB75FD
:10133F00FC0922EF25E025E0FEC3741F9EF5FB4359
:10134F00FC07C3741E9EF5FB53FCF8C3741D9EF57A
:10135F00FB75FC01C3741C9EF5FB75FC0422EF2585
:10136F00E025E0FEC3741F9EF5FB43FC0653FCFE15
:10137F00C3741E9EF5FB53FCF8C3741D9EF5FB75DD
:10138F00FC04804AEF25E025E0FEC3741F9EF5FBA9
:10139F0043FC0653FCFEC3741E9EF5FB53FCF8C3BF
:1013AF00741D9EF5FBE4F5FC8024EF25E025E0FE9F
:1013BF00C3741F9EF5FB43FC0653FCFEC3741E9EB5
:1013CF00F5FB53FCF8C3741D9EF5FB75FC08C37445
:1013DF001C9EF5FB75FC0A22EF25E025E0FEC37489
:1013EF001F9EF5FB43FC0353FCFBC3741E9EF5FBD2
:1013FF0043FC0153FCF9C3741D9EF5FBE4F5FCC3DC
:10140F00741C9EF5FB75FC0B22EF25E025E0FEC357
:10141F00741F9EF5FB53FCF8C3741E9EF5FB53FC23
:10142F00F8C3741D9EF5FB75FC048021EF25E025A4
:10143F00E0FEC3741F9EF5FB43FC07C3741E9EF5AD
:10144F00FB53FCF8C3741D9EF5FB75FC08C3741C9D
:10145F009EF5FB75FC0222EF25E025E0FEC3741F0D
:10146F009EF5FB43FC0453FCFCC3741E9EF5FB531B
:10147F00FCF8C3741D9EF5FB75FC08804FEF25E04B
:10148F0025E0FEC3741F9EF5FB53FCF8C3741E9E2C
:10149F00F5FB53FCF8C3741D9EF5FBE4F5FCC37418
:1014AF001C9EF5FB75FC0C22EF25E025E0FEC374B6
:1014BF001F9EF5FB43FC0453FCFCC3741E9EF5FBFF
:1014CF0053FCF8C3741D9EF5FB75FC0CC3741C9E76
:1014DF00F5FB75FC0822EF25E025E0FEC3741F9E87
:1014EF00F5FB53FCF8C3741E9EF5FB43FC0253FC43
:1014FF00FAC3741D9EF5FB75FC058024EF25E025CE
:10150F00E0FEC3741F9EF5FB53FCF8C3741E9EF5DB
:10151F00FB43FC0553FCFDC3741D9EF5FB75FC09D5
:0A152F00C3741C9EF5FBE4F5FC22DA
:0B2DD40090001AEBF0A3EAF0A3E9F076
:102DDF00E4A3F0FFC200E94A7003022E7590001AB7
:102DEF00E0FBA3E0FAA3E0F9123DB3EFC394084070
:102DFF002EE490001DF090001DE0FF90001AE0FB04
:102E0F00A3E0FAA3E0F98F82758300121C34FD1240
:102E1F000C3F90001DE004F0E0C3940840D822E47A
:102E2F0090001DF090001DE0FFC394085038200063
:102E3F002390001AE0FBA3E0FAA3E0F98F827583D9
:102E4F0000121C34FD60028012D20090001DE0FFC2
:102E5F007D20800790001DE0FF7D20120C3F900029
:062E6F001DE004F080BE2E
:012E7500223A
:082F7D004100910041009200A7
:103C0D00123B2F5389F75389FB5389FD438901904B
:103C1D00009174FCF0A37466F0758CFCF58AD2A942
:033C2D00D28C2214
:103B2F009000887401F0E490008AF090008CF0907F
:103B3F00008EF0A3F0900089F090008BF090008D34
:063B4F00F0900090F0224E
:03000B0002309E22
:10309E00C0E0C0F0C083C082C0D075D000C000C0F8
:1030AE0006900091E0F58CA3E0F58A900088E0048C
:1030BE00F0C394054005E4F0A304F090008AE00408
:1030CE00F0C3940A4005E4F0A304F090008CE004F1
:1030DE00F0C394644005E4F0A304F090008EE47510
:1030EE00F001121CB6FEC3E5F094E8EE9403400A1C
:1030FE0090008EE4F0A3F0A304F0D006D000D0D060
:09310E00D082D083D0F0D0E03271
:1039CA00E47819F60876030876FF0876030876FF86
:1039DA0043E101F5E843B10153B2FE43F60143B1B5
:1039EA000253B2FD43F60253E1BF43E12053E1EF34
:0339FA00D2AE2228
:103C30007819E6600CE4F6C2EBC2EAC2E9C2E88099
:103C40000C78197601C2EBC2EAC2E9D2E8000000A2
:033C5000D2EE228F
:093FFD0053B1DF43B2200240EB96
:0340EB00C2852269
:0340EE00D2852256
:0340F100B2852273
:0940060053B1BF43B2400240F780
:0340F400C286225F
:0340F700D286224C
:103BE9000A6D679C46F6375D4521EFAC5A50010BCB
:103BF900DF020A6D679C46F6375D4521EFAC5A50E6
:043C0900E10BDF02EA
:102F85004500981262ACB366450093CCCCCCCCCC52
:103E040053B1EF43B21053ACEF43AD1053ACDF43A7
:033E1400AD2022BC
:0140FF00229E
:103C9400E4FEC284EF30E704D2838002C283EF25BE
:0E3CA400E0FF00D28400000EEEB408E6C284F9
:013CB20022EF
:043E1700E4FD7FFC4B
:0F3E1B00C2B400123C94AF05123C9400D2B42202
:0A37E6007B019000207405F07F3F86
:0B37F00090001DEBF0A3EAF0A3E9F04D
:1037FB00C2B4E4FD123C94900020E0FFEDC39F5057
:10380B001A90001DE0FBA3E0FAA3E0F98D8275830B
:0D381B0000121C34FF123C940D80DCD2B46E
:01382800227D
:103BA000E4FEC284EF30E704D2838002C283EF25B3
:103BB000E0FF00D28400000EEEB408E643B10853E3
:043BC000B2F7C28412
:013BC40022DE
:103D2100E4FFFEC284EF25E0FF00D2843083034428
:093D310001FF0EEEB408ECC2849F
:013D3A002266
:103E2A00C2B400123BA0123D2153B1F743B20800BD
:023E3A00D2B400
:013E3C002263
:0B38AD00900004EBF0A3EAF0A3E9F0A8
:1038B800C2B4123BA0E4FD900007E0FFEDC39F50A7
:1038C8001A123D21900004E0FBA3E0FAA3E0F98D71
:1038D80082758300EF121C940D80DC53B1F743B25C
:0338E80008D2B44F
:0138EB0022BA
:0F3F2600123E177D8E7F20123E1B0000000022EE
:103B5500E4FEFD7FFC123E1B7D8F7F20123E1BE4A1
:103B6500FD7FFD123E1BE4FEFF000FBF00010EBEF0
:053B750007F7BFD0F4CA
:013B7A002228
:0A3FC6007F07123E2AEF5470FF221D
:0640DD007F09123E2A22B9
:0740AC007D707F27023E1B1F
:0C3F8F00E4FD7FE1123E1B7FE2023E1BBE
:0E3F4300AC07123E17AF04AD077F25023E1BF0
:06382900123FC6EF703CE7
:10382F00900003F0A3F0900020EDF07FA01237F08E
:10383F00E4FD7FFD123E1BE4900003F0A3F0009027
:10384F000004E004F07006900003E004F090000321
:0C385F00E07004A3E064C870E5123E179E
:01386B00223A
:103AB500AC05123FC6EF30E61D123E17900007EC2D
:103AC500F07F611238AD123F8F1240ACE4FD7FFDEF
:093AD500123E1B7F01227F00223A
:1026AC00780A7C007D017BFF7A3B79E97E007F050F
:1026BC00121BF5780F7C007D017BFF7A3B79EE7E57
:1026CC00007F03121BF578127C007D017BFF7A3BA7
:1026DC0079F17E007F06121BF578187C007D017B5A
:1026EC00FF7A3B79F77E007F01121BF578197C008D
:1026FC007D017BFF7A3B79F87E007F03121BF5127C
:10270C0040FF7D5A7F53123E1B7DA57F53123E1B0B
:10271C007D207F3D123E1B123E177FE1123E1B7F38
:10272C00E2123E1B7D707F27123E1B7D017F221221
:10273C003E1B7D037F23123E1B7D4E7F25123E1BCD
:10274C007D107F31123E1B7B017A00799390002023
:10275C007405F07F301237F07B017A00799390008A
:10276C00207405F07F2A1237F07A00790A1237E6C6
:10277C007B017A0079129000207406F07F3A1237B0
:10278C00F07B017A0079189000207401F07F3912E7
:10279C0037F07B017A00790F9000207403F07F3EB4
:1027AC001237F07B017A0079199000207403F07FC6
:1027BC003B1237F0E4FD7F3C123E1B7D3F7F26121F
:0E27CC003E1BE4FD7F24123E1B7F21023E1BBC
:052AD900900042EFF047
:102ADE00E478437C007D017BFF7A3B79FBFE7F052A
:102AEE00121BF578487C007D017BFF7A3C79007ED5
:102AFE00007F03121BF5784B7C007D017BFF7A3C37
:102B0E0079037E007F06121BF578517C007D017BD8
:102B1E00FF7A3C79097E007F01121BF578527C000A
:102B2E007D017BFF7A3C790A7E007F03121BF57DC7
:102B3E005A7F53123E1B7DA57F53123E1B7D207F75
:102B4E003D123E1B123E17E4FF000000000FEFB4D3
:102B5E00DCF7900042E0FD7F25123E1B7D3F7F2675
:102B6E00123E1B7A0079431237E67B017A00794BCD
:102B7E009000207406F07F3A1237F07B017A0079CC
:102B8E00519000207401F07F391237F07B017A00EA
:102B9E0079489000207403F07F3E1237F07B017A63
:0E2BAE000079529000207403F07F3B0237F054
:01410000229C
:10318400EFF5A6EEF5A7A2AF920AC2AF75C7AA756E
:10319400C755439F01A20A92AFA2AF920AC2AF756C
:1031A400C7AA75C75543A501A20A92AF75AF21AF4F
:1031B400058FAEA2AF920AC2AF75C7AA75C75543B1
:1031C400A401A20A92AFA2AF920AC2AF75C7AA75B0
:1031D400C75553A5FEA20A92AFA2AF920AC2AF7519
:0D31E400C7AA75C755539FFEA20A92AF22DD
:10000E008FA6EEF5A775AEFFA2AF920AC2AF75C767
:10001E00AA75C755439F01A20A92AFA2AF920AC218
:10002E00AF75C7AA75C75543A501A20A92AF75AFA2
:10003E0022A2AF920AC2AF75C7AA75C75543A401D3
:05004E00A20A92AF229E
:102D29009000A4EEF0A3EFF0A3EBF0A3EAF0A3E97F
:012D3900F0A9
:102D3A009000A4E0FEA3E0F5A6EEF5A7A2AF920AE2
:102D4A00C2AF75C7AA75C755439F01A20A92AFA21F
:102D5A00AF920AC2AF75C7AA75C75543A501A20AA1
:102D6A0092AF75AF21E4FEFF9000A9E0FDC3EF9D8D
:102D7A00EE9400502E9000A6E0FBA3E0FAA3E0F93F
:102D8A008F828E83121C34F5AEA2AF920AC2AF753F
:102D9A00C7AA75C75543A401A20A92AF0FBF000183
:102DAA000E80C5A2AF920AC2AF75C7AA75C755539E
:102DBA00A5FEA20A92AFA2AF920AC2AF75C7AA75C0
:092DCA00C755539FFEA20A92AF07
:012DD30022DD
:040003008F828E83D7
:03000700E493FF80
:01000A0022D3
:10256700EF14604414606F1470030226061470039E
:10257700022642240460030226A6A2AF920AC2AF33
:1025870075C7AA75C755439780A20A92AFA2AF92A3
:102597000AC2AF75C7AA75C7555397BFA20A92AFAC
:1025A700E59630E7FB02266DA2AF920AC2AF75C768
:1025B700AA75C75553977FA20A92AFA2AF920AC2D4
:1025C700AF75C7AA75C755439740A20A92AFE5965C
:1025D70030E6FB02266DA2AF920AC2AF75C7AA7595
:1025E700C755439720A20A92AFE59630E5FBA2AF05
:1025F700920AC2AF75C7AA75C7555396FB8027A223
:10260700AF920AC2AF75C7AA75C755439710A20AFA
:1026170092AFE59630E4FBA2AF920AC2AF75C7AAA4
:1026270075C755439604A20A92AFA2AF920AC2AFEA
:1026370075C7AA75C7555396FD804DA2AF920AC2BA
:10264700AF75C7AA75C75553977FA20A92AFA2AFB6
:10265700920AC2AF75C7AA75C7555397BFA20A9208
:10266700AFE59630E3FBA2AF920AC2AF75C7AA7572
:10267700C7555396FBA20A92AFA2AF920AC2AF7593
:10268700C7AA75C755439602A20A92AFA2AF920A8C
:10269700C2AF75C7AA75C7555396FEA20A92AFE592
:0526A7009720E0FB227A
:103ADE0075985243892053877F538EEF53C4DFABC3
:103AEE0007AA06A905A804E47F807E70FDFC121DBE
:093AFE00BAEFF404F58DD28E221A
:103B0700759852438920438780538EEF53C4DFABA8
:103B170007AA06A905A804E4FF7EE1FDFC121DBA69
:083B2700EFF404F58DD28E22AB
:103A610075985243892053877F438E1053C4DFAB2F
:103A710007AA06A905A8047F007E467D057C0012E1
:0A3A81001DBAEFF404F58DD28E2279
:103A8B00759852438920438780438E1053C4DFAB14
:103A9B0007AA06A905A8047F007E8C7D0A7C00126C
:0A3AAB001DBAEFF404F58DD28E224F
:1032C0009000AA121E7075985253877F53C4F8431A
:1032D000C4209000AAE0F8A3E0F9A3E0FAA3E0FB81
:1032E0007F007E467D057C00121DBAC3E49FFFE48B
:1032F0009EFE74019DFDE49CFC7808121E5D8FC645
:103300009000AAE0F8A3E0F9A3E0FAA3E0FB7F00B5
:103310007E467D057C00121DBAC3E49FFF8FC54326
:03332000C40822BC
:103323009000AE121E7075985243878053C4F843C1
:10333300C4209000AEE0F8A3E0F9A3E0FAA3E0FB19
:103343007F007E8C7D0A7C00121DBAC3E49FFFE4DC
:103353009EFE74019DFDE49CFC7808121E5D8FC6E1
:103363009000AEE0F8A3E0F9A3E0FAA3E0FB7F004E
:103373007E8C7D0A7C00121DBAC3E49FFF8FC54378
:03338300C4082259
:103446009000B2121E7075F85253C4F89000B2E0A4
:10345600F8A3E0F9A3E0FAA3E0FB7F007E8C7D0AE7
:103466007C00121DBAC3E49FFFE49EFE74019DFD1D
:10347600E49CFC7808121E5D8FC69000B2E0F8A3AB
:10348600E0F9A3E0FAA3E0FB7F007E8C7D0A7C00D6
:0D349600121DBAC3E49FFF8FC543C4082276
:070053003098FDAF99C2983F
:01005A002283
:08400F00C2998F993099FD223E
:0740170030F8FDAF9AC2F87A
:01401E00227F
:08401F00C2F98F9A30F9FD226D
:103D3B00E4F5B1F5B2F5B3F5B4F5B5F5B6F5ACF50B
:0A3D4B00ADF5DAF5DBF5DCF5DD225D
:103C740075B1FFE4F5B275B3FFF5B475B5FFF5B6EC
:103C840075ACFFF5AD75DAFFF5DB75DCFFF5DD220C
:103D550075C7AA75C755A2AF920AC2AF75C7AA752E
:0A3D6500C755439F80A20A92AF22C7
:0440E70043AD802243
:1038EC00EF640A701C30F811E59AB4130CC2F8306E
:1038FC00F8FDE59AB411F6C2F830F9FDC2F9759AE3
:10390C000D30F811E59AB4130CC2F830F8FDE59AB5
:0D391C00B411F6C2F830F9FDC2F98F9A22FD
:06301B0090FFF8121EF9FF
:10302100850D83850E82121E7C00000000E47FFF67
:103031007EFFFDFC850D83850E82E0F8A3E0F9A3F8
:10304100E0FAA3E0FBC3121E4C504C900004121F87
:103051001DE0FCA3E0FDA3E0FEA3E02401FFE43EAC
:10306100FEE43DFDE43CFC900004121F1D121E70A5
:10307100850D83850E82E0FCA3E0FDA3E0FEA3E0C5
:103081002401FFE43EFEE43DFDE43CFC850D838527
:073091000E82121E708096F2
:06309800900008021EF981
:103C5300538EF7438901D28CEF4E6012758AF77544
:103C63008CFF308DFDC28DEF1F70ED1E80EAC28C7C
:013C7300222E
:1035B4009000B6121E70538EF7438901D28CE4FF3B
:1035C400FEFDFC9000B6E0F8A3E0F9A3E0FAA3E066
:1035D400FBC3121E4C602F758A65758CFC308DFD03
:1035E400C28D9000B6E0FCA3E0FDA3E0FEA3E024BE
:1035F400FFFFEE34FFFEED34FFFDEC34FFFC9000E2
:09360400B6121E7080B8C28C22BF
:10360D009000BA121E70538EEF438910D28EE4FFD4
:10361D00FEFDFC9000BAE0F8A3E0F9A3E0FAA3E008
:10362D00FBC3121E4C602F758B65758DFC308FFDA5
:10363D00C28F9000BAE0FCA3E0FDA3E0FEA3E0245E
:10364D00FFFFEE34FFFEED34FFFDEC34FFFC900088
:09365D00BA121E7080B8C28E2260
:1034FF009000BE121E7075C40243C408E4FFFEFDA7
:10350F00FC9000BEE0F8A3E0F9A3E0FAA3E0FBC350
:10351F00121E4C603275C53375C6F5E5C430E4FB39
:10352F0053C4EF9000BEE0FCA3E0FDA3E0FEA3E0D8
:10353F0024FFFFEE34FFFEED34FFFDEC34FFFC9073
:0B354F0000BE121E7080B553C4F722AE
:103386009000C2121E70538FFB538FFD538FFEE4C5
:10339600F586538FDF438F08E4FFFEFDFC9000C2E5
:1033A600E0F8A3E0F9A3E0FAA3E0FBC3121E4C6029
:1033B6002CE58F30E4FB538FEF9000C2E0FCA3E0D6
:1033C600FDA3E0FEA3E024FFFFEE34FFFEED34FF95
:1033D600FDEC34FFFC9000C2121E7080BB538FF7C9
:0133E60022C4
:1027DA000A3D3D3D3D3D3D3D3D3D3D3D3D3D3D3D52
:1027EA003D3D3D3D3D3D3D3D3D3D3D3D3D3D3D3D0F
:1027FA003D3D3D3D3D3D3D3D3D3D3D3D3D3D3D3DFF
:10280A003D3D3D3D3D3D3D3D3D3D3D3D3D3D3D3DEE
:10281A003D3D3D3D3D000A2A2020436F7079726993
:10282A006768742863292032303135204E75766FF7
:10283A00746F6E20546563686E6F6C6F677920439E
:10284A006F72702E20416C6C2072696768747320F5
:10285A0072657365727665642E2020000A2A20202C
:10286A00436F6E7461637420452D4D61696C3A2023
:10287A004D6963726F432D38626974406E75766F65
:10288A00746F6E2E636F6D20202020202020202060
:10289A00202020202020202020202020202020202E
:1028AA0020000A2A202044656D6F205665727369DC
:1028BA006F6E20203A202532642E2532642E25326E
:1028CA0064000A2A202046696E6973686564204498
:1028DA00617465203A202532642E2532642E253211
:0228EA00640088
:1033E7007BFF7A2779DA1221197BFF7A2879201255
:1033F70021197BFF7A2879661221197BFF7A2879B0
:10340700AC90001DE4F0A304F0E4A3F0A3F0A3F054
:10341700A3F01221197BFF7A2879CC90001D74073D
:10342700F0A374DFF0A3E4F0A37405F0A3E4F0A322
:0F343700741FF01221197BFF7A2779DA0221190D
:03000000022E7657
:102E7600787FE4F6D8FD9000007FFF7E01E4F0A3A2
:0A2E8600DFFCDEFA7581C5022ECBD9
:102E9000023117E493A3F8E493A34003F68001F210
:102EA00008DFF48029E493A3F85407240CC8C33343
:102EB000C4540F4420C8834004F456800146F6DF12
:102EC000E4800B0102040810204080902F10E47E63
:102ED000019360BCA3FF543F30E509541FFEE49307
:102EE000A360010ECF54C025E060A840B8E493A3CE
:102EF000FAE493A3F8E493A3C8C582C8CAC583CAF9
:102F0000F0A3C8C582C8CAC583CADFE9DEE780BEB0
:012F9500003B
:101B2500E709F608DFFA8046E709F208DFFA803EA2
:101B350088828C83E709F0A3DFFA8032E309F6088F
:101B4500DFFA8078E309F208DFFA807088828C83F7
:101B5500E309F0A3DFFA806489828A83E0A3F608AB
:101B6500DFFA805889828A83E0A3F208DFFA804C85
:101B750080D280FA80C680D4806980F2803380105C
:101B850080A680EA809A80A880DA80E280CA8033C5
:101B950089828A83ECFAE493A3C8C582C8CCC5833D
:101BA500CCF0A3C8C582C8CCC583CCDFE9DEE7800D
:101BB5000D89828A83E493A3F608DFF9ECFAA9F08C
:101BC500EDFB2289828A83ECFAE0A3C8C582C8CCE2
:101BD500C583CCF0A3C8C582C8CCC583CCDFEADEFB
:101BE500E880DB89828A83E493A3F208DFF980CC5D
:101BF50088F0EF60010E4E60C388F0ED2402B40456
:101C05000050B9F582EB2402B4040050AF232345FC
:061C15008223901B757391
:101C1B00BB010689828A83E0225002E722BBFE02C7
:091C2B00E32289828A83E49322FA
:101C3400BB010CE58229F582E5833AF583E0225065
:101C440006E92582F8E622BBFE06E92582F8E222AF
:0D1C5400E58229F582E5833AF583E49322C9
:101C6100BB010FF8E58229F582E5833AF583E02887
:101C7100F0225009C58229F8E58226F622BBFE0929
:101C8100C58229F8E22582F222F8EA2583F583E963
:031C910093282273
:101C9400F8BB010DE58229F582E5833AF583E8F086
:101CA400225006E92582C8F622BBFE05E92582C832
:021CB400F2221A
:101CB600C5F0F8A3E028F0C5F0F8E58215827002B9
:061CC6001583E038F02256
:101CCC00BB0110E58229F582E5833AF583E0F5F056
:101CDC00A3E0225009E92582F886F008E622BBFE33
:101CEC000AE92582F8E2F5F008E222E5832AF58379
:081CFC00E993F5F0A3E993223E
:101D0400BB010DC58229C582C5833AC583021CB6B1
:101D14005011C58229F808E5F026F618F5F0E58299
:101D240036F622BBFE11C58229F808E225F0F5F04B
:101D3400F218E23582F222F8E58229F582E5832A57
:0D1D4400F58374019325F0F5F0E493382247
:101D5100F8BB0111E58229F582E5833AF583E8F0C4
:101D6100E5F0A3F0225009E92582C8F608A6F02281
:0D1D7100BBFE09E92582C8F2E5F008F22268
:101D7E0075F008758200EF2FFFEE33FECD33CDCC1C
:101D8E0033CCC58233C5829BED9AEC99E58298409F
:101D9E000CF582EE9BFEED9AFDEC99FC0FD5F0D67C
:101DAE00E4CEFBE4CDFAE4CCF9A88222B800C1B9A6
:101DBE000059BA002DEC8BF084CFCECDFCE5F0CBE4
:101DCE00F97818EF2FFFEE33FEED33FDEC33FCEB1D
:101DDE0033FB10D703994004EB99FB0FD8E5E4F9D8
:101DEE00FA227818EF2FFFEE33FEED33FDEC33FCC5
:101DFE00C933C910D7059BE99A4007EC9BFCE99AB9
:101E0E00F90FD8E0E4C9FAE4CCFB2275F010EF2FFD
:101E1E00FFEE33FEED33FDCC33CCC833C810D707FD
:101E2E009BEC9AE899400AED9BFDEC9AFCE899F838
:0E1E3E000FD5F0DAE4CDFBE4CCFAE4C8F922CB
:101E4C00EB9FF5F0EA9E42F0E99D42F0E89C45F0EC
:011E5C002263
:101E5D00E8600FECC313FCED13FDEE13FEEF13FF63
:031E6D00D8F12287
:0C1E7000ECF0A3EDF0A3EEF0A3EFF022E5
:101E7C00A8828583F0D083D082121E93121E9312F7
:101E8C001E93121E93E473E493A3C583C5F0C5831C
:101E9C00C8C582C8F0A3C583C5F0C583C8C582C8B0
:011EAC002213
:101EAD00BB010789828A830220705005E9F8022060
:101EBD0067BBFE05E9F802209989828A830220A278
:101ECD00D083D082F8E4937012740193700DA3A3A4
:101EDD0093F8740193F5828883E4737402936860B8
:061EED00EFA3A3A380DFB8
:061EF3008A838982E4737A
:101EF900E50E2582F582E50D3583F583B50D04855B
:101F0900820E2210AF0685820EF50D2285820EF50E
:041F19000DD2AF2214
:0D1F1D00E50E2582F582E50D3583F5832262
:1020AE00E508241DF582E43400F583E0050822904E
:1020BE00001A30070390001DE475F001122079021A
:1020CE001C1B2000E97F2ED2008018EF540F2490A5
:1020DE00D43440D4FF30040BEF24BFB41A005003A5
:1020EE002461FFE50960021509050CE50C70020577
:1020FE000B30070E90001AE475F001122079EF02F2
:10210E00203F0238EC7403D2078003E4C207F508BF
:10211E0090001A122090E4F509F50BF50CE5096014
:10212E00077F201220F180F5750AFFC201C200C29E
:10213E0002C203C205C206C2081220BDFF700D30D6
:10214E0007057F00122102AF0CAE0B22B4255FC231
:10215E00D5C2041220BDFF24D0B40A00501A75F067
:10216E000A780930D50508B6FF0106C6A426F62062
:10217E00D5047002D20380D924CFB41A00EF5004D4
:10218E00C2E5D204022303D20180C6D20080C0D29F
:10219E000280BCD2D580BAD20580B47F201220F145
:1021AE002002077401B5090040F11220AEFF122083
:1021BE00F102212BD208D20680951220AEFB1220FE
:1021CE00AEFA1220AEF94A4B700679D47A237BFF11
:1021DE0020022EE509602A7E008E82758300121C75
:1021EE003460060EEE650A70F0C2D5EBC0E0EAC0B0
:1021FE00E0E9C0E0EE12234AD0E0F9D0E0FAD0E0F8
:10220E00FB121C1BFF60AAEBC0E0EAC0E0E9C0E0D5
:10221E001220F1D0E02401F9D0E03400FAD0E0FB36
:10222E00E50A0460DCD50AD980877BFF7A237946DC
:10223E00D202809C791080027908C206C2088008FA
:10224E00D2D5790A8004790AC2D5E50A047002F55E
:10225E000AE4FAFDFEFF1220AEFC7B0820011312E9
:10226E0020AEFD7B1030000A1220AEFE1220AEFF13
:10227E007B20EC3382D592D55013C3E43000069FF9
:10228E00FFE49EFEE42001039DFDE49CFCE4CBF8FC
:10229E00C201EC700CCFCECDCCE824F8F870F380F0
:1022AE0017C3EF33FFEE33FEED33FDEC33FCEB33B0
:1022BE00FB994002FB0FD8E9EB300105F8D0E0C4E2
:1022CE0048B201C0E00AEC4D4E4F78207B0070C240
:1022DE00EAB50A0040BCC0E012234CD0F0D0E0209A
:1022EE000104C4C0E0C4B201C0F01220DAD0F0D5AF
:1022FE00F0EB02212B121ECD21C8532242582199F8
:10230E004C21954222464F224E44224E4921AE4345
:08231E002254552238462238F2
:102326004522384723F450219D2D21A12E21C42B6F
:1023360021A52321C22023DD2A215D48000021BCDE
:102346003F3F3F00790AA2D5200314300509B91092
:10235600020404B9080104A2D52006025001042093
:1023660002689202B509005034C0E07F203003199C
:102376007F30A20272067205500F1223A3C202C258
:1023860006C205C2087F30800F300503E9C0E0129F
:1023960020F1300503D0E0F9D0E0B509CC300517BF
:1023A6007F30B9100C1220F17F583004077F7880F7
:1023B60003B908031220F13002057F2D0220F17FB8
:1023C600202008F87F2B2006F322920280CF286E69
:1023D600756C6C2900D2011220AE3001F8C201786A
:1023E6000930D50108F602215D2D504349581220C7
:1023F600AE2403B405004001E49023EF931220E2DB
:0D240600743A1220E2D2037509040222424A
:101F2A00E709F60870FA8046E709F20870FA803E77
:101F3A0088828C83E709F0A370FA807EE309F608A9
:101F4A0070FA8076E309F20870FA806E88828C83D0
:101F5A00E309F0A370FA806289828A83E0A3F60813
:101F6A0070FA805689828A83E0A3F20870FA804A5E
:101F7A0080D280FA80C680D4806580F28031801059
:101F8A0080A680EA809A80A880DA80E280CA8031BE
:101F9A0089828A83ECFAE493A3C8C582C8CCC58334
:101FAA00CCF0A3C8C582C8CCC583CC70E9800D89A2
:101FBA00828A83E493A3F60870F9ECFAA9F0EDFBA0
:101FCA002289828A83ECFAE0A3C8C582C8CCC58379
:101FDA00CCF0A3C8C582C8CCC583CC70EA80DD89A1
:101FEA00828A83E493A3F20870F980CE88F0ED2404
:101FFA0002B4040050C4F582EB2402B4040050BABF
:09200A002323458223901F7A7301
:1031F10090000FEBF0A3EAF0A3E9F0E4900017F0E0
:10320100A3F090001574FFF5F012205145F0603CD9
:10321100900012E0FBA3E0FAA3E0F9121C1BFF905F
:10322100000FE0FBA3E0FAA3E0F9900017E475F0CA
:103231000112205185F082F583EF121C94EF60C2D8
:10324100900013E475F001121CB680B690000FE0F7
:08325100FBA3E0FAA3E0F9225F
:103DB300E4FFFE121C1B600C0FEF70010E09E9708B
:053DC300F20A80EF226E
:10201300EF4E6012EF60010EEDBB010B89828A83E4
:10202300F0A3DFFCDEFA2289F05007F709DFFCA9F1
:0C203300F022BBFEFCF309DFFCA9F02248
:10203F00BB010689828A83F0225002F722BBFE0180
:02204F00F3227A
:10205100A3F8E0C5F025F0F0E58215827002158342
:06206100E0C838F0E8229F
:09206700E6FB08E6FA08E6F9229E
:09207000E0FBA3E0FAA3E0F92271
:10207900F8E0FBA3A3E0F925F0F0E58215827002F0
:072089001583E0FA38F02294
:09209000EBF0A3EAF0A3E9F02251
:09209900E2FB08E2FA08E2F92278
:0C20A200E493FB740193FA740293F9229A
:00000001FF
