:082D84004100BA004100BB0050
:03005B00023195DA
:10319500C0E0C0D075D000C000C001C005C006C0E9
:1031A50007C2EFAFC37816E6FD25E02417F87600D1
:1031B50008A607ED25E02417F8C000F9E7FE09E7A2
:1031C5007802C333CE33CED8F9D000A60608F6ED83
:1031D50025E02417F8AFC2E6F6EF0846F6D007D08B
:0C31E50006D005D001D000D0D0D0E032E0
:102E77007F0212239112386F1236FF123948123C23
:102E87002A900088E06005E4F01237B490008AE0E9
:0D2E97006005E4F012388A90008CE06020A5
:102EA400E4900001F090008CF0122A8B12342890E8
:102EB40000BAE004F0E0C394054002E4F0122C7C74
:062EC40090008FE06008A1
:082ECA00E4F09000BBE004F00D
:102ED200123837900000EFF060ACE0FF12139B80D5
:012EE200A54A
:042D8C004100BC0046
:05139B00900002EFF0DC
:1013A000E4A3F0A3F0900003F0FE7F10FDFB7A00B1
:1013B000799D121E3D900002E024FEB41900400306
:1013C00002193B9013D175F003A4C58325F0C583A2
:1013D0007302141C02147D0214D902193B02152F4A
:1013E00002158502193B0215DB02163102193B0278
:1013F00016870216DD02193B0217330217890219FC
:101400003B02193B0217E902193B02183F02193B44
:1014100002189502193B02193B0218E89000BCE043
:101420007053900003E0FF04F0749D2FF876F2E013
:10143000FF04F0749D2FF87601E0FF04F0749D2FF7
:10144000F87654E4A3F0789EE62401FFE433FE909E
:101450000004E0FDC39FEE6480F874809850167419
:101460009E2DF8E6FF900003E0249DF8EF26F6A3FA
:10147000E004F080D1E49000BCF002193B9000BC85
:101480007401F0900003E0FF04F0749D2FF876F2F1
:10149000E0FF04F0749D2FF87601E0FF04F0749DE6
:1014A0002FF87601E4A3F0789EE62401FFE433FEF2
:1014B000900004E0FDC39FEE6480F87480984003C0
:1014C00002193B749E2DF8E6FF900003E0249DF87E
:1014D000EF26F6A3E004F080CE900003E0FF04F0D6
:1014E000749D2FF876F2E0FF04F0749D2FF87601DA
:1014F000E0FF04F0749D2FF87606E4A3F0789EE6F2
:101500002401FFE433FE900004E0FDC39FEE6480FD
:10151000F8748098400302193B749E2DF8E6FF9002
:101520000003E0249DF8EF26F6A3E004F080CE90BF
:101530000003E0FF04F0749D2FF876F2E0FF04F062
:10154000749D2FF87601E0FF04F0749D2FF8760764
:10155000E4A3F0789EE62401FFE433FE900004E06B
:10156000FDC39FEE6480F8748098400302193B74B9
:101570009E2DF8E6FF900003E0249DF8EF26F6A3E9
:10158000E004F080CE900003E0FF04F0749D2FF89B
:1015900076F2E0FF04F0749D2FF87601E0FF04F08E
:1015A000749D2FF87603E4A3F0789EE62401FFE40F
:1015B00033FE900004E0FDC39FEE6480F8748098D1
:1015C000400302193B749E2DF8E6FF900003E024CF
:1015D0009DF8EF26F6A3E004F080CE900003E0FF34
:1015E00004F0749D2FF876F2E0FF04F0749D2FF85C
:1015F0007601E0FF04F0749D2FF87603E4A3F07801
:101600009EE62401FFE433FE900004E0FDC39FEE5C
:101610006480F8748098400302193B749E2DF8E6AC
:10162000FF900003E0249DF8EF26F6A3E004F0808D
:10163000CE900003E0FF04F0749D2FF876F2E0FFF7
:1016400004F0749D2FF87601E0FF04F0749D2FF8EC
:101650007602E4A3F0789EE62401FFE433FE9000D6
:1016600004E0FDC39FEE6480F87480984003021983
:101670003B749E2DF8E6FF900003E0249DF8EF26D2
:10168000F6A3E004F080CE900003E0FF04F0749D28
:101690002FF876F2E0FF04F0749D2FF87601E0FF5A
:1016A00004F0749D2FF87602E4A3F0789EE62401FE
:1016B000FFE433FE900004E0FDC39FEE6480F87405
:1016C0008098400302193B749E2DF8E6FF900003BA
:1016D000E0249DF8EF26F6A3E004F080CE9000030E
:1016E000E0FF04F0749D2FF876F2E0FF04F0749DA3
:1016F0002FF87601E0FF04F0749D2FF87604E4A340
:10170000F0789EE62401FFE433FE900004E0FDC380
:101710009FEE6480F8748098400302193B749E2DFC
:10172000F8E6FF900003E0249DF8EF26F6A3E0041E
:10173000F080CE900003E0FF04F0749D2FF876F265
:10174000E0FF04F0749D2FF87601E0FF04F0749D33
:101750002FF87604E4A3F0789EE62401FFE433FE3C
:10176000900004E0FDC39FEE6480F874809840030D
:1017700002193B749E2DF8E6FF900003E0249DF8CB
:10178000EF26F6A3E004F080CE900003E0FF04F023
:10179000749D2FF876F2E0FF04F0749D2FF8760226
:1017A000E0FF04F0749D2FF87609E0FF04F0749DCB
:1017B0002FF87603E4A3F0789EE62401FFE433FEDD
:1017C000900004E0FDC39FEE6480F87480984003AD
:1017D00002193B749E2DF8E6FF900003E0249DF86B
:1017E000EF26F6A3E004F080CE900003E0FF04F0C3
:1017F000749D2FF876F2E0FF04F0749D2FF87601C7
:10180000E0FF04F0749D2FF87605E4A3F0789EE6DF
:101810002401FFE433FE900004E0FDC39FEE6480EA
:10182000F8748098400302193B749E2DF8E6FF90EF
:101830000003E0249DF8EF26F6A3E004F080CE90AC
:101840000003E0FF04F0749D2FF876F2E0FF04F04F
:10185000749D2FF87601E0FF04F0749D2FF8760553
:10186000E4A3F0789EE62401FFE433FE900004E058
:10187000FDC39FEE6480F8748098400302193B74A6
:101880009E2DF8E6FF900003E0249DF8EF26F6A3D6
:10189000E004F080CE900003E0FF04F0749D2FF888
:1018A00076F2E0FF04F0749D2FF87601E0FF04F07B
:1018B000749D2FF87608E4A3F0789EE62401FFE4F7
:1018C00033FE900004E0FDC39FEE6480F8748098BE
:1018D0005069749E2DF8E6FF900003E0249DF8EF18
:1018E00026F6A3E004F080D1900003E0FF04F0743A
:1018F0009D2FF876F2E0FF04F0749D2FF87601E05A
:10190000FF04F0749D2FF876B9E4A3F0789EE624E6
:1019100001FFE433FE900004E0FDC39FEE6480F815
:101920007480985016749E2DF8E6FF900003E02412
:101930009DF8EF26F6A3E004F080D1900003E0606C
:0E1940000D04F07B007A00799DE0FD1233511A
:01194E002276
:033C2A00023BD288
:013C3C002265
:013C3D002264
:013C3E002263
:0C3AD700900060EBF0A3EAF0A3E9F022FD
:0C3AE300900063EBF0A3EAF0A3E9F022EE
:1039CD00900060A3E0FAA3E0F94A6003121D1D22E6
:1039DD00900063A3E0FAA3E0F94A6003121D1D22D3
:10358100EF4E602D900056EEF0A3EFF0AF05A3ECE7
:10359100F0A3EFF0AF03A3EAF0A3EFF0E4A3F0A3ED
:1035A100F0A3F0A3F0900055F090005404F012390C
:0235B100CD2229
:10393400E4900054F01239DD7B007A007900123AE9
:04394400D7023AE389
:0A005100900054E06002D322C322A5
:102A8B00900054E07003022B3F900058E0FEA3E04F
:102A9B00FF4E7003022B3F900055E07035D3EF943F
:102AAB0000EE94005003022B3F90005CE475F001A4
:102ABB00121AE0FED3900057E095F0900056E09E7E
:102ACB0050721239DDE490005CF0A3F090005504D5
:102ADB00F022900055E06401705A90005C75F00193
:102AEB00121AE0FED3900059E095F0900058E09E4A
:102AFB00504290005AE0FEA3E0FF9400EE94004099
:102B0B002590005EE475F001121AE0FCD3EF95F00E
:102B1B00EE9C5005E4900054F0900054E070079048
:102B2B000058F0A3F022E490005CF0A3F090005565
:052B3B00F01239CD226B
:102716002042415A4F4F4B410020505752204F46BE
:102726004600414343204F4E00414343204F464617
:102736000020564F4C2025750020202020202020E8
:1027460020002020205041555345002020202050B5
:102756004C4159005343414E4E494E4700202020DC
:102766004D55544520002020204E45585420002029
:1027760020205052455620002020202053542575F5
:10278600005452202575002050414952494E4700B9
:102796002020504149524544005457532053434149
:1027A6004E002020545753204F4B0020202020203D
:1027B60025752530327500202020202575253032DC
:1027C6007500464D202575257500464D202025753A
:1027D600257500464D202020257525750050524947
:1027E6005245440050414952494E4700504C4159C8
:1027F600004D555445000000000000000000000098
:06280600000000000000CC
:102D900001AD0010AE0000000000000000000000C7
:102DA0000000000000109D00000000000000000076
:102DB000000000000000005000770000000000004C
:0C2DC00000000000000000000000C1093D
:1036FF00E478ADF6FE7F10FDFB7A0079AE121E3D29
:10370F007E007F107D007B007A00799D121E3D1296
:05371F0024D60236D99A
:10335100900005EBF0A3EAF0A3E9F0A3EDF0D3941C
:1033610010503D123A9278AD7601900005E0FBA332
:10337100E0FAA3E0F990009DEB7008E96582700323
:10338100EA6583601B900008E0FF7E00789D7C0069
:103391007D00900005E0FBA3E0FAA3E0F9121A1FFB
:0133A1002209
:1038F3007810E67BFF30E1067A27791680047A2771
:06390300791F122B402287
:103909007810E67BFF30E0067A27792880047A2749
:06391900792F122B402261
:10000E0078097C007D017BFF7A2779FC7E007F10CA
:10001E00121A1F123BD9123BE790001C74FFF0A37B
:10002E007427F0A37437F07811E6FFA3E4F0A3EF82
:10003E00F07B017A007909121F3D7B017A00790964
:03004E00022B4042
:0F39ED007BFF7A27793F122B40123BD9023BE731
:093B10007BFF7A277948022B4063
:093B19007BFF7A277951022B4051
:1039A9007BFF7A27795A122B40123BD9123BE70247
:0239B9003BBD14
:093B22007BFF7A277963022B4036
:093B2B007BFF7A277951022B403F
:0F39FC007BFF7A277948122B40123BD9023BE719
:0F3A0B007BFF7A27796C122B40123BD9023BE7E5
:0F3A1A007BFF7A277975122B40123BD9023BE7CD
:10351B0090001C74FFF0A37427F0A3747EF0781353
:10352B00E6FFA3E4F0A3EFF07B017A007977121F9B
:10353B003D7B017A007977122B40123BBD123BD9B0
:03354B00023BEE52
:1035B30090001C74FFF0A37427F0A37487F07814B1
:1035C300E6FF08E6A3CFF0A3EFF07B017A0079775B
:1035D300121F3D7B017A007977122B40123BD902EF
:0235E3003BE7C4
:0F3A29007B017A007977122B40123BD9023BE7E1
:0F3A38007BFF7A27793F122B40123BD9023BE7E5
:0B005E00900003EBF0A3EAF0A3E9F030
:10006900E4A3F0A3F0A3F0121A4564F86003020AAE
:10007900A0900003E0FBA3E0FAA3E0F990000112CD
:100089001A5ED394104003020AA0E4900006F0908F
:100099000003E0FBA3E0FAA3E0F9900001121A5E65
:1000A9002401FFE433FE900006E0FDC39FEE648067
:1000B900F8748098501DED2401FFE433FE8F828E81
:1000C90083121A5EFF900008E02FF0900006E0040A
:1000D900F080BC900003E0FBA3E0FAA3E0F99000F4
:1000E90001121A5EF582758300A3A3121A5EFF90AE
:1000F9000008E06F6003020AA07E007F107D007B8C
:10010900007A00799D121E3DE4900007F0900003EB
:10011900E0FBA3E0FAA3E0F9900002121A5E121CB8
:10012900F7077A0108F402094B0307F90901583165
:1001390001E53201F93303143404DB3505EB3606E6
:10014900833707453809A641083EB900000A9812C5
:100159003934123BE7123BD9123BBD123B85123BA6
:10016900AF123BA1123B93900003E0FBA3E0FAA37B
:10017900E0F9900003121A5E640170257810E644D4
:1001890002F67BFF7A3879F3123AD77B007A007945
:1001990000123AE37B017A007D017C007F3202097B
:1001A90047900003E0FBA3E0FAA3E0F990000312F3
:1001B9001A5E64026003020A987810E654FDF67B21
:1001C900FF7A3879F3123AD77B007A007900123A2C
:1001D900E3E4FBFA7D01FC7F140208D0900003E000
:1001E900FBA3E0FAA3E0F9900003121A5E020A9851
:1001F900900003E0FBA3E0FAA3E0F9900003121AD0
:100209005E24FE70030202CB046003020A9878128E
:10021900E66401600712393478127601123BBD1287
:100229003B85123BAF123BA1123B9A900003E0FBC6
:10023900A3E0FAA3E0F9900004121A5EB4010F904A
:10024900001C74FFF0A37427F0A3748D80679000DD
:1002590003E0FBA3E0FAA3E0F9900004121A5EB4EC
:10026900020F90001C74FFF0A37427F0A37496800A
:1002790044900003E0FBA3E0FAA3E0F99000041224
:100289001A5EB4030F90001C74FFF0A37427F0A347
:10029900749F8021900003E0FBA3E0FAA3E0F990AA
:1002A9000004121A5EB4041790001C74FFF0A374C2
:1002B90027F0A374A8F07B017A007977121F3D0219
:1002C9000A1F123934123ABD90001C74FFF0A3744E
:1002D90027F0A374B1F0900003E0FBA3E0FAA3E0D8
:1002E900F9900003121A5EFF90001FE4F0A3EFF0EB
:1002F900900004121A5EFF900021E4F0A3EFF07B56
:10030900017A007977121F3D020A98900003E0FBF9
:10031900A3E0FAA3E0F9900003121A5E24FE605AE2
:100329001470030204431470030203BD1470030222
:10033900049224046003020A98900004121A5EB41D
:100349000103020457900003E0FBA3E0FAA3E0F9DC
:10035900900004121A5E64026003020A987BFF7A15
:100369003B7910123AD77BFF7A3979ED123AE3E4F7
:10037900FBFA7D06FC7F060208D0900003E0FBA390
:10038900E0FAA3E0F9900004121A5E6402700F907B
:10039900001C74FFF0A37427F0A3745A80589000CE
:1003A90003E0FBA3E0FAA3E0F9900004121A5E64EB
:0403B90001020A989B
:1003BD00123BE7123BD9123BBD123B85123BAF12EC
:1003CD003BA1123B93123BA8900003E0FBA3E0FA84
:1003DD00A3E0F9900004121A5E6401702230090541
:1003ED00123934C20990001C74FFF0A37427F0A3D6
:1003FD007451F07B017A007977121F3D020A1F902C
:10040D000003E0FBA3E0FAA3E0F9900004121A5EEA
:10041D0064026003020A98D2097BFF7A3B792212AB
:10042D003AD77BFF7A3979ED123AE3E4FBFA7D078F
:03043D00FC7F073A
:100440000208D0900003E0FBA3E0FAA3E0F99000DB
:1004500004121A5EB40106123934020A989000039D
:10046000E0FBA3E0FAA3E0F9900004121A5E640234
:100470006003020A987BFF7A3979FC123AD77BFF36
:100480007A3979ED123AE3E4FBFA7D0AFC7F0A023D
:1004900008D0900003E0FBA3E0FAA3E0F990000489
:1004A000121A5E64017031E92405F9E43AFA7877AA
:1004B0007C007D017E007F08121A1F7BFF7A3A794B
:1004C00029123AD77BFF7A3A7938123AE3E4FBFAF9
:1004D0007D06FC7F060208D00208D4900003E0FBF2
:1004E000A3E0FAA3E0F9900003121A5E24FE607301
:1004F00014700302059924FE70030205DC240460D5
:1005000003020A98900004121A5EB4011F7BFF7A5E
:100510003A791A123AD77B007A007900123AE37BD3
:10052000017A007D017C007F1E020947900003E0F4
:10053000FBA3E0FAA3E0F9900004121A5E640260E3
:1005400003020A987BFF7A3A790B123AD77B007A3A
:10055000007900123AE37B017A007D017C007F1E66
:10056000020947123934900003E0FBA3E0FAA3E04C
:10057000F9900005121A5E7813F67BFF7A35791B25
:10058000123AD77B007A007900123AE37B017A00B5
:100590007D017C007F1E020947900003E0FBA3E081
:1005A000FAA3E0F9900006121A5E7814760008F6B5
:1005B000900005121A5E781446F608E6F67BFF7A7C
:1005C0003579B3123AD77B007A007900123AE37B8F
:1005D000017A007D017C007F1E020947900003E044
:1005E000FBA3E0FAA3E024040208E07812E6640327
:1005F000600712393478127603123BBD123B851224
:100600003B93123BA1123BB6900003E0FBA3E0FA40
:10061000A3E0F9900003121A5EFFD3940990001C26
:1006200074FF400BF0A37427F0A374BDF0801BF09F
:10063000A37427F0A374B1F0900003E0FBA3E0FAE9
:10064000A3E0F9900003121A5EFF90001FE4F0A3EC
:10065000EFF0900004121A5EFF900021E4F0A3EF87
:10066000F07B017A007977121F3D7B017A00797760
:1006700012391FAD077B017A00797790000D740362
:10068000020A347812E6640260071239347812766E
:1006900002123BAF123BBD123B93123BA1123B8CAB
:1006A000123BC4900003E0FBA3E0FAA3E0F9900042
:1006B00003121A5EFFD39463401090001C74FFF085
:1006C000A37427F0A374C8F08042900003E0FBA35A
:1006D000E0FAA3E0F9900003121A5EFFD3940990A8
:1006E000001C74FF400BF0A37427F0A374D0F080BB
:1006F0001BF0A37427F0A374D9F0900003E0FBA3D0
:10070000E0FAA3E0F9900003121A5EFF90001FE4E4
:10071000F0A3EFF0900004121A5EFF900021E4F0C5
:10072000A3EFF07B017A007977121F3D7B017A00FD
:10073000797712391FAD077B017A00797790000D28
:100740007401020A34900003E0FBA3E0FAA3E0F98D
:10075000900003121A5E547F7811F67BFF7A0079BD
:100760000E123AD77B007A007900123AE37B017AC5
:10077000007D017C007F1E020947900003E0FBA37F
:10078000E0FAA3E0F9900003121A5E64017031E907
:100790002404F9E43AFA78777C007D017E007F0832
:1007A000121A1F7BFF7A3A7929123AD77BFF7A3ADD
:1007B0007938123AE3E4FBFA7D06FC7F060208D0A2
:1007C000900003E0FBA3E0FAA3E02404F9E43AFA82
:1007D000E490000DF07D081232FE7BFF7A3A792911
:1007E000123AD77B007A007900123AE37B017A0053
:1007F0007D017C007F01020947123BE7123BD99043
:100800000003E0FBA3E0FAA3E0F9900003121A5EF4
:100810007810B40106E64401F68004E654FEF67B47
:10082000FF7A397909123AD77B007A007900123AB7
:10083000E37B017A007D017C007F14020947900070
:1008400003E0FBA3E0FAA3E0F9900003121A5E6450
:100850000160030208EE123B7E900003E0FBA3E080
:10086000FAA3E0F9900004121A5E64017066E924AC
:1008700005F9E43AFA78777C007D017E007F081262
:100880001A1FE4900006F0900006E0FFC394105099
:100890002574772FF582E43400F583E07010900022
:1008A00006E02477F582E43400F5837420F09000AC
:1008B00006E004F080D17BFF7A3A7929123AD77B9F
:1008C000FF7A3A7938123AE3E4FBFA7D05FC7F05BA
:1008D000FE0209A0900003E0FBA3E0FAA3E02405D8
:1008E000F9E43AFAE490000DF07D08020A95123B13
:1008F00077020A98900003E0FBA3E0FAA3E0240348
:10090000F9E43AFA78777C007D017E007F08121ABC
:100910001F900003E0FBA3E0FAA3E02403F9E43A0C
:10092000FAE490000DF07D081232FE7BFF7A3A79EE
:1009300029123AD77B007A007900123AE37B017AD8
:10094000007D017C007F017E008055900003E0FB6C
:10095000A3E0FAA3E02403F9E43AFA78777C007D77
:10096000017E007F08121A1F900003E0FBA3E0FA4B
:10097000A3E02403F9E43AFAE490000DF07D0812B4
:1009800032FE7BFF7A3A7929123AD77B007A0079D6
:1009900000123AE37B017A007D017C007F017E003A
:1009A000123581020A98123BBD123BD9123BE71265
:1009B0003B93123B85123BA1123BAF900003E0FB3F
:1009C000A3E0FAA3E0F9900003121A5E24FC60672A
:1009D00024036003020A98123B9A900003E0FBA3F1
:1009E000E0FAA3E0F9900004121A5EB4010E7877E1
:1009F0007C007D017BFF7A2779E38020900003E073
:100A0000FBA3E0FAA3E0F9900004121A5EB4020F0F
:100A100078777C007D017BFF7A2779EA121E207BA4
:100A2000017A00797712391FAD077B017A00797757
:100A3000E490000DF0805E123BA8900003E0FBA361
:100A4000E0FAA3E0F9900004121A5EB4010E787780
:100A50007C007D017BFF7A2779F28020900003E003
:100A6000FBA3E0FAA3E0F9900004121A5EB4020FAF
:100A700078777C007D017BFF7A2779F7121E207B37
:100A8000017A00797712391FAD077B017A007977F7
:100A9000E490000DF01232FE900007E0600204F0D6
:010AA0002233
:102C7C00E4900002F078ADE66063123B06EF24F0BE
:102C8C00603924D0603324207037123AEF123BF5B0
:102C9C00E478ADF6900002F00000900002E004F041
:102CAC00E0B464F41236D9E4900002F00000900015
:102CBC0002E004F0E0B464F4228000123AEF023B2C
:102CCC00F5E4900002F00000900002E004F0E0B4A3
:102CDC0082F47B007A00799D7D100233E57B007ACB
:102CEC000079AE7D10123639EF60097B007A0079DD
:042CFC00AE12005EB6
:012D000022B0
:093B340020505752204F46460074
:102DCC005000670000000000000000000000000040
:072DDC000000004100660049
:10394800E4900066F078677C007D017BFF7A3B7924
:0439580034021E20F7
:1032FE00900009EBF0A3EAF0A3E9F0A3EDF0900043
:10330E0009E0F9A3E0FAA3E0900011C9F0A3EAF0F6
:10331E00A3E9F0EDFFA3E4F0A3EFF07B017A0079CF
:10332E0067122EE390000CE0FFC39410500C7467EC
:10333E002FF582E43400F583E4F090000DE0900068
:03334E0066F02204
:10342800120051403B7B017A007967122B409000D3
:1034380066E07006123BE7023BD9900066E0B401F3
:1034480005123BD98017900066E0B40206123BE0F3
:10345800023BE7900066E0B40306123BE0123BEE45
:013468002241
:10386F001237F81234E512354E123C08123B46124D
:0B387F003791123970123B4FD2AF227C
:0A2DE3004200970000420095000036
:093B3D003082037F00227F012287
:092F4B007817E6FC08E6FD7F1290
:102F5400EF2407FBE43EFAD3EB94FFEA9403400624
:102F64007A037BFF8007EF2407FBE43EFA90009787
:102F7400EAF0A3EBF0C3EF9407EE940050067E0052
:102F84007F008008EF24F9FFEE34FFFE900095EEF9
:102F9400F0A3EFF0C3ED9FEC9E4010900098E09DED
:0E2FA400900097E09C40047F0180027F002295
:0F3A47007817E6FC08E6FD7F077E03122F542256
:063BFC007E02122F4B2295
:063C02007E01122F4B228F
:0E3AA1007817E6FC08E6FDE4FFFE122F542223
:0F3A56007819E6FC08E6FD7F387E03122F542214
:0F3A65007819E6FC08E6FD7F747E02122F5422CA
:0F3A74007819E6FC08E6FD7FB07E01122F542280
:0F3A83007819E6FC08E6FD7FE07E00122F542242
:1039BB00123B3DEF6009123A56EF60037F01227F05
:0239CB000022D8
:063C08001229D3023B70FB
:10395C00789BE62490F8A607789B06E6C3940A4069
:04396C0002E4F62259
:10383700789AE6FE08667002FF2274902EF8E6FF7B
:0B384700789A06E6C3940A4002E4F6FB
:013852002253
:10385300789CE6FE18667002FF2274902EF8E6FF4D
:0B386300789C06E6C3940A4002E4F6DD
:01386E002237
:0B3AFB00EF75F00BA4242AF8E6FF2270
:10374900EF75F00BA42428F8A60408A605AE03EF2C
:1037590075F00BA4242BF8A606EF75F00BA4242C06
:04376900F8E4F62268
:063C0E00789BE618F62287
:073B700043B10453B2FB2234
:1029D300E4789AF608F608F6FFEF75F00BA42428BE
:1029E300F876000876C8EF75F00BA42425F8760274
:1029F300EF75F00BA4242AF8E4F6EF75F00BA4248A
:102A03002BF8E4F6EF75F00BA4242CF8E4F60FEFA3
:102A1300B40AC678417628784C7628785776287891
:102A23006D7628782276FF08763B08763D782D76FA
:102A3300FF08763A087647783876FF08763B0876BB
:102A4300FC784376FF08763C087602784E76FF08DA
:102A5300763A0876A1785976FF08763A087656785A
:102A63006476FF08763A087665786F76FF08763ADB
:102A7300087674787A76FF08763A087683788576CE
:072A8300FF0876390876BB5D
:012A8A002229
:10223D00900003EFF0E075F00BA42422F9E4FAFB13
:10224D00900092F0A3F0A3E9F0121CD7121D1DEF20
:10225D007003022329900092E0FBA3E0FAA3E0F9BA
:10226D00900003121A5EFFC394055008900003748A
:10227D000502238DEFC3940A5008900003740102E8
:10228D001A8B900008121A5E701490000804121A2E
:10229D00BE900003E075F003A404FF12395C9000BA
:1022AD0092E0FBA3E0FAA3E0F9900006121AF6FF04
:1022BD00AEF0D39400EE94005003022390900004EE
:1022CD00121AF6C39FE5F09E5023900004E475F0BA
:1022DD0001121B2EFCE5F06F7002EC6E6003022301
:1022ED0090900003E075F003A42403802B90000967
:1022FD00121A5EFFD39400500302239090000A74CB
:10230D0001121A8BC39F407B90000AE4121ABE90F3
:10231D000003E075F003A404FF02395C900092E025
:10232D00FBA3E0FAA3E0F9900003121A5EFFD39429
:10233D0005400A9000037405121ABE802BEF600A47
:10234D0090000374FF121A8B801E900008121A5E03
:10235D00B40115900008E4121ABE900003E075F068
:10236D0003A42402FF12395C900092E0FBA3E0FA73
:10237D00A3E0F9900004E4F5F0121B7B90000AE451
:04238D00121ABE2240
:10388A00E4900002F0900002E0FFC3940A500B1289
:0A389A00223D900002E004F080EBF4
:0138A4002201
:1034E500E4F5B275B180F5B475B3FFF5B675B5FF02
:1034F500F5AD75AC0FF5DB75DAFFF5DD75DCFFF5C0
:10350500F975FA0475E5FF75E6FF75E7FF75EEFFDA
:0635150043F980023ABDFB
:0C3ABD00E4FF8FFBE4F5FC0FEFB420F6F3
:013AC90022DA
:073B770075FB1253FCF7225D
:073B7E0075FB1243FC082255
:073B850075FB0E53FCF72253
:073B8C0075FB0E43FC08224B
:073B930075FB0B53FCF72248
:073B9A0075FB0B43FC082240
:073BA10075FB0A53FCF7223B
:073BA80075FB0A43FC082233
:073BAF0075FB0353FCF72234
:073BB60075FB0343FC08222C
:073BBD0075FB0253FCF72227
:073BC40075FB0243FC08221F
:073BCB0075FB0F53FCF7220C
:073BD20075FB0F43FC082204
:073BD90075FB0753FCF72206
:073BE00075FB0743FC0822FE
:073BE70075FB0653FCF722F9
:073BEE0075FB0643FC0822F1
:063C1400123BD9023BE760
:063C1A00123BE0023BEE4C
:10280C00EFB4080040030228EF90281CF828287326
:10281C0002283402284C02286402287B02289202E7
:10282C0028A90228C00228D775FB1F53FCF875FB9A
:10283C001E53FCF875FB1D53FCF075FB1C0228ECB9
:10284C0075FB1B53FCF875FB1A53FCF875FB1953FD
:10285C00FCF075FB180228EC75FB1753FCF875FBA4
:10286C001653FCF875FB1553FCF075FB1480717551
:10287C00FB1353FCF875FB1253FCF875FB1153FC5E
:10288C00F075FB10805A75FB0F53FCF875FB0E535B
:10289C00FCF875FB0D53FCF075FB0C804375FB0BC2
:1028AC0053FCF875FB0A53FCF875FB0953FCF075E7
:1028BC00FB08802C75FB0753FCF875FB0653FCF8E2
:1028CC0075FB0553FCF075FB04801575FB0353FC7D
:1028DC00F875FB0253FCF875FB0153FCF0E4F5FBB7
:0428EC0053FCF02287
:0C3ACA00E4FEAF0612280C0EEEB408F665
:013AD60022CD
:100AA100EFD39407400302139AED64536004EDB44D
:100AB10073047D35801EEDB467047D398016EDB475
:100AC1006C047D4C800EEDB470047D508006EDB455
:100AD10078027D58ED121CF70C8A200B88300BB27E
:100AE100310BD6320BEB330C00340C15350C2A3696
:100AF1000C3C370C63380C75390C8D410C9F420C42
:100B0100C6430CE7440D0E450D2C460D53470D749D
:100B1100480D98490DBF4A0DE64B0E0A4C0E314D5A
:100B21000E5B4E0E854F0EAF500ED6510F00520F79
:100B31002E540F55550F7C560FAA570FD1580FEF52
:100B41005910165A104061106A62108E6310B56414
:100B510010DC65110A6611316811556911796A1144
:100B6100A46B11CF6D11F56E121B6F124971127AC0
:100B710072129D7412C87512EE76131977134779A4
:100B8100136D7A0000139AEF25E025E0FEC3741F70
:100B91009EF5FB43FC0553FCFDC3741E9EF5FB4310
:100BA100FC0553FCFDC3741D9EF5FB75FC09021188
:100BB1009AEF25E025E0FEC3741F9EF5FB53FCF878
:100BC100C3741E9EF5FB53FCF8C3741D9EF5FB75A3
:100BD100FC0102119AEF25E025E0FEC3741F9EF58A
:100BE100FB43FC0653FCFE0210EBEF25E025E0FE83
:100BF100C3741F9EF5FB43FC0253FCFA021052EF33
:100C010025E025E0FEC3741F9EF5FB43FC0353FC66
:100C1100FB020D83EF25E025E0FEC3741F9EF5FB6B
:100C210043FC0353FCFB020D65EF25E025E0FEC309
:100C3100741F9EF5FB43FC07020D65EF25E025E0DF
:100C4100FEC3741F9EF5FB53FCF8C3741E9EF5FB97
:100C510043FC0153FCF9C3741D9EF5FBE4F5FC0252
:100C6100119AEF25E025E0FEC3741F9EF5FB43FCBE
:100C710007021052EF25E025E0FEC3741F9EF5FB2D
:100C810043FC0353FCFB02105202280CEF25E02524
:100C9100E0FEC3741F9EF5FB43FC0702125BEF25C8
:100CA100E025E0FEC3741F9EF5FB53FCF8C3741EE0
:100CB1009EF5FB43FC0153FCF9C3741D9EF5FB75C6
:100CC100FC0E021270EF25E025E0FEC3741F9EF5B5
:100CD100FB43FC0553FCFDC3741E9EF5FB43FC0165
:100CE10053FCF9020E25EF25E025E0FEC3741F9E9B
:100CF100F5FB53FCF8C3741E9EF5FB43FC0153FC4A
:100D0100F9C3741D9EF5FB75FC0E02119AEF25E0E7
:100D110025E0FEC3741F9EF5FB43FC07C3741E9EB2
:100D2100F5FB43FC0153FCF90210A9EF25E025E096
:100D3100FEC3741F9EF5FB43FC07C3741E9EF5FBA7
:100D410043FC0153FCF9C3741D9EF5FBE4F5FC0261
:100D510012BEEF25E025E0FEC3741F9EF5FB43FCA8
:100D61000553FCFDC3741E9EF5FB43FC0153FCF9C6
:100D7100021082EF25E025E0FEC3741F9EF5FB43C0
:100D8100FC07C3741E9EF5FB53FCF8C3741D9EF54E
:100D9100FBE4F5FC021270EF25E025E0FEC3741FB1
:100DA1009EF5FB53FCF8C3741E9EF5FB43FC0153F7
:100DB100FCF9C3741D9EF5FB75FC0E021391EF2522
:100DC100E025E0FEC3741F9EF5FB43FC0453FCFCCD
:100DD100C3741E9EF5FB53FCF8C3741D9EF5FB7591
:100DE100FC0802119AEF25E025E0FEC3741F9EF571
:100DF100FB43FC07C3741E9EF5FB53FCF8C3741D33
:100E01009EF5FB75FC0102123FEF25E025E0FEC3D4
:100E1100741F9EF5FB43FC0553FCFDC3741E9EF538
:100E2100FB53FCF8C3741D9EF5FB75FC080213917E
:100E3100EF25E025E0FEC3741F9EF5FB43FC05533F
:100E4100FCFDC3741E9EF5FB43FC0253FCFAC37404
:100E51001D9EF5FB75FC0502119AEF25E025E0FECC
:100E6100C3741F9EF5FB43FC0553FCFDC3741E9E1A
:100E7100F5FB43FC0153FCF9C3741D9EF5FBE4F53E
:100E8100FC02119AEF25E025E0FEC3741F9EF5FBDD
:100E910043FC0553FCFDC3741E9EF5FB43FC01534B
:100EA100FCF9C3741D9EF5FB75FC0802119AEF2530
:100EB100E025E0FEC3741F9EF5FB43FC07C3741ECF
:100EC1009EF5FB43FC0153FCF9C3741D9EF5FBE445
:100ED100F5FC021100EF25E025E0FEC3741F9EF52D
:100EE100FB43FC0553FCFDC3741E9EF5FB43FC0153
:100EF10053FCF9C3741D9EF5FB75FC08020FA0EFAE
:100F010025E025E0FEC3741F9EF5FB43FC07C37477
:100F11001E9EF5FB43FC0153FCF9C3741D9EF5FBBA
:100F2100E4F5FCC3741C9EF5FB75FC0722EF25E07C
:100F310025E0FEC3741F9EF5FB53FCF8C3741E9E8F
:100F4100F5FB43FC0153FCF9C3741D9EF5FB75FCD5
:100F510006021391EF25E025E0FEC3741F9EF5FB09
:100F610043FC0553FCFDC3741E9EF5FB53FCF8C303
:100F7100741D9EF5FB75FC0802119AEF25E025E032
:100F8100FEC3741F9EF5FB53FCF8C3741E9EF5FB54
:100F910043FC0253FCFAC3741D9EF5FBE4F5FCC34C
:100FA100741C9EF5FB75FC0D22EF25E025E0FEC3C8
:100FB100741F9EF5FB43FC0553FCFDC3741E9EF597
:100FC100FB53FCF8C3741D9EF5FB75FC0E02119AD0
:100FD100EF25E025E0FEC3741F9EF5FB53FCF8C32B
:100FE100741E9EF5FB43FC0653FCFE0211BCEF256B
:100FF100E025E0FEC3741F9EF5FB43FC0353FCFB9D
:10100100C3741E9EF5FB53FCF8C3741D9EF5FB755E
:10101100FC08021270EF25E025E0FEC3741F9EF567
:10102100FB43FC0253FCFAC3741E9EF5FB43FC0513
:1010310053FCFDC3741D9EF5FB75FC090212BEEF46
:1010410025E025E0FEC3741F9EF5FB43FC0653FC1F
:10105100FEC3741E9EF5FB43FC0153FCF9C3741DD2
:101061009EF5FB75FC08021270EF25E025E0FEC33A
:10107100741F9EF5FB43FC07C3741E9EF5FB53FCD6
:10108100F8C3741D9EF5FB75FC0802123FEF25E0C5
:1010910025E0FEC3741F9EF5FB43FC0653FCFEC313
:1010A100741E9EF5FB53FCF8C3741D9EF5FB75FC85
:1010B100080212BEEF25E025E0FEC3741F9EF5FB7A
:1010C10043FC0653FCFEC3741E9EF5FB53FCF8C3A0
:1010D100741D9EF5FB75FC08021270EF25E025E0FA
:1010E100FEC3741F9EF5FB43FC07C3741E9EF5FBF4
:1010F10043FC0153FCF9C3741D9EF5FB75FC08C349
:10110100741C9EF5FB75FC0322EF25E025E0FEC370
:10111100741F9EF5FB43FC07C3741E9EF5FB43FC45
:101121000153FCF9C3741D9EF5FBE4F5FC02139118
:10113100EF25E025E0FEC3741F9EF5FB43FC07C3CA
:10114100741E9EF5FB53FCF8C3741D9EF5FBE4F57C
:10115100FC02123FEF25E025E0FEC3741F9EF5FB64
:1011610053FCF8C3741E9EF5FB53FCF8C3741D9E1B
:10117100F5FB75FC06021391EF25E025E0FEC37433
:101181001F9EF5FB53FCF8C3741E9EF5FB53FCF840
:10119100C3741D9EF5FB75FC08C3741C9EF5FB759D
:1011A100FC0922EF25E025E0FEC3741F9EF5FB43F9
:1011B100FC07C3741E9EF5FB53FCF8C3741D9EF51A
:1011C100FB75FC01C3741C9EF5FB75FC0422EF2525
:1011D100E025E0FEC3741F9EF5FB43FC0653FCFEB5
:1011E100C3741E9EF5FB53FCF8C3741D9EF5FB757D
:1011F100FC04804AEF25E025E0FEC3741F9EF5FB49
:1012010043FC0653FCFEC3741E9EF5FB53FCF8C35E
:10121100741D9EF5FBE4F5FC8024EF25E025E0FE3E
:10122100C3741F9EF5FB43FC0653FCFEC3741E9E54
:10123100F5FB53FCF8C3741D9EF5FB75FC08C374E4
:101241001C9EF5FB75FC0A22EF25E025E0FEC37428
:101251001F9EF5FB43FC0353FCFBC3741E9EF5FB71
:1012610043FC0153FCF9C3741D9EF5FBE4F5FCC37B
:10127100741C9EF5FB75FC0B22EF25E025E0FEC3F7
:10128100741F9EF5FB53FCF8C3741E9EF5FB53FCC3
:10129100F8C3741D9EF5FB75FC048021EF25E02544
:1012A100E0FEC3741F9EF5FB43FC07C3741E9EF54D
:1012B100FB53FCF8C3741D9EF5FB75FC08C3741C3D
:1012C1009EF5FB75FC0222EF25E025E0FEC3741FAD
:1012D1009EF5FB43FC0453FCFCC3741E9EF5FB53BB
:1012E100FCF8C3741D9EF5FB75FC08804FEF25E0EB
:1012F10025E0FEC3741F9EF5FB53FCF8C3741E9ECC
:10130100F5FB53FCF8C3741D9EF5FBE4F5FCC374B7
:101311001C9EF5FB75FC0C22EF25E025E0FEC37455
:101321001F9EF5FB43FC0453FCFCC3741E9EF5FB9E
:1013310053FCF8C3741D9EF5FB75FC0CC3741C9E15
:10134100F5FB75FC0822EF25E025E0FEC3741F9E26
:10135100F5FB53FCF8C3741E9EF5FB43FC0253FCE2
:10136100FAC3741D9EF5FB75FC058024EF25E0256D
:10137100E0FEC3741F9EF5FB53FCF8C3741E9EF57B
:10138100FB43FC0553FCFDC3741D9EF5FB75FC0975
:0A139100C3741C9EF5FBE4F5FC227A
:0B2B4000900019EBF0A3EAF0A3E9F00D
:102B4B00E4A3F0FFC200E94A7003022BE1900019E5
:102B5B00E0FBA3E0FAA3E0F912391FEFC39408409E
:102B6B002EE490001CF090001CE0FF900019E0FB9D
:102B7B00A3E0FAA3E0F98F82758300121A5EFD12AF
:102B8B000AA190001CE004F0E0C3940840D822E4B2
:102B9B0090001CF090001CE0FFC3940850382000FC
:102BAB0023900019E0FBA3E0FAA3E0F98F82758371
:102BBB0000121A5EFD60028012D20090001CE0FF32
:102BCB007D20800790001CE0FF7D20120AA1900061
:062BDB001CE004F080BEC6
:012BE10022D1
:082DED0041009000410091003B
:103791001236B35389F75389FB5389FD438901904D
:1037A100009074FCF0A37466F0758CFCF58AD2A9C4
:0337B100D28C2295
:1036B3009000877401F0E4900089F090008BF09003
:1036C300008DF0A3F0900088F090008AF090008CB9
:0636D300F090008FF022D0
:03000B00022DFEC5
:102DFE00C0E0C0F0C083C082C0D075D000C000C09B
:102E0E0006900090E0F58CA3E0F58A900087E00430
:102E1E00F0C394054005E4F0A304F0900089E004AB
:102E2E00F0C3940A4005E4F0A304F090008BE00494
:102E3E00F0C394644005E4F0A304F090008DE475B3
:102E4E00F001121AE0FEC3E5F094E8EE9403400A96
:102E5E0090008DE4F0A3F0A304F0D006D000D0D003
:092E6E00D082D083D0F0D0E03214
:10354E00E47816F60876030876FF0876030876FF09
:10355E0043E101F5E843B10153B2FE43F60143B135
:10356E000253B2FD43F60253E1BF43E12053E1EFB4
:03357E00D2AE22A8
:1037B4007816E6600CE4F6C2EBC2EAC2E9C2E8801D
:1037C4000C78167601C2EBC2EAC2E9D2E800000026
:0337D400D2EE2210
:093B460053B1DF43B220023C2D13
:033C2D00C285222B
:033C3000D2852218
:033C3300B2852235
:093B4F0053B1BF43B240023C39FE
:033C3600C2862221
:033C3900D286220E
:10376D000A6D679C46F6375D4521EFAC5A50010B4B
:10377D00DF020A6D679C46F6375D4521EFAC5A5066
:04378D00E10BDF026B
:082DF500450099CCCCCCCCCCFC
:1039700053B1EF43B21053ACEF43AD1053ACDF4340
:03398000AD202255
:013C3F002262
:10381800E4FEC284EF30E704D2838002C283EF253E
:0E382800E0FF00D28400000EEEB408E6C28479
:01383600226F
:04398300E4FD7FFCE4
:0F398700C2B400123818AF0512381800D2B4229B
:0A33A2007B019000187405F07F3FD6
:0B33AC00900015EBF0A3EAF0A3E9F09D
:1033B700C2B4E4FD123818900018E0FFEDC39F5027
:1033C7001A900015E0FBA3E0FAA3E0F98D8275835C
:0D33D70000121A5EFF1238180D80DCD2B40F
:0133E40022C6
:10372400E4FEC284EF30E704D2838002C283EF2533
:10373400E0FF00D28400000EEEB408E643B1085363
:04374400B2F7C28492
:01374800225E
:1038A500E4FFFEC284EF25E0FF00D28430830344A9
:0938B50001FF0EEEB408ECC28420
:0138BE0022E7
:10399600C2B4001237241238A553B1F743B2080057
:0239A600D2B499
:0139A80022FC
:0B346900900004EBF0A3EAF0A3E9F0F0
:10347400C2B4123724E4FD900007E0FFEDC39F506F
:103484001A1238A5900004E0FBA3E0FAA3E0F98D3A
:1034940082758300EF121ABE0D80DC53B1F743B27C
:0334A40008D2B497
:0134A7002202
:0F3A92001239837D8E7F201239870000000022B9
:1036D900E4FEFD7FFC1239877D8F7F20123987E454
:1036E900FD7FFD123987E4FEFF000FBF00010EBE0A
:0536F90007F7BFD0F44B
:0136FE0022A9
:0A3B06007F07123996EF5470FF227A
:063C20007F091239962213
:073BF5007D707F2702398774
:0C3AEF00E4FD7FE11239877FE202398795
:0E3AAF00AC07123983AF04AD077F25023987BB
:0633E500123B06EF703CF4
:1033EB00900003F0A3F0900018EDF07FA01233AC27
:1033FB00E4FD7FFD123987E4900003F0A3F0009009
:10340B000004E004F07006900003E004F090000369
:0C341B00E07004A3E064C870E51239837F
:013427002282
:10363900AC05123B06EF30E61D123983900007EC0A
:10364900F07F61123469123AEF123BF5E4FD7FFD18
:093659001239877F01227F002253
:1024D60078027C007D017BFF7A37796D7E007F056F
:1024E600121A1F78077C007D017BFF7A3779727E8E
:1024F600007F03121A1F780A7C007D017BFF7A3762
:1025060079757E007F06121A1F78107C007D017B8C
:10251600FF7A37797B7E007F01121A1F78117C00C3
:102526007D017BFF7A37797C7E007F03121A1F12AA
:102536003C3F7D5A7F531239877DA57F53123987D9
:102546007D207F3D1239871239837FE11239877FDB
:10255600E21239877D707F271239877D017F22122B
:1025660039877D037F231239877D4E7F2512398770
:102576007D107F311239877B017A00799990001896
:102586007405F07F301233AC7B017A0079999000A4
:10259600187405F07F2A1233AC7A0079021233A23E
:1025A6007B017A00790A9000187406F07F3A12339C
:1025B600AC7B017A0079109000187401F07F391213
:1025C60033AC7B017A0079079000187403F07F3EE4
:1025D6001233AC7B017A0079119000187403F07FF6
:1025E6003B1233ACE4FD7F3C1239877D3F7F2612D8
:0E25F6003987E4FD7F241239877F210239875F
:0528F000900041EFF033
:1028F500E478427C007D017BFF7A37797FFE7F0596
:10290500121A1F78477C007D017BFF7A3779847E18
:10291500007F03121A1F784A7C007D017BFF7A37FE
:1029250079877E007F06121A1F78507C007D017B17
:10293500FF7A37798D7E007F01121A1F78517C004E
:102945007D017BFF7A37798E7E007F03121A1F7D0A
:102955005A7F531239877DA57F531239877D207F92
:102965003D123987123983E4FF000000000FEFB4F0
:10297500DCF7900041E0FD7F251239877D3F7F26FA
:102985001239877A0079421233A27B017A00794A9B
:102995009000187406F07F3A1233AC7B017A007907
:1029A500509000187401F07F391233AC7B017A0026
:1029B50079479000187403F07F3E1233AC7B017A9F
:0E29C5000079519000187403F07F3B0233AC90
:10239100EF14604414606F1470030224301470034E
:1023A10002246C240460030224D0A2AF920AC2AFBB
:1023B10075C7AA75C755439780A20A92AFA2AF927B
:1023C1000AC2AF75C7AA75C7555397BFA20A92AF84
:1023D100E59630E7FB022497A2AF920AC2AF75C718
:1023E100AA75C75553977FA20A92AFA2AF920AC2AC
:1023F100AF75C7AA75C755439740A20A92AFE59634
:1024010030E6FB022497A2AF920AC2AF75C7AA7544
:10241100C755439720A20A92AFE59630E5FBA2AFDC
:10242100920AC2AF75C7AA75C7555396FB8027A2FA
:10243100AF920AC2AF75C7AA75C755439710A20AD2
:1024410092AFE59630E4FBA2AF920AC2AF75C7AA7C
:1024510075C755439604A20A92AFA2AF920AC2AFC2
:1024610075C7AA75C7555396FD804DA2AF920AC292
:10247100AF75C7AA75C75553977FA20A92AFA2AF8E
:10248100920AC2AF75C7AA75C7555397BFA20A92E0
:10249100AFE59630E3FBA2AF920AC2AF75C7AA754A
:1024A100C7555396FBA20A92AFA2AF920AC2AF756B
:1024B100C7AA75C755439602A20A92AFA2AF920A64
:1024C100C2AF75C7AA75C7555396FEA20A92AFE56A
:0524D1009720E0FB2252
:1036620075985243892053877F538EEF53C4DFAB43
:1036720007AA06A905A804E47F807E70FDFC121B40
:09368200E4EFF404F58DD28E2270
:10368B00759852438920438780538EEF53C4DFAB29
:10369B0007AA06A905A804E4FF7EE1FDFC121BE4C2
:0836AB00EFF404F58DD28E222C
:1035E50075985243892053877F438E1053C4DFABB0
:1035F50007AA06A905A8047F007E467D057C001262
:0A3605001BE4EFF404F58DD28E22D1
:10360F00759852438920438780438E1053C4DFAB94
:10361F0007AA06A905A8047F007E8C7D0A7C0012EC
:0A362F001BE4EFF404F58DD28E22A7
:102FB20090009E121C9A75985253877F53C4F8430F
:102FC200C42090009EE0F8A3E0F9A3E0FAA3E0FB9E
:102FD2007F007E467D057C00121BE4C3E49FFFE474
:102FE2009EFE74019DFDE49CFC7808121C878FC62E
:102FF20090009EE0F8A3E0F9A3E0FAA3E0FB7F00D3
:103002007E467D057C00121BE4C3E49FFF8FC5430F
:03301200C40822CD
:103015009000A2121C9A75985243878053C4F843B6
:10302500C4209000A2E0F8A3E0F9A3E0FAA3E0FB36
:103035007F007E8C7D0A7C00121BE4C3E49FFFE4C5
:103045009EFE74019DFDE49CFC7808121C878FC6CA
:103055009000A2E0F8A3E0F9A3E0FAA3E0FB7F006B
:103065007E8C7D0A7C00121BE4C3E49FFF8FC54361
:03307500C408226A
:103138009000A6121C9A75F85253C4F89000A6E0A5
:10314800F8A3E0F9A3E0FAA3E0FB7F007E8C7D0AF8
:103158007C00121BE4C3E49FFFE49EFE74019DFD06
:10316800E49CFC7808121C878FC69000A6E0F8A3A0
:10317800E0F9A3E0FAA3E0FB7F007E8C7D0A7C00E7
:0D318800121BE4C3E49FFF8FC543C408225F
:070003003098FDAF99C2988F
:01000A0022D3
:083B5800C2998F993099FD22FA
:073B600030F8FDAF9AC2F836
:013B6700223B
:083B6800C2F98F9A30F9FD2229
:1038BF00E4F5B1F5B2F5B3F5B4F5B5F5B6F5ACF58C
:0A38CF00ADF5DAF5DBF5DCF5DD22DE
:1037F80075B1FFE4F5B275B3FFF5B475B5FFF5B66D
:1038080075ACFFF5AD75DAFFF5DB75DCFFF5DD228C
:1038D90075C7AA75C755A2AF920AC2AF75C7AA75AF
:0A38E900C755439F80A20A92AF2248
:043C260043AD802208
:1034A800EF640A701C30F811E59AB4130CC2F830B6
:1034B800F8FDE59AB411F6C2F830F9FDC2F9759A2B
:1034C8000D30F811E59AB4130CC2F830F8FDE59AFE
:0D34D800B411F6C2F830F9FDC2F98F9A2246
:062D010090FFF8121D23F3
:102D0700850D83850E82121CA600000000E47FFF5C
:102D17007EFFFDFC850D83850E82E0F8A3E0F9A315
:102D2700E0FAA3E0FBC3121C76504C900004121D7E
:102D370047E0FCA3E0FDA3E0FEA3E02401FFE43E9F
:102D4700FEE43DFDE43CFC900004121D47121C9A72
:102D5700850D83850E82E0FCA3E0FDA3E0FEA3E0E2
:102D67002401FFE43EFEE43DFDE43CFC850D838544
:072D77000E82121C9A8096E7
:062D7E00900008021D2375
:1037D700538EF7438901D28CEF4E6012758AF775C5
:1037E7008CFF308DFDC28DEF1F70ED1E80EAC28CFD
:0137F70022AF
:10324C009000AA121C9A538EF7438901D28CE4FF8A
:10325C00FEFDFC9000AAE0F8A3E0F9A3E0FAA3E0DD
:10326C00FBC3121C76602F758A65758CFC308DFD46
:10327C00C28D9000AAE0FCA3E0FDA3E0FEA3E02435
:10328C00FFFFEE34FFFEED34FFFDEC34FFFC90004D
:09329C00AA121C9A80B8C28C220F
:1032A5009000AE121C9A538EEF438910D28EE4FF24
:1032B500FEFDFC9000AEE0F8A3E0F9A3E0FAA3E080
:1032C500FBC3121C76602F758B65758DFC308FFDE9
:1032D500C28F9000AEE0FCA3E0FDA3E0FEA3E024D6
:1032E500FFFFEE34FFFEED34FFFDEC34FFFC9000F4
:0932F500AE121C9A80B8C28E22B0
:1031F1009000B2121C9A75C40243C408E4FFFEFD9C
:10320100FC9000B2E0F8A3E0F9A3E0FAA3E0FBC36D
:10321100121C76603275C53375C6F5E5C430E4FB22
:1032210053C4EF9000B2E0FCA3E0FDA3E0FEA3E0F5
:1032310024FFFFEE34FFFEED34FFFDEC34FFFC9084
:0B32410000B2121C9A80B553C4F722A3
:103078009000B6121C9A538FFB538FFD538FFEE4BA
:10308800F586538FDF438F08E4FFFEFDFC9000B602
:10309800E0F8A3E0F9A3E0FAA3E0FBC3121C766012
:1030A8002CE58F30E4FB538FEF9000B6E0FCA3E0F3
:1030B800FDA3E0FEA3E024FFFFEE34FFFEED34FFA6
:1030C800FDEC34FFFC9000B6121C9A80BB538FF7BE
:0130D80022D5
:102604000A3D3D3D3D3D3D3D3D3D3D3D3D3D3D3D29
:102614003D3D3D3D3D3D3D3D3D3D3D3D3D3D3D3DE6
:102624003D3D3D3D3D3D3D3D3D3D3D3D3D3D3D3DD6
:102634003D3D3D3D3D3D3D3D3D3D3D3D3D3D3D3DC6
:102644003D3D3D3D3D000A2A2020436F707972696B
:102654006768742863292032303135204E75766FCF
:10266400746F6E20546563686E6F6C6F6779204376
:102674006F72702E20416C6C2072696768747320CD
:1026840072657365727665642E2020000A2A202004
:10269400436F6E7461637420452D4D61696C3A20FB
:1026A4004D6963726F432D38626974406E75766F3D
:1026B400746F6E2E636F6D20202020202020202038
:1026C4002020202020202020202020202020202006
:1026D40020000A2A202044656D6F205665727369B4
:1026E4006F6E20203A202532642E2532642E253246
:1026F40064000A2A202046696E6973686564204470
:10270400617465203A202532642E2532642E2532E8
:0227140064005F
:1030D9007BFF7A267904121F437BFF7A26794A12ED
:1030E9001F437BFF7A267990121F437BFF7A26794B
:1030F900D690001CE4F0A304F0E4A3F0A3F0A3F03D
:10310900A3F0121F437BFF7A2679F690001C7407FF
:10311900F0A374DFF0A3E4F0A37405F0A3E4F0A333
:0F312900741FF0121F437BFF7A267904021F43A5
:03000000022BE2EE
:102BE200787FE4F6D8FD9000007FFF7E01E4F0A339
:0A2BF200DFFCDEFA7581BD022C370E
:102BFC00022E77E493A3F8E493A34003F68001F24A
:102C0C0008DFF48029E493A3F85407240CC8C333D9
:102C1C00C4540F4420C8834004F456800146F6DFA8
:102C2C00E4800B0102040810204080902D84E47E87
:102C3C00019360BCA3FF543F30E509541FFEE4939D
:102C4C00A360010ECF54C025E060A840B8E493A364
:102C5C00FAE493A3F8E493A3C8C582C8CAC583CA8F
:102C6C00F0A3C8C582C8CAC583CADFE9DEE780BE47
:012DFD0000D5
:10194F00E709F608DFFA8046E709F208DFFA803E7A
:10195F0088828C83E709F0A3DFFA8032E309F60867
:10196F00DFFA8078E309F208DFFA807088828C83CF
:10197F00E309F0A3DFFA806489828A83E0A3F60883
:10198F00DFFA805889828A83E0A3F208DFFA804C5D
:10199F0080D280FA80C680D4806980F28033801034
:1019AF0080A680EA809A80A880DA80E280CA80339D
:1019BF0089828A83ECFAE493A3C8C582C8CCC58315
:1019CF00CCF0A3C8C582C8CCC583CCDFE9DEE780E5
:1019DF000D89828A83E493A3F608DFF9ECFAA9F064
:1019EF00EDFB2289828A83ECFAE0A3C8C582C8CCBA
:1019FF00C583CCF0A3C8C582C8CCC583CCDFEADED3
:101A0F00E880DB89828A83E493A3F208DFF980CC34
:101A1F0088F0EF60010E4E60C388F0ED2402B4042D
:101A2F000050B9F582EB2402B4040050AF232345D4
:061A3F00822390199F7341
:101A4500BB010689828A83E0225002E722BBFE029F
:091A5500E32289828A83E49322D2
:101A5E00BB010CE58229F582E5833AF583E022503D
:101A6E0006E92582F8E622BBFE06E92582F8E22287
:0D1A7E00E58229F582E5833AF583E49322A1
:101A8B00BB010FF8E58229F582E5833AF583E0285F
:101A9B00F0225009C58229F8E58226F622BBFE0901
:101AAB00C58229F8E22582F222F8EA2583F583E93B
:031ABB009328224B
:101ABE00F8BB010DE58229F582E5833AF583E8F05E
:101ACE00225006E92582C8F622BBFE05E92582C80A
:021ADE00F222F2
:101AE000C5F0F8A3E028F0C5F0F8E5821582700291
:061AF0001583E038F0222E
:101AF600BB0110E58229F582E5833AF583E0F5F02E
:101B0600A3E0225009E92582F886F008E622BBFE0A
:101B16000AE92582F8E2F5F008E222E5832AF58350
:081B2600E993F5F0A3E9932215
:101B2E00BB010DC58229C582C5833AC583021AE061
:101B3E005011C58229F808E5F026F618F5F0E58271
:101B4E0036F622BBFE11C58229F808E225F0F5F023
:101B5E00F218E23582F222F8E58229F582E5832A2F
:0D1B6E00F58374019325F0F5F0E49338221F
:101B7B00F8BB0111E58229F582E5833AF583E8F09C
:101B8B00E5F0A3F0225009E92582C8F608A6F02259
:0D1B9B00BBFE09E92582C8F2E5F008F22240
:101BA80075F008758200EF2FFFEE33FECD33CDCCF4
:101BB80033CCC58233C5829BED9AEC99E582984077
:101BC8000CF582EE9BFEED9AFDEC99FC0FD5F0D654
:101BD800E4CEFBE4CDFAE4CCF9A88222B800C1B97E
:101BE8000059BA002DEC8BF084CFCECDFCE5F0CBBC
:101BF800F97818EF2FFFEE33FEED33FDEC33FCEBF5
:101C080033FB10D703994004EB99FB0FD8E5E4F9AF
:101C1800FA227818EF2FFFEE33FEED33FDEC33FC9C
:101C2800C933C910D7059BE99A4007EC9BFCE99A90
:101C3800F90FD8E0E4C9FAE4CCFB2275F010EF2FD5
:101C4800FFEE33FEED33FDCC33CCC833C810D707D5
:101C58009BEC9AE899400AED9BFDEC9AFCE899F810
:0E1C68000FD5F0DAE4CDFBE4CCFAE4C8F922A3
:101C7600EB9FF5F0EA9E42F0E99D42F0E89C45F0C4
:011C8600223B
:101C8700E8600FECC313FCED13FDEE13FEEF13FF3B
:031C9700D8F1225F
:0C1C9A00ECF0A3EDF0A3EEF0A3EFF022BD
:101CA600A8828583F0D083D082121CBD121CBD127F
:101CB6001CBD121CBDE473E493A3C583C5F0C583A4
:101CC600C8C582C8F0A3C583C5F0C583C8C582C888
:011CD60022EB
:101CD700BB010789828A83021E9A5005E9F8021E12
:101CE70091BBFE05E9F8021EC389828A83021ECCD6
:101CF700D083D082F8E4937012740193700DA3A37C
:101D070093F8740193F5828883E47374029368608F
:061D1700EFA3A3A380DF8F
:061D1D008A838982E47351
:101D2300E50E2582F582E50D3583F583B50D048532
:101D3300820E2210AF0685820EF50D2285820EF5E6
:041D43000DD2AF22EC
:0D1D4700E50E2582F582E50D3583F583223A
:101ED800E508241CF582E43400F583E00508229027
:101EE800001930070390001CE475F001121EA302CC
:101EF8001A452000E97F2ED2008018EF540F249055
:101F0800D43440D4FF30040BEF24BFB41A0050037C
:101F18002461FFE50960021509050CE50C7002054E
:101F28000B30070E900019E475F001121EA3EF02A2
:101F38001E690234A87403D2078003E4C207F508B7
:101F4800900019121EBAE4F509F50BF50CE50960C5
:101F5800077F20121F1B80F5750AFFC201C200C24D
:101F680002C203C205C206C208121EE7FF700D3086
:101F780007057F00121F2CAF0CAE0B22B4255FC2E1
:101F8800D5C204121EE7FF24D0B40A00501A75F017
:101F98000A780930D50508B6FF0106C6A426F6203A
:101FA800D5047002D20380D924CFB41A00EF5004AC
:101FB800C2E5D20402212DD20180C6D20080C0D24F
:101FC8000280BCD2D580BAD20580B47F20121F1BF4
:101FD8002002077401B5090040F1121ED8FF121F34
:101FE8001B021F55D208D2068095121ED8FB121E5E
:101FF800D8FA121ED8F94A4B700679FE7A217BFF6F
:1020080020022EE509602A7E008E82758300121A4E
:102018005E60060EEE650A70F0C2D5EBC0E0EAC05D
:10202800E0E9C0E0EE122174D0E0F9D0E0FAD0E0A7
:10203800FB121A45FF60AAEBC0E0EAC0E0E9C0E085
:10204800121F1BD0E02401F9D0E03400FAD0E0FBE5
:10205800E50A0460DCD50AD980877BFF7A2179708C
:10206800D202809C791080027908C206C2088008D2
:10207800D2D5790A8004790AC2D5E50A047002F536
:102088000AE4FAFDFEFF121ED8FC7B082001131299
:102098001ED8FD7B1030000A121ED8FE121ED8FF73
:1020A8007B20EC3382D592D55013C3E43000069FD1
:1020B800FFE49EFEE42001039DFDE49CFCE4CBF8D4
:1020C800C201EC700CCFCECDCCE824F8F870F380C8
:1020D80017C3EF33FFEE33FEED33FDEC33FCEB3388
:1020E800FB994002FB0FD8E9EB300105F8D0E0C4BA
:1020F80048B201C0E00AEC4D4E4F78207B0070C218
:10210800EAB50A0040BCC0E0122176D0F0D0E02049
:102118000104C4C0E0C4B201C0F0121F04D0F0D55D
:10212800F0EB021F55121CF71FF253206C581FC307
:102138004C1FBF4220704F2078442078491FD84355
:08214800207E55206246206252
:1021500045206247221E501FC72D1FCB2E1FEE2B7E
:102160001FCF231FEC2022072A1F874800001FE6ED
:102170003F3F3F00790AA2D5200314300509B9106A
:10218000020404B9080104A2D5200602500104206B
:1021900002689202B509005034C0E07F2030031974
:1021A0007F30A20272067205500F1221CDC202C208
:1021B00006C205C2087F30800F300503E9C0E01277
:1021C0001F1B300503D0E0F9D0E0B509CC3005176E
:1021D0007F30B9100C121F1B7F583004077F7880A6
:1021E00003B90803121F1B3002057F2D021F1B7F3E
:1021F000202008F87F2B2006F322920280CF286E41
:10220000756C6C2900D201121ED83001F8C2017819
:102210000930D50108F6021F872D50434958121E78
:10222000D82403B405004001E490221993121F0C36
:0D223000743A121F0CD20375090402206CD1
:101D5400E709F60870FA8046E709F20870FA803E4F
:101D640088828C83E709F0A370FA807EE309F60881
:101D740070FA8076E309F20870FA806E88828C83A8
:101D8400E309F0A370FA806289828A83E0A3F608EB
:101D940070FA805689828A83E0A3F20870FA804A36
:101DA40080D280FA80C680D4806580F28031801031
:101DB40080A680EA809A80A880DA80E280CA803196
:101DC40089828A83ECFAE493A3C8C582C8CCC5830C
:101DD400CCF0A3C8C582C8CCC583CC70E9800D897A
:101DE400828A83E493A3F60870F9ECFAA9F0EDFB78
:101DF4002289828A83ECFAE0A3C8C582C8CCC58351
:101E0400CCF0A3C8C582C8CCC583CC70EA80DD8978
:101E1400828A83E493A3F20870F980CE88F0ED24DB
:101E240002B4040050C4F582EB2402B4040050BA96
:091E34002323458223901DA473B1
:102EE30090000EEBF0A3EAF0A3E9F0E4900016F0F3
:102EF300A3F090001474FFF5F0121E7B45F0603CC4
:102F0300900011E0FBA3E0FAA3E0F9121A45FF9049
:102F1300000EE0FBA3E0FAA3E0F9900016E475F0DD
:102F230001121E7B85F082F583EF121ABEEF60C299
:102F3300900012E475F001121AE080B690000EE0E2
:082F4300FBA3E0FAA3E0F92270
:10391F00E4FFFE121A45600C0FEF70010E09E970FB
:05392F00F20A80EF2206
:101E3D00EF4E6012EF60010EEDBB010B89828A83BC
:101E4D00F0A3DFFCDEFA2289F05007F709DFFCA9C9
:0C1E5D00F022BBFEFCF309DFFCA9F02220
:101E6900BB010689828A83F0225002F722BBFE0158
:021E7900F32252
:101E7B00A3F8E0C5F025F0F0E5821582700215831A
:061E8B00E0C838F0E82277
:091E9100E6FB08E6FA08E6F92276
:091E9A00E0FBA3E0FAA3E0F92249
:101EA300F8E0FBA3A3E0F925F0F0E58215827002C8
:071EB3001583E0FA38F0226C
:091EBA00EBF0A3EAF0A3E9F02229
:091EC300E2FB08E2FA08E2F92250
:0C1ECC00E493FB740193FA740293F92272
:00000001FF
