:0822CA004100D2004100D300E5
:101C85007F021213781225B212257A1226451228E0
:101C950052121E729000AEE06008E4F01216B812FF
:101CA50025CD9000B0E0600BE4F01227E4121F2E62
:091CB50012183D9000B3E0601A22
:101CBE00E4F012000E9000D3E004F0E0D394034061
:0A1CCE0009740AF09000D2E004F05F
:101CD80012232E900052EFF060B7E0FF12214780E8
:011CE800B04B
:0822D2004100B7004100B80013
:10264500E49000B8F0A304F0900084F09000B6F098
:032655000218F276
:1018F2009000B9E024FE60281460592402600302BB
:101902001997E4FFFE120E49E4FFFE120B021227A2
:101912003012274E1227621227D012277602278A08
:101922001227581227307F4112246F7F4212246FF0
:101932007F4312246F7F4412246F1227D012278A0A
:101942001226317BFF7A2779801226DA7BFF7A27EB
:10195200797680321227581227307F4112246F7F06
:101962004212246F7F4312246F7F4412246F122786
:10197200D01227761226317BFF7A2779941226DA43
:101982007BFF7A27798A1226E6E4FBFA7D08FC7F40
:0619920008FE1222FC22F7
:101A32001227309000B8E024FE601F046003021AEF
:101A4200C09000B9E0B4020512278080719000B9FD
:101A5200E06403706912279480649000B7E024BEAA
:101A6200601714602114602B2403703990007CE00D
:101A7200FF1210B290007D802590007EE0FF1210D0
:101A8200B290007F8018900080E0FF1210B29000A8
:101A920081800B900082E0FF1210B2900083E0FF81
:101AA2007E00120E499000B9E0B402051227808030
:101AB2000A9000B9E0B4030312279412276C02279C
:011AC20030F3
:101BB2009000B8E024FE600804705E12277680561A
:101BC2009000B7E070031227629000B7E0B44108BA
:101BD2001227627F4112246F9000B7E0B4420812CC
:101BE20027627F4212246F9000B7E0B443081227A5
:101BF200627F4312246F9000B7E0B4440812276258
:101C02007F4412246F9000B9E0B402030227769059
:0A1C120000B9E0B4030312278A2290
:1015CF009000B8E014700302169A1470030216A666
:1015DF001470030216AF240360030216B79000B90C
:1015EF00E024FE603E14606F240260030216B7E42D
:1015FF00900086F0A3F090008BF0A3F0900086E0AF
:10160F00FEA3E0FF120E4990008BE0FEA3E0FF1255
:10161F000B0212273012274E1227621227D01227E1
:10162F00768031E4900086F0A3F090008BF0A3F069
:10163F00FF1210B2E4FFFE120E49E4FFFE120B027E
:10164F00122730122758900085E0FF12246F1227BF
:10165F00D012278002278AE4900086F0A3F0900032
:10166F008BF0A3F0FF1210B2E4FFFE120E49E4FF5D
:10167F00FE120B02122730122758900085E0FF123E
:10168F00246F1227D012277602279412263190004A
:10169F00B8E0601414F0229000B8E0600B14F02250
:0916AF009000B8E0600214F02282
:101DAF009000B8E0705B900084E01470069000B86B
:101DBF007401F0E4FF1210B2E4FFFE120E49E4FFCB
:101DCF00FE120B0212273012275812276C1227D03F
:101DDF00900084E09000B9F07402F09000B814F015
:101DEF001226317BFF7A1A79321226DA7BFF7A1BA1
:101DFF0079B21226E6E4FBFA7D09FC7F09FE122276
:021E0F00FC22B3
:101B46009000B8E024FE60270470609000B9E0249D
:101B5600FE600E146012240270519000B97402F0F7
:101B6600229000B97403F0229000B97401F022901B
:101B760000B9E024FD601B0470319000B7E07002EC
:101B860080269000B7E004F0E0D3648094C4401B44
:101B960080169000B7E07002800E9000B7E004F067
:0C1BA600E0D3648094C440037441F0223A
:101FE4009000B8E024FE602704704E9000B9E0240D
:101FF400FD600B04700E12278012278A80061227B8
:10200400761227949000B77441F0A37402F02290E2
:1020140000B9E024FE700912263112278012278AA3
:102024009000B9E0900084F09000B7E0900085F053
:0A203400E4A3F0A3F09000B8F0223E
:0328830002260228
:06284C001228860226C0DE
:10214700EF24FD601914603324FD603524FD6037EA
:1021570024FD6039240C703812261C0215CF122674
:102167001C9000B6E0B401067402F002284C9000FF
:10217700B6E06402701A04F002288312261C021DBE
:10218700AF12261C021B4612261C021FE4122494BF
:012197002225
:1022DA0048007C0A1414191E1E322841007B00C1D2
:0522EA000BC109C10A4F
:10257A009000847401F0E4A3F0A3F0A3F0A3F0A305
:0C258A00F0A3F0A3F0A3F090007BF0227F
:10249400900087E004F07006900086E004F0D3908A
:1024A4000087E09410900086E094274004E4F0A3B1
:0424B400F0D20B2235
:0D000E0090007BE0C394FF5003E004F0225B
:0927E400300B05C20B12001E228D
:10001E00E49000B8F0122631900084E024FE7003C4
:10002E000200B8147003020249240260030203DFC7
:10003E00900086E0FEA3E0FF7C007D0A120474EDC2
:10004E004C900059700BF0A304F0FB7A007D1E80DB
:10005E000AE4F0A304F0FB7A007D0A7C00FF7E0028
:10006E001221E1900086E0FFA3E0900089CFF0A37B
:10007E00EFF0900087E025E0FE900086E0339000E0
:10008E008BF0A3CEF0900089E0FEA3E0FF120E49A4
:10009E0090008BE0FEA3E0FF120B0212244A1227FF
:1000AE004E12276212277602024330094C900059F5
:1000BE00E4F0A304F0FB7A007D0A7C00FF7E0012C0
:1000CE0021E1900085E0FF3395E0FEEF25E0FFEEA5
:1000DE0033FE74FB2FF58274FF3EF583E0FD74FA58
:1000EE002FF58274FF3EF583E08DF0A4FF9000861D
:1000FE00E5F0F0A3EFF0020217900085E0FF3395D4
:10010E00E0FEEF25E0FFEE33FE74FB2FF58274FF69
:10011E003EF583E0FD74FA2FF58274FF3EF583E021
:10012E008DF0A4FF900086E0B5F019A3E0B507149A
:10013E00D209900059E4F0A304F0FB7A007D1E7CF6
:10014E0000FF804E900085E0FF3395E0FEEF25E046
:10015E00FFEE33FE74FB2FF58274FF3EF583E0FD58
:10016E007C00900086E0FEA3E0FF120474ED4C903C
:10017E0000597011F0A37403F07B0A7A007D0A7C9B
:10018E00007F01800DE4F0A304F0FB7A007D0A7C71
:10019E0000FF7E001221E1D20A900085E0FF339528
:1001AE00E0FEEF25E0FFEE33FE74FB2FF58274FFC9
:1001BE003EF583E0FD7C00900086E0FEA3E0FF129A
:1001CE000474A3EFF0900085E0FF3395E0FEEF2579
:1001DE00E0FFEE33FE74FB2FF58274FF3EF583E0F5
:1001EE00FD7C00900086E0FEA3E0FF1204749000F8
:1001FE0089ECF0A3EDF0900087E025E0FE900086FC
:10020E00E03390008BF0A3CEF0900088E0FF121048
:10021E00B2900089E0FEA3E0FF120E4990008BE041
:10022E00FEA3E0FF120B02122758900085E0FF128A
:10023E00246F12278012278A0203D930094C9000AE
:10024E0059E4F0A304F0FB7A007D0A7C007F2CFEBB
:10025E001221E1900085E0FF3395E0FEEF25E0FFEF
:10026E00EE33FE74FB2FF58274FF3EF583E0FD74D2
:10027E00FA2FF58274FF3EF583E08DF0A4FF900017
:10028E0086E5F0F0A3EFF00203AA900085E0FF33BD
:10029E0095E0FEEF25E0FFEE33FE74FB2FF5827442
:1002AE00FF3EF583E0FD74FA2FF58274FF3EF58371
:1002BE00E08DF0A4FF900086E0B5F019A3E0B5073D
:1002CE0014D209900059E4F0A304F0FB7A007D1ECD
:1002DE007C00FF803F900085E0FF3395E0FEEF2528
:1002EE00E0FFEE33FE74FB2FF58274FF3EF583E0E4
:1002FE00FD7C00900086E0FEA3E0FF120474ED4C3E
:10030E009000597013F0A37403F07B0A7A007D0AF3
:10031E007C007F017E00800FE4F0A304F0FB7A00E6
:10032E007D0A7C007F2CFE1221E1D20A900085E02E
:10033E00FF3395E0FEEF25E0FFEE33FE74FB2FF565
:10034E008274FF3EF583E0FD7C00900086E0FEA304
:10035E00E0FF120474A3EFF0900085E0FF3395E008
:10036E00FEEF25E0FFEE33FE74FB2FF58274FF3EA9
:10037E00F583E0FD7C00900086E0FEA3E0FF120412
:10038E0074900089ECF0A3EDF0900087E025E0FE7C
:10039E00900086E03390008BF0A3CEF0900088E0C2
:1003AE00FF1210B2900089E0FEA3E0FF120E4990FA
:1003BE00008BE0FEA3E0FF120B021227589000857F
:1003CE00E0FF12246F1227761227941227D01227DD
:0103DE0030EE
:0103DF0022FB
:0C26DA00900099EBF0A3EAF0A3E9F022D5
:0C26E60090009CEBF0A3EAF0A3E9F022C6
:1026A000900099A3E0FAA3E0F94A60031206E02241
:1026B00090009CA3E0FAA3E0F94A60031206E0222E
:1022FC00EF4E602D90008FEEF0A3EFF0AF05A3EC46
:10230C00F0A3EFF0AF03A3EAF0A3EFF0E4A3F0A384
:10231C00F0A3F0A3F090008EF090008D04F0122644
:02232C00A022ED
:10263100E490008DF01226B07B007A00790012261A
:04264100DA0226E6AD
:10183D0090008DE070030218F1900091E0FEA3E09E
:10184D00FF4E70030218F190008EE07035D3EF94C7
:10185D0000EE940050030218F1900095E475F0012C
:10186D001204C9FED3900090E095F090008FE09E99
:10187D0050721226B0E4900095F0A3F090008E0403
:10188D00F02290008EE06401705A90009575F00181
:10189D001204C9FED3900092E095F0900091E09E65
:1018AD005042900093E0FEA3E0FF9400EE940040C0
:1018BD0025900097E475F0011204C9FCD3EF95F063
:1018CD00EE9C5005E490008DF090008DE070079037
:1018DD000091F0A3F022E4900095F0A3F090008E1B
:0518ED00F01226A0220C
:0222EF00C10C20
:06285200E49000D9F02221
:101F2E009000D9E004F09000D8E024FE601A14600E
:101F3E002D146038240370429000D9E0C3940540FC
:101F4E0039E4F0300C14800E9000D9E0C3940A40AE
:101F5E0029E4F0300C04C20C800FD20C80199000D2
:101F6E00D9E0C394094013E4F00227449000D9E06D
:0A1F7E00C394094005E4F012273A6D
:011F88002236
:1025B20012251E12286412286A1228231224DB1202
:0B25C20024251224B812268FD2AF226D
:1024DB0053ACFE43AD01C2B053CABF43CA2043CA7B
:1024EB001075D68075D78043CA80D2CBE490009FFD
:0224FB00F022CD
:0628580043CB40D2B02288
:06285E0053CBBFC2B02203
:1021E100ED4C603C9000A1EEF0A3EFF0AF05A3EC45
:1021F100F0A3EFF0AF03A3EAF0A3EFF0900059E0F2
:10220100FFA3E09000A7CFF0A3EFF0E4A3F0A3F0C9
:10221100A3F0A3F09000A0F090009F04F0122858C2
:01222100229A
:08000300E490009FF002285E6A
:10261C00900059E4F0A304F0FB7A007D057C00E403
:05262C00FFFE0221E1A8
:1016B80090009FE070030217839000A5E0FEA3E06E
:1016C800FF4E70030217839000A1E07002A3E06050
:1016D8000F9000A2E024FFF09000A1E034FFF02278
:1016E8009000A0E0FD7035D3EF9400EE9400500315
:1016F8000217839000A9E475F0011204C9FED39083
:1017080000A4E095F09000A3E09E506F12285EE4DC
:101718009000A9F0A3F09000A004F022ED640170FD
:101728005A9000A975F0011204C9FED39000A6E0F2
:1017380095F09000A5E09E50429000A7E0FEA3E03F
:10174800FF9400EE940040259000ABE475F0011280
:1017580004C9FCD3EF95F0EE9C5005E490009FF08F
:1017680090009FE070079000A5F0A3F022E490009D
:0C177800A9F0A3F09000A0F01228582265
:0927ED003083037F00227F0122EA
:0927F6003084037F00227F0122E0
:0927FF003085037F00227F0122D6
:092808003086037F00227F0122CB
:0928110030DD037F00227F01226B
:0C26F2002083062085037F01227F002248
:0628640012178402253E5C
:10255D00900050E02445F582E43400F583EFF090CF
:0D256D000050E004F0C3940A4002E4F022A4
:10232E00900050E0FF90004FE0FEB507037F0022C3
:10233E0074452EF582E43400F583E0FF90004FE003
:09234E0004F0C3940A4002E4F01B
:012357002263
:1023D500900050E0FFA3E0FEB507037F002274459F
:1023E5002EF582E43400F583E0FF900051E004F01F
:0723F500C3940A4002E4F06A
:0123FC0022BE
:10267E00EF75F00BA4240BF582E43400F583E0FF34
:01268E002229
:10229600EF75F00BA42409F582E43400F583ECF025
:1022A600A3EDF0EF75F00BA4240CF582E43400F5F1
:1022B60083EBF0EF75F00BA4240DF582E43400F502
:0422C60083E4F0229B
:09281A00900050E090004FF02204
:10253E0043B10853B2F743B11053B2EF43B1205336
:0F254E00B2DF43B14053B2BF43DC2053DDDF2285
:10178400E490004FF0A3F0A3F0FFEF75F00BA42456
:1017940009F582E43400F583E4F0A37464F0EF7592
:1017A400F00BA42406F582E43400F5837402F0EF10
:1017B40075F00BA4240BF582E43400F583E4F0EF18
:1017C40075F00BA4240CF582E43400F583E4F0EF07
:1017D40075F00BA4240DF582E43400F583E4F00FD6
:1017E400EFB406A690000374FFF0A37427F0A3746B
:1017F400EDF090000E74FFF0A37427F0A374F6F0DC
:1018040090001974FFF0A37427F0A374FFF0900004
:101814002474FFF0A37428F0A37408F090002F74CC
:10182400FFF0A37428F0A37411F090003A74FFF051
:08183400A37426F0A374F2F086
:01183C002289
:10121E00900054EFF0E075F00BA42403F974003540
:10122E00F0FA7B01900000EBF0A3EAF0A3E9F012D4
:10123E0006C01206E0EF7003021310900000E0FBF0
:10124E00A3E0FAA3E0F99000031203E0FFC39405B4
:10125E0050089000037405021374EFC3940A5008EB
:10126E00900003740102040D9000081203E0701444
:10127E0090000804120452900054E075F003A40488
:10128E00FF12255D900000E0FBA3E0FAA3E0F990C9
:10129E0000061204DFFFAEF0D39400EE940050036C
:1012AE000213779000041204DFC39FE5F09E5023D3
:1012BE00900004E475F001120517FCE5F06F700262
:1012CE00EC6E6003021377900054E075F003A424D3
:1012DE0003802B9000091203E0FFD3940050030209
:1012EE00137790000A740112040DC39F407B900087
:1012FE000AE4120452900054E075F003A404FF02B5
:10130E00255D900000E0FBA3E0FAA3E0F990000356
:10131E001203E0FFD39405400A90000374051204F3
:10132E0052802BEF600A90000374FF12040D801E92
:10133E009000081203E0B40115900008E412045264
:10134E00900054E075F003A42402FF12255D900076
:10135E0000E0FBA3E0FAA3E0F9900004E4F5F0123C
:0A136E00056490000AE41204522204
:1025CD00E4900053F0900053E0FFC39406500B12BB
:0A25DD00121E900053E004F080EBA2
:0125E70022D1
:0928230053ACFD43AD020228890B
:03288600C2B122BA
:03288900D2B122A7
:10242500E4F5B475B3FFF5B675B5FFF5DB75DAFF01
:1024350075F94075FA0475E5FF75E6FF75E707431D
:05244500F9800226C031
:0C26C000E4FF8FFBE4F5FC0FEFB413F611
:0126CC0022EB
:0A26FE0053E6FB75FB0A75FC012290
:0A27080043E60475FB0A75FC01228C
:0A27120053E6EF75FB0C75FC012285
:0A271C0043E61075FB0C75FC01226A
:0A27260053E6FE75FB0875FC012266
:0A27300043E60175FB0875FC012269
:0A273A0053E6BF75FB0E75FC01228B
:0A27440043E64075FB0E75FC012210
:0A274E0053E7FE75FB1075FC012235
:0A27580043E70175FB1075FC012238
:10244A0053E7FB53E7F753E7EF53E7DF75FB1275E3
:10245A00FC0E75FB1375FC0F75FB1475FC0E75FBF2
:05246A001575FC0F22B6
:1010B200EFD39463400302121DEF75F00A84FEEF32
:1010C20075F00A84ADF0EFD39409500302116F4317
:1010D200E64043E680AF06EFB40A00400302118106
:1010E2009010E9F828287302110702110F02111754
:1010F20002112502112D02113B021143021151026C
:10110200115F02116775FB0E75FC0A806C75FB0E90
:10111200E4F5FC801C75FB0E75FC0C75FB0F75FC71
:101122000B805C75FB0E75FC04804E75FB0E75FC26
:101132000675FB0F75FC06804675FB0E75FC068076
:101142000675FB0E75FC0E75FB0F75FC0D80307578
:10115200FB0EE4F5FC75FB0F75FC07802275FB0E98
:1011620075FC0E801475FB0E75FC06800C53E6BFF1
:1011720053E67F75FB0E75FC0F75FB0F75FC0F4375
:10118200E70143E702EDB40A00400302121D901189
:1011920097F82828730211B50211BD0211C5021178
:1011A200D20211DA0211E70211EF0211FC02120956
:1011B20002121175FB1075FC0A805A75FB10E4F5DA
:1011C200FC801B75FB1075FC0C75FB1175FC0B226A
:1011D20075FB1075FC04803D75FB1075FC0675FBF4
:1011E2001175FC062275FB1075FC06800675FB1056
:1011F20075FC0E75FB1175FC0D2275FB10E4F5FCF8
:1012020075FB1175FC072275FB1075FC0E800675C7
:0B121200FB1075FC0675FB1175FC0F4E
:01121D0022AE
:0A27620053E7FB75FB1275FC0F2214
:0A276C0043E70475FB1275FC0F2211
:10246F0043E70475FB12EF24BE600E14600F146077
:10247F00102403700F75FC012275FC022275FC04F9
:05248F002275FC08228B
:10225F0053E6FE53E6FD53E6FB53E6F753E6EF5323
:10226F00E6DF75FB0875FC0E75FB0975FC0F75FB3A
:10227F000A75FC0E75FB0B75FC0F75FB0C75FC0ED0
:07228F0075FB0D75FC0F2229
:040E4900AB07AA0643
:100E4D00D3EB94E7EA940340030210B17C007D6478
:100E5D00AF03AE02120474900054EFF07C007D6479
:100E6D00AF03AE021204747E007F0ACFCDCFCECC7D
:100E7D00CE120474900053EFF07C007D0AAF03AEE8
:100E8D0002120474A905D3EB9463EA940050030293
:100E9D000F4243E60143E602A3E0B40A0040030219
:100EAD000F53900EB6F8282873020ED4020EDC02F2
:100EBD000EE4020EF2020EFA020F08020F10020FDC
:100ECD001E020F2C020F3475FB0875FC0A805E752F
:100EDD00FB08E4F5FC801C75FB0875FC0C75FB0923
:100EED0075FC0B806175FB0875FC04804075FB0873
:100EFD0075FC0675FB0975FC06804B75FB0875FCCA
:100F0D0006800675FB0875FC0E75FB0975FC0D80DA
:100F1D003575FB08E4F5FC75FB0975FC0780277535
:100F2D00FB0875FC0E800675FB0875FC0675FB0944
:100F3D0075FC0F801153E6FE53E6FD75FB08E4F5D5
:100F4D00FC75FB09F5FCD3EB9409EA940050030200
:100F5D00100443E60443E608900053E0B40A004051
:100F6D0003021015900F78F8282873020F96020FC0
:100F7D009E020FA6020FB4020FBC020FCA020FD2BF
:100F8D00020FE0020FEE020FF675FB0A75FC0A80E8
:100F9D005E75FB0AE4F5FC801C75FB0A75FC0C758F
:100FAD00FB0B75FC0B806175FB0A75FC04804075AD
:100FBD00FB0A75FC0675FB0B75FC06804B75FB0A71
:100FCD0075FC06800675FB0A75FC0E75FB0B75FC32
:100FDD000D803575FB0AE4F5FC75FB0B75FC078080
:100FED002775FB0A75FC0E800675FB0A75FC0675E8
:100FFD00FB0B75FC0F801153E6FB53E6F775FB0AEF
:10100D00E4F5FC75FB0BF5FC43E61043E620E9B473
:10101D000A0040030210B190102BF828287302101B
:10102D004902105102105902106602106E02107B17
:10103D0002108302109002109D0210A575FB0C7515
:10104D00FC0A805A75FB0CE4F5FC801B75FB0C75D6
:10105D00FC0C75FB0D75FC0B2275FB0C75FC0480EF
:10106D003D75FB0C75FC0675FB0D75FC062275FBBD
:10107D000C75FC06800675FB0C75FC0E75FB0D756D
:10108D00FC0D2275FB0CE4F5FC75FB0D75FC0722C0
:10109D0075FB0C75FC0E800675FB0C75FC0675FB5F
:0410AD000D75FC0FB2
:0110B100221C
:0A27760053E5FB75FB0275FC012220
:0A27800043E50475FB0275FC01221D
:0A278A0053E5EF75FB0475FC012216
:0A27940043E51075FB0475FC0122FB
:0A279E0053E6FE75FB0875FC0122EE
:0A27A80043E60175FB0875FC0122F1
:0A27B20053E5FEE4F5FB75FC01227F
:0A27BC0043E501E4F5FB75FC012282
:1021980053E5FE53E5FD53E5FB53E5F753E5EF53F0
:1021A800E5DF53E5BF53E57FE4F5FB75FC0E75FBF2
:1021B8000175FC0F75FB0275FC0E75FB0375FC0FB2
:1021C80075FB0475FC0E75FB0575FC0F75FB067534
:0921D800FC0E75FB0775FC0F22DB
:040B0200AB07AA068D
:100B0600D3EB940FEA94274003020E487C037DE85A
:100B1600AF03AE02120474900055EFF07C037DE83B
:100B2600AF03AE021204747E007F64CFCDCFCECC6D
:100B3600CE120474900054EFF07C007D64AF03AED7
:100B4600021204747E007F0ACFCDCFCECCCE120423
:100B560074900053EFF07C007D0AAF03AE021204DE
:100B660074A905D3EB94E7EA94035003020C1843E7
:100B7600E50143E502900055E0B40A004003020C8B
:100B860028900B8EF8282873020BAC020BB4020BCC
:100B9600BB020BC9020BD1020BDF020BE7020BF5FE
:100BA600020C02020C0AE4F5FB75FC0A805CE4F513
:100BB600FBF5FC801CE4F5FB75FC0C75FB0175FC74
:100BC6000B805FE4F5FB75FC04803FE4F5FB75FCE8
:100BD6000675FB0175FC068049E4F5FB75FC06808D
:100BE60006E4F5FB75FC0E75FB0175FC0D8033E420
:100BF600F5FBF5FC75FB0175FC078026E4F5FB7536
:100C0600FC0E8006E4F5FB75FC0675FB0175FC0F12
:100C1600801053E5FE53E5FDE4F5FBF5FC75FB019D
:100C2600F5FCD3EB9463EA94005003020CD943E538
:100C36000443E508900054E0B40A004003020CEABD
:100C4600900C4DF8282873020C6B020C73020C7B77
:100C5600020C89020C91020C9F020CA7020CB50231
:100C66000CC3020CCB75FB0275FC0A805E75FB0299
:100C7600E4F5FC801C75FB0275FC0C75FB0375FC2A
:100C86000B806175FB0275FC04804075FB0275FCE8
:100C96000675FB0375FC06804B75FB0275FC06802A
:100CA6000675FB0275FC0E75FB0375FC0D8035752C
:100CB600FB02E4F5FC75FB0375FC07802775FB0258
:100CC60075FC0E800675FB0275FC0675FB0375FC4C
:100CD6000F801153E5FB53E5F775FB02E4F5FC7550
:100CE600FB03F5FCD3EB9409EA94005003020D9B39
:100CF60043E51043E520900053E0B40A00400302A8
:100D06000DAC900D0FF8282873020D2D020D35023B
:100D16000D3D020D4B020D53020D61020D69020DD0
:100D260077020D85020D8D75FB0475FC0A805E75D4
:100D3600FB04E4F5FC801C75FB0475FC0C75FB05D7
:100D460075FC0B806175FB0475FC04804075FB0423
:100D560075FC0675FB0575FC06804B75FB0475FC7A
:100D660006800675FB0475FC0E75FB0575FC0D808B
:100D76003575FB04E4F5FC75FB0575FC07802775E6
:100D8600FB0475FC0E800675FB0475FC0675FB05F9
:100D960075FC0F801153E5EF53E5DF75FB04E4F5B1
:100DA600FC75FB05F5FC43E54043E580E9B40A0024
:100DB6004003020E48900DC2F8282873020DE00287
:100DC6000DE8020DF0020DFD020E05020E12020ED6
:100DD6001A020E27020E34020E3C75FB0675FC0A3B
:100DE600805A75FB06E4F5FC801B75FB0675FC0C4A
:100DF60075FB0775FC0B2275FB0675FC04803D75BB
:100E0600FB0675FC0675FB0775FC062275FB067569
:100E1600FC06800675FB0675FC0E75FB0775FC0D5A
:100E26002275FB06E4F5FC75FB0775FC072275FBCE
:100E36000675FC0E800675FB0675FC0675FB0775C8
:020E4600FC0F9F
:010E48002287
:0A27C60053E5BF75FB0675FC012208
:0A27D00043E54075FB0675FC01228D
:0222F100C10E1C
:0D26CD00E4F5E9F5EDF5EAF5EB439B02229B
:0A27DA00E49000D5F0A3F0A3F02274
:06286A001226CD0227DA60
:1020F0009000D7E0FEC3EF9E64016007C3EE9FFE31
:10210000BE02149000D67401F09000D5E0C394FF95
:102110005012E004F0800DE49000D6F09000D5E07D
:10212000600214F09000D7EFF0300E0C9000D5E074
:10213000C3940A5011C20E229000D5E0D39464409B
:0621400005D20E122494EA
:012146002276
:052870007F010220F0D1
:052875007F020220F0CB
:05287A007F030220F0C5
:10268F0053DC7F43DD807F807E257D007C00021E32
:01269F00D169
:1026580030F80BE59A120440C2F8D20F8002C20F7C
:02266800A20FBF
:01266A00224D
:0822F3004100B4004100B500F8
:1024B8001225965389F75389FB5389FD4389019067
:1024C80000B474FCF0A37466F0758CFCF58AD2A98C
:0324D800D28C2281
:10259600E49000ADF09000AFF09000B1F0A3F090A1
:0C25A60000AEF09000B0F09000B3F02206
:03000B00021C1CB8
:101C1C00C0E0C0F0C083C082C0D075D000C000C08E
:101C2C00069000B4E0F58CA3E0F58A9000ADE004DA
:101C3C00F0C3940A4005E4F0A304F09000AFE00474
:101C4C00F0C394644005E4F0A304F09000B1E47593
:101C5C00F0011204C9FEC3E5F094E8EE9403400AC7
:101C6C009000B1E4F0A3F0A304F0D006D000D0D0E3
:091C7C00D082D083D0F0D0E03218
:10266B0053897F5389BF4389205389EF758DCE756D
:03267B008BCE22E1
:03001B0002288C2C
:01288C003219
:10137800EF14604414606F147003021417147003A0
:10138800021453240460030214B7A2AF920DC2AF33
:1013980075C7AA75C755439780A20D92AFA2AF92A1
:1013A8000DC2AF75C7AA75C7555397BFA20D92AFA7
:1013B800E59630E7FB02147EA2AF920DC2AF75C767
:1013C800AA75C75553977FA20D92AFA2AF920DC2CF
:1013D800AF75C7AA75C755439740A20D92AFE5965A
:1013E80030E6FB02147EA2AF920DC2AF75C7AA7594
:1013F800C755439720A20D92AFE59630E5FBA2AF03
:10140800920DC2AF75C7AA75C7555396FB8027A220
:10141800AF920DC2AF75C7AA75C755439710A20DF5
:1014280092AFE59630E4FBA2AF920DC2AF75C7AAA2
:1014380075C755439604A20D92AFA2AF920DC2AFE5
:1014480075C7AA75C7555396FD804DA2AF920DC2B8
:10145800AF75C7AA75C75553977FA20D92AFA2AFB4
:10146800920DC2AF75C7AA75C7555397BFA20D9203
:10147800AFE59630E3FBA2AF920DC2AF75C7AA7570
:10148800C7555396FBA20D92AFA2AF920DC2AF758E
:10149800C7AA75C755439602A20D92AFA2AF920D87
:1014A800C2AF75C7AA75C7555396FEA20D92AFE590
:0514B8009720E0FB227B
:1023AC0075985243892053877F538EEF53C4DFAB0C
:1023BC0007AA06A905A804E47F807E70FDFC12051F
:0923CC00CDEFF404F58DD28E2250
:1023FD00759852438920438780538EEF53C4DFABCA
:10240D0007AA06A905A804E4FF7EE1FDFC1205CD8F
:08241D00EFF404F58DD28E22CC
:1023580075985243892053877F438E1053C4DFAB4F
:1023680007AA06A905A8047F007E467D057C001201
:0A23780005CDEFF404F58DD28E229E
:10238200759852438920438780438E1053C4DFAB34
:1023920007AA06A905A8047F007E8C7D0A7C00128C
:0A23A20005CDEFF404F58DD28E2274
:101CE9009000BA12068375985253877F53C4F843FC
:101CF900C4209000BAE0F8A3E0F9A3E0FAA3E0FB5E
:101D09007F007E467D057C001205CDC3E49FFFE47C
:101D19009EFE74019DFDE49CFC78081206708FC636
:101D29009000BAE0F8A3E0F9A3E0FAA3E0FB7F0092
:101D39007E467D057C001205CDC3E49FFF8FC54318
:031D4900C40822A9
:101D4C009000BE12068375985243878053C4F843A3
:101D5C00C4209000BEE0F8A3E0F9A3E0FAA3E0FBF6
:101D6C007F007E8C7D0A7C001205CDC3E49FFFE4CE
:101D7C009EFE74019DFDE49CFC78081206708FC6D3
:101D8C009000BEE0F8A3E0F9A3E0FAA3E0FB7F002B
:101D9C007E8C7D0A7C001205CDC3E49FFF8FC5436A
:031DAC00C4082246
:101ED10090005312068375F85253C4F8900053E0F2
:101EE100F8A3E0F9A3E0FAA3E0FB7F007E8C7D0A72
:101EF1007C001205CDC3E49FFFE49EFE74019DFDAD
:101F0100E49CFC78081206708FC6900053E0F8A399
:101F1100E0F9A3E0FAA3E0FB7F007E8C7D0A7C0060
:0D1F21001205CDC3E49FFF8FC543C4082205
:07282C003098FDAF99C2983E
:012833002282
:08283400C2998F993099FD2231
:07283C0030F8FDAF9AC2F86D
:012843002272
:08284400C2F98F9A30F9FD2260
:1025E800E4F5B1F5B2F5B3F5B4F5B5F5B6F5ACF576
:0A25F800ADF5DAF5DBF5DCF5DD22C8
:10251E0075B1FFE4F5B275B3FFF5B475B5FFF5B659
:10252E0075ACFFF5AD75DAFFF5DB75DCFFF5DD2279
:1026020075C7AA75C755A2AF920DC2AF75C7AA7595
:0A261200C755439F80A20D92AF222E
:04287F0043AD8022C3
:10222200EF640A701C30F811E59AB4130CC2F8304E
:10223200F8FDE59AB411F6C2F830F9FDC2F9759AC3
:102242000D30F811E59AB4130CC2F830F8FDE59A96
:0D225200B411F6C2F830F9FDC2F98F9A22DE
:061AC30090FFF81206E698
:101AC900850D83850E8212068F00000000E47FFFDA
:101AD9007EFFFDFC850D83850E82E0F8A3E0F9A366
:101AE900E0FAA3E0FBC312065F504C900004120712
:101AF9000AE0FCA3E0FDA3E0FEA3E02401FFE43E2D
:101B0900FEE43DFDE43CFC90000412070A12068342
:101B1900850D83850E82E0FCA3E0FDA3E0FEA3E032
:101B29002401FFE43EFEE43DFDE43CFC850D838594
:071B39000E82120683809664
:061B40009000080206E619
:1024FD00538EF7438901D28CEF4E6012758AF775B2
:10250D008CFF308DFDC28DEF1F70ED1E80EAC28CE9
:01251D00229B
:10203E009000C2120683538EF7438901D28CE4FFBF
:10204E00FEFDFC9000C2E0F8A3E0F9A3E0FAA3E0E5
:10205E00FBC312065F602F758A65758CFC308DFD93
:10206E00C28D9000C2E0FCA3E0FDA3E0FEA3E0243D
:10207E00FFFFEE34FFFEED34FFFDEC34FFFC90006D
:09208E00C212068380B8C28C2244
:102097009000C6120683538EEF438910D28EE4FF59
:1020A700FEFDFC9000C6E0F8A3E0F9A3E0FAA3E088
:1020B700FBC312065F602F758B65758DFC308FFD36
:1020C700C28F9000C6E0FCA3E0FDA3E0FEA3E024DE
:1020D700FFFFEE34FFFEED34FFFDEC34FFFC900014
:0920E700C612068380B8C28E22E5
:101F89009000CA12068375C40243C408E4FFFEFD2B
:101F9900FC9000CAE0F8A3E0F9A3E0FAA3E0FBC3D0
:101FA90012065F603275C53375C6F5E5C430E4FBCA
:101FB90053C4EF9000CAE0FCA3E0FDA3E0FEA3E058
:101FC90024FFFFEE34FFFEED34FFFDEC34FFFC90FF
:0B1FD90000CA12068380B553C4F72233
:101E11009000CE120683538FFB538FFD538FFEE448
:101E2100F586538FDF438F08E4FFFEFDFC9000CE63
:101E3100E0F8A3E0F9A3E0FAA3E0FBC312065F60B8
:101E41002CE58F30E4FB538FEF9000CEE0FCA3E054
:101E5100FDA3E0FEA3E024FFFFEE34FFFEED34FF1F
:101E6100FDEC34FFFC9000CE12068380BB538FF74C
:011E7100224E
:1014BD000A3D3D3D3D3D3D3D3D3D3D3D3D3D3D3D82
:1014CD003D3D3D3D3D3D3D3D3D3D3D3D3D3D3D3D3F
:1014DD003D3D3D3D3D3D3D3D3D3D3D3D3D3D3D3D2F
:1014ED003D3D3D3D3D3D3D3D3D3D3D3D3D3D3D3D1F
:1014FD003D3D3D3D3D000A2A2020436F70797269C4
:10150D006768742863292032303135204E75766F27
:10151D00746F6E20546563686E6F6C6F67792043CE
:10152D006F72702E20416C6C207269676874732025
:10153D0072657365727665642E2020000A2A20205C
:10154D00436F6E7461637420452D4D61696C3A2053
:10155D004D6963726F432D38626974406E75766F95
:10156D00746F6E2E636F6D20202020202020202090
:10157D00202020202020202020202020202020205E
:10158D0020000A2A202044656D6F2056657273690C
:10159D006F6E20203A202532642E2532642E25329E
:1015AD0064000A2A202046696E69736865642044C8
:1015BD00617465203A202532642E2532642E253241
:0215CD006400B8
:101E72007BFF7A1479BD1208087BFF7A1579031269
:101E820008087BFF7A1579491208087BFF7A1579D1
:101E92008F900056E4F0A304F0E4A3F0A3F0A3F0C3
:101EA200A3F01208087BFF7A1579AF9000567407E9
:101EB200F0A374DFF0A3E4F0A37405F0A3E4F0A3AD
:0F1EC200741FF01208087BFF7A1479BD0208081C
:030000000219984A
:10199800787FE4F6D8FD9000007FFF7E01E4F0A395
:0A19A800DFFCDEFA7581220219ED62
:1019B200021C85E493A3F8E493A34003F68001F2AA
:1019C20008DFF48029E493A3F85407240CC8C33336
:1019D200C4540F4420C8834004F456800146F6DF05
:1019E200E4800B01020408102040809022CAE47EA9
:1019F200019360BCA3FF543F30E509541FFEE493FA
:101A0200A360010ECF54C025E060A840B8E493A3C0
:101A1200FAE493A3F8E493A3C8C582C8CAC583CAEB
:101A2200F0A3C8C582C8CAC583CADFE9DEE780BEA3
:0122FB0000E2
:1003E000BB010CE58229F582E5833AF583E02250D2
:1003F00006E92582F8E622BBFE06E92582F8E2221C
:0D040000E58229F582E5833AF583E4932235
:10040D00BB010FF8E58229F582E5833AF583E028F3
:10041D00F0225009C58229F8E58226F622BBFE0995
:10042D00C58229F8E22582F222F8EA2583F583E9CF
:03043D00932822DF
:10044000BB010689828A83F0225002F722BBFE019B
:02045000F32295
:10045200F8BB010DE58229F582E5833AF583E8F0E0
:10046200225006E92582C8F622BBFE05E92582C88C
:02047200F22274
:10047400BC000BBE0029EF8DF084FFADF022E4CC6C
:10048400F875F008EF2FFFEE33FEEC33FCEE9DEC35
:10049400984005FCEE9DFE0FD5F0E9E4CEFD22ED7B
:1004A400F8F5F0EE8420D21CFEADF075F008EF2FC5
:1004B400FFED33FD4007985006D5F0F222C398FDB6
:0504C4000FD5F0EA2253
:1004C900C5F0F8A3E028F0C5F0F8E58215827002BE
:0604D9001583E038F0225B
:1004DF00BB0110E58229F582E5833AF583E0F5F05B
:1004EF00A3E0225009E92582F886F008E622BBFE38
:1004FF000AE92582F8E2F5F008E222E5832AF5837E
:08050F00E993F5F0A3E9932242
:10051700BB010DC58229C582C5833AC5830204C9BB
:100527005011C58229F808E5F026F618F5F0E5829E
:1005370036F622BBFE11C58229F808E225F0F5F050
:10054700F218E23582F222F8E58229F582E5832A5C
:0D055700F58374019325F0F5F0E49338224C
:10056400F8BB0111E58229F582E5833AF583E8F0C9
:10057400E5F0A3F0225009E92582C8F608A6F02286
:0D058400BBFE09E92582C8F2E5F008F2226D
:1005910075F008758200EF2FFFEE33FECD33CDCC21
:1005A10033CCC58233C5829BED9AEC99E5829840A4
:1005B1000CF582EE9BFEED9AFDEC99FC0FD5F0D681
:1005C100E4CEFBE4CDFAE4CCF9A88222B800C1B9AB
:1005D1000059BA002DEC8BF084CFCECDFCE5F0CBE9
:1005E100F97818EF2FFFEE33FEED33FDEC33FCEB22
:1005F10033FB10D703994004EB99FB0FD8E5E4F9DD
:10060100FA227818EF2FFFEE33FEED33FDEC33FCC9
:10061100C933C910D7059BE99A4007EC9BFCE99ABD
:10062100F90FD8E0E4C9FAE4CCFB2275F010EF2F02
:10063100FFEE33FEED33FDCC33CCC833C810D70702
:100641009BEC9AE899400AED9BFDEC9AFCE899F83D
:0E0651000FD5F0DAE4CDFBE4CCFAE4C8F922D0
:10065F00EB9FF5F0EA9E42F0E99D42F0E89C45F0F1
:01066F002268
:10067000E8600FECC313FCED13FDEE13FEEF13FF68
:03068000D8F1228C
:0C068300ECF0A3EDF0A3EEF0A3EFF022EA
:10068F00A8828583F0D083D0821206A61206A61206
:10069F0006A61206A6E473E493A3C583C5F0C5832B
:1006AF00C8C582C8F0A3C583C5F0C583C8C582C8B5
:0106BF002218
:1006C000BB010789828A830207395005E9F80207CE
:1006D00030BBFE05E9F802076289828A8302076B54
:0606E0008A838982E473A5
:1006E600E50E2582F582E50D3583F583B50D048586
:1006F600820E2210AF0685820EF50D2285820EF53A
:040706000DD2AF223F
:0D070A00E50E2582F582E50D3583F583228D
:10079D00E5082456F582E43400F583E0050822903F
:1007AD000053300703900056E475F0011207420222
:1007BD0007172000E97F2ED2008018EF540F2490E8
:1007CD00D43440D4FF30040BEF24BFB41A005003CF
:1007DD002461FFE50960021509050CE50C700205A1
:1007ED000B30070E900053E475F001120742EF0233
:1007FD0004400222227403D2078003E4C207F508E5
:10080D00900053120759E4F509F50BF50CE5096055
:10081D00077F201207E080F5750AFFC201C200C2F2
:10082D0002C203C205C206C2081207ACFF700D302A
:10083D0007057F001207F1AF0CAE0B22B4255FC286
:10084D00D5C2041207ACFF24D0B40A00501A75F0BB
:10085D000A780930D50508B6FF0106C6A426F6208C
:10086D00D5047002D20380D924CFB41A00EF5004FE
:10087D00C2E5D2040209F2D20180C6D20080C0D2F4
:10088D000280BCD2D580BAD20580B47F201207E099
:10089D002002077401B5090040F112079DFF1207F0
:1008AD00E002081AD208D206809512079DFB1207A6
:1008BD009DFA12079DF94A4B700679C37A0A7BFFA0
:1008CD0020022EE509602A7E008E827583001203B8
:1008DD00E060060EEE650A70F0C2D5EBC0E0EAC02E
:1008ED00E0E9C0E0EE120A39D0E0F9D0E0FAD0E04C
:1008FD00FB120717FF60AAEBC0E0EAC0E0E9C0E019
:10090D001207E0D0E02401F9D0E03400FAD0E0FB8A
:10091D00E50A0460DCD50AD980877BFF7A0A793530
:10092D00D202809C791080027908C206C208800824
:10093D00D2D5790A8004790AC2D5E50A047002F588
:10094D000AE4FAFDFEFF12079DFC7B08200113123D
:10095D00079DFD7B1030000A12079DFE12079DFFBB
:10096D007B20EC3382D592D55013C3E43000069F23
:10097D00FFE49EFEE42001039DFDE49CFCE4CBF826
:10098D00C201EC700CCFCECDCCE824F8F870F3801A
:10099D0017C3EF33FFEE33FEED33FDEC33FCEB33DA
:1009AD00FB994002FB0FD8E9EB300105F8D0E0C40C
:1009BD0048B201C0E00AEC4D4E4F78207B0070C26A
:1009CD00EAB50A0040BCC0E0120A3BD0F0D0E020EE
:1009DD000104C4C0E0C4B201C0F01207C9D0F0D503
:1009ED00F0EB02081A12077708B753093158088837
:1009FD004C08844209354F093D44093D49089D4342
:080A0D0009435509274609279A
:100A1500450927470AE350088C2D08902E08B32B6B
:100A250008942308B1200ACC2A084C48000008ABDA
:100A35003F3F3F00790AA2D5200314300509B910BC
:100A4500020404B9080104A2D520060250010420BD
:100A550002689202B509005034C0E07F20300319C6
:100A65007F30A20272067205500F120A92C202C2AC
:100A750006C205C2087F30800F300503E9C0E012C9
:100A850007E0300503D0E0F9D0E0B509CC30051713
:100A95007F30B9100C1207E07F583004077F78804B
:100AA50003B908031207E03002057F2D0207E07F36
:100AB500202008F87F2B2006F322920280CF286E93
:100AC500756C6C2900D20112079D3001F8C20178BE
:100AD5000930D50108F602084C2D50434958120734
:100AE5009D2403B405004001E4900ADE931207D16A
:0D0AF500743A1207D1D203750904020931C9
:10071700BB010689828A83E0225002E722BBFE02E0
:09072700E32289828A83E4932213
:09073000E6FB08E6FA08E6F922EE
:09073900E0FBA3E0FAA3E0F922C1
:10074200F8E0FBA3A3E0F925F0F0E5821582700240
:070752001583E0FA38F022E4
:09075900EBF0A3EAF0A3E9F022A1
:09076200E2FB08E2FA08E2F922C8
:0C076B00E493FB740193FA740293F922EA
:10077700D083D082F8E4937012740193700DA3A311
:1007870093F8740193F5828883E473740293686025
:06079700EFA3A3A380DF25
:00000001FF
