:0821DC004100D2004100D300D4
:101C49007F0212132F1225211224E91225CC122703
:101C5900A5121E399000AEE06008E4F012166F126A
:101C6900253C9000B0E0600BE4F012269D121EF5B1
:091C79001218019000B3E0601D97
:101C8200E4F012000E1226479000D3E004F0E0D3F5
:0D1C920094034009740AF09000D2E004F0C1
:101C9F001222A3900052EFF060B4E0FF12210E80E9
:011CAF00AD87
:0821E4004100B7004100B80002
:1025CC00E49000B8F0A304F0900084F09000B6F012
:0325DC000218B62C
:1018B6009000B9E024FE60281460592402600302F7
:1018C600195BE4FFFE120E24E4FFFE120B02122740
:1018D6002812273D12274B122798122759022767ED
:1018E6001227441227287F4112244A7F4212244A93
:1018F6007F4312244A7F4412244A122798122767EC
:101906001225B87BFF7A27796012266F7BFF7A272C
:10191600795980321227441227287F4112244A7FA0
:101926004212244A7F4312244A7F4412244A122731
:10193600981227591225B87BFF7A27796E12266FDF
:101946007BFF7A27796712267BE4FBFA7D04FC7F0E
:0619560004FE12224422EF
:1019F6001227289000B8E024FE601F046003021A34
:101A0600849000B9E0B4020512276080719000B995
:101A1600E06403706912276E80649000B7E024BE0C
:101A2600601714602114602B2403703990007CE049
:101A3600FF12107790007D802590007EE0FF121047
:101A46007790007F8018900080E0FF12107790005A
:101A560081800B900082E0FF121077900083E0FFF8
:101A66007E00120E249000B9E0B4020512276080B1
:101A76000A9000B9E0B4030312276E122752022718
:011A86002837
:101B76009000B8E024FE600804705E122759805673
:101B86009000B7E0700312274B9000B7E0B441080D
:101B960012274B7F4112244A9000B7E0B442081244
:101BA600274B7F4212244A9000B7E0B4430812271D
:101BB6004B7F4312244A9000B7E0B4440812274BE7
:101BC6007F4412244A9000B9E0B4020302275990D8
:0A1BD60000B9E0B4030312276722F0
:101586009000B8E014700302165114700302165D41
:101596001470030216662403600302166E9000B9E7
:1015A600E024FE603E14606F2402600302166EE4BF
:1015B600900086F0A3F090008BF0A3F0900086E0F8
:1015C600FEA3E0FF120E2490008BE0FEA3E0FF12C4
:1015D6000B0212272812273D12274B122798122793
:1015E600598031E4900086F0A3F090008BF0A3F0D0
:1015F600FF121077E4FFFE120E24E4FFFE120B0228
:10160600122728122744900085E0FF12244A122749
:1016160098122760022767E4900086F0A3F09000F6
:101626008BF0A3F0FF121077E4FFFE120E24E4FF06
:10163600FE120B02122728122744900085E0FF12A3
:10164600244A12279812275902276E1225B89000AD
:10165600B8E0601414F0229000B8E0600B14F02299
:091666009000B8E0600214F022CB
:101D76009000B8E0705B900084E01470069000B8A4
:101D86007401F0E4FF121077E4FFFE120E24E4FF64
:101D9600FE120B02122728122744122752122798E6
:101DA600900084E09000B9F07402F09000B814F04E
:101DB6001225B87BFF7A1979F612266F7BFF7A1BFC
:101DC600797612267BE4FBFA7D04FC7F04FE122260
:021DD6004422A5
:101B0A009000B8E024FE60270470609000B9E024D9
:101B1A00FE600E146012240270519000B97402F033
:101B2A00229000B97403F0229000B97401F0229057
:101B3A0000B9E024FD601B0470319000B7E0700228
:101B4A0080269000B7E004F0E0D3648094C4401B80
:101B5A0080169000B7E07002800E9000B7E004F0A3
:0C1B6A00E0D3648094C440037441F02276
:101FAB009000B8E024FE602704704E9000B9E02446
:101FBB00FD600B04700E1227601227678006122734
:101FCB005912276E9000B77441F0A37402F022905F
:101FDB0000B9E024FE70091225B81227601227679A
:101FEB009000B9E0900084F09000B7E0900085F08D
:0A1FFB00E4A3F0A3F09000B8F02278
:0327D60002257168
:06279F001227D9022655A5
:10210E00EF24FD601914603324FD603524FD603723
:10211E0024FD6039240C70381225A3021586122571
:10212E00A39000B6E0B401067402F002279F90005F
:10213E00B6E06402701A04F00227D61225A3021D1F
:10214E00761225A3021B0A1225A3021FAB12239A95
:01215E00225E
:1021EC0048007C0A1414191E1E322841007B00C1C1
:0521FC000BC109C10A3E
:1024E9009000847401F0E4A3F0A3F0A3F0A3F0A397
:0C24F900F0A3F0A3F0A3F090007BF02211
:10239A00900087E004F07006900086E004F0D39085
:1023AA000087E09410900086E094274004E4F0A3AC
:0423BA00F0D20B2230
:0D000E0090007BE0C394FF5003E004F0225B
:09269D00300B05C20B12001E22D5
:10001E00E49000B8F01225B8900084E024FE70033E
:10002E000200B8147003020249240260030203DFC7
:10003E00900086E0FEA3E0FF7C007D0A120474EDC2
:10004E004C900059700BF0A304F0FB7A007D1E80DB
:10005E000AE4F0A304F0FB7A007D0A7C00FF7E0028
:10006E0012215F900086E0FFA3E0900089CFF0A3FD
:10007E00EFF0900087E025E0FE900086E0339000E0
:10008E008BF0A3CEF0900089E0FEA3E0FF120E24C9
:10009E0090008BE0FEA3E0FF120B0212258B1227BD
:1000AE003D12274B12275902024330094C9000593A
:1000BE00E4F0A304F0FB7A007D0A7C00FF7E0012C0
:1000CE00215F900085E0FF3395E0FEEF25E0FFEE27
:1000DE0033FE74FB2FF58274FF3EF583E0FD74FA58
:1000EE002FF58274FF3EF583E08DF0A4FF9000861D
:1000FE00E5F0F0A3EFF0020217900085E0FF3395D4
:10010E00E0FEEF25E0FFEE33FE74FB2FF58274FF69
:10011E003EF583E0FD74FA2FF58274FF3EF583E021
:10012E008DF0A4FF900086E0B5F019A3E0B507149A
:10013E00D209900059E4F0A304F0FB7A007D1E7CF6
:10014E0000FF804E900085E0FF3395E0FEEF25E046
:10015E00FFEE33FE74FB2FF58274FF3EF583E0FD58
:10016E007C00900086E0FEA3E0FF120474ED4C903C
:10017E0000597011F0A37403F07B0A7A007D0A7C9B
:10018E00007F01800DE4F0A304F0FB7A007D0A7C71
:10019E0000FF7E0012215FD20A900085E0FF3395AA
:1001AE00E0FEEF25E0FFEE33FE74FB2FF58274FFC9
:1001BE003EF583E0FD7C00900086E0FEA3E0FF129A
:1001CE000474A3EFF0900085E0FF3395E0FEEF2579
:1001DE00E0FFEE33FE74FB2FF58274FF3EF583E0F5
:1001EE00FD7C00900086E0FEA3E0FF1204749000F8
:1001FE0089ECF0A3EDF0900087E025E0FE900086FC
:10020E00E03390008BF0A3CEF0900088E0FF121048
:10021E0077900089E0FEA3E0FF120E2490008BE0A1
:10022E00FEA3E0FF120B02122744900085E0FF129E
:10023E00244A1227601227670203D930094D900015
:10024E0059E4F0A304F0FB7A007D0A7C007FC87E9F
:10025E000012215F900085E0FF3395E0FEEF25E070
:10026E00FFEE33FE74FB2FF58274FF3EF583E0FD47
:10027E0074FA2FF58274FF3EF583E08DF0A4FF90A3
:10028E000086E5F0F0A3EFF00203AA900085E0FFF0
:10029E003395E0FEEF25E0FFEE33FE74FB2FF58283
:1002AE0074FF3EF583E0FD74FA2FF58274FF3EF580
:1002BE0083E08DF0A4FF900086E0B5F019A3E0B5C1
:1002CE000714D209900059E4F0A304F0FB7A007DE4
:1002DE001E7C00FF804F900085E0FF3395E0FEEF1F
:1002EE0025E0FFEE33FE74FB2FF58274FF3EF5839F
:1002FE00E0FD7C00900086E0FEA3E0FF120474EDAA
:10030E004C9000597011F0A37403F07B0A7A007DB3
:10031E000A7C007F01800EE4F0A304F0FB7A007DDE
:10032E000A7C007FC87E0012215FD20A900085E011
:10033E00FF3395E0FEEF25E0FFEE33FE74FB2FF565
:10034E008274FF3EF583E0FD7C00900086E0FEA304
:10035E00E0FF120474A3EFF0900085E0FF3395E008
:10036E00FEEF25E0FFEE33FE74FB2FF58274FF3EA9
:10037E00F583E0FD7C00900086E0FEA3E0FF120412
:10038E0074900089ECF0A3EDF0900087E025E0FE7C
:10039E00900086E03390008BF0A3CEF0900088E0C2
:1003AE00FF121077900089E0FEA3E0FF120E24905A
:1003BE00008BE0FEA3E0FF120B0212274490008593
:1003CE00E0FF12244A12275912276E12279812277D
:0103DE0028F6
:0103DF0022FB
:0C266F00900099EBF0A3EAF0A3E9F02240
:0C267B0090009CEBF0A3EAF0A3E9F02231
:10262700900099A3E0FAA3E0F94A60031206E022BA
:1026370090009CA3E0FAA3E0F94A60031206E022A7
:10224400EF4E602D90008FEEF0A3EFF0AF05A3ECFE
:10225400F0A3EFF0AF03A3EAF0A3EFF0E4A3F0A33D
:10226400F0A3F0A3F090008EF090008D04F01226FD
:0222740027221F
:1025B800E490008DF01226377B007A00790012260D
:0425C8006F02267BFD
:1018010090008DE070030218B5900091E0FEA3E016
:10181100FF4E70030218B590008EE07035D3EF943F
:1018210000EE940050030218B5900095E475F001A4
:101831001204C9FED3900090E095F090008FE09ED5
:101841005072122637E4900095F0A3F090008E04B8
:10185100F02290008EE06401705A90009575F001BD
:101861001204C9FED3900092E095F0900091E09EA1
:101871005042900093E0FEA3E0FF9400EE940040FC
:1018810025900097E475F0011204C9FCD3EF95F09F
:10189100EE9C5005E490008DF090008DE070079073
:1018A1000091F0A3F022E4900095F0A3F090008E57
:0518B100F012262722C1
:02220100C10C0E
:0627A500E49000D9F022CF
:101EF5009000D9E004F09000D8E024FE601A146048
:101F05002D146038240370429000D9E0C394054035
:101F150039E4F0300C14800E9000D9E0C3940A40E7
:101F250029E4F0300C04C20C800FD20C801990000B
:101F3500D9E0C394094013E4F00227369000D9E0B4
:0A1F4500C394094005E4F012272FB1
:011F4F00226F
:0E2647009000D830D8047403F0227402F02200
:1025210012248D1227B71227BD1226DC122428127D
:0B25310023BE122405122616D2AF2292
:02220300C10E0A
:1024280053ACFE43AD01C2B053CABF43CA2043CA2E
:102438001075D68075D78043CA80D2CBE490009FB0
:02244800F02280
:0627AB0043CB40D2B02236
:0627B10053CBBFC2B022B1
:10215F00ED4C603B9000A1EEF0A3EFF0AF05A3ECC8
:10216F00F0A3EFF0AF03A3EAF0A3EFF0900059E074
:10217F00FFA3E09000A7CFF0A3EFF0E4A3F0A3F04C
:10218F00A3F0A3F09000A0F090009F04F0D20E22D5
:08000300E490009FF00227B118
:1025A300900059E4F0A304F0FB7A007D057C00E47D
:0525B300FFFE02215FA4
:10166F0090009FE070030217479000A5E07002A35F
:10167F00E070030217479000A1E07002A3E0600F33
:10168F009000A2E024FFF09000A1E034FFF02230A0
:10169F000E05C20E1227AB9000A0E0FF703BD39057
:1016AF0000A6E094009000A5E094005003021747B5
:1016BF009000A9E475F0011204C9FCD39000A4E0D6
:1016CF0095F09000A3E09C506F1227B1E49000A911
:1016DF00F0A3F09000A004F022EF6401705A900084
:1016EF00A975F0011204C9FED39000A6E095F09001
:1016FF0000A5E09E50429000A7E0FEA3E0FF9400FB
:10170F00EE940040259000ABE475F0011204C9FC83
:10171F00D3EF95F0EE9C5005E490009FF090009F62
:10172F00E070079000A5F0A3F022E49000A9F0A3C9
:09173F00F09000A0F01227AB228B
:0926A6003083037F00227F012232
:0926AF003084037F00227F012228
:0926B8003085037F00227F01221E
:0926C1003086037F00227F012214
:0926CA0030DD037F00227F0122B4
:0C2687002083062085037F01227F0022B3
:0627B7001217480224ADD8
:1024CC00900050E02445F582E43400F583EFF09061
:0D24DC000050E004F0C3940A4002E4F02236
:1022A300900050E0FF90004FE0FEB507037F00224F
:1022B30074452EF582E43400F583E0FF90004FE08F
:0922C30004F0C3940A4002E4F0A7
:0122CC0022EF
:10234A00900050E0FFA3E0FEB507037F002274452A
:10235A002EF582E43400F583E0FF900051E004F0AA
:07236A00C3940A4002E4F0F5
:012371002249
:10260500EF75F00BA4240BF582E43400F583E0FFAD
:0126150022A2
:10221000EF75F00BA42409F582E43400F583ECF0AB
:10222000A3EDF0EF75F00BA4240CF582E43400F577
:1022300083EBF0EF75F00BA4240DF582E43400F588
:0422400083E4F02221
:0926D300900050E090004FF0224D
:1024AD0043B10853B2F743B11053B2EF43B12053C8
:0F24BD00B2DF43B14053B2BF43DC2053DDDF2217
:10174800E490004FF0A3F0A3F0FFEF75F00BA42492
:1017580009F582E43400F583E4F0A37464F0EF75CE
:10176800F00BA42406F582E43400F5837402F0EF4C
:1017780075F00BA4240BF582E43400F583E4F0EF54
:1017880075F00BA4240CF582E43400F583E4F0EF43
:1017980075F00BA4240DF582E43400F583E4F00F12
:1017A800EFB406A690000374FFF0A37426F0A374A8
:1017B800A6F090000E74FFF0A37426F0A374AFF0A7
:1017C80090001974FFF0A37426F0A374B8F0900089
:1017D8002474FFF0A37426F0A374C1F090002F7452
:1017E800FFF0A37426F0A374CAF090003A74FFF0D7
:0817F800A37426F0A37487F02E
:0118000022C5
:1011D500900054EFF0E075F00BA42403F97400358A
:1011E500F0FA7B01900000EBF0A3EAF0A3E9F0121E
:1011F50006C01206E0EF70030212C7900000E0FB84
:10120500A3E0FAA3E0F99000031203E0FFC39405FD
:101215005008900003740502132BEFC3940A50087D
:10122500900003740102040D9000081203E070148D
:1012350090000804120452900054E075F003A404D1
:10124500FF1224CC900000E0FBA3E0FAA3E0F990A4
:1012550000061204DFFFAEF0D39400EE94005003B5
:1012650002132E9000041204DFC39FE5F09E502365
:10127500900004E475F001120517FCE5F06F7002AB
:10128500EC6E600302132E900054E075F003A42465
:1012950003802B9000091203E0FFD3940050030252
:1012A500132E90000A740112040DC39F407B900019
:1012B5000AE4120452900054E075F003A404FF02FE
:1012C50024CC900000E0FBA3E0FAA3E0F990000332
:1012D5001203E0FFD39405400A900003740512043D
:1012E50052802BEF600A90000374FF12040D801EDC
:1012F5009000081203E0B40115900008E4120452AE
:10130500900054E075F003A42402FF1224CC900051
:1013150000E0FBA3E0FAA3E0F9900004E4F5F01285
:0A132500056490000AE4120452224D
:10253C00E4900053F0900053E0FFC39406500B124C
:0A254C0011D5900053E004F080EB7D
:012556002262
:0926DC0053ACFD43AD020227DC02
:0327D900C2B12268
:0327DC00D2B12255
:1023BE00E4F5B475B3FFF5B675B5FFF5DB75DAFF69
:1023CE00F5F975FA0475E5FF75E6FF75E70743F94C
:0423DE0080022655FE
:0C265500E4FF8FFBE4F5FC0FEFB413F67C
:012661002256
:0727050075FB0A53FCFE22E4
:07270C0075FB0A43FC0122EA
:0727130075FB0C53FCFE22D4
:07271A0075FB0C43FC0122DA
:0727210075FB0853FCFE22CA
:0727280075FB0843FC0122D0
:07272F0075FB0E53FCFE22B6
:0727360075FB0E43FC0122BC
:07273D0075FB1053FCFE22A6
:0727440075FB1043FC0122AC
:10258B0075FB1253FCF175FB13E4F5FC75FB14534F
:08259B00FCF175FB15F5FC22B3
:10107700EFD3946340030211D4EF75F00A84FEEFB7
:1010870075F00A84ADF0EFD394095003021132EEE4
:10109700B40A00400302113E9010A6F828287302F4
:1010A70010C40210CC0210D40210E20210EA02109F
:1010B700F802110002110E02111C02112475FB0E19
:1010C70075FC0A805E75FB0E53FCF1801C75FB0EE8
:1010D70075FC0C75FB0F75FC0B805C75FB0E75FCC6
:1010E70004804075FB0E75FC0675FB0F75FC0680CA
:1010F7004675FB0E75FC06800675FB0E75FC0E75B6
:10110700FB0F75FC0D803075FB0E53FCF175FB0F63
:1011170075FC07802275FB0E75FC0E800675FB0EAD
:1011270075FC0675FB0F75FC0F800C75FB0E53FCE9
:10113700F175FB0FE4F5FCEDB40A0040030211D48E
:1011470090114EF828287302116C02117402117C59
:1011570002118902119102119E0211A60211B30216
:1011670011C00211C875FB1075FC0A805A75FB1077
:1011770053FCF1801B75FB1075FC0C75FB1175FC9E
:101187000B2275FB1075FC04803D75FB1075FC0682
:1011970075FB1175FC062275FB1075FC068006753C
:1011A700FB1075FC0E75FB1175FC0D2275FB1053BA
:1011B700FCF175FB1175FC072275FB1075FC0E80A1
:0D11C7000675FB1075FC0675FB1175FC0F1D
:0111D40022F8
:07274B0075FB12E4F5FC220E
:0727520075FB1275FC0F225C
:10244A0075FB12EF24BE600E14600F146010240393
:10245A00700F75FC012275FC022275FC042275FCC2
:02246A00082246
:1023E20075FB0853FCF175FB09E4F5FC75FB0A5318
:1023F200FCF175FB0BF5FC75FB0C53FCF175FB0D49
:03240200F5FC22C4
:040E2400AB07AA0668
:100E2800D3EB94E7EA940340030210767C007D64D8
:100E3800AF03AE02120474900054EFF07C007D649E
:100E4800AF03AE021204747E007F0ACFCDCFCECCA2
:100E5800CE120474900053EFF07C007D0AAF03AE0D
:100E680002120474A905D3EB9463EA9400500302B8
:100E78000F17A3E0B40A004003020F23900E8BF86B
:100E8800282873020EA9020EB1020EB9020EC7027B
:100E98000ECF020EDD020EE5020EF3020F01020F65
:100EA8000975FB0875FC0A805E75FB0853FCF18028
:100EB8001C75FB0875FC0C75FB0975FC0B805C75D3
:100EC800FB0875FC04804075FB0875FC0675FB097A
:100ED80075FC06804675FB0875FC06800675FB08E0
:100EE80075FC0E75FB0975FC0D803075FB0853FC0D
:100EF800F175FB0975FC07802275FB0875FC0E80EF
:100F08000675FB0875FC0675FB0975FC0F800C75EA
:100F1800FB0853FCF175FB09E4F5FCD3EB9409EAF3
:100F280094005003020FD443E60443E608900053AC
:100F3800E0B40A004003020FE0900F48F828287335
:100F4800020F66020F6E020F76020F84020F8C02E8
:100F58000F9A020FA2020FB0020FBE020FC675FB56
:100F68000A75FC0A805E75FB0A53FCF1801C75FB50
:100F78000A75FC0C75FB0B75FC0B805C75FB0A7520
:100F8800FC04804075FB0A75FC0675FB0B75FC06B6
:100F9800804675FB0A75FC06800675FB0A75FC0E13
:100FA80075FB0B75FC0D803075FB0A53FCF175FB66
:100FB8000B75FC07802275FB0A75FC0E800675FB15
:100FC8000A75FC0675FB0B75FC0F800C75FB0A5344
:100FD800FCF175FB0BE4F5FCE9B40A0040030210D0
:100FE80076900FF0F828287302100E0210160210DF
:100FF8001E02102B02103302104002104802105536
:1010080002106202106A75FB0C75FC0A805A75FBA7
:101018000C53FCF1801B75FB0C75FC0C75FB0D75F6
:10102800FC0B2275FB0C75FC04803D75FB0C75FCF4
:101038000675FB0D75FC062275FB0C75FC06800613
:1010480075FB0C75FC0E75FB0D75FC0D2275FB0C04
:1010580053FCF175FB0D75FC072275FB0C75FC0E36
:0E106800800675FB0C75FC0675FB0D75FC0F04
:011076002257
:0727590075FB0253FCFE2298
:0727600075FB0243FC01229E
:0727670075FB0453FCFE2288
:07276E0075FB0475FC01225C
:0727750075FB0853FCFE2276
:07277C0075FB0843FC01227C
:07278300E4F5FB53FCFE220C
:07278A00E4F5FB43FC012212
:10227600E4F5FB53FCF175FB01F5FC75FB0253FC21
:10228600F175FB03F5FC75FB0453FCF175FB05F5D5
:0D229600FC75FB0653FCF175FB07F5FC22FF
:040B0200AB07AA068D
:100B0600D3EB940FEA94274003020E237C037DE87F
:100B1600AF03AE02120474900055EFF07C037DE83B
:100B2600AF03AE021204747E007F64CFCDCFCECC6D
:100B3600CE120474900054EFF07C007D64AF03AED7
:100B4600021204747E007F0ACFCDCFCECCCE120423
:100B560074900053EFF07C007D0AAF03AE021204DE
:100B660074A905D3EB94E7EA94035003020C14909E
:100B76000055E0B40A004003020C1F900B88F828C9
:100B86002873020BA6020BAE020BB6020BC4020BB5
:100B9600CC020BDA020BE2020BF0020BFE020C0691
:100BA600E4F5FB75FC0A805EE4F5FB53FCF1801C62
:100BB600E4F5FB75FC0C75FB0175FC0B805BE4F53D
:100BC600FB75FC048040E4F5FB75FC0675FB0175BE
:100BD600FC068045E4F5FB75FC068006E4F5FB752E
:100BE600FC0E75FB0175FC0D802FE4F5FB53FCF143
:100BF60075FB0175FC078021E4F5FB75FC0E80068C
:100C0600E4F5FB75FC0675FB0175FC0F800BE4F53E
:100C1600FB53FCF175FB01F5FCD3EB9463EA9400FE
:100C26005003020CCA900054E0B40A004003020CC0
:100C3600D6900C3EF8282873020C5C020C64020C59
:100C46006C020C7A020C82020C90020C98020CA622
:100C5600020CB4020CBC75FB0275FC0A805E75FBC7
:100C66000253FCF1801C75FB0275FC0C75FB0375C9
:100C7600FC0B805C75FB0275FC04804075FB0275FD
:100C8600FC0675FB0375FC06804675FB0275FC06C3
:100C9600800675FB0275FC0E75FB0375FC0D803036
:100CA60075FB0253FCF175FB0375FC07802275FB8F
:100CB6000275FC0E800675FB0275FC0675FB037556
:100CC600FC0F800C75FB0253FCF175FB03E4F5FC8D
:100CD600D3EB9409EA94005003020D81900053E08F
:100CE600B40A004003020D8D900CF5F82828730213
:100CF6000D13020D1B020D23020D31020D39020DDB
:100D060047020D4F020D5D020D6B020D7375FB045C
:100D160075FC0A805E75FB0453FCF1801C75FB04B0
:100D260075FC0C75FB0575FC0B805C75FB0475FC8E
:100D360004804075FB0475FC0675FB0575FC068092
:100D46004675FB0475FC06800675FB0475FC0E757E
:100D5600FB0575FC0D803075FB0453FCF175FB0536
:100D660075FC07802275FB0475FC0E800675FB0476
:100D760075FC0675FB0575FC0F800C75FB0453FCB2
:100D8600F175FB05E4F5FCE9B40A004003020E2305
:100D9600900D9DF8282873020DBB020DC3020DCBE2
:100DA600020DD8020DE0020DED020DF5020E020253
:100DB6000E0F020E1775FB0675FC0A805A75FB06A8
:100DC60053FCF1801B75FB0675FC0C75FB0775FC67
:100DD6000B2275FB0675FC04803D75FB0675FC064B
:100DE60075FB0775FC062275FB0675FC0680067505
:100DF600FB0675FC0E75FB0775FC0D2275FB06538D
:100E0600FCF175FB0775FC072275FB0675FC0E8069
:0D0E16000675FB0675FC0675FB0775FC0FE5
:010E230022AC
:0727910075FB0653FCFE225C
:0727980075FB0643FC012262
:02220500C10F07
:0D266200E4F5E9F5EDF5EAF5EB439B022206
:0A269300E49000D5F0A3F0A3F022BC
:0627BD00122662022693C1
:1020B7009000D7E0FEC3EF9E64016007C3EE9FFE6A
:1020C700BE02149000D67401F09000D5E0C394FFCF
:1020D7005012E004F0800DE49000D6F09000D5E0B7
:1020E700600214F09000D7EFF0300F0C9000D5E0AD
:1020F700C3940A5011C20F229000D5E0D3946440D4
:0621070005D20F12239A1D
:01210D0022AF
:0527C3007F010220B7B8
:0527C8007F020220B7B2
:0527CD007F030220B7AC
:1026160053DC7F43DD807F807E257D007C00021EAB
:01262600981B
:1025DF0030F80BE59A120440C2F8D2108002C210F4
:0225EF00A21038
:0125F10022C7
:082207004100B4004100B500E4
:102405001225055389F75389FB5389FD43890190AB
:1024150000B474FCF0A37466F0758CFCF58AD2A93F
:03242500D28C2234
:10250500E49000ADF09000AFF09000B1F0A3F09032
:0C25150000AEF09000B0F09000B3F02297
:03000B00021BE0F5
:101BE000C0E0C0F0C083C082C0D075D000C000C0CB
:101BF000069000B4E0F58CA3E0F58A9000ADE00417
:101C0000F0C3940A4005E4F0A304F09000AFE004B0
:101C1000F0C394644005E4F0A304F09000B1E475CF
:101C2000F0011204C9FEC3E5F094E8EE9403400A03
:101C30009000B1E4F0A3F0A304F0D006D000D0D01F
:091C4000D082D083D0F0D0E03254
:1025F20053897F5389BF4389205389EF758DCE75E7
:032602008BCE225A
:03001B000227DFDA
:0127DF0032C7
:10132F00EF14604414606F1470030213CE14700333
:10133F0002140A2404600302146EA2AF920DC2AF0E
:10134F0075C7AA75C755439780A20D92AFA2AF92EA
:10135F000DC2AF75C7AA75C7555397BFA20D92AFF0
:10136F00E59630E7FB021435A2AF920DC2AF75C7F9
:10137F00AA75C75553977FA20D92AFA2AF920DC218
:10138F00AF75C7AA75C755439740A20D92AFE596A3
:10139F0030E6FB021435A2AF920DC2AF75C7AA7526
:1013AF00C755439720A20D92AFE59630E5FBA2AF4C
:1013BF00920DC2AF75C7AA75C7555396FB8027A26A
:1013CF00AF920DC2AF75C7AA75C755439710A20D3F
:1013DF0092AFE59630E4FBA2AF920DC2AF75C7AAEC
:1013EF0075C755439604A20D92AFA2AF920DC2AF2F
:1013FF0075C7AA75C7555396FD804DA2AF920DC202
:10140F00AF75C7AA75C75553977FA20D92AFA2AFFD
:10141F00920DC2AF75C7AA75C7555397BFA20D924C
:10142F00AFE59630E3FBA2AF920DC2AF75C7AA75B9
:10143F00C7555396FBA20D92AFA2AF920DC2AF75D7
:10144F00C7AA75C755439602A20D92AFA2AF920DD0
:10145F00C2AF75C7AA75C7555396FEA20D92AFE5D9
:05146F009720E0FB22C4
:1023210075985243892053877F538EEF53C4DFAB97
:1023310007AA06A905A804E47F807E70FDFC1205AA
:09234100CDEFF404F58DD28E22DB
:10237200759852438920438780538EEF53C4DFAB55
:1023820007AA06A905A804E4FF7EE1FDFC1205CD1B
:08239200EFF404F58DD28E2258
:1022CD0075985243892053877F438E1053C4DFABDB
:1022DD0007AA06A905A8047F007E467D057C00128D
:0A22ED0005CDEFF404F58DD28E222A
:1022F700759852438920438780438E1053C4DFABC0
:1023070007AA06A905A8047F007E8C7D0A7C001217
:0A23170005CDEFF404F58DD28E22FF
:101CB0009000BA12068375985253877F53C4F84335
:101CC000C4209000BAE0F8A3E0F9A3E0FAA3E0FB97
:101CD0007F007E467D057C001205CDC3E49FFFE4B6
:101CE0009EFE74019DFDE49CFC78081206708FC670
:101CF0009000BAE0F8A3E0F9A3E0FAA3E0FB7F00CC
:101D00007E467D057C001205CDC3E49FFF8FC54351
:031D1000C40822E2
:101D13009000BE12068375985243878053C4F843DC
:101D2300C4209000BEE0F8A3E0F9A3E0FAA3E0FB2F
:101D33007F007E8C7D0A7C001205CDC3E49FFFE407
:101D43009EFE74019DFDE49CFC78081206708FC60C
:101D53009000BEE0F8A3E0F9A3E0FAA3E0FB7F0064
:101D63007E8C7D0A7C001205CDC3E49FFF8FC543A3
:031D7300C408227F
:101E980090005312068375F85253C4F8900053E02B
:101EA800F8A3E0F9A3E0FAA3E0FB7F007E8C7D0AAB
:101EB8007C001205CDC3E49FFFE49EFE74019DFDE6
:101EC800E49CFC78081206708FC6900053E0F8A3D3
:101ED800E0F9A3E0FAA3E0FB7F007E8C7D0A7C009A
:0D1EE8001205CDC3E49FFF8FC543C408223F
:0726E5003098FDAF99C29887
:0126EC0022CB
:0826ED00C2998F993099FD227A
:0726F50030F8FDAF9AC2F8B6
:0126FC0022BB
:0826FD00C2F98F9A30F9FD22A9
:10255700E4F5B1F5B2F5B3F5B4F5B5F5B6F5ACF507
:0A256700ADF5DAF5DBF5DCF5DD2259
:10248D0075B1FFE4F5B275B3FFF5B475B5FFF5B6EB
:10249D0075ACFFF5AD75DAFFF5DB75DCFFF5DD220B
:1025710075C7AA75C755A2AF920DC2AF75C7AA7527
:0A258100C755439F80A20D92AF22C0
:0427D20043AD802271
:10219F00EF640A701C30F811E59AB4130CC2F830D2
:1021AF00F8FDE59AB411F6C2F830F9FDC2F9759A47
:1021BF000D30F811E59AB4130CC2F830F8FDE59A1A
:0D21CF00B411F6C2F830F9FDC2F98F9A2262
:061A870090FFF81206E6D4
:101A8D00850D83850E8212068F00000000E47FFF16
:101A9D007EFFFDFC850D83850E82E0F8A3E0F9A3A2
:101AAD00E0FAA3E0FBC312065F504C90000412074E
:101ABD000AE0FCA3E0FDA3E0FEA3E02401FFE43E69
:101ACD00FEE43DFDE43CFC90000412070A1206837F
:101ADD00850D83850E82E0FCA3E0FDA3E0FEA3E06F
:101AED002401FFE43EFEE43DFDE43CFC850D8385D1
:071AFD000E821206838096A1
:061B04009000080206E655
:10246C00538EF7438901D28CEF4E6012758AF77543
:10247C008CFF308DFDC28DEF1F70ED1E80EAC28C7B
:01248C00222D
:102005009000C2120683538EF7438901D28CE4FFF8
:10201500FEFDFC9000C2E0F8A3E0F9A3E0FAA3E01E
:10202500FBC312065F602F758A65758CFC308DFDCC
:10203500C28D9000C2E0FCA3E0FDA3E0FEA3E02476
:10204500FFFFEE34FFFEED34FFFDEC34FFFC9000A6
:09205500C212068380B8C28C227D
:10205E009000C6120683538EEF438910D28EE4FF92
:10206E00FEFDFC9000C6E0F8A3E0F9A3E0FAA3E0C1
:10207E00FBC312065F602F758B65758DFC308FFD6F
:10208E00C28F9000C6E0FCA3E0FDA3E0FEA3E02417
:10209E00FFFFEE34FFFEED34FFFDEC34FFFC90004D
:0920AE00C612068380B8C28E221E
:101F50009000CA12068375C40243C408E4FFFEFD64
:101F6000FC9000CAE0F8A3E0F9A3E0FAA3E0FBC309
:101F700012065F603275C53375C6F5E5C430E4FB03
:101F800053C4EF9000CAE0FCA3E0FDA3E0FEA3E091
:101F900024FFFFEE34FFFEED34FFFDEC34FFFC9038
:0B1FA00000CA12068380B553C4F7226C
:101DD8009000CE120683538FFB538FFD538FFEE482
:101DE800F586538FDF438F08E4FFFEFDFC9000CE9D
:101DF800E0F8A3E0F9A3E0FAA3E0FBC312065F60F2
:101E08002CE58F30E4FB538FEF9000CEE0FCA3E08D
:101E1800FDA3E0FEA3E024FFFFEE34FFFEED34FF58
:101E2800FDEC34FFFC9000CE12068380BB538FF785
:011E38002287
:101474000A3D3D3D3D3D3D3D3D3D3D3D3D3D3D3DCB
:101484003D3D3D3D3D3D3D3D3D3D3D3D3D3D3D3D88
:101494003D3D3D3D3D3D3D3D3D3D3D3D3D3D3D3D78
:1014A4003D3D3D3D3D3D3D3D3D3D3D3D3D3D3D3D68
:1014B4003D3D3D3D3D000A2A2020436F707972690D
:1014C4006768742863292032303135204E75766F71
:1014D400746F6E20546563686E6F6C6F6779204318
:1014E4006F72702E20416C6C20726967687473206F
:1014F40072657365727665642E2020000A2A2020A6
:10150400436F6E7461637420452D4D61696C3A209C
:101514004D6963726F432D38626974406E75766FDE
:10152400746F6E2E636F6D202020202020202020D9
:1015340020202020202020202020202020202020A7
:1015440020000A2A202044656D6F20566572736955
:101554006F6E20203A202532642E2532642E2532E7
:1015640064000A2A202046696E6973686564204411
:10157400617465203A202532642E2532642E25328A
:02158400640001
:101E39007BFF7A1479741208087BFF7A1479BA1235
:101E490008087BFF7A1579001208087BFF7A157953
:101E590046900056E4F0A304F0E4A3F0A3F0A3F045
:101E6900A3F01208087BFF7A15796690005674076B
:101E7900F0A374DFF0A3E4F0A37405F0A3E4F0A3E6
:0F1E8900741FF01208087BFF7A1479740208089E
:0300000002195C86
:10195C00787FE4F6D8FD9000007FFF7E01E4F0A3D1
:0A196C00DFFCDEFA7581220219B1DA
:10197600021C49E493A3F8E493A34003F68001F222
:1019860008DFF48029E493A3F85407240CC8C33372
:10199600C4540F4420C8834004F456800146F6DF41
:1019A600E4800B01020408102040809021DCE47ED4
:1019B600019360BCA3FF543F30E509541FFEE49336
:1019C600A360010ECF54C025E060A840B8E493A3FD
:1019D600FAE493A3F8E493A3C8C582C8CAC583CA28
:1019E600F0A3C8C582C8CAC583CADFE9DEE780BEE0
:01220F0000CE
:1003E000BB010CE58229F582E5833AF583E02250D2
:1003F00006E92582F8E622BBFE06E92582F8E2221C
:0D040000E58229F582E5833AF583E4932235
:10040D00BB010FF8E58229F582E5833AF583E028F3
:10041D00F0225009C58229F8E58226F622BBFE0995
:10042D00C58229F8E22582F222F8EA2583F583E9CF
:03043D00932822DF
:10044000BB010689828A83F0225002F722BBFE019B
:02045000F32295
:10045200F8BB010DE58229F582E5833AF583E8F0E0
:10046200225006E92582C8F622BBFE05E92582C88C
:02047200F22274
:10047400BC000BBE0029EF8DF084FFADF022E4CC6C
:10048400F875F008EF2FFFEE33FEEC33FCEE9DEC35
:10049400984005FCEE9DFE0FD5F0E9E4CEFD22ED7B
:1004A400F8F5F0EE8420D21CFEADF075F008EF2FC5
:1004B400FFED33FD4007985006D5F0F222C398FDB6
:0504C4000FD5F0EA2253
:1004C900C5F0F8A3E028F0C5F0F8E58215827002BE
:0604D9001583E038F0225B
:1004DF00BB0110E58229F582E5833AF583E0F5F05B
:1004EF00A3E0225009E92582F886F008E622BBFE38
:1004FF000AE92582F8E2F5F008E222E5832AF5837E
:08050F00E993F5F0A3E9932242
:10051700BB010DC58229C582C5833AC5830204C9BB
:100527005011C58229F808E5F026F618F5F0E5829E
:1005370036F622BBFE11C58229F808E225F0F5F050
:10054700F218E23582F222F8E58229F582E5832A5C
:0D055700F58374019325F0F5F0E49338224C
:10056400F8BB0111E58229F582E5833AF583E8F0C9
:10057400E5F0A3F0225009E92582C8F608A6F02286
:0D058400BBFE09E92582C8F2E5F008F2226D
:1005910075F008758200EF2FFFEE33FECD33CDCC21
:1005A10033CCC58233C5829BED9AEC99E5829840A4
:1005B1000CF582EE9BFEED9AFDEC99FC0FD5F0D681
:1005C100E4CEFBE4CDFAE4CCF9A88222B800C1B9AB
:1005D1000059BA002DEC8BF084CFCECDFCE5F0CBE9
:1005E100F97818EF2FFFEE33FEED33FDEC33FCEB22
:1005F10033FB10D703994004EB99FB0FD8E5E4F9DD
:10060100FA227818EF2FFFEE33FEED33FDEC33FCC9
:10061100C933C910D7059BE99A4007EC9BFCE99ABD
:10062100F90FD8E0E4C9FAE4CCFB2275F010EF2F02
:10063100FFEE33FEED33FDCC33CCC833C810D70702
:100641009BEC9AE899400AED9BFDEC9AFCE899F83D
:0E0651000FD5F0DAE4CDFBE4CCFAE4C8F922D0
:10065F00EB9FF5F0EA9E42F0E99D42F0E89C45F0F1
:01066F002268
:10067000E8600FECC313FCED13FDEE13FEEF13FF68
:03068000D8F1228C
:0C068300ECF0A3EDF0A3EEF0A3EFF022EA
:10068F00A8828583F0D083D0821206A61206A61206
:10069F0006A61206A6E473E493A3C583C5F0C5832B
:1006AF00C8C582C8F0A3C583C5F0C583C8C582C8B5
:0106BF002218
:1006C000BB010789828A830207395005E9F80207CE
:1006D00030BBFE05E9F802076289828A8302076B54
:0606E0008A838982E473A5
:1006E600E50E2582F582E50D3583F583B50D048586
:1006F600820E2210AF0685820EF50D2285820EF53A
:040706000DD2AF223F
:0D070A00E50E2582F582E50D3583F583228D
:10079D00E5082456F582E43400F583E0050822903F
:1007AD000053300703900056E475F0011207420222
:1007BD0007172000E97F2ED2008018EF540F2490E8
:1007CD00D43440D4FF30040BEF24BFB41A005003CF
:1007DD002461FFE50960021509050CE50C700205A1
:1007ED000B30070E900053E475F001120742EF0233
:1007FD00044002219F7403D2078003E4C207F50869
:10080D00900053120759E4F509F50BF50CE5096055
:10081D00077F201207E080F5750AFFC201C200C2F2
:10082D0002C203C205C206C2081207ACFF700D302A
:10083D0007057F001207F1AF0CAE0B22B4255FC286
:10084D00D5C2041207ACFF24D0B40A00501A75F0BB
:10085D000A780930D50508B6FF0106C6A426F6208C
:10086D00D5047002D20380D924CFB41A00EF5004FE
:10087D00C2E5D2040209F2D20180C6D20080C0D2F4
:10088D000280BCD2D580BAD20580B47F201207E099
:10089D002002077401B5090040F112079DFF1207F0
:1008AD00E002081AD208D206809512079DFB1207A6
:1008BD009DFA12079DF94A4B700679C37A0A7BFFA0
:1008CD0020022EE509602A7E008E827583001203B8
:1008DD00E060060EEE650A70F0C2D5EBC0E0EAC02E
:1008ED00E0E9C0E0EE120A39D0E0F9D0E0FAD0E04C
:1008FD00FB120717FF60AAEBC0E0EAC0E0E9C0E019
:10090D001207E0D0E02401F9D0E03400FAD0E0FB8A
:10091D00E50A0460DCD50AD980877BFF7A0A793530
:10092D00D202809C791080027908C206C208800824
:10093D00D2D5790A8004790AC2D5E50A047002F588
:10094D000AE4FAFDFEFF12079DFC7B08200113123D
:10095D00079DFD7B1030000A12079DFE12079DFFBB
:10096D007B20EC3382D592D55013C3E43000069F23
:10097D00FFE49EFEE42001039DFDE49CFCE4CBF826
:10098D00C201EC700CCFCECDCCE824F8F870F3801A
:10099D0017C3EF33FFEE33FEED33FDEC33FCEB33DA
:1009AD00FB994002FB0FD8E9EB300105F8D0E0C40C
:1009BD0048B201C0E00AEC4D4E4F78207B0070C26A
:1009CD00EAB50A0040BCC0E0120A3BD0F0D0E020EE
:1009DD000104C4C0E0C4B201C0F01207C9D0F0D503
:1009ED00F0EB02081A12077708B753093158088837
:1009FD004C08844209354F093D44093D49089D4342
:080A0D0009435509274609279A
:100A1500450927470AE350088C2D08902E08B32B6B
:100A250008942308B1200ACC2A084C48000008ABDA
:100A35003F3F3F00790AA2D5200314300509B910BC
:100A4500020404B9080104A2D520060250010420BD
:100A550002689202B509005034C0E07F20300319C6
:100A65007F30A20272067205500F120A92C202C2AC
:100A750006C205C2087F30800F300503E9C0E012C9
:100A850007E0300503D0E0F9D0E0B509CC30051713
:100A95007F30B9100C1207E07F583004077F78804B
:100AA50003B908031207E03002057F2D0207E07F36
:100AB500202008F87F2B2006F322920280CF286E93
:100AC500756C6C2900D20112079D3001F8C20178BE
:100AD5000930D50108F602084C2D50434958120734
:100AE5009D2403B405004001E4900ADE931207D16A
:0D0AF500743A1207D1D203750904020931C9
:10071700BB010689828A83E0225002E722BBFE02E0
:09072700E32289828A83E4932213
:09073000E6FB08E6FA08E6F922EE
:09073900E0FBA3E0FAA3E0F922C1
:10074200F8E0FBA3A3E0F925F0F0E5821582700240
:070752001583E0FA38F022E4
:09075900EBF0A3EAF0A3E9F022A1
:09076200E2FB08E2FA08E2F922C8
:0C076B00E493FB740193FA740293F922EA
:10077700D083D082F8E4937012740193700DA3A311
:1007870093F8740193F5828883E473740293686025
:06079700EFA3A3A380DF25
:00000001FF
