:082223004100D7004100D80082
:03003B0002285543
:0428550075EC0032EC
:101BA0007F0212134F1222C512258D1224171228FC
:101BB00028121ECE9000AEE06008E4F012168F12DC
:101BC00025C59000B0E0600EE4F012254F122713F7
:0C1BD000121CDD1217689000B3E0601DCD
:101BDC00E4F012000E1226BD9000D8E004F0E0D321
:0D1BEC0094034009740AF09000D7E004F063
:101BF900122320900052EFF060B1E0FF121F2D80F8
:011C0900AA30
:10222B004100B8004100B9004100B6004100BB00BD
:10241700E49000B9F053E9FB53E9FD53E9FE43EDBE
:102427000843EA0853EBF7A304F0900084F0900008
:05243700B7F00218E0FF
:1018E0009000BAE024FE60281460592402600302CC
:1018F0001985E4FFFE120E44E4FFFE120B221227AC
:10190000A51227BA1227C81228151227D60227E4D3
:101910001227C11227A57F411224EC7F421224EC2A
:101920007F431224EC7F441224EC1228151227E482
:101930001226417BFF7A2779DD1226E57BFF7A2785
:1019400079D680321227C11227A57F411224EC7F5D
:10195000421224EC7F431224EC7F441224EC122820
:10196000151227D61226417BFF7A2779EB1226E53E
:101970007BFF7A2779E41226F1E4FBFA7D04FC7FF1
:0619800004FE1222932276
:101A20001227A59000B9E024FE601F046003021A8B
:101A3000AE9000BAE0B402051227DD80719000BAC2
:101A4000E0640370691227EB80649000B8E024BE64
:101A5000601714602114602B2403703990007CE01F
:101A6000FF12109790007D802590007EE0FF1210FD
:101A70009790007F8018900080E0FF1210979000F0
:101A800081800B900082E0FF121097900083E0FFAE
:101A90007E00120E449000BAE0B402051227DD80E9
:101AA0000A9000BAE0B403031227EB1227CF0227F3
:011AB000A590
:101C0A009000B9E024FE600804705E1227D6805660
:101C1A009000B8E070031227C89000B8E0B44108F9
:101C2A001227C87F411224EC9000B8E0B44208128F
:101C3A0027C87F421224EC9000B8E0B44308122768
:101C4A00C87F431224EC9000B8E0B444081227C8B5
:101C5A007F441224EC9000BAE0B402030227D69023
:0A1C6A0000BAE0B403031227E422DD
:1015A6009000B9E014700302167114700302167DE0
:1015B6001470030216862403600302168E9000BA86
:1015C600E024FE603E14606F2402600302168EE47F
:1015D600900086F0A3F090008BF0A3F0900086E0D8
:1015E600FEA3E0FF120E4490008BE0FEA3E0FF1284
:1015F6000B221227A51227BA1227C812281512275E
:10160600D68031E4900086F0A3F090008BF0A3F032
:10161600FF121097E4FFFE120E44E4FFFE120B22A7
:101626001227A51227C1900085E0FF1224EC12288C
:10163600151227DD0227E4E4900086F0A3F090005F
:101646008BF0A3F0FF121097E4FFFE120E44E4FFA6
:10165600FE120B221227A51227C1900085E0FF1269
:1016660024EC1228151227D60227EB1226419000E9
:10167600B9E0601414F0229000B9E0600B14F02277
:091686009000B9E0600214F022AA
:101E0B009000B9E0705B900084E01470069000B90C
:101E1B007401F0E4FF121097E4FFFE120E44E4FF8E
:101E2B00FE120B221227A51227C11227CF1228153B
:101E3B00900084E09000BAF07402F09000B914F0B6
:101E4B001226417BFF7A1A79201226E57BFF7A1C3A
:101E5B00790A1226F1E4FBFA7D04FC7F04FE1222C0
:021E6B009322C0
:101B34009000B9E024FE60270470609000BAE024AD
:101B4400FE600E146012240270519000BA7402F008
:101B5400229000BA7403F0229000BA7401F022902B
:101B640000BAE024FD601B0470319000B8E07002FC
:101B740080269000B8E004F0E0D3648094C4401B55
:101B840080169000B8E07002800E9000B8E004F077
:0C1B9400E0D3648094C440037441F0224C
:102043009000B9E024FE602704704E9000BAE024AB
:10205300FD600B04700E1227DD1227E480061227A1
:10206300D61227EB9000B87441F0A37402F02290CB
:1020730000BAE024FE70091226411227DD1227E47C
:102083009000BAE0900084F09000B8E0900085F0F2
:0A209300E4A3F0A3F09000B9F022DE
:03285D000225FA57
:06281C001228600226CB29
:10254F009000B7E0B402129000B6E004F0E0C3943C
:0E255F001E400BE4F043870222E49000B6F029
:01256D00224B
:07277B009000BBE004F02216
:06282200E49000BBF0226F
:101F2D00E49000BBF0EF24FD602114603B24FD60C4
:101F3D003D24FD603F24FD6041240C704012262C91
:101F4D009000B7E0640170350215A612262C9000A2
:101F5D00B7E0B401067402F002281C9000B7E064EB
:101F6D0002701A04F002285D12262C021E0B122696
:0E1F7D002C021B3412262C02204312243C227C
:10223B0048007C0A1414191E1E322841007B00C171
:05224B000BC109C10AEE
:10258D009000847401F0E4A3F0A3F0A3F0A3F0A3F2
:0C259D00F0A3F0A3F0A3F090007BF0226C
:10243C00900087E004F07006900086E004F0D390E2
:10244C000087E09410900086E094274004E4F0A309
:04245C00F0D20B228D
:0D000E0090007BE0C394FF5003E004F0225B
:09271300300B05C20B12003E223E
:10003E00E49000B9F0122641900084E024FE700393
:10004E000200D8147003020269240260030203FF47
:10005E00900086E0FEA3E0FF7C007D0A120494ED82
:10006E004C900059700BF0A304F0FB7A007D1E80BB
:10007E000AE4F0A304F0FB7A007D0A7C00FF7E0008
:10008E001221A6900086E0FFA3E0900089CFF0A396
:10009E00EFF0900087E025E0FE900086E0339000C0
:1000AE008BF0A3CEF0900089E0FEA3E0FF120E4489
:1000BE0090008BE0FEA3E0FF120B221226141227F3
:1000CE00BA1227C81227D602026330094C90005983
:1000DE00E4F0A304F0FB7A007D0A7C00FF7E0012A0
:1000EE0021A6900085E0FF3395E0FEEF25E0FFEEC0
:1000FE0033FE74FB2FF58274FF3EF583E0FD74FA38
:10010E002FF58274FF3EF583E08DF0A4FF900086FC
:10011E00E5F0F0A3EFF0020237900085E0FF339593
:10012E00E0FEEF25E0FFEE33FE74FB2FF58274FF49
:10013E003EF583E0FD74FA2FF58274FF3EF583E001
:10014E008DF0A4FF900086E0B5F019A3E0B507147A
:10015E00D209900059E4F0A304F0FB7A007D1E7CD6
:10016E0000FF804E900085E0FF3395E0FEEF25E026
:10017E00FFEE33FE74FB2FF58274FF3EF583E0FD38
:10018E007C00900086E0FEA3E0FF120494ED4C90FC
:10019E0000597011F0A37403F07B0A7A007D0A7C7B
:1001AE00007F01800DE4F0A304F0FB7A007D0A7C51
:1001BE0000FF7E001221A6D20A900085E0FF339543
:1001CE00E0FEEF25E0FFEE33FE74FB2FF58274FFA9
:1001DE003EF583E0FD7C00900086E0FEA3E0FF127A
:1001EE000494A3EFF0900085E0FF3395E0FEEF2539
:1001FE00E0FFEE33FE74FB2FF58274FF3EF583E0D5
:10020E00FD7C00900086E0FEA3E0FF1204949000B7
:10021E0089ECF0A3EDF0900087E025E0FE900086DB
:10022E00E03390008BF0A3CEF0900088E0FF121028
:10023E0097900089E0FEA3E0FF120E4490008BE041
:10024E00FEA3E0FF120B221227C1900085E0FF12E1
:10025E0024EC1227DD1227E40203F930094D900039
:10026E0059E4F0A304F0FB7A007D0A7C007FC87E7F
:10027E00001221A6900085E0FF3395E0FEEF25E009
:10028E00FFEE33FE74FB2FF58274FF3EF583E0FD27
:10029E0074FA2FF58274FF3EF583E08DF0A4FF9083
:1002AE000086E5F0F0A3EFF00203CA900085E0FFB0
:1002BE003395E0FEEF25E0FFEE33FE74FB2FF58263
:1002CE0074FF3EF583E0FD74FA2FF58274FF3EF560
:1002DE0083E08DF0A4FF900086E0B5F019A3E0B5A1
:1002EE000714D209900059E4F0A304F0FB7A007DC4
:1002FE001E7C00FF804F900085E0FF3395E0FEEFFF
:10030E0025E0FFEE33FE74FB2FF58274FF3EF5837E
:10031E00E0FD7C00900086E0FEA3E0FF120494ED69
:10032E004C9000597011F0A37403F07B0A7A007D93
:10033E000A7C007F01800EE4F0A304F0FB7A007DBE
:10034E000A7C007FC87E001221A6D20A900085E0AA
:10035E00FF3395E0FEEF25E0FFEE33FE74FB2FF545
:10036E008274FF3EF583E0FD7C00900086E0FEA3E4
:10037E00E0FF120494A3EFF0900085E0FF3395E0C8
:10038E00FEEF25E0FFEE33FE74FB2FF58274FF3E89
:10039E00F583E0FD7C00900086E0FEA3E0FF1204F2
:1003AE0094900089ECF0A3EDF0900087E025E0FE3C
:1003BE00900086E03390008BF0A3CEF0900088E0A2
:1003CE00FF121097900089E0FEA3E0FF120E4490FA
:1003DE00008BE0FEA3E0FF120B221227C1900085D6
:1003EE00E0FF1224EC1227D61227EB122815122743
:0103FE00A559
:0103FF0022DB
:0C26E500900099EBF0A3EAF0A3E9F022CA
:0C26F10090009CEBF0A3EAF0A3E9F022BB
:10269D00900099A3E0FAA3E0F94A60031207002223
:1026AD0090009CA3E0FAA3E0F94A60031207002210
:10229300EF4E602D90008FEEF0A3EFF0AF05A3ECAF
:1022A300F0A3EFF0AF03A3EAF0A3EFF0E4A3F0A3EE
:1022B300F0A3F0A3F090008EF090008D04F01226AE
:0222C3009D225A
:10264100E490008DF01226AD7B007A00790012260D
:04265100E50226F187
:101768009000B7E0B4020302264190008DE07003B8
:10177800021826900091E0FEA3E0FF4E70030218C5
:101788002690008EE07035D3EF9400EE940050035D
:10179800021826900095E475F0011204E9FED39032
:1017A8000090E095F090008FE09E50721226ADE414
:1017B800900095F0A3F090008E04F02290008EE047
:1017C8006401705A90009575F0011204E9FED390F7
:1017D8000092E095F0900091E09E5042900093E0D6
:1017E800FEA3E0FF9400EE94004025900097E47576
:1017F800F0011204E9FCD3EF95F0EE9C5005E4905B
:10180800008DF090008DE07007900091F0A3F02219
:0F181800E4900095F0A3F090008EF012269D2230
:02225000C10CBF
:06282800E49000DAF0224A
:101CDD009000B7E0B40202805B9000DAE004F0906F
:101CED0000D9E024FE601E14603114603C240370A2
:101CFD00469000DAE0C39405403DE4F0300C0280DC
:101D0D0012D20C802F9000DAE0C3940A4029E4F03F
:101D1D00300C04C20C800FD20C80199000DAE0C395
:101D2D0094094013E4F00227B39000DAE0C394095C
:071D3D004005E4F01227ACA1
:011D4400227C
:0E26BD009000D930D8047403F0227402F02289
:1022C500A2AF920DC2AF75C7AA75C75553A37FA21A
:1022D5000D92AF12252F12283A12284012275212BA
:0E22E50024CA1224601224A712268CD2AF2223
:02225200C10EBB
:1024CA0053ACFE43AD01C2B053CABF43CA2043CA8C
:1024DA001075D68075D78043CA80D2CBE490009F0E
:0224EA00F022DE
:06282E0043CB40D2B022B2
:0628340053CBBFC2B0222D
:1021A600ED4C603B9000A1EEF0A3EFF0AF05A3EC81
:1021B600F0A3EFF0AF03A3EAF0A3EFF0900059E02D
:1021C600FFA3E09000A7CFF0A3EFF0E4A3F0A3F005
:1021D600A3F0A3F09000A0F090009F04F0D20E228E
:08000300E490009FF002283494
:10262C00900059E4F0A304F0FB7A007D057C00E4F3
:05263C00FFFE0221A6D3
:10168F0090009FE070030217679000A5E07002A31F
:10169F00E070030217679000A1E07002A3E0600FF3
:1016AF009000A2E024FFF09000A1E034FFF0223080
:1016BF000E05C20E12282E9000A0E0FF703BD390B3
:1016CF0000A6E094009000A5E09400500302176775
:1016DF009000A9E475F0011204E9FCD39000A4E096
:1016EF0095F09000A3E09C506F122834E49000A96D
:1016FF00F0A3F09000A004F022EF6401705A900064
:10170F00A975F0011204E9FED39000A6E095F090C0
:10171F0000A5E09E50429000A7E0FEA3E0FF9400DA
:10172F00EE940040259000ABE475F0011204E9FC43
:10173F00D3EF95F0EE9C5005E490009FF090009F42
:10174F00E070079000A5F0A3F022E49000A9F0A3A9
:09175F00F09000A0F012282E22E7
:09271C003083037F00227F0122BB
:092725003084037F00227F0122B1
:09272E003085037F00227F0122A7
:092737003086037F00227F01229D
:0927400030DD037F00227F01223D
:0C26FD002083062085037F01227F00223D
:06283A0012182702256EB2
:10001E00900050E02445F582E43400F583EFF09033
:0D002E000050E004F0C3940A4002E4F02208
:10232000900050E0FF90004FE0FEB507037F0022D1
:1023300074452EF582E43400F583E0FF90004FE011
:0923400004F0C3940A4002E4F029
:012349002271
:1023C700900050E0FFA3E0FEB507037F00227445AD
:1023D7002EF582E43400F583E0FF900051E004F02D
:0723E700C3940A4002E4F078
:0123EE0022CC
:10267B00EF75F00BA4240BF582E43400F583E0FF37
:01268B00222C
:10225F00EF75F00BA42409F582E43400F583ECF05C
:10226F00A3EDF0EF75F00BA4240CF582E43400F528
:10227F0083EBF0EF75F00BA4240DF582E43400F539
:04228F0083E4F022D2
:09274900900050E090004FF022D6
:10256E0043B10853B2F743B11053B2EF43B1205306
:0F257E00B2DF43B14053B2BF43DC2053DDDF2255
:10182700E490004FF0A3F0A3F0FFEF75F00BA424B2
:1018370009F582E43400F583E4F0A374C8F0EF758A
:10184700F00BA42406F582E43400F5837402F0EF6C
:1018570075F00BA4240BF582E43400F583E4F0EF74
:1018670075F00BA4240CF582E43400F583E4F0EF63
:1018770075F00BA4240DF582E43400F583E4F00F32
:10188700EFB406A690000374FFF0A37427F0A374C7
:101897001CF090000E74FFF0A37427F0A37425F0DA
:1018A70090001974FFF0A37427F0A3742EF0900032
:1018B7002474FFF0A37427F0A37437F090002F74FB
:1018C700FFF0A37427F0A37440F090003A74FFF080
:0818D700A37426F0A374FDF0D8
:0118DF0022E6
:1011F500900054EFF0E075F00BA42403F97400356A
:10120500F0FA7B01900000EBF0A3EAF0A3E9F012FD
:1012150006E0120700EF70030212E7900000E0FB02
:10122500A3E0FAA3E0F9900003120400FFC39405BC
:101235005008900003740502134BEFC3940A50083D
:10124500900003740102042D90000812040070142C
:1012550090000804120472900054E075F003A40491
:10126500FF12001E900000E0FBA3E0FAA3E0F99056
:1012750000061204FFFFAEF0D39400EE9400500375
:1012850002134E9000041204FFC39FE5F09E502305
:10129500900004E475F001120537FCE5F06F70026B
:1012A500EC6E600302134E900054E075F003A42425
:1012B50003802B900009120400FFD3940050030211
:1012C500134E90000A740112042DC39F407B9000B9
:1012D5000AE4120472900054E075F003A404FF02BE
:1012E500001E900000E0FBA3E0FAA3E0F9900003E4
:1012F500120400FFD39405400A90000374051204FC
:1013050072802BEF600A90000374FF12042D801E7B
:10131500900008120400B40115900008E41204724C
:10132500900054E075F003A42402FF12001E900003
:1013350000E0FBA3E0FAA3E0F9900004E4F5F01265
:0A134500058490000AE412047222ED
:1025C500E4900053F0900053E0FFC39406500B12C3
:0A25D50011F5900053E004F080EBD4
:0125DF0022D9
:0927520053ACFD43AD0202286303
:03286000C2B122E0
:03286300D2B122CD
:10246000E4F5B475B3FFF5B675B5FFF5DB75DAFFC6
:10247000F5F975FA0475E5FF75E6FF75E70743F9A9
:04248000800226CBE5
:0C26CB00E4FF8FFBE4F5FC0FEFB413F606
:0126D70022E0
:0727820075FB0A53FCFE2267
:0727890075FB0A43FC01226D
:0727900075FB0C53FCFE2257
:0727970075FB0C43FC01225D
:07279E0075FB0853FCFE224D
:0727A50075FB0843FC012253
:0727AC0075FB0E53FCFE2239
:0727B30075FB0E43FC01223F
:0727BA0075FB1053FCFE2229
:0727C10075FB1043FC01222F
:1026140075FB1253FCF175FB13E4F5FC75FB1453C5
:08262400FCF175FB15F5FC2229
:10109700EFD3946340030211F4EF75F00A84FEEF77
:1010A70075F00A84ADF0EFD394095003021152EEA4
:1010B700B40A00400302115E9010C6F82828730294
:1010C70010E40210EC0210F402110202110A0211DC
:1010D7001802112002112E02113C02114475FB0E59
:1010E70075FC0A805E75FB0E53FCF1801C75FB0EC8
:1010F70075FC0C75FB0F75FC0B805C75FB0E75FCA6
:1011070004804075FB0E75FC0675FB0F75FC0680A9
:101117004675FB0E75FC06800675FB0E75FC0E7595
:10112700FB0F75FC0D803075FB0E53FCF175FB0F43
:1011370075FC07802275FB0E75FC0E800675FB0E8D
:1011470075FC0675FB0F75FC0F800C75FB0E53FCC9
:10115700F175FB0FE4F5FCEDB40A0040030211F44E
:1011670090116EF828287302118C02119402119CB9
:101177000211A90211B10211BE0211C60211D30256
:1011870011E00211E875FB1075FC0A805A75FB1017
:1011970053FCF1801B75FB1075FC0C75FB1175FC7E
:1011A7000B2275FB1075FC04803D75FB1075FC0662
:1011B70075FB1175FC062275FB1075FC068006751C
:1011C700FB1075FC0E75FB1175FC0D2275FB10539A
:1011D700FCF175FB1175FC072275FB1075FC0E8081
:0D11E7000675FB1075FC0675FB1175FC0FFD
:0111F40022D8
:0727C80075FB12E4F5FC2291
:0727CF0075FB1275FC0F22DF
:1024EC0075FB12EF24BE600E14600F1460102403F1
:1024FC00700F75FC012275FC022275FC042275FC20
:02250C000822A3
:1024840075FB0853FCF175FB09E4F5FC75FB0A5375
:10249400FCF175FB0BF5FC75FB0C53FCF175FB0DA6
:0324A400F5FC2222
:040E4400AB07AA0648
:100E4800D3EB94E7EA940340030210967C007D6498
:100E5800AF03AE02120494900054EFF07C007D645E
:100E6800AF03AE021204947E007F0ACFCDCFCECC62
:100E7800CE120494900053EFF07C007D0AAF03AECD
:100E880002120494A905D3EB9463EA940050030278
:100E98000F37A3E0B40A004003020F43900EABF8EB
:100EA800282873020EC9020ED1020ED9020EE702DB
:100EB8000EEF020EFD020F05020F13020F21020FA3
:100EC8002975FB0875FC0A805E75FB0853FCF180E8
:100ED8001C75FB0875FC0C75FB0975FC0B805C75B3
:100EE800FB0875FC04804075FB0875FC0675FB095A
:100EF80075FC06804675FB0875FC06800675FB08C0
:100F080075FC0E75FB0975FC0D803075FB0853FCEC
:100F1800F175FB0975FC07802275FB0875FC0E80CE
:100F28000675FB0875FC0675FB0975FC0F800C75CA
:100F3800FB0853FCF175FB09E4F5FCD3EB9409EAD3
:100F480094005003020FF443E60443E6089000536C
:100F5800E0B40A004003021000900F68F8282873D4
:100F6800020F86020F8E020F96020FA4020FAC0228
:100F78000FBA020FC2020FD0020FDE020FE675FB96
:100F88000A75FC0A805E75FB0A53FCF1801C75FB30
:100F98000A75FC0C75FB0B75FC0B805C75FB0A7500
:100FA800FC04804075FB0A75FC0675FB0B75FC0696
:100FB800804675FB0A75FC06800675FB0A75FC0EF3
:100FC80075FB0B75FC0D803075FB0A53FCF175FB46
:100FD8000B75FC07802275FB0A75FC0E800675FBF5
:100FE8000A75FC0675FB0B75FC0F800C75FB0A5324
:100FF800FCF175FB0BE4F5FCE9B40A0040030210B0
:1010080096901010F828287302102E02103602103D
:101018003E02104B02105302106002106802107555
:1010280002108202108A75FB0C75FC0A805A75FB47
:101038000C53FCF1801B75FB0C75FC0C75FB0D75D6
:10104800FC0B2275FB0C75FC04803D75FB0C75FCD4
:101058000675FB0D75FC062275FB0C75FC068006F3
:1010680075FB0C75FC0E75FB0D75FC0D2275FB0CE4
:1010780053FCF175FB0D75FC072275FB0C75FC0E16
:0E108800800675FB0C75FC0675FB0D75FC0FE4
:011096002237
:0727D60075FB0253FCFE221B
:0727DD0075FB0243FC012221
:0727E40075FB0453FCFE220B
:0727EB0075FB0475FC0122DF
:0727F20075FB0853FCFE22F9
:0727F90075FB0843FC0122FF
:07280000E4F5FB53FCFE228E
:07280700E4F5FB43FC012294
:1022F300E4F5FB53FCF175FB01F5FC75FB0253FCA4
:10230300F175FB03F5FC75FB0453FCF175FB05F557
:0D231300FC75FB0653FCF175FB07F5FC2281
:040B2200AB07AA066D
:100B2600D3EB940FEA94274003020E437C037DE83F
:100B3600AF03AE02120494900055EFF07C037DE8FB
:100B4600AF03AE021204947E007F64CFCDCFCECC2D
:100B5600CE120494900054EFF07C007D64AF03AE97
:100B6600021204947E007F0ACFCDCFCECCCE1204E3
:100B760094900053EFF07C007D0AAF03AE0212049E
:100B860094A905D3EB94E7EA94035003020C34903E
:100B96000055E0B40A004003020C3F900BA8F82869
:100BA6002873020BC6020BCE020BD6020BE4020B15
:100BB600EC020BFA020C02020C10020C1E020C26AE
:100BC600E4F5FB75FC0A805EE4F5FB53FCF1801C42
:100BD600E4F5FB75FC0C75FB0175FC0B805BE4F51D
:100BE600FB75FC048040E4F5FB75FC0675FB01759E
:100BF600FC068045E4F5FB75FC068006E4F5FB750E
:100C0600FC0E75FB0175FC0D802FE4F5FB53FCF122
:100C160075FB0175FC078021E4F5FB75FC0E80066B
:100C2600E4F5FB75FC0675FB0175FC0F800BE4F51E
:100C3600FB53FCF175FB01F5FCD3EB9463EA9400DE
:100C46005003020CEA900054E0B40A004003020C80
:100C5600F6900C5EF8282873020C7C020C84020CB9
:100C66008C020C9A020CA2020CB0020CB8020CC642
:100C7600020CD4020CDC75FB0275FC0A805E75FB67
:100C86000253FCF1801C75FB0275FC0C75FB0375A9
:100C9600FC0B805C75FB0275FC04804075FB0275DD
:100CA600FC0675FB0375FC06804675FB0275FC06A3
:100CB600800675FB0275FC0E75FB0375FC0D803016
:100CC60075FB0253FCF175FB0375FC07802275FB6F
:100CD6000275FC0E800675FB0275FC0675FB037536
:100CE600FC0F800C75FB0253FCF175FB03E4F5FC6D
:100CF600D3EB9409EA94005003020DA1900053E04F
:100D0600B40A004003020DAD900D15F828287302B1
:100D16000D33020D3B020D43020D51020D59020D1A
:100D260067020D6F020D7D020D8B020D9375FB049C
:100D360075FC0A805E75FB0453FCF1801C75FB0490
:100D460075FC0C75FB0575FC0B805C75FB0475FC6E
:100D560004804075FB0475FC0675FB0575FC068072
:100D66004675FB0475FC06800675FB0475FC0E755E
:100D7600FB0575FC0D803075FB0453FCF175FB0516
:100D860075FC07802275FB0475FC0E800675FB0456
:100D960075FC0675FB0575FC0F800C75FB0453FC92
:100DA600F175FB05E4F5FCE9B40A004003020E43C5
:100DB600900DBDF8282873020DDB020DE3020DEB42
:100DC600020DF8020E00020E0D020E15020E220290
:100DD6000E2F020E3775FB0675FC0A805A75FB0648
:100DE60053FCF1801B75FB0675FC0C75FB0775FC47
:100DF6000B2275FB0675FC04803D75FB0675FC062B
:100E060075FB0775FC062275FB0675FC06800675E4
:100E1600FB0675FC0E75FB0775FC0D2275FB06536C
:100E2600FCF175FB0775FC072275FB0675FC0E8049
:0D0E36000675FB0675FC0675FB0775FC0FC5
:010E4300228C
:07280E0075FB0653FCFE22DE
:0728150075FB0643FC0122E4
:02225400C10FB8
:0D26D800E4F5E9F5EDF5EAF5EB439B022290
:0A270900E49000D4F0A3F0A3F02246
:062840001226D802270950
:10214F009000D6E0FEC3EF9E64016007C3EE9FFED2
:10215F00BE02149000D57401F09000D4E0C394FF38
:10216F005012E004F0800DE49000D5F09000D4E020
:10217F00600214F09000D6EFF0300F0C9000D4E016
:10218F00C3940A5011C20F229000D4E0D39464403C
:06219F0005D20F12243CE2
:0121A5002217
:052846007F0102214F9B
:05284B007F0202214F95
:052850007F0302214F8F
:10268C0053DC7F43DD807F807E257D007C00021F34
:01269C008BB2
:1026550030F80BE59A120460C2F8D2108002C2105D
:02266500A210C1
:012667002250
:082256004100B4004100B50095
:1024A7001225A95389F75389FB5389FD4389019065
:1024B70000B474FCF0A37466F0758CFCF58AD2A99D
:0324C700D28C2292
:1025A900E49000ADF09000AFF09000B1F0A3F0908E
:0C25B90000AEF09000B0F09000B3F022F3
:03000B00021C7460
:101C7400C0E0C0F0C083C082C0D075D000C000C036
:101C8400069000B4E0F58CA3E0F58A9000ADE00482
:101C9400F0C3940A4005E4F0A304F09000AFE0041C
:101CA400F0C394644005E4F0A304F09000B1E4753B
:101CB400F0011204E9FEC3E5F094E8EE9403400A4F
:101CC4009000B1E4F0A3F0A304F0D006D000D0D08B
:091CD400D082D083D0F0D0E032C0
:1026680053897F5389BF4389205389EF758DCE7570
:032678008BCE22E4
:03001B0002286652
:01286600323F
:10134F00EF14604414606F1470030213EE147003F3
:10135F0002142A2404600302148EA2AF920DC2AFAE
:10136F0075C7AA75C755439780A20D92AFA2AF92CA
:10137F000DC2AF75C7AA75C7555397BFA20D92AFD0
:10138F00E59630E7FB021455A2AF920DC2AF75C7B9
:10139F00AA75C75553977FA20D92AFA2AF920DC2F8
:1013AF00AF75C7AA75C755439740A20D92AFE59683
:1013BF0030E6FB021455A2AF920DC2AF75C7AA75E6
:1013CF00C755439720A20D92AFE59630E5FBA2AF2C
:1013DF00920DC2AF75C7AA75C7555396FB8027A24A
:1013EF00AF920DC2AF75C7AA75C755439710A20D1F
:1013FF0092AFE59630E4FBA2AF920DC2AF75C7AACC
:10140F0075C755439604A20D92AFA2AF920DC2AF0E
:10141F0075C7AA75C7555396FD804DA2AF920DC2E1
:10142F00AF75C7AA75C75553977FA20D92AFA2AFDD
:10143F00920DC2AF75C7AA75C7555397BFA20D922C
:10144F00AFE59630E3FBA2AF920DC2AF75C7AA7599
:10145F00C7555396FBA20D92AFA2AF920DC2AF75B7
:10146F00C7AA75C755439602A20D92AFA2AF920DB0
:10147F00C2AF75C7AA75C7555396FEA20D92AFE5B9
:05148F009720E0FB22A4
:10239E0075985243892053877F538EEF53C4DFAB1A
:1023AE0007AA06A905A804E47F807E70FDFC12052D
:0923BE00EDEFF404F58DD28E223E
:1023EF00759852438920438780538EEF53C4DFABD8
:1023FF0007AA06A905A804E4FF7EE1FDFC1205ED7E
:08240F00EFF404F58DD28E22DA
:10234A0075985243892053877F438E1053C4DFAB5D
:10235A0007AA06A905A8047F007E467D057C00120F
:0A236A0005EDEFF404F58DD28E228C
:10237400759852438920438780438E1053C4DFAB42
:1023840007AA06A905A8047F007E8C7D0A7C00129A
:0A23940005EDEFF404F58DD28E2262
:101D45009000BC1206A375985253877F53C4F8437D
:101D5500C4209000BCE0F8A3E0F9A3E0FAA3E0FBFF
:101D65007F007E467D057C001205EDC3E49FFFE400
:101D75009EFE74019DFDE49CFC78081206908FC6BA
:101D85009000BCE0F8A3E0F9A3E0FAA3E0FB7F0034
:101D95007E467D057C001205EDC3E49FFF8FC5439C
:031DA500C408224D
:101DA8009000C01206A375985243878053C4F84325
:101DB800C4209000C0E0F8A3E0F9A3E0FAA3E0FB98
:101DC8007F007E8C7D0A7C001205EDC3E49FFFE452
:101DD8009EFE74019DFDE49CFC78081206908FC657
:101DE8009000C0E0F8A3E0F9A3E0FAA3E0FB7F00CD
:101DF8007E8C7D0A7C001205EDC3E49FFF8FC543EE
:031E0800C40822E9
:101F8B009000531206A375F85253C4F8900053E017
:101F9B00F8A3E0F9A3E0FAA3E0FB7F007E8C7D0AB7
:101FAB007C001205EDC3E49FFFE49EFE74019DFDD2
:101FBB00E49CFC78081206908FC6900053E0F8A3BF
:101FCB00E0F9A3E0FAA3E0FB7F007E8C7D0A7C00A6
:0D1FDB001205EDC3E49FFF8FC543C408222B
:07275B003098FDAF99C29810
:012762002254
:08276300C2998F993099FD2203
:07276B0030F8FDAF9AC2F83F
:012772002244
:08277300C2F98F9A30F9FD2232
:1025E000E4F5B1F5B2F5B3F5B4F5B5F5B6F5ACF57E
:0A25F000ADF5DAF5DBF5DCF5DD22D0
:10252F0075B1FFE4F5B275B3FFF5B475B5FFF5B648
:10253F0075ACFFF5AD75DAFFF5DB75DCFFF5DD2268
:1025FA0075C7AA75C755A2AF920DC2AF75C7AA759E
:0A260A00C755439F80A20D92AF2236
:0428590043AD8022E9
:1021E600EF640A701C30F811E59AB4130CC2F8308B
:1021F600F8FDE59AB411F6C2F830F9FDC2F9759A00
:102206000D30F811E59AB4130CC2F830F8FDE59AD2
:0D221600B411F6C2F830F9FDC2F98F9A221A
:061AB10090FFF812070689
:101AB700850D83850E821206AF00000000E47FFFCC
:101AC7007EFFFDFC850D83850E82E0F8A3E0F9A378
:101AD700E0FAA3E0FBC312067F504C900004120704
:101AE7002AE0FCA3E0FDA3E0FEA3E02401FFE43E1F
:101AF700FEE43DFDE43CFC90000412072A1206A315
:101B0700850D83850E82E0FCA3E0FDA3E0FEA3E044
:101B17002401FFE43EFEE43DFDE43CFC850D8385A6
:071B27000E821206A3809656
:061B2E009000080207060A
:10250E00538EF7438901D28CEF4E6012758AF775A0
:10251E008CFF308DFDC28DEF1F70ED1E80EAC28CD8
:01252E00228A
:10209D009000C41206A3538EF7438901D28CE4FF3E
:1020AD00FEFDFC9000C4E0F8A3E0F9A3E0FAA3E084
:1020BD00FBC312067F602F758A65758CFC308DFD14
:1020CD00C28D9000C4E0FCA3E0FDA3E0FEA3E024DC
:1020DD00FFFFEE34FFFEED34FFFDEC34FFFC90000E
:0920ED00C41206A380B8C28C22C3
:1020F6009000C81206A3538EEF438910D28EE4FFD8
:10210600FEFDFC9000C8E0F8A3E0F9A3E0FAA3E026
:10211600FBC312067F602F758B65758DFC308FFDB6
:10212600C28F9000C8E0FCA3E0FDA3E0FEA3E0247C
:10213600FFFFEE34FFFEED34FFFDEC34FFFC9000B4
:09214600C81206A380B8C28E2263
:101FE8009000CC1206A375C40243C408E4FFFEFDAA
:101FF800FC9000CCE0F8A3E0F9A3E0FAA3E0FBC36F
:1020080012067F603275C53375C6F5E5C430E4FB4A
:1020180053C4EF9000CCE0FCA3E0FDA3E0FEA3E0F6
:1020280024FFFFEE34FFFEED34FFFDEC34FFFC909F
:0B20380000CC1206A380B553C4F722B1
:101E6D009000D01206A3538FFB538FFD538FFEE4CA
:101E7D00F586538FDF438F08E4FFFEFDFC9000D005
:101E8D00E0F8A3E0F9A3E0FAA3E0FBC312067F603C
:101E9D002CE58F30E4FB538FEF9000D0E0FCA3E0F6
:101EAD00FDA3E0FEA3E024FFFFEE34FFFEED34FFC3
:101EBD00FDEC34FFFC9000D01206A380BB538FF7CE
:011ECD0022F2
:101494000A3D3D3D3D3D3D3D3D3D3D3D3D3D3D3DAB
:1014A4003D3D3D3D3D3D3D3D3D3D3D3D3D3D3D3D68
:1014B4003D3D3D3D3D3D3D3D3D3D3D3D3D3D3D3D58
:1014C4003D3D3D3D3D3D3D3D3D3D3D3D3D3D3D3D48
:1014D4003D3D3D3D3D000A2A2020436F70797269ED
:1014E4006768742863292032303135204E75766F51
:1014F400746F6E20546563686E6F6C6F67792043F8
:101504006F72702E20416C6C20726967687473204E
:1015140072657365727665642E2020000A2A202085
:10152400436F6E7461637420452D4D61696C3A207C
:101534004D6963726F432D38626974406E75766FBE
:10154400746F6E2E636F6D202020202020202020B9
:101554002020202020202020202020202020202087
:1015640020000A2A202044656D6F20566572736935
:101574006F6E20203A202532642E2532642E2532C7
:1015840064000A2A202046696E69736865642044F1
:10159400617465203A202532642E2532642E25326A
:0215A4006400E1
:101ECE007BFF7A1479941208287BFF7A1479DA1240
:101EDE0008287BFF7A1579201208287BFF7A15795E
:101EEE0066900056E4F0A304F0E4A3F0A3F0A3F090
:101EFE00A3F01208287BFF7A157986900056740796
:101F0E00F0A374DFF0A3E4F0A37405F0A3E4F0A350
:0F1F1E00741FF01208287BFF7A147994020828A8
:030000000219865C
:10198600787FE4F6D8FD9000007FFF7E01E4F0A3A7
:0A199600DFFCDEFA7581220219DB86
:1019A000021BA0E493A3F8E493A34003F68001F2A2
:1019B00008DFF48029E493A3F85407240CC8C33348
:1019C000C4540F4420C8834004F456800146F6DF17
:1019D000E4800B0102040810204080902223E47E62
:1019E000019360BCA3FF543F30E509541FFEE4930C
:1019F000A360010ECF54C025E060A840B8E493A3D3
:101A0000FAE493A3F8E493A3C8C582C8CAC583CAFD
:101A1000F0A3C8C582C8CAC583CADFE9DEE780BEB5
:01225E00007F
:10040000BB010CE58229F582E5833AF583E02250B1
:1004100006E92582F8E622BBFE06E92582F8E222FB
:0D042000E58229F582E5833AF583E4932215
:10042D00BB010FF8E58229F582E5833AF583E028D3
:10043D00F0225009C58229F8E58226F622BBFE0975
:10044D00C58229F8E22582F222F8EA2583F583E9AF
:03045D00932822BF
:10046000BB010689828A83F0225002F722BBFE017B
:02047000F32275
:10047200F8BB010DE58229F582E5833AF583E8F0C0
:10048200225006E92582C8F622BBFE05E92582C86C
:02049200F22254
:10049400BC000BBE0029EF8DF084FFADF022E4CC4C
:1004A400F875F008EF2FFFEE33FEEC33FCEE9DEC15
:1004B400984005FCEE9DFE0FD5F0E9E4CEFD22ED5B
:1004C400F8F5F0EE8420D21CFEADF075F008EF2FA5
:1004D400FFED33FD4007985006D5F0F222C398FD96
:0504E4000FD5F0EA2233
:1004E900C5F0F8A3E028F0C5F0F8E582158270029E
:0604F9001583E038F0223B
:1004FF00BB0110E58229F582E5833AF583E0F5F03B
:10050F00A3E0225009E92582F886F008E622BBFE17
:10051F000AE92582F8E2F5F008E222E5832AF5835D
:08052F00E993F5F0A3E9932222
:10053700BB010DC58229C582C5833AC5830204E97B
:100547005011C58229F808E5F026F618F5F0E5827E
:1005570036F622BBFE11C58229F808E225F0F5F030
:10056700F218E23582F222F8E58229F582E5832A3C
:0D057700F58374019325F0F5F0E49338222C
:10058400F8BB0111E58229F582E5833AF583E8F0A9
:10059400E5F0A3F0225009E92582C8F608A6F02266
:0D05A400BBFE09E92582C8F2E5F008F2224D
:1005B10075F008758200EF2FFFEE33FECD33CDCC01
:1005C10033CCC58233C5829BED9AEC99E582984084
:1005D1000CF582EE9BFEED9AFDEC99FC0FD5F0D661
:1005E100E4CEFBE4CDFAE4CCF9A88222B800C1B98B
:1005F1000059BA002DEC8BF084CFCECDFCE5F0CBC9
:10060100F97818EF2FFFEE33FEED33FDEC33FCEB01
:1006110033FB10D703994004EB99FB0FD8E5E4F9BC
:10062100FA227818EF2FFFEE33FEED33FDEC33FCA9
:10063100C933C910D7059BE99A4007EC9BFCE99A9D
:10064100F90FD8E0E4C9FAE4CCFB2275F010EF2FE2
:10065100FFEE33FEED33FDCC33CCC833C810D707E2
:100661009BEC9AE899400AED9BFDEC9AFCE899F81D
:0E0671000FD5F0DAE4CDFBE4CCFAE4C8F922B0
:10067F00EB9FF5F0EA9E42F0E99D42F0E89C45F0D1
:01068F002248
:10069000E8600FECC313FCED13FDEE13FEEF13FF48
:0306A000D8F1226C
:0C06A300ECF0A3EDF0A3EEF0A3EFF022CA
:1006AF00A8828583F0D083D0821206C61206C612A6
:1006BF0006C61206C6E473E493A3C583C5F0C583CB
:1006CF00C8C582C8F0A3C583C5F0C583C8C582C895
:0106DF0022F8
:1006E000BB010789828A830207595005E9F802078E
:1006F00050BBFE05E9F802078289828A8302078BD4
:060700008A838982E47384
:10070600E50E2582F582E50D3583F583B50D048565
:10071600820E2210AF0685820EF50D2285820EF519
:040726000DD2AF221F
:0D072A00E50E2582F582E50D3583F583226D
:1007BD00E5082456F582E43400F583E0050822901F
:1007CD000053300703900056E475F00112076202E2
:1007DD0007372000E97F2ED2008018EF540F2490A8
:1007ED00D43440D4FF30040BEF24BFB41A005003AF
:1007FD002461FFE50960021509050CE50C70020581
:10080D000B30070E900053E475F001120762EF02F2
:10081D0004600221E67403D2078003E4C207F508E1
:10082D00900053120779E4F509F50BF50CE5096015
:10083D00077F2012080080F5750AFFC201C200C2B1
:10084D0002C203C205C206C2081207CCFF700D30EA
:10085D0007057F00120811AF0CAE0B22B4255FC245
:10086D00D5C2041207CCFF24D0B40A00501A75F07B
:10087D000A780930D50508B6FF0106C6A426F6206C
:10088D00D5047002D20380D924CFB41A00EF5004DE
:10089D00C2E5D204020A12D20180C6D20080C0D2B3
:1008AD000280BCD2D580BAD20580B47F2012080058
:1008BD002002077401B5090040F11207BDFF1208AF
:1008CD000002083AD208D20680951207BDFB120726
:1008DD00BDFA1207BDF94A4B700679E37A0A7BFF20
:1008ED0020022EE509602A7E008E82758300120497
:1008FD000060060EEE650A70F0C2D5EBC0E0EAC0EE
:10090D00E0E9C0E0EE120A59D0E0F9D0E0FAD0E00B
:10091D00FB120737FF60AAEBC0E0EAC0E0E9C0E0D8
:10092D00120800D0E02401F9D0E03400FAD0E0FB49
:10093D00E50A0460DCD50AD980877BFF7A0A7955F0
:10094D00D202809C791080027908C206C208800804
:10095D00D2D5790A8004790AC2D5E50A047002F568
:10096D000AE4FAFDFEFF1207BDFC7B0820011312FD
:10097D0007BDFD7B1030000A1207BDFE1207BDFF3B
:10098D007B20EC3382D592D55013C3E43000069F03
:10099D00FFE49EFEE42001039DFDE49CFCE4CBF806
:1009AD00C201EC700CCFCECDCCE824F8F870F380FA
:1009BD0017C3EF33FFEE33FEED33FDEC33FCEB33BA
:1009CD00FB994002FB0FD8E9EB300105F8D0E0C4EC
:1009DD0048B201C0E00AEC4D4E4F78207B0070C24A
:1009ED00EAB50A0040BCC0E0120A5BD0F0D0E020AE
:1009FD000104C4C0E0C4B201C0F01207E9D0F0D5C3
:100A0D00F0EB02083A12079708D75309515808A876
:100A1D004C08A44209554F095D44095D4908BD4381
:080A2D0009635509474609471A
:100A3500450947470B035008AC2D08B02E08D32BAA
:100A450008B42308D1200AEC2A086C48000008CB1A
:100A55003F3F3F00790AA2D5200314300509B9109C
:100A6500020404B9080104A2D5200602500104209D
:100A750002689202B509005034C0E07F20300319A6
:100A85007F30A20272067205500F120AB2C202C26C
:100A950006C205C2087F30800F300503E9C0E012A9
:100AA5000800300503D0E0F9D0E0B509CC300517D2
:100AB5007F30B9100C1208007F583004077F78800A
:100AC50003B908031208003002057F2D0208007FD4
:100AD500202008F87F2B2006F322920280CF286E73
:100AE500756C6C2900D2011207BD3001F8C201787E
:100AF5000930D50108F602086C2D504349581207F4
:100B0500BD2403B405004001E4900AFE931207F1E9
:0D0B1500743A1207F1D20375090402095168
:10073700BB010689828A83E0225002E722BBFE02C0
:09074700E32289828A83E49322F3
:09075000E6FB08E6FA08E6F922CE
:09075900E0FBA3E0FAA3E0F922A1
:10076200F8E0FBA3A3E0F925F0F0E5821582700220
:070772001583E0FA38F022C4
:09077900EBF0A3EAF0A3E9F02281
:09078200E2FB08E2FA08E2F922A8
:0C078B00E493FB740193FA740293F922CA
:10079700D083D082F8E4937012740193700DA3A3F1
:1007A70093F8740193F5828883E473740293686005
:0607B700EFA3A3A380DF05
:00000001FF
