:081E1B004100EB004100EC0066
:03005B00021D4C37
:101D4C00C0E0C083C082C0D075D000C000C005C048
:101D5C0006C007C2EFAFC39000E9E4F0A3EFF09028
:101D6C0000E9E0FEA3E07802C333CE33CED8F9FF0E
:101D7C009000E9EEF0A3EFF0ADC2EF4DFF9000E95B
:101D8C00EEF0A3EFF0D007D006D005D000D0D0D025
:061D9C0082D083D0E0328A
:03003B0002213E61
:10213E00C0E0C083C082C0D0E5EC30E30A9000CB93
:10214E00E0B402037403F075EC00D0D0D082D083DB
:03215E00D0E0329C
:101792007F02120FAD121F8912003E1220AB1224DB
:1017A200C3121B299000C2E06008E4F01222481222
:1017B200211A9000C4E0600EE4F01221A712236700
:0C17C200121ACA1213D09000C7E0602376
:1017CE00E4F0121EF812000E121DDF122297900086
:1017DE00ECE004F0E0D394034009740AF09000EBBF
:0317EE00E004F024
:1017F100121FB4900073EFF060ABE0FF12148F8002
:01180100A442
:1022C7006F6666206272696768740A00706F776567
:0722D70072206F66660A0029
:101E23004100CC004100CD004100CE00C10B410078
:021E3300CA00E3
:1020AB00E49000CDF053E9FB53E9FD53E9FE43ED1A
:1020BB000843EA0853EBF79000CF04F09000A6F02A
:0720CB009000CBF002153E6E
:10153E009000CFE024FE602814605924026003025C
:10154E0015E3E4FFFE120AA2E4FFFE120780122446
:10155E003A12244F12245D1224AA12246B0224790B
:10156E0012245612243A7F411221C97F421221C9F8
:10157E007F431221C97F441221C91224AA12247951
:10158E001222DE7BFF7A2479721223737BFF7A2478
:10159E00796B803212245612243A7F411221C97F70
:1015AE00421221C97F431221C97F441221C912243C
:1015BE00AA12246B1222DE7BFF7A24798012237307
:1015CE007BFF7A24797912237FE4FBFA7D04FC7F7A
:0615DE0004FE121F2A2288
:10167E0012243A9000CDE024FE601F04600302178E
:10168E000C9000CFE0B4020512247280719000CF4E
:10169E00E06403706912248080649000CCE024BE64
:1016AE00601714602114602B2403703990009EE0A3
:1016BE00FF120CF590009F80259000A0E0FF120C09
:1016CE00F59000A180189000A2E0FF120CF590009A
:1016DE00A3800B9000A4E0FF120CF59000A5E0FF94
:1016EE007E00120AA29000CFE0B40205122472808E
:1016FE000A9000CFE0B40303122480122464022463
:01170E003AA0
:10186E009000CDE024FE600804705E12246B80565A
:10187E009000CCE0700312245D9000CCE0B44108DF
:10188E0012245D7F411221C99000CCE0B4420812AF
:10189E00245D7F421221C99000CCE0B4430812248B
:1018AE005D7F431221C99000CCE0B4440812245D40
:1018BE007F441221C99000CFE0B4020302246B9042
:0A18CE0000CFE0B4030312247922D6
:101204009000CDE01470030212CF1470030212DBBD
:101214001470030212E4240360030212EC9000CF62
:10122400E024FE603E14606F240260030212ECE4CA
:101234009000A8F0A3F09000ADF0A3F09000A8E017
:10124400FEA3E0FF120AA29000ADE0FEA3E0FF12AD
:10125400078012243A12244F12245D1224AA122465
:101264006B8031E49000A8F0A3F09000ADF0A3F0FF
:10127400FF120CF5E4FFFE120AA2E4FFFE1207803F
:1012840012243A1224569000A7E0FF1221C9122416
:10129400AA122472022479E49000A8F0A3F090002A
:1012A400ADF0A3F0FF120CF5E4FFFE120AA2E4FF76
:1012B400FE12078012243A1224569000A7E0FF126F
:1012C40021C91224AA12246B0224801222DE900067
:1012D400CDE0601414F0229000CDE0600B14F022F5
:0912E4009000CDE0600214F0223C
:101A07009000CDE0705B9000A6E01470069000CDCA
:101A17007401F0E4FF120CF5E4FFFE120AA2E4FFE2
:101A2700FE12078012243A1224561224641224AAA2
:101A37009000A6E09000CFF07402F09000CD14F073
:101A47001222DE7BFF7A16797E1223737BFF7A18C8
:101A5700796E12237FE4FBFA7D04FC7F04FE121FDC
:021A67002A2231
:101802009000CDE024FE60270470609000CFE024B9
:10181200FE600E146012240270519000CF7402F028
:10182200229000CF7403F0229000CF7401F0229036
:1018320000CFE024FD601B0470319000CCE0700208
:1018420080269000CCE004F0E0D3648094C4401B76
:1018520080169000CCE07002800E9000CCE004F084
:0C186200E0D3648094C440037441F02281
:101C40009000CDE024FE602704704E9000CFE02489
:101C5000FD600B04700E1224721224798006122487
:101C60006B1224809000CC7441F0A37402F0229097
:101C700000CFE024FE70091222DE122472122479B1
:101C80009000CFE09000A6F09000CCE09000A7F08C
:0A1C9000E4A3F0A3F09000CDF022D1
:0324CC0002227D6C
:0624B1001224D202235A9E
:1021A7009000CBE0B402159000CAE004F0E0C394BD
:1021B70003400EE4F01224B743870222E49000CADA
:0121C700F027
:0121C80022F4
:101EF8009000CEE004F0E0B40A0ED20B1224D27B9C
:101F0800FF7A2279C70204869000CEE0B414121238
:101F180024B17BFF7A2279D31204869000CB740215
:021F2800F022A5
:0624B700E49000CEF022CB
:10148F00900074EFF01224B7300B0C9000CBE0B447
:10149F000105C20B0224D5900074E014B40D004076
:1014AF000302153D9014C175F003A4C58325F0C543
:1014BF0083730215030214E802150E02153102158B
:1014CF003D02153D02153402153D02153D0215373B
:1014DF0002153D02153D02153A9000CBE0640370F2
:1014EF004D1224B17BFF7A2279D31204869000CB60
:1014FF007402F0229000CBE064017032021204906B
:10150F0000CBE0B401067402F00224B19000CBE0EE
:10151F00B4020280079000CBE0B403127401F00212
:0F152F0024CC021A07021802021C401220D222FA
:101E350048009E0A1414191E1E322841009D00C137
:011E45000C90
:10003E009000A67401F0E4A3F0A3F0A3F0A3F0A344
:0C004E00F0A3F0A3F0A3F090009DF022BE
:1020D2009000A9E004F070069000A8E004F0D3900C
:1020E20000A9E094109000A8E094274004E4F0A333
:0420F200F0D20C22FA
:0D000E0090009DE0C394FF5003E004F02239
:0C236700300C08C20C1224B712005A22DD
:01005A002283
:0C2373009000BBEBF0A3EAF0A3E9F0221D
:0C237F009000BEEBF0A3EAF0A3E9F0220E
:10233A009000BBA3E0FAA3E0F94A600312035E220D
:10234A009000BEA3E0FAA3E0F94A600312035E22FA
:101F2A00EF4E602D9000B1EEF0A3EFF0AF05A3ECF9
:101F3A00F0A3EFF0AF03A3EAF0A3EFF0E4A3F0A35A
:101F4A00F0A3F0A3F09000B0F09000AF04F01223D9
:021F5A003A2229
:1022DE00E49000AFF012234A7B007A0079001223BB
:0422EE007302237FD5
:1013D0009000CBE0B402030222DE9000AFE0700385
:1013E00002148E9000B3E0FEA3E0FF4E70030214DF
:1013F0008E9000B0E07035D3EF9400EE940050036F
:1014000002148E9000B7E475F001120147FED390EC
:1014100000B2E095F09000B1E09E507212234AE4D1
:101420009000B7F0A3F09000B004F0229000B0E07C
:101430006401705A9000B775F001120147FED39015
:1014400000B4E095F09000B3E09E50429000B5E00B
:10145000FEA3E0FF9400EE940040259000B9E475EF
:10146000F001120147FCD3EF95F0EE9C5005E4909B
:1014700000AFF09000AFE070079000B3F0A3F0224F
:0F148000E49000B7F0A3F09000B0F012233A22EE
:0A238B00616463203D2025640A0010
:041E4600C109C10A03
:0524C300E47810F62290
:101ACA009000CBE0B40202805278100618E624FE99
:101ADA00601D14602F146039240370427810E6C325
:101AEA009405403AE4F63009028011D209802C7834
:101AFA0010E6C3940A4027E4F6300904C209800EAE
:101B0A00D20980177810E6C394094012E4F6022439
:0E1B1A00487810E6C394094005E4F612244111
:011B2800229A
:101E5600C20DD281AFC37811760008A60718E6FE38
:101E660008E67802C333CE33CED8F9FF7811EEF602
:101E760008EFF6ADC2EE18F6EF4D08F6E5E220E4FF
:091E860004D20D8002C20DD20A43
:011E8F002230
:101DDF00780F30D804760380027602300A2DC20ABB
:101DEF00C37812E694EA18E69401780F500476014E
:101DFF00800276047BFF7A23798B7811E6FF08E661
:0C1E0F00900078CFF0A3EFF012048622C0
:031E4A0001130081
:0124D80022E1
:0324CF00D2EE2228
:10229700781306E6FFB40402C281EFC39405400732
:0722A700E47813F61224CFC6
:0122AE00220D
:101F8900A2AF920EC2AF75C7AA75C75553A37FA258
:101F99000E92AF12220C121EC41224BD1223EF128C
:0B1FA90020F6122184122329D2AF225F
:092395003083037F00227F012246
:09239E003084037F00227F01223C
:0923A7003085037F00227F012232
:0923B0003086037F00227F012228
:0923B90030DD037F00227F0122C8
:0923C20030DD037F00227F0122BF
:0923CB0030DD037F00227F0122B6
:0923D40030DD037F00227F0122AD
:0923DD0030DD037F00227F0122A4
:0624BD001212ED022410D2
:10001E00900071E02466F582E43400F583EFF090F1
:0D002E000071E004F0C3940A4002E4F022E7
:101FB400900071E0FF900070E0FEB507037F0022FF
:101FC40074662EF582E43400F583E0FF900070E03F
:091FD40004F0C3940A4002E4F099
:011FDD0022E1
:10205B00900071E0FFA3E0FEB507037F00227466DA
:10206B002EF582E43400F583E0FF900072E004F07B
:07207B00C3940A4002E4F0E7
:01208200223B
:10231800EF75F00BA4240BF582E43400F583E0FF9D
:012328002292
:101E9000EF75F00BA42409F582E43400F583ECF02F
:101EA000A3EDF0EF75F00BA4240CF582E43400F5FB
:101EB00083EBF0EF75F00BA4240DF582E43400F50C
:041EC00083E4F022A5
:0923E600900071E0900070F022FB
:0724100043B10453B2FB22AB
:1012ED00E4900070F0A3F0A3F0FFEF75F00BA424D1
:1012FD0009F582E43400F583E4F0A374C8F0EF75CA
:10130D00F00BA42406F582E43400F5837402F0EFAB
:10131D0075F00BA4240BF582E43400F583E4F0EFB3
:10132D0075F00BA4240CF582E43400F583E4F0EFA2
:10133D0075F00BA4240DF582E43400F583E4F00F71
:10134D00EFB409A690000374FFF0A37423F0A37407
:10135D0095F090000E74FFF0A37423F0A3749EF02B
:10136D0090001974FFF0A37423F0A374A7F09000FC
:10137D002474FFF0A37423F0A374B0F090002F74C5
:10138D00FFF0A37423F0A374B9F090003A74FFF04A
:10139D00A37423F0A374C2F090004574FFF0A374FE
:1013AD0023F0A374CBF090005074FFF0A37423F0DE
:1013BD00A374D4F090005B74FFF0A37423F0A374B6
:0213CD00DDF051
:0113CF0022FB
:100E5300900075EFF0E075F00BA42403F9740035EE
:100E6300F0FA7B01900000EBF0A3EAF0A3E9F012A3
:100E7300033E12035EEF7003020F45900000E0FB98
:100E8300A3E0FAA3E0F990000312005EFFC3940508
:100E930050089000037405020FA9EFC3940A500889
:100EA300900003740102008B90000812005E70141E
:100EB300900008041200D0900075E075F003A404BC
:100EC300FF12001E900000E0FBA3E0FAA3E0F990FC
:100ED300000612015DFFAEF0D39400EE94005003C0
:100EE300020FAC90000412015DC39FE5F09E5023F6
:100EF300900004E475F001120195FCE5F06F7002B7
:100F0300EC6E6003020FAC900075E075F003A4244F
:100F130003802B90000912005EFFD394005003025C
:100F23000FAC90000A740112008BC39F407B9000AA
:100F33000AE41200D0900075E075F003A404FF02E8
:100F4300001E900000E0FBA3E0FAA3E0F990000389
:100F530012005EFFD39405400A900003740512004B
:100F6300D0802BEF600A90000374FF12008B801E69
:100F730090000812005EB40115900008E41200D03E
:100F8300900075E075F003A42402FF12001E900088
:100F930000E0FBA3E0FAA3E0F9900004E4F5F0120B
:0A0FA30001E290000AE41200D022DF
:10224800E4900074F0900074E0FFC39409500B12FE
:0A2258000E53900074E004F080EBD8
:012262002259
:1020F600E4F5B475B3FFF5B675B5FFF5DB75DAFF34
:10210600F5F975FA0475E5FF75E6FF75E70743F916
:042116008002235AC6
:0C235A00E4FF8FFBE4F5FC0FEFB413F67A
:012366002254
:0724170075FB0A53FCFE22D5
:07241E0075FB0A43FC0122DB
:0724250075FB0C53FCFE22C5
:07242C0075FB0C43FC0122CB
:0724330075FB0853FCFE22BB
:07243A0075FB0843FC0122C1
:0724410075FB0E53FCFE22A7
:0724480075FB0E43FC0122AD
:07244F0075FB1053FCFE2297
:0724560075FB1043FC01229D
:1022AF0075FB1253FCF175FB13E4F5FC75FB14532E
:0822BF00FCF175FB15F5FC2292
:100CF500EFD394634003020E52EF75F00A84FEEFC2
:100D050075F00A84ADF0EFD394095003020DB0EEEF
:100D1500B40A004003020DBC900D24F82828730284
:100D25000D42020D4A020D52020D60020D68020DC0
:100D350076020D7E020D8C020D9A020DA275FB0E38
:100D450075FC0A805E75FB0E53FCF1801C75FB0E6D
:100D550075FC0C75FB0F75FC0B805C75FB0E75FC4B
:100D650004804075FB0E75FC0675FB0F75FC06804F
:100D75004675FB0E75FC06800675FB0E75FC0E753B
:100D8500FB0F75FC0D803075FB0E53FCF175FB0FE9
:100D950075FC07802275FB0E75FC0E800675FB0E33
:100DA50075FC0675FB0F75FC0F800C75FB0E53FC6F
:100DB500F175FB0FE4F5FCEDB40A004003020E5299
:100DC500900DCCF8282873020DEA020DF2020DFAF7
:100DD500020E07020E0F020E1C020E24020E310235
:100DE5000E3E020E4675FB1075FC0A805A75FB1007
:100DF50053FCF1801B75FB1075FC0C75FB1175FC24
:100E05000B2275FB1075FC04803D75FB1075FC0607
:100E150075FB1175FC062275FB1075FC06800675C1
:100E2500FB1075FC0E75FB1175FC0D2275FB10533F
:100E3500FCF175FB1175FC072275FB1075FC0E8026
:0D0E45000675FB1075FC0675FB1175FC0FA2
:010E5200227D
:07245D0075FB12E4F5FC22FF
:0724640075FB1275FC0F224D
:1021C90075FB12EF24BE600E14600F146010240317
:1021D900700F75FC012275FC022275FC042275FC46
:0221E9000822CA
:1021610075FB0853FCF175FB09E4F5FC75FB0A539B
:10217100FCF175FB0BF5FC75FB0C53FCF175FB0DCC
:03218100F5FC2248
:040AA200AB07AA06EE
:100AA600D3EB94E7EA94034003020CF47C007D64E4
:100AB600AF03AE021200F2900076EFF07C007D6488
:100AC600AF03AE021200F27E007F0ACFCDCFCECCAE
:100AD600CE1200F2900075EFF07C007D0AAF03AEF7
:100AE600021200F2A905D3EB9463EA9400500302C4
:100AF6000B95A3E0B40A004003020BA1900B09F882
:100B0600282873020B27020B2F020B37020B450214
:100B16000B4D020B5B020B63020B71020B7F020B88
:100B26008775FB0875FC0A805E75FB0853FCF1802F
:100B36001C75FB0875FC0C75FB0975FC0B805C7558
:100B4600FB0875FC04804075FB0875FC0675FB09FF
:100B560075FC06804675FB0875FC06800675FB0865
:100B660075FC0E75FB0975FC0D803075FB0853FC92
:100B7600F175FB0975FC07802275FB0875FC0E8074
:100B86000675FB0875FC0675FB0975FC0F800C7570
:100B9600FB0853FCF175FB09E4F5FCD3EB9409EA79
:100BA60094005003020C5243E60443E60890007595
:100BB600E0B40A004003020C5E900BC6F8282873C6
:100BC600020BE4020BEC020BF4020C02020C0A020A
:100BD6000C18020C20020C2E020C3C020C4475FB75
:100BE6000A75FC0A805E75FB0A53FCF1801C75FBD6
:100BF6000A75FC0C75FB0B75FC0B805C75FB0A75A6
:100C0600FC04804075FB0A75FC0675FB0B75FC063B
:100C1600804675FB0A75FC06800675FB0A75FC0E98
:100C260075FB0B75FC0D803075FB0A53FCF175FBEB
:100C36000B75FC07802275FB0A75FC0E800675FB9A
:100C46000A75FC0675FB0B75FC0F800C75FB0A53C9
:100C5600FCF175FB0BE4F5FCE9B40A004003020C59
:100C6600F4900C6EF8282873020C8C020C94020C7B
:100C76009C020CA9020CB1020CBE020CC6020CD3DB
:100C8600020CE0020CE875FB0C75FC0A805A75FB39
:100C96000C53FCF1801B75FB0C75FC0C75FB0D757C
:100CA600FC0B2275FB0C75FC04803D75FB0C75FC7A
:100CB6000675FB0D75FC062275FB0C75FC06800699
:100CC60075FB0C75FC0E75FB0D75FC0D2275FB0C8A
:100CD60053FCF175FB0D75FC072275FB0C75FC0EBC
:0E0CE600800675FB0C75FC0675FB0D75FC0F8A
:010CF40022DD
:07246B0075FB0253FCFE2289
:0724720075FB0243FC01228F
:0724790075FB0453FCFE2279
:0724800075FB0475FC01224D
:0724870075FB0853FCFE2267
:07248E0075FB0843FC01226D
:07249500E4F5FB53FCFE22FD
:07249C00E4F5FB43FC012203
:101F5C00E4F5FB53FCF175FB01F5FC75FB0253FC3E
:101F6C00F175FB03F5FC75FB0453FCF175FB05F5F2
:0D1F7C00FC75FB0653FCF175FB07F5FC221C
:04078000AB07AA0613
:10078400D3EB940FEA94274003020AA17C037DE88B
:10079400AF03AE021200F2900077EFF07C037DE825
:1007A400AF03AE021200F27E007F64CFCDCFCECC79
:1007B400CE1200F2900076EFF07C007D64AF03AEC1
:1007C400021200F27E007F0ACFCDCFCECCCE120033
:1007D400F2900075EFF07C007D0AAF03AE021200C8
:1007E400F2A905D3EB94E7EA94035003020892902C
:1007F4000077E0B40A00400302089D900806F82838
:10080400287302082402082C020834020842020851
:100814004A02085802086002086E02087C02088432
:10082400E4F5FB75FC0A805EE4F5FB53FCF1801CE7
:10083400E4F5FB75FC0C75FB0175FC0B805BE4F5C2
:10084400FB75FC048040E4F5FB75FC0675FB017543
:10085400FC068045E4F5FB75FC068006E4F5FB75B3
:10086400FC0E75FB0175FC0D802FE4F5FB53FCF1C8
:1008740075FB0175FC078021E4F5FB75FC0E800611
:10088400E4F5FB75FC0675FB0175FC0F800BE4F5C4
:10089400FB53FCF175FB01F5FCD3EB9463EA940084
:1008A4005003020948900076E0B40A0040030209AC
:1008B400549008BCF82828730208DA0208E20208F7
:1008C400EA0208F802090002090E020916020924C4
:1008D40002093202093A75FB0275FC0A805E75FB57
:1008E4000253FCF1801C75FB0275FC0C75FB03754F
:1008F400FC0B805C75FB0275FC04804075FB027583
:10090400FC0675FB0375FC06804675FB0275FC0648
:10091400800675FB0275FC0E75FB0375FC0D8030BB
:1009240075FB0253FCF175FB0375FC07802275FB14
:100934000275FC0E800675FB0275FC0675FB0375DB
:10094400FC0F800C75FB0253FCF175FB03E4F5FC12
:10095400D3EB9409EA940050030209FF900075E078
:10096400B40A004003020A0B900973F828287302A2
:1009740009910209990209A10209AF0209B7020902
:10098400C50209CD0209DB0209E90209F175FB047C
:1009940075FC0A805E75FB0453FCF1801C75FB0436
:1009A40075FC0C75FB0575FC0B805C75FB0475FC14
:1009B40004804075FB0475FC0675FB0575FC068018
:1009C4004675FB0475FC06800675FB0475FC0E7504
:1009D400FB0575FC0D803075FB0453FCF175FB05BC
:1009E40075FC07802275FB0475FC0E800675FB04FC
:1009F40075FC0675FB0575FC0F800C75FB0453FC38
:100A0400F175FB05E4F5FCE9B40A004003020AA110
:100A1400900A1BF8282873020A39020A41020A497B
:100A2400020A56020A5E020A6B020A73020A800272
:100A34000A8D020A9575FB0675FC0A805A75FB0639
:100A440053FCF1801B75FB0675FC0C75FB0775FCEC
:100A54000B2275FB0675FC04803D75FB0675FC06D0
:100A640075FB0775FC062275FB0675FC068006758A
:100A7400FB0675FC0E75FB0775FC0D2275FB065312
:100A8400FCF175FB0775FC072275FB0675FC0E80EF
:0D0A94000675FB0675FC0675FB0775FC0F6B
:010AA1002232
:0724A30075FB0653FCFE224D
:0724AA0075FB0643FC012253
:1023290053DC7F43DD807F807E257D007C00021B9E
:01233900881B
:1022F20030F80BE59A1200BEC2F8D20F8002C20F6C
:02230200A20F28
:0123040022B6
:081E4D004100C8004100C9007A
:1021840012222C5389F75389FB5389FD438901900B
:1021940000C874FCF0A37466F0758CFCF58AD2A9AF
:0321A400D28C22B8
:10222C00E49000C1F09000C3F09000C5F0A3F090D2
:0C223C0000C2F09000C4F09000C7F02237
:03000B000218D800
:1018D800C0E0C0F0C083C082C0D075D000C000C0D6
:1018E800069000C8E0F58CA3E0F58A9000C1E004FA
:1018F800F0C3940A4005E4F0A304F09000C3E004A8
:10190800F0C394644005E4F0A304F09000C5E475C6
:10191800F001120147FEC3E5F094E8EE9403400A93
:101928009000C5E4F0A3F0A304F0D006D000D0D016
:09193800D082D083D0F0D0E0325F
:1023050053897F5389BF4389205389EF758DCE75D6
:032315008BCE224A
:03001B000224D9E3
:0124D90032D0
:101EC400E49000E8F0A37403F0A374FFF053B1FEB0
:101ED40053B2FE53B1FD53B2FD43E101E4F5E843CF
:101EE400B10153B2FE43F60153E1BF43E12053E194
:041EF400EFD2AE2259
:10211A009000E8E0600DE4F0C2EBC2EAC2E9C2E86E
:10212A00D2EE229000E87401F0C2EBC2EAC2E9D210
:04213A00E8D2EE22D7
:0923EF0053ACFD43AD020224D5FC
:0324D200C2B12272
:0324D500D2B1225F
:100FAD00EF14604414606F14700302104C1470033E
:100FBD00021088240460030210ECA2AF920EC2AF9F
:100FCD0075C7AA75C755439780A20E92AFA2AF926F
:100FDD000EC2AF75C7AA75C7555397BFA20E92AF74
:100FED00E59630E7FB0210B3A2AF920EC2AF75C704
:100FFD00AA75C75553977FA20E92AFA2AF920EC29C
:10100D00AF75C7AA75C755439740A20E92AFE59627
:10101D0030E6FB0210B3A2AF920EC2AF75C7AA7530
:10102D00C755439720A20E92AFE59630E5FBA2AFD0
:10103D00920EC2AF75C7AA75C7555396FB8027A2EE
:10104D00AF920EC2AF75C7AA75C755439710A20EC2
:10105D0092AFE59630E4FBA2AF920EC2AF75C7AA70
:10106D0075C755439604A20E92AFA2AF920EC2AFB2
:10107D0075C7AA75C7555396FD804DA2AF920EC286
:10108D00AF75C7AA75C75553977FA20E92AFA2AF82
:10109D00920EC2AF75C7AA75C7555397BFA20E92D0
:1010AD00AFE59630E3FBA2AF920EC2AF75C7AA753E
:1010BD00C7555396FBA20E92AFA2AF920EC2AF755B
:1010CD00C7AA75C755439602A20E92AFA2AF920E54
:1010DD00C2AF75C7AA75C7555396FEA20E92AFE55E
:0510ED009720E0FB224A
:1020320075985243892053877F538EEF53C4DFAB89
:1020420007AA06A905A804E47F807E70FDFC12029F
:092052004BEFF404F58DD28E224F
:10208300759852438920438780538EEF53C4DFAB47
:1020930007AA06A905A804E4FF7EE1FDFC12024B92
:0820A300EFF404F58DD28E224A
:101FDE0075985243892053877F438E1053C4DFABCD
:101FEE0007AA06A905A8047F007E467D057C00127F
:0A1FFE00024BEFF404F58DD28E22A1
:10200800759852438920438780438E1053C4DFABB1
:1020180007AA06A905A8047F007E8C7D0A7C001209
:0A202800024BEFF404F58DD28E2276
:101941009000D012030175985253877F53C4F84316
:10195100C4209000D0E0F8A3E0F9A3E0FAA3E0FBF3
:101961007F007E467D057C0012024BC3E49FFFE4AD
:101971009EFE74019DFDE49CFC78081202EE8FC668
:101981009000D0E0F8A3E0F9A3E0FAA3E0FB7F0028
:101991007E467D057C0012024BC3E49FFF8FC54349
:0319A100C4082255
:1019A4009000D412030175985243878053C4F843BE
:1019B400C4209000D4E0F8A3E0F9A3E0FAA3E0FB8C
:1019C4007F007E8C7D0A7C0012024BC3E49FFFE4FF
:1019D4009EFE74019DFDE49CFC78081202EE8FC605
:1019E4009000D4E0F8A3E0F9A3E0FAA3E0FB7F00C1
:1019F4007E8C7D0A7C0012024BC3E49FFF8FC5439B
:031A0400C40822F1
:101B880090007412030175F85253C4F8900074E081
:101B9800F8A3E0F9A3E0FAA3E0FB7F007E8C7D0ABE
:101BA8007C0012024BC3E49FFFE49EFE74019DFD7E
:101BB800E49CFC78081202EE8FC6900074E0F8A34B
:101BC800E0F9A3E0FAA3E0FB7F007E8C7D0A7C00AD
:0D1BD80012024BC3E49FFF8FC543C40822D7
:070003003098FDAF99C2988F
:01000A0022D3
:0823F800C2998F993099FD2272
:0724000030F8FDAF9AC2F8AD
:0124070022B2
:08240800C2F98F9A30F9FD22A0
:10226300E4F5B1F5B2F5B3F5B4F5B5F5B6F5ACF5FE
:0A227300ADF5DAF5DBF5DCF5DD2250
:10220C0075B1FFE4F5B275B3FFF5B475B5FFF5B66E
:10221C0075ACFFF5AD75DAFFF5DB75DCFFF5DD228E
:10227D0075C7AA75C755A2AF920EC2AF75C7AA751D
:0A228D00C755439F80A20E92AF22B6
:0424C80043AD80227E
:101DA200EF640A701C30F811E59AB4130CC2F830D3
:101DB200F8FDE59AB411F6C2F830F9FDC2F9759A48
:101DC2000D30F811E59AB4130CC2F830F8FDE59A1B
:0D1DD200B411F6C2F830F9FDC2F98F9A2263
:06170F0090FFF8120364D4
:10171500850D83850E8212030D00000000E47FFF16
:101725007EFFFDFC850D83850E82E0F8A3E0F9A31D
:10173500E0FAA3E0FBC31202DD504C900004120353
:1017450088E0FCA3E0FDA3E0FEA3E02401FFE43E66
:10175500FEE43DFDE43CFC90000412038812030105
:10176500850D83850E82E0FCA3E0FDA3E0FEA3E0EA
:101775002401FFE43EFEE43DFDE43CFC850D83854C
:071785000E821203018096A1
:06178C0090000802036456
:1021EB00538EF7438901D28CEF4E6012758AF775C7
:1021FB008CFF308DFDC28DEF1F70ED1E80EAC28CFF
:01220B0022B0
:101C9A009000D8120301538EF7438901D28CE4FFD6
:101CAA00FEFDFC9000D8E0F8A3E0F9A3E0FAA3E077
:101CBA00FBC31202DD602F758A65758CFC308DFDC1
:101CCA00C28D9000D8E0FCA3E0FDA3E0FEA3E024CF
:101CDA00FFFFEE34FFFEED34FFFDEC34FFFC900015
:091CEA00D812030180B8C28C225B
:101CF3009000DC120301538EEF438910D28EE4FF70
:101D0300FEFDFC9000DCE0F8A3E0F9A3E0FAA3E019
:101D1300FBC31202DD602F758B65758DFC308FFD63
:101D2300C28F9000DCE0FCA3E0FDA3E0FEA3E0246F
:101D3300FFFFEE34FFFEED34FFFDEC34FFFC9000BB
:091D4300DC12030180B8C28E22FB
:101BE5009000E012030175C40243C408E4FFFEFD42
:101BF500FC9000E0E0F8A3E0F9A3E0FAA3E0FBC362
:101C05001202DD603275C53375C6F5E5C430E4FBF7
:101C150053C4EF9000E0E0FCA3E0FDA3E0FEA3E0E9
:101C250024FFFFEE34FFFEED34FFFDEC34FFFC90A6
:0B1C350000E012030180B553C4F72249
:101A69009000E4120301538FFB538FFD538FFEE463
:101A7900F586538FDF438F08E4FFFEFDFC9000E4F9
:101A8900E0F8A3E0F9A3E0FAA3E0FBC31202DD60EA
:101A99002CE58F30E4FB538FEF9000E4E0FCA3E0EA
:101AA900FDA3E0FEA3E024FFFFEE34FFFEED34FFCB
:101AB900FDEC34FFFC9000E412030180BB538FF767
:011AC90022FA
:1010F2000A3D3D3D3D3D3D3D3D3D3D3D3D3D3D3D51
:101102003D3D3D3D3D3D3D3D3D3D3D3D3D3D3D3D0D
:101112003D3D3D3D3D3D3D3D3D3D3D3D3D3D3D3DFD
:101122003D3D3D3D3D3D3D3D3D3D3D3D3D3D3D3DED
:101132003D3D3D3D3D000A2A2020436F7079726992
:101142006768742863292032303135204E75766FF6
:10115200746F6E20546563686E6F6C6F677920439D
:101162006F72702E20416C6C2072696768747320F4
:1011720072657365727665642E2020000A2A20202B
:10118200436F6E7461637420452D4D61696C3A2022
:101192004D6963726F432D38626974406E75766F64
:1011A200746F6E2E636F6D2020202020202020205F
:1011B200202020202020202020202020202020202D
:1011C20020000A2A202044656D6F205665727369DB
:1011D2006F6E20203A202532642E2532642E25326D
:1011E20064000A2A202046696E6973686564204497
:1011F200617465203A202532642E2532642E253210
:02120200640086
:101B29007BFF7A1079F21204867BFF7A11793812D9
:101B390004867BFF7A11797E1204867BFF7A1179FC
:101B4900C4900078E4F0A304F0E4A3F0A3F0A3F0B8
:101B5900A3F01204867BFF7A1179E4900078740768
:101B6900F0A374DFF0A3E4F0A37405F0A3E4F0A3F9
:0F1B7900741FF01204867BFF7A1079F202048643
:030000000215E402
:1015E400787FE4F6D8FD9000007FFF7E01E4F0A34D
:0A15F400DFFCDEFA758122021639D1
:1015FE00021792E493A3F8E493A34003F68001F25A
:10160E0008DFF48029E493A3F85407240CC8C333ED
:10161E00C4540F4420C8834004F456800146F6DFBC
:10162E00E4800B0102040810204080901E1BE47E13
:10163E00019360BCA3FF543F30E509541FFEE493B1
:10164E00A360010ECF54C025E060A840B8E493A378
:10165E00FAE493A3F8E493A3C8C582C8CAC583CAA3
:10166E00F0A3C8C582C8CAC583CADFE9DEE780BE5B
:011E5500008C
:10005E00BB010CE58229F582E5833AF583E0225057
:10006E0006E92582F8E622BBFE06E92582F8E222A1
:0D007E00E58229F582E5833AF583E49322BB
:10008B00BB010FF8E58229F582E5833AF583E02879
:10009B00F0225009C58229F8E58226F622BBFE091B
:1000AB00C58229F8E22582F222F8EA2583F583E955
:0300BB0093282265
:1000BE00BB010689828A83F0225002F722BBFE0121
:0200CE00F3221B
:1000D000F8BB010DE58229F582E5833AF583E8F066
:1000E000225006E92582C8F622BBFE05E92582C812
:0200F000F222FA
:1000F200BC000BBE0029EF8DF084FFADF022E4CCF2
:10010200F875F008EF2FFFEE33FEEC33FCEE9DECBA
:10011200984005FCEE9DFE0FD5F0E9E4CEFD22ED00
:10012200F8F5F0EE8420D21CFEADF075F008EF2F4A
:10013200FFED33FD4007985006D5F0F222C398FD3B
:050142000FD5F0EA22D8
:10014700C5F0F8A3E028F0C5F0F8E5821582700243
:060157001583E038F022E0
:10015D00BB0110E58229F582E5833AF583E0F5F0E0
:10016D00A3E0225009E92582F886F008E622BBFEBD
:10017D000AE92582F8E2F5F008E222E5832AF58303
:08018D00E993F5F0A3E99322C8
:10019500BB010DC58229C582C5833AC583020147C6
:1001A5005011C58229F808E5F026F618F5F0E58224
:1001B50036F622BBFE11C58229F808E225F0F5F0D6
:1001C500F218E23582F222F8E58229F582E5832AE2
:0D01D500F58374019325F0F5F0E4933822D2
:1001E200F8BB0111E58229F582E5833AF583E8F04F
:1001F200E5F0A3F0225009E92582C8F608A6F0220C
:0D020200BBFE09E92582C8F2E5F008F222F2
:10020F0075F008758200EF2FFFEE33FECD33CDCCA6
:10021F0033CCC58233C5829BED9AEC99E582984029
:10022F000CF582EE9BFEED9AFDEC99FC0FD5F0D606
:10023F00E4CEFBE4CDFAE4CCF9A88222B800C1B930
:10024F000059BA002DEC8BF084CFCECDFCE5F0CB6E
:10025F00F97818EF2FFFEE33FEED33FDEC33FCEBA7
:10026F0033FB10D703994004EB99FB0FD8E5E4F962
:10027F00FA227818EF2FFFEE33FEED33FDEC33FC4F
:10028F00C933C910D7059BE99A4007EC9BFCE99A43
:10029F00F90FD8E0E4C9FAE4CCFB2275F010EF2F88
:1002AF00FFEE33FEED33FDCC33CCC833C810D70788
:1002BF009BEC9AE899400AED9BFDEC9AFCE899F8C3
:0E02CF000FD5F0DAE4CDFBE4CCFAE4C8F92256
:1002DD00EB9FF5F0EA9E42F0E99D42F0E89C45F077
:0102ED0022EE
:1002EE00E8600FECC313FCED13FDEE13FEEF13FFEE
:0302FE00D8F12212
:0C030100ECF0A3EDF0A3EEF0A3EFF0226F
:10030D00A8828583F0D083D0821203241203241295
:10031D000324120324E473E493A3C583C5F0C583BA
:10032D00C8C582C8F0A3C583C5F0C583C8C582C83A
:01033D00229D
:10033E00BB010789828A830203B75005E9F80203DD
:10034E00AEBBFE05E9F80203E089828A830203E967
:06035E008A838982E4732A
:10036400E50E2582F582E50D3583F583B50D04850B
:10037400820E2210AF0685820EF50D2285820EF5BF
:040384000DD2AF22C5
:0D038800E50E2582F582E50D3583F5832213
:10041B00E5082478F582E43400F583E005082290A2
:10042B000075300703900078E475F0011203C002E9
:10043B0003952000E97F2ED2008018EF540F2490F3
:10044B00D43440D4FF30040BEF24BFB41A00500354
:10045B002461FFE50960021509050CE50C70020526
:10046B000B30070E900075E475F0011203C0EF021C
:10047B0000BE021DA27403D2078003E4C207F50875
:10048B009000751203D7E4F509F50BF50CE509603F
:10049B00077F2012045E80F5750AFFC201C200C2FD
:1004AB0002C203C205C206C20812042AFF700D3035
:1004BB0007057F0012046FAF0CAE0B22B4255FC291
:1004CB00D5C20412042AFF24D0B40A00501A75F0C6
:1004DB000A780930D50508B6FF0106C6A426F62012
:1004EB00D5047002D20380D924CFB41A00EF500484
:1004FB00C2E5D204020670D20180C6D20080C0D2FF
:10050B000280BCD2D580BAD20580B47F2012045EA3
:10051B002002077401B5090040F112041BFF1204FD
:10052B005E020498D208D206809512041BFB1204BB
:10053B001BFA12041BF94A4B700679417A077BFFB1
:10054B0020022EE509602A7E008E82758300120040
:10055B005E60060EEE650A70F0C2D5EBC0E0EAC035
:10056B00E0E9C0E0EE1206B7D0E0F9D0E0FAD0E057
:10057B00FB120395FF60AAEBC0E0EAC0E0E9C0E024
:10058B0012045ED0E02401F9D0E03400FAD0E0FB95
:10059B00E50A0460DCD50AD980877BFF7A0679B33C
:1005AB00D202809C791080027908C206C2088008AA
:1005BB00D2D5790A8004790AC2D5E50A047002F50E
:1005CB000AE4FAFDFEFF12041BFC7B082001131248
:1005DB00041BFD7B1030000A12041BFE12041BFFD0
:1005EB007B20EC3382D592D55013C3E43000069FA9
:1005FB00FFE49EFEE42001039DFDE49CFCE4CBF8AC
:10060B00C201EC700CCFCECDCCE824F8F870F3809F
:10061B0017C3EF33FFEE33FEED33FDEC33FCEB335F
:10062B00FB994002FB0FD8E9EB300105F8D0E0C491
:10063B0048B201C0E00AEC4D4E4F78207B0070C2EF
:10064B00EAB50A0040BCC0E01206B9D0F0D0E020F9
:10065B000104C4C0E0C4B201C0F0120447D0F0D50D
:10066B00F0EB0204981203F505355305AF58050658
:10067B004C05024205B34F05BB4405BB49051B4363
:08068B0005C15505A54605A5B2
:100693004505A547076150050A2D050E2E05312B8B
:1006A300051223052F20074A2A04CA4800000529FA
:1006B3003F3F3F00790AA2D5200314300509B91042
:1006C300020404B9080104A2D52006025001042043
:1006D30002689202B509005034C0E07F203003194C
:1006E3007F30A20272067205500F120710C202C2B7
:1006F30006C205C2087F30800F300503E9C0E0124F
:10070300045E300503D0E0F9D0E0B509CC3005171D
:100713007F30B9100C12045E7F583004077F788055
:1007230003B9080312045E3002057F2D02045E7FC5
:10073300202008F87F2B2006F322920280CF286E18
:10074300756C6C2900D20112041B3001F8C20178C8
:100753000930D50108F60204CA2D50434958120442
:100763001B2403B405004001E490075C9312044F7B
:0D077300743A12044FD2037509040205AF59
:10039500BB010689828A83E0225002E722BBFE0266
:0903A500E32289828A83E4932299
:0903AE00E6FB08E6FA08E6F92274
:0903B700E0FBA3E0FAA3E0F92247
:1003C000F8E0FBA3A3E0F925F0F0E58215827002C6
:0703D0001583E0FA38F0226A
:0903D700EBF0A3EAF0A3E9F02227
:0903E000E2FB08E2FA08E2F9224E
:0C03E900E493FB740193FA740293F92270
:1003F500D083D082F8E4937012740193700DA3A397
:1004050093F8740193F5828883E4737402936860AA
:06041500EFA3A3A380DFAA
:00000001FF
