:0420B4004100F500F2
:03005B00021DBAC9
:101DBA00C0E0C083C082C0D075D000C000C005C0DA
:101DCA0006C007C2EFAFC39000D0E4F0A3EFF090D3
:101DDA0000D0E0FEA3E07802C333CE33CED8F9FFB9
:101DEA009000D0EEF0A3EFF0ADC2EF4DFF9000D01F
:101DFA00EEF0A3EFF09000CEE4F0D007D006D005C5
:0B1E0A00D000D0D0D082D083D0E032D6
:03003B0002227B23
:10227B00C0E0C083C082C0D0E5EC30E30A9000C957
:10228B00E0B402037403F075EC00D0D0D082D0839D
:03229B00D0E0325E
:101F22007F021214C51224259000C0E06002E4F082
:0E1F32009000C2E06002E4F09000C5E060EABA
:101F4000E4F09000F5E0FF04F0EF2430FDE4FF1230
:101F50000AA29000F5E02430FD7F07120AA290004B
:101F6000F5E0C3941A40C3E4FF12171CE49000F597
:011F7000F080
:021F710080B737
:1023D4006F6666206272696768740A00706F776559
:0723E40072206F66660A001B
:1020B8004100CA004100CB004100CC00C1094100E9
:0220C800C8004E
:10223000E49000CBF053E9FB53E9FD53E9FE43ED95
:102240000843EA0853EBF79000CD04F09000A4F0A7
:072250009000C9F002005AE2
:01005A002283
:01263900227E
:01263A00227D
:01263B00227C
:01263C00227B
:01263D00227A
:01263E002279
:03262A000223BACE
:06261400122633022479B6
:1022E4009000C9E0B402159000C8E004F0E0C39483
:1022F40003400EE4F012261A43870222E49000C839
:01230400F0E8
:0123050022B5
:102050009000CCE004F0E0B40A0ED2091226337BE3
:10206000FF7A2379D40204869000CCE0B4141212D3
:1020700026147BFF7A2379E01204869000C974024B
:02208000F0224C
:06261A00E49000CCF02268
:1019A2009000F6EFF012261A30090C9000C9E0B44C
:1019B2000105C2090226369000F6E014B40D00407B
:1019C20003021A509019D475F003A4C58325F0C5FB
:1019D2008373021A160219FB021A21021A44021A0E
:1019E20050021A50021A47021A50021A50021A4A98
:1019F200021A50021A50021A4D9000C9E064037094
:101A02004D1226147BFF7A2379E01204869000C9D6
:101A12007402F0229000C9E06401703202263B9009
:101A220000C9E0B401067402F00226149000C9E075
:101A3200B4020280079000C9E0B403127401F002FC
:0F1A4200262A02263C02263D02263E1222572269
:1020CA0048009C0A1414191E1E322841009B00C1A4
:0120DA000AFB
:10003E009000A47401F0E4A3F0A3F0A3F0A3F0A346
:0C004E00F0A3F0A3F0A3F090009BF022C0
:102257009000A7E004F070069000A6E004F0D39089
:1022670000A7E094109000A6E094274004E4F0A3B0
:04227700F0D20A2275
:0D000E0090009BE0C394FF5003E004F0223B
:0C249300300A08C20A12261A12263F2244
:01263F002278
:0C249F009000B9EBF0A3EAF0A3E9F022F2
:0C24AB009000BCEBF0A3EAF0A3E9F022E3
:102459009000B9A3E0FAA3E0F94A600312035E22EF
:102469009000BCA3E0FAA3E0F94A600312035E22DC
:10208200EF4E602D9000AFEEF0A3EFF0AF05A3ECA2
:10209200F0A3EFF0AF03A3EAF0A3EFF0E4A3F0A301
:1020A200F0A3F0A3F09000AEF09000AD04F0122483
:0220B2005922B1
:1023EB00E49000ADF01224697B007A00790012248E
:0423FB009F0224AB6E
:1018E3009000C9E0B402030223EB9000ADE0700363
:1018F3000219A19000B1E0FEA3E0FF4E70030219AC
:10190300A19000AEE07035D3EF9400EE9400500345
:101913000219A19000B5E475F001120147FED390BE
:1019230000B0E095F09000AFE09E5072122469E49D
:101933009000B5F0A3F09000AE04F0229000AEE06A
:101943006401705A9000B575F001120147FED390FF
:1019530000B2E095F09000B1E09E50429000B3E0F9
:10196300FEA3E0FF9400EE940040259000B7E475D9
:10197300F001120147FCD3EF95F0EE9C5005E49083
:1019830000ADF09000ADE070079000B1F0A3F0223D
:0F199300E49000B5F0A3F09000AEF012245922BA
:1024250012234912251112251A121FB01222C1D2E8
:02243500AF22D4
:0924B7003082037F00227F012224
:0924C0003084037F00227F012219
:0924C9003085037F00227F01220F
:0924D2003086037F00227F012205
:0924DB0030DD037F00227F0122A5
:0924E40030DD037F00227F01229C
:0924ED0030DD037F00227F012293
:0924F60030DD037F00227F01228A
:0924FF0030DD037F00227F012281
:0626200012180002253B28
:10001E00900071E02466F582E43400F583EFF090F1
:0D002E000071E004F0C3940A4002E4F022E7
:10211100900071E0FF900070E0FEB507037F0022A0
:1021210074662EF582E43400F583E0FF900070E0E0
:0921310004F0C3940A4002E4F03A
:01213A002282
:1021B800900071E0FFA3E0FEB507037F002274667C
:1021C8002EF582E43400F583E0FF900072E004F01D
:0721D800C3940A4002E4F089
:0121DF0022DD
:10243700EF75F00BA4240BF582E43400F583E0FF7D
:012447002272
:10201C00EF75F00BA42409F582E43400F583ECF0A1
:10202C00A3EDF0EF75F00BA4240CF582E43400F56D
:10203C0083EBF0EF75F00BA4240DF582E43400F57E
:04204C0083E4F02217
:09250800900071E0900070F022D7
:07253B0043B10453B2FB227F
:10180000E4900070F0A3F0A3F0FFEF75F00BA424B8
:1018100009F582E43400F583E4F0A374C8F0EF75B1
:10182000F00BA42406F582E43400F5837402F0EF93
:1018300075F00BA4240BF582E43400F583E4F0EF9B
:1018400075F00BA4240CF582E43400F583E4F0EF8A
:1018500075F00BA4240DF582E43400F583E4F00F59
:10186000EFB409A690000374FFF0A37424F0A374EE
:10187000B7F090000E74FFF0A37424F0A374C0F0CE
:1018800090001974FFF0A37424F0A374C9F09000C1
:101890002474FFF0A37424F0A374D2F090002F748A
:1018A000FFF0A37424F0A374DBF090003A74FFF00F
:1018B000A37424F0A374E4F090004574FFF0A374C3
:1018C00024F0A374EDF090005074FFF0A37424F0A2
:1018D000A374F6F090005B74FFF0A37424F0A3747B
:0218E000FFF017
:0118E20022E3
:10136B009000F7EFF0E075F00BA42403F97400354F
:10137B00F0FA7B01900000EBF0A3EAF0A3E9F01286
:10138B00033E12035EEF700302145D900000E0FB5E
:10139B00A3E0FAA3E0F990000312005EFFC39405EB
:1013AB00500890000374050214C1EFC3940A50084F
:1013BB00900003740102008B90000812005E701401
:1013CB00900008041200D09000F7E075F003A4041D
:1013DB00FF12001E900000E0FBA3E0FAA3E0F990DF
:1013EB00000612015DFFAEF0D39400EE94005003A3
:1013FB000214C490000412015DC39FE5F09E5023BC
:10140B00900004E475F001120195FCE5F06F700299
:10141B00EC6E60030214C49000F7E075F003A42493
:10142B0003802B90000912005EFFD394005003023F
:10143B0014C490000A740112008BC39F407B900070
:10144B000AE41200D09000F7E075F003A404FF0249
:10145B00001E900000E0FBA3E0FAA3E0F99000036C
:10146B0012005EFFD39405400A900003740512002E
:10147B00D0802BEF600A90000374FF12008B801E4C
:10148B0090000812005EB40115900008E41200D021
:10149B009000F7E075F003A42402FF12001E9000E9
:1014AB0000E0FBA3E0FAA3E0F9900004E4F5F012EE
:0A14BB0001E290000AE41200D022C2
:10238500E49000F8F09000F8E0FFC39409500B12B8
:0A239500136B9000F8E004F080EBF9
:01239F00221B
:101FB000E4F5B275B180F5B475B3FFF5B675B5FF4C
:101FC000F5AD75AC0FF5DB75DAFFF5DD75DCFFF50A
:101FD000F975FA0475E5FF75E6FF75E7FF75EEFF25
:061FE00043F980022479A0
:0C247900E4FF8FFBE4F5FC0FEFB420F64D
:012485002234
:0725420075FB1253FCF722A8
:0725490075FB1243FC0822A0
:0725500075FB0E53FCF7229E
:0725570075FB0E43FC082296
:07255E0075FB0B53FCF72293
:0725650075FB0B43FC08228B
:07256C0075FB0A53FCF72286
:0725730075FB0A43FC08227E
:07257A0075FB0353FCF7227F
:0725810075FB0343FC082277
:0725880075FB0253FCF72272
:07258F0075FB0243FC08226A
:0725960075FB0F53FCF72257
:07259D0075FB0F43FC08224F
:0725A40075FB0753FCF72251
:0725AB0075FB0743FC082249
:0725B20075FB0653FCF72244
:0725B90075FB0643FC08223C
:10171C00EFB4080040030217FF90172CF828287329
:10172C0002174402175C02177402178B0217A202ED
:10173C0017B90217D00217E775FB1F53FCF875FB9E
:10174C001E53FCF875FB1D53FCF075FB1C0217FCBB
:10175C0075FB1B53FCF875FB1A53FCF875FB1953FE
:10176C00FCF075FB180217FC75FB1753FCF875FBA6
:10177C001653FCF875FB1553FCF075FB1480717552
:10178C00FB1353FCF875FB1253FCF875FB1153FC5F
:10179C00F075FB10805A75FB0F53FCF875FB0E535C
:1017AC00FCF875FB0D53FCF075FB0C804375FB0BC3
:1017BC0053FCF875FB0A53FCF875FB0953FCF075E8
:1017CC00FB08802C75FB0753FCF875FB0653FCF8E3
:1017DC0075FB0553FCF075FB04801575FB0353FC7E
:1017EC00F875FB0253FCF875FB0153FCF0E4F5FBB8
:0417FC0053FCF02288
:0C248600E4FEAF0612171C0EEEB408F6C0
:012492002227
:100AA200EFD394074003020D6DED24E07003020CB6
:100AB2002924F0B419004003020D6D900ACB75F0A1
:100AC20003A4C58325F0C58373020B16020B3A02F9
:100AD2000B5E020B89020B9A020BAC020BBE020BDD
:100AE200D0020BF4020C05020D6D020D6D020D6DAC
:100AF200020D6D020D6D020D6D020D6D020C2C02C8
:100B02000C50020C74020C9F020CCA020CED020D76
:100B120018020D43EF25E025E0FEC3741F9EF5FB8E
:100B220075FC05C3741E9EF5FB75FC05C3741D9E02
:100B3200F5FB75FC09020CC0EF25E025E0FEC3744D
:100B42001F9EF5FBE4F5FCC3741E9EF5FBE4F5FC69
:100B5200C3741D9EF5FB75FC01020CC0EF25E02558
:100B6200E0FEC3741F9EF5FB75FC06C3741E9EF562
:100B7200FB75FC01C3741D9EF5FB75FC08C3741C58
:100B82009EF5FB75FC0322EF25E025E0FEC3741FF2
:100B92009EF5FB75FC02807AEF25E025E0FEC3742A
:100BA2001F9EF5FB75FC03020D52EF25E025E0FECA
:100BB200C3741F9EF5FB75FC03020D27EF25E0258C
:100BC200E0FEC3741F9EF5FB75FC07020D27EF259F
:100BD200E025E0FEC3741F9EF5FBE4F5FCC3741E22
:100BE2009EF5FB75FC01C3741D9EF5FBE4F5FC024A
:100BF2000CC0EF25E025E0FEC3741F9EF5FB75FCDB
:100C020007800FEF25E025E0FEC3741F9EF5FB75FC
:100C1200FC03C3741E9EF5FB75FC01C3741D9EF597
:100C2200FB75FC08020D6402171CEF25E025E0FEAF
:100C3200C3741F9EF5FB75FC07C3741E9EF5FB75FE
:100C4200FC01C3741D9EF5FBE4F5FC020D64EF2567
:100C5200E025E0FEC3741F9EF5FBE4F5FCC3741EA1
:100C62009EF5FB75FC01C3741D9EF5FB75FC0E021F
:100C72000D64EF25E025E0FEC3741F9EF5FB75FCB5
:100C820005C3741E9EF5FB75FC01C3741D9EF5FB26
:100C920075FC08C3741C9EF5FBE4F5FC22EF25E00D
:100CA20025E0FEC3741F9EF5FBE4F5FCC3741E9E93
:100CB200F5FB75FC01C3741D9EF5FB75FC0EC37438
:100CC2001C9EF5FB75FC0922EF25E025E0FEC374AE
:100CD2001F9EF5FB75FC07C3741E9EF5FB75FC0198
:100CE200C3741D9EF5FB75FC088021EF25E025E00D
:100CF200FEC3741F9EF5FB75FC07C3741E9EF5FBB5
:100D020075FC01C3741D9EF5FBE4F5FCC3741C9EC7
:100D1200F5FB75FC0222EF25E025E0FEC3741F9E61
:100D2200F5FB75FC05C3741E9EF5FB75FC01C374CF
:100D32001D9EF5FB75FC08C3741C9EF5FB75FC0A31
:100D420022EF25E025E0FEC3741F9EF5FB75FC072C
:100D5200C3741E9EF5FBE4F5FCC3741D9EF5FBE413
:0C0D6200F5FCC3741C9EF5FB75FC0B2215
:100FC1009000F2EDF09000F1EFF01470030210D5F3
:100FD10004600302120C9000F2E024E0700302129C
:100FE1000424F0B40A00400302120C900FFA75F0C9
:100FF10003A4C58325F0C5837302101802102C02C7
:10100100103F02105702105F02107202107A021094
:10101100920210A90210BD75FB1F75FC0575FB1E20
:1010210075FC0575FB1D75FC09807775FB1FE4F5E3
:10103100FC75FB1EF5FC75FB1D75FC01806475FBE1
:101041001F75FC0675FB1E75FC0175FB1D75FC0803
:1010510075FB1C02115A75FB1F75FC02805075FB54
:101061001F75FC0375FB1EE4F5FC75FB1DF5FC808B
:101071005D75FB1F75FC03800675FB1F75FC07750D
:10108100FB1E75FC0175FB1D75FC0875FB1C02112F
:10109100B875FB1FE4F5FC75FB1E75FC0175FB1DA6
:1010A100F5FC75FB1C0211D075FB1F75FC0775FB68
:1010B1001E75FC0175FB1D75FC08801275FB1F7503
:1010C100FC0375FB1E75FC0175FB1D75FC0875FBAA
:1010D1001C0212009000F2E024E0700302120424CA
:1010E100F0B40A00400302120C9010F875F003A44A
:1010F100C58325F0C5837302111602112E02114515
:1011010002115E02117602118C0211A30211BC02BE
:1011110011D40211EB75FB1B75FC0575FB1A75FCEF
:101121000575FB1975FC0975FB180211D075FB1BC0
:10113100E4F5FC75FB1AF5FC75FB1975FC0175FBF3
:10114100180211D075FB1B75FC0675FB1A75FC01A5
:1011510075FB1975FC0875FB1875FC032275FB1BE3
:1011610075FC0275FB1A75FC0175FB1975FC087598
:10117100FB1802120075FB1B75FC0375FB1AE4F5E5
:10118100FC75FB19F5FC75FB18807475FB1B75FC70
:101191000375FB1A75FC0175FB1975FC0875FB18C5
:1011A100801575FB1B75FC0775FB1A75FC0175FB3A
:1011B1001975FC0875FB1875FC0A2275FB1BE4F513
:1011C100FC75FB1A75FC0175FB19F5FC75FB1875AF
:1011D100FC092275FB1B75FC0775FB1A75FC017573
:1011E100FB1975FC0875FB18801575FB1B75FC0355
:1011F10075FB1A75FC0175FB1975FC0875FB1875F3
:0C120100FC0B229000F1E0FF12171C22F1
:10120D00EFD39463400302136AEF75F00A84FEEF87
:10121D0075F00A84ADF0EFD3940950030212C8EEB5
:10122D00B40A0040030212D490123CF8282873022D
:10123D00125A02126202126A02127802128002120D
:10124D008E0212960212A40212B20212BA75FB0E8F
:10125D0075FC0A805E75FB0E53FCF1801C75FB0E50
:10126D0075FC0C75FB0F75FC0B805C75FB0E75FC2E
:10127D0004804075FB0E75FC0675FB0F75FC068032
:10128D004675FB0E75FC06800675FB0E75FC0E751E
:10129D00FB0F75FC0D803075FB0E53FCF175FB0FCC
:1012AD0075FC07802275FB0E75FC0E800675FB0E16
:1012BD0075FC0675FB0F75FC0F800C75FB0E53FC52
:1012CD00F175FB0FE4F5FCEDB40A00400302136A5F
:1012DD009012E4F828287302130202130A02131263
:1012ED0002131F02132702133402133C0213490287
:1012FD00135602135E75FB1075FC0A805A75FB10B0
:10130D0053FCF1801B75FB1075FC0C75FB1175FC06
:10131D000B2275FB1075FC04803D75FB1075FC06EA
:10132D0075FB1175FC062275FB1075FC06800675A4
:10133D00FB1075FC0E75FB1175FC0D2275FB105322
:10134D00FCF175FB1175FC072275FB1075FC0E8009
:0D135D000675FB1075FC0675FB1175FC0F85
:01136A002260
:0725C00075FB12E4F5FC229B
:0725C70075FB1275FC0F22E9
:1023060075FB12EF24BE600E14600F1460102403D8
:10231600700F75FC012275FC022275FC042275FC07
:0223260008228B
:10229E0075FB0853FCF175FB09E4F5FC75FB0A535D
:1022AE00FCF175FB0BF5FC75FB0C53FCF175FB0D8E
:0322BE00F5FC220A
:040D6E00AB07AA061F
:100D7200D3EB94E7EA94034003020FC07C007D6446
:100D8200AF03AE021200F29000F4EFF07C007D643B
:100D9200AF03AE021200F27E007F0ACFCDCFCECCDF
:100DA200CE1200F29000F3EFF07C007D0AAF03AEAA
:100DB200021200F2A905D3EB9463EA9400500302F5
:100DC2000E61A3E0B40A004003020E6D900DD5F847
:100DD200282873020DF3020DFB020E03020E11020C
:100DE2000E19020E27020E2F020E3D020E4B020EAC
:100DF2005375FB0875FC0A805E75FB0853FCF18095
:100E02001C75FB0875FC0C75FB0975FC0B805C7589
:100E1200FB0875FC04804075FB0875FC0675FB0930
:100E220075FC06804675FB0875FC06800675FB0896
:100E320075FC0E75FB0975FC0D803075FB0853FCC3
:100E4200F175FB0975FC07802275FB0875FC0E80A5
:100E52000675FB0875FC0675FB0975FC0F800C75A1
:100E6200FB0853FCF175FB09E4F5FCD3EB9409EAAA
:100E720094005003020F1E43E60443E6089000F379
:100E8200E0B40A004003020F2A900E92F828287359
:100E9200020EB0020EB8020EC0020ECE020ED60232
:100EA2000EE4020EEC020EFA020F08020F1075FB9E
:100EB2000A75FC0A805E75FB0A53FCF1801C75FB07
:100EC2000A75FC0C75FB0B75FC0B805C75FB0A75D7
:100ED200FC04804075FB0A75FC0675FB0B75FC066D
:100EE200804675FB0A75FC06800675FB0A75FC0ECA
:100EF20075FB0B75FC0D803075FB0A53FCF175FB1D
:100F02000B75FC07802275FB0A75FC0E800675FBCB
:100F12000A75FC0675FB0B75FC0F800C75FB0A53FA
:100F2200FCF175FB0BE4F5FCE9B40A004003020F87
:100F3200C0900F3AF8282873020F58020F60020F70
:100F420068020F75020F7D020F8A020F92020F9F35
:100F5200020FAC020FB475FB0C75FC0A805A75FBCC
:100F62000C53FCF1801B75FB0C75FC0C75FB0D75AD
:100F7200FC0B2275FB0C75FC04803D75FB0C75FCAB
:100F82000675FB0D75FC062275FB0C75FC068006CA
:100F920075FB0C75FC0E75FB0D75FC0D2275FB0CBB
:100FA20053FCF175FB0D75FC072275FB0C75FC0EED
:0E0FB200800675FB0C75FC0675FB0D75FC0FBB
:010FC000220E
:0725CE0075FB0253FCFE2225
:0725D50075FB0243FC01222B
:0725DC0075FB0453FCFE2215
:0725E30075FB0475FC0122E9
:0725EA0075FB0853FCFE2203
:0725F10075FB0843FC012209
:0725F800E4F5FB53FCFE2299
:0725FF00E4F5FB43FC01229F
:1020E400E4F5FB53FCF175FB01F5FC75FB0253FCB5
:1020F400F175FB03F5FC75FB0453FCF175FB05F569
:0D210400FC75FB0653FCF175FB07F5FC2292
:04078000AB07AA0613
:10078400D3EB940FEA94274003020AA17C037DE88B
:10079400AF03AE021200F29000F0EFF07C037DE8AC
:1007A400AF03AE021200F27E007F64CFCDCFCECC79
:1007B400CE1200F29000EFEFF07C007D64AF03AE48
:1007C400021200F27E007F0ACFCDCFCECCCE120033
:1007D400F29000EEEFF07C007D0AAF03AE0212004F
:1007E400F2A905D3EB94E7EA94035003020892902C
:1007F40000F0E0B40A00400302089D900806F828BF
:10080400287302082402082C020834020842020851
:100814004A02085802086002086E02087C02088432
:10082400E4F5FB75FC0A805EE4F5FB53FCF1801CE7
:10083400E4F5FB75FC0C75FB0175FC0B805BE4F5C2
:10084400FB75FC048040E4F5FB75FC0675FB017543
:10085400FC068045E4F5FB75FC068006E4F5FB75B3
:10086400FC0E75FB0175FC0D802FE4F5FB53FCF1C8
:1008740075FB0175FC078021E4F5FB75FC0E800611
:10088400E4F5FB75FC0675FB0175FC0F800BE4F5C4
:10089400FB53FCF175FB01F5FCD3EB9463EA940084
:1008A40050030209489000EFE0B40A004003020933
:1008B400549008BCF82828730208DA0208E20208F7
:1008C400EA0208F802090002090E020916020924C4
:1008D40002093202093A75FB0275FC0A805E75FB57
:1008E4000253FCF1801C75FB0275FC0C75FB03754F
:1008F400FC0B805C75FB0275FC04804075FB027583
:10090400FC0675FB0375FC06804675FB0275FC0648
:10091400800675FB0275FC0E75FB0375FC0D8030BB
:1009240075FB0253FCF175FB0375FC07802275FB14
:100934000275FC0E800675FB0275FC0675FB0375DB
:10094400FC0F800C75FB0253FCF175FB03E4F5FC12
:10095400D3EB9409EA940050030209FF9000EEE0FF
:10096400B40A004003020A0B900973F828287302A2
:1009740009910209990209A10209AF0209B7020902
:10098400C50209CD0209DB0209E90209F175FB047C
:1009940075FC0A805E75FB0453FCF1801C75FB0436
:1009A40075FC0C75FB0575FC0B805C75FB0475FC14
:1009B40004804075FB0475FC0675FB0575FC068018
:1009C4004675FB0475FC06800675FB0475FC0E7504
:1009D400FB0575FC0D803075FB0453FCF175FB05BC
:1009E40075FC07802275FB0475FC0E800675FB04FC
:1009F40075FC0675FB0575FC0F800C75FB0453FC38
:100A0400F175FB05E4F5FCE9B40A004003020AA110
:100A1400900A1BF8282873020A39020A41020A497B
:100A2400020A56020A5E020A6B020A73020A800272
:100A34000A8D020A9575FB0675FC0A805A75FB0639
:100A440053FCF1801B75FB0675FC0C75FB0775FCEC
:100A54000B2275FB0675FC04803D75FB0675FC06D0
:100A640075FB0775FC062275FB0675FC068006758A
:100A7400FB0675FC0E75FB0775FC0D2275FB065312
:100A8400FCF175FB0775FC072275FB0675FC0E80EF
:0D0A94000675FB0675FC0675FB0775FC0F6B
:010AA1002232
:0726060075FB0653FCFE22E8
:07260D0075FB0643FC0122EE
:1024480053DC7F43DD807F807E257D007C00021D7C
:012458005D26
:1023FF0030F80BE59A1200BEC2F8D20C8002C20C64
:02240F00A20C1D
:0124110022A8
:0820DB004100C6004100C700EE
:1022C1001223695389F75389FB5389FD438901908F
:1022D10000C674FCF0A37466F0758CFCF58AD2A973
:0322E100D28C227A
:10236900E49000BFF09000C1F09000C3F0A3F0909A
:0C23790000C0F09000C2F09000C5F022FF
:03000B00021B6E67
:101B6E00C0E0C0F0C083C082C0D075D000C000C03D
:101B7E00069000C6E0F58CA3E0F58A9000BFE00465
:101B8E00F0C3940A4005E4F0A304F09000C1E00411
:101B9E00F0C394644005E4F0A304F09000C3E47530
:101BAE00F001120147FEC3E5F094E8EE9403400AFB
:101BBE009000C3E4F0A3F0A304F0D006D000D0D080
:091BCE00D082D083D0F0D0E032C7
:1024120053897F5389BF4389205389EF758DCE75C8
:032422008BCE223C
:03001B000226407A
:012640003267
:101FE600E49000CEF0A3F0A37403F0A374FFF053C3
:101FF600B1FE53B2FE53B1FD53B2FD43E101E4F528
:10200600E843B10153B2FE43F60153E1BF43E12079
:0620160053E1EFD2AE22FF
:1021E0009000CE7401F0A3E0600DE4F0C2EBC2EA0F
:1021F000C2E9C2E8D2EE229000CF7401F0C2EBC275
:08220000EAC2E9D2E8D2EE22A5
:0925110053B1DF43B22002262D74
:03262D00C2852241
:03263000D285222E
:09251A0053B1BF43B24002263662
:03263300C286223A
:03263600D2862227
:1014C500EF14604414606F14700302156414700304
:1014D5000215A024046003021604A2AF920BC2AF4A
:1014E50075C7AA75C755439780A20B92AFA2AF9255
:1014F5000BC2AF75C7AA75C7555397BFA20B92AF5D
:10150500E59630E7FB0215CBA2AF920BC2AF75C7CC
:10151500AA75C75553977FA20B92AFA2AF920BC284
:10152500AF75C7AA75C755439740A20B92AFE5960D
:1015350030E6FB0215CBA2AF920BC2AF75C7AA75F9
:10154500C755439720A20B92AFE59630E5FBA2AFB6
:10155500920BC2AF75C7AA75C7555396FB8027A2D4
:10156500AF920BC2AF75C7AA75C755439710A20BAB
:1015750092AFE59630E4FBA2AF920BC2AF75C7AA56
:1015850075C755439604A20B92AFA2AF920BC2AF9B
:1015950075C7AA75C7555396FD804DA2AF920BC26C
:1015A500AF75C7AA75C75553977FA20B92AFA2AF68
:1015B500920BC2AF75C7AA75C7555397BFA20B92B9
:1015C500AFE59630E3FBA2AF920BC2AF75C7AA7524
:1015D500C7555396FBA20B92AFA2AF920BC2AF7544
:1015E500C7AA75C755439602A20B92AFA2AF920B3D
:1015F500C2AF75C7AA75C7555396FEA20B92AFE544
:051605009720E0FB222C
:10218F0075985243892053877F538EEF53C4DFAB2B
:10219F0007AA06A905A804E47F807E70FDFC120241
:0921AF004BEFF404F58DD28E22F1
:10220800759852438920438780538EEF53C4DFABC0
:1022180007AA06A905A804E4FF7EE1FDFC12024B0B
:08222800EFF404F58DD28E22C3
:10213B0075985243892053877F438E1053C4DFAB6E
:10214B0007AA06A905A8047F007E467D057C001220
:0A215B00024BEFF404F58DD28E2242
:10216500759852438920438780438E1053C4DFAB53
:1021750007AA06A905A8047F007E8C7D0A7C0012AB
:0A218500024BEFF404F58DD28E2218
:101BD7009000D212030175985253877F53C4F8437C
:101BE700C4209000D2E0F8A3E0F9A3E0FAA3E0FB59
:101BF7007F007E467D057C0012024BC3E49FFFE415
:101C07009EFE74019DFDE49CFC78081202EE8FC6CF
:101C17009000D2E0F8A3E0F9A3E0FAA3E0FB7F008D
:101C27007E467D057C0012024BC3E49FFF8FC543B0
:031C3700C40822BC
:101C3A009000D612030175985243878053C4F84323
:101C4A00C4209000D6E0F8A3E0F9A3E0FAA3E0FBF1
:101C5A007F007E8C7D0A7C0012024BC3E49FFFE466
:101C6A009EFE74019DFDE49CFC78081202EE8FC66C
:101C7A009000D6E0F8A3E0F9A3E0FAA3E0FB7F0026
:101C8A007E8C7D0A7C0012024BC3E49FFF8FC54302
:031C9A00C4082259
:101D5D009000DA12030175F85253C4F89000DAE0DE
:101D6D00F8A3E0F9A3E0FAA3E0FB7F007E8C7D0AE7
:101D7D007C0012024BC3E49FFFE49EFE74019DFDA7
:101D8D00E49CFC78081202EE8FC69000DAE0F8A30E
:101D9D00E0F9A3E0FAA3E0FB7F007E8C7D0A7C00D6
:0D1DAD0012024BC3E49FFF8FC543C4082200
:070003003098FDAF99C2988F
:01000A0022D3
:08252300C2998F993099FD2245
:07252B0030F8FDAF9AC2F881
:012532002286
:08253300C2F98F9A30F9FD2274
:1023A000E4F5B1F5B2F5B3F5B4F5B5F5B6F5ACF5C0
:0A23B000ADF5DAF5DBF5DCF5DD2212
:1023490075B1FFE4F5B275B3FFF5B475B5FFF5B630
:1023590075ACFFF5AD75DAFFF5DB75DCFFF5DD2250
:1023BA0075C7AA75C755A2AF920BC2AF75C7AA75E2
:0A23CA00C755439F80A20B92AF227B
:0426260043AD80221E
:101F7300EF640A701C30F811E59AB4130CC2F83000
:101F8300F8FDE59AB411F6C2F830F9FDC2F9759A75
:101F93000D30F811E59AB4130CC2F830F8FDE59A48
:0D1FA300B411F6C2F830F9FDC2F98F9A2290
:061AEB0090FFF8120364F5
:101AF100850D83850E8212030D00000000E47FFF37
:101B01007EFFFDFC850D83850E82E0F8A3E0F9A33D
:101B1100E0FAA3E0FBC31202DD504C900004120373
:101B210088E0FCA3E0FDA3E0FEA3E02401FFE43E86
:101B3100FEE43DFDE43CFC90000412038812030125
:101B4100850D83850E82E0FCA3E0FDA3E0FEA3E00A
:101B51002401FFE43EFEE43DFDE43CFC850D83856C
:071B61000E821203018096C1
:061B680090000802036476
:10232800538EF7438901D28CEF4E6012758AF77588
:102338008CFF308DFDC28DEF1F70ED1E80EAC28CC0
:012348002272
:101E70009000DE120301538EF7438901D28CE4FFF8
:101E8000FEFDFC9000DEE0F8A3E0F9A3E0FAA3E099
:101E9000FBC31202DD602F758A65758CFC308DFDE9
:101EA000C28D9000DEE0FCA3E0FDA3E0FEA3E024F1
:101EB000FFFFEE34FFFEED34FFFDEC34FFFC90003D
:091EC000DE12030180B8C28C227D
:101EC9009000E2120301538EEF438910D28EE4FF92
:101ED900FEFDFC9000E2E0F8A3E0F9A3E0FAA3E03C
:101EE900FBC31202DD602F758B65758DFC308FFD8C
:101EF900C28F9000E2E0FCA3E0FDA3E0FEA3E02492
:101F0900FFFFEE34FFFEED34FFFDEC34FFFC9000E3
:091F1900E212030180B8C28E221D
:101E15009000E612030175C40243C408E4FFFEFD09
:101E2500FC9000E6E0F8A3E0F9A3E0FAA3E0FBC329
:101E35001202DD603275C53375C6F5E5C430E4FBC5
:101E450053C4EF9000E6E0FCA3E0FDA3E0FEA3E0B1
:101E550024FFFFEE34FFFEED34FFFDEC34FFFC9074
:0B1E650000E612030180B553C4F72211
:101C9D009000EA120301538FFB538FFD538FFEE427
:101CAD00F586538FDF438F08E4FFFEFDFC9000EABD
:101CBD00E0F8A3E0F9A3E0FAA3E0FBC31202DD60B4
:101CCD002CE58F30E4FB538FEF9000EAE0FCA3E0AE
:101CDD00FDA3E0FEA3E024FFFFEE34FFFEED34FF95
:101CED00FDEC34FFFC9000EA12030180BB538FF72B
:011CFD0022C4
:10160A000A3D3D3D3D3D3D3D3D3D3D3D3D3D3D3D33
:10161A003D3D3D3D3D3D3D3D3D3D3D3D3D3D3D3DF0
:10162A003D3D3D3D3D3D3D3D3D3D3D3D3D3D3D3DE0
:10163A003D3D3D3D3D3D3D3D3D3D3D3D3D3D3D3DD0
:10164A003D3D3D3D3D000A2A2020436F7079726975
:10165A006768742863292032303135204E75766FD9
:10166A00746F6E20546563686E6F6C6F6779204380
:10167A006F72702E20416C6C2072696768747320D7
:10168A0072657365727665642E2020000A2A20200E
:10169A00436F6E7461637420452D4D61696C3A2005
:1016AA004D6963726F432D38626974406E75766F47
:1016BA00746F6E2E636F6D20202020202020202042
:1016CA002020202020202020202020202020202010
:1016DA0020000A2A202044656D6F205665727369BE
:1016EA006F6E20203A202532642E2532642E253250
:1016FA0064000A2A202046696E697368656420447A
:10170A00617465203A202532642E2532642E2532F2
:02171A00640069
:101CFE007BFF7A16790A1204867BFF7A16795012C8
:101D0E0004867BFF7A1679961204867BFF7A167903
:101D1E00DC900076E4F0A304F0E4A3F0A3F0A3F0CB
:101D2E00A3F01204867BFF7A1679FC900076740776
:101D3E00F0A374DFF0A3E4F0A37405F0A3E4F0A322
:0F1D4E00741FF01204867BFF7A16790A0204864E
:03000000021A5190
:101A5100787FE4F6D8FD9000007FFF7E01E4F0A3DB
:0A1A6100DFFCDEFA758121021AA6EF
:101A6B00021F22E493A3F8E493A34003F68001F250
:101A7B0008DFF48029E493A3F85407240CC8C3337C
:101A8B00C4540F4420C8834004F456800146F6DF4B
:101A9B00E4800B01020408102040809020B4E47E07
:101AAB00019360BCA3FF543F30E509541FFEE49340
:101ABB00A360010ECF54C025E060A840B8E493A307
:101ACB00FAE493A3F8E493A3C8C582C8CAC583CA32
:101ADB00F0A3C8C582C8CAC583CADFE9DEE780BEEA
:0120E30000FC
:10005E00BB010CE58229F582E5833AF583E0225057
:10006E0006E92582F8E622BBFE06E92582F8E222A1
:0D007E00E58229F582E5833AF583E49322BB
:10008B00BB010FF8E58229F582E5833AF583E02879
:10009B00F0225009C58229F8E58226F622BBFE091B
:1000AB00C58229F8E22582F222F8EA2583F583E955
:0300BB0093282265
:1000BE00BB010689828A83F0225002F722BBFE0121
:0200CE00F3221B
:1000D000F8BB010DE58229F582E5833AF583E8F066
:1000E000225006E92582C8F622BBFE05E92582C812
:0200F000F222FA
:1000F200BC000BBE0029EF8DF084FFADF022E4CCF2
:10010200F875F008EF2FFFEE33FEEC33FCEE9DECBA
:10011200984005FCEE9DFE0FD5F0E9E4CEFD22ED00
:10012200F8F5F0EE8420D21CFEADF075F008EF2F4A
:10013200FFED33FD4007985006D5F0F222C398FD3B
:050142000FD5F0EA22D8
:10014700C5F0F8A3E028F0C5F0F8E5821582700243
:060157001583E038F022E0
:10015D00BB0110E58229F582E5833AF583E0F5F0E0
:10016D00A3E0225009E92582F886F008E622BBFEBD
:10017D000AE92582F8E2F5F008E222E5832AF58303
:08018D00E993F5F0A3E99322C8
:10019500BB010DC58229C582C5833AC583020147C6
:1001A5005011C58229F808E5F026F618F5F0E58224
:1001B50036F622BBFE11C58229F808E225F0F5F0D6
:1001C500F218E23582F222F8E58229F582E5832AE2
:0D01D500F58374019325F0F5F0E4933822D2
:1001E200F8BB0111E58229F582E5833AF583E8F04F
:1001F200E5F0A3F0225009E92582C8F608A6F0220C
:0D020200BBFE09E92582C8F2E5F008F222F2
:10020F0075F008758200EF2FFFEE33FECD33CDCCA6
:10021F0033CCC58233C5829BED9AEC99E582984029
:10022F000CF582EE9BFEED9AFDEC99FC0FD5F0D606
:10023F00E4CEFBE4CDFAE4CCF9A88222B800C1B930
:10024F000059BA002DEC8BF084CFCECDFCE5F0CB6E
:10025F00F97818EF2FFFEE33FEED33FDEC33FCEBA7
:10026F0033FB10D703994004EB99FB0FD8E5E4F962
:10027F00FA227818EF2FFFEE33FEED33FDEC33FC4F
:10028F00C933C910D7059BE99A4007EC9BFCE99A43
:10029F00F90FD8E0E4C9FAE4CCFB2275F010EF2F88
:1002AF00FFEE33FEED33FDCC33CCC833C810D70788
:1002BF009BEC9AE899400AED9BFDEC9AFCE899F8C3
:0E02CF000FD5F0DAE4CDFBE4CCFAE4C8F92256
:1002DD00EB9FF5F0EA9E42F0E99D42F0E89C45F077
:0102ED0022EE
:1002EE00E8600FECC313FCED13FDEE13FEEF13FFEE
:0302FE00D8F12212
:0C030100ECF0A3EDF0A3EEF0A3EFF0226F
:10030D00A8828583F0D083D0821203241203241295
:10031D000324120324E473E493A3C583C5F0C583BA
:10032D00C8C582C8F0A3C583C5F0C583C8C582C83A
:01033D00229D
:10033E00BB010789828A830203B75005E9F80203DD
:10034E00AEBBFE05E9F80203E089828A830203E967
:06035E008A838982E4732A
:10036400E50E2582F582E50D3583F583B50D04850B
:10037400820E2210AF0685820EF50D2285820EF5BF
:040384000DD2AF22C5
:0D038800E50E2582F582E50D3583F5832213
:10041B00E5082476F582E43400F583E005082290A4
:10042B000073300703900076E475F0011203C002ED
:10043B0003952000E97F2ED2008018EF540F2490F3
:10044B00D43440D4FF30040BEF24BFB41A00500354
:10045B002461FFE50960021509050CE50C70020526
:10046B000B30070E900073E475F0011203C0EF021E
:10047B0000BE021F737403D2078003E4C207F508A2
:10048B009000731203D7E4F509F50BF50CE5096041
:10049B00077F2012045E80F5750AFFC201C200C2FD
:1004AB0002C203C205C206C20812042AFF700D3035
:1004BB0007057F0012046FAF0CAE0B22B4255FC291
:1004CB00D5C20412042AFF24D0B40A00501A75F0C6
:1004DB000A780930D50508B6FF0106C6A426F62012
:1004EB00D5047002D20380D924CFB41A00EF500484
:1004FB00C2E5D204020670D20180C6D20080C0D2FF
:10050B000280BCD2D580BAD20580B47F2012045EA3
:10051B002002077401B5090040F112041BFF1204FD
:10052B005E020498D208D206809512041BFB1204BB
:10053B001BFA12041BF94A4B700679417A077BFFB1
:10054B0020022EE509602A7E008E82758300120040
:10055B005E60060EEE650A70F0C2D5EBC0E0EAC035
:10056B00E0E9C0E0EE1206B7D0E0F9D0E0FAD0E057
:10057B00FB120395FF60AAEBC0E0EAC0E0E9C0E024
:10058B0012045ED0E02401F9D0E03400FAD0E0FB95
:10059B00E50A0460DCD50AD980877BFF7A0679B33C
:1005AB00D202809C791080027908C206C2088008AA
:1005BB00D2D5790A8004790AC2D5E50A047002F50E
:1005CB000AE4FAFDFEFF12041BFC7B082001131248
:1005DB00041BFD7B1030000A12041BFE12041BFFD0
:1005EB007B20EC3382D592D55013C3E43000069FA9
:1005FB00FFE49EFEE42001039DFDE49CFCE4CBF8AC
:10060B00C201EC700CCFCECDCCE824F8F870F3809F
:10061B0017C3EF33FFEE33FEED33FDEC33FCEB335F
:10062B00FB994002FB0FD8E9EB300105F8D0E0C491
:10063B0048B201C0E00AEC4D4E4F78207B0070C2EF
:10064B00EAB50A0040BCC0E01206B9D0F0D0E020F9
:10065B000104C4C0E0C4B201C0F0120447D0F0D50D
:10066B00F0EB0204981203F505355305AF58050658
:10067B004C05024205B34F05BB4405BB49051B4363
:08068B0005C15505A54605A5B2
:100693004505A547076150050A2D050E2E05312B8B
:1006A300051223052F20074A2A04CA4800000529FA
:1006B3003F3F3F00790AA2D5200314300509B91042
:1006C300020404B9080104A2D52006025001042043
:1006D30002689202B509005034C0E07F203003194C
:1006E3007F30A20272067205500F120710C202C2B7
:1006F30006C205C2087F30800F300503E9C0E0124F
:10070300045E300503D0E0F9D0E0B509CC3005171D
:100713007F30B9100C12045E7F583004077F788055
:1007230003B9080312045E3002057F2D02045E7FC5
:10073300202008F87F2B2006F322920280CF286E18
:10074300756C6C2900D20112041B3001F8C20178C8
:100753000930D50108F60204CA2D50434958120442
:100763001B2403B405004001E490075C9312044F7B
:0D077300743A12044FD2037509040205AF59
:10039500BB010689828A83E0225002E722BBFE0266
:0903A500E32289828A83E4932299
:0903AE00E6FB08E6FA08E6F92274
:0903B700E0FBA3E0FAA3E0F92247
:1003C000F8E0FBA3A3E0F925F0F0E58215827002C6
:0703D0001583E0FA38F0226A
:0903D700EBF0A3EAF0A3E9F02227
:0903E000E2FB08E2FA08E2F9224E
:0C03E900E493FB740193FA740293F92270
:1003F500D083D082F8E4937012740193700DA3A397
:1004050093F8740193F5828883E4737402936860AA
:06041500EFA3A3A380DFAA
:00000001FF
