:041C23004100F30089
:03005B0002193552
:10193500C0E0C083C082C0D075D000C000C005C063
:1019450006C007C2EFAFC39000D0E4F0A3EFF0905C
:1019550000D0E0FEA3E07802C333CE33CED8F9FF42
:101965009000D0EEF0A3EFF0ADC2EF4DFF9000D0A8
:10197500EEF0A3EFF09000CEE4F0D007D006D0054E
:0B198500D000D0D0D082D083D0E03260
:03003B00021DEAB9
:101DEA00C0E0C083C082C0D0E5EC30E30A9000C9ED
:101DFA00E0B402037403F075EC00D0D0D082D08333
:031E0A00D0E032F3
:101A9D007F02120FAD121F949000C0E06002E4F0BF
:0E1AAD009000C2E06002E4F09000C5E060EA44
:101ABB00E4F09000F3E0FF04F0EF2430FDE4FF12BC
:101ACB0015D39000F3E0C3940640CFE4FF12120449
:051ADB00E49000F3F0AF
:021AE00080C3C1
:101F43006F6666206272696768740A00706F7765EE
:071F530072206F66660A00B0
:101C27004100CA004100CB004100CC00C10941007E
:021C3700C800E3
:101D9F00E49000CBF053E9FB53E9FD53E9FE43ED2B
:101DAF000843EA0853EBF79000CD04F09000A4F03D
:071DBF009000C9F002005A78
:01005A002283
:0121A8002214
:0121A9002213
:0121AA002212
:0121AB002211
:0121AC002210
:0121AD00220F
:03219900021F29F9
:062183001221A2021FE878
:101E53009000C9E0B402159000C8E004F0E0C39418
:101E630003400EE4F012218943870222E49000C864
:011E7300F07E
:011E7400224B
:101BBF009000CCE004F0E0B40A0ED2091221A27B0F
:101BCF00FF7A1F79430204869000CCE0B4141212FE
:101BDF0021837BFF7A1F794F1204869000C974020C
:021BEF00F022E2
:06218900E49000CCF022FE
:10148A009000F4EFF012218930090C9000C9E0B401
:10149A000105C2090221A59000F4E014B40D004030
:1014AA00030215389014BC75F003A4C58325F0C552
:1014BA0083730214FE0214E302150902152C0215A5
:1014CA003802153802152F0215380215380215325E
:1014DA000215380215380215359000C9E064037008
:1014EA004D1221837BFF7A1F794F1204869000C91F
:1014FA007402F0229000C9E0640170320221AA90BD
:10150A0000C9E0B401067402F00221839000C9E028
:10151A00B4020280079000C9E0B403127401F00219
:0F152A0021990221AB0221AC0221AD121DC62274
:101C390048009C0A1414191E1E322841009B00C139
:011C49000A90
:10003E009000A47401F0E4A3F0A3F0A3F0A3F0A346
:0C004E00F0A3F0A3F0A3F090009BF022C0
:101DC6009000A7E004F070069000A6E004F0D3901F
:101DD60000A7E094109000A6E094274004E4F0A346
:041DE600F0D20A220B
:0D000E0090009BE0C394FF5003E004F0223B
:0C200200300A08C20A1221891221AE2205
:0121AE00220E
:0C200E009000B9EBF0A3EAF0A3E9F02287
:0C201A009000BCEBF0A3EAF0A3E9F02278
:101FC8009000B9A3E0FAA3E0F94A600312035E2285
:101FD8009000BCA3E0FAA3E0F94A600312035E2272
:101BF100EF4E602D9000AFEEF0A3EFF0AF05A3EC38
:101C0100F0A3EFF0AF03A3EAF0A3EFF0E4A3F0A396
:101C1100F0A3F0A3F09000AEF09000AD04F0121F1D
:021C2100C822D7
:101F5A00E49000ADF0121FD87B007A0079001220BD
:041F6A000E02201A29
:1013CB009000C9E0B40203021F5A9000ADE0700315
:1013DB000214899000B1E0FEA3E0FF4E70030214EB
:1013EB00899000AEE07035D3EF9400EE940050037B
:1013FB000214899000B5E475F001120147FED390F9
:10140B0000B0E095F09000AFE09E5072121FD8E450
:10141B009000B5F0A3F09000AE04F0229000AEE087
:10142B006401705A9000B575F001120147FED3901C
:10143B0000B2E095F09000B1E09E50429000B3E016
:10144B00FEA3E0FF9400EE940040259000B7E475F6
:10145B00F001120147FCD3EF95F0EE9C5005E490A0
:10146B0000ADF09000ADE070079000B1F0A3F0225A
:0F147B00E49000B5F0A3F09000AEF0121FC8226D
:101F9400121EB8122080122089121B1F121E30D26A
:021FA400AF226A
:092026003082037F00227F0122B9
:09202F003084037F00227F0122AE
:092038003085037F00227F0122A4
:092041003086037F00227F01229A
:09204A0030DD037F00227F01223A
:0920530030DD037F00227F012231
:09205C0030DD037F00227F012228
:0920650030DD037F00227F01221F
:09206E0030DD037F00227F012216
:06218F001212E80220AA72
:10001E00900071E02466F582E43400F583EFF090F1
:0D002E000071E004F0C3940A4002E4F022E7
:101C8000900071E0FF900070E0FEB507037F002236
:101C900074662EF582E43400F583E0FF900070E076
:091CA00004F0C3940A4002E4F0D0
:011CA9002218
:101D2700900071E0FFA3E0FEB507037F0022746611
:101D37002EF582E43400F583E0FF900072E004F0B2
:071D4700C3940A4002E4F01E
:011D4E002272
:101FA600EF75F00BA4240BF582E43400F583E0FF13
:011FB6002208
:101B8B00EF75F00BA42409F582E43400F583ECF037
:101B9B00A3EDF0EF75F00BA4240CF582E43400F503
:101BAB0083EBF0EF75F00BA4240DF582E43400F514
:041BBB0083E4F022AD
:09207700900071E0900070F0226D
:0720AA0043B10453B2FB2215
:1012E800E4900070F0A3F0A3F0FFEF75F00BA424D6
:1012F80009F582E43400F583E4F0A374C8F0EF75CF
:10130800F00BA42406F582E43400F5837402F0EFB0
:1013180075F00BA4240BF582E43400F583E4F0EFB8
:1013280075F00BA4240CF582E43400F583E4F0EFA7
:1013380075F00BA4240DF582E43400F583E4F00F76
:10134800EFB409A690000374FFF0A37420F0A3740F
:1013580026F090000E74FFF0A37420F0A3742FF011
:1013680090001974FFF0A37420F0A37438F0900073
:101378002474FFF0A37420F0A37441F090002F743C
:10138800FFF0A37420F0A3744AF090003A74FFF0C1
:10139800A37420F0A37453F090004574FFF0A37475
:1013A80020F0A3745CF090005074FFF0A37420F058
:1013B800A37465F090005B74FFF0A37420F0A3742D
:0213C8006EF0C5
:0113CA002200
:100E53009000F5EFF0E075F00BA42403F97400356E
:100E6300F0FA7B01900000EBF0A3EAF0A3E9F012A3
:100E7300033E12035EEF7003020F45900000E0FB98
:100E8300A3E0FAA3E0F990000312005EFFC3940508
:100E930050089000037405020FA9EFC3940A500889
:100EA300900003740102008B90000812005E70141E
:100EB300900008041200D09000F5E075F003A4043C
:100EC300FF12001E900000E0FBA3E0FAA3E0F990FC
:100ED300000612015DFFAEF0D39400EE94005003C0
:100EE300020FAC90000412015DC39FE5F09E5023F6
:100EF300900004E475F001120195FCE5F06F7002B7
:100F0300EC6E6003020FAC9000F5E075F003A424CF
:100F130003802B90000912005EFFD394005003025C
:100F23000FAC90000A740112008BC39F407B9000AA
:100F33000AE41200D09000F5E075F003A404FF0268
:100F4300001E900000E0FBA3E0FAA3E0F990000389
:100F530012005EFFD39405400A900003740512004B
:100F6300D0802BEF600A90000374FF12008B801E69
:100F730090000812005EB40115900008E41200D03E
:100F83009000F5E075F003A42402FF12001E900008
:100F930000E0FBA3E0FAA3E0F9900004E4F5F0120B
:0A0FA30001E290000AE41200D022DF
:101EF400E49000F6F09000F6E0FFC39409500B1252
:0A1F04000E539000F6E004F080EBAD
:011F0E0022B0
:101B1F00E4F5B275B180F5B475B3FFF5B675B5FFE1
:101B2F00F5AD75AC0FF5DB75DAFFF5DD75DCFFF59F
:101B3F00F975FA0475E5FF75E6FF75E7FF75EEFFBA
:061B4F0043F980021FE8CB
:0C1FE800E4FF8FFBE4F5FC0FEFB420F6E3
:011FF40022CA
:0720B10075FB1253FCF7223E
:0720B80075FB1243FC082236
:0720BF0075FB0E53FCF72234
:0720C60075FB0E43FC08222C
:0720CD0075FB0B53FCF72229
:0720D40075FB0B43FC082221
:0720DB0075FB0A53FCF7221C
:0720E20075FB0A43FC082214
:0720E90075FB0353FCF72215
:0720F00075FB0343FC08220D
:0720F70075FB0253FCF72208
:0720FE0075FB0243FC082200
:0721050075FB0F53FCF722EC
:07210C0075FB0F43FC0822E4
:0721130075FB0753FCF722E6
:07211A0075FB0743FC0822DE
:0721210075FB0653FCF722D9
:0721280075FB0643FC0822D1
:10120400EFB4080040030212E7901214F828287380
:1012140002122C02124402125C02127302128A029B
:1012240012A10212B80212CF75FB1F53FCF875FB12
:101234001E53FCF875FB1D53FCF075FB1C0212E4F5
:1012440075FB1B53FCF875FB1A53FCF875FB19531B
:10125400FCF075FB180212E475FB1753FCF875FBE0
:101264001653FCF875FB1553FCF075FB148071756F
:10127400FB1353FCF875FB1253FCF875FB1153FC7C
:10128400F075FB10805A75FB0F53FCF875FB0E5379
:10129400FCF875FB0D53FCF075FB0C804375FB0BE0
:1012A40053FCF875FB0A53FCF875FB0953FCF07505
:1012B400FB08802C75FB0753FCF875FB0653FCF800
:1012C40075FB0553FCF075FB04801575FB0353FC9B
:1012D400F875FB0253FCF875FB0153FCF0E4F5FBD5
:0412E40053FCF022A5
:0C1FF500E4FEAF061212040EEEB408F673
:0120010022BC
:1015D300EF6003021665ED24E0700302166224EF48
:1015E300602114603514604B14605C2404707375BF
:1015F300FB1F75FC0575FB1E75FC0175FB1D75FC5A
:1016030008801075FB1FE4F5FC75FB1EF5FC75FBEC
:101613001DF5FC75FB1C75FC092275FB1F75FC068B
:1016230075FB1E75FC0175FB1D75FC0875FB1C75B0
:10163300FC032275FB1F75FC0275FB1E75FC01750F
:10164300FB1D75FC08801175FB1F75FC0375FB1EE4
:10165300E4F5FC75FB1DF5FC75FB1C75FC0B2212F8
:031663001204224C
:100CF500EFD394634003020E52EF75F00A84FEEFC2
:100D050075F00A84ADF0EFD394095003020DB0EEEF
:100D1500B40A004003020DBC900D24F82828730284
:100D25000D42020D4A020D52020D60020D68020DC0
:100D350076020D7E020D8C020D9A020DA275FB0E38
:100D450075FC0A805E75FB0E53FCF1801C75FB0E6D
:100D550075FC0C75FB0F75FC0B805C75FB0E75FC4B
:100D650004804075FB0E75FC0675FB0F75FC06804F
:100D75004675FB0E75FC06800675FB0E75FC0E753B
:100D8500FB0F75FC0D803075FB0E53FCF175FB0FE9
:100D950075FC07802275FB0E75FC0E800675FB0E33
:100DA50075FC0675FB0F75FC0F800C75FB0E53FC6F
:100DB500F175FB0FE4F5FCEDB40A004003020E5299
:100DC500900DCCF8282873020DEA020DF2020DFAF7
:100DD500020E07020E0F020E1C020E24020E310235
:100DE5000E3E020E4675FB1075FC0A805A75FB1007
:100DF50053FCF1801B75FB1075FC0C75FB1175FC24
:100E05000B2275FB1075FC04803D75FB1075FC0607
:100E150075FB1175FC062275FB1075FC06800675C1
:100E2500FB1075FC0E75FB1175FC0D2275FB10533F
:100E3500FCF175FB1175FC072275FB1075FC0E8026
:0D0E45000675FB1075FC0675FB1175FC0FA2
:010E5200227D
:07212F0075FB12E4F5FC2230
:0721360075FB1275FC0F227E
:101E750075FB12EF24BE600E14600F14601024036E
:101E8500700F75FC012275FC022275FC042275FC9D
:021E9500082221
:101E0D0075FB0853FCF175FB09E4F5FC75FB0A53F2
:101E1D00FCF175FB0BF5FC75FB0C53FCF175FB0D23
:031E2D00F5FC229F
:040AA200AB07AA06EE
:100AA600D3EB94E7EA94034003020CF47C007D64E4
:100AB600AF03AE021200F29000F2EFF07C007D640C
:100AC600AF03AE021200F27E007F0ACFCDCFCECCAE
:100AD600CE1200F29000F1EFF07C007D0AAF03AE7B
:100AE600021200F2A905D3EB9463EA9400500302C4
:100AF6000B95A3E0B40A004003020BA1900B09F882
:100B0600282873020B27020B2F020B37020B450214
:100B16000B4D020B5B020B63020B71020B7F020B88
:100B26008775FB0875FC0A805E75FB0853FCF1802F
:100B36001C75FB0875FC0C75FB0975FC0B805C7558
:100B4600FB0875FC04804075FB0875FC0675FB09FF
:100B560075FC06804675FB0875FC06800675FB0865
:100B660075FC0E75FB0975FC0D803075FB0853FC92
:100B7600F175FB0975FC07802275FB0875FC0E8074
:100B86000675FB0875FC0675FB0975FC0F800C7570
:100B9600FB0853FCF175FB09E4F5FCD3EB9409EA79
:100BA60094005003020C5243E60443E6089000F119
:100BB600E0B40A004003020C5E900BC6F8282873C6
:100BC600020BE4020BEC020BF4020C02020C0A020A
:100BD6000C18020C20020C2E020C3C020C4475FB75
:100BE6000A75FC0A805E75FB0A53FCF1801C75FBD6
:100BF6000A75FC0C75FB0B75FC0B805C75FB0A75A6
:100C0600FC04804075FB0A75FC0675FB0B75FC063B
:100C1600804675FB0A75FC06800675FB0A75FC0E98
:100C260075FB0B75FC0D803075FB0A53FCF175FBEB
:100C36000B75FC07802275FB0A75FC0E800675FB9A
:100C46000A75FC0675FB0B75FC0F800C75FB0A53C9
:100C5600FCF175FB0BE4F5FCE9B40A004003020C59
:100C6600F4900C6EF8282873020C8C020C94020C7B
:100C76009C020CA9020CB1020CBE020CC6020CD3DB
:100C8600020CE0020CE875FB0C75FC0A805A75FB39
:100C96000C53FCF1801B75FB0C75FC0C75FB0D757C
:100CA600FC0B2275FB0C75FC04803D75FB0C75FC7A
:100CB6000675FB0D75FC062275FB0C75FC06800699
:100CC60075FB0C75FC0E75FB0D75FC0D2275FB0C8A
:100CD60053FCF175FB0D75FC072275FB0C75FC0EBC
:0E0CE600800675FB0C75FC0675FB0D75FC0F8A
:010CF40022DD
:07213D0075FB0253FCFE22BA
:0721440075FB0243FC0122C0
:07214B0075FB0453FCFE22AA
:0721520075FB0475FC01227E
:0721590075FB0853FCFE2298
:0721600075FB0843FC01229E
:07216700E4F5FB53FCFE222E
:07216E00E4F5FB43FC012234
:101C5300E4F5FB53FCF175FB01F5FC75FB0253FC4A
:101C6300F175FB03F5FC75FB0453FCF175FB05F5FE
:0D1C7300FC75FB0653FCF175FB07F5FC2228
:04078000AB07AA0613
:10078400D3EB940FEA94274003020AA17C037DE88B
:10079400AF03AE021200F29000F0EFF07C037DE8AC
:1007A400AF03AE021200F27E007F64CFCDCFCECC79
:1007B400CE1200F29000EFEFF07C007D64AF03AE48
:1007C400021200F27E007F0ACFCDCFCECCCE120033
:1007D400F29000EEEFF07C007D0AAF03AE0212004F
:1007E400F2A905D3EB94E7EA94035003020892902C
:1007F40000F0E0B40A00400302089D900806F828BF
:10080400287302082402082C020834020842020851
:100814004A02085802086002086E02087C02088432
:10082400E4F5FB75FC0A805EE4F5FB53FCF1801CE7
:10083400E4F5FB75FC0C75FB0175FC0B805BE4F5C2
:10084400FB75FC048040E4F5FB75FC0675FB017543
:10085400FC068045E4F5FB75FC068006E4F5FB75B3
:10086400FC0E75FB0175FC0D802FE4F5FB53FCF1C8
:1008740075FB0175FC078021E4F5FB75FC0E800611
:10088400E4F5FB75FC0675FB0175FC0F800BE4F5C4
:10089400FB53FCF175FB01F5FCD3EB9463EA940084
:1008A40050030209489000EFE0B40A004003020933
:1008B400549008BCF82828730208DA0208E20208F7
:1008C400EA0208F802090002090E020916020924C4
:1008D40002093202093A75FB0275FC0A805E75FB57
:1008E4000253FCF1801C75FB0275FC0C75FB03754F
:1008F400FC0B805C75FB0275FC04804075FB027583
:10090400FC0675FB0375FC06804675FB0275FC0648
:10091400800675FB0275FC0E75FB0375FC0D8030BB
:1009240075FB0253FCF175FB0375FC07802275FB14
:100934000275FC0E800675FB0275FC0675FB0375DB
:10094400FC0F800C75FB0253FCF175FB03E4F5FC12
:10095400D3EB9409EA940050030209FF9000EEE0FF
:10096400B40A004003020A0B900973F828287302A2
:1009740009910209990209A10209AF0209B7020902
:10098400C50209CD0209DB0209E90209F175FB047C
:1009940075FC0A805E75FB0453FCF1801C75FB0436
:1009A40075FC0C75FB0575FC0B805C75FB0475FC14
:1009B40004804075FB0475FC0675FB0575FC068018
:1009C4004675FB0475FC06800675FB0475FC0E7504
:1009D400FB0575FC0D803075FB0453FCF175FB05BC
:1009E40075FC07802275FB0475FC0E800675FB04FC
:1009F40075FC0675FB0575FC0F800C75FB0453FC38
:100A0400F175FB05E4F5FCE9B40A004003020AA110
:100A1400900A1BF8282873020A39020A41020A497B
:100A2400020A56020A5E020A6B020A73020A800272
:100A34000A8D020A9575FB0675FC0A805A75FB0639
:100A440053FCF1801B75FB0675FC0C75FB0775FCEC
:100A54000B2275FB0675FC04803D75FB0675FC06D0
:100A640075FB0775FC062275FB0675FC068006758A
:100A7400FB0675FC0E75FB0775FC0D2275FB065312
:100A8400FCF175FB0775FC072275FB0675FC0E80EF
:0D0A94000675FB0675FC0675FB0775FC0F6B
:010AA1002232
:0721750075FB0653FCFE227E
:07217C0075FB0643FC012284
:101FB70053DC7F43DD807F807E257D007C00021817
:011FC700D841
:101F6E0030F80BE59A1200BEC2F8D20C8002C20CF9
:021F7E00A20CB3
:011F8000223E
:081C4A004100C6004100C70083
:101E3000121ED85389F75389FB5389FD43890190BA
:101E400000C674FCF0A37466F0758CFCF58AD2A908
:031E5000D28C220F
:101ED800E49000BFF09000C1F09000C3F0A3F09030
:0C1EE80000C0F09000C2F09000C5F02295
:03000B000216E9F1
:1016E900C0E0C0F0C083C082C0D075D000C000C0C7
:1016F900069000C6E0F58CA3E0F58A9000BFE004EF
:10170900F0C3940A4005E4F0A304F09000C1E0049A
:10171900F0C394644005E4F0A304F09000C3E475B9
:10172900F001120147FEC3E5F094E8EE9403400A84
:101739009000C3E4F0A3F0A304F0D006D000D0D009
:09174900D082D083D0F0D0E03250
:101F810053897F5389BF4389205389EF758DCE755E
:031F91008BCE22D2
:03001B000221AF10
:0121AF0032FD
:101B5500E49000CEF0A3F0A37403F0A374FFF05358
:101B6500B1FE53B2FE53B1FD53B2FD43E101E4F5BD
:101B7500E843B10153B2FE43F60153E1BF43E1200F
:061B850053E1EFD2AE2295
:101D4F009000CE7401F0A3E0600DE4F0C2EBC2EAA4
:101D5F00C2E9C2E8D2EE229000CF7401F0C2EBC20A
:081D6F00EAC2E9D2E8D2EE223B
:0920800053B1DF43B22002219F9D
:03219C00C28522D7
:03219F00D28522C4
:0920890053B1BF43B2400221A58E
:0321A200C28622D0
:0321A500D28622BD
:100FAD00EF14604414606F14700302104C1470033E
:100FBD00021088240460030210ECA2AF920BC2AFA2
:100FCD0075C7AA75C755439780A20B92AFA2AF9272
:100FDD000BC2AF75C7AA75C7555397BFA20B92AF7A
:100FED00E59630E7FB0210B3A2AF920BC2AF75C707
:100FFD00AA75C75553977FA20B92AFA2AF920BC2A2
:10100D00AF75C7AA75C755439740A20B92AFE5962A
:10101D0030E6FB0210B3A2AF920BC2AF75C7AA7533
:10102D00C755439720A20B92AFE59630E5FBA2AFD3
:10103D00920BC2AF75C7AA75C7555396FB8027A2F1
:10104D00AF920BC2AF75C7AA75C755439710A20BC8
:10105D0092AFE59630E4FBA2AF920BC2AF75C7AA73
:10106D0075C755439604A20B92AFA2AF920BC2AFB8
:10107D0075C7AA75C7555396FD804DA2AF920BC289
:10108D00AF75C7AA75C75553977FA20B92AFA2AF85
:10109D00920BC2AF75C7AA75C7555397BFA20B92D6
:1010AD00AFE59630E3FBA2AF920BC2AF75C7AA7541
:1010BD00C7555396FBA20B92AFA2AF920BC2AF7561
:1010CD00C7AA75C755439602A20B92AFA2AF920B5A
:1010DD00C2AF75C7AA75C7555396FEA20B92AFE561
:0510ED009720E0FB224A
:101CFE0075985243892053877F538EEF53C4DFABC1
:101D0E0007AA06A905A804E47F807E70FDFC1202D6
:091D1E004BEFF404F58DD28E2286
:101D7700759852438920438780538EEF53C4DFAB56
:101D870007AA06A905A804E4FF7EE1FDFC12024BA1
:081D9700EFF404F58DD28E2259
:101CAA0075985243892053877F438E1053C4DFAB04
:101CBA0007AA06A905A8047F007E467D057C0012B6
:0A1CCA00024BEFF404F58DD28E22D8
:101CD400759852438920438780438E1053C4DFABE9
:101CE40007AA06A905A8047F007E8C7D0A7C001241
:0A1CF400024BEFF404F58DD28E22AE
:101752009000D212030175985253877F53C4F84305
:10176200C4209000D2E0F8A3E0F9A3E0FAA3E0FBE2
:101772007F007E467D057C0012024BC3E49FFFE49E
:101782009EFE74019DFDE49CFC78081202EE8FC659
:101792009000D2E0F8A3E0F9A3E0FAA3E0FB7F0017
:1017A2007E467D057C0012024BC3E49FFF8FC5433A
:0317B200C4082246
:1017B5009000D612030175985243878053C4F843AD
:1017C500C4209000D6E0F8A3E0F9A3E0FAA3E0FB7B
:1017D5007F007E8C7D0A7C0012024BC3E49FFFE4F0
:1017E5009EFE74019DFDE49CFC78081202EE8FC6F6
:1017F5009000D6E0F8A3E0F9A3E0FAA3E0FB7F00B0
:101805007E8C7D0A7C0012024BC3E49FFF8FC5438B
:03181500C40822E2
:1018D8009000DA12030175F85253C4F89000DAE068
:1018E800F8A3E0F9A3E0FAA3E0FB7F007E8C7D0A71
:1018F8007C0012024BC3E49FFFE49EFE74019DFD31
:10190800E49CFC78081202EE8FC69000DAE0F8A397
:10191800E0F9A3E0FAA3E0FB7F007E8C7D0A7C005F
:0D19280012024BC3E49FFF8FC543C4082289
:070003003098FDAF99C2988F
:01000A0022D3
:08209200C2998F993099FD22DB
:07209A0030F8FDAF9AC2F817
:0120A100221C
:0820A200C2F98F9A30F9FD220A
:101F0F00E4F5B1F5B2F5B3F5B4F5B5F5B6F5ACF555
:0A1F1F00ADF5DAF5DBF5DCF5DD22A7
:101EB80075B1FFE4F5B275B3FFF5B475B5FFF5B6C6
:101EC80075ACFFF5AD75DAFFF5DB75DCFFF5DD22E6
:101F290075C7AA75C755A2AF920BC2AF75C7AA7577
:0A1F3900C755439F80A20B92AF2210
:0421950043AD8022B4
:101AE200EF640A701C30F811E59AB4130CC2F83096
:101AF200F8FDE59AB411F6C2F830F9FDC2F9759A0B
:101B02000D30F811E59AB4130CC2F830F8FDE59ADD
:0D1B1200B411F6C2F830F9FDC2F98F9A2225
:0616660090FFF81203647E
:10166C00850D83850E8212030D00000000E47FFFC0
:10167C007EFFFDFC850D83850E82E0F8A3E0F9A3C7
:10168C00E0FAA3E0FBC31202DD504C9000041203FD
:10169C0088E0FCA3E0FDA3E0FEA3E02401FFE43E10
:1016AC00FEE43DFDE43CFC900004120388120301AF
:1016BC00850D83850E82E0FCA3E0FDA3E0FEA3E094
:1016CC002401FFE43EFEE43DFDE43CFC850D8385F6
:0716DC000E8212030180964B
:0616E30090000802036400
:101E9700538EF7438901D28CEF4E6012758AF7751E
:101EA7008CFF308DFDC28DEF1F70ED1E80EAC28C56
:011EB7002208
:1019EB009000DE120301538EF7438901D28CE4FF82
:1019FB00FEFDFC9000DEE0F8A3E0F9A3E0FAA3E023
:101A0B00FBC31202DD602F758A65758CFC308DFD72
:101A1B00C28D9000DEE0FCA3E0FDA3E0FEA3E0247A
:101A2B00FFFFEE34FFFEED34FFFDEC34FFFC9000C6
:091A3B00DE12030180B8C28C2206
:101A44009000E2120301538EEF438910D28EE4FF1B
:101A5400FEFDFC9000E2E0F8A3E0F9A3E0FAA3E0C5
:101A6400FBC31202DD602F758B65758DFC308FFD15
:101A7400C28F9000E2E0FCA3E0FDA3E0FEA3E0241B
:101A8400FFFFEE34FFFEED34FFFDEC34FFFC90006D
:091A9400E212030180B8C28E22A7
:101990009000E612030175C40243C408E4FFFEFD93
:1019A000FC9000E6E0F8A3E0F9A3E0FAA3E0FBC3B3
:1019B0001202DD603275C53375C6F5E5C430E4FB4F
:1019C00053C4EF9000E6E0FCA3E0FDA3E0FEA3E03B
:1019D00024FFFFEE34FFFEED34FFFDEC34FFFC90FE
:0B19E00000E612030180B553C4F7229B
:101818009000EA120301538FFB538FFD538FFEE4B0
:10182800F586538FDF438F08E4FFFEFDFC9000EA46
:10183800E0F8A3E0F9A3E0FAA3E0FBC31202DD603D
:101848002CE58F30E4FB538FEF9000EAE0FCA3E037
:10185800FDA3E0FEA3E024FFFFEE34FFFEED34FF1E
:10186800FDEC34FFFC9000EA12030180BB538FF7B4
:01187800224D
:1010F2000A3D3D3D3D3D3D3D3D3D3D3D3D3D3D3D51
:101102003D3D3D3D3D3D3D3D3D3D3D3D3D3D3D3D0D
:101112003D3D3D3D3D3D3D3D3D3D3D3D3D3D3D3DFD
:101122003D3D3D3D3D3D3D3D3D3D3D3D3D3D3D3DED
:101132003D3D3D3D3D000A2A2020436F7079726992
:101142006768742863292032303135204E75766FF6
:10115200746F6E20546563686E6F6C6F677920439D
:101162006F72702E20416C6C2072696768747320F4
:1011720072657365727665642E2020000A2A20202B
:10118200436F6E7461637420452D4D61696C3A2022
:101192004D6963726F432D38626974406E75766F64
:1011A200746F6E2E636F6D2020202020202020205F
:1011B200202020202020202020202020202020202D
:1011C20020000A2A202044656D6F205665727369DB
:1011D2006F6E20203A202532642E2532642E25326D
:1011E20064000A2A202046696E6973686564204497
:1011F200617465203A202532642E2532642E253210
:02120200640086
:101879007BFF7A1079F21204867BFF7A117938128C
:1018890004867BFF7A11797E1204867BFF7A1179AF
:10189900C4900076E4F0A304F0E4A3F0A3F0A3F06D
:1018A900A3F01204867BFF7A1179E490007674071D
:1018B900F0A374DFF0A3E4F0A37405F0A3E4F0A3AC
:0F18C900741FF01204867BFF7A1079F2020486F6
:03000000021539AD
:10153900787FE4F6D8FD9000007FFF7E01E4F0A3F8
:0A154900DFFCDEFA75812102158E29
:10155300021A9DE493A3F8E493A34003F68001F2F7
:1015630008DFF48029E493A3F85407240CC8C33399
:10157300C4540F4420C8834004F456800146F6DF68
:10158300E4800B0102040810204080901C23E47EB9
:10159300019360BCA3FF543F30E509541FFEE4935D
:1015A300A360010ECF54C025E060A840B8E493A324
:1015B300FAE493A3F8E493A3C8C582C8CAC583CA4F
:1015C300F0A3C8C582C8CAC583CADFE9DEE780BE07
:011C52000091
:10005E00BB010CE58229F582E5833AF583E0225057
:10006E0006E92582F8E622BBFE06E92582F8E222A1
:0D007E00E58229F582E5833AF583E49322BB
:10008B00BB010FF8E58229F582E5833AF583E02879
:10009B00F0225009C58229F8E58226F622BBFE091B
:1000AB00C58229F8E22582F222F8EA2583F583E955
:0300BB0093282265
:1000BE00BB010689828A83F0225002F722BBFE0121
:0200CE00F3221B
:1000D000F8BB010DE58229F582E5833AF583E8F066
:1000E000225006E92582C8F622BBFE05E92582C812
:0200F000F222FA
:1000F200BC000BBE0029EF8DF084FFADF022E4CCF2
:10010200F875F008EF2FFFEE33FEEC33FCEE9DECBA
:10011200984005FCEE9DFE0FD5F0E9E4CEFD22ED00
:10012200F8F5F0EE8420D21CFEADF075F008EF2F4A
:10013200FFED33FD4007985006D5F0F222C398FD3B
:050142000FD5F0EA22D8
:10014700C5F0F8A3E028F0C5F0F8E5821582700243
:060157001583E038F022E0
:10015D00BB0110E58229F582E5833AF583E0F5F0E0
:10016D00A3E0225009E92582F886F008E622BBFEBD
:10017D000AE92582F8E2F5F008E222E5832AF58303
:08018D00E993F5F0A3E99322C8
:10019500BB010DC58229C582C5833AC583020147C6
:1001A5005011C58229F808E5F026F618F5F0E58224
:1001B50036F622BBFE11C58229F808E225F0F5F0D6
:1001C500F218E23582F222F8E58229F582E5832AE2
:0D01D500F58374019325F0F5F0E4933822D2
:1001E200F8BB0111E58229F582E5833AF583E8F04F
:1001F200E5F0A3F0225009E92582C8F608A6F0220C
:0D020200BBFE09E92582C8F2E5F008F222F2
:10020F0075F008758200EF2FFFEE33FECD33CDCCA6
:10021F0033CCC58233C5829BED9AEC99E582984029
:10022F000CF582EE9BFEED9AFDEC99FC0FD5F0D606
:10023F00E4CEFBE4CDFAE4CCF9A88222B800C1B930
:10024F000059BA002DEC8BF084CFCECDFCE5F0CB6E
:10025F00F97818EF2FFFEE33FEED33FDEC33FCEBA7
:10026F0033FB10D703994004EB99FB0FD8E5E4F962
:10027F00FA227818EF2FFFEE33FEED33FDEC33FC4F
:10028F00C933C910D7059BE99A4007EC9BFCE99A43
:10029F00F90FD8E0E4C9FAE4CCFB2275F010EF2F88
:1002AF00FFEE33FEED33FDCC33CCC833C810D70788
:1002BF009BEC9AE899400AED9BFDEC9AFCE899F8C3
:0E02CF000FD5F0DAE4CDFBE4CCFAE4C8F92256
:1002DD00EB9FF5F0EA9E42F0E99D42F0E89C45F077
:0102ED0022EE
:1002EE00E8600FECC313FCED13FDEE13FEEF13FFEE
:0302FE00D8F12212
:0C030100ECF0A3EDF0A3EEF0A3EFF0226F
:10030D00A8828583F0D083D0821203241203241295
:10031D000324120324E473E493A3C583C5F0C583BA
:10032D00C8C582C8F0A3C583C5F0C583C8C582C83A
:01033D00229D
:10033E00BB010789828A830203B75005E9F80203DD
:10034E00AEBBFE05E9F80203E089828A830203E967
:06035E008A838982E4732A
:10036400E50E2582F582E50D3583F583B50D04850B
:10037400820E2210AF0685820EF50D2285820EF5BF
:040384000DD2AF22C5
:0D038800E50E2582F582E50D3583F5832213
:10041B00E5082476F582E43400F583E005082290A4
:10042B000073300703900076E475F0011203C002ED
:10043B0003952000E97F2ED2008018EF540F2490F3
:10044B00D43440D4FF30040BEF24BFB41A00500354
:10045B002461FFE50960021509050CE50C70020526
:10046B000B30070E900073E475F0011203C0EF021E
:10047B0000BE021AE27403D2078003E4C207F50838
:10048B009000731203D7E4F509F50BF50CE5096041
:10049B00077F2012045E80F5750AFFC201C200C2FD
:1004AB0002C203C205C206C20812042AFF700D3035
:1004BB0007057F0012046FAF0CAE0B22B4255FC291
:1004CB00D5C20412042AFF24D0B40A00501A75F0C6
:1004DB000A780930D50508B6FF0106C6A426F62012
:1004EB00D5047002D20380D924CFB41A00EF500484
:1004FB00C2E5D204020670D20180C6D20080C0D2FF
:10050B000280BCD2D580BAD20580B47F2012045EA3
:10051B002002077401B5090040F112041BFF1204FD
:10052B005E020498D208D206809512041BFB1204BB
:10053B001BFA12041BF94A4B700679417A077BFFB1
:10054B0020022EE509602A7E008E82758300120040
:10055B005E60060EEE650A70F0C2D5EBC0E0EAC035
:10056B00E0E9C0E0EE1206B7D0E0F9D0E0FAD0E057
:10057B00FB120395FF60AAEBC0E0EAC0E0E9C0E024
:10058B0012045ED0E02401F9D0E03400FAD0E0FB95
:10059B00E50A0460DCD50AD980877BFF7A0679B33C
:1005AB00D202809C791080027908C206C2088008AA
:1005BB00D2D5790A8004790AC2D5E50A047002F50E
:1005CB000AE4FAFDFEFF12041BFC7B082001131248
:1005DB00041BFD7B1030000A12041BFE12041BFFD0
:1005EB007B20EC3382D592D55013C3E43000069FA9
:1005FB00FFE49EFEE42001039DFDE49CFCE4CBF8AC
:10060B00C201EC700CCFCECDCCE824F8F870F3809F
:10061B0017C3EF33FFEE33FEED33FDEC33FCEB335F
:10062B00FB994002FB0FD8E9EB300105F8D0E0C491
:10063B0048B201C0E00AEC4D4E4F78207B0070C2EF
:10064B00EAB50A0040BCC0E01206B9D0F0D0E020F9
:10065B000104C4C0E0C4B201C0F0120447D0F0D50D
:10066B00F0EB0204981203F505355305AF58050658
:10067B004C05024205B34F05BB4405BB49051B4363
:08068B0005C15505A54605A5B2
:100693004505A547076150050A2D050E2E05312B8B
:1006A300051223052F20074A2A04CA4800000529FA
:1006B3003F3F3F00790AA2D5200314300509B91042
:1006C300020404B9080104A2D52006025001042043
:1006D30002689202B509005034C0E07F203003194C
:1006E3007F30A20272067205500F120710C202C2B7
:1006F30006C205C2087F30800F300503E9C0E0124F
:10070300045E300503D0E0F9D0E0B509CC3005171D
:100713007F30B9100C12045E7F583004077F788055
:1007230003B9080312045E3002057F2D02045E7FC5
:10073300202008F87F2B2006F322920280CF286E18
:10074300756C6C2900D20112041B3001F8C20178C8
:100753000930D50108F60204CA2D50434958120442
:100763001B2403B405004001E490075C9312044F7B
:0D077300743A12044FD2037509040205AF59
:10039500BB010689828A83E0225002E722BBFE0266
:0903A500E32289828A83E4932299
:0903AE00E6FB08E6FA08E6F92274
:0903B700E0FBA3E0FAA3E0F92247
:1003C000F8E0FBA3A3E0F925F0F0E58215827002C6
:0703D0001583E0FA38F0226A
:0903D700EBF0A3EAF0A3E9F02227
:0903E000E2FB08E2FA08E2F9224E
:0C03E900E493FB740193FA740293F92270
:1003F500D083D082F8E4937012740193700DA3A397
:1004050093F8740193F5828883E4737402936860AA
:06041500EFA3A3A380DFAA
:00000001FF
